:020000040800F2
:1000000000C0002001780008F17A0008F57A0008A5
:10001000F97A0008FD7A0008017B0008517B00088E
:10002000517B0008517B0008517B0008517B000880
:10003000517B0008517B0008517B0008E17F0008DC
:10004000517B0008517B0008517B0008DD760008D9
:10005000517B0008517B0008517B0008517B000850
:10006000517B0008517B0008517B0008517B000840
:10007000517B0008517B0008517B0008517B000830
:10008000517B0008517B0008C97B0008517B0008A8
:10009000517B0008517B0008517B0008517B000810
:1000A000298200084D82000871820008A982000898
:1000B000FD8200086D830008DD830008517B000885
:1000C000517B0008517B0008517B0008517B0008E0
:1000D000517B0008D5860008298700087D87000825
:1000E000517B000825770008517B00080585000832
:1000F000298500084D85000885850008197C0008C1
:10010000517B0008517B00084D840008517B00089A
:10011000D187000825880008BD840008E184000814
:10012000517B0008517B0008517B0008517B00087F
:1001300010B5054C237833B9044B13B10448AFF321
:1001400000800123237010BD18170020000000005C
:1001500044B7000808B5064B1BB106480649AFF383
:1001600000800648036813B1054B03B1984708BDEA
:100170000000000044B700081C17002018170020DA
:1001800000000000012902D11C30C0B270470629CE
:1001900084BF01F1FF31C9B211F0010F14BF1E205D
:1001A0001F207047444B2DE9F047B1FBF3F603FBEA
:1001B00016113C23B1FBF3F203FB12120546027049
:1001C0004FF46160B1FBF0F200FB1211B1FBF3F3ED
:1001D0006B704FF4FA63AA70B6B2EB80EC884FF400
:1001E000C873B4FBF3F803FB18481FFA88F8B8F19A
:1001F000000F16D06423B4FBF3F203FB12439BB24F
:10020000002B53D014F0030140F26D130CBF4FF4D8
:10021000B7721A4696420EDB002908BF4FF4B77337
:1002200004E0B6F5B77F06DB4FF4B773F61A013476
:10023000B6B2EC80D2E700236B716423B4FBF3F712
:1002400003FB1747BFB2B8F1000F06D03FB114F05F
:10025000030F14BF0020012002E0012000E0384617
:1002600095F80590C0B24946FFF78CFF864209F128
:10027000010A15D3B8F1000F06D03FB114F0030FF7
:1002800014BF0020012002E0012000E03846C0B287
:100290004946FFF777FF301A86B285F805A0D2E706
:1002A00001362E7185F805A0BDE8F087B6F5B67F5A
:1002B000C1DD40F26D13B9E780510100F8B5427815
:1002C00087783C2303FB072702780579467903FBEF
:1002D0000727013D013EEDB2F6B2044605714671B5
:1002E000013E731CE38834D04FF4C872B3FBF2F1C3
:1002F00002FB113292B262B16422B3FBF2F002FB54
:10030000103080B230B113F0030F14BF0020012071
:1003100000E00120C0B2F1B2FFF734FF284485B2FB
:10032000DEE74FF4C872B3FBF2F102FB113292B276
:10033000AAB16422B3FBF2F102FB113292B28AB18C
:1003400013F0030F40F26D1208BF4FF4B77215445B
:10035000ADB2013B9BB2B3F5FA6FE2D205E04FF4C8
:10036000B772F4E740F26D12F1E7024800FB057046
:10037000F8BD00BF8051010006F0F4B938B50D4654
:10038000044606F00AFA290A49006039204601F0BD
:10039000FE0106F099FA204606F06FFAE9B220460F
:1003A00006F092FA204606F068FA204606F0F5F9C3
:1003B0002046A12106F088FA204606F05EFA0021C8
:1003C000204606F0A8FA0546204606F039FA2046EF
:1003D00006F0FEF9284638BD70B50D4616460446AF
:1003E00006F0DBF9290A49006039204601F0FE01D8
:1003F00006F06AFA204606F040FAE9B2204606F016
:1004000063FA204606F039FA3146204606F05CFAD7
:10041000204606F032FA204606F0DAF9BDE87040D0
:100420000A2008F08DBF000008B5174A517893786C
:1004300043EA0123A3F52043142B1AD8DFE803F085
:100440000B210D0F19191919191919191919191938
:10045000191113151700002008BD022008BD072040
:1004600008BD032008BD042008BD052008BD0620E6
:1004700008BD00214FF40072034809F0C7FE0820B0
:1004800008BD012008BD00BF3C18002010B5074C76
:100490006018114606F06EF8054B1B781C4414F8E2
:1004A000073C1B1A5842584110BD00BF3C180020A1
:1004B0003D1A0020084B18795B7943EA002045F289
:1004C0005553984205D04CF20303C31A5842584181
:1004D00070470120704700BF3C180020044B9B79F7
:1004E000552B044B0CBF012200221A70704700BF2D
:1004F0003C180020A01C002010B5084CE379552BB7
:1005000001D1012010BD064801F057FFE379834275
:10051000F7D0D0F1010038BF002010BD3C180020FA
:10052000BF1D002013B50D4B1C7A552C01D10120A5
:1005300012E00B48694601F09BFE00231A461DF8A5
:1005400003108C42F3D019B90132D2B2052AEED091
:100550000133052BF3D1002002B010BD3C18002060
:10056000BF1D002070B505461E46FFF78FFF0446ED
:1005700040B91C4AD3781A441379D62B02D01A48B2
:100580001A492BE02846FFF795FF044678B1284624
:10059000FFF7A4FF2846FFF7AFFF044670B96EB11E
:1005A0001349114808F042FB0F48124916E012495E
:1005B0000D4808F03BFB0C4810490FE02846FFF7B8
:1005C000B1FF044660B99DF810300BB9012407E073
:1005D0000B49054808F02AFB03480A4908F026FBA6
:1005E000204670BD3C180020801E0020FCCE000874
:1005F00020CF000857CF0008A0CE0008CECE0008BC
:100600008ECF0008C6CF0008204B13B51B78002BF7
:1006100039D000230093042117220123FFF7A2FF02
:1006200040B31B491B4808F001FB1A4808F09EF92B
:10063000194B1C7A012C1AD1184A1948D97C14700C
:1006400001F024FF48B117480F21224606F074FB41
:100650001548214601F006FB0CE012481021022249
:1006600006F06AFB11490B4808F0E0FA02E00D4879
:1006700006F0DCF90E4B08481A78002102B0BDE8FC
:10068000104009F0C3BD02B010BD00BF0E00002035
:10069000FACF0008801E00203C1800200C0000202B
:1006A000BD1D0020791E0020BC1D00201AD00008AE
:1006B0003D1A00201B4B13B51B78002B30D00023B4
:1006C000009304210A220123FFF74CFFF8B11649D9
:1006D000164808F0ABFA154808F048F9144B012405
:1006E000144815491C7001F075FD38B113490F48C5
:1006F00008F09CFA12480321022206E011490B4837
:1007000008F094FA0E480421224606F015FB0E4B21
:100710000E481A78002102B0BDE8104009F076BDFD
:1007200002B010BD0E0000205ED00008801E002028
:100730000C000020BF1D00204418002076D00008C7
:10074000791E0020B8D000083D1A00203C18002077
:1007500037B50023009304210F22FFF703FF58B39E
:100760002349244808F062FA234D224808F0FEF895
:10077000224B0124224805F10A011C7001F09FFB65
:1007800068B31F4805F10A0101F0D9FB38B31D49D0
:10079000184808F04BFA1A48E97901F0D5FDA0B1E4
:1007A0001949144808F042FA18480521224606F073
:1007B000C3FA134801F0A4FC154B0F481A78002126
:1007C00003B0BDE8304009F021BD1249094808F0E6
:1007D0002DFA0E480621224606F0AEFAECE70E4945
:1007E000044808F023FA094806210122F4E700BF73
:1007F000FAD00008801E00203C1800200C000020C9
:10080000BF1D0020A0D1000815D10008791E0020CE
:100810003D1A00205BD10008CDD1000870B52E4BE9
:1008200088B01B78002B54D02C4C0025E278009522
:1008300004210123FFF796FE002841D028492948CA
:1008400008F0F4F9274808F091F8274B2548274984
:100850001D7008F0EBF9A67AE37A03EB0626042E66
:1008600006D820482249052608F0E0F9A572E6726C
:10087000204902A808F0E8FA02A905A808F027FB19
:10088000314605A808F00AFC0146164808F0C4F9EC
:1008900005A808F097FA02A808F094FA1648A17A79
:1008A000E27A02F0D7F818B90E48144908F0BEF9F8
:1008B000627B237B009212480021012206F0DCFCBF
:1008C000104B06481A78002108B0BDE8704009F0C6
:1008D0009DBC08B070BD00BF0E0000203C18002079
:1008E00008D20008801E00200C00002024D200083E
:1008F0005DD2000883D20008C91D002093D20008F1
:10090000791E00203D1A00202DE9F0418A4B90B05D
:100910001B78002B00F00D81884C0025E2780095B3
:1009200004210123FFF71EFE002800F0F98084490E
:10093000844808F07BF9834808F018F807F062FA59
:10094000814B627A1D70814B81491A70A27A814B6A
:100950007C481A7008F06AF9237BE67A0BAD7E4971
:1009600008A803EB062608F06FFA08A9284608F045
:10097000AEFA3146284608F091FB0146714808F06E
:100980004BF9284608F01EFA08A808F01BFA73482D
:10099000E17A227B01F0D8FF064600284CD170494D
:1009A000684808F043F96F4B01223046FF211A7066
:1009B00008F0BBFCFF210746304608F0B6FC6A4948
:1009C000064605A808F040FA05A9284608F07FFA6F
:1009D0001022F9B208A808F09DFA08A9284608F0E4
:1009E0002AFB0146574808F017F908A808F0EAF969
:1009F000284608F0E7F905A808F0E4F95B4905A8DE
:100A000008F022FA05A9284608F061FA1022F1B28E
:100A100008A808F07FFA08A9284608F00CFB014650
:100A2000484808F0F9F808A808F0CCF9284608F07A
:100A3000C9F905A808F0C6F928460021142209F0D2
:100A4000E5FBE678093E142E01D8002305E03D4879
:100A5000474908F0EBF8022207E0B34204D2E2185B
:100A6000527BEA540133F8E703223E4BFF2100207A
:100A70001A7008F05AFCFF218046002008F055FC4F
:100A80003949074602A808F0DFF902A908A808F0CA
:100A90001EFA10225FFA88F105A808F03BFA05A9B2
:100AA00008A808F0C8FA0146264808F0B5F805A8D5
:100AB00008F088F908A808F085F902A808F082F97A
:100AC0002A4902A808F0C0F902A908A808F0FFF90D
:100AD0001022F9B205A808F01DFA05A908A808F027
:100AE000AAFA0146174808F097F805A808F06AF92D
:100AF00008A808F067F902A808F064F91D4829461B
:100B0000324604F0E1FA637A227B0093A37AE17A19
:100B100001931948012306F0ADF9184B01221A7010
:100B2000174B06481A78002110B0BDE8F04109F0D3
:100B30006DBB10B0BDE8F0810E0000203C18002015
:100B4000D4D20008801E00200C0000204E1C002083
:100B5000FED200084F1C002054D30008C91D0020FD
:100B600064D300087A1E0020A5D30008B1D3000882
:100B7000BDD30008371E0020791E0020FC1D002078
:100B80003D1A0020F0B54E4B89B01B78002B00F0C9
:100B900094804C4E00230093F27804210123FFF748
:100BA000E1FC494C002800F086804849484808F09C
:100BB0003DF8474807F0DAFE464B1A780AB15B78F1
:100BC0005BB94549424808F031F800230093434897
:100BD00040490122424B00F0C3FE424B727A1B781F
:100BE000384D9A4267D1404BAA7A1B789A4262D11B
:100BF00001233E493648237008F018F82B7BEF7A22
:100C000005AC3B4902A803EB072708F01DF902A930
:100C1000204608F05CF93946204608F03FFA0146C4
:100C20002B4807F0F9FF204608F0CCF802A808F09E
:100C3000C9F8042F07D826482E4907F0F7FF0023EC
:100C4000EB7205232B732C48F17A327B01F0B8FE4E
:100C500020B92A491E4807F0E9FF20E028491C482E
:100C600007F0E4FF274902A808F0EEF802A92046A1
:100C700008F02DF9204801F0DFFE0146204608F07B
:100C80000DFA0146124807F0C7FF204608F09AF80F
:100C900002A808F097F84FF47A7008F051FB00238F
:100CA000F218527BE2540133072BF9D11648214642
:100CB00002F084FD01E00023237009B0F0BD00BF05
:100CC0000E0000203C1800200C0000200ED400086C
:100CD000801E0020761E00203AD40008BC1D002093
:100CE00053D400084E1C00204F1C00205DD4000887
:100CF000BBD40008CED40008C91D002022D50008AE
:100D000066D5000888D50008EC1D00202DE9F04FBD
:100D10006B4B89B01B78002B00F0CF80694E00240C
:100D2000F278009404210123FFF71CFC002800F056
:100D3000BB806549654807F079FF644807F016FEF7
:100D4000634F644A012313703B7007F05BF802F0B5
:100D50001FFF032006F0A2FC5F4A604B1470604A3C
:100D60001C7014705F4A604B1470604A1C701470E1
:100D70005F4B604A1C7014705F4B604A1C701470AB
:100D80005F4B604A1C7014605F4B604A1C601470BB
:100D90002546BB469A465E4A0023A3505D4A5E4FF5
:100DA000A3505E4ADFF8A881A3505D4ADFF8A49102
:100DB000A3505C4AE351A3505B4AE8B2A3505B4A9C
:100DC0000121AB545A4A44F80830AB54594A44F80C
:100DD0000930AB54584A0434AB54013505F056FB86
:100DE0000C2DD8D10123554896F8481096F8492083
:100DF0008BF8003001F06AFE10B13448504901E030
:100E00003248504907F012FF4C4801F09BFE4E4912
:100E1000CAF8000002A808F017F802A905A808F00F
:100E200056F8DAF8001005A808F038F90146274806
:100E300007F0F2FE05A807F0C5FF02A807F0C2FF01
:100E400006F0E0FF00221F4B1046114606EBD004CF
:100E500094F84A400C41E40714D59D7ADC7A04EBFF
:100E60000524BC5093F82A5093F82B4004EB05243A
:100E700048F8024093F84C5093F84D4004EB052499
:100E800049F802400131C9B2082900F1010008BF48
:100E900000210C2803F1020302F10402D6D10B4811
:100EA00007F064FD02F056FE284B06481A78002130
:100EB00009B0BDE8F04F09F0A9B909B0BDE8F08F5D
:100EC0000E0000203C18002095D50008801E002050
:100ED0000C000020B9170020021E0020261E002052
:100EE000FE1D0020FC1D0020ED1D0020271E0020FF
:100EF000361E0020B8170020081E0020BA17002058
:100F0000781D0020041E0020E41C0020031E002089
:100F10007C1D0020FC17002078170020281D0020D1
:100F2000501C0020A41C002034170020681D002045
:100F3000901C00203E1A00200F000020C91D002038
:100F4000C2D5000806D6000808E700083D1A0020B0
:100F5000E81C0020BC1700202DE9F041754B98B02B
:100F60001B78002B00F0E380734D0024EA78009496
:100F700004210123FFF7F6FA002800F0C3806F492F
:100F80006F4807F053FE6E4807F0F0FC6D4B0126EA
:100F90006D4895F8221095F823201E7001F06CFC26
:100FA00020B96A49664807F041FE00E02646002461
:100FB000674963480FAF07F039FE222338462146C0
:100FC0001022049405948DF8103009F01FF9332392
:100FD0008DF83C302346EA18927A04A95A5401331A
:100FE000082BF8D10023EA18927CFA540133102B15
:100FF000F9D1554801F09EFB002800F08C80524842
:10100000394601F0F5FB002800F0858051494C4835
:1010100007F00CFE4C4801F05CFB4F4805F064FB08
:10102000EC784748203CE4B24C4907F0FFFD0A2C1D
:1010300013D80023A34206AF05D2EA1892F8242061
:10104000FA540133F6E745493D4807F0EFFD4448BF
:101050003946036822469B68984706F0D3FE4FF452
:101060007A7008F06DF900243D4807F09BFC0028D9
:101070000DF14C080DDD3A4807F040FC08F804007B
:1010800001340B2CF0D12E48364907F0CFFD012456
:1010900021E004B3344909A807F0D6FE09A90CA839
:1010A00007F015FF21460CA807F0F8FF0146244879
:1010B00007F0B2FD0CA807F085FE09A807F082FE34
:1010C000002718F807101E481022013707F044FEC9
:1010D000A742F6D10CE01A48244907F0A7FD34B125
:1010E0001748234907F0A2FD0024042600E0032648
:1010F0006A7A2B7A8DE8040102941E483146012257
:1011000005F04CFF1C4B0C481A78002118B0BDE8C4
:10111000F04109F07BB81949094807F087FD0A48F2
:1011200001F0F4FA0C4805F0DFFA022678E718B06F
:10113000BDE8F0810E0000203C1800204DD60008CC
:10114000801E00200C000020C91D002077D600085A
:10115000B2D6000885D70008741E0020D6E3000828
:10116000B01E0020EAD60008FFD6000812D70008FB
:101170004AD70008791E00203D1A0020C2D7000877
:1011800010B50446FFF750F9082834D8DFE800F01E
:101190001F2429050A0F142E19002046BDE810400F
:1011A000FFF732BA2046BDE81040FFF783BA204669
:1011B000BDE81040FFF7CCBA2046BDE81040FFF76D
:1011C0002DBB0D480D49BDE8104007F02FBD20464E
:1011D000BDE81040FFF798BB2046BDE81040FFF780
:1011E000D1BC2046BDE81040FFF7B6BE2046BDE8A2
:1011F0001040FFF78BBD10BD801E0020FFD70008F8
:101200002DE9F043564B8BB01B688046554D06F0D8
:10121000F9FD00214FF40072534808F0F7FF002455
:1012200052482C7007F0BEFB0A284F4E2F467ED93D
:101230004E483146802207F0B3FD2870C3B29C426D
:101240006BD2335D484DFE2B65D12B1993F803907B
:10125000474901A807F0F8FD01A907A807F037FEE4
:101260001022494604A807F078FE04A907A807F051
:10127000E2FE01463F4807F0CFFC04A807F0A2FDBC
:1012800007A807F09FFD01A807F09CFD3B780B3BEA
:101290001B1B99453AD809EB04032B445A790D2AB4
:1012A00031D19A790A2A2ED1DA790D2A2BD11A7ADC
:1012B0000A2A28D15A7A0D2A25D19B7A0A2B22D1C3
:1012C0002C482D4907F097FCE4B2002509F10B03E7
:1012D00062199D42D2B210D2B15C284B1022E9545F
:1012E000244807F030FD2348254907F084FC254BAE
:1012F00001351A7801321A70E8E71E48224907F0D2
:1013000095FC01240AE01B48204901E019482049C6
:1013100007F08CFC01E0013490E700241248002122
:101320004FF4007208F072FF00233B7006E0304675
:1013300021464FF4007208F069FF2C7006F062FD40
:101340001CB14046FFF71CFF07E00C4821464FF454
:10135000007208F05BFF0B4B1C700BB0BDE8F08314
:10136000D01F0020741700204E1A0020981E002065
:101370001DD80008801E00202DD800083C18002031
:10138000B9E600083D1A00209EDB00083BD80008A3
:1013900066D8000808B51D20002107F03FFF1D207A
:1013A000012107F0A1FF1020002107F037FF1120D5
:1013B000002107F033FF1C20002107F02FFF112030
:1013C000002107F091FF1C20012107F08DFFBDE8EF
:1013D00008401020002107F087BF0000014807F0F7
:1013E0003FBB00BF981E002008B561B100211C2042
:1013F00007F07AFF962007F0A3FFBDE808401C2005
:10140000012107F071BF08BD08B500211D2007F0BC
:101410006BFF0C4807F027FB0220002107F0FEFEBF
:101420000320002107F0FAFE0220002107F05CFFF4
:101430000320002107F058FFBDE808401C200021D0
:1014400007F052BF981E002010B50B78452B12D123
:101450004B78522B0FD18B78CC78303B03EB830346
:10146000303C04EB4304E4B221460A22034807F06F
:1014700073FC204610BD0A2010BD00BF801E002056
:101480000B784F2B07D148784B2804D113704B7839
:10149000012053707047002070470000F0B593B0F2
:1014A0000F466846684916461C4607F0CDFC66495B
:1014B00003A807F0C9FC06A8634907F0C5FC00258E
:1014C000B5420DD2795D0A220FA807F023FD0FA9BE
:1014D000684607F06BFD0FA807F074FC0135EFE7D5
:1014E0005A490CA807F0B0FC0CA9684607F03BFE6F
:1014F0000022034669460FA807F038FE0FA903A88B
:1015000007F0EFFC0FA807F05DFC0CA807F05AFCF1
:101510004E490CA807F098FC0CA9684607F023FE7A
:10152000029B021D69460FA807F020FE0FA906A81E
:1015300007F0D7FC0FA807F045FC0CA807F042FC09
:10154000059B022B05D103A807F05BFE3038C5B21E
:1015500010E0042B30D103A807F053FE642290FB67
:10156000F2F302FB1302303B303A03EB830302EB4E
:101570004305EDB2364909A807F066FC09A90FA892
:1015800007F0A5FC102229460CA807F0C3FC0CA903
:101590000FA807F050FD2F4907F05AFD01462E48CD
:1015A00007F03AFB0CA807F00DFC0FA807F00AFCA7
:1015B00009A807F007FC2570089B022B05D106A897
:1015C00007F01FFE3038C5B210E0042B30D106A85A
:1015D00007F017FE642290FBF2F302FB1302303B8C
:1015E000303A03EB830302EB4305EDB21B4909A834
:1015F00007F02AFC09A90FA807F069FC1022294668
:101600000CA807F087FC0CA90FA807F014FD1149DE
:1016100007F01EFD0146104807F0FEFA0CA807F07F
:10162000D1FB0FA807F0CEFB09A807F0CBFB657034
:1016300006A807F0C7FB03A807F0C4FB684607F03D
:10164000C1FB13B0F0BD00BF9EDB000897D80008B7
:101650009CD80008A3D80008801E0020A9D8000844
:10166000F8B54C78432C08D18C78532C05D1CC7824
:10167000B4F151056C426C4100E000240026F5B243
:101680004F5D01363A2FFAD10135EDB20027954270
:10169000FEB207F1010706D811F805C0013501F8BF
:1016A00006C0EDB2F3E73CB92046C2B2B2420BD25B
:1016B0000A5C1A540130F8E7069A02241268147082
:1016C000721ED2B2FFF7EAFE0120F8BD37B5154809
:1016D00009B9154900E0154907F08DFA642007F0B3
:1016E0002FFE00240F4807F05DF90028E5B208DD61
:1016F000062C14D00B4807F001F90DF80400013452
:10170000F0E755B19DF802304F2B08D19DF803004A
:10171000B0F14B035842584102E0284600E0002057
:1017200003B030BD981E0020B1D80008B5D800081D
:1017300010B5012104461D2007F0D6FD07484FF4DF
:10174000165107F08DF920460121FFF74DFE204686
:101750000121BDE81040FFF7B9BF00BF981E00206F
:101760002DE9F0419EB005AD0C460746002190469C
:1017700028466422039308F049FD21462C4807F0CF
:101780003AFA642007F0DCFD0024294807F00AF942
:101790000028E6B207DD642C45D0254807F0AEF8F6
:1017A00028550134F1E726B92249234807F03EFACB
:1017B00039E09DF814300D2B35D19DF815300A2BEA
:1017C00031D11EAB334413F8653C0A2B2BD1023EBA
:1017D0001EAB334413F8643C0D2B24D10021CCB252
:1017E000A31CDBB2B34201F1010107DA1EAA1344C4
:1017F00013F8643C144404F8643CF0E73846294686
:10180000FFF722FE0A280CD103AB00933846294685
:1018100022464346FFF724FF00280CBF0320022086
:1018200002E0012000E003201EB0BDE8F08100BF0F
:10183000981E0020BBD80008801E00202DE9F04132
:10184000B2B006460D4690460021642268461F4607
:1018500008F0DCFC19A80021642208F0D7FC002461
:10186000E3B2E85C013420B132AA134403F8640CFB
:10187000F6E70146CAB25D1818F80240EDB232AA86
:1018800001312A4414B102F8644CF3E70D2302F845
:10189000643C6B1C32A8DBB203442F480A2203F8D5
:1018A000642C036819A95B6898472C48AA1C036834
:1018B00019A99B68D2B29847642007F041FD2748D8
:1018C00007F070F80028E5B208DD642C3FD023480B
:1018D00007F014F80DF804000134F0E7002D36D0BD
:1018E0009DF800300D2B32D19DF801300A2B2ED1FE
:1018F00032AB2B4413F8C93C0A2B28D1023D32AB42
:101900002B4413F8C83C0D2B21D100218B1CDBB2DA
:10191000AB4201F1010209DA32A8034413F8C83CD2
:10192000C9B2014401F8C83C1146EFE730466946A8
:10193000FFF78AFD0A2808D1304669463A46FFF784
:101940009FFD80F00100C0B202E0012000E0032012
:1019500032B0BDE8F08100BF801E0020981E00203C
:10196000F7B51E46044617460D4600218DF80710B0
:10197000FFF7ACFE06F046FA204631462FB12A4664
:101980000DF10703FFF7ECFE03E0089A2B46FFF783
:1019900055FF03282AD8DFE800F0110402070023CE
:1019A00011E01648164901E01448164907F03EF9BF
:1019B00020460121FFF78AFE00201CE012490F4853
:1019C00007F034F912E09DF807205E1CDBB29A4262
:1019D0000A4809D9E95C102207F0B5F907480B4914
:1019E00007F009F93346EEE707F00AF9204601212E
:1019F000FFF76CFE012003B0F0BD00BF801E002089
:101A0000CFD80008E0D80008E9D80008B9E60008F7
:101A10002DE9F0438BB004AF8046002109223846FF
:101A200002AE002408F0F2FB009440463146012249
:101A30002C4BFFF795FF054610B92B482B494BE07F
:101A40002346F25C07AC092A01D8303204E0A2F147
:101A50000A01052998BF3732E2540133082BF0D12F
:101A60004FF0000922488DF8249000F0FFFD024657
:101A7000C0B120491C4807F0D9F81D48394600F08C
:101A800063FD50B14B46E15CFA5C914217D10133E2
:101A9000082BF8D1144818491EE01849124807F0DD
:101AA000C5F807E0009440463146154BFFF758FF54
:101AB000054698B121460E4800F096FD0AE011490E
:101AC000094807F0B3F800974046314600220C4B16
:101AD000FFF746FF054601E007F0A8F828460BB0DF
:101AE000BDE8F083FFD80008801E00200AD9000856
:101AF000BD1D00202AD90008B2D9000848D9000825
:101B00006CD9000875D900082DE9F04F89B002AFF3
:101B100007F10C068346894690461C463046002154
:101B20000A2208F073FB002C50D1C7F804D05846A5
:101B3000CDF80080314601224B46FFF711FF824667
:101B400008B1214606E04049404807F06FF83F4899
:101B50003F496FE0CCB218F804300131002BF9D1C5
:101B6000E11D01F4FC71ADEB010D02A9D8B2A04258
:101B700003D2F05CC8540133F8E70B46581AC0B2E0
:101B8000A0420DD213F8010B092801D8303004E02F
:101B9000A0F10A05052DF1D8373003F8010CEDE767
:101BA0000025EBB2A34243D24B5D013508EB0500A3
:101BB00010F8010C9842F4D02649244807F036F872
:101BC0002248254907F032F87B689D466C46002381
:101BD000DAB219F8021001330A29F9D1931D03F47E
:101BE000FC73ADEB030DA2F1020E02AB0020C1B2FB
:101BF000551EA94200F1010003DA19F801505D54A5
:101C0000F5E700223D215A55584603F80E10CDF84D
:101C100000803146FFF7A4FE054628B90B480F495E
:101C200007F004F8AA4601E04FF0010AA54605E0D6
:101C300006480B4906F0FAFF7B689D4650461C3764
:101C4000BD46BDE8F08F00BFDCD90008801E002033
:101C500002DA000826DA00087DDA0008BFDA000898
:101C6000F4DA00087FB50F2204460D4668460021CD
:101C700008F0CCFA6848694906F0D8FF0A2606F051
:101C8000C1F8002D78D12046FFF7C2FE64498DF8D7
:101C90000000644A2B462046FFF736FF62498DF864
:101CA0000100624A2B462046FFF72EFF60498DF85F
:101CB0000200604A2B462046FFF726FF5E498DF85A
:101CC00003005E4A2B462046FFF71EFF5C498DF855
:101CD00004005C4A2B462046FFF716FF8DF80500EE
:101CE000594800F013FCF1285849204608D1584AB9
:101CF0002B46FFF709FF57498DF80600464807E0D5
:101D00004A4A2B46FFF700FF53498DF80600424828
:101D100006F08CFF5149524A00232046FFF7F4FE9B
:101D200050498DF807004E4A00232046FFF7ECFE8D
:101D30004D498DF80800464A00232046FFF7E4FE8F
:101D40004A498DF809004A4A00232046FFF7DCFE85
:101D500048498DF80A00484A00232046FFF7D4FE80
:101D6000324A8DF80B00454920460023FFF7CCFE90
:101D70000D228DF80C000EE0334800F0C7FBF1286F
:101D80000CBF334A294A204630490023FFF7BCFEE6
:101D900001228DF8000000231DF80310A9B938496D
:101DA0001D4806F043FF2046FFF7C2FC2046FFF720
:101DB0002BFB06F027F82046FFF7BAFC4FF4FA6039
:101DC00007F0BEFA06F01EF805E00133D9B29142E1
:101DD000E2D304B070BD2B4806F0E4FD002803DD1B
:101DE000284806F08BFDF6E7013E16F0FF067FF46B
:101DF00046AF2549084806F019FF2449064806F071
:101E000015FF40F6B83007F09BFA05F0FBFF04B071
:101E1000BDE8704006F02AB8801E00201CDB0008D8
:101E20004BDB000857DB000860DB00085DDB0008C7
:101E30006ADB000876DB00087FDB00088BDB00082C
:101E400094DB00089FDB0008BD1D0020A2DB00081A
:101E5000ACDB0008AFDB0008BCDB0008C9DB000816
:101E6000D3DB0008D6DB0008E0DB0008EADB000873
:101E7000F3DB0008F6DB000800DC000803DC0008E8
:101E80000DDC0008981E00202ADC000856DC000843
:101E90001520012107F028BA1520002107F024BAE7
:101EA00010B500210446152007F0B8F915200121CE
:101EB00007F01AFA2046BDE81040FEF75DBA7FB57C
:101EC00005460E46FFF7E8FF0D2433192146284644
:101ED00013F80D2C0134FEF77FFA162CF5D130469D
:101EE000092104F047FB0646214628463246FEF704
:101EF00073FA0D2421462846FEF740FA01AB23442D
:101F00000134162C03F80D0CF4D101A8092104F0BA
:101F100031FBB04203D0FFF7BBFF00200DE02846A5
:101F20000B21FEF72BFA552804D028460B21552209
:101F3000FEF752FAFFF7ACFF012004B070BD7FB589
:101F400005460E46FFF7A8FF1724331921462846F9
:101F500013F8172C0134FEF73FFA202CF5D1304648
:101F6000092104F007FB0646214628463246FEF7C3
:101F700033FA172421462846FEF700FA01AB234422
:101F80000134202C03F8170CF4D101A8092104F026
:101F9000F1FAB04203D0FFF77BFF00200DE02846A6
:101FA0000C21FEF7EBF9552804D028460C215522C8
:101FB000FEF712FAFFF76CFF012004B070BDF0B518
:101FC00085B001AD06460F4628460021092208F0DB
:101FD0001DF90D2421463046FEF7D0F92B190134A6
:101FE000162C03F80D0CF5D121463046FEF7C6F944
:101FF00009210446284604F0BDFA844206D1002394
:10200000EA5CFA540133092BFAD101E0002000E028
:10201000012005B0F0BDF0B585B001AD06460F4614
:1020200028460021092208F0F1F8172421463046FD
:10203000FEF7A4F92B190134202C03F8170CF5D165
:1020400021463046FEF79AF909210446284604F055
:1020500091FA844206D10023EA5CFA540133092B39
:10206000FAD101E0002000E0012005B0F0BD37B555
:102070000C461E210546FEF781F91F218DF804004C
:102080002846FEF77BF902218DF8050001A804F02F
:1020900071FA207003B030BD10B50B210446FEF775
:1020A0006DF988B1FFF7F8FE204600220B21FEF7FC
:1020B00093F9FFF7EDFE20460B21FEF75FF9D0F113
:1020C000010038BF002010BD012010BD10B50C214B
:1020D0000446FEF753F988B1FFF7DEFE20460022E2
:1020E0000C21FEF779F9FFF7D3FE20460C21FEF70D
:1020F00045F9D0F1010038BF002010BD012010BD0E
:1021000010B521210446FEF739F9552811D0FFF703
:10211000C3FE204655222121FEF75EF9FFF7B8FEE7
:1021200020462121FEF72AF9B0F1550358425841C3
:1021300010BD012010BD08B52121FEF71FF9B0F137
:1021400055035842584108BD70B504460D46FFF787
:1021500036FF20B120462946FFF75DFF48BB2046E9
:102160002946FFF72CFF48B11549164806F05EFDD9
:1021700020462946BDE87040FFF7E1BE20462946CB
:10218000FFF749FF06460F4846B10F4906F04EFDDE
:1021900020462946BDE87040FFF791BE0B4906F086
:1021A00045FD2046FFF778FF2046FFF78FFF3046BA
:1021B00070BD0749034806F039FD012070BD00BF1E
:1021C0007FDC0008801E0020B6DC0008EDDC000883
:1021D00001DD0008F8B504460E462F257319204688
:1021E000294613F82F7CFEF7C9F8874203D1013541
:1021F000342DF3D136E0FFF74FFE2F257319294612
:10220000204613F82F2C0135FEF7E6F8342DF5D1D2
:102210000521304604F0AEF90746294620463A46E5
:10222000FEF7DAF82F2520462946FEF7A7F873199E
:1022300013F82F3C834217D10135342DF3D12046BA
:102240002946FEF79BF8B8420ED120463521FEF70D
:1022500095F8552804D0204635215522FEF7BCF8C4
:10226000FFF716FE0120F8BDFFF712FE0020F8BDB3
:10227000F7B505460E462F2421462846FEF77EF880
:1022800000AB23440134342C03F82F0CF4D1052186
:10229000684604F06FF9214607462846FEF76EF8B7
:1022A000874207D100231DF80320F2540133052B88
:1022B000F9D101E0002000E0012003B0F0BD73B5CA
:1022C00005462F2421462846FEF758F800AB234444
:1022D0000134342C03F82F0CF4D16846052104F0A6
:1022E00049F9214606462846FEF748F8331A58426F
:1022F000584102B070BD38B50546FFF7CDFD2F241B
:1023000028462146FEF73AF868B1284621460022C1
:10231000FEF762F828462146FEF730F818B1FFF7BD
:10232000B7FD002038BD0134342CE9D128463521D1
:10233000FEF724F820B1284635210022FEF74CF89C
:10234000FFF7A6FD012038BD37B50D468DF8071003
:1023500036210446FEF712F885422BD002ADFFF776
:102360009BFD15F8012D20463621FEF735F8012199
:10237000284604F0FFF8372102462046FEF72CF8E5
:1023800020463621FDF7FAFF9DF8073083420DD134
:1023900020463821FDF7F2FF552804D02046382189
:1023A0005522FEF719F8FFF773FD03E0FFF770FD04
:1023B000002000E0012003B030BD3621FDF7DEBF74
:1023C00037B536210546FDF7D9FF02AB03F8010DFD
:1023D0001846012104F0CEF8372104462846FDF7BF
:1023E000CDFF231A5842584103B030BD10B53621F5
:1023F0000446FDF7C3FF88B1FFF74EFD20463621A6
:102400000022FDF7E9FF20463621FDF7B7FF18B19E
:10241000FFF73EFD002010BDFFF73AFD012010BD83
:1024200010B548210446FDF7A9FF552811D0FFF744
:1024300033FD204655224821FDF7CEFFFFF728FD4A
:1024400020464821FDF79AFFB0F155035842584104
:1024500010BD012010BD10B54D210446FDF78EFFC3
:10246000552810D0FFF718FD204655224D21FDF7C5
:10247000B3FFFFF70DFD20460021FDF77FFF003081
:1024800018BF012010BD012010BD000037B58DF828
:1024900007101031C9B20129044629D84C21FDF793
:1024A0006DFF9DF80730834228D002ADFFF7F4FCA2
:1024B00015F8012D20464C21FDF78EFF01212846FD
:1024C00004F058F84E2102462046FDF785FF2046CD
:1024D0004C21FDF753FF9DF80730834205D120467C
:1024E000FFF7B9FFFFF7D4FC08E0FFF7D1FC03E0EA
:1024F0000448054906F09AFB002000E0012003B0E3
:1025000030BD00BF801E002031DD000837B54C21F2
:102510000446FDF733FF02AB03F8010D1846012115
:1025200004F028F84E2105462046FDF727FF854296
:1025300002D19DF8070004E02046F021FFF7A6FF36
:10254000F02003B030BD0000F7B505460E464F241D
:1025500021462846FDF712FF00AB23440134572CD7
:1025600003F84F0CF4D10821684604F003F8214623
:1025700007462846FDF702FF87420CD100231DF8CD
:102580000320F2540133082BF9D10448044906F022
:102590004DFB012000E0002003B0F0BD801E0020B4
:1025A00067DD000810B558210446FDF7E7FE552801
:1025B00008D0FFF771FC204658215522FDF70CFF8B
:1025C000FFF766FC10BD10B558210446FDF7D6FE96
:1025D00040B1FFF761FC204658210022FDF7FCFEC8
:1025E000FFF756FC10BD0000F7B50F460546FFF794
:1025F00053FC3846082103F0BDFF4F2406463B1923
:102600002146284613F84F2C0134FDF7E5FE572CE0
:10261000F5D1214628463246FDF7DEFE4F242146FD
:102620002846FDF7ABFE00AB23440134572C03F8DA
:102630004F0CF4D16846082103F09CFF864206D077
:102640002846FFF7C0FFFFF723FC002007E00549FD
:10265000054806F0EBFA2846FFF7A4FF012003B077
:10266000F0BD00BF7CDD0008801E002008B55821A9
:10267000FDF784FEB0F155035842584108BD70B5CE
:1026800004460E461546FFF707FC20463246222137
:10269000FDF7A2FE204623212A46FDF79DFEFFF707
:1026A000F7FB70BDFDF76ABEFDF768BE70B5044666
:1026B0000E461546FFF7F0FB204632462421FDF773
:1026C0008BFE204625212A46FDF786FEFFF7E0FB1C
:1026D00070BD10B50446FFF7DFFB20465522592197
:1026E000FDF77AFEFFF7D4FB20465921FDF746FEA1
:1026F000B0F155035842584110BD08B55921FDF7B6
:102700003DFEB0F155035842584108BD10B504468E
:10271000FFF7C2FB204600225921FDF75DFEFFF7BF
:10272000B7FB20465921FDF729FED0F1010038BF43
:10273000002010BD73B5002305460E46009301939B
:10274000FFF7AAFB5A2433192146284613F85A2CBE
:102750000134FDF741FE622CF5D13046082103F02B
:1027600009FF0646214628463246FDF735FE5A2423
:1027700021462846FDF702FE00AB23440134622CBB
:1027800003F85A0CF4D10821684603F0F3FE04461E
:10279000FFF77EFBB442064804D1064906F046FA2C
:1027A000012003E0044906F041FA002002B070BDA8
:1027B000801E002091DD0008BFDD000838B5094902
:1027C0000546094806F032FA5A2421462846FDF704
:1027D000D5FD064B1A190134622C02F85A0CF4D1BB
:1027E000184638BDF0DD0008801E0020C01D002006
:1027F00073B5002305460E4600930193FFF74CFB8B
:10280000632433192146284613F8632C0134FDF75D
:10281000E3FD6B2CF5D13046082103F0ABFE0646F4
:10282000732128463246FDF7D7FD6324214628460A
:10283000FDF7A4FD00AB234401346B2C03F8630CBB
:10284000F4D10821684603F095FE0446FFF720FB0B
:10285000B442064804D1064906F0E8F9012003E035
:10286000044906F0E3F9002002B070BD801E00208C
:1028700028DE000856DE000870B50E4674210446B6
:102880001546FDF77BFDB04205D120467521FDF7C9
:1028900075FDA84219D0FFF7FFFA20467421324691
:1028A000FDF79AFD204675212A46FDF795FDFFF7B5
:1028B000EFFA20467421FDF761FDB0420BD12046AE
:1028C0007521FDF75BFDA84205D10649064806F0D3
:1028D000ADF9012070BD0549034806F0A7F90020B5
:1028E00070BD00BFCEDE0008801E0020F0DE0008B4
:1028F00010B50446FFF7D0FA204674210022FDF7F8
:102900006BFD204675210022FDF766FDFFF7C0FA3A
:1029100020467421FDF732FD20B920467521FDF7D0
:102920002DFD28B10549064806F080F9002010BDAC
:102930000449034806F07AF9012010BD12DF0008AF
:10294000801E002035DF000870B50E467621044653
:102950001546FDF713FDB04205D120467721FDF75E
:102960000DFDA84219D0FFF797FA2046762132468E
:10297000FDF732FD204677212A46FDF72DFDFFF7B2
:1029800087FA20467621FDF7F9FCB0420BD12046AC
:102990007721FDF7F3FCA84205D10649064806F069
:1029A00045F9012070BD0549034806F03FF90020B4
:1029B00070BD00BF58DF0008801E002080DF0008C7
:1029C00070B50E467A2104461546FDF7D7FCB04295
:1029D00005D120467B21FDF7D1FCA84219D0FFF795
:1029E0005BFA20467A213246FDF7F6FC20467B2131
:1029F0002A46FDF7F1FCFFF74BFA20467A21FDF756
:102A0000BDFCB0420BD120467B21FDF7B7FCA842AC
:102A100005D10649064806F009F9012070BD0549AF
:102A2000034806F003F9002070BD00BF02E0000873
:102A3000801E002034E0000838B57A210546FDF7F5
:102A40009DFC7B2104462846FDF798FC00EB042002
:102A500038BD000070B50E46782104461546FDF7D6
:102A60008DFCB04205D120467921FDF787FCA842B4
:102A700019D0FFF711FA204678213246FDF7ACFC59
:102A8000204679212A46FDF7A7FCFFF701FA2046E8
:102A90007821FDF773FCB0420BD120467921FDF778
:102AA0006DFCA84205D10649064806F0BFF8012092
:102AB00070BD0549034806F0B9F8002070BD00BF9D
:102AC000C9E00008801E0020F5E0000870B50E4641
:102AD0007C2104461546FDF751FCB04205D1204645
:102AE0007D21FDF74BFCA84219D0FFF7D5F9204610
:102AF0007C213246FDF770FC20467D212A46FDF7F9
:102B00006BFCFFF7C5F920467C21FDF737FCB0428E
:102B10000BD120467D21FDF731FCA84205D10649A5
:102B2000064806F083F8012070BD0549034806F009
:102B30007DF8002070BD00BF7BE10008801E0020F2
:102B4000ABE1000838B57C210546FDF717FC7D2177
:102B500004462846FDF712FC00EB042038BD0000B7
:102B60007FB532490546324806F060F8304805F036
:102B7000FDFE05F047F941F2883006F0E1FB05F073
:102B800041F92B4805F00EFF00280ADD284805F022
:102B9000B5FEC1B2274806F00EFA022006F0D0FBBF
:102BA000EFE7244CA668002E34D0204606F01DFB2B
:102BB00021461F4806F030F81F4901A806F044F9E5
:102BC00001A9204606F08AFA064601A806F0FAF89E
:102BD0001748EEB1194906F029F81949204606F0C0
:102BE00088F928462121FDF7C9FB40B1FFF754F9C8
:102BF000284621210022FDF7EFFBFFF749F928467F
:102C00002121FDF7BBFBD0F1010038BF00200AE015
:102C10000C4901E006480C4906F008F8204608492E
:102C200006F067F9304604B070BD00BF3DE2000811
:102C3000801E0020281E00208EE2000892E200087C
:102C40009EDB0008C8E20008F3E2000800220260F0
:102C500042607047006820B103688B4201D08068F1
:102C6000F9E7704770B504460C2016460D4606F08D
:102C7000BBFF00228260226880E860000AB9206001
:102C800001E062689060606070BD10B51446FFF7A7
:102C9000E1FF08B14460012010BD08B5FFF7DAFF7D
:102CA00000B1406808BD01F51C414131FFF7DABFB2
:102CB00001F51C414131FFF7E8BF01F51C414131ED
:102CC000FFF7EBBF002A01F1010114BF4FF47F426F
:102CD0000022FFF7C7BF002A01F51C5101F11101C5
:102CE00014BF4FF47F420022FFF7BCBF01F5EA4159
:102CF0003131FFF7B7BF002A01F1010114BF4FF4D2
:102D00007F420022FFF7C1BF002A01F51C5101F1EB
:102D1000110114BF4FF47F420022FFF7B6BF01F547
:102D2000EA413131FFF7B1BF08B50131FFF7B5FF17
:102D3000B0F57F435842584108BD01F51C5108B514
:102D40001131FFF7AAFFB0F57F435842584108BD43
:102D500001F5EA413131FFF7A0BF000070B504462C
:102D60000D4609480949164605F060FFA06806F0BF
:102D700043FF0220207306F037FF803D0323A0604D
:102D800005704670637370BD801E002016E3000856
:102D9000F8B5531E7C2B04460F46164602D9032174
:102DA0000A4617E001F51C414131FFF753FF18B9FE
:102DB0002046032102220DE0A06806F01DFF701CD2
:102DC0004000C0B2207306F00FFFA06030B920466B
:102DD00003210422BDE8F840FFF7C0BF03230370BE
:102DE000237B0025023B4370E9192046FFF765FF6E
:102DF000A3680135020A03F81520A368B54203EB66
:102E000045035870F0D103236373F8BD70B50446D1
:102E10000E461546FFF74CFF18B920460621022240
:102E200008E020463146FFF748FFA84206D020467A
:102E300006210422BDE87040FFF790BF02236373B0
:102E400070BD2DE9F8431F4616467A1E7A2A0446BD
:102E500088469DF8203002D8B3EB470F03D02046B8
:102E6000102103221CE006F51C45413505EB07093E
:102E700020462946FFF7EEFE18B92046102102220F
:102E80000EE001354D45F3D1A06806F0B5FE0520F2
:102E9000207306F0A9FEA06030B92046102104225C
:102EA000BDE8F843FFF75ABF10230370330A43709D
:102EB000002307718670C37008F106053744BE42CF
:102EC00005F102050BD015F8022C15F8013C31462E
:102ED000204643EA0222FFF7EBFE0136EFE7032329
:102EE0006373BDE8F8832DE9F843531EB3F5FA6F19
:102EF00004460F46154602D30121032219E0013191
:102F0000FFF7A8FE18B920460121022211E0A068AF
:102F100006F072FEC5F3C7036A070CBF0233033322
:102F20002373207B06F060FEA06030B920460121AB
:102F30000422BDE8F843FFF711BF01230370237B90
:102F400005EB0708023B43703E46002546451CD072
:102F500031462046FFF7E8FEC7F10109B1444FEAC8
:102F6000D909012109F10203A268A94010B1D05C7E
:102F7000014302E0D05C20EA01010135EDB2082DE9
:102F8000D15408BF00250136E0E703236373BDE891
:102F9000F88300002DE9F843531EB3F5FA6F044699
:102FA0000F46154602D3022103221FE001F51C51F2
:102FB0001131FFF74FFE18B920460121022215E01A
:102FC0002249234805F032FEA06806F015FEC5F33D
:102FD000C7036A070CBF023303332373207B06F059
:102FE00003FEA06030B9204602210422BDE8F84368
:102FF000FFF7B4BE02230370237B05EB0708023BF7
:1030000043703E46002546451CD031462046FFF71A
:1030100094FEC7F10109B1444FEAD909012109F130
:103020000203A268A94010B1D05C014302E0D05C69
:1030300020EA01010135EDB2082DD15408BF002569
:103040000136E0E703236373BDE8F8833BE3000840
:10305000801E0020F8B5531E7C2B04460F461646F2
:1030600002D90421032217E001F5EA413131FFF7CB
:10307000F1FD18B92046012102220DE0A06806F0FA
:10308000BBFD701C4000C0B2207306F0ADFDA06017
:1030900030B9042120460A46BDE8F840FFF75EBE7D
:1030A00004230370237B0025023B4370E91920466B
:1030B000FFF74EFEA3680135020A03F81520A36846
:1030C000B54203EB45035870F0D103236373F8BD99
:1030D00070B5B2F57F4F86B004460E4603D012B1EC
:1030E0000521032215E0151C18BF01252046314695
:1030F0002A46FFF700FE18B920460521022208E003
:1031000020463146FFF710FEA84205D02046052193
:103110000422FFF723FE17E00C49684605F094FEF1
:10312000694603A805F0D3FE094903A805F090FFFE
:103130000146084805F070FD03A805F043FE684607
:1031400005F040FE0223637306B070BD65E300081E
:103150007DE30008801E00202DE9F0438BB004467B
:10316000894604A86C49DF081D46164605F06CFE2A
:1031700004A907A805F0ABFE394607A805F08EFFA5
:103180000146664805F048FD07A805F01BFE04A8A7
:1031900005F018FE6B0705F1FF3318BF0137B3F5D3
:1031A000F66F03D29DF84830BB4207D05C495B48BC
:1031B00005F03CFD20460F2103224DE0771C07EB74
:1031C000050820463946FFF745FD18B920460F216E
:1031D000022241E001374745F3D15048514905F0FB
:1031E00025FD0627504901A805F02EFE01A904A8D7
:1031F00005F06DFE394604A805F050FF4B4905F077
:1032000027FF102219F80710804607A805F082FE54
:1032100007A9404605F00FFF0146404805F0FCFCB9
:1032200007A805F0CFFD04A805F0CCFD013701A8E3
:1032300005F0C8FD102FD5D13A49384805F0F6FC05
:10324000A06806F0D9FC0520207306F0CDFCA06034
:1032500028B920460F210422FFF780FD58E00F23F4
:103260000370330A43702B0A8670C37005712D49B1
:103270002A4805F0DBFC06272B4901A805F0E4FDF0
:1032800001A904A805F023FE394604A805F006FFAD
:10329000264905F0DDFE102219F80710804607A820
:1032A00005F038FE07A9404605F0C5FE01461B485B
:1032B00005F0B2FC07A805F085FD04A805F082FD25
:1032C000013701A805F07EFD102FD5D1134815490F
:1032D00005F0ACFC3544B0460027C6EB080309EB0B
:1032E000D3039A7941463A410137FFB2204602F0B2
:1032F0000102FFF700FD08F10108082F08BF0027B1
:10330000A845EAD105480A4905F090FC03236373F8
:103310000BB0BDE8F08300BF8FE30008801E0020E3
:10332000A1E300086FEF0008C2E30008C9E300084A
:10333000CDE300082DE9F0418B784F788CB0CE7842
:1033400043EA07270B7991F800800C46054654495B
:1033500003A843EA062605F077FD03A909A805F0AE
:10336000B6FD1022217806A805F0D4FD06A909A80B
:1033700005F061FE01464B4805F04EFC06A805F03D
:1033800021FD09A805F01EFD03A805F01BFD464917
:1033900003A805F059FD03A909A805F098FD10221E
:1033A000394606A805F0D9FD06A909A805F043FE8F
:1033B00001463C4805F030FC06A805F003FD09A8CD
:1033C00005F000FD03A805F0FDFC384903A805F051
:1033D0003BFD03A909A805F07AFD1022314606A895
:1033E00005F0BBFD06A909A805F025FE01462D48FC
:1033F00005F012FC06A805F0E5FC09A805F0E2FCC2
:1034000003A805F0DFFC08F1FF330F2B3FD8DFE8FE
:1034100003F01D230E292F083E3E3E3E3E3E3E3E1B
:103420003514284639463246FFF7F0FC34E028468A
:1034300039463246FFF7ACFC2EE06379284600930C
:1034400021463A463346FFF7FCFC25E0284639463C
:103450003246FFF748FD1FE0284639463246FFF75F
:1034600099FD19E0284639463246FFF7F3FD13E08F
:10347000284639463246FFF72BFE0DE06379284691
:10348000009321463A463346FFF766FE04E028469D
:1034900041460122FFF762FC0CB0BDE8F08100BF9D
:1034A000DCE30008801E0020E8E30008F2E30008E7
:1034B00010B50446FFF7CAFB204610BD80F828105F
:1034C0000120704770B5049E0161C661044615462F
:1034D00008461146DAB205F087FA4FF4FA6005F0B3
:1034E0002FFF002E08DBF6B23046002105F096FED5
:1034F0003046002105F0F8FEB5F5964F06DD40F2A6
:10350000EE23236240F2D663636207E0044B93FB31
:10351000F5F32362034B93FBF5F56562012070BD63
:10352000C0E1E400C00E160270B50446C06986B062
:1035300000280D4606DBC0B2012105F0D5FE0120B2
:1035400005F0FEFE0023227B5E1CDBB29A421FD9EF
:10355000194A1068411C1160E95C184A1154D15C89
:103560006846102205F0D6FC694603A805F0AFFCBA
:10357000134903A805F06CFD0146124805F02EFB27
:1035800003A805F01FFC684605F01CFC3346DAE78B
:103590000D490C4805F04AFB206903689B69984770
:1035A000606A05F0DBFEE069002803DBC0B20021A1
:1035B00005F09AFE06B070BDE01D0020CA1D002077
:1035C000B9E60008801E0020FCE40008F0B5C943FD
:1035D0000B4EC9B2705C0B4DC0436C5CC0B2002195
:1035E000AC46CFB2BB4207D0555C01314540705D5F
:1035F00060401CF80540F4E744EA0020F0BD00BF3D
:10360000FCE30008ACE500082DE9F0410D78037BF0
:10361000FF2D01EB030204460E4612F8028C12F84D
:10362000017C03D090F82820AA4219D1A268033B5C
:10363000204612F8011BDBB2FFF7C8FF47EA082754
:10364000874202D00A480B490CE02046711CFFF764
:1036500071FEFF2D4FF0010007D16073BDE8F081CE
:103660000348054905F0E2FA0020BDE8F08100BFFB
:10367000801E002024E5000850E50008F8B5044647
:10368000C0690F46002806DBC0B2012105F02CFE00
:10369000012005F055FE194D19491A4805F0C6FAE2
:1036A000194E2B6894F828105A1CF154237B2A6079
:1036B0000022D0B298420AD2286800F1010EC5F863
:1036C00000E017F802E0013206F800E0F1E7A26836
:1036D0002046FFF77BFF2B68020AF2541E449A1C17
:1036E0007070606A2A6005F039FEE069002803DB2B
:1036F000C0B2002105F0F8FDF8BD00BFE01D0020BC
:1037000080E50008801E0020CA1D0020D2B238B516
:1037100004460D460273002A3ED02049204805F099
:1037200085FA207B06F060FA0023A060227B591CFA
:10373000DBB29A4204D9E85CA268D0540B46F5E7A4
:103740001748184905F072FA0025237B9D4207D2DD
:10375000A3681348595D102205F0FEFA0135F4E71D
:1037600010490F4805F062FA2046A168FFF74CFFA8
:1037700068B1637B032B04D12046A168FFF77EFF6D
:1037800005E0022B03D12046A168FFF7CDFEA0681B
:1037900006F032FA0023237338BD00BFA0E500080D
:1037A000801E0020D3E3000808B5032003F076FF55
:1037B000014B01221A7008BDED1D002070B55E4856
:1037C0000D46097803F0DAF8697806465A4803F09E
:1037D000D5F806EB8606594C06EB860600EB86000C
:1037E000E080A978544803F0C9F86071E97852483C
:1037F00003F0C4F8207129794F4803F0BFF86979C4
:10380000A0704D4803F0BAF8A97960704A4803F0F7
:10381000B5F84B4920704B4805F0EDF9E1880A22D4
:10382000484805F078FA4849464805F0E4F96179D6
:103830000A22444805F090FA4449424805F0DBF971
:1038400021790A223F4805F087FA41493D4805F0B1
:10385000D2F9A1780A223B4805F07EFA3D49394861
:1038600005F0C9F961780A22364805F075FA3A4937
:10387000344805F0C0F90A222178324805F06CFA84
:1038800004F042FA642005F05BFD2046FCF716FDCB
:103890000146324803F020FE642005F051FD04F09B
:1038A00039FA2E4803F01BFE01462046FCF77AFC4D
:1038B000E1886423B1FBF3F1C9B21F4803F055F866
:1038C0002870E2884FF47A73B2FBF3F103FB112105
:1038D0001948C9B203F049F868706179164803F0D5
:1038E00044F8A8702179144803F03FF8A178E870F3
:1038F000114803F03AF8617828710F4803F035F861
:10390000217868710C4803F030F80024A871295D13
:1039100010220C4805F017FA01340A48104905F046
:103920006AF9072CF3D1074805F06AF9BDE8704041
:1039300004480C4905F07AB9751E0020E41D0020EA
:10394000ACE60008801E0020B3E60008BBE60008D5
:10395000C1E60008C8E60008D2E60008EE1D002017
:10396000B9E60008DCE6000870B51B4886B0FCF735
:10397000A5FC1A4C054604F0C7F90A2005F0E0FC46
:103980002946204603F0A8FD204603F0A8FD144D6B
:1039900014492A688618684605F056FA694603A84D
:1039A00005F095FA296803A805F078FB01460E4852
:1039B00005F032F903A805F005FA684605F002FAA9
:1039C0000A493246204603F08CFD0A2005F0B8FC77
:1039D00004F0A0F906B070BDE41D0020EE1D00202B
:1039E000E41C0020FFE60008801E0020A937000824
:1039F0000148112103F067BDEE1D0020174B10B5E3
:103A00001A6886B001321A60154A116801311160D6
:103A10001A68B2F5615F04D300221A60114B0122CB
:103A20001A70114C6846236810490133236005F071
:103A30000BFA694603A805F04AFA216803A805F0C5
:103A40002DFB01460A4805F0E7F803A805F0BAF98E
:103A5000684605F0B7F906B010BD00BFF41D0020A0
:103A6000F81D0020351E0020F01D002081E7000811
:103A7000801E002038B50E4C0E48236801332360A9
:103A8000FEF7DAFF042812D90A48FEF7D5FFB0F591
:103A9000E16F00D938BD07482568FEF7CDFF8542A4
:103AA00005D300232360044B01221A7038BD38BDB2
:103AB000F81D0020C91D0020781E002010B5084CFC
:103AC0000849204605F015F820460121064A05F070
:103AD0002FF820460021BDE8104005F001B800BFD6
:103AE000781F002040420F00753A000810B5084CBE
:103AF0000849204604F0FDFF20460121064A05F052
:103B000017F820460021BDE8104004F0E9BF00BFCF
:103B1000801F002040420F00FD39000810B5054C01
:103B2000204604F0CFFF20460021BDE8104004F0FD
:103B3000D7BF00BF781F002010B5054C204604F009
:103B4000C1FF20460021BDE8104004F0C9BF00BFFE
:103B50007C1F002010B5064C204604F0B3FF204621
:103B6000002104F0BDFF034B00221A6010BD00BF0E
:103B7000801F0020F01D0020014804F09BBF00BF03
:103B8000781F0020014804F095BF00BF7C1F002073
:103B900008B5034804F08EFF024B00221A6008BDEE
:103BA000801F0020F01D002030B5354C8DB02378EB
:103BB000002B63D0334B34481D78002D5AD000259C
:103BC000324905F033F82570FFF7D6FF2846FF216C
:103BD00005F0ABFBFF21C4B2284605F0A6FB2C493B
:103BE000C5B203A805F030F903A909A805F06FF9DB
:103BF0001022214606A805F08DF906A909A805F0AE
:103C00001AFA0146204805F007F806A805F0DAF888
:103C100009A805F0D7F803A805F0D4F803A81D49B2
:103C200005F012F903A909A805F051F91022294657
:103C300006A805F06FF906A909A805F0FCF90146E8
:103C4000114804F0E9FF06A805F0BCF809A805F042
:103C5000B9F803A805F0B6F801210A460E48234634
:103C6000009503F009FBFFF759FF0C49064804F0E3
:103C7000DDFF03E00A4904F0D9FF25700DB030BD27
:103C8000781E0020B9170020801E002093E700084E
:103C9000A5D30008B1D30008791E0020CAE70008A8
:103CA0000AE80008F7B5294802F064FA284CFF2119
:103CB0002070002005F039FBFF21C5B2002005F07F
:103CC00034FB244B22781978C6B29142224C06D09C
:103CD0001A70224801232249237004F0A7FF237899
:103CE00093B120491D4804F0A1FF1B4B002119701E
:103CF0001D4B01221A701D4800962B4603F0BCFA9A
:103D000016481B4904F092FF1A4F3B78E3B11A4959
:103D1000124804F08BFF144B00241C703C702146A9
:103D20002B4600961148012203F0ACF9214600967B
:103D30000E4801222B4603F09FFA08480F4903B0B2
:103D4000BDE8F04004F072BF03B0F0BD371E0020A4
:103D5000FD1D0020001E0020FC1D0020801E0020F4
:103D60002FE8000842E800080C000020791E00201F
:103D700093E80008271E0020D2E8000824E9000884
:103D800010B5064C0649204605F05EF82046054968
:103D9000054ABDE8104005F0F5BB00BF281E002015
:103DA0009EDB0008C58D00080800002030B54A4899
:103DB00085B0FEF7C0F9002846D1484B4849187035
:103DC0004548FEF77CF828B143484549FEF7B7F867
:103DD000002877D14048FEF709FB20B13E48FEF7A6
:103DE0008AFA002873D101238DF804303A48002361
:103DF00001A98DF805308DF806308DF807308DF863
:103E00000830FEF7E7F918B13648374904F00EFFDD
:103E100031480121FEF798FA18B13248334904F0CD
:103E200005FF33492F4804F001FF32492D4804F0C3
:103E3000FDFE09E0304CA368EBB92F482C4905F092
:103E400058F82E48FDF7DCF92348FEF774F90028EE
:103E500033D103F0D7FF234804F0A4FD0028E9DDA7
:103E6000204804F04BFDC1B2234805F0A4F802201D
:103E700005F066FAEFE7204605F0B7F92146194844
:103E800004F0CAFE1E4901A804F0DEFF204601A985
:103E900005F024F9054601A804F094FF55B1144932
:103EA000204605F026F80F48164904F0BFFE1648D4
:103EB00002F0BCFD03F0A6FFBFE7084B01221A7019
:103EC00005B030BD1149074804F0B0FE82E7104943
:103ED000044804F0ABFE86E7BF1D00200E00002062
:103EE000091E0020801E00205EE900089BE90008F2
:103EF0009EDB0008D7E90008281E00203C1A00209D
:103F000090E200081AEA0008791E00205DEA000825
:103F100091EA000870B503F075FF194B1B7843BB9D
:103F200070BD184C18482678184D731C237004F087
:103F3000E5FCA855022005F003FA2378132B0CD9D1
:103F400003F060FF002612491248267004F06EFE4E
:103F500028463146142206F059F923780D481D44AD
:103F600015F8011C102204F0EEFE0A480A4904F07C
:103F700042FE054804F016FD0028D2DC70BD00BFEB
:103F8000011E0020FF1D0020B01E0020121E002078
:103F9000D8EA0008801E00200AEB000830B5B648B9
:103FA0008FB002F0FEFAB54800F0E0FEB44B0620F8
:103FB0001A684FF4FA6122F0E06242F080621A60FF
:103FC00003F010FFAF484FF4165104F049FDAE481E
:103FD0004FF41651FDF702FAAC48372104F0DEFE2B
:103FE0004FF41651AA4804F03BFD03F080FEA948A7
:103FF000FDF756FFA04802F077FB03F003FFA2484D
:10400000FDF7C8F90121A048FDF760FBA24D4FF470
:10401000FA6005F095F90024A0482C70FDF7F0F83F
:1040200001232B7003F0EEFEF1219D48FEF72EFADE
:1040300021469548FDF716FE9948FEF7F1F9994992
:10404000904804F0F3FD98482221FEF72DFB02284A
:10405000054606D194482321FEF726FB1028044686
:1040600020D0102290480221FEF709FB8F4902A8B8
:1040700004F0EAFE02A908A804F029FF1022022198
:1040800005A804F058FF05A908A804F0D4FF884942
:1040900004F0DEFF102104460A460BA804F04BFF93
:1040A00020461AE0834902A804F0CEFE02A908A81F
:1040B00004F00DFF2246294605A804F03CFF05A99F
:1040C00008A804F0B8FF7A4904F0C2FF214605466B
:1040D00022460BA804F02FFF28460BA904F0ABFFE3
:1040E0000146684804F098FD0BA804F06BFE05A893
:1040F00004F068FE08A804F065FE02A804F062FE61
:1041000069482421FEF7CEFA0228044616D16648F3
:104110002521FEF7C7FA054680B9674908A804F0CB
:1041200093FE08A90BA804F0D2FE21460BA804F0C8
:10413000ABFF5F4904F08CFF294614E000225A4887
:104140000221FEF7B3FA5D4908A804F07DFE08A934
:104150000BA804F0BCFE02210BA804F095FF544903
:1041600004F076FF002104F08FFF0146454804F07B
:1041700053FD0BA804F026FE08A804F023FEFFF769
:10418000C9FE4F48FEF7ECFCFFF710FE4C484D49C6
:10419000FDF7DAFFA0B943493A4804F047FD4A4920
:1041A000384804F043FD494802F058FD3B48FDF70C
:1041B00027F840F6B83002F0EBFB03F023FEE5E70A
:1041C0004349304804F032FD03F01CFEFFF776FC53
:1041D000FFF7A4FC3F492B4804F028FD314929484A
:1041E00004F024FDFFF7CEFC3B49264804F01EFDF9
:1041F0002C49244804F01AFDFFF778FCFFF7C8FCAF
:104200003649204804F012FD26491E4804F00EFDF0
:10421000FF21002005F089F8FF210446002005F069
:1042200084F8C0B20222E3B200900121274802F0D4
:10423000A5FF2B49134804F0F9FC1A49114804F072
:10424000F5FC0E4801F096FF264B27491870274BC6
:1042500018700C4804F0EAFC12490A4804F0E6FC25
:10426000234800210522FEF7ABFB002844D1214959
:10427000044804F0DBFC60E0741E0020371E0020C0
:1042800004000140801E0020BC1D0020981E00205C
:10429000B01E0020C81D00200D0000203C1A002088
:1042A000BD1D00209EDB0008BE1D002062EC000842
:1042B0007ADD0008ADEC0008C3EC0008D9EC00087A
:1042C000BF1D0020091E00200CEB0008791E0020F5
:1042D00040EB000859EB000896EB0008CDEB000816
:1042E00005EC0008001E00201AEC0008FD1D00204F
:1042F000C91D002022D500081149124804F096FC7F
:10430000114908A804F0A0FD08A90BA804F0DFFDDE
:104310000E48FEF791FB01460BA804F0BFFE0146D4
:10432000084804F079FC0BA804F04CFD08A804F040
:1043300049FD4FF47A7005F003F80FB030BD00BFAF
:1043400066D50008801E002088D50008C91D002001
:1043500030B587B0424804F025FB00280ADD40480C
:1043600004F0CCFAC1B23F4804F025FE022004F06C
:10437000E7FFEFE73B4CA368002B6ED0204604F02C
:1043800034FF2146364804F047FC374903A804F0BF
:104390005BFD204603A904F0CEFE054603A804F009
:1043A00011FD002D33D020460021042204F004FF2B
:1043B000204604F026FF2D4C02462060C2F3072160
:1043C0002B48D2B2FEF782FB10B12548294901E003
:1043D0002348294904F02AFC2548FEF7B3FB274966
:1043E0002060684604F030FD694603A804F06FFDC4
:1043F000216803A804F052FE0146194804F00CFCA1
:1044000003A804F0DFFC684604F0DCFC18E01C495B
:1044100003A804F019FD204603A904F05FFE054639
:1044200003A804F0CFFC85B1164A0D48137883F039
:10443000010313700BB1144900E0144904F0F6FBBA
:104440001349084804F055FD07E01149204604F0DF
:1044500050FD03480F4904F0E9FB07B030BD00BF31
:10446000801E0020281E002024ED0008E41C0020EF
:10447000C91D002029ED00085FED00081AE70008BB
:1044800098ED0008011E0020A1ED0008BDED000818
:104490009EDB0008D9ED00082DE9F04F87B0634896
:1044A00004F080FA00280ADD604804F027FAC1B25F
:1044B0005F4804F080FD022004F042FFEFE75C4C0F
:1044C000A368002B00F0AE80204604F08EFE21464B
:1044D000564804F0A1FB574903A804F0B5FC204658
:1044E00003A904F0FBFD054603A804F06BFC002DB6
:1044F00000F096802046504C504904F0FAFC2368A6
:104500004F4901334948236004F090FB4D49684608
:1045100004F09AFC694603A804F0D9FC216803A8BA
:1045200004F0BCFD0146414804F076FB03A804F00A
:1045300049FC684604F046FC40493C4804F076FBE0
:10454000FFF726FB032003F0A9F83F4A002313706E
:104550003E4A3F4F13703F4A3B6013703E4A1D4630
:1045600013703E4A1E4613703D4AA34613703D4ADF
:1045700013703D4A13703D4A13703D4A13703D4A13
:1045800013703D4A13703D4B0024EC503C4BDFF858
:1045900018A1EC503B4BDFF81491EC503A4BDFF88C
:1045A0001081EC50394BF0B2EC50394B0121EC50FA
:1045B000384B45F80A40F454374B45F80940F45459
:1045C000364B45F80840F454354B0435F454013665
:1045D00001F05CFF0C2ED6D1DBF8003013F00103A4
:1045E00013D03048FEF7AEFA386014234AF804308E
:1045F0003C2349F804304FF6FF7348F80430043484
:10460000302CF2D1FFF7A6FA0AE03B6000224AF80C
:10461000032049F8032048F803200433302BF5D158
:1046200003F0F0FB07B0BDE8F08F00BF801E002054
:10463000281E002000EE0008041E00209EDB00085B
:1046400002EE000845EE0008261E0020ED1D0020A9
:10465000E41C0020361E0020081E0020781D0020CB
:10466000021E0020FE1D0020FC1D0020271E002031
:10467000B8170020BA170020031E00207C1D002060
:10468000FC170020281D0020501C0020A41C002026
:1046900034170020681D0020901C00203E1A0020C6
:1046A0000F000020C91D002078170020E81C002002
:1046B000BC1700202DE9F043814F87B017F8009018
:1046C0000446B9F1000F40F0F7807E4DDFF84082DC
:1046D0002B5C002B00F08F807B4E7C4A336852F8B5
:1046E00020209342C0F08780012101F0CFFE784B5B
:1046F00005F804907749012568461D7004F0A4FB75
:10470000694603A804F0E3FB214603A804F0B2FCC9
:10471000714904F09DFC0146704804F07DFA03A83D
:1047200004F050FB684604F04DFB6C4804F01EF9A1
:104730006B4B53F8242052B333686A4908F804508D
:10474000694D41F8243068461344684945F82430DF
:1047500004F07AFB694603A804F0B9FB214603A8DC
:1047600004F088FC624904F073FC55F8241004F04E
:1047700095FC0146594804F04FFA03A804F022FBC7
:10478000684604F01FFB554804F0F0F833E0594B3D
:10479000594E53F824205949013A43F824203378DC
:1047A00068460133337004F04FFB694603A804F0F8
:1047B0008EFB317803A804F05DFC0146474804F005
:1047C0002BFA03A804F0FEFA684604F0FBFA43480B
:1047D00004F0CCF833780C2B07D14048484904F05A
:1047E00025FA484B1D70484B1D700020012308F826
:1047F00004003B5561E018F80400002855D0324B06
:104800001A68394B53F824309A4256D3394B3A4DF3
:1048100053F824200126013A43F824202B78374905
:10482000334468462B703E5504F00EFB694603A8DE
:1048300004F04DFB297803A804F01CFC014627482E
:1048400004F0EAF903A804F0BDFA684604F0BAFAE5
:10485000224804F08BF82B780C2B07D11F482849ED
:1048600004F0E4F9274B1E70274B1E7001236846A5
:1048700018493B5504F0E8FA694603A804F027FB01
:10488000214603A804F0F6FB204904F0E1FB0146B1
:10489000124804F0C1F903A804F094FA684604F041
:1048A00091FA0E4804F062F806E00D4B53F824002C
:1048B000003018BF012000E0002007B0BDE8F08301
:1048C0003E1A0020681D0020F01D0020501C002012
:1048D000FC1D002053EE000857EE0008801E00204B
:1048E000E81C0020A41C00203417002073EE0008F0
:1048F000E3E30008BC170020BA17002086EE00088A
:1049000096EE0008261E0020271E0020BCEE0008A0
:10491000901C00202DE9F0439B4E87B003F072FA03
:1049200033780C2B00F0DB800024254603F06AFA74
:10493000964BEFB2E95C002940F0A4804FF00108EB
:1049400005F80380924B04EB0309E358002B55D084
:10495000904BE358002B51D0384601F097FD8E4B19
:104960008E4A05F803808E4B8E4983F800808E4B6B
:10497000DFF88C821B686846A350D9F800201344E6
:1049800044F8083004F060FA694603A804F09FFA7E
:10499000394603A804F06EFB844904F059FB014634
:1049A000834804F039F903A804F00CFA684604F0CF
:1049B00009FA8049684604F047FA694603A804F0FA
:1049C00086FA394603A804F055FB7B4904F040FB06
:1049D00054F8081004F062FB0146754804F01CF915
:1049E00003A804F0EFF9684604F0ECF9704803F00E
:1049F000BDFF724BE358002B6AD0C2E0694968469C
:104A000004F022FA694603A804F061FA394603A8C3
:104A100004F030FB6A4904F01BFB0146644804F0D3
:104A2000FBF803A804F0CEF9684604F0CBF9654B17
:104A30000127EF54337864493B446846337004F0EF
:104A400003FA694603A804F042FA317803A804F097
:104A500011FB0146564804F0DFF803A804F0B2F950
:104A6000684604F0AFF9524803F080FF33780C2B0E
:104A70002ED1564B4E4856491F7004F0D7F8554B6F
:104A80001F7025E0013F0A2F07D8DFE807F0080A6A
:104A90000C0E10121416181A1C00002014E001202D
:104AA00012E0022010E003200EE004200CE00520BC
:104AB0000AE0062008E0072006E0082004E00920BC
:104AC00002E00A2000E00B20FFF7F4FD002858D197
:104AD00001350C2D04F104047FF428AF51E0FFF7F9
:104AE00057F83A4B3C4D1A7872B100241C703B4B7E
:104AF0003B481C70FEF738FF2D483A4904F096F801
:104B0000394B1C7001232B702B78002B39D0334D7F
:104B10002B78002B35D0344C0123344924482370A2
:104B200004F084F83249224804F080F82A4A00232D
:104B3000317813702B70154800221A5421481A54EA
:104B400015481A54134850F823000133904218BFF7
:104B500011460C2BEFD1317051B92649144804F09D
:104B600065F82349124804F061F8FEF7F3FF08E006
:104B700021490F48227004F059F80D481F4904F0EC
:104B800055F807B0BDE8F083BA1700200F000020E9
:104B900078170020BC170020681D0020281D002069
:104BA000FC1D002053EE0008F01D0020D2EE00088E
:104BB000801E0020E8EE0008E3E30008E81C002067
:104BC000F9EE00083E1A002086EE0008261E00209E
:104BD00096EE0008271E0020081E0020ED1D002074
:104BE000EC1D002009EF0008B917002037EF00087E
:104BF00066EF000873EF00089DEF0008D8EF00088B
:104C0000501C002008B503F0FDF80C48FCF7F8FA3A
:104C100000210B480A4600F057FAFFF77BFE00F030
:104C200089F8FEF7C1FFFFF73DF8FFF735FCFFF706
:104C30008FFBBDE80840FFF76DB900BF3C1A0020AC
:104C4000371E002001480021FDF70CB8BC1D0020D4
:104C50001FB5304801A9FDF777FA2F4CC0B92F498D
:104C60002F4803F0E3FF2F4801F0F8FF2E48FCF730
:104C7000C7FA40F6B83004F063FB03F0C3F82378BA
:104C80000133DBB2322B2370E3D903F0EFF8E0E716
:104C9000002323701F48FDF712FBC0B923492048A9
:104CA00003F0C4FF1F4801F06BFF1F48FCF7A8FA90
:104CB00040F6B83004F044FB03F0A4F82378013345
:104CC000DBB2322B2370E5D903F0D0F8E2E7002302
:104CD00023701048FDF774FBC0B91549104803F064
:104CE000A5FF104801F0BAFF0F48FCF789FA40F61B
:104CF000B83004F025FB03F085F823780133DBB2EC
:104D0000322B2370E5D903F0B1F8E2E700232370DA
:104D100004B010BDBF1D0020341E0020EDEF0008C0
:104D2000801E0020791E00203C1A00203BF0000865
:104D300093F0000808B50A4B1A787AB100221A706D
:104D4000FEF720FFFFF77EFFFFF782FFFEF7F4FE7E
:104D5000BDE808400348044903F068BF08BD00BF30
:104D6000351E0020801E0020E9F0000813B5D14C4C
:104D70004FF0FF3300934FF4165200232046CE49E4
:104D8000FEF7A0FB20460121FEF798FB00212046FC
:104D90000A46FDF797FF204601210022FDF792FF0A
:104DA000204602210022FDF78DFF2046032100222C
:104DB000FDF788FF204604210022FDF783FF2046EF
:104DC00005210022FDF77EFF204606210022FDF787
:104DD00079FF204607210022FDF774FF20460821B5
:104DE0000022FDF76FFF204609210022FDF76AFF30
:104DF00020460A210022FDF765FF20460B210022F4
:104E0000FDF760FF20460C210022FDF75BFF2046E6
:104E10000D210022FDF756FF20460E210022FDF74E
:104E200051FF20460F210022FDF74CFF20461021A4
:104E30000022FDF747FF204611210022FDF742FF27
:104E4000204612210022FDF73DFF204613210022BB
:104E5000FDF738FF204614210022FDF733FF2046DE
:104E600015210022FDF72EFF204616210022FDF716
:104E700029FF204617210022FDF724FF2046182194
:104E80000022FDF71FFF204619210022FDF71AFF1F
:104E900020461A210022FDF715FF20461B21002283
:104EA000FDF710FF20461C210022FDF70BFF2046D6
:104EB0001D210022FDF706FF20461E210022FDF7DE
:104EC00001FF20461F210022FDF7FCFE2046202185
:104ED0000022FDF7F7FE204621210022FDF7F2FE19
:104EE000204622210022FDF7EDFE2046232100224C
:104EF000FDF7E8FE204624210022FDF7E3FE2046D0
:104F000025210022FDF7DEFE204626210022FDF7A6
:104F1000D9FE204627210022FDF7D4FE2046282175
:104F20000022FDF7CFFE204629210022FDF7CAFE10
:104F300020462A210022FDF7C5FE20462B21002213
:104F4000FDF7C0FE20462C210022FDF7BBFE2046C7
:104F50002D210022FDF7B6FE20462E210022FDF76E
:104F6000B1FE20462F210022FDF7ACFE2046302165
:104F70000022FDF7A7FE204631210022FDF7A2FE08
:104F8000204632210022FDF79DFE204633210022DB
:104F9000FDF798FE204634210022FDF793FE2046BF
:104FA00035210022FDF78EFE204636210022FDF736
:104FB00089FE204637210022FDF784FE2046382155
:104FC0000022FDF77FFE204639210022FDF77AFE00
:104FD00020463A210022FDF775FE20463B210022A3
:104FE000FDF770FE20463C210022FDF76BFE2046B7
:104FF0003D210022FDF766FE20463E210022FDF7FE
:1050000061FE20463F210022FDF75CFE0021204684
:105010000A46FDF760FE204601210022FDF75BFEF7
:10502000204602210022FDF756FE204603210022E1
:10503000FDF751FE204604210022FDF74CFE2046DC
:1050400005210022FDF747FE204606210022FDF73C
:1050500042FE204607210022FDF73DFE00212046AA
:105060000A46FDF743FE204601210022FDF73EFEE1
:10507000204602210022FDF739FE204603210022AE
:10508000FDF734FE204604210022FDF72FFE2046C6
:1050900005210022FDF72AFE204606210022FDF709
:1050A00025FE204607210022FDF720FE2046002194
:1050B0007F2203E0381E0020981E002002B0BDE8C9
:1050C0001040FDF7F0BD00BF10B5874C2046FEF73D
:1050D0001DFB20460021FDF727FE80F00101C9B22B
:1050E0001E2004F001F920460121FDF71DFE80F08D
:1050F0000101C9B21F2004F0F7F820460221FDF794
:1051000013FE80F00101C9B2262004F0EDF820461C
:105110000321FDF709FE80F00101C9B2272004F048
:10512000E3F820460421FDF7FFFD80F00101C9B23C
:10513000282004F0D9F820460521FDF7F5FD80F080
:105140000101C9B2292004F0CFF820460621FDF75D
:10515000EBFD80F00101C9B2082004F0C5F820463B
:105160000721FDF7E1FD80F00101C9B20B2004F039
:10517000BBF820460821FDF7D7FD80F00101C9B238
:105180000C2004F0B1F820460921FDF7CDFD80F098
:105190000101C9B20D2004F0A7F820460A21FDF74D
:1051A000C3FD80F00101C9B20F2004F09DF8204634
:1051B0000B21FDF7B9FD80F00101C9B22A2004F0EE
:1051C00093F8202004F07AF8021C18BF0122002175
:1051D0002046FDF799FD212004F070F8021C18BF4D
:1051E000012201212046FDF78FFD222004F066F800
:1051F000021C18BF012202212046FDF785FD232055
:1052000004F05CF8021C18BF012203212046FDF7C0
:105210007BFD2C2004F052F8021C18BF012204214F
:105220002046FDF771FD2B2004F048F8021C18BF42
:10523000012205212046FDF767FD322004F03EF8EB
:10524000021C18BF012206212046FDF75DFD132038
:1052500004F034F8021C18BF012207212046FDF794
:1052600053FD002004F01CF8002102462046FDF703
:1052700056FD012004F014F8012102462046FDF7F6
:105280004EFD042004F00CF8022102462046FDF7F2
:1052900046FD052004F004F8032102462046FDF7F0
:1052A0003EFD062003F0FCFF042102462046FDF7E8
:1052B00036FD072003F0F4FF052102462046FDF7E6
:1052C0002EFD242003F0ECFF062102462046FDF7C8
:1052D00026FD252003F0E4FF072102462046BDE815
:1052E0001040FDF71CBD00BF381E0020002110B586
:1052F0000A463648FDF7FFFC0121044600223348E8
:10530000FDF7F9FC08B10134E4B230480221002273
:10531000FDF7F1FC08B10134E4B22C48032100226E
:10532000FDF7E9FC08B10134E4B228480421002269
:10533000FDF7E1FC08B10134E4B224480521002264
:10534000FDF7D9FC08B10134E4B22048062100225F
:10535000FDF7D1FC08B10134E4B21C48072100225A
:10536000FDF7C9FC08B10134E4B218480821002255
:10537000FDF7C1FC08B10134E4B214480921002250
:10538000FDF7B9FC08B10134E4B210480A2100224B
:10539000FDF7B1FC08B10134E4B20C480B21002246
:1053A000FDF7A9FC60B10B2C0AD100210A46084880
:1053B000FFF78AFE0749084803F038FC012010BDBA
:1053C0000649054803F032FC002010BD381E0020BD
:1053D000371E002021F10008801E002058F100082F
:1053E00030B583488BB00C46824903F01FFC022283
:1053F000214601A803F08EFD7F4904A803F024FD97
:1054000004A907A803F063FD01A907A803F013FE90
:105410000146774803F000FC07A803F0D3FC04A87A
:1054200003F0D0FC039D082D40F0EA80012304A87E
:1054300001A9002203F09AFE0A22002107A803F026
:105440007AFD07A904A803F057FE021C18BF012229
:1054500000216A48FDF74FFC044607A803F0B2FCA0
:1054600004A803F0AFFC022304A801A9012203F061
:105470007DFE0A22002107A803F05DFD07A904A80C
:1054800003F03AFE021C18BF012201215B48FDF720
:1054900032FC054607A803F095FC04A803F092FC33
:1054A0000DB10134E4B2032304A801A9022203F0E0
:1054B0005DFE0A22002107A803F03DFD07A904A80C
:1054C00003F01AFE021C18BF012202214B48FDF70F
:1054D00012FC054607A803F075FC04A803F072FC53
:1054E0000DB10134E4B2042304A801A9032203F09E
:1054F0003DFE0A22002107A803F01DFD07A904A80C
:1055000003F0FAFD021C18BF012203213B48FDF7FE
:10551000F2FB054607A803F055FC04A803F052FC73
:105520000DB10134E4B2052304A801A9042203F05B
:105530001DFE0A22002107A803F0FDFC07A904A80C
:1055400003F0DAFD021C18BF012204212B48FDF7ED
:10555000D2FB054607A803F035FC04A803F032FC93
:105560000DB10134E4B2062304A801A9052203F019
:10557000FDFD0A22002107A803F0DDFC07A904A80D
:1055800003F0BAFD021C18BF012205211B48FDF7DC
:10559000B2FB054607A803F015FC04A803F012FCB3
:1055A0000DB10134E4B2072304A801A9062203F0D7
:1055B000DDFD0A22002107A803F0BDFC07A904A80D
:1055C00003F09AFD021C18BF012206210B48FDF7CB
:1055D00092FB054607A803F0F5FB04A803F0F2FBD5
:1055E0000DB10134E4B204A801A907220823B3E3F2
:1055F000801E00208FF10008B3F10008381E002043
:10560000072D40F0CD8000210A466448FDF773FB6A
:10561000012301A90022044604A803F0A7FD0A22E1
:10562000002107A803F087FC07A904A803F064FD84
:10563000021C18BF012201215848FDF75CFB0546FA
:1056400007A803F0BFFB04A803F0BCFB0DB10134B5
:10565000E4B2022304A801A9012203F087FD0A2273
:10566000002107A803F067FC07A904A803F044FD84
:10567000021C18BF012202214848FDF73CFB0546E9
:1056800007A803F09FFB04A803F09CFB0DB10134B5
:10569000E4B2032304A801A9022203F067FD0A2251
:1056A000002107A803F047FC07A904A803F024FD84
:1056B000021C18BF012203213848FDF71CFB0546D8
:1056C00007A803F07FFB04A803F07CFB0DB10134B5
:1056D000E4B2042304A801A9032203F047FD0A222F
:1056E000002107A803F027FC07A904A803F004FD84
:1056F000021C18BF012204212848FDF7FCFA0546C8
:1057000007A803F05FFB04A803F05CFB0DB10134B4
:10571000E4B2052304A801A9042203F027FD0A220C
:10572000002107A803F007FC07A904A803F0E4FC84
:10573000021C18BF012205211848FDF7DCFA0546B6
:1057400007A803F03FFB04A803F03CFB0DB10134B4
:10575000E4B2062304A801A9052203F007FD0A22EA
:10576000002107A803F0E7FB07A904A803F0C4FC85
:10577000021C18BF012206210848FDF7BCFA0546A5
:1057800007A803F01FFB04A803F01CFB0DB10134B4
:10579000E4B204A801A906220723DDE2381E002096
:1057A000062D40F0B38000210A46A748FDF7A3FA72
:1057B000012104460022A448FDF79DFA08B10134F6
:1057C000E4B2012304A801A9002203F0CFFC0A22BD
:1057D000002107A803F0AFFB07A904A803F08CFC85
:1057E000021C18BF012202219748FDF784FA0546E2
:1057F00007A803F0E7FA04A803F0E4FA0DB10134B6
:10580000E4B2022304A801A9012203F0AFFC0A229A
:10581000002107A803F08FFB07A904A803F06CFC84
:10582000021C18BF012203218748FDF764FA0546D0
:1058300007A803F0C7FA04A803F0C4FA0DB10134B5
:10584000E4B2032304A801A9022203F08FFC0A2278
:10585000002107A803F06FFB07A904A803F04CFC84
:10586000021C18BF012204217748FDF744FA0546BF
:1058700007A803F0A7FA04A803F0A4FA0DB10134B5
:10588000E4B2042304A801A9032203F06FFC0A2256
:10589000002107A803F04FFB07A904A803F02CFC84
:1058A000021C18BF012205216748FDF724FA0546AE
:1058B00007A803F087FA04A803F084FA0DB10134B5
:1058C000E4B2052304A801A9042203F04FFC0A2234
:1058D000002107A803F02FFB07A904A803F00CFC84
:1058E000021C18BF012206215748FDF704FA05469D
:1058F00007A803F067FA04A803F064FA0DB10134B5
:10590000E4B204A801A90522062325E2052D40F0F2
:105910009D8000210A464C48FDF7EDF9012104461F
:1059200000224948FDF7E7F908B10134E4B24648DE
:1059300002210022FDF7DFF908B10134E4B20123AE
:1059400004A801A9002203F011FC0A22002107A8E3
:1059500003F0F1FA07A904A803F0CEFB021C18BF5C
:10596000012203213848FDF7C6F9054607A803F0D0
:1059700029FA04A803F026FA0DB10134E4B2022397
:1059800004A801A9012203F0F1FB0A22002107A8C3
:1059900003F0D1FA07A904A803F0AEFB021C18BF5C
:1059A000012204212848FDF7A6F9054607A803F0BF
:1059B00009FA04A803F006FA0DB10134E4B2032396
:1059C00004A801A9022203F0D1FB0A22002107A8A2
:1059D00003F0B1FA07A904A803F08EFB021C18BF5C
:1059E000012205211848FDF786F9054607A803F0AE
:1059F000E9F904A803F0E6F90DB10134E4B2042397
:105A000004A801A9032203F0B1FB0A22002107A880
:105A100003F091FA07A904A803F06EFB021C18BF5B
:105A2000012206210848FDF766F9054607A803F09C
:105A3000C9F904A803F0C6F90DB10134E4B204A811
:105A400001A90422052387E1381E0020042D40F01F
:105A5000838000210A46A148FDF74DF90121044643
:105A600000229E48FDF747F908B10134E4B29B4893
:105A700002210022FDF73FF908B10134E4B2974852
:105A800003210022FDF737F908B10134E4B2012304
:105A900004A801A9002203F069FB0A22002107A83B
:105AA00003F049FA07A904A803F026FB021C18BF5B
:105AB000012204218948FDF71EF9054607A803F0D5
:105AC00081F904A803F07EF90DB10134E4B2022398
:105AD00004A801A9012203F049FB0A22002107A81A
