:020000040800F2
:10000000000001209DAA000881AD000885AD000810
:1000100089AD00088DAD000891AD0008E1AD000884
:10002000E1AD0008E1AD0008E1AD0008E1AD000878
:10003000E1AD0008E1AD0008E1AD000871B20008D3
:10004000E1AD0008E1AD0008E1AD000879A90008C4
:10005000E1AD0008E1AD0008E1AD0008E1AD000848
:10006000E1AD0008E1AD0008E1AD0008E1AD000838
:10007000E1AD0008E1AD0008E1AD0008E1AD000828
:10008000E1AD0008E1AD000859AE0008E1AD00089F
:10009000E1AD0008E1AD0008E1AD0008E1AD000808
:1000A000B9B40008DDB4000801B5000839B500088E
:1000B0008DB50008FDB500086DB60008E1AD00087B
:1000C000E1AD0008E1AD0008E1AD0008E1AD0008D8
:1000D000E1AD000865B90008B9B900080DBA00081B
:1000E000E1AD0008C1A90008E1AD000895B700081E
:1000F000B9B70008DDB7000815B80008A9AE0008B8
:10010000E1AD0008E1AD0008DDB60008E1AD000892
:1001100061BA0008B5BA00084DB7000871B7000809
:10012000E1AD0008E1AD0008E1AD0008E1AD000877
:1001300010B5054C237833B9044B13B10448AFF321
:1001400000800123237010BD501700200000000024
:10015000CC1F010808B5064B1BB106480649AFF392
:1001600000800648036813B1054B03B1984708BDEA
:1001700000000000CC1F0108541700205017002079
:1001800000000000012902D11C30C0B270470629CE
:1001900084BF01F1FF31C9B211F0010F14BF1E205D
:1001A0001F207047444B2DE9F047B1FBF3F603FBEA
:1001B00016113C23B1FBF3F203FB12120546027049
:1001C0004FF46160B1FBF0F200FB1211B1FBF3F3ED
:1001D0006B704FF4FA63AA70B6B2EB80EC884FF400
:1001E000C873B4FBF3F803FB18481FFA88F8B8F19A
:1001F000000F16D06423B4FBF3F203FB12439BB24F
:10020000002B53D014F0030140F26D130CBF4FF4D8
:10021000B7721A4696420EDB002908BF4FF4B77337
:1002200004E0B6F5B77F06DB4FF4B773F61A013476
:10023000B6B2EC80D2E700236B716423B4FBF3F712
:1002400003FB1747BFB2B8F1000F06D03FB114F05F
:10025000030F14BF0020012002E0012000E0384617
:1002600095F80590C0B24946FFF78CFF864209F128
:10027000010A15D3B8F1000F06D03FB114F0030FF7
:1002800014BF0020012002E0012000E03846C0B287
:100290004946FFF777FF301A86B285F805A0D2E706
:1002A00001362E7185F805A0BDE8F087B6F5B67F5A
:1002B000C1DD40F26D13B9E780510100F8B5427815
:1002C00087783C2303FB072702780579467903FBEF
:1002D0000727013D013EEDB2F6B2044605714671B5
:1002E000013E731CE38834D04FF4C872B3FBF2F1C3
:1002F00002FB113292B262B16422B3FBF2F002FB54
:10030000103080B230B113F0030F14BF0020012071
:1003100000E00120C0B2F1B2FFF734FF284485B2FB
:10032000DEE74FF4C872B3FBF2F102FB113292B276
:10033000AAB16422B3FBF2F102FB113292B28AB18C
:1003400013F0030F40F26D1208BF4FF4B77215445B
:10035000ADB2013B9BB2B3F5FA6FE2D205E04FF4C8
:10036000B772F4E740F26D12F1E7024800FB057046
:10037000F8BD00BF8051010008F0ECBF38B50D4654
:10038000044609F002F8290A49006039204601F0C4
:10039000FE0109F091F8204609F067F8E9B220461D
:1003A00009F08AF8204609F060F8204608F0EDFFD1
:1003B0002046A12109F080F8204609F056F80021D6
:1003C000204609F0A0F80546204609F031F82046FD
:1003D00008F0F6FF284638BD70B50D4616460446AF
:1003E00008F0D3FF290A49006039204601F0FE01D8
:1003F00009F062F8204609F038F8E9B2204609F021
:100400005BF8204609F031F83146204609F054F8EF
:10041000204609F02AF8204608F0D2FFBDE87040D7
:100420000A200CF049B80000064A5178937843EA54
:100430000123A3F52043152B9ABF034AD05C0E205D
:10044000704700BF901800206837010810B5074CAE
:100450006018114607F06AFB054B1B881C4414F812
:10046000073C1B1A5842584110BD00BF901800208D
:1004700012180020084B18795B7943EA002045F2F6
:100480005553984205D04CF20303C31A58425841C1
:1004900070470120704700BF90180020044B9B79E3
:1004A000552B044B0CBF012200221A70704700BF6D
:1004B000901800204518002010B5084CE379552B02
:1004C00001D1012010BD064802F0DBFCE379834234
:1004D000F7D0D0F1010038BF002010BD90180020E7
:1004E000B61B002013B50D4B1C7A552C01D10120F1
:1004F00012E00B48694602F01FFC00231A461DF863
:1005000003108C42F3D019B90132D2B2052AEED0D1
:100510000133052BF3D1002002B010BD901800204C
:10052000B61B002070B505461E46FFF78FFF044638
:1005300040B91C4AD3781A441379D62B02D01A48F2
:100540001A492BE02846FFF795FF044678B1284664
:10055000FFF7A4FF2846FFF7AFFF044670B96EB15E
:10056000134911480BF0AAFC0F48124916E0124932
:100570000D480BF0A3FC0C4810490FE02846FFF78C
:10058000B1FF044660B99DF810300BB9012407E0B3
:100590000B4905480BF092FC03480A490BF08EFC0E
:1005A000204670BD90180020F41E0020DA370108A4
:1005B000FE370108353801087E370108AC370108DD
:1005C0006C380108A4380108F8B50F460AF062FD3E
:1005D00004F0C4F803200AF0AFF9304A0023137086
:1005E0002F4A012113702F4A1D4613702E4A1E46B2
:1005F00013702E4A13702E4A13602E4A13702E4A1F
:1006000013702E4A13702E4A13702E4A13702E4AFE
:1006100013702E4A13602E4A11702E4A13602E4A10
:1006200013702E4A13702E4A13702E4A13702E4ADE
:1006300013602E4A13702E4A13602E4B0024EC5088
:100640002D4BF0B2EC502D4B0121EC502C4BEC50CB
:100650002C4BEC502C4BEC502C4BEC502C4BEC50CE
:100660002C4BEC502C4BEC502C4BF4542C4BF454A6
:100670002C4BF4542C4BF45407F018F901362B4B47
:100680000C2EEC5005F10405D7D137B128480721CD
:100690000322BDE8F84009F047B9F8BD261C002048
:1006A000E51B0020361C0020FF1B0020FD19002048
:1006B0008C180020FE1B0020FA1B0020F91B0020D4
:1006C000271C0020291B002011180020041C0020DA
:1006D000181B0020001A0020C6170020941A0020C2
:1006E000FC19002047180020B017002048180020EF
:1006F000AC1B0020441A00204C180020C817002012
:10070000BC190020041A0020981A00206C1B00203D
:100710002C1B0020D81A002070170020191B002065
:10072000B5170020841A00200C00002014180020A7
:10073000EB1E00201F4B13B51B78002B37D0002376
:100740000093042117220123FFF7ECFE30B31A496E
:100750001A480BF0B3FB19480BF050FA184B1C7AEF
:10076000012C18D11748D97C02F0F4FB48B1164887
:100770000F21224609F0D8F81448214601F056FF0F
:100780000CE011481021022209F0CEF810490B4864
:100790000BF094FB02E00C4808F040FF0D4B0848BA
:1007A0001A88002102B0BDE810400DF067BB02B00E
:1007B00010BD00BF1D000020D8380108F41E002025
:1007C00090180020B31B0020EB1E0020B11B00205E
:1007D000F8380108121800201A4B07B51B786BB3C4
:1007E0000023009304210A220123FFF79BFEE0B1BE
:1007F000154916480BF062FB14480BF0FFF914483A
:10080000144902F04BFA38B1134910480BF056FB6B
:1008100012480321022206E011490C480BF04EFB5E
:100820000E480421012209F07FF80E4B0E481A8869
:10083000002103B05DF804EB0DF020BB03B05DF8C0
:1008400004FB00BF1D0000203C390108F41E0020FD
:10085000B61B00209818002054390108EB1E002018
:1008600096390108121800209018002013B50023B3
:10087000009304210F22FFF755FE40B31F49204883
:10088000204C0BF01BFB1E480BF0B8F91E4804F17E
:100890000A0102F078F868B31B4804F10A0102F07B
:1008A000B2F838B3194916480BF008FB1648E1793D
:1008B00002F0AEFAA0B1164911480BF0FFFA154844
:1008C0000521012209F030F80F4802F07DF9124BA2
:1008D0000C481A88002102B0BDE810400DF0CEBAD5
:1008E00007480E490BF0EAFA0A480621012209F0EE
:1008F0001BF8ECE702480A49F4E700BFD8390108C1
:10090000F41E002090180020B61B00207E3A01083B
:10091000F3390108EB1E002012180020393A0108B3
:10092000AB3A0108134B13B51B780BB3124B0024E1
:10093000DA78042100940123FFF7F4FD78B10F4920
:100940000F480BF0BBFA0E480BF058F90D490C4854
:100950000BF0B4FA0C482146022209F005FB0B4BC0
:1009600005481A88002102B0BDE810400DF086BA93
:1009700002B010BD1D00002090180020E63A0108CA
:10098000F41E0020023B0108EB1E0020121800207C
:10099000134B13B51B780446FBB1002300930421CD
:1009A00005220123FFF7BEFD70B10E490E480BF082
:1009B00085FA0E490C480BF081FA0B480BF01EF932
:1009C00020460121FFF700FE094B0A481A88002142
:1009D00002B0BDE810400DF051BA02B010BD00BF2A
:1009E0001D0000203B3B0108F41E0020543B010881
:1009F0001218002090180020F0B5284B89B01B7801
:100A0000002B49D0264D0024EA78042100940123CC
:100A1000FFF788FD2F46002835D0224922480BF0E9
:100A20004DFA21480BF0EAF803AD0AF033FB1F49F9
:100A30001D480BF043FA2846214614220DF01EFAF9
:100A4000FE78053E142E01D8234605E016481849C5
:100A50000BF034FA022207E0B34204D2FA18527AB9
:100A6000EA540133F8E70322124B13481A7029465F
:100A7000324605F0DDFC01221048002108F0D6FFC7
:100A80000F4B01221A700F4B05481A88002109B03C
:100A9000BDE8F0400DF0F2B909B0F0BD1D00002036
:100AA00090180020643B0108F41E00208E3B0108D2
:100AB000E43B0108EC1E0020371C0020EB1E002048
:100AC000F91B00201218002030B5154B85B01B789B
:100AD0001BB3144D0024EA78009404210123FFF78E
:100AE00021FDD0B1104911480BF0E8F90F480BF087
:100AF00085F80E480E490BF0E1F92346EA18527AC0
:100B000002A95A540133072BF8D10A4803F04EFCCE
:100B100009481721022208F007FF05B030BD00BFC9
:100B20001D00002090180020353C0108F41E002014
:100B30004C3C0108E41B0020EB1E0020F0B53A4BB2
:100B400089B01B78002B6CD0384C0026E2780096D8
:100B500004210123FFF7E6FC00284DD03449354835
:100B60000BF0ACF933480BF049F8334894F82210F5
:100B700094F8232002F038FC20B92E482F490BF0BE
:100B80009DF9012600252E492A4804AF0BF096F95D
:100B90002223384629461022029503958DF8083005
:100BA0000DF06CF933238DF810302B46E218127AD1
:100BB00002A95A540133082BF8D10023E218127C01
:100BC000FA540133102BF9D11B4802F06BFBE0B152
:100BD0001948394602F0C4FBB8B11A4915480BF060
:100BE0006DF9154802F02DFB174808F075FB174802
:100BF0003146012208F0ACFF154B0C481A88002141
:100C000009B0BDE8F0400DF039B9124909480BF0C0
:100C100055F9094802F032FB0B4808F05DFB02264B
:100C2000E5E709B0F0BD00BF1D00002090180020CE
:100C30007D3C0108F41E0020C01B0020A73C0108D9
:100C4000E23C01081A3D0108E41E0020EB1E0020D2
:100C500012180020573D0108F0B54A4B89B01B78A7
:100C60000746002B00F08C80474C0025E278009569
:100C700004210123FFF756FC002874D0434944485F
:100C80000BF01CF942480AF0B9FF424B01263846E6
:100C900029461E70FFF798FC3F4B404894F84610D9
:100CA00094F847201E7002F09BFC10B138483C4974
:100CB00001E037483B490BF001F9384802F0CCFC21
:100CC000394D3A49286002A80BF0DAF902A905A8C3
:100CD0000BF0F7F9296805A80BF0D2FA01462C4869
:100CE0000BF0E2F805A80BF089F902A80BF086F9E1
:100CF0000AF0D0F90022244B1046114604EBD0052F
:100D000095F848500D41ED0715D55D7A1E7A05EB33
:100D10000626274D565193F8295093F8286005EB85
:100D20000626244D565193F84B5093F84A6005EB34
:100D30000626214D56510131C9B2082900F10100A2
:100D400008BF00210C2803F1020302F10402D5D1EF
:100D50000F480AF053FF194803210B4A08F046FFD9
:100D600003F0EAFC03E00A4815490BF0A7F8154B1D
:100D700005481A88002109B0BDE8F0400DF07EB8A2
:100D800009B0F0BD1D00002090180020943D01081E
:100D9000F41E00201018002046180020C01B002060
:100DA000C13D0108053E01088C180020FC560108D1
:100DB0004C180020C8170020981A0020EB1E0020B5
:100DC0004C3E0108121800202DE9F041604B88B01C
:100DD0001B780546002B00F0B8805E4E0024F278A8
:100DE000009404210123FFF79DFB002800F0A08060
:100DF00059495A480BF062F858480AF0FFFE584B20
:100E00000122284621461A70FFF7DEFB554B0222CD
:100E10001A70327A737A544F03EB0223534902A8B3
:100E20003B600BF02DF902A905A80BF04AF93968CF
:100E300005A80BF025FA4E490BF0FCF9014647488E
:100E40000BF032F805A80BF0D9F802A80BF0D6F891
:100E5000484DB37A484902A82B700BF011F902A94A
:100E600005A80BF02EF9297805A80BF0F5F94049F3
:100E70000BF0E0F9014639480BF016F805A80BF025
:100E8000BDF802A80BF0BAF83C4DF37A3C4902A831
:100E90002B700BF0F5F802A905A80BF012F92978D0
:100EA00005A80BF0D9F901462C480AF0FDFF05A86A
:100EB0000BF0A4F802A80BF0A1F82546B84606EB03
:100EC000D4031B7B2B41DB0721D5D8F800302D4FF5
:100ED0002D4947F8243002A80BF0D2F802A905A842
:100EE0000BF0EFF8214605A80BF0CAF927490BF0E3
:100EF000A1F957F824100BF0C3F9014617480AF07E
:100F0000D3FF05A80BF07AF802A80BF077F80135AB
:100F1000EDB2082D04F1010408BF00250C2CCED140
:100F20001B4803210B4A08F0C1FE03F005FC03E057
:100F30000A4818490AF0C2FF174B06481A880021D0
:100F400008B0BDE8F0410CF099BF08B0BDE8F081F1
:100F50001D000020901800206A3E0108F41E0020A9
:100F60001018002046180020001A0020903E0108AA
:100F700008610108C6170020A63E0108941A002047
:100F8000BD3E0108441A0020D13E0108E63E01089A
:100F9000EB1E0020EA3E010812180020F0B5484B75
:100FA00089B01B780546002B00F08780454E002451
:100FB000F278009404210123FFF7B4FA00286FD0DF
:100FC000414942480AF07AFF40480AF017FE404B78
:100FD0000122284621461A70FFF7F6FA3D4B0322FC
:100FE0001A702546072C8CBFB37D737D2B4103F00F
:100FF000010343B36308043316F8132006EB4303DD
:101000005B78354F03EB022347F82430334902A8BD
:101010000BF036F802A905A80BF053F8214605A8F5
:101020000BF02EF92E490BF005F957F824100BF0B0
:1010300027F9014625480AF037FF05A80AF0DEFF28
:1010400002A80AF0DBFF0135EDB2082D04F101041E
:1010500008BF00250C2CC5D1337D224C02A82249A3
:1010600023700BF00DF802A905A80BF02AF82178DF
:1010700005A80BF0F1F81D490BF0DCF80146134808
:101080000AF012FF05A80AF0B9FF02A80AF0B6FF9D
:10109000174803210B4A08F07DFE03F04DFB03E0E7
:1010A0000A4814490AF00AFF134B06481A8800211F
:1010B00009B0BDE8F0400CF0E1BE09B0F0BD00BFE2
:1010C0001D00002090180020083F0108F41E002099
:1010D000101800204618002014180020313F010885
:1010E000E63E0108C7170020503F010808610108CB
:1010F000EB1E0020713F010812180020144B13B59D
:101100001B7813B3134B0024DA78042100940123D5
:10111000FFF708FA60B1104910480AF0CFFE0F48F7
:101120000AF06CFD0E482146032208F0AFFF03E0F1
:101130000A480C490AF0C2FE0B4B06481A880021E7
:1011400002B0BDE810400CF099BE02B010BD00BF67
:101150001D000020901800208F3F0108F41E002081
:10116000EB1E0020AB3F01081218002070B53D4B6C
:1011700088B01B78002B73D03B4C00230093E2789F
:1011800004210123FFF7CEF900285CD03749384805
:101190000AF094FE36480AF031FD637A257A354923
:1011A00002A803EB05250AF06BFF02A905A80AF0C7
:1011B00088FF294605A80BF063F801462C480AF081
:1011C00073FE05A80AF01AFF02A80AF017FF2A48C2
:1011D000217A627A02F0BAF9054620B927492448F3
:1011E0000AF06CFE00E00125E37AA67A244902A801
:1011F00003EB06260AF044FF02A905A80AF061FFE6
:10120000314605A80BF03CF8014619480AF04CFE9F
:1012100005A80AF0F3FE02A80AF0F0FE1648A17A2B
:10122000E27A02F049F920B9164911480AF046FE5F
:1012300003E015B11448152101E0134816210222DC
:1012400008F072FB03E00A4810490AF037FE104B21
:1012500005481A88002108B0BDE870400CF00EBEA9
:1012600008B070BD1D00002090180020C93F010883
:10127000F41E0020EF3F0108C01B0020FF3F0108C3
:101280003C4001084C400108EB1E00208940010849
:1012900012180020174B13B51B784BB3164C0023C4
:1012A0000093E27804210123FFF73CF998B1134938
:1012B00013480AF003FE12480AF0A0FC1148217AF4
:1012C00001F048FE20B11048012101F0AFF906E01D
:1012D0000B480E4901E00A480D490AF0EFFD0D4B9D
:1012E00005481A88002102B0BDE810400CF0C6BDC8
:1012F00002B010BD1D00002090180020A74001087A
:10130000F41E0020B31B0020B11B0020C9400108BF
:10131000F9400108121800202DE9F047A94BA0B0B0
:101320001B78002B00F04B81A74C4FF00008E278AF
:101330000421CDF800800123FFF7F4F8002800F025
:101340003181A249A2480AF0B9FDA1480AF056FC31
:10135000217A1022090905A80AF0DFFE05A90BA8C9
:101360000AF0AFFE217A102201F00F0108A80AF05E
:10137000D4FE08A90BA80AF050FF617A0546102296
:1013800009090EA80AF0C9FE28460EA90AF045FF71
:10139000617A0546102201F00F0111A80AF0BDFE86
:1013A000284611A90AF039FFA17A14AF0546102288
:1013B000090938460AF0B1FE284639460AF02DFFE1
:1013C000A17A17AE0546102201F00F0130460AF04F
:1013D000A4FE284631460AF020FFE17A1AAD814684
:1013E0001022090928460AF098FE484629460AF0C4
:1013F00014FFE17A1022814601F00F011DA80AF0C6
:101400008CFE1DA948460AF008FF014602A80AF012
:1014100058FE1DA80AF0F2FD28460AF0EFFD3046FE
:101420000AF0ECFD38460AF0E9FD11A80AF0E6FDE5
:101430000EA80AF0E3FD08A80AF0E0FD0BA80AF0E8
:10144000DDFD05A80AF0DAFD62491DA80AF018FEC4
:1014500002A91DA80AF0E1FE01465D480AF024FD3C
:101460001DA80AF0CBFD5A485B49CDF85080CDF855
:1014700054800AF008FD4446049B9C4212D2214647
:1014800002A80AF05CFF3038C1B208290DD83955DE
:101490000A224F480AF09FFD4D4850490AF0F3FCDC
:1014A0000134E9E74FF0000801E04FF001084C4932
:1014B00047480AF003FD0024454847490AF0E3FC89
:1014C00017941894404B1A19117B994664290ED829
:1014D0000A223F4831550AF07EFD01343C483F491D
:1014E0000AF0D1FC082CEDD14FF0000A01E04FF0DA
:1014F000010A3C4936480AF0E1FC002434483649E8
:101500000AF0C1FC1A941B9499F814303048A34097
:101510001B0644BF01232B55295D0A2201340AF022
:101520005AFD082CF0D12A482F490AF0C7FCB8F11F
:10153000000F08D02D4926480AF0C0FC2C48032192
:10154000214A002328E0BAF1000F08D02949204899
:101550000AF0B4FC264803211B4A01231CE039464B
:10156000254802F087F82946234802F0BBF82248B4
:1015700002F0F0F8214A1DAB10685168022203C343
:1015800031461DA806F034FB1D4911480AF096FCAF
:1015900017480D4A0321022308F034FE02A80AF07E
:1015A0002DFD03E00A4817490AF088FC164B06484F
:1015B0001A88002120B0BDE8F0470CF05FBC20B0D5
:1015C000BDE8F0871D000020901800201741010899
:1015D000F41E002041410108F85E01080C45010895
:1015E0005841010865410108764101088741010819
:1015F000EB1E0020BE410108B41B0020603701082B
:10160000F941010848420108121800202DE9F04173
:10161000554B8AB01B78002B00F0A280534E00255A
:10162000F278042100950123FEF77CFF002800F0EA
:101630008A804F494F480AF041FC4E480AF0DEFAD2
:101640004D4B03271F704D4C337A4D48237002F0E9
:10165000A3F82646804640B94A4946480AF02EFC7F
:1016600049483946227843466AE02B46474A0024D7
:101670009C540133082B9046F8D1454A02AB1068C0
:101680005168254603C3E7B23278C7F10703DBB2DE
:1016900042FA03F3DB0722D5012308F804303D4961
:1016A00004A80AF0EDFC04A907A80AF00AFD3946CF
:1016B00007A80AF0D1FD38490AF0BCFD01462D48C3
:1016C0000AF0F2FB07A80AF099FC04A80AF096FCBD
:1016D0000AAB2B440137013503F8207CEDB201340D
:1016E000082CD0D10122294602A807F021FC2B4961
:1016F000044604A80AF0C4FC04A907A80AF0E1FC07
:10170000214607A80AF0A8FD01461A480AF0CCFBBA
:1017100007A80AF073FC04A80AF070FC20491548D9
:101720000AF0CCFB032132780123174808F0F2FDC0
:101730004FF4FA600AF0C0FE134832780321022306
:1017400008F0E8FD03E00B4816490AF0B7FB164B1A
:1017500006481A8800210AB0BDE8F0410CF08EBBA3
:101760000AB0BDE8F08100BF1D00002090180020E5
:1017700066420108F41E002046180020441800208C
:10178000B41B002093420108EB1E00200818002023
:1017900060370108ED420108F142010807430108E2
:1017A000164301085A430108121800202DE9F0439E
:1017B000894B91B01B78002B00F00A81874D0024E3
:1017C000EA78042100940123FEF7ACFEA946002824
:1017D00000F0F180824983480AF070FB81480AF0EA
:1017E0000DFA05F1080802940394049405940694F4
:1017F0000794089409942546264618F8013B6F1C67
:10180000FF2B0AA878490BD10AF03AFC0AA90DA8C7
:101810000AF057FC29460DA80AF032FD734974E01E
:10182000642B25D80AF02CFC0AA90DA80AF049FC63
:1018300029460DA80AF024FD6D490AF0FBFC18F8B2
:10184000011C0AF009FD014666480AF02DFB0DA8AF
:101850000AF0D4FB0AA80AF0D1FB10AB18F8012C4F
:101860003344013603F8387C03F8282CF6B258E0EC
:10187000F02B1CD10AF004FC0AA90DA80AF021FCE7
:1018800029460DA80AF0FCFC5A490AF0D3FC01468F
:1018900054480AF009FB0DA80AF0B0FB0AA80AF0A8
:1018A000ADFB10AB234403F8307C00221DE0F12B8C
:1018B00020D10AF0E5FB0AA90DA80AF002FC29468E
:1018C0000DA80AF0DDFC4C490AF0B4FC014645487D
:1018D0000AF0EAFA0DA80AF091FB0AA80AF08EFBBA
:1018E00010AB234403F8307C6422013403F8202C2D
:1018F000E4B216E00AF0C4FB0AA90DA80AF0E1FB65
:1019000029460DA80AF0BCFC3C490AF093FC0146AC
:1019100034480AF0C9FA0DA80AF070FB0AA80AF0C8
:101920006DFB082F01D03D4667E799F81030344D24
:1019300034490AA82B700AF0A3FB0AA90DA80AF0E3
:10194000C0FB29780DA80AF087FC2F490AF072FC29
:10195000014624480AF0A8FA0DA80AF04FFB0AA88D
:101960000AF04CFB29480321012208F045FD76B11D
:1019700002A8314606AA06F0F1F802A83146022272
:1019800006F016FCA0B902A8314602220EE07CB196
:1019900004A8214608AA06F0E1F804A8214603227B
:1019A00006F006FC20B904A82146032207F0C0FA7D
:1019B00000232B7003E00B4815490AF07FFA154B02
:1019C00006481A88002111B0BDE8F0430CF056BA61
:1019D00011B0BDE8F08300BF1D000020901800206A
:1019E00078430108F41E0020ED420108A4430108D9
:1019F000BA430108D3430108E3430108F343010854
:101A0000C51700202444010808610108EB1E0020CE
:101A1000464401081218002030B51F4B85B01B78D2
:101A2000002B37D01D4D0024EA78009404210123B7
:101A3000FEF778FD08B31A491A480AF03FFA194828
:101A40000AF0DCF82A7A029403942346214602FA2B
:101A500003F010F0800F03F1010305D004A808443F
:101A6000013100F8083CC9B2082BF0D102A806F0F9
:101A70002FFB30B90B480C4901E00A480B490AF02A
:101A80001DFA0B4B05481A88002105B0BDE830400F
:101A90000CF0F4B905B030BD1D00002090180020F6
:101AA00064440108F41E00208B4401089844010896
:101AB0001218002010B50446FEF7B6FC12286BD8A9
:101AC000DFE800F0292E330A0F14191E383D424773
:101AD0004C5123565B6065002046BDE81040FEF780
:101AE00029BE2046BDE81040FEF776BE2046BDE880
:101AF0001040FEF7BBBE2046BDE81040FEF712BF07
:101B00002046BDE81040FEF743BF24482449BDE805
:101B100010400AF0D3B92046BDE81040FEF76CBF74
:101B20002046BDE81040FEF7CFBF2046BDE810407C
:101B3000FFF704B82046BDE81040FFF78DB82046F7
:101B4000BDE81040FFF740B92046BDE81040FFF760
:101B500025BA2046BDE81040FFF7D0BA2046BDE8C0
:101B60001040FFF703BB2046BDE81040FFF792BBD3
:101B70002046BDE81040FFF7CFBB2046BDE810402F
:101B8000FFF744BD2046BDE81040FFF70FBE2046DA
:101B9000BDE81040FFF740BF10BD00BFF41E00209D
:101BA000B64401082DE9F74F444D002682462E80A9
:101BB00009F070FA424B01271968344601919B469F
:101BC00040480AF037F8002806DD0199DBF80020CC
:101BD00001F6B8339A4222D309F05CFA062C69D197
:101BE00039483A490AF06AF936B9394B1B788BB152
:101BF0005046FFF75FFF0DE028880023801BDAB214
:101C0000F4188242E4B203F10103EEDA31490C5DCB
:101C10008C54F4E703B0BDE8F04F09F03BBAB5F8D7
:101C20000090284809F101022A8009F0AFFFDFF88F
:101C3000A4802B8808F80900434413F8011C1022E3
:101C400021480AF0C8F924491F480AF01CF91D4828
:101C500009F0F0FF002802DC04200AF02DFC2B889C
:101C6000B3F5967F02D3154B00221A8047B12B881B
:101C700008EB030212F8012CFE2AA1D15E1EF6B277
:101C80002B88434413F8013C0D2B02D1E3070BD4FE
:101C900004E00A2B0AD114F0010309D00134E4B2A4
:101CA000062C99D000278BE70124FBE70024F9E7F5
:101CB0001C46F7E703B0BDE8F08F00BF1218002004
:101CC000442000200C1F0020F41E0020D4440108F2
:101CD0001C000020901800200C45010808B503489E
:101CE000FFF760FFBDE8084009F0D4B9B417002041
:101CF00008B51D2000210AF0F5FB1D2001210AF086
:101D0000AFFB102000210AF0EDFB112000210AF0AA
:101D1000E9FB1C2000210AF0E5FB112000210AF05C
:101D20009FFB1C2001210AF09BFBBDE8084010200E
:101D300000210AF095BB0000014809F0D9BF00BF9F
:101D40000C1F002008B561B100211C200AF088FB9F
:101D500096200AF0B1FBBDE808401C2001210AF0E2
:101D60007FBB08BD08B500211D200AF079FB0C4897
:101D700009F0C1FF022000210AF0B4FB032000217A
:101D80000AF0B0FB022000210AF06AFB03200021C8
:101D90000AF066FBBDE808401C2000210AF060BB89
:101DA0000C1F002010B50B78452B12D14B78522B0D
:101DB0000FD18B78CC78303B03EB8303303C04EBC2
:101DC0004304E4B221460A2203480AF00DF92046F2
:101DD00010BD0A2010BD00BFF41E00200B784F2B51
:101DE00007D148784B2804D113704B7801205370E9
:101DF00070470020704700002DE9F04190B00E467A
:101E000001A865491C4690460AF03AF9624904A8BF
:101E10000AF036F9604907A80AF032F92046002195
:101E200004220CF02BF8E023A370E3703546002762
:101E3000AB1B43453AD229780A220DA80AF05CF977
:101E40000DA901A80AF0A4F90DA80AF0D7F815F811
:101E5000013B2C2B28D0303BDBB2092B98BF05F877
:101E6000013C15F8011C57B92D2902D14B484C49AA
:101E700009E00DA80A220AF03FF904A80DE02D2977
:101E800006D1464847490AF019F8F023E370CFE736
:101E90000DA80A220AF030F907A80DA90AF078F96E
:101EA0000DA80AF0ABF8C3E70127C1E73E490AA82D
:101EB0000AF0E6F80AA90DA80AF003F901A90DA88D
:101EC0000AF0ABF90146354809F0EEFF0DA80AF01B
:101ED00095F80AA80AF092F834490DA80AF0D0F84B
:101EE0000DA92E4809F0C2FF0DA80AF087F8A378C3
:101EF0002A48F02B01D12E4903E0E02B0CBF2649E4
:101F00002C4909F0C0FF04A90DA80AF0DAF82A4903
:101F10000DA80AF08FF90146204809F0C5FF0DA869
:101F20000AF06CF825490DA80AF0AAF80DA91B487B
:101F300009F09CFF0DA80AF061F8E3781748F02B30
:101F400001D11B4903E0E02B0CBF1349194909F0EB
:101F50009AFF07A90DA80AF0B4F80DA816490AF0CF
:101F600069F901460D4809F09FFF0DA80AF046F8EF
:101F700004A80AF044FA207007A80AF040FA60703A
:101F800007A80AF03BF804A80AF038F801A80AF0FC
:101F900035F810B0BDE8F081D8480108F41E0020E3
:101FA0000E4501081B450108294501083445010873
:101FB000CE5301083F4501084C450108534501082F
:101FC000F8B54C78432C08D18C78532C05D1CC78BB
:101FD000B4F151056C426C4100E000240026F5B2DA
:101FE0004F5D01363A2FFAD10135EDB20027954207
:101FF000FEB207F1010706D811F805C0013501F856
:1020000006C0EDB2F3E73CB92046C2B2B2420BD2F1
:102010000A5C1A540130F8E7069A02241268147018
:10202000721ED2B2FFF7E8FE0120F8BD37B51548A1
:1020300009B9154900E0154909F025FF64200AF0A7
:102040003BFA00240F4809F0F5FD0028E5B208DD51
:10205000062C14D00B4809F099FD0DF8040001344A
:10206000F0E755B19DF802304F2B08D19DF80300E1
:10207000B0F14B035842584102E0284600E00020EE
:1020800003B030BD0C1F00205F4501086345010807
:1020900010B5012104461D200AF0E2F907484FF46B
:1020A000165109F025FE20460121FFF74BFE204680
:1020B0000121BDE81040FFF7B9BF00BF0C1F002091
:1020C0002DE9F0419EB005AD0C4607460021904633
:1020D0002846642203930BF0D1FE21462C4809F0D8
:1020E000D2FE64200AF0E8F90024294809F0A2FD94
:1020F0000028E6B207DD642C45D0254809F046FDEE
:1021000028550134F1E726B92249234809F0D6FEC3
:1021100039E09DF814300D2B35D19DF815300A2B80
:1021200031D11EAB334413F8653C0A2B2BD1023E50
:102130001EAB334413F8643C0D2B24D10021CCB2E8
:10214000A31CDBB2B34201F1010107DA1EAA13445A
:1021500013F8643C144404F8643CF0E7384629461C
:10216000FFF720FE0A280CD103AB0093384629461E
:1021700022464346FFF724FF00280CBF032002201D
:1021800002E0012000E003201EB0BDE8F08100BFA6
:102190000C1F002069450108F41E00202DE9F041C4
:1021A000B2B006460D4690460021642268461F469E
:1021B0000BF064FE19A8002164220BF05FFE0024DE
:1021C000E3B2E85C013420B132AA134403F8640C92
:1021D000F6E70146CAB25D1818F80240EDB232AA1D
:1021E00001312A4414B102F8644CF3E70D2302F8DC
:1021F000643C6B1C32A8DBB203442F480A2203F86C
:10220000642C036819A95B6898472C48AA1C0368CA
:1022100019A99B68D2B2984764200AF04DF9274863
:1022200009F008FD0028E5B208DD642C3FD0234802
:1022300009F0ACFC0DF804000134F0E7002D36D0B5
:102240009DF800300D2B32D19DF801300A2B2ED194
:1022500032AB2B4413F8C93C0A2B28D1023D32ABD8
:102260002B4413F8C83C0D2B21D100218B1CDBB271
:10227000AB4201F1010209DA32A8034413F8C83C69
:10228000C9B2014401F8C83C1146EFE7304669463F
:10229000FFF788FD0A2808D1304669463A46FFF71D
:1022A0009DFD80F00100C0B202E0012000E00320AB
:1022B00032B0BDE8F08100BFF41E00200C1F0020EA
:1022C000F7B51E46044617460D4600218DF8071047
:1022D000FFF7ACFE08F0DEFE204631462FB12A465D
:1022E0000DF10703FFF7ECFE03E0089A2B46FFF71A
:1022F00055FF03282AD8DFE800F011040207002365
:1023000011E01648164901E01448164909F0D6FDB7
:1023100020460121FFF78AFE00201CE012490F48E9
:1023200009F0CCFD12E09DF807205E1CDBB29A425A
:102330000A4809D9E95C102209F04DFE07480B490B
:1023400009F0A1FD3346EEE709F0A2FD2046012188
:10235000FFF76CFE012003B0F0BD00BFF41E0020AB
:102360007D4501088E450108974501080C45010887
:102370002DE9F0438BB004AF804600210922384696
:1023800002AE00240BF07AFD009440463146012253
:10239000454BFFF795FF054620B94449444809F0ED
:1023A0008DFD7DE02346F25C07AC092A01D830326E
:1023B00004E0A2F10A01052998BF3732E254013343
:1023C000082BF0D14FF000093A488DF8249000F026
:1023D000B1FE024600284AD03749354809F06EFD63
:1023E0003448394600F014FE00283BD04B46E15CEF
:1023F000FA5C914248D10133082BF8D12F492C487F
:1024000009F05CFD2E492A4809F03DFD9DF81610A3
:10241000274809F033FD9DF81710254809F02EFDD7
:102420009DF81410224809F029FD9DF81510204848
:1024300009F024FD9DF812101D4809F01FFD9DF8BC
:1024400013101B4809F01AFD9DF81010184809F0E8
:1024500015FD9DF81110164809F010FD144809F0FB
:1024600017FD1DE01749124809F028FD07E0009408
:1024700040463146144BFFF723FF054680B1214605
:102480000C4800F015FE0AE01049094809F016FD55
:1024900000974046314600220B4BFFF711FF0546DF
:1024A00028460BB0BDE8F083AD450108B8450108EA
:1024B000F41E0020B31B0020D84501086046010827
:1024C0008A460108F64501081A4601082346010814
:1024D0002DE9F04F89B002AF07F10C06834689461B
:1024E00090461C46304600210A220BF0C7FC002C07
:1024F00050D1C7F804D05846CDF8008031460122AB
:102500004B46FFF7DDFE824608B1214606E0404912
:10251000404809F0D3FC3F483F496FE0CCB218F87F
:1025200004300131002BF9D1E11D01F4FC71ADEB58
:10253000010D02A9D8B2A04203D2F05CC854013305
:10254000F8E70B46581AC0B2A0420DD213F8010B9F
:10255000092801D8303004E0A0F10A05052DF1D892
:10256000373003F8010CEDE70025EBB2A34243D26C
:102570004B5D013508EB050010F8010C9842F4D0D2
:102580002649244809F09AFC2248254909F096FC7E
:102590007B689D466C460023DAB219F802100133BD
:1025A0000A29F9D1931D03F4FC73ADEB030DA2F1DD
:1025B000020E02AB0020C1B2551EA94200F101007B
:1025C00003DA19F801505D54F5E700223D215A5510
:1025D000584603F80E10CDF800803146FFF770FE24
:1025E000054628B90B480F4909F068FCAA4601E0E6
:1025F0004FF0010AA54605E006480B4909F05EFCCC
:102600007B689D4650461C37BD46BDE8F08F00BF35
:1026100098460108F41E0020BE460108E246010863
:10262000394701087B470108B04701082DE9F0410F
:102630008AB006AF0F2204460D46384600210BF043
:102640001DFC9B489B4909F039FC0A2608F022FD35
:10265000002D40F0DF802046FFF78AFE96498DF876
:102660001800964A2B462046FFF732FF2B468DF87E
:10267000190093492046934AFFF72AFFDFF8D082DA
:102680008DF81A0098F80030012B04D18E49884843
:1026900009F014FC2BE0022B0FD18C49844809F07F
:1026A0000DFC8B498B4A20462B46FFF711FF8A49C8
:1026B0008DF81B00894A204624E08949684609F0C4
:1026C000DFFC694603A809F0FCFC98F8001003A899
:1026D00009F0C2FD834909F0ADFD0146744809F0D7
:1026E000E3FB03A809F08AFC684609F087FC7849F7
:1026F0007D4A20462B46FFF7EBFE77497B4A8DF853
:102700001B0020462B46FFF7E3FEDFF848828DF8DA
:102710001C0098F80030222B04D17549644809F058
:10272000CDFB23E00C2B07D17249614809F0C6FBB1
:1027300020467149714A1CE07149684609F0A0FCC5
:10274000694603A809F0BDFC98F8001003A809F039
:1027500083FD644909F06EFD0146554809F0A4FB6C
:1027600003A809F04BFC684609F048FC6249654A39
:1027700020460023FFF7ACFE8DF81D00624800F0F4
:1027800029FCF1286149204608D1614A0023FFF75E
:102790009FFE60498DF81E00454807E0494A002326
:1027A000FFF796FE5C498DF81E00414809F086FB54
:1027B0005A495B4A00232046FFF78AFE59498DF8A3
:1027C0001F00574A00232046FFF782FE56498DF826
:1027D00020004F4A00232046FFF77AFE53498DF828
:1027E0002100534A00232046FFF772FE51498DF81D
:1027F0002200514A00232046FFF76AFE314A8DF835
:1028000023004E4920460023FFF762FE0D228DF87B
:1028100024000EE03C4800F0DDFBF1280CBF3C4AF0
:10282000284A204639490023FFF752FE01228DF83D
:1028300018000023F95CA9B941491D4809F03EFB85
:102840002046FFF725FC2046FFF78CFA08F022FC13
:102850002046FFF71DFC4FF4FA6009F02DFE08F04A
:1028600019FC04E00133D9B29142E3D31DE03548AD
:1028700009F0E0F9002803DD324809F087F9F6E7AE
:10288000013E16F0FF067FF4E1AE2F49084809F03B
:1028900015FB2E49064809F011FB40F6B83009F047
:1028A0000BFE08F0F7FB08F029FC0AB0BDE8F08148
:1028B000F41E0020D8470108074801081348010802
:1028C0001C48010819480108264801086448010805
:1028D0003A480108784801084F4801088148010832
:1028E0008A480108A5480108464801085B480108D4
:1028F000BC480108D9480108CE480108E848010849
:10290000EB480108CB480108B31B0020044901082B
:10291000374801080E4901081B49010828490108E8
:1029200032490108354901083F4901084949010870
:1029300052490108554901085F49010862490108E7
:102940006C4901080C1F002089490108B54901089C
:10295000B01B0020B21B00201520012109F080BD12
:102960001520002109F07CBD10B50021044615207A
:1029700009F0B8FD1520012109F072FD2046BDE8DF
:102980001040FDF7F9BC7FB505460E46FFF7E8FF9E
:102990000D2433192146284613F80D2C0134FDF778
:1029A0001BFD162CF5D13046092105F0BFF806466F
:1029B000214628463246FDF70FFD0D2421462846C4
:1029C000FDF7DCFC01AB23440134162C03F80D0C9D
:1029D000F4D101A8092105F0A9F8B04203D0FFF70E
:1029E000BBFF00200DE028460B21FDF7C7FC552852
:1029F00004D028460B215522FDF7EEFCFFF7ACFF73
:102A0000012004B070BD7FB505460E46FFF7A8FF54
:102A1000172433192146284613F8172C0134FDF7E3
:102A2000DBFC202CF5D13046092105F07FF8064665
:102A3000214628463246FDF7CFFC1724214628467A
:102A4000FDF79CFC01AB23440134202C03F8170C48
:102A5000F4D101A8092105F069F8B04203D0FFF7CD
:102A60007BFF00200DE028460C21FDF787FC552850
:102A700004D028460C215522FDF7AEFCFFF76CFF71
:102A8000012004B070BDF0B585B001AD06460F461B
:102A90002846002109220BF0F1F90D242146304689
:102AA000FDF76CFC2B190134162C03F80D0CF5D135
:102AB00021463046FDF762FC09210446284605F010
:102AC00035F8844206D10023EA5CFA540133092B1D
:102AD000FAD101E0002000E0012005B0F0BDF0B522
:102AE00085B001AD06460F462846002109220BF0AD
:102AF000C5F9172421463046FDF740FC2B19013457
:102B0000202C03F8170CF5D121463046FDF736FC92
:102B100009210446284605F009F8844206D100231D
:102B2000EA5CFA540133092BFAD101E0002000E0FD
:102B3000012005B0F0BD37B50C461E210546FDF756
:102B40001DFC1F218DF804002846FDF717FC02210B
:102B50008DF8050001A804F0E9FF207003B030BD36
:102B600010B50B210446FDF709FC88B1FFF7F8FE0C
:102B7000204600220B21FDF72FFCFFF7EDFE20463B
:102B80000B21FDF7FBFBD0F1010038BF002010BD89
:102B9000012010BD10B50C210446FDF7EFFB88B1F4
:102BA000FFF7DEFE204600220C21FDF715FCFFF7A3
:102BB000D3FE20460C21FDF7E1FBD0F1010038BF28
:102BC000002010BD012010BD10B521210446FDF7E5
:102BD000D5FB552811D0FFF7C3FE204655222121F1
:102BE000FDF7FAFBFFF7B8FE20462121FDF7C6FBF3
:102BF000B0F155035842584110BD012010BD08B531
:102C00002121FDF7BBFBB0F155035842584108BDE7
:102C100070B504460D46FFF736FF20B12046294621
:102C2000FFF75DFF48BB20462946FFF72CFF48B160
:102C30001549164809F042F920462946BDE870407A
:102C4000FFF7E1BE20462946FFF749FF06460F4839
:102C500046B10F4909F032F920462946BDE87040D7
:102C6000FFF791BE0B4909F029F92046FFF778FFDD
:102C70002046FFF78FFF304670BD0749034809F033
:102C80001DF9012070BD00BFDE490108F41E0020BF
:102C9000154A01084C4A0108604A0108F8B5044683
:102CA0000E462F2573192046294613F82F7CFDF771
:102CB00065FB874203D10135342DF3D136E0FFF7B0
:102CC0004FFE2F2573192946204613F82F2C013566
:102CD000FDF782FB342DF5D10521304604F026FFA7
:102CE0000746294620463A46FDF776FB2F25204623
:102CF0002946FDF743FB731913F82F3C834217D184
:102D00000135342DF3D120462946FDF737FBB84273
:102D10000ED120463521FDF731FB552804D0204641
:102D200035215522FDF758FBFFF716FE0120F8BDAF
:102D3000FFF712FE0020F8BDF7B505460E462F241A
:102D400021462846FDF71AFB00AB23440134342CFE
:102D500003F82F0CF4D10521684604F0E7FE214664
:102D600007462846FDF70AFB874207D100231DF8D6
:102D70000320F2540133052BF9D101E0002000E0DB
:102D8000012003B0F0BD73B505462F242146284627
:102D9000FDF7F4FA00AB23440134342C03F82F0C74
:102DA000F4D16846052104F0C1FE214606462846B6
:102DB000FDF7E4FA331A5842584102B070BD38B5F5
:102DC0000546FFF7CDFD2F2428462146FDF7D6FA0C
:102DD00068B1284621460022FDF7FEFA2846214622
:102DE000FDF7CCFA18B1FFF7B7FD002038BD01346C
:102DF000342CE9D128463521FDF7C0FA20B1284608
:102E000035210022FDF7E8FAFFF7A6FD012038BDC5
:102E100037B50D468DF8071036210446FDF7AEFA9A
:102E200085422BD002ADFFF79BFD15F8012D204602
:102E30003621FDF7D1FA0121284604F077FE37212B
:102E400002462046FDF7C8FA20463621FDF796FADD
:102E50009DF8073083420DD120463821FDF78EFAC8
:102E6000552804D0204638215522FDF7B5FAFFF742
:102E700073FD03E0FFF770FD002000E0012003B0C8
:102E800030BD3621FDF77ABA37B536210546FDF754
:102E900075FA02AB03F8010D1846012104F046FE55
:102EA000372104462846FDF769FA231A584258414B
:102EB00003B030BD10B536210446FDF75FFA88B186
:102EC000FFF74EFD204636210022FDF785FA204609
:102ED0003621FDF753FA18B1FFF73EFD002010BD73
:102EE000FFF73AFD012010BD10B548210446FDF75B
:102EF00045FA552811D0FFF733FD204655224821C9
:102F0000FDF76AFAFFF728FD20464821FDF736FA5B
:102F1000B0F155035842584110BD012010BD10B505
:102F20004D210446FDF72AFA552810D0FFF718FD69
:102F3000204655224D21FDF74FFAFFF70DFD2046A3
:102F40000021FDF71BFA003018BF012010BD012041
:102F500010BD000037B58DF807101031C9B2012936
:102F6000044629D84C21FDF709FA9DF80730834221
:102F700028D002ADFFF7F4FC15F8012D20464C21B6
:102F8000FDF72AFA0121284604F0D0FD4E21024621
:102F90002046FDF721FA20464C21FDF7EFF99DF878
:102FA0000730834205D12046FFF7B9FFFFF7D4FC75
:102FB00008E0FFF7D1FC03E00448054908F07EFF74
:102FC000002000E0012003B030BD00BFF41E00204F
:102FD000904A010837B54C210446FDF7CFF902AB02
:102FE00003F8010D1846012104F0A0FD4E2105460D
:102FF0002046FDF7C3F9854202D19DF8070004E0A1
:103000002046F021FFF7A6FFF02003B030BD0000FE
:10301000F7B505460E464F2421462846FDF7AEF982
:1030200000AB23440134572C03F84F0CF4D1082192
:10303000684604F07BFD214607462846FDF79EF9C9
:1030400087420CD100231DF80320F2540133082BD2
:10305000F9D10448044908F031FF012000E00020C4
:1030600003B0F0BDF41E0020C64A010810B5582177
:103070000446FDF783F9552808D0FFF771FC204678
:1030800058215522FDF7A8F9FFF766FC10BD10B5D1
:1030900058210446FDF772F940B1FFF761FC204664
:1030A00058210022FDF798F9FFF756FC10BD0000EB
:1030B000F7B50F460546FFF753FC3846082104F0E4
:1030C00035FD4F2406463B192146284613F84F2C60
:1030D0000134FDF781F9572CF5D1214628463246B7
:1030E000FDF77AF94F2421462846FDF747F900AB52
:1030F00023440134572C03F84F0CF4D168460821BF
:1031000004F014FD864206D02846FFF7C0FFFFF703
:1031100023FC002007E00549054808F0CFFE2846BB
:10312000FFF7A4FF012003B0F0BD00BFDB4A010898
:10313000F41E002008B55821FDF720F9B0F1550321
:103140005842584108BD10B57F210446FDF716F9D5
:1031500055280AD0FFF704FC20467F215522FDF7B1
:103160003BF9FFF7F9FB002010BD012010BD38B579
:103170000C467E210546FDF701F9A04208D0FFF775
:10318000EFFB28467E212246FDF726F9FFF7E4FBF8
:10319000012038BD7E21FDF7F1B810B5812104462C
:1031A000FDF7ECF855280AD0FFF7DAFB204681211D
:1031B0005522FDF711F9FFF7CFFB002010BD0120CC
:1031C00010BD38B50C4680210546FDF7D7F8A04262
:1031D00008D0FFF7C5FB284680212246FDF7FCF802
:1031E000FFF7BAFB012038BD8021FDF7C7B870B5E5
:1031F00004460E461546FFF7B3FB20463246222111
:10320000FDF7EAF8204623212A46FDF7E5F8FFF707
:10321000A3FB70BDFDF7B2B8FDF7B0B870B50446BA
:103220000E461546FFF79CFB204632462421FDF74B
:10323000D3F8204625212A46FDF7CEF8FFF78CFB70
:1032400070BD10B50446FFF78BFB2046552259216F
:10325000FDF7C2F8FFF780FB20465921FDF78EF8F5
:10326000B0F155035842584110BD08B55921FDF73A
:1032700085F8B0F155035842584108BD10B50446D1
:10328000FFF76EFB204600225921FDF7A5F8FFF756
:1032900063FB20465921FDF771F8D0F1010038BFDA
:1032A000002010BD73B5002305460E460093019320
:1032B000FFF756FB5A2433192146284613F85A2C97
:1032C0000134FDF789F8622CF5D13046082104F06D
:1032D0002DFC0646214628463246FDF77DF85A2445
:1032E00021462846FDF74AF800AB23440134622CFE
:1032F00003F85A0CF4D10821684604F017FC044680
:10330000FFF72AFBB442064804D1064908F0D6FD6F
:10331000012003E0044908F0D1FD002002B070BD97
:10332000F41E0020F04A01081E4B010838B5094977
:103330000546094808F0C2FD5A2421462846FDF7F3
:103340001DF8064B1A190134622C02F85A0CF4D1FC
:10335000184638BD4F4B0108F41E0020B71B002053
:1033600073B5002305460E4600930193FFF7F8FA64
:10337000632433192146284613F8632C0134FDF7E2
:103380002BF86B2CF5D13046082104F0CFFB064614
:10339000732128463246FDF71FF86324214628464C
:1033A000FCF7ECFF00AB234401346B2C03F8630CF7
:1033B000F4D10821684604F0B9FB0446FFF7CCFAC3
:1033C000B442064804D1064908F078FD012003E024
:1033D000044908F073FD002002B070BDF41E002007
:1033E000874B0108B54B010870B50E4674210446A1
:1033F0001546FCF7C3FFB04205D120467521FCF706
:10340000BDFFA84219D0FFF7ABFA2046742132461F
:10341000FCF7E2FF204675212A46FCF7DDFFFFF7A7
:103420009BFA20467421FCF7A9FFB0420BD120463D
:103430007521FCF7A3FFA84205D10649064808F00C
:103440003DFD012070BD0549034808F037FD00200F
:1034500070BD00BF2D4C0108F41E00204F4C010828
:1034600010B50446FFF77CFA204674210022FCF7D1
:10347000B3FF204675210022FCF7AEFFFFF76CFA80
:1034800020467421FCF77AFF20B920467521FCF70D
:1034900075FF28B10549064808F010FD002010BD51
:1034A0000449034808F00AFD012010BD714C0108D1
:1034B000F41E0020944C010870B50E467A21044693
:1034C0001546FCF75BFFB04205D120467B21FCF797
:1034D00055FFA84219D0FFF743FA20467A21324619
:1034E000FCF77AFF20467B212A46FCF775FFFFF7A1
:1034F00033FA20467A21FCF741FFB0420BD1204637
:103500007B21FCF73BFFA84205D10649064808F09D
:10351000D5FC012070BD0549034808F0CFFC002010
:1035200070BD00BF614D0108F41E00208D4D0108E3
:1035300038B57A210546FCF721FF7B210446284651
:10354000FCF71CFF00EB042038BD000070B50E46F0
:10355000782104461546FCF711FFB04205D12046FC
:103560007921FCF70BFFA84219D0FFF7F9F92046A3
:1035700078213246FCF730FF204679212A46FCF7B5
:103580002BFFFFF7E9F920467821FCF7F7FEB04260
:103590000BD120467921FCF7F1FEA84205D106495E
:1035A000064808F08BFC012070BD0549034808F06F
:1035B00085FC002070BD00BF134E0108F41E0020E2
:1035C0003F4E010838B578210546FCF7D7FE792132
:1035D00004462846FCF7D2FE00EB042038BD00006C
:1035E00070B50E467C2104461546FCF7C7FEB04276
:1035F00005D120467D21FCF7C1FEA84219D0FFF776
:10360000AFF920467C213246FCF7E6FE20467D21BC
:103610002A46FCF7E1FEFFF79FF920467C21FCF7E4
:10362000ADFEB0420BD120467D21FCF7A7FEA8429B
:1036300005D10649064808F041FC012070BD054946
:10364000034808F03BFC002070BD00BFC54E0108D8
:10365000F41E0020F54E010838B57C210546FCF724
:103660008DFE7D2104462846FCF788FE00EB0420F1
:1036700038BD000070B505460E46FFF771F900240D
:1036800004F18201325D28460134FCF7A5FE082CC6
:10369000F6D1FFF761F90024284604F18201FCF716
:1036A0006DFE335D834205D00749084808F006FCEB
:1036B000002070BD0134082CEED10549034808F004
:1036C000FDFB012070BD00BF874F0108F41E0020E4
:1036D000BD4F0108052902D88231FCF74FBE0020FA
:1036E0007047000070B505460E46FFF739F9002413
:1036F00004F18A01325D28460134FCF76DFE082C86
:10370000F6D1FFF729F98A2428462146FCF736FE30
:10371000331913F88A3C834205D00749074808F05B
:10372000CDFB002070BD0134922CEDD1044903483B
:1037300008F0C4FB012070BD5A500108F41E00209F
:103740008B500108052902D88A31FCF717BE0020EA
:103750007047000010B50446FFF702F92046922199
:103760005522FCF739FEFFF7F7F820469221FCF7C7
:1037700005FE5528054804D1054908F09FFB0120A6
:1037800010BD044908F09AFB002010BDF41E002073
:10379000185101085451010808B59221FCF7EEFDBB
:1037A000B0F155035842584108BD00002DE9F041E1
:1037B000044616460F46FFF7D3F826442546B54281
:1037C00007D03B1B29465A5D0F48FCF705FE013523
:1037D000F5E7FFF7C1F82546B54211D03B1B294656
:1037E000094813F80580FCF7C9FD804505F101057E
:1037F000F2D00649064808F061FB0220BDE8F081DE
:103800000020BDE8F08100BF6C17002010520108B5
:10381000F41E0020F8B505460E4617180446BC42B3
:1038200007D021460448FCF7A9FD731B1855013445
:10383000F5E70020F8BD00BF6C17002000220260F1
:1038400042607047006820B103688B4201D08068F5
:10385000F9E7704770B504460C2016460D4609F08E
:1038600085FF00228260226880E860000AB920603B
:1038700001E062689060606070BD10B51446FFF7AB
:10388000E1FF08B14460012010BD08B5FFF7DAFF81
:1038900000B1406808BD01F51C414131FFF7DABFB6
:1038A00001F51C414131FFF7E8BF01F51C414131F1
:1038B000FFF7EBBF002A01F1010114BF4FF47F4273
:1038C0000022FFF7C7BF002A01F51C5101F11101C9
:1038D00014BF4FF47F420022FFF7BCBF01F5EA415D
:1038E0003131FFF7B7BF002A01F1010114BF4FF4D6
:1038F0007F420022FFF7C1BF002A01F51C5101F1F0
:10390000110114BF4FF47F420022FFF7B6BF01F54B
:10391000EA413131FFF7B1BF08B50131FFF7B5FF1B
:10392000B0F57F435842584108BD01F51C5108B518
:103930001131FFF7AAFFB0F57F435842584108BD47
:1039400001F5EA413131FFF7A0BF000070B5044630
:103950000D4609480949164608F0B0FAA06809F072
:103960000DFF0220207309F001FF803D0323A060BA
:1039700005704670637370BDF41E00201853010873
:10398000F8B5531E7C2B04460F46164602D9032178
:103990000A4617E001F51C414131FFF753FF18B902
:1039A0002046032102220DE0A06809F0E7FE701C0A
:1039B0004000C0B2207309F0D9FEA06030B92046A3
:1039C00003210422BDE8F840FFF7C0BF03230370C2
:1039D000237B0025023B4370E9192046FFF765FF72
:1039E000A3680135020A03F81520A368B54203EB6A
:1039F00045035870F0D103236373F8BD70B50446D6
:103A00000E461546FFF74CFF18B920460621022244
:103A100008E020463146FFF748FFA84206D020467E
:103A200006210422BDE87040FFF790BF02236373B4
:103A300070BD2DE9F8431F4616467A1E7A2A0446C1
:103A400088469DF8203002D8B3EB470F03D02046BC
:103A5000102103221CE006F51C45413505EB070942
:103A600020462946FFF7EEFE18B920461021022213
:103A70000EE001354D45F3D1A06809F07FFE052029
:103A8000207309F073FEA06030B920461021042293
:103A9000BDE8F843FFF75ABF10230370330A4370A1
:103AA000002307718670C37008F106053744BE42D3
:103AB00005F102050BD015F8022C15F8013C314632
:103AC000204643EA0222FFF7EBFE0136EFE703232D
:103AD0006373BDE8F8832DE9F843531EB3F5FA6F1D
:103AE00004460F46154602D30121032219E0013195
:103AF000FFF7A8FE18B920460121022211E0A068B4
:103B000009F03CFEC5F3C7036A070CBF0233033359
:103B10002373207B09F02AFEA06030B920460121E2
:103B20000422BDE8F843FFF711BF01230370237B94
:103B300005EB0708023B43703E46002546451CD076
:103B400031462046FFF7E8FEC7F10109B1444FEACC
:103B5000D909012109F10203A268A94010B1D05C82
:103B6000014302E0D05C20EA01010135EDB2082DED
:103B7000D15408BF00250136E0E703236373BDE895
:103B8000F88300002DE9F843531EB3F5FA6F04469D
:103B90000F46154602D3022103221FE001F51C51F6
:103BA0001131FFF74FFE18B920460121022215E01E
:103BB0002249234808F082F9A06809F0DFFDC5F327
:103BC000C7036A070CBF023303332373207B09F05A
:103BD000CDFDA06030B9204602210422BDE8F843A3
:103BE000FFF7B4BE02230370237B05EB0708023BFB
:103BF00043703E46002546451CD031462046FFF71F
:103C000094FEC7F10109B1444FEAD909012109F134
:103C10000203A268A94010B1D05C014302E0D05C6D
:103C200020EA01010135EDB2082DD15408BF00256D
:103C30000136E0E703236373BDE8F8833B530108D3
:103C4000F41E0020F8B5531E7C2B04460F46164682
:103C500002D90421032217E001F5EA413131FFF7CF
:103C6000F1FD18B92046012102220DE0A06809F0FB
:103C700085FD701C4000C0B2207309F077FDA06084
:103C800030B9042120460A46BDE8F840FFF75EBE81
:103C900004230370237B0025023B4370E91920466F
:103CA000FFF74EFEA3680135020A03F81520A3684A
:103CB000B54203EB45035870F0D103236373F8BD9D
:103CC00070B5B2F57F4F86B004460E4603D012B1F0
:103CD0000521032215E0151C18BF01252046314699
:103CE0002A46FFF700FE18B920460521022208E007
:103CF00020463146FFF710FEA84205D02046052198
:103D00000422FFF723FE17E00C49684608F0B8F9D3
:103D1000694603A808F0D5F9094903A808F08AFA0A
:103D20000146084808F0C0F803A808F067F968469B
:103D300008F064F90223637306B070BD655301088F
:103D40007D530108F41E00202DE9F0438BB004469A
:103D5000894604A86C49DF081D46164608F090F90C
:103D600004A907A808F0ADF9394607A808F088FAB1
:103D70000146664808F098F807A808F03FF904A83B
:103D800008F03CF96B0705F1FF3318BF0137B3F5B5
:103D9000F66F03D29DF84830BB4207D05C495B48C0
:103DA00008F08CF820460F2103224DE0771C07EB2A
:103DB000050820463946FFF745FD18B920460F2172
:103DC000022241E001374745F3D15048514908F0FC
:103DD00075F80627504901A808F052F901A904A86E
:103DE00008F06FF9394604A808F04AFA4B4908F080
:103DF00021FA102219F80710804607A808F07CF96C
:103E000007A9404608F009FA0146404808F04CF876
:103E100007A808F0F3F804A808F0F0F8013701A8A3
:103E200008F0ECF8102FD5D13A49384808F046F898
:103E3000A06809F0A3FC0520207309F097FCA0609E
:103E400028B920460F210422FFF780FD58E00F23F8
:103E50000370330A43702B0A8670C37005712D49B5
:103E60002A4808F02BF806272B4901A808F008F982
:103E700001A904A808F025F9394604A808F000FAB9
:103E8000264908F0D7F9102219F80710804607A82C
:103E900008F032F907A9404608F0BFF901461B486F
:103EA00008F002F807A808F0A9F804A808F0A6F896
:103EB000013701A808F0A2F8102FD5D113481549F1
:103EC00007F0FCFF3544B0460027C6EB080309EBBA
:103ED000D3039A7941463A410137FFB2204602F0B6
:103EE0000102FFF700FD08F10108082F08BF0027B5
:103EF000A845EAD105480A4907F0E0FF03236373A8
:103F00000BB0BDE8F08300BF8F530108F41E002002
:103F1000A1530108F85E0108BA530108E63E010802
:103F2000C15301082DE9F0418B784F788CB0CE78E1
:103F300043EA07270B7991F800800C46054654495F
:103F400003A843EA062608F09BF803A909A808F08D
:103F5000B8F81022217806A808F0CEF806A909A81A
:103F600008F05BF901464B4807F09EFF06A808F0F1
:103F700045F809A808F042F803A808F03FF84649B8
:103F800003A808F07DF803A909A808F09AF8102200
:103F9000394606A808F0D3F806A909A808F03DF9A3
:103FA00001463C4807F080FF06A808F027F809A85A
:103FB00008F024F803A808F021F8384903A808F00D
:103FC0005FF803A909A808F07CF81022314606A87A
:103FD00008F0B5F806A909A808F01FF901462D4810
:103FE00007F062FF06A808F009F809A808F006F82B
:103FF00003A808F003F808F1FF330F2B3FD8DFE8E0
:1040000003F01D230E292F083E3E3E3E3E3E3E3E1F
:104010003514284639463246FFF7F0FC34E028468E
:1040200039463246FFF7ACFC2EE063792846009310
:1040300021463A463346FFF7FCFC25E02846394640
:104040003246FFF748FD1FE0284639463246FFF763
:1040500099FD19E0284639463246FFF7F3FD13E093
:10406000284639463246FFF72BFE0DE06379284695
:10407000009321463A463346FFF766FE04E02846A1
:1040800041460122FFF762FC0CB0BDE8F08100BFA1
:10409000D0530108F41E0020DC530108E653010848
:1040A00010B50446FFF7CAFB204610BD80F8281063
:1040B0000120704770B5049E0161C6610446154633
:1040C00008461146DAB207F0D7FD4FF4FA6008F05F
:1040D000F3F9002E08DBF6B23046002108F002FAB0
:1040E0003046002108F0BCF9B5F5964F06DD40F2E8
:1040F000EE23236240F2D663636207E0044B93FB36
:10410000F5F32362034B93FBF5F56562012070BD67
:10411000C0E1E400C00E160270B50446C06986B066
:1041200000280D4606DBC0B2012108F099F90120F4
:1041300008F0C2F90023227B5E1CDBB29A421FD931
:10414000194A1068411C1160E95C184A1154D15C8D
:104150006846102207F0D0FF694603A807F0B1FFB8
:10416000134903A808F066F80146124807F07EFEDE
:1041700003A807F043FF684607F040FF3346DAE73D
:104180000D490C4807F09AFE206903689B6998471F
:10419000606A08F09FF9E069002803DBC0B20021E3
:1041A00008F05EF906B070BDD81B0020C11B0020CE
:1041B0000C450108F41E0020F0540108F0B5C94375
:1041C0000B4EC9B2705C0B4DC0436C5CC0B2002199
:1041D000AC46CFB2BB4207D0555C01314540705D63
:1041E00060401CF80540F4E744EA0020F0BD00BF41
:1041F000F0530108A05501082DE9F0410D78037B2B
:10420000FF2D01EB030204460E4612F8028C12F851
:10421000017C03D090F82820AA4219D1A268033B60
:10422000204612F8011BDBB2FFF7C8FF47EA082758
:10423000874202D00A480B490CE02046711CFFF768
:1042400071FEFF2D4FF0010007D16073BDE8F081D2
:104250000348054907F032FE0020BDE8F08100BFA9
:10426000F41E00201855010844550108F8B504460D
:10427000C0690F46002806DBC0B2012108F0F0F843
:10428000012008F019F9194D19491A4807F016FECE
:10429000194E2B6894F828105A1CF154237B2A607D
:1042A0000022D0B298420AD2286800F1010EC5F867
:1042B00000E017F802E0013206F800E0F1E7A2683A
:1042C0002046FFF77BFF2B68020AF2541E449A1C1B
:1042D0007070606A2A6008F0FDF8E069002803DB6E
:1042E000C0B2002108F0BCF8F8BD00BFD81B002008
:1042F00074550108F41E0020C11B0020D2B238B54D
:1043000004460D460273002A3ED02049204807F09B
:10431000D5FD207B09F02AFA0023A060227B591CDE
:10432000DBB29A4204D9E85CA268D0540B46F5E7A8
:104330001748184907F0C2FD0025237B9D4207D28C
:10434000A3681348595D102207F04EFE0135F4E7CB
:1043500010490F4807F0B2FD2046A168FFF74CFF57
:1043600068B1637B032B04D12046A168FFF77EFF71
:1043700005E0022B03D12046A168FFF7CDFEA0681F
:1043800009F0FCF90023237338BD00BF94550108E0
:10439000F41E0020C753010808B5032006F0CCFA2C
:1043A000014B01221A7008BDE51B002070B55E4864
:1043B0000D46097805F0DAF8697806465A4805F09E
:1043C000D5F806EB8606594C06EB860600EB860010
:1043D000E080A978544805F0C9F86071E97852483E
:1043E00005F0C4F8207129794F4805F0BFF86979C4
:1043F000A0704D4805F0BAF8A97960704A4805F0F8
:10440000B5F84B4920704B4807F03DFDE1880A2282
:10441000484807F0C8FD4849464807F034FD61792F
:104420000A22444807F0E0FD4449424807F02BFDCA
:1044300021790A223F4807F0D7FD41493D4807F05E
:1044400022FDA1780A223B4807F0CEFD3D493948BC
:1044500007F019FD61780A22364807F0C5FD3A4990
:10446000344807F010FD0A222178324807F0BCFDDD
:1044700006F092FD642008F01FF82046FBF71EFFAF
:104480000146324806F076F9642008F015F806F087
:1044900089FD2E4806F071F901462046FBF782FEA1
:1044A000E1886423B1FBF3F1C9B21F4805F055F868
:1044B0002870E2884FF47A73B2FBF3F103FB112109
:1044C0001948C9B205F049F868706179164805F0D5
:1044D00044F8A8702179144805F03FF8A178E870F5
:1044E000114805F03AF8617828710F4805F035F861
:1044F000217868710C4805F030F80024A871295D16
:1045000010220C4807F067FD01340A48104907F0F3
:10451000BAFC072CF3D1074807F0BAFCBDE870409D
:1045200004480C4907F0CABCE51E0020DC1B002033
:10453000A0560108F41E0020A7560108AF56010836
:10454000B5560108BC560108C6560108E61B0020F6
:104550000C450108D056010870B51B4886B0FBF722
:10456000ADFE1A4C054606F017FD0A2007F0A4FF21
:104570002946204606F0FEF8204606F0FEF8144DC7
:1045800014492A688618684607F07AFD694603A828
:1045900007F097FD296803A807F072FE01460E4850
:1045A00007F082FC03A807F029FD684607F026FD06
:1045B0000A493246204606F0E2F80A2007F07CFF5E
:1045C00006F0F0FC06B070BDDC1B0020E61B0020EE
:1045D0008C180020F3560108F41E002099430008AF
:1045E0000148112106F0BDB8E61B0020084B1A68EF
:1045F00001321A601A68B2F5615F04D300221A60B2
:10460000044B01221A70044B1A6801321A60704779
:10461000EC1B0020351C0020E81B002003F0AEBA84
:1046200070B50F4C2368013323600E4B1D7855B1D4
:104630000D482568FEF7C6FF0A23584385420ED36E
:104640000023236008E008482668FEF771FF0A236C
:104650005843864203D32560044B01221A7070BD73
:10466000F01B002010180020C01B0020EA1E0020B4
:1046700010B5084C0849204607F083FB204601216D
:10468000064A07F09DFB20460021BDE8104007F0D8
:104690006FBB00BFEC1F0020A08601002146000870
:1046A00010B5084C0849204607F06BFB2046012155
:1046B000064A07F085FB20460021BDE8104007F0C0
:1046C00057BB00BFF01F002040420F001D460008EE
:1046D00010B5084C0849204607F053FB204601213D
:1046E000064A07F06DFB20460021BDE8104007F0A8
:1046F0003FBB00BFF41F002040420F00ED45000803
:1047000010B5054C204607F025FB20460021BDE8EA
:10471000104007F02DBB00BFEC1F002010B5054C6A
:10472000204607F017FB20460021BDE8104007F0A7
:104730001FBB00BFF01F002010B5064C204607F03D
:1047400009FB2046002107F013FB034B00221A60EF
:1047500010BD00BFF41F0020E81B002008B503486F
:1047600007F0F0FA024B00221A6008BDF41F002087
:10477000E81B0020F8B52D4802F0B0FE2C4C2D4D62
:1047800020702A4802F0F4FE0646284802F050FF46
:10479000294B2278197830449142286007D01A704A
:1047A000264B0122264827491A7007F087FB264B23
:1047B0002A681968254C914206D01A6020480123C6
:1047C0002349237007F07AFB2A68224B02B10122A9
:1047D0001A7023782BB9194B1B7813B91E4B1B7811
:1047E00013B31E4B1E4A1978166817461D4651B161
:1047F0003B689B1BB3F5FA6F03D21A48FDF7D2F959
:10480000F6E700232B7018490D4807F057FB0B4AB9
:1048100000231370104A01211370237013480A46B5
:10482000BDE8F84005F0A0BBF8BD00BF371C002074
:10483000F81B0020001C0020FC1B0020FD1B00209A
:10484000F41E002075570108F41B0020F91B0020FE
:104850008857010810180020271C0020181B002072
:1048600044200020B41700209B570108EB1E0020B5
:1048700010B5064C0649204607F002FC20460549C3
:10488000054ABDE8104007F07DBF00BF281C00208E
:10489000D8480108FDBF00080800002030B54A488C
:1048A00085B0FEF7ACF9002846D1484B484918704E
:1048B0004548FEF768F828B143484549FEF7A3F894
:1048C000002877D14048FEF7F5FA20B13E48FEF7C0
:1048D00076FA002873D101238DF804303A4800237A
:1048E00001A98DF805308DF806308DF807308DF868
:1048F0000830FEF7D3F918B13648374907F0DEFA29
:1049000031480121FEF784FA18B13248334907F0E3
:10491000D5FA33492F4807F0D1FA32492D4807F02C
:10492000CDFA09E0304CA368EBB92F482C4907F0C9
:10493000D2FB2E48FDF736F92348FEF760F9002830
:1049400033D106F0A7FB234807F074F90028E9DD0E
:10495000204807F01BF9C1B2234807F01EFC0220D3
:1049600007F0AAFDEFE7204607F03DFD2146194874
:1049700007F09AFA1E4901A807F082FB204601A918
:1049800007F09EFC054601A807F038FB55B1144915
:10499000204607F0A0FB0F48164907F08FFA16488B
:1049A00004F03CFE06F076FBBFE7084B01221A70CC
:1049B00005B030BD1149074807F080FA82E7104979
:1049C000044807F07BFA86E7B61B00201D00002094
:1049D000091C0020F41E0020EC570108295801088A
:1049E000D848010865580108281C0020B417002089
:1049F00092520108A8580108EB1E0020EB5801084C
:104A00001F59010870B506F045FB194B1B7843BBD5
:104A100070BD184C18482678184D731C237007F089
:104A2000B5F8A855022007F047FD2378132B0CD9C1
:104A300006F030FB002612491248267007F03EFAB5
:104A400028463146142209F019FA23780D481D44EE
:104A500015F8011C102207F0BEFA0A480A4907F0AF
:104A600012FA054807F0E6F80028D2DC70BD00BF56
:104A7000081C0020FB1B0020241F0020121C00200B
:104A800066590108F41E00209859010830B5AC4859
:104A90008DB004F07DFBAB4801F01CFBAA4B062057
:104AA0001A684FF4FA6122F0E06242F080621A6004
:104AB00006F0E0FAA5484FF4E13107F019F9A448EF
:104AC0004FF41651FDF738F94FF41651A14807F08D
:104AD0000FF906F054FAA048FDF746FF984804F095
:104AE000FBFB06F0D7FA9A48FDF702F90121984836
:104AF000FDF79CFA994D4FF4FA6007F0DDFC0124B4
:104B0000002397482B70FDF74DF82C7006F0C2FA81
:104B10009448F121FEF71EFA9248FEF714FB18B9EB
:104B200090482146FEF723FB8E48FEF733FB8E4C60
:104B30008E49207003A807F0A3FA03A909A807F07B
:104B4000C0FA1022217806A807F0D6FA06A909A80B
:104B500007F063FB01467D4807F0A6F906A807F0B9
:104B60004DFA09A807F04AFA03A807F047FA7D486A
:104B7000FEF713FB18B97B483421FEF722FB794876
:104B8000FEF732FB7A4C7B49207003A807F078FAD5
:104B900003A909A807F095FA0A22217806A807F0C8
:104BA000ABFA06A909A807F038FB0146674807F0E9
:104BB0007BF906A807F022FA09A807F01FFA03A854
:104BC00007F01CFA6748FEF78FF96B495F4807F05A
:104BD00075F96A482221FEF71FFB062804461DD1FD
:104BE00066482321FEF718FB0546B8B964496846B4
:104BF00007F046FA694606A807F063FA2146102234
:104C000003A807F08AFA03A906A807F006FB5D4986
:104C100007F010FB2946044609A81BE0002257486C
:104C20000621FEF7E4FA5849684607F029FA694672
:104C300006A807F046FA1022062103A807F06DFA2D
:104C400003A906A807F0E9FA4E4907F0F3FA002194
:104C5000044609A8102207F060FA204609A907F0C7
:104C6000DCFA0146394807F01FF909A807F0C6F930
:104C700003A807F0C3F906A807F0C0F9684607F0D3
:104C8000BDF93E482421FEF7C5FA0228044616D194
:104C90003A482521FEF7BEFA054680B93B4906A8E9
:104CA00007F0EEF906A909A807F00BFA214609A8B2
:104CB00007F0DCFA334907F0BDFA294614E0002278
:104CC0002E480221FEF7AAFA314906A807F0D8F9C2
:104CD00006A909A807F0F5F9022109A807F0C6FA04
:104CE000284907F0A7FA002107F0C0FA0146174843
:104CF00007F0DAF809A807F081F906A807F07EF9AD
:104D0000FFF780FEFFF7CAFD22482349FDF780FF29
:104D1000002847D118490D4807F0D0F81F490B4823
:104D200007F0CCF81E4804F091FD0D48FCF73AFF5F
:104D300040F6B83004F024FC06F0ACF9E4E700BF1C
:104D4000E41E0020371C002004000140F41E002057
:104D5000B11B0020241F0020BF1B00201C000020CE
:104D6000B4170020B31B0020B01B00209A59010883
:104D7000B21B0020A9590108D8480108B51B002022
:104D8000035B0108D94A0108195B0108645B01084B
:104D90007A5B0108B61B0020091C0020B6590108E7
:104DA000EB1E00203849394807F088F83748384961
:104DB00007F069F80024374B1022195D334807F0DB
:104DC0000AF901343148344907F05DF8092CF2D171
:104DD0002E4807F05DF806F05DF9FFF749FCFFF794
:104DE0008FFC2E49294807F069F82D49274807F01C
:104DF00065F8FFF755FCFFF791FC2A49234807F0B7
:104E00005DF82749214807F059F8FFF761FCFFF7E3
:104E1000A5FC25491D4807F051F821491B4807F01A
:104E20004DF802222148012105F028F820491748B1
:104E300007F044F81A49154807F040F81D4802F0F9
:104E40004DFB1D4B18701D4B18701A4802F090FB5B
:104E50001B4B134918601B4B18600C4807F02EF8C9
:104E600019490A4807F02AF80D49084807F026F8BA
:104E7000002105221548FEF769FB00210A2213488C
:104E8000FEF71AFB0DB030BDEA590108F41E0020F0
:104E9000035A0108091C00200C4501080D5A01089D
:104EA000D84801084A5A01086E5A0108EB1E002032
:104EB000A65A0108371C0020FC1B0020F81B00200C
:104EC000F41B0020001C0020BB5A0108C01B00205E
:104ED00070B58EB0954806F0ADFE00280ADD934807
:104EE00006F054FEC1B2924807F057F9022007F0CD
:104EF000E3FAEFE78E4CA368002B00F01481204604
:104F000007F071FA2146894806F0CEFF89490BA8BF
:104F100007F0B6F820460BA907F0FFF905460BA8E5
:104F200007F06CF8002D31D020460021042207F054
:104F300041FA204607F063FA7F4C02462060C2F334
:104F400007217E48D2B2FEF74BFB10B177487C496F
:104F500001E076487B4906F0B1FF7848FEF77CFB1C
:104F60007949206008A807F08BF808A90BA807F07A
:104F7000A8F821680BA807F083F901466B4806F0F2
:104F800093FF0BA807F03AF808A87EE06F490BA83A
:104F900007F076F820460BA907F092F905460BA812
:104FA00007F02CF855B16A4A6048137883F0010382
:104FB00013700BB16749B0E06749AEE067490BA8D1
:104FC00007F05EF820460BA907F07AF906460BA811
:104FD00007F014F85EB16249544806F06FFF00957F
:104FE00060490122604B6148FDF76AF997E060492A
:104FF0000BA807F045F820460BA907F08EF90546E7
:105000000BA806F0FBFF002D42D05A49474806F096
:1050100055FF59490BA807F033F820460BA907F0B4
:105020009FF9A368421C214602A807F09DF90BA82E
:1050300006F0E4FF02A807F0E2F9C1B24F48FEF71C
:1050400096F84E48FEF7A6F84D4C4E49207005A83C
:1050500007F016F805A90BA807F033F810222178FD
:1050600008A807F049F808A90BA807F0D6F80146E8
:105070002E4806F019FF08A806F0C0FF0BA806F09E
:10508000BDFF05A806F0BAFF02A806F0B7FF46E08C
:105090003D490BA806F0F4FF20460BA907F03DF9A7
:1050A00005460BA806F0AAFF1DB338491F4806F0B5
:1050B00005FF31490BA806F0E3FF20460BA907F0D6
:1050C0004FF9A368421C214602A807F04DF90BA82E
:1050D00006F094FF02A807F092F9C1B22748FEF744
:1050E00070F82648FEF780F8294C2A49207005A858
:1050F000AEE729490BA806F0C3FF20460BA907F02D
:10510000DFF804460BA806F079FF24B117482946BA
:10511000FDF78CFA03E00548204906F0CFFE04486D
:105120001F4906F0D8FF0EB070BD00BFF41E00206E
:10513000281C0020C55B01088C180020C01B002023
:10514000CA5B0108025C01080E5701083D5C0108BA
:10515000081C0020465C0108625C01087E5C0108B6
:10516000865C0108E61E0020A25C0108B11B00203D
:10517000AC5C0108BD5C0108DE5C0108B31B0020CB
:10518000B01B00209A590108D15C0108E05C0108BD
:10519000B21B0020A9590108F25C0108FC5C01085F
:1051A000D84801082DE9F04F87B0624806F042FD6B
:1051B00000280ADD5F4806F0E9FCC1B25E4806F04F
:1051C000ECFF022007F078F9EFE75B4CA368002BB7
:1051D00000F0AC80204607F006F92146554806F05D
:1051E00063FE564903A806F04BFF204603A907F0CB
:1051F00067F8054603A806F001FF002D00F0948033
:1052000020464F4C4F4906F066FF23684E49013354
:105210004848236006F052FE4C49684606F030FFCD
:10522000694603A806F04DFF216803A807F028F897
:105230000146404806F038FE03A806F0DFFE684647
:1052400006F0DCFE3F493B4806F038FEFFF786FAE1
:10525000032005F071FB3E4A002313703D4A3E4F88
:1052600013703E4A3B6013703D4A1D4613703D4A21
:105270001E4613703C4AA34613703C4A13703C4AC6
:1052800013703C4A13703C4A13703C4A13703C4BF9
:105290000024EC503B4BDFF814A1EC503A4BDFF804
:1052A0001091EC50394BDFF80C81EC50384BF0B2D8
:1052B000EC50384B0121EC50374B45F80A40F45480
:1052C000364B45F80940F454354B45F80840F45442
:1052D000344B0435F454013602F0E8FA0C2ED6D1E2
:1052E000DBF8003013F0010313D02F48FEF7B4F9B8
:1052F000386014234AF804303C2349F804304FF650
:10530000FF7348F804300434302CF2D1FFF714FA5C
:105310000AE03B6000224AF8032049F8032048F8DD
:1053200003200433302BF5D105F0B4FE07B0BDE8FF
:10533000F08F00BFF41E0020281C0020255D01080E
:10534000041C0020D8480108275D01086A5D010897
:10535000261C0020E51B00208C180020361C002095
:10536000FF1B0020FD190020FE1B0020FA1B00205F
:10537000F91B0020271C0020291B002011180020E9
:10538000BC190020041A00206C1B00202C1B0020DC
:10539000D81A002070170020191B0020B517002014
:1053A000841A00200C000020C01B00204C18002094
:1053B000C8170020981A00202DE9F043804E87B0CE
:1053C00016F800900446B9F1000F40F0F480DFF8C1
:1053D0003C827C4F18F80030002B00F08C807A4D16
:1053E0007A4A2B6852F820209342C0F08480012131
:1053F00002F05CFA7649684608F8049006F040FE30
:10540000694603A806F05DFE214603A806F024FFC6
:10541000704906F00FFF01466F4806F045FD03A8EE
:1054200006F0ECFD684606F0E9FD6B4806F0E6FB89
:105430006A4B53F8242052B301233B5568492B682B
:10544000684D41F8243068461344674945F82430D4
:1054500006F016FE694603A806F033FE214603A8AF
:1054600006F0FAFE614906F0E5FE55F8241006F054
:1054700007FF0146584806F017FD03A806F0BEFDD9
:10548000684606F0BBFD544806F0B8FB33E0584BC5
:10549000584D53F824205849013A43F824202B78DA
:1054A000684601332B7006F0EBFD694603A806F051
:1054B00008FE297803A806F0CFFE0146464806F00C
:1054C000F3FC03A806F09AFD684606F097FD4248F3
:1054D00006F094FB2B780C2B08D13F48474906F087
:1054E000EDFC474A01231370464A13700020012344
:1054F0003855335560E0385D002855D0324B1A6876
:10550000384B53F824309A4256D3394B394D53F81F
:1055100024200127013A43F824202B7836493B44C4
:1055200068462B70375506F0ABFD694603A806F0B8
:10553000C8FD297803A806F08FFE0146264806F02C
:10554000B3FC03A806F05AFD684606F057FD224852
:1055500006F054FB2B780C2B07D11F48274906F087
:10556000ADFC274B1F70274B1F700123684618495D
:10557000335506F085FD694603A806F0A2FD2146D5
:1055800003A806F069FE204906F054FE01461248C1
:1055900006F08AFC03A806F031FD684606F02EFDF1
:1055A0000D4806F02BFB06E00C4B53F824000030AE
:1055B00018BF012000E0002007B0BDE8F08300BF65
:1055C000841A0020B5170020E81B00202C1B0020A7
:1055D000ED420108785D0108F41E0020C817002084
:1055E000D81A002070170020945D0108D7530108D5
:1055F000981A002011180020A75D0108B75D010866
:10560000261C0020271C0020DD5D0108191B00203E
:105610002DE9F0439A4E87B005F03CFD33780C2B12
:1056200000F0D8800024254605F034FD954BEFB2FC
:10563000E95C002940F0A1804FF0010805F80380E3
:10564000914B04EB0309E358002B52D08F4BE358E6
:10565000002B4ED0384602F029F98D4B8D4A05F8C3
:1056600003808D4BDFF88C821B688C49A350D9F8DE
:1056700000206846134444F8083006F001FD6946EE
:1056800003A806F01EFD394603A806F0E5FD84498F
:1056900006F0D0FD0146834806F006FC03A806F09C
:1056A000ADFC684606F0AAFC7F49684606F0E8FCB7
:1056B000694603A806F005FD394603A806F0CCFDAF
:1056C0007A4906F0B7FD54F8081006F0D9FD0146F6
:1056D000744806F0E9FB03A806F090FC684606F063
:1056E0008DFC704806F08AFA714BE358002B6AD0A3
:1056F000C2E06A49684606F0C3FC694603A806F0A2
:10570000E0FC394603A806F0A7FD6A4906F092FDC1
:105710000146644806F0C8FB03A806F06FFC684623
:1057200006F06CFC644B0127EF54337863493B442B
:105730006846337006F0A4FC694603A806F0C1FC75
:10574000317803A806F088FD0146564806F0ACFB08
:1057500003A806F053FC684606F050FC514806F0DA
:105760004DFA33780C2B2ED1554B4E4855491F70AE
:1057700006F0A4FB544B1F7025E0013F0A2F07D809
:10578000DFE807F0080A0C0E10121416181A1C0095
:10579000002014E0012012E0022010E003200EE0BF
:1057A00004200CE005200AE0062008E0072006E0BF
:1057B000082004E0092002E00A2000E00B20FFF7A7
:1057C000FBFD002858D101350C2D04F104047FF4B1
:1057D0002BAF51E0FEF7C2FF394B3C4D1A7872B146
:1057E00000241C703A4B3B481C70FEF7B5FE2D4858
:1057F000394906F063FB394B1C7001232B702B7861
:10580000002B39D0324D2B78002B35D0334C01236F
:1058100033492448237006F051FB3249214806F0F1
:105820004DFB2A4A0023317813702B701548002253
:105830001A5421481A5416481A54144850F8230090
:105840000133904218BF11460C2BEFD1317051B982
:105850002549144806F032FB2249124806F02EFB77
:10586000FEF76AFF08E021490E48227006F026FB89
:105870000C481F4906F022FB07B0BDE8F08300BFCB
:10588000111800200C0000204C180020981A00204D
:10589000191B00206C1B0020E81B0020ED420108B2
:1058A000F35D0108F41E00201F5E0108D7530108B4
:1058B000C8170020305E0108841A0020A75D010887
:1058C000261C0020565E0108271C0020FF1B00201C
:1058D000E51B0020E41B0020925E01081018002048
:1058E000C05E0108EF5E0108FC5E0108265F01084A
:1058F000615F01082C1B002070B51B4B86B01E5C3D
:105900000446002E2DD1194D2B5C53B3184B1A6849
:10591000184B53F820309A4223D3012101F0C6FFDF
:10592000154B16491A78684601321A702E5506F042
:10593000A7FB694603A806F0C4FB214603A806F0AE
:105940008BFC0F4906F076FC01460E4806F0ACFAD7
:1059500003A806F053FB684606F050FB094806F022
:105960004DF9002006B070BD841A0020191B0020DC
:10597000E81B00202C1B002011180020ED4201081C
:10598000785D0108F41E00202DE9F04F8E4C87B0A1
:10599000237827460C2B00F0F48000252C468B4BF7
:1059A0001A783AB18A4A11688A4A1268914224BF29
:1059B00000221A70884AA118A25C002A40F0B58023
:1059C00093F80080B8F1000F40F0AF80DFF858B2D4
:1059D000012655F80B300E70002B65D0E0B2414621
:1059E00001F064FFDFF8E8A17C4B7D4AE654DAF869
:1059F0000030DFF83C92AB5055F80B207949134446
:105A000045F80930684606F03BFB694603A806F0F6
:105A100058FB214603A806F033FC734906F00AFC44
:105A20000146724806F040FA03A806F0E7FA684615
:105A300006F0E4FA6E49684606F022FB694603A8C0
:105A400006F03FFB214603A806F01AFC694906F060
:105A5000F1FB55F8091006F013FC0146634806F007
:105A600023FA03A806F0CAFADFF8C091684606F0E8
:105A7000C5FA5E4806F0C2F899F800305E4A334431
:105A80001278DBB29A4289F8003073D157485B49EB
:105A900006F014FA4D4B89F800801E70584B1A78A6
:105AA000DAF800301A448AE04E49684606F0E8FA0F
:105AB000694603A806F005FB214603A806F0E0FBB3
:105AC000504906F0B7FB0146484806F0EDF903A837
:105AD00006F094FA684606F091FA4B4B4B49E654AF
