:020000040800F2
:1000000000000120B5A40008A1A70008A5A70008CA
:10001000A9A70008ADA70008B1A7000801A800081B
:1000200001A8000801A8000801A8000801A800080C
:1000300001A8000801A8000801A8000891AC000868
:1000400001A8000801A8000801A8000891A3000861
:1000500001A8000801A8000801A8000801A80008DC
:1000600001A8000801A8000801A8000801A80008CC
:1000700001A8000801A8000801A8000801A80008BC
:1000800001A8000801A8000879A8000801A8000834
:1000900001A8000801A8000801A8000801A800089C
:1000A000D9AE0008FDAE000821AF000859AF000826
:1000B000ADAF00081DB000088DB0000801A8000811
:1000C00001A8000801A8000801A8000801A800086C
:1000D00001A8000885B30008D9B300082DB40008B2
:1000E00001A80008D9A3000801A80008B5B10008BC
:1000F000D9B10008FDB1000835B20008C9A8000850
:1001000001A8000801A80008FDB0000801A8000827
:1001100081B40008D5B400086DB1000891B10008A1
:1001200001A8000801A8000801A8000801A800080B
:1001300010B5054C237833B9044B13B10448AFF321
:1001400000800123237010BD501700200000000024
:10015000EC19010808B5064B1BB106480649AFF378
:1001600000800648036813B1054B03B1984708BDEA
:1001700000000000EC19010854170020501700205F
:1001800000000000012902D11C30C0B270470629CE
:1001900084BF01F1FF31C9B211F0010F14BF1E205D
:1001A0001F207047444B2DE9F047B1FBF3F603FBEA
:1001B00016113C23B1FBF3F203FB12120546027049
:1001C0004FF46160B1FBF0F200FB1211B1FBF3F3ED
:1001D0006B704FF4FA63AA70B6B2EB80EC884FF400
:1001E000C873B4FBF3F803FB18481FFA88F8B8F19A
:1001F000000F16D06423B4FBF3F203FB12439BB24F
:10020000002B53D014F0030140F26D130CBF4FF4D8
:10021000B7721A4696420EDB002908BF4FF4B77337
:1002200004E0B6F5B77F06DB4FF4B773F61A013476
:10023000B6B2EC80D2E700236B716423B4FBF3F712
:1002400003FB1747BFB2B8F1000F06D03FB114F05F
:10025000030F14BF0020012002E0012000E0384617
:1002600095F80590C0B24946FFF78CFF864209F128
:10027000010A15D3B8F1000F06D03FB114F0030FF7
:1002800014BF0020012002E0012000E03846C0B287
:100290004946FFF777FF301A86B285F805A0D2E706
:1002A00001362E7185F805A0BDE8F087B6F5B67F5A
:1002B000C1DD40F26D13B9E780510100F8B5427815
:1002C00087783C2303FB072702780579467903FBEF
:1002D0000727013D013EEDB2F6B2044605714671B5
:1002E000013E731CE38834D04FF4C872B3FBF2F1C3
:1002F00002FB113292B262B16422B3FBF2F002FB54
:10030000103080B230B113F0030F14BF0020012071
:1003100000E00120C0B2F1B2FFF734FF284485B2FB
:10032000DEE74FF4C872B3FBF2F102FB113292B276
:10033000AAB16422B3FBF2F102FB113292B28AB18C
:1003400013F0030F40F26D1208BF4FF4B77215445B
:10035000ADB2013B9BB2B3F5FA6FE2D205E04FF4C8
:10036000B772F4E740F26D12F1E7024800FB057046
:10037000F8BD00BF8051010008F0F2BD38B50D4650
:10038000044608F008FE290A49006039204601F0B9
:10039000FE0108F097FE204608F06DFEE9B2204607
:1003A00008F090FE204608F066FE204608F0F3FDB7
:1003B0002046A12108F086FE204608F05CFE0021C0
:1003C000204608F0A6FE0546204608F037FE2046E7
:1003D00008F0FCFD284638BD70B50D4616460446AB
:1003E00008F0D9FD290A49006039204601F0FE01D4
:1003F00008F068FE204608F03EFEE9B2204608F00C
:1004000061FE204608F037FE3146204608F05AFECD
:10041000204608F030FE204608F0D8FDBDE87040C8
:100420000A200BF059BD0000064A5178937843EA40
:100430000123A3F52043152B9ABF034AD05C0E205D
:10044000704700BF10180020B93E010810B5074CD6
:100450006018114607F0D0FA054B1B881C4414F8AD
:10046000073C1B1A5842584110BD00BF101800200D
:100470003E190020084B18795B7943EA002045F2C9
:100480005553984205D04CF20303C31A58425841C1
:1004900070470120704700BF10180020044B9B7963
:1004A000552B044B0CBF012200221A70704700BF6D
:1004B00010180020281A002010B5084CE379552B9D
:1004C00001D1012010BD064802F057FCE3798342B8
:1004D000F7D0D0F1010038BF002010BD1018002067
:1004E000BE1B002013B50D4B1C7A552C01D10120E9
:1004F00012E00B48694602F09BFB00231A461DF8E8
:1005000003108C42F3D019B90132D2B2052AEED0D1
:100510000133052BF3D1002002B010BD10180020CC
:10052000BE1B002070B505461E46FFF78FFF044630
:1005300040B91C4AD3781A441379D62B02D01A48F2
:100540001A492BE02846FFF795FF044678B1284664
:10055000FFF7A4FF2846FFF7AFFF044670B96EB15E
:10056000134911480BF0BAF90F48124916E0124925
:100570000D480BF0B3F90C4810490FE02846FFF77F
:10058000B1FF044660B99DF810300BB9012407E0B3
:100590000B4905480BF0A2F903480A490BF09EF9F4
:1005A000204670BD10180020FC1E0020DC31010820
:1005B000003201083732010880310108AE310108EC
:1005C0006E320108A6320108F8B50F460AF072FA39
:1005D00004F040F8032009F0BBFE304A00231370FA
:1005E0002F4A012113702F4A1D4613702E4A1E46B2
:1005F00013702E4A13702E4A13602E4A13702E4A1F
:1006000013702E4A13702E4A13702E4A13702E4AFE
:1006100013702E4A13602E4A11702E4A13602E4A10
:1006200013702E4A13702E4A13702E4A13702E4ADE
:1006300013602E4A13702E4A13602E4B0024EC5088
:100640002D4BF0B2EC502D4B0121EC502C4BEC50CB
:100650002C4BEC502C4BEC502C4BEC502C4BEC50CE
:100660002C4BEC502C4BEC502C4BF4542C4BF454A6
:100670002C4BF4542C4BF45407F090F801362B4BD0
:100680000C2EEC5005F10405D7D137B128480721CD
:100690000322BDE8F84008F04DBFF8BD2E1C002035
:1006A000ED1B00203E1C0020071C0020681B0020C2
:1006B000701A0020061C0020021C0020011C0020D3
:1006C0002F1C00206D1700208F1700200C1C00200D
:1006D000861700208017002085170020B01B0020FF
:1006E0009419002051190020B41B0020241B002065
:1006F0006C1B0020541900202C1A00209017002099
:10070000701B0020D0170020A8190020E41A002038
:10071000E8190020281B0020A41A00206E170020D2
:1007200095190020401900200E000020741A0020A6
:10073000F31E00201F4B13B51B78002B37D000236E
:100740000093042117220123FFF7ECFE30B31A496E
:100750001A480BF0C3F819480AF060FF184B1C7ACE
:10076000012C18D11748D97C02F070FB48B116480B
:100770000F21224608F0DEFE1448214601F0D2FE89
:100780000CE011481021022208F0D4FE10490B4859
:100790000BF0A4F802E00C4808F046FD0D4B0848A9
:1007A0001A88002102B0BDE810400DF077B802B001
:1007B00010BD00BF0D000020DA320108FC1E002031
:1007C00010180020BB1B0020F31E0020B91B0020C6
:1007D000FA3201083E1900201A4B07B51B786BB39B
:1007E0000023009304210A220123FFF79BFEE0B1BE
:1007F000154916480BF072F814480AF00FFF144818
:10080000144902F0C7F938B1134910480BF066F8E3
:1008100012480321022206E011490C480BF05EF851
:100820000E480421012208F085FE0E4B0E481A885E
:10083000002103B05DF804EB0DF030B803B05DF8B3
:1008400004FB00BF0D0000203E330108FC1E002009
:10085000BE1B00201818002056330108F31E00208C
:10086000983301083E1900201018002013B500230A
:10087000009304210F22FFF755FE40B31F49204883
:10088000204C0BF02BF81E480AF0C8FE1E4804F15D
:100890000A0101F0F4FF68B31B4804F10A0102F0F9
:1008A0002EF838B3194916480BF018F81648E179B4
:1008B00002F02AFAA0B1164911480BF00FF81548BA
:1008C0000521012208F036FE0F4802F0F9F8124B1C
:1008D0000C481A88002102B0BDE810400CF0DEBFC1
:1008E00007480E490AF0FAFF0A480621012208F0DB
:1008F00021FEECE702480A49F4E700BFDA330108B9
:10090000FC1E002010180020BE1B002080340108AF
:10091000F5330108F31E00203E1900203B34010886
:10092000AD340108134B13B51B780BB3124B0024E5
:10093000DA78042100940123FFF7F4FD78B10F4920
:100940000F480AF0CBFF0E480AF068FE0D490C482C
:100950000AF0C4FF0C482146022209F00BF90B4BA8
:1009600005481A88002102B0BDE810400CF096BF7F
:1009700002B010BD0D00002010180020E83401085E
:10098000FC1E002004350108F31E00203E19002043
:10099000134B13B51B780446FBB1002300930421CD
:1009A00005220123FFF7BEFD70B10E490E480AF083
:1009B00095FF0E490C480AF091FF0B480AF02EFEF5
:1009C00020460121FFF700FE094B0A481A88002142
:1009D00002B0BDE810400CF061BF02B010BD00BF16
:1009E0000D0000203D350108FC1E00205635010891
:1009F0003E19002010180020F0B5284B89B01B7854
:100A0000002B49D0264D0024EA78042100940123CC
:100A1000FFF788FD2F46002835D0224922480AF0EA
:100A20005DFF21480AF0FAFD03AD0AF043F81F49C3
:100A30001D480AF053FF2846214614220CF02EFFD1
:100A4000FE78053E142E01D8234605E016481849C5
:100A50000AF044FF022207E0B34204D2FA18527AA5
:100A6000EA540133F8E70322124B13481A7029465F
:100A7000324605F055FC01221048002108F0DCFD4B
:100A80000F4B01221A700F4B05481A88002109B03C
:100A9000BDE8F0400CF002BF09B0F0BD0D00002031
:100AA0001018002066350108FC1E00209035010852
:100AB000E6350108F41E00203F1C0020F31E002034
:100AC000011C00203E19002030B5154B85B01B7865
:100AD0001BB3144D0024EA78009404210123FFF78E
:100AE00021FDD0B1104911480AF0F8FE0F480AF074
:100AF00095FD0E480E490AF0F1FE2346EA18527A97
:100B000002A95A540133072BF8D10A4803F0CAFB53
:100B100009481721022208F00DFD05B030BD00BFC5
:100B20000D0000201018002037360108FC1E0020A0
:100B30004E360108EC1B0020F31E0020F0B53A4BA6
:100B400089B01B78002B6CD0384C0026E2780096D8
:100B500004210123FFF7E6FC00284DD03449354835
:100B60000AF0BCFE33480AF059FD334894F82210CD
:100B700094F8232002F0B4FB20B92E482F490AF044
:100B8000ADFE012600252E492A4804AF0AF0A6FE34
:100B90002223384629461022029503958DF8083005
:100BA0000CF07CFE33238DF810302B46E218127ABD
:100BB00002A95A540133082BF8D10023E218127C01
:100BC000FA540133102BF9D11B4802F0E7FAE0B1D7
:100BD0001948394602F040FBB8B11A4915480AF0E5
:100BE0007DFE154802F0A9FA174808F07BF917486E
:100BF0003146012208F0B2FD154B0C481A8800213D
:100C000009B0BDE8F0400CF049BE124909480AF0AD
:100C100065FE094802F0AEFA0B4808F063F90226B7
:100C2000E5E709B0F0BD00BF0D000020101800205E
:100C30007F360108FC1E0020C81B0020A9360108D1
:100C4000E43601081C370108EC1E0020F31E0020CA
:100C50003E1900205937010870B54A4B88B01B78FF
:100C60000646002B00F08C80474C0025E27800956A
:100C700004210123FFF756FC002874D0434944485F
:100C80000AF02CFE42480AF0C9FC424B01223046D1
:100C900029461A70FFF798FC3F4B404894F84610DD
:100CA00094F847201D7002F017FC10B138483C49F9
:100CB00001E037483B490AF011FE384802F048FC91
:100CC000394D3A49286002A80AF0EAFE02A905A8AF
:100CD0000AF007FF296805A80AF0E2FF01462C4840
:100CE0000AF0F2FD05A80AF099FE02A80AF096FEA5
:100CF00009F0E0FE0022244B1046114604EBD0051B
:100D000095F848500D41ED0715D55D7A1E7A05EB33
:100D10000626274D565193F8295093F8286005EB85
:100D20000626244D565193F84B5093F84A6005EB34
:100D30000626214D56510131C9B2082900F10100A2
:100D400008BF00210C2803F1020302F10402D5D1EF
:100D50000F480AF063FC194803210B4A08F04CFDC8
:100D600003F066FC03E00A4815490AF0B7FD154B8D
:100D700005481A88002108B0BDE870400CF08EBD0F
:100D800008B070BD0D000020101800209637010833
:100D9000FC1E002050190020691B0020C81B0020E9
:100DA000C337010807380108701A0020CC50010829
:100DB0002C1A002090170020A8190020F31E0020F4
:100DC0004E3801083E1900202DE9F041604B88B0F3
:100DD0001B780746002B00F0B7805E4E0024F278A7
:100DE000009404210123FFF79DFB002800F09F8061
:100DF00059495A480AF072FD58480AF00FFC584BFE
:100E00000125384621461D70FFF7DEFB554B327A2F
:100E10001D70737A544F03EB0223544902A83B60C0
:100E20000AF03EFE02A905A80AF05BFE396805A893
:100E30000AF036FF4E490AF00DFF014647480AF016
:100E400043FD05A80AF0EAFD02A80AF0E7FD494DB6
:100E5000B37A494902A82B700AF022FE02A905A81C
:100E60000AF03FFE297805A80AF006FF40490AF07B
:100E7000F1FE014639480AF027FD05A80AF0CEFD2B
:100E800002A80AF0CBFD3D4DF37A3D4902A82B7034
:100E90000AF006FE02A905A80AF023FE297805A893
:100EA0000AF0EAFE01462D480AF00EFD05A80AF0F8
:100EB000B5FD02A80AF0B2FD2546B84606EBD403FC
:100EC0001B7B2B41DB0721D5D8F800302D4F2E4955
:100ED00047F8243002A80AF0E3FD02A905A80AF0A9
:100EE00000FE214605A80AF0DBFE28490AF0B2FE02
:100EF00057F824100AF0D4FE014618480AF0E4FC22
:100F000005A80AF08BFD02A80AF088FD0135EDB2B4
:100F1000082D04F1010408BF00250C2CCED11C487B
:100F200003210C4A08F0C8FC03F082FB03E00B48E5
:100F300018490AF0D3FC184B06481A88002108B05B
:100F4000BDE8F0410CF0AABC08B0BDE8F08100BFDC
:100F50000D000020101800206C380108FC1E002035
:100F600050190020691B00208017002092380108CA
:100F7000D85A010885170020A8380108B01B0020A6
:100F8000BF38010854190020D3380108E838010897
:100F9000F31E0020EC3801083E190020F0B5484B44
:100FA00089B01B780546002B00F08780454E002451
:100FB000F278009404210123FFF7B4FA00286FD0DF
:100FC000414942480AF08AFC40480AF027FB404B5E
:100FD0000122284621461A70FFF7F6FA3D4B0222FD
:100FE0001A702546072C8CBFB37D737D2B4103F00F
:100FF000010343B36308043316F8132006EB4303DD
:101000005B78354F03EB022347F82430334902A8BD
:101010000AF046FD02A905A80AF063FD214605A8CD
:101020000AF03EFE2E490AF015FE57F824100AF089
:1010300037FE014625480AF047FC05A80AF0EEFCF9
:1010400002A80AF0EBFC0135EDB2082D04F1010411
:1010500008BF00250C2CC5D1337D224C02A82249A3
:1010600023700AF01DFD02A905A80AF03AFD2178B7
:1010700005A80AF001FE1D490AF0ECFD01461348DF
:101080000AF022FC05A80AF0C9FC02A80AF0C6FC76
:10109000174803210B4A08F083FC03F0C9FA03E068
:1010A0000A4814490AF01AFC134B06481A88002112
:1010B00009B0BDE8F0400CF0F1BB09B0F0BD00BFD5
:1010C0000D000020101800200A390108FC1E002025
:1010D00050190020691B0020741A002033390108C0
:1010E000E83801086C1A002052390108D85A010862
:1010F000F31E0020733901083E190020144B13B56C
:101100001B7813B3134B0024DA78042100940123D5
:10111000FFF708FA60B1104910480AF0DFFB0F48EA
:101120000AF07CFA0E482146032208F0B5FD03E0E0
:101130000A480C490AF0D2FB0B4B06481A880021DA
:1011400002B0BDE810400CF0A9BB02B010BD00BF5A
:101150000D0000201018002091390108FC1E00200D
:10116000F31E0020AD3901083E19002070B53D4B3B
:1011700088B01B78002B73D03B4C00230093E2789F
:1011800004210123FFF7CEF900285CD03749384805
:101190000AF0A4FB36480AF041FA637A257A354909
:1011A00002A803EB05250AF07BFC02A905A80AF0BA
:1011B00098FC294605A80AF073FD01462C480AF060
:1011C00083FB05A80AF02AFC02A80AF027FC2A489B
:1011D000217A627A02F036F9054620B92749244877
:1011E0000AF07CFB00E00125E37AA67A244902A8F4
:1011F00003EB06260AF054FC02A905A80AF071FCCC
:10120000314605A80AF04CFD014619480AF05CFB7E
:1012100005A80AF003FC02A80AF000FC1648A17A0F
:10122000E27A02F0C5F820B9164911480AF056FBD7
:1012300003E015B11448152101E0134816210222DC
:1012400008F078F903E00A4810490AF047FB104B10
:1012500005481A88002108B0BDE870400CF01EBB9C
:1012600008B070BD0D00002010180020CB39010817
:10127000FC1E0020F1390108C81B0020013A0108BA
:101280003E3A01084E3A0108F31E00208B3A01084D
:101290003E190020174B13B51B784BB3164C002397
:1012A0000093E27804210123FFF73CF998B1134938
:1012B00013480AF013FB12480AF0B0F91148217ADA
:1012C00001F0C4FD20B11048012101F02BF906E026
:1012D0000B480E4901E00A480D490AF0FFFA0D4B90
:1012E00005481A88002102B0BDE810400CF0D6BABB
:1012F00002B010BD0D00002010180020A93A01080E
:10130000FC1E0020BB1B0020B91B0020CB3A0108AB
:10131000FB3A01083E1900202DE9F047AE4BA0B082
:101320001B78002B00F05481AC4C4FF00008E278A1
:101330000421CDF800800123FFF7F4F8002800F025
:101340003A81A749A7480AF0C9FAA6480AF066F9FF
:10135000217A1022090905A80AF0EFFB05A90BA8BC
:101360000AF0BFFB217A102201F00F0108A80AF051
:10137000E4FB08A90BA80AF060FC617A054610227C
:1013800009090EA80AF0D9FB28460EA90AF055FC57
:10139000617A0546102201F00F0111A80AF0CDFB79
:1013A000284611A90AF049FCA17A14AF054610227B
:1013B000090938460AF0C1FB284639460AF03DFCC7
:1013C000A17A17AE0546102201F00F0130460AF04F
:1013D000B4FB284631460AF030FCE17A1AAD81466A
:1013E0001022090928460AF0A8FB484629460AF0B7
:1013F00024FCE17A1022814601F00F011DA80AF0B9
:101400009CFB1DA948460AF018FC014602A80AF0F8
:1014100068FB1DA80AF002FB28460AF0FFFA3046D6
:101420000AF0FCFA38460AF0F9FA11A80AF0F6FABE
:101430000EA80AF0F3FA08A80AF0F0FA0BA80AF0CE
:10144000EDFA05A80AF0EAFA67491DA80AF028FB98
:1014500002A91DA80AF0F1FB014662480AF034FA1D
:101460001DA80AF0DBFA5F486049CDF85080CDF83E
:1014700054800AF018FA4446049B9C4212D221463A
:1014800002A80AF06CFC3038C1B208290DD83955D1
:101490000A2254480AF0AFFA524855490AF003FAB2
:1014A0000134E9E74FF0000901E04FF0010951492B
:1014B0004C480AF013FA00244A484C490AF0F3F960
:1014C00017941894454B1A19117B9A4664290ED823
:1014D0000A22444831550AF08EFA01344148444901
:1014E0000AF0E1F9082CEDD14FF0000801E04FF0CF
:1014F000010841493B480AF0F1F9002439483B49C9
:101500000AF0D1F91A941B949AF814303548A34084
:101510001B0644BF01232B55295D0A2201340AF022
:101520006AFA082CF0D12F4834490AF0D7F9B9F1FA
:10153000000F08D032492B480AF0D0F93148032176
:10154000264A002331E0B8F1000F08D02E49254883
:101550000AF0C4F92B480321204A012325E039462B
:101560002A4802F003F82946284802F037F82748AD
:1015700002F06CF80224012322468DF87430032512
:10158000042331461DA88DF87730CDF878808DF88A
:1015900075408DF8765006F0A5FA1D4911480AF0FD
:1015A0009DF918480D4A2946234608F031FC02A847
:1015B0000AF034FA03E00B4816490AF08FF9164B8B
:1015C00006481A88002120B0BDE8F0470CF066B943
:1015D00020B0BDE8F08700BF0D00002010180020EB
:1015E000193B0108FC1E0020433B0108C8580108B4
:1015F000DC3E01085A3B0108673B0108783B0108C3
:10160000893B0108F31E0020C03B0108BC1B0020E1
:10161000FB3B01084A3C01083E190020F0B5534B42
:101620008BB01B78002B00F09F80514D0026EA788C
:10163000042100960123FEF775FF002800F0878043
:101640004C494D480AF04AF94B4809F0E7FF4B4B2B
:1016500002221A704A4C2B7A4A48237002F018F87A
:101660002546074640B9484943480AF037F94748F4
:10167000032122783B4667E03346454A00249C54C8
:101680000133082B1746F8D10323012202218DF8DC
:101690000A3002A804238DF808208DF80B308DF84D
:1016A0000910039407F098FA3A49064604A80AF08C
:1016B000F7F904A907A80AF014FA314607A80AF0B6
:1016C000DBFA01462C480AF0FFF807A80AF0A6F951
:1016D00004A80AF0A3F9E6B22A78C6F10703DBB240
:1016E00042FA03F3DB071AD501233B552A4904A824
:1016F0000AF0D6F904A907A80AF0F3F9314607A8B9
:101700000AF0BAFA25490AF0A5FA01461A480AF081
:10171000DBF807A80AF082F904A80AF07FF901347F
:10172000082CD8D11E4914480AF0D8F803212A7889
:101730000123164808F0F4FB4FF4FA600AF0CCFBE2
:1017400012482A780321022308F0EAFB03E00A4842
:1017500014490AF0C3F8144B05481A8800210BB04D
:10176000BDE8F0400CF09AB80BB0F0BD0D000020C1
:1017700010180020683C0108FC1E0020691B002096
:1017800084170020BC1B0020953C0108F31E00209C
:1017900087170020EF3C0108FE3C0108023D0108CC
:1017A000183D01085C3D01083E1900202DE9F0417B
:1017B000714B8CB01B78002B00F0DA806F4D002449
:1017C000EA78042100940123FEF7ACFEA846002825
:1017D00000F0C1806A496B480AF080F8694809F056
:1017E0001DFF05F108060294039404940594254610
:1017F00016F8013B671CFF2B06A863490BD10AF0C2
:101800004FF906A909A80AF06CF9214609A80AF0BF
:1018100047FA5E494EE0642B25D80AF041F906A943
:1018200009A80AF05EF9214609A80AF039FA5849D0
:101830000AF010FA16F8011C0AF01EFA0146514887
:101840000AF042F809A80AF0E9F806A80AF0E6F852
:101850000CAB16F8012C2B44013503F8287C03F857
:10186000202CEDB232E0F02B0BD10AF019F906A9C9
:1018700009A80AF036F9214609A80AF011FA4549E3
:1018800018E0F12B0BD10AF00BF906A909A80AF010
:1018900028F9214609A80AF003FA3F490AE00AF0AC
:1018A000FFF806A909A80AF01CF9214609A80AF0C0
:1018B000F7F93A490AF0CEF9014632480AF004F83D
:1018C00009A80AF0ABF806A80AF0A8F8082F01D07A
:1018D0003C468DE706A832490AF0E2F806A909A8B5
:1018E0000AF0FFF8294609A80AF0C6F9014625487A
:1018F00009F0EAFF09A80AF091F806A80AF08EF8A4
:1019000002A8294604AA06F0A3F80222294602A842
:1019100007F062F998F8104006A822490AF0C0F8CA
:1019200006A909A80AF0DDF8214609A80AF0A4F9D9
:101930001D490AF08FF90146124809F0C5FF09A8B0
:101940000AF06CF806A80AF069F818480321012289
:1019500008F058FB03E00B48154909F0BFFF154B91
:1019600006481A8800210CB0BDE8F0410BF096BF84
:101970000CB0BDE8F08100BF0D0000201018002061
:101980007A3D0108FC1E0020FE3C0108A63D01082E
:10199000BC3D0108D53D0108E53D0108F53D0108C4
:1019A000263E0108303E0108D85A0108F31E0020E7
:1019B000523E01083E19002010B50446FEF734FDE2
:1019C000112865D8DFE800F0282D32090E13181D04
:1019D000373C41464B5022555A5F2046BDE81040E7
:1019E000FEF7A8BE2046BDE81040FEF7F5BE204633
:1019F000BDE81040FEF73ABF2046BDE81040FEF7B4
:101A000091BF2046BDE81040FEF7C2BF21482249E1
:101A1000BDE8104009F062BF2046BDE81040FEF767
:101A2000EBBF2046BDE81040FFF74EB82046BDE8AA
:101A30001040FFF783B82046BDE81040FFF70CB90F
:101A40002046BDE81040FFF7BFB92046BDE8104072
:101A5000FFF7A4BA2046BDE81040FFF74FBB204671
:101A6000BDE81040FFF782BB2046BDE81040FFF7FD
:101A700011BC2046BDE81040FFF74EBC2046BDE833
:101A80001040FFF7CBBD2046BDE81040FFF78EBEEB
:101A900010BD00BFFC1E0020703E01082DE9F74F6D
:101AA000444D002682462E8009F004F8424B01275F
:101AB0001968344601919B46404809F0CBFD002847
:101AC00006DD0199DBF8002001F6B8339A4222D3F3
:101AD00008F0F0FF062C69D139483A4909F0FEFEBA
:101AE00036B9394B1B788BB15046FFF765FF0DE0D7
:101AF00028880023801BDAB2F4188242E4B203F192
:101B00000103EEDA31490C5D8C54F4E703B0BDE813
:101B1000F04F08F0CFBFB5F80090284809F1010256
:101B20002A8009F043FDDFF8A4802B8808F809001B
:101B3000434413F8011C1022214809F05CFF24499A
:101B40001F4809F0B0FE1D4809F084FD002802DCA2
:101B500004200AF0C1F92B88B3F5967F02D3154B08
:101B600000221A8047B12B8808EB030212F8012CDF
:101B7000FE2AA1D15E1EF6B22B88434413F8013C25
:101B80000D2B02D1E3070BD404E00A2B0AD114F089
:101B9000010309D00134E4B2062C99D000278BE769
:101BA0000124FBE70024F9E71C46F7E703B0BDE892
:101BB000F08F00BF3E1900204C200020141F002091
:101BC000FC1E00208E3E01080C0000201018002092
:101BD000DC3E010808B50348FFF760FFBDE8084098
:101BE00008F068BF3C19002008B51D2000210AF04C
:101BF00089F91D2001210AF043F9102000210AF083
:101C000081F9112000210AF07DF91C2000210AF041
:101C100079F9112000210AF033F91C2001210AF082
:101C20002FF9BDE80840102000210AF029B9000072
:101C3000014809F06DBD00BF141F002008B561B157
:101C400000211C200AF01CF996200AF045F9BDE895
:101C500008401C2001210AF013B908BD08B5002175
:101C60001D200AF00DF90C4809F055FD0220002155
:101C70000AF048F9032000210AF044F9022000216B
:101C80000AF0FEF8032000210AF0FAF8BDE8084047
:101C90001C2000210AF0F4B8141F002010B50B78A6
:101CA000452B12D14B78522B0FD18B78CC78303B0F
:101CB00003EB8303303C04EB4304E4B221460A22E5
:101CC000034809F0A1FE204610BD0A2010BD00BF48
:101CD000FC1E00200B784F2B07D148784B2804D1ED
:101CE00013704B780120537070470020704700003C
:101CF0002DE9F04190B00E4601A865491C4690467A
:101D000009F0CEFE624904A809F0CAFE604907A89E
:101D100009F0C6FE2046002104220BF0BFFDE0239F
:101D2000A370E37035460027AB1B43453AD22978B0
:101D30000A220DA809F0F0FE0DA901A809F038FF4C
:101D40000DA809F06BFE15F8013B2C2B28D0303B79
:101D5000DBB2092B98BF05F8013C15F8011C57B9F7
:101D60002D2902D14B484C4909E00DA80A2209F05F
:101D7000D3FE04A80DE02D2906D14648474909F0B5
:101D8000ADFDF023E370CFE70DA80A2209F0C4FEF1
:101D900007A80DA909F00CFF0DA809F03FFEC3E745
:101DA0000127C1E73E490AA809F07AFE0AA90DA851
:101DB00009F097FE01A90DA809F03FFF014635483B
:101DC00009F082FD0DA809F029FE0AA809F026FEF7
:101DD00034490DA809F064FE0DA92E4809F056FDFE
:101DE0000DA809F01BFEA3782A48F02B01D12E493B
:101DF00003E0E02B0CBF26492C4909F054FD04A94F
:101E00000DA809F06EFE2A490DA809F023FF01462E
:101E1000204809F059FD0DA809F000FE25490DA83C
:101E200009F03EFE0DA91B4809F030FD0DA809F090
:101E3000F5FDE3781748F02B01D11B4903E0E02BB7
:101E40000CBF1349194909F02EFD07A90DA809F087
:101E500048FE0DA8164909F0FDFE01460D4809F09F
:101E600033FD0DA809F0DAFD04A809F0D8FF2070B1
:101E700007A809F0D4FF607007A809F0CFFD04A8F7
:101E800009F0CCFD01A809F0C9FD10B0BDE8F08152
:101E9000A8420108FC1E0020DE3E0108EB3E0108BE
:101EA000F93E0108043F01089E4D01080F3F01085B
:101EB0001C3F0108233F0108F8B54C78432C08D19A
:101EC0008C78532C05D1CC78B4F151056C426C411F
:101ED00000E000240026F5B24F5D01363A2FFAD11A
:101EE0000135EDB200279542FEB207F1010706D891
:101EF00011F805C0013501F806C0EDB2F3E73CB9B1
:101F00002046C2B2B2420BD20A5C1A540130F8E742
:101F1000069A022412681470721ED2B2FFF7E8FE0D
:101F20000120F8BD37B5154809B9154900E0154934
:101F300009F0B9FC642009F0CFFF00240F4809F034
:101F400089FB0028E5B208DD062C14D00B4809F007
:101F50002DFB0DF804000134F0E755B19DF8023077
:101F60004F2B08D19DF80300B0F14B035842584164
:101F700002E0284600E0002003B030BD141F00201E
:101F80002F3F0108333F010810B5012104461D20F1
:101F900009F076FF07484FF4165109F0B9FB2046C7
:101FA0000121FFF74BFE20460121BDE81040FFF75D
:101FB000B9BF00BF141F00202DE9F0419EB005AD50
:101FC0000C460746002190462846642203930BF0F6
:101FD00065FC21462C4809F066FC642009F07CFF72
:101FE0000024294809F036FB0028E6B207DD642CFE
:101FF00045D0254809F0DAFA28550134F1E726B929
:102000002249234809F06AFC39E09DF814300D2B71
:1020100035D19DF815300A2B31D11EAB334413F85E
:10202000653C0A2B2BD1023E1EAB334413F8643CB3
:102030000D2B24D10021CCB2A31CDBB2B34201F1A1
:10204000010107DA1EAA134413F8643C144404F88F
:10205000643CF0E738462946FFF720FE0A280CD1F9
:1020600003AB00933846294622464346FFF724FF38
:1020700000280CBF0320022002E0012000E0032022
:102080001EB0BDE8F08100BF141F0020393F0108D9
:10209000FC1E00202DE9F041B2B006460D469046E8
:1020A0000021642268461F460BF0F8FB19A80021A6
:1020B00064220BF0F3FB0024E3B2E85C013420B1AE
:1020C00032AA134403F8640CF6E70146CAB25D185D
:1020D00018F80240EDB232AA01312A4414B102F8D4
:1020E000644CF3E70D2302F8643C6B1C32A8DBB2AE
:1020F00003442F480A2203F8642C036819A95B687B
:1021000098472C48AA1C036819A99B68D2B2984723
:10211000642009F0E1FE274809F09CFA0028E5B2A6
:1021200008DD642C3FD0234809F040FA0DF8040084
:102130000134F0E7002D36D09DF800300D2B32D160
:102140009DF801300A2B2ED132AB2B4413F8C93C39
:102150000A2B28D1023D32AB2B4413F8C83C0D2B7F
:1021600021D100218B1CDBB2AB4201F1010209DA63
:1021700032A8034413F8C83CC9B2014401F8C83C72
:102180001146EFE730466946FFF788FD0A2808D177
:10219000304669463A46FFF79DFD80F00100C0B227
:1021A00002E0012000E0032032B0BDE8F08100BF72
:1021B000FC1E0020141F0020F7B51E4604461746DB
:1021C0000D4600218DF80710FFF7ACFE08F072FCF9
:1021D000204631462FB12A460DF10703FFF7ECFEEA
:1021E00003E0089A2B46FFF755FF03282AD8DFE8BB
:1021F00000F011040207002311E01648164901E01F
:102200001448164909F06AFB20460121FFF78AFEAF
:1022100000201CE012490F4809F060FB12E09DF815
:1022200007205E1CDBB29A420A4809D9E95C1022F9
:1022300009F0E1FB07480B4909F035FB3346EEE7AF
:1022400009F036FB20460121FFF76CFE012003B0A8
:10225000F0BD00BFFC1E00204D3F01085E3F01089D
:10226000673F0108DC3E01082DE9F0438BB004AF65
:10227000804600210922384602AE00240BF00EFBF6
:102280000094404631460122454BFFF795FF054635
:1022900020B94449444809F021FB7DE02346F25C23
:1022A00007AC092A01D8303204E0A2F10A0105295D
:1022B00098BF3732E2540133082BF0D14FF00009B8
:1022C0003A488DF8249000F0B1FE024600284AD02A
:1022D0003749354809F002FB3448394600F014FE0E
:1022E00000283BD04B46E15CFA5C914248D1013377
:1022F000082BF8D12F492C4809F0F0FA2E492A482A
:1023000009F0D1FA9DF81610274809F0C7FA9DF890
:102310001710254809F0C2FA9DF81410224809F058
:10232000BDFA9DF81510204809F0B8FA9DF8121072
:102330001D4809F0B3FA9DF813101B4809F0AEFAD6
:102340009DF81010184809F0A9FA9DF811101648C8
:1023500009F0A4FA144809F0ABFA1DE01749124835
:1023600009F0BCFA07E0009440463146144BFFF7F1
:1023700023FF054680B121460C4800F015FE0AE017
:102380001049094809F0AAFA009740463146002250
:102390000B4BFFF711FF054628460BB0BDE8F08355
:1023A0007D3F0108883F0108FC1E0020BB1B002068
:1023B000A83F0108304001085A400108C63F010803
:1023C000EA3F0108F33F01082DE9F04F89B002AF61
:1023D00007F10C068346894690461C46304600218C
:1023E0000A220BF05BFA002C50D1C7F804D05846F3
:1023F000CDF80080314601224B46FFF7DDFE8246D4
:1024000008B1214606E04049404809F067FA3F48D4
:102410003F496FE0CCB218F804300131002BF9D1FC
:10242000E11D01F4FC71ADEB010D02A9D8B2A0428F
:1024300003D2F05CC8540133F8E70B46581AC0B217
:10244000A0420DD213F8010B092801D8303004E066
:10245000A0F10A05052DF1D8373003F8010CEDE79E
:102460000025EBB2A34243D24B5D013508EB0500DA
:1024700010F8010C9842F4D02649244809F02EFAAD
:102480002248254909F02AFA7B689D466C460023BC
:10249000DAB219F8021001330A29F9D1931D03F4B5
:1024A000FC73ADEB030DA2F1020E02AB0020C1B232
:1024B000551EA94200F1010003DA19F801505D54DC
:1024C000F5E700223D215A55584603F80E10CDF885
:1024D00000803146FFF770FE054628B90B480F49CA
:1024E00009F0FCF9AA4601E04FF0010AA54605E013
:1024F00006480B4909F0F2F97B689D4650461C37A7
:10250000BD46BDE8F08F00BF68400108FC1E0020FA
:102510008E400108B2400108094101084B41010801
:10252000804101082DE9F0418AB006AF0F22044630
:102530000D46384600210BF0B1F99B489B4909F044
:10254000CDF90A2608F0B6FA002D40F0DF802046CB
:10255000FFF78AFE96498DF81800964A2B462046CA
:10256000FFF732FF2B468DF8190093492046934A16
:10257000FFF72AFFDFF8D0828DF81A0098F80030B4
:10258000012B04D18E49884809F0A8F92BE0022BD1
:102590000FD18C49844809F0A1F98B498B4A204618
:1025A0002B46FFF711FF8A498DF81B00894A204608
:1025B00024E08949684609F073FA694603A809F0DE
:1025C00090FA98F8001003A809F056FB834909F027
:1025D00041FB0146744809F077F903A809F01EFA97
:1025E000684609F01BFA78497D4A20462B46FFF7DA
:1025F000EBFE77497B4A8DF81B0020462B46FFF700
:10260000E3FEDFF848828DF81C0098F80030222B9A
:1026100004D17549644809F061F923E00C2B07D116
:102620007249614809F05AF920467149714A1CE023
:102630007149684609F034FA694603A809F051FA6D
:1026400098F8001003A809F017FB644909F002FB91
:102650000146554809F038F903A809F0DFF9684642
:1026600009F0DCF96249654A20460023FFF7ACFE19
:102670008DF81D00624800F029FCF12861492046D0
:1026800008D1614A0023FFF79FFE60498DF81E00C4
:10269000454807E0494A0023FFF796FE5C498DF85C
:1026A0001E00414809F01AF95A495B4A00232046A6
:1026B000FFF78AFE59498DF81F00574A002320462C
:1026C000FFF782FE56498DF820004F4A002320462E
:1026D000FFF77AFE53498DF82100534A0023204624
:1026E000FFF772FE51498DF82200514A002320461F
:1026F000FFF76AFE314A8DF823004E492046002339
:10270000FFF762FE0D228DF824000EE03C4800F039
:10271000DDFBF1280CBF3C4A284A204639490023FA
:10272000FFF752FE01228DF818000023F95CA9B9C9
:1027300041491D4809F0D2F82046FFF725FC204604
:10274000FFF78CFA08F0B6F92046FFF71DFC4FF4AE
:10275000FA6009F0C1FB08F0ADF904E00133D9B229
:102760009142E3D31DE0354808F074FF002803DDF3
:10277000324808F01BFFF6E7013E16F0FF067FF433
:10278000E1AE2F49084809F0A9F82E49064809F09A
:10279000A5F840F6B83009F09FFB08F08BF908F077
:1027A000BDF90AB0BDE8F081FC1E0020A841010877
:1027B000D7410108E3410108EC410108E941010862
:1027C000F6410108344201080A4201084842010862
:1027D0001F420108514201085A420108754201088E
:1027E000164201082B4201088C420108A942010847
:1027F0009E420108B8420108BB4201089B42010801
:10280000BB1B0020D442010807420108DE42010838
:10281000EB420108F84201080243010805430108A0
:102820000F43010819430108224301082543010809
:102830002F430108324301083C430108141F0020C4
:102840005943010885430108B81B0020BA1B00202A
:102850001520012109F014BB1520002109F010BB3F
:1028600010B500210446152009F04CFB152001216C
:1028700009F006FB2046BDE81040FDF77DBD7FB5A1
:1028800005460E46FFF7E8FF0D243319214628467A
:1028900013F80D2C0134FDF79FFD162CF5D13046B1
:1028A000092105F0A9F80646214628463246FDF7DB
:1028B00093FD0D2421462846FDF760FD01AB23441E
:1028C0000134162C03F80D0CF4D101A8092105F0F0
:1028D00093F8B04203D0FFF7BBFF00200DE028467D
:1028E0000B21FDF74BFD552804D028460B2155221E
:1028F000FDF772FDFFF7ACFF012004B070BD7FB59E
:1029000005460E46FFF7A8FF17243319214628462F
:1029100013F8172C0134FDF75FFD202CF5D130465C
:10292000092105F069F80646214628463246FDF79A
:1029300053FD172421462846FDF720FD01AB234413
:102940000134202C03F8170CF4D101A8092105F05B
:1029500053F8B04203D0FFF77BFF00200DE028467C
:102960000C21FDF70BFD552804D028460C215522DB
:10297000FDF732FDFFF76CFF012004B070BDF0B52C
:1029800085B001AD06460F462846002109220AF00F
:1029900085FF0D2421463046FDF7F0FC2B1901344C
:1029A000162C03F80D0CF5D121463046FDF7E6FC58
:1029B00009210446284605F01FF8844206D1002369
:1029C000EA5CFA540133092BFAD101E0002000E05F
:1029D000012005B0F0BDF0B585B001AD06460F464B
:1029E0002846002109220AF059FF172421463046C3
:1029F000FDF7C4FC2B190134202C03F8170CF5D17A
:102A000021463046FDF7BAFC09210446284604F069
:102A1000F3FF844206D10023EA5CFA540133092B08
:102A2000FAD101E0002000E0012005B0F0BD37B58B
:102A30000C461E210546FDF7A1FC1F218DF8040060
:102A40002846FDF79BFC02218DF8050001A804F043
:102A5000D3FF207003B030BD10B50B210446FDF745
:102A60008DFC88B1FFF7F8FE204600220B21FDF710
:102A7000B3FCFFF7EDFE20460B21FDF77FFCD0F104
:102A8000010038BF002010BD012010BD10B50C2181
:102A90000446FDF773FC88B1FFF7DEFE20460022F6
:102AA0000C21FDF799FCFFF7D3FE20460C21FDF722
:102AB00065FCD0F1010038BF002010BD012010BD21
:102AC00010B521210446FDF759FC552811D0FFF718
:102AD000C3FE204655222121FDF77EFCFFF7B8FEFC
:102AE00020462121FDF74AFCB0F1550358425841D8
:102AF00010BD012010BD08B52121FDF73FFCB0F14C
:102B000055035842584108BD70B504460D46FFF7BD
:102B100036FF20B120462946FFF75DFF48BB20461F
:102B20002946FFF72CFF48B11549164808F0D6FE94
:102B300020462946BDE87040FFF7E1BE2046294601
:102B4000FFF749FF06460F4846B10F4908F0C6FE99
:102B500020462946BDE87040FFF791BE0B4908F0BA
:102B6000BDFE2046FFF778FF2046FFF78FFF304677
:102B700070BD0749034808F0B1FE012070BD00BFD9
:102B8000AE430108FC1E0020E54301081C44010877
:102B900030440108F8B504460E462F257319204627
:102BA000294613F82F7CFDF7E9FB874203D1013555
:102BB000342DF3D136E0FFF74FFE2F257319294648
:102BC000204613F82F2C0135FDF706FC342DF5D1E6
:102BD0000521304604F010FF0746294620463A46B4
:102BE000FDF7FAFB2F2520462946FDF7C7FB731991
:102BF00013F82F3C834217D10135342DF3D12046F1
:102C00002946FDF7BBFBB8420ED120463521FDF722
:102C1000B5FB552804D0204635215522FDF7DCFBB5
:102C2000FFF716FE0120F8BDFFF712FE0020F8BDE9
:102C3000F7B505460E462F2421462846FDF79EFB94
:102C400000AB23440134342C03F82F0CF4D10521BC
:102C5000684604F0D1FE214607462846FDF78EFB64
:102C6000874207D100231DF80320F2540133052BBE
:102C7000F9D101E0002000E0012003B0F0BD73B500
:102C800005462F2421462846FDF778FB00AB234458
:102C90000134342C03F82F0CF4D16846052104F0DC
:102CA000ABFE214606462846FDF768FB331A58421C
:102CB000584102B070BD38B50546FFF7CDFD2F2451
:102CC00028462146FDF75AFB68B1284621460022D6
:102CD000FDF782FB28462146FDF750FB18B1FFF7B0
:102CE000B7FD002038BD0134342CE9D12846352108
:102CF000FDF744FB20B1284635210022FDF76CFB8F
:102D0000FFF7A6FD012038BD37B50D468DF8071039
:102D100036210446FDF732FB85422BD002ADFFF78A
:102D20009BFD15F8012D20463621FDF755FB0121AD
:102D3000284604F061FE372102462046FDF74CFB91
:102D400020463621FDF71AFB9DF8073083420DD14E
:102D500020463821FDF712FB552804D020463821A3
:102D60005522FDF739FBFFF773FD03E0FFF770FD18
:102D7000002000E0012003B030BD3621FDF7FEBA8F
:102D800037B536210546FDF7F9FA02AB03F8010D18
:102D90001846012104F030FE372104462846FDF78D
:102DA000EDFA231A5842584103B030BD10B5362110
:102DB0000446FDF7E3FA88B1FFF74EFD20463621C1
:102DC0000022FDF709FB20463621FDF7D7FA18B19E
:102DD000FFF73EFD002010BDFFF73AFD012010BDBA
:102DE00010B548210446FDF7C9FA552811D0FFF760
:102DF00033FD204655224821FDF7EEFAFFF728FD66
:102E000020464821FDF7BAFAB0F15503584258411F
:102E100010BD012010BD10B54D210446FDF7AEFADE
:102E2000552810D0FFF718FD204655224D21FDF7FB
:102E3000D3FAFFF70DFD20460021FDF79FFA003081
:102E400018BF012010BD012010BD000037B58DF85E
:102E500007101031C9B20129044629D84C21FDF7C9
:102E60008DFA9DF80730834228D002ADFFF7F4FCBD
:102E700015F8012D20464C21FDF7AEFA0121284618
:102E800004F0BAFD4E2102462046FDF7A5FA204681
:102E90004C21FDF773FA9DF80730834205D1204697
:102EA000FFF7B9FFFFF7D4FC08E0FFF7D1FC03E020
:102EB0000448054908F012FD002000E0012003B09D
:102EC00030BD00BFFC1E00206044010837B54C2116
:102ED0000446FDF753FA02AB03F8010D1846012131
:102EE00004F08AFD4E2105462046FDF747FA85424B
:102EF00002D19DF8070004E02046F021FFF7A6FF6D
:102F0000F02003B030BD0000F7B505460E464F2453
:102F100021462846FDF732FA00AB23440134572CF2
:102F200003F84F0CF4D10821684604F065FD2146F2
:102F300007462846FDF722FA87420CD100231DF8E8
:102F40000320F2540133082BF9D10448044908F056
:102F5000C5FC012000E0002003B0F0BDFC1E0020F5
:102F60009644010810B558210446FDF707FA552884
:102F700008D0FFF771FC204658215522FDF72CFAA6
:102F8000FFF766FC10BD10B558210446FDF7F6F9B1
:102F900040B1FFF761FC204658210022FDF71CFAE2
:102FA000FFF756FC10BD0000F7B50F460546FFF7CA
:102FB00053FC3846082104F01FFD4F2406463B19F8
:102FC0002146284613F84F2C0134FDF705FA572CFB
:102FD000F5D1214628463246FDF7FEF94F24214619
:102FE0002846FDF7CBF900AB23440134572C03F8F6
:102FF0004F0CF4D16846082104F0FEFC864206D04E
:103000002846FFF7C0FFFFF723FC002007E0054933
:10301000054808F063FC2846FFF7A4FF012003B031
:10302000F0BD00BFAB440108FC1E002008B55821CC
:10303000FDF7A4F9B0F155035842584108BD10B549
:103040007F210446FDF79AF955280AD0FFF704FCC2
:1030500020467F215522FDF7BFF9FFF7F9FB00203D
:1030600010BD012010BD38B50C467E210546FDF788
:1030700085F9A04208D0FFF7EFFB28467E212246C3
:10308000FDF7AAF9FFF7E4FB012038BD7E21FDF72B
:1030900075B910B581210446FDF770F955280AD09D
:1030A000FFF7DAFB204681215522FDF795F9FFF75E
:1030B000CFFB002010BD012010BD38B50C4680218B
:1030C0000546FDF75BF9A04208D0FFF7C5FB28468F
:1030D00080212246FDF780F9FFF7BAFB012038BDB9
:1030E0008021FDF74BB970B504460E461546FFF733
:1030F000B3FB204632462221FDF76EF920462321FC
:103100002A46FDF769F9FFF7A3FB70BDFDF736B955
:10311000FDF734B970B504460E461546FFF79CFB23
:10312000204632462421FDF757F9204625212A461C
:10313000FDF752F9FFF78CFB70BD10B50446FFF7A1
:103140008BFB204655225921FDF746F9FFF780FBFE
:1031500020465921FDF712F9B0F155035842584164
:1031600010BD08B55921FDF709F9B0F155035842D2
:10317000584108BD10B50446FFF76EFB20460022FB
:103180005921FDF729F9FFF763FB20465921FDF787
:10319000F5F8D0F1010038BF002010BD73B5002351
:1031A00005460E4600930193FFF756FB5A24331948
:1031B0002146284613F85A2C0134FDF70DF9622CEC
:1031C000F5D13046082104F017FC06462146284672
:1031D0003246FDF701F95A2421462846FDF7CEF87C
:1031E00000AB23440134622C03F85A0CF4D10821BB
:1031F000684604F001FC0446FFF72AFBB442064887
:1032000004D1064908F06AFB012003E0044908F0F4
:1032100065FB002002B070BDFC1E0020C044010808
:10322000EE44010838B509490546094808F056FB3F
:103230005A2421462846FDF7A1F8064B1A190134F5
:10324000622C02F85A0CF4D1184638BD1F4501080B
:10325000FC1E0020BF1B002073B5002305460E4650
:1032600000930193FFF7F8FA6324331921462846A7
:1032700013F8632C0134FDF7AFF86B2CF5D1304611
:10328000082104F0B9FB0646732128463246FDF7B3
:10329000A3F8632421462846FDF770F800AB2344C9
:1032A00001346B2C03F8630CF4D10821684604F058
:1032B000A3FB0446FFF7CCFAB442064804D1064902
:1032C00008F00CFB012003E0044908F007FB002094
:1032D00002B070BDFC1E002057450108854501085D
:1032E00070B50E46742104461546FDF747F8B04206
:1032F00005D120467521FDF741F8A84219D0FFF706
:10330000ABFA204674213246FDF766F82046752157
:103310002A46FDF761F8FFF79BFA20467421FDF776
:103320002DF8B0420BD120467521FDF727F8A842B1
:1033300005D10649064808F0D1FA012070BD0549BB
:10334000034808F0CBFA002070BD00BFFD4501081E
:10335000FC1E00201F46010810B50446FFF77CFA4A
:10336000204674210022FDF737F8204675210022FF
:10337000FDF732F8FFF76CFA20467421FCF7FEFFE8
:1033800020B920467521FCF7F9FF28B10549064808
:1033900008F0A4FA002010BD0449034808F09EFA82
:1033A000012010BD41460108FC1E002064460108B2
:1033B00070B50E467A2104461546FCF7DFFFB04291
:1033C00005D120467B21FCF7D9FFA84219D0FFF791
:1033D00043FA20467A213246FCF7FEFF20467B2145
:1033E0002A46FCF7F9FFFFF733FA20467A21FCF76B
:1033F000C5FFB0420BD120467B21FCF7BFFFA8429E
:1034000005D10649064808F069FA012070BD054952
:10341000034808F063FA002070BD00BF314701087F
:10342000FC1E00205D47010838B57A210546FCF7EF
:10343000A5FF7B2104462846FCF7A0FF00EB0420F3
:1034400038BD000070B50E46782104461546FCF7DD
:1034500095FFB04205D120467921FCF78FFFA842A5
:1034600019D0FFF7F9F9204678213246FCF7B4FF6E
:10347000204679212A46FCF7AFFFFFF7E9F92046FD
:103480007821FCF77BFFB0420BD120467921FCF775
:1034900075FFA84205D10649064808F01FFA012029
:1034A00070BD0549034808F019FA002070BD00BF3F
:1034B000E3470108FC1E00200F48010838B57821B9
:1034C0000546FCF75BFF792104462846FCF756FFCA
:1034D00000EB042038BD000070B50E467C21044688
:1034E0001546FCF74BFFB04205D120467D21FCF785
:1034F00045FFA84219D0FFF7AFF920467C2132469C
:10350000FCF76AFF20467D212A46FCF765FFFFF79E
:103510009FF920467C21FCF731FFB0420BD12046B9
:103520007D21FCF72BFFA84205D10649064808F08B
:10353000D5F9012070BD0549034808F0CFF90020F6
:1035400070BD00BF95480108FC1E0020C548010859
:1035500038B57C210546FCF711FF7D21044628463D
:10356000FCF70CFF00EB042038BD000070B50546E9
:103570000E46FFF771F9002404F18201325D2846FE
:103580000134FCF729FF082CF6D1FFF761F900247C
:10359000284604F18201FCF7F1FE335D834205D039
:1035A0000749084808F09AF9002070BD0134082C3A
:1035B000EED10549034808F091F9012070BD00BF24
:1035C00057490108FC1E00208D490108052902D831
:1035D0008231FCF7D3BE00207047000070B505466D
:1035E0000E46FFF739F9002404F18A01325D2846BE
:1035F0000134FCF7F1FE082CF6D1FFF729F98A24F3
:1036000028462146FCF7BAFE331913F88A3C834258
:1036100005D00749074808F061F9002070BD013462
:10362000922CEDD10449034808F058F9012070BDEF
:103630002A4A0108FC1E00205B4A0108052902D81D
:103640008A31FCF79BBE00207047000010B504468D
:10365000FFF702F9204692215522FCF7BDFEFFF745
:10366000F7F820469221FCF789FE5528054804D139
:10367000054908F033F9012010BD044908F02EF97E
:10368000002010BDFC1E0020E84A0108244B010860
:1036900008B59221FCF772FEB0F15503584258412B
:1036A00008BD00002DE9F041044616460F46FFF71D
:1036B000D3F826442546B54207D03B1B29465A5D20
:1036C0000F48FCF789FE0135F5E7FFF7C1F82546FD
:1036D000B54211D03B1B2946094813F80580FCF779
:1036E0004DFE804505F10105F2D00649064808F077
:1036F000F5F80220BDE8F0810020BDE8F08100BFB0
:103700006C170020E04B0108FC1E0020F8B50546B0
:103710000E4617180446BC4207D021460448FCF761
:103720002DFE731B18550134F5E70020F8BD00BFCE
:103730006C1700200022026042607047006820B1D0
:1037400003688B4201D08068F9E7704770B5044682
:103750000C2016460D4609F019FD002282602268F1
:1037600080E860000AB9206001E0626890606060F3
:1037700070BD10B51446FFF7E1FF08B144600120A9
:1037800010BD08B5FFF7DAFF00B1406808BD01F5CC
:103790001C414131FFF7DABF01F51C414131FFF710
:1037A000E8BF01F51C414131FFF7EBBF002A01F1F1
:1037B000010114BF4FF47F420022FFF7C7BF002A68
:1037C00001F51C5101F1110114BF4FF47F42002299
:1037D000FFF7BCBF01F5EA413131FFF7B7BF002A5F
:1037E00001F1010114BF4FF47F420022FFF7C1BF76
:1037F000002A01F51C5101F1110114BF4FF47F4261
:103800000022FFF7B6BF01F5EA413131FFF7B1BF42
:1038100008B50131FFF7B5FFB0F57F435842584175
:1038200008BD01F51C5108B51131FFF7AAFFB0F52D
:103830007F435842584108BD01F5EA413131FFF755
:10384000A0BF000070B504460D4609480949164658
:1038500008F044F8A06809F0A1FC0220207309F0E8
:1038600095FC803D0323A06005704670637370BDB6
:10387000FC1E0020E84C0108F8B5531E7C2B0446C2
:103880000F46164602D903210A4617E001F51C41EE
:103890004131FFF753FF18B92046032102220DE002
:1038A000A06809F07BFC701C4000C0B2207309F0D6
:1038B0006DFCA06030B9204603210422BDE8F84029
:1038C000FFF7C0BF03230370237B0025023B437037
:1038D000E9192046FFF765FFA3680135020A03F8DE
:1038E0001520A368B54203EB45035870F0D10323BC
:1038F0006373F8BD70B504460E461546FFF74CFFDE
:1039000018B920460621022208E020463146FFF77A
:1039100048FFA84206D0204606210422BDE8704098
:10392000FFF790BF0223637370BD2DE9F8431F4674
:1039300016467A1E7A2A044688469DF8203002D818
:10394000B3EB470F03D02046102103221CE006F5FD
:103950001C45413505EB070920462946FFF7EEFED9
:1039600018B92046102102220EE001354D45F3D151
:10397000A06809F013FC0520207309F007FCA06083
:1039800030B9204610210422BDE8F843FFF75ABFA2
:1039900010230370330A4370002307718670C370CD
:1039A00008F106053744BE4205F102050BD015F8B3
:1039B000022C15F8013C3146204643EA0222FFF76B
:1039C000EBFE0136EFE703236373BDE8F8832DE9CF
:1039D000F843531EB3F5FA6F04460F46154602D35B
:1039E0000121032219E00131FFF7A8FE18B9204692
:1039F0000121022211E0A06809F0D0FBC5F3C70342
:103A00006A070CBF023303332373207B09F0BEFB2C
:103A1000A06030B9204601210422BDE8F843FFF739
:103A200011BF01230370237B05EB0708023B4370A2
:103A30003E46002546451CD031462046FFF7E8FEAD
:103A4000C7F10109B1444FEAD909012109F1020383
:103A5000A268A94010B1D05C014302E0D05C20EA2A
:103A600001010135EDB2082DD15408BF0025013602
:103A7000E0E703236373BDE8F88300002DE9F84312
:103A8000531EB3F5FA6F04460F46154602D30221C2
:103A900003221FE001F51C511131FFF74FFE18B949
:103AA00020460121022215E02249234807F016FF93
:103AB000A06809F073FBC5F3C7036A070CBF0233A4
:103AC00003332373207B09F061FBA06030B92046EB
:103AD00002210422BDE8F843FFF7B4BE02230370BD
:103AE000237B05EB0708023B43703E460025464515
:103AF0001CD031462046FFF794FEC7F10109B144BE
:103B00004FEAD909012109F10203A268A94010B1C5
:103B1000D05C014302E0D05C20EA01010135EDB246
:103B2000082DD15408BF00250136E0E70323637355
:103B3000BDE8F8830B4D0108FC1E0020F8B5531EAC
:103B40007C2B04460F46164602D90421032217E0B7
:103B500001F5EA413131FFF7F1FD18B920460121A5
:103B600002220DE0A06809F019FB701C4000C0B2F1
:103B7000207309F00BFBA06030B9042120460A46EF
:103B8000BDE8F840FFF75EBE04230370237B0025E9
:103B9000023B4370E9192046FFF74EFEA36801354A
:103BA000020A03F81520A368B54203EB45035870D9
:103BB000F0D103236373F8BD70B5B2F57F4F86B0C3
:103BC00004460E4603D012B10521032215E0151C50
:103BD00018BF0125204631462A46FFF700FE18B9D6
:103BE00020460521022208E020463146FFF710FE5C
:103BF000A84205D0204605210422FFF723FE17E046
:103C00000C49684607F04CFF694603A807F069FFB6
:103C1000094903A808F01EF80146084807F054FEB9
:103C200003A807F0FBFE684607F0F8FE0223637363
:103C300006B070BD354D01084D4D0108FC1E002039
:103C40002DE9F0438BB00446894604A86C49DF088F
:103C50001D46164607F024FF04A907A807F041FFF8
:103C6000394607A808F01CF80146664807F02CFE04
:103C700007A807F0D3FE04A807F0D0FE6B0705F1F4
:103C8000FF3318BF0137B3F5F66F03D29DF8483004
:103C9000BB4207D05C495B4807F020FE20460F215D
:103CA00003224DE0771C07EB050820463946FFF755
:103CB00045FD18B920460F21022241E00137474552
:103CC000F3D15048514907F009FE0627504901A891
:103CD00007F0E6FE01A904A807F003FF394604A88F
:103CE00007F0DEFF4B4907F0B5FF102219F8071067
:103CF000804607A807F010FF07A9404607F09DFF80
:103D00000146404807F0E0FD07A807F087FE04A839
:103D100007F084FE013701A807F080FE102FD5D1EF
:103D20003A49384807F0DAFDA06809F037FA05206B
:103D3000207309F02BFAA06028B920460F21042235
:103D4000FFF780FD58E00F230370330A43702B0AFE
:103D50008670C37005712D492A4807F0BFFD0627FC
:103D60002B4901A807F09CFE01A904A807F0B9FEA1
:103D7000394604A807F094FF264907F06BFF10228C
:103D800019F80710804607A807F0C6FE07A94046A5
:103D900007F053FF01461B4807F096FD07A807F000
:103DA0003DFE04A807F03AFE013701A807F036FEF1
:103DB000102FD5D11348154907F090FD3544B04672
:103DC0000027C6EB080309EBD3039A7941463A4131
:103DD0000137FFB2204602F00102FFF700FD08F1B3
:103DE0000108082F08BF0027A845EAD105480A495D
:103DF00007F074FD032363730BB0BDE8F08300BFCD
:103E00005F4D0108FC1E0020714D0108C8580108D3
:103E10008A4D0108E8380108914D01082DE9F0416B
:103E20008B784F788CB0CE7843EA07270B7991F8DE
:103E300000800C460546544903A843EA062607F0CD
:103E40002FFE03A909A807F04CFE1022217806A82E
:103E500007F062FE06A909A807F0EFFE01464B48ED
:103E600007F032FD06A807F0D9FD09A807F0D6FD36
:103E700003A807F0D3FD464903A807F011FE03A9E4
:103E800009A807F02EFE1022394606A807F067FEA3
:103E900006A909A807F0D1FE01463C4807F014FD29
:103EA00006A807F0BBFD09A807F0B8FD03A807F0B6
:103EB000B5FD384903A807F0F3FD03A909A807F0E9
:103EC00010FE1022314606A807F049FE06A909A8EF
:103ED00007F0B3FE01462D4807F0F6FC06A807F0F0
:103EE0009DFD09A807F09AFD03A807F097FD08F1CA
:103EF000FF330F2B3FD8DFE803F01D230E292F08D7
:103F00003E3E3E3E3E3E3E3E351428463946324613
:103F1000FFF7F0FC34E0284639463246FFF7ACFCA8
:103F20002EE063792846009321463A463346FFF750
:103F3000FCFC25E0284639463246FFF748FD1FE0E5
:103F4000284639463246FFF799FD19E0284639469A
:103F50003246FFF7F3FD13E0284639463246FFF7B5
:103F60002BFE0DE063792846009321463A463346FE
:103F7000FFF766FE04E0284641460122FFF762FC97
:103F80000CB0BDE8F08100BFA04D0108FC1E002070
:103F9000AC4D0108B64D010810B50446FFF7CAFB49
:103FA000204610BD80F828100120704770B5049E8F
:103FB0000161C6610446154608461146DAB207F0AB
:103FC0006BFB4FF4FA6007F087FF002E08DBF6B2B8
:103FD0003046002107F096FF3046002107F050FFE1
:103FE000B5F5964F06DD40F2EE23236240F2D6632C
:103FF000636207E0044B93FBF5F32362034B93FBEF
:10400000F5F56562012070BDC0E1E400C00E160246
:1040100070B50446C06986B000280D4606DBC0B204
:10402000012107F02DFF012007F056FF0023227B1E
:104030005E1CDBB29A421FD9194A1068411C1160FC
:10404000E95C184A1154D15C6846102207F064FDFF
:10405000694603A807F045FD134903A807F0FAFDD8
:104060000146124807F012FC03A807F0D7FC684687
:1040700007F0D4FC3346DAE70D490C4807F02EFC74
:10408000206903689B699847606A07F033FFE0691D
:10409000002803DBC0B2002107F0F2FE06B070BDBD
:1040A000E01B0020C91B0020DC3E0108FC1E002094
:1040B000C04E0108F0B5C9430B4EC9B2705C0B4D40
:1040C000C0436C5CC0B20021AC46CFB2BB4207D04B
:1040D000555C01314540705D60401CF80540F4E7D7
:1040E00044EA0020F0BD00BFC04D0108704F010838
:1040F0002DE9F0410D78037BFF2D01EB030204460F
:104100000E4612F8028C12F8017C03D090F8282099
:10411000AA4219D1A268033B204612F8011BDBB268
:10412000FFF7C8FF47EA0827874202D00A480B4931
:104130000CE02046711CFFF771FEFF2D4FF00100CF
:1041400007D16073BDE8F0810348054907F0C6FB5D
:104150000020BDE8F08100BFFC1E0020E84E0108F1
:10416000144F0108F8B50446C0690F46002806DB65
:10417000C0B2012107F084FE012007F0ADFE194D09
:1041800019491A4807F0AAFB194E2B6894F8281011
:104190005A1CF154237B2A600022D0B298420AD2E2
:1041A000286800F1010EC5F800E017F802E00132BE
:1041B00006F800E0F1E7A2682046FFF77BFF2B68D6
:1041C000020AF2541E449A1C7070606A2A6007F05A
:1041D00091FEE069002803DBC0B2002107F050FE29
:1041E000F8BD00BFE01B0020444F0108FC1E00206A
:1041F000C91B0020D2B238B504460D460273002A0E
:104200003ED02049204807F069FB207B08F0BEFF24
:104210000023A060227B591CDBB29A4204D9E85CDF
:10422000A268D0540B46F5E71748184907F056FB2B
:104230000025237B9D4207D2A3681348595D1022B5
:1042400007F0E2FB0135F4E710490F4807F046FBA1
:104250002046A168FFF74CFF68B1637B032B04D1B4
:104260002046A168FFF77EFF05E0022B03D1204620
:10427000A168FFF7CDFEA06808F090FF002323732C
:1042800038BD00BF644F0108FC1E0020974D010897
:1042900008B5032006F05CF8014B01221A7008BD36
:1042A000ED1B002070B55E480D46097804F064FFF0
:1042B000697806465A4804F05FFF06EB8606594CBB
:1042C00006EB860600EB8600E080A978544804F0EF
:1042D00053FF6071E978524804F04EFF207129794C
:1042E0004F4804F049FF6979A0704D4804F044FF3D
:1042F000A97960704A4804F03FFF4B4920704B4851
:1043000007F0D1FAE1880A22484807F05CFB4849E7
:10431000464807F0C8FA61790A22444807F074FB5E
:104320004449424807F0BFFA21790A223F4807F082
:104330006BFB41493D4807F0B6FAA1780A223B4899
:1043400007F062FB3D49394807F0ADFA61780A226F
:10435000364807F059FB3A49344807F0A4FA0A22D4
:104360002178324807F050FB06F026FB642007F066
:10437000B3FD2046FBF7A2FF0146324805F006FFD9
:10438000642007F0A9FD06F01DFB2E4805F001FF93
:1043900001462046FBF706FFE1886423B1FBF3F1F9
:1043A000C9B21F4804F0DFFE2870E2884FF47A7328
:1043B000B2FBF3F103FB11211948C9B204F0D3FE9B
:1043C00068706179164804F0CEFEA870217914480F
:1043D00004F0C9FEA178E870114804F0C4FE6178C9
:1043E00028710F4804F0BFFE217868710C4804F072
:1043F000BAFE0024A871295D10220C4807F0FBFAD0
:1044000001340A48104907F04EFA072CF3D1074847
:1044100007F04EFABDE8704004480C4907F05EBA58
:10442000ED1E0020E41B002070500108FC1E00203F
:10443000775001087F500108855001088C50010811
:1044400096500108EE1B0020DC3E0108A050010838
:1044500070B51B4886B0FBF731FF1A4C054606F0D5
:10446000ABFA0A2007F038FD2946204605F08EFEFB
:10447000204605F08EFE144D14492A6886186846B9
:1044800007F00EFB694603A807F02BFB296803A879
:1044900007F006FC01460E4807F016FA03A807F0DD
:1044A000BDFA684607F0BAFA0A493246204605F0D6
:1044B00072FE0A2007F010FD06F084FA06B070BD07
:1044C000E41B0020EE1B0020701A0020C3500108DE
:1044D000FC1E0020914200080148112105F04DBE4C
:1044E000EE1B0020084B1A6801321A601A68B2F5F8
:1044F000615F04D300221A60044B01221A70044B3E
:104500001A6801321A607047F41B00203D1C00201D
:10451000F01B002003F0ACBA70B50F4C23680133D8
:1045200023600E4B1D7855B10D482568FEF7C6FF78
:104530000A23584385420ED30023236008E008482D
:104540002668FEF771FF0A235843864203D325608D
:10455000044B01221A7070BDF81B00205019002076
:10456000C81B0020F21E002010B5084C0849204648
:1045700007F017F920460121064A07F031F92046D5
:104580000021BDE8104007F003B900BFF41F002070
:10459000A08601001945000810B5084C08492046BE
:1045A00007F0FFF820460121064A07F019F92046D6
:1045B0000021BDE8104007F0EBB800BFF81F002055
:1045C00040420F001545000810B5084C0849204628
:1045D00007F0E7F820460121064A07F001F92046D6
:1045E0000021BDE8104007F0D3B800BFFC1F002039
:1045F00040420F00E544000810B5054C204607F086
:10460000B9F820460021BDE8104007F0C1B800BF4E
:10461000F41F002010B5054C204607F0ABF82046EB
:104620000021BDE8104007F0B3B800BFF81F00201C
:1046300010B5064C204607F09DF82046002107F0F3
:10464000A7F8034B00221A6010BD00BFFC1F00201A
:10465000F01B002008B5034807F084F8024B002245
:104660001A6008BDFC1F0020F01B0020F8B52D4883
:1046700002F0ACFE2C4C2D4D20702A4802F0F0FECA
:104680000646284802F04CFF294B2278197830441E
:104690009142286007D01A70264B012226482749EC
:1046A0001A7007F01BF9264B2A681968254C9142AD
:1046B00006D01A60204801232349237007F00EF921
:1046C0002A68224B02B101221A7023782BB9194BA8
:1046D0001B7813B91E4B1B7813B31E4B1E4A197857
:1046E000166817461D4651B13B689B1BB3F5FA6F20
:1046F00003D21A48FDF7D2F9F6E700232B701849C8
:104700000D4807F0EBF80B4A00231370104A012103
:104710001370237013480A46BDE8F84005F02ABA22
:10472000F8BD00BF3F1C0020001C0020081C00201A
:10473000041C0020051C0020FC1E0020455101081F
:10474000FC1B0020011C00205851010850190020BA
:104750002F1C0020861700204C2000203C19002030
:104760006B510108F31E002010B5064C0649204687
:1047700007F096F920460549054ABDE8104007F0C4
:1047800011BD00BF301C0020A84201081DBA00085E
:104790000800002030B54A4885B0FEF7ACF9002883
:1047A00046D1484B484918704548FEF768F828B18B
:1047B00043484549FEF7A3F8002877D14048FEF763
:1047C000F5FA20B13E48FEF776FA002873D10123AE
:1047D0008DF804303A48002301A98DF805308DF892
:1047E00006308DF807308DF80830FEF7D3F918B190
:1047F0003648374907F072F831480121FEF784FA4C
:1048000018B13248334907F069F833492F4807F0A7
:1048100065F832492D4807F061F809E0304CA3688B
:10482000EBB92F482C4907F066F92E48FDF736F909
:104830002348FEF760F9002833D106F03BF92348FE
:1048400006F008FF0028E9DD204806F0AFFEC1B2FF
:10485000234807F0B2F9022007F03EFBEFE72046BD
:1048600007F0D1FA2146194807F02EF81E4901A891
:1048700007F016F9204601A907F032FA054601A80B
:1048800007F0CCF855B11449204607F034F90F4829
:10489000164907F023F8164804F0C6FC06F00AF99A
:1048A000BFE7084B01221A7005B030BD1149074817
:1048B00007F014F882E71049044807F00FF886E77C
:1048C000BE1B00200D000020111C0020FC1E00203B
:1048D000BC510108F9510108A842010835520108EC
:1048E000301C00203C190020624C0108785201085D
:1048F000F31E0020BB520108EF52010870B506F00C
:10490000D9F8194B1B7843BB70BD184C1848267852
:10491000184D731C237006F049FEA855022007F0BD
:10492000DBFA2378132B0CD906F0C4F800261249C1
:104930001248267006F0D2FF28463146142208F0AD
:10494000ADFF23780D481D4415F8011C102207F017
:1049500052F80A480A4906F0A6FF054806F07AFE12
:104960000028D2DC70BD00BF101C0020031C0020FA
:104970002C1F00201A1C002036530108FC1E0020AA
:104980006853010830B5AC488DB004F008FAAB4864
:1049900001F018FBAA4B06201A684FF4FA6122F0C6
:1049A000E06242F080621A6006F074F8A5484FF4A5
:1049B000E13106F0ADFEA4484FF41651FDF738F989
:1049C0004FF41651A14806F0A3FE05F0E8FFA048F9
:1049D000FDF746FF984804F085FA06F06BF89A4810
:1049E000FDF702F901219848FDF79CFA994D4FF423
:1049F000FA6007F071FA0124002397482B70FDF745
:104A00004DF82C7006F056F89448F121FEF71EFA86
:104A10009248FEF714FB18B990482146FEF723FB95
:104A20008E48FEF733FB8E4C8E49207003A807F0AA
:104A300037F803A909A807F054F81022217806A82E
:104A400007F06AF806A909A807F0F7F801467D48BB
:104A500006F03AFF06A806F0E1FF09A806F0DEFF1F
:104A600003A806F0DBFF7D48FEF713FB18B97B486F
:104A70003421FEF722FB7948FEF732FB7A4C7B4962
:104A8000207003A807F00CF803A909A807F029F87B
:104A90000A22217806A807F03FF806A909A807F01E
:104AA000CCF80146674806F00FFF06A806F0B6FFEF
:104AB00009A806F0B3FF03A806F0B0FF6748FEF7A9
:104AC0008FF96B495F4806F009FF6A482221FEF71B
:104AD0001FFB062804461DD166482321FEF718FB5C
:104AE0000546B8B96449684606F0DAFF694606A883
:104AF00006F0F7FF2146102203A807F01EF803A9CD
:104B000006A807F09AF85D4907F0A4F8294604467C
:104B100009A81BE0002257480621FEF7E4FA58498D
:104B2000684606F0BDFF694606A806F0DAFF1022C7
:104B3000062103A807F001F803A906A807F07DF8ED
:104B40004E4907F087F80021044609A8102206F014
:104B5000F4FF204609A907F070F80146394806F02D
:104B6000B3FE09A806F05AFF03A806F057FF06A8EF
:104B700006F054FF684606F051FF3E482421FEF738
:104B8000C5FA0228044616D13A482521FEF7BEFA96
:104B9000054680B93B4906A806F082FF06A909A888
:104BA00006F09FFF214609A807F070F8334907F087
:104BB00051F8294614E000222E480221FEF7AAFAF5
:104BC000314906A806F06CFF06A909A806F089FF7E
:104BD000022109A807F05AF8284907F03BF80021FC
:104BE00007F054F80146174806F06EFE09A806F0D3
:104BF00015FF06A806F012FFFFF780FEFFF7CAFDBB
:104C000022482349FDF780FF002847D118490D4865
:104C100006F064FE1F490B4806F060FE1E4804F0D3
:104C20001BFC0D48FCF73AFF40F6B83004F0AEFA32
:104C300005F040FFE4E700BFEC1E00203F1C002011
:104C400004000140FC1E0020B91B00202C1F002086
:104C5000C71B00200C0000203C190020BB1B0020BB
:104C6000B81B00206A530108BA1B002079530108C1
:104C7000A8420108BD1B0020D3540108A944010823
:104C8000E9540108345501084A550108BE1B0020AB
:104C9000111C002086530108F31E002038493948B2
:104CA00006F01CFE3748384906F0FDFD0024374B5E
:104CB0001022195D334806F09EFE01343148344914
:104CC00006F0F1FD092CF2D12E4806F0F1FD05F0B9
:104CD000F1FEFFF749FCFFF78FFC2E49294806F04B
:104CE000FDFD2D49274806F0F9FDFFF755FCFFF7BC
:104CF00091FC2A49234806F0F1FD2749214806F096
:104D0000EDFDFFF761FCFFF7A5FC25491D4806F006
:104D1000E5FD21491B4806F0E1FD02222148012161
:104D200004F0B2FE2049174806F0D8FD1A4915488C
:104D300006F0D4FD1D4802F049FB1D4B18701D4BB9
:104D400018701A4802F08CFB1B4B134918601B4B60
:104D500018600C4806F0C2FD19490A4806F0BEFD6D
:104D60000D49084806F0BAFD002105221548FEF756
:104D700069FB00210A221348FEF71AFB0DB030BD73
:104D8000BA530108FC1E0020D3530108111C002057
:104D9000DC3E0108DD530108A84201081A5401084D
:104DA0003E540108F31E0020765401083F1C0020E9
:104DB000041C0020001C0020FC1B0020081C0020FC
:104DC0008B540108C81B002070B58EB0954806F0C2
:104DD00041FC00280ADD934806F0E8FBC1B2924886
:104DE00006F0EBFE022007F077F8EFE78E4CA368A1
:104DF000002B00F01481204607F005F82146894871
:104E000006F062FD89490BA806F04AFE20460BA970
:104E100006F093FF05460BA806F000FE002D31D0EA
:104E200020460021042206F0D5FF204606F0F7FFB9
:104E30007F4C02462060C2F307217E48D2B2FEF7C3
:104E40004BFB10B177487C4901E076487B4906F07E
:104E500045FD7848FEF77CFB7949206008A806F0FC
:104E60001FFE08A90BA806F03CFE21680BA806F05F
:104E700017FF01466B4806F027FD0BA806F0CEFD94
:104E800008A87EE06F490BA806F00AFE20460BA991
:104E900006F026FF05460BA806F0C0FD55B16A4A8C
:104EA0006048137883F0010313700BB16749B0E0D9
:104EB0006749AEE067490BA806F0F2FD20460BA952
:104EC00006F00EFF06460BA806F0A8FD5EB162498B
:104ED000544806F003FD009560490122604B61488B
:104EE000FDF76AF997E060490BA806F0D9FD204666
:104EF0000BA906F022FF05460BA806F08FFD002D3A
:104F000042D05A49474806F0E9FC59490BA806F037
:104F1000C7FD20460BA906F033FFA368421C2146BB
:104F200002A806F031FF0BA806F078FD02A806F0F3
:104F300076FFC1B24F48FEF796F84E48FEF7A6F846
:104F40004D4C4E49207005A806F0AAFD05A90BA8F6
:104F500006F0C7FD1022217808A806F0DDFD08A99B
:104F60000BA806F06AFE01462E4806F0ADFC08A824
:104F700006F054FD0BA806F051FD05A806F04EFD05
:104F800002A806F04BFD46E03D490BA806F088FD5F
:104F900020460BA906F0D1FE05460BA806F03EFD03
:104FA0001DB338491F4806F099FC31490BA806F09B
:104FB00077FD20460BA906F0E3FEA368421C2146BC
:104FC00002A806F0E1FE0BA806F028FD02A806F0F4
:104FD00026FFC1B22748FEF770F82648FEF780F892
:104FE000294C2A49207005A8AEE729490BA806F0EC
:104FF00057FD20460BA906F073FE04460BA806F0E9
:105000000DFD24B117482946FDF78CFA03E0054849
:10501000204906F063FC04481F4906F06CFD0EB001
:1050200070BD00BFFC1E0020301C002095550108FB
:10503000701A0020C81B00209A550108D25501089B
:10504000DE5001080D560108101C002016560108FC
:10505000325601084E56010856560108EE1E002031
:1050600072560108B91B00207C5601088D560108B4
:10507000AE560108BB1B0020B81B00206A53010874
:10508000A1560108B0560108BA1B00207953010847
:10509000C2560108CC560108A84201082DE9F04F7C
:1050A00087B0624806F0D6FA00280ADD5F4806F0AD
:1050B0007DFAC1B25E4806F080FD022006F00CFFCA
:1050C000EFE75B4CA368002B00F0AC80204606F0B5
:1050D0009AFE2146554806F0F7FB564903A806F00C
:1050E000DFFC204603A906F0FBFD054603A806F0F9
:1050F00095FC002D00F0948020464F4C4F4906F05F
:10510000FAFC23684E4901334848236006F0E6FB69
:105110004C49684606F0C4FC694603A806F0E1FC69
:10512000216803A806F0BCFD0146404806F0CCFB10
:1051300003A806F073FC684606F070FC3F493B4844
:1051400006F0CCFBFFF786FA032005F001F93E4A92
:10515000002313703D4A3E4F13703E4A3B6013706C
:105160003D4A1D4613703D4A1E4613703C4AA346F5
:1051700013703C4A13703C4A13703C4A13703C4A0B
:1051800013703C4A13703C4B0024EC503B4BDFF84F
:1051900014A1EC503A4BDFF81091EC50394BDFF88A
:1051A0000C81EC50384BF0B2EC50384B0121EC50F4
:1051B000374B45F80A40F454364B45F80940F4544F
:1051C000354B45F80840F454344B0435F45401365B
:1051D00002F0E4FA0C2ED6D1DBF8003013F0010314
:1051E00013D02F48FEF7B4F9386014234AF804307E
:1051F0003C2349F804304FF6FF7348F80430043478
:10520000302CF2D1FFF714FA0AE03B6000224AF892
:10521000032049F8032048F803200433302BF5D14C
:1052200005F048FC07B0BDE8F08F00BFFC1E002071
:10523000301C0020F55601080C1C0020A842010873
:10524000F75601083A5701082E1C0020ED1B0020DC
:10525000701A00203E1C0020071C0020681B002044
:10526000061C0020021C0020011C00202F1C002016
:105270006D1700208F170020701B0020D017002012
:10528000E41A0020E8190020281B0020A41A00209E
:105290006E17002095190020401900200E000020F4
:1052A000C81B00202C1A002090170020A8190020ED
:1052B0002DE9F043804E87B016F800900446B9F10E
:1052C000000F40F0F480DFF83C827C4F18F800308B
:1052D000002B00F08C807A4D7A4A2B6852F82020FF
:1052E0009342C0F08480012102F058FA7649684662
:1052F00008F8049006F0D4FB694603A806F0F1FB19
:10530000214603A806F0B8FC704906F0A3FC01464C
:105310006F4806F0D9FA03A806F080FB684606F04D
:105320007DFB6B4806F07AF96A4B53F8242052B3A0
:1053300001233B5568492B68684D41F82430684685
:105340001344674945F8243006F0AAFB694603A8D0
:1053500006F0C7FB214603A806F08EFC614906F063
:1053600079FC55F8241006F09BFC0146584806F0DD
:10537000ABFA03A806F052FB684606F04FFB544810
:1053800006F04CF933E0584B584D53F82420584957
:10539000013A43F824202B78684601332B7006F03D
:1053A0007FFB694603A806F09CFB297803A806F05A
:1053B00063FC0146464806F087FA03A806F02EFB78
:1053C000684606F02BFB424806F028F92B780C2B98
:1053D00008D13F48474906F081FA474A0123137034
:1053E000464A1370002001233855335560E0385D7C
:1053F000002855D0324B1A68384B53F824309A4263
:1054000056D3394B394D53F824200127013A43F83C
:1054100024202B7836493B4468462B70375506F0DC
:105420003FFB694603A806F05CFB297803A806F059
:1054300023FC0146264806F047FA03A806F0EEFAD8
:10544000684606F0EBFA224806F0E8F82B780C2BB9
:1054500007D11F48274906F041FA274B1F70274BF9
:105460001F70012368461849335506F019FB694639
:1054700003A806F036FB214603A806F0FDFB2049F1
:1054800006F0E8FB0146124806F01EFA03A806F0F3
:10549000C5FA684606F0C2FA0D4806F0BFF806E005
:1054A0000C4B53F82400003018BF012000E000200E
:1054B00007B0BDE8F08300BF401900209519002017
:1054C000F01B0020E8190020FE3C010848570108A5
:1054D000FC1E002090170020281B0020A41A00208A
:1054E00064570108A74D0108A81900208F17002054
:1054F00077570108875701082E1C00202F1C002019
:10550000AD5701086E1700202DE9F0439A4E87B081
:1055100005F0D0FA33780C2B00F0D8800024254613
:1055200005F0C8FA954BEFB2E95C002940F0A18084
:105530004FF0010805F80380914B04EB0309E35891
:10554000002B52D08F4BE358002B4ED0384602F040
:1055500025F98D4B8D4A05F803808D4BDFF88C8241
:105560001B688C49A350D9F800206846134444F8BE
:10557000083006F095FA694603A806F0B2FA3946F3
:1055800003A806F079FB844906F064FB01468348D2
:1055900006F09AF903A806F041FA684606F03EFACA
:1055A0007F49684606F07CFA694603A806F099FA36
:1055B000394603A806F060FB7A4906F04BFB54F825
:1055C000081006F06DFB0146744806F07DF903A84B
:1055D00006F024FA684606F021FA704806F01EF834
:1055E000714BE358002B6AD0C2E06A49684606F066
:1055F00057FA694603A806F074FA394603A806F07C
:105600003BFB6A4906F026FB0146644806F05CF95C
:1056100003A806F003FA684606F000FA644B012777
:10562000EF54337863493B446846337006F038FAE8
:10563000694603A806F055FA317803A806F01CFB6A
:105640000146564806F040F903A806F0E7F9684617
:1056500006F0E4F9514805F0E1FF33780C2B2ED128
:10566000554B4E4855491F7006F038F9544B1F7082
:1056700025E0013F0A2F07D8DFE807F0080A0C0EE3
:1056800010121416181A1C00002014E0012012E059
:10569000022010E003200EE004200CE005200AE0C8
:1056A000062008E0072006E0082004E0092002E0C8
:1056B0000A2000E00B20FFF7FBFD002858D1013540
:1056C0000C2D04F104047FF42BAF51E0FEF7C2FF70
:1056D000394B3C4D1A7872B100241C703A4B3B4850
:1056E0001C70FEF7B5FE2D48394906F0F7F8394B26
:1056F0001C7001232B702B78002B39D0324D2B7866
:10570000002B35D0334C012333492448237006F055
:10571000E5F83249214806F0E1F82A4A00233178B9
:1057200013702B70154800221A5421481A54164839
:105730001A54144850F823000133904218BF114600
:105740000C2BEFD1317051B92549144806F0C6F839
:105750002249124806F0C2F8FEF76AFF08E0214924
:105760000E48227006F0BAF80C481F4906F0B6F849
:1057700007B0BDE8F08300BF8F1700200E000020A7
:105780002C1A0020A81900206E170020E41A00200F
:10579000F01B0020FE3C0108C3570108FC1E00203E
:1057A000EF570108A74D0108901700200058010885
:1057B00040190020775701082E1C002026580108A8
:1057C0002F1C0020071C0020ED1B0020EC1B0020DC
:1057D000625801085019002090580108BF5801086C
:1057E000CC580108F658010831590108E819002081
:1057F00070B51B4B86B01E5C0446002E2DD1194D92
:105800002B5C53B3184B1A68184B53F820309A424C
:1058100023D3012101F0C2FF154B16491A786846BF
:1058200001321A702E5506F03BF9694603A806F0BE
:1058300058F9214603A806F01FFA0F4906F00AFAA4
:1058400001460E4806F040F803A806F0E7F868465F
:1058500006F0E4F8094805F0E1FE002006B070BD4E
:10586000401900206E170020F01B0020E8190020CE
:105870008F170020FE3C010848570108FC1E00203D
:105880002DE9F04F8E4C87B0237827460C2B00F083
:10589000F48000252C468B4B1A783AB18A4A11685D
:1058A0008A4A1268914224BF00221A70884AA118BD
:1058B000A25C002A40F0B58093F80080B8F1000F98
:1058C00040F0AF80DFF858B2012655F80B300E706B
:1058D000002B65D0E0B2414601F060FFDFF8E8A19F
:1058E0007C4B7D4AE654DAF80030DFF83C92AB504E
:1058F00055F80B207949134445F80930684606F0FD
:10590000CFF8694603A806F0ECF8214603A806F094
:10591000C7F9734906F09EF90146724805F0D4FFB5
:1059200003A806F07BF8684606F078F86E496846EA
:1059300006F0B6F8694603A806F0D3F8214603A896
:1059400006F0AEF9694906F085F955F8091006F038
:10595000A7F90146634805F0B7FF03A806F05EF813
:10596000DFF8C091684606F059F85E4805F056FE2B
:1059700099F800305E4A33441278DBB29A4289F8D3
:10598000003073D157485B4905F0A8FF4D4B89F8AB
:1059900000801E70584B1A78DAF800301A448AE0FA
:1059A0004E49684606F07CF8694603A806F099F867
:1059B000214603A806F074F9504906F04BF9014658
:1059C000484805F081FF03A806F028F8684606F06D
:1059D00025F84B4B4B49E6543B78684601333B7006
:1059E00006F05EF8694603A806F07BF8397803A84C
:1059F00006F042F901463B4805F066FF03A806F0B1
:105A00000DF8684606F00AF8364805F007FE3B78C0
:105A10000C2B2BD133483C4905F060FF3B4B1E70EB
:105A200024E0631E0A2B07D8DFE803F0080A0C0EF7
:105A300010121416181A1C00002014E0012012E0A5
:105A4000022010E003200EE004200CE005200AE014
:105A5000062008E0072006E0082004E0092002E014
:105A60000A2000E00B20FFF7C3FE30BB01340C2CF2
:105A700005F104057FF40FAF1FE0FEF7EBFD2449AD
:105A8000184805F02BFF1748224905F027FF224A46
:105A900000231370214A23701360174A1370144AAD
:105AA00013701F4900225A500433402BF9D1054B83
:105AB0001A701C4B1A70054B1A6007B0BDE8F08FC6
:105AC0008F17002094190020F01B0020B41B002029
:105AD0000E0000206E170020E41A0020FE3C010892
