:020000040800F2
:1000000000C00020A57A00081188000815880008A3
:10001000198800081D88000821880008958C0008B0
:10002000958C0008958C0008958C0008958C00082C
:10003000958C0008958C0008958C0008A98C000808
:10004000958C0008958C0008958C0008597700085D
:10005000958C0008958C000871880008918800082C
:10006000B1880008D1880008F1880008B18600082E
:10007000C9860008E1860008FD8600081987000887
:10008000358700085187000859850008958C0008BD
:10009000958C0008958C0008958C00081189000843
:1000A000F18E0008158F0008398F0008718F000845
:1000B000C58F000835900008A59000085D8A0008EB
:1000C000758A0008698A0008818A0008958C0008F2
:1000D000958C0008D99400082D950008819500089A
:1000E00055890008A1770008958C0008CD9100087B
:1000F000F1910008159200084D920008A9850008AA
:10010000958C0008958C000815910008958C0008C6
:10011000D59500082996000885910008A991000846
:100120006D870008858700089D870008B98700084B
:1001300010B5054C237833B9044B13B10448AFF321
:1001400000800123237010BDD8170020000000009C
:10015000FCBB000808B5064B1BB106480649AFF3C7
:1001600000800648036813B1054B03B1984708BDEA
:1001700000000000FCBB0008DC170020D81700209E
:100180000000000006F096BA38B50D46044606F0A9
:10019000ACFA290A49006039204601F0FE0106F058
:1001A0003BFB204606F011FBE9B2204606F034FB8B
:1001B000204606F00AFB204606F097FA2046A121C9
:1001C00006F02AFB204606F000FB0021204606F040
:1001D0004AFB0546204606F0DBFA204606F0A0FA68
:1001E000284638BD70B50D461646044606F07DFA21
:1001F000290A49006039204601F0FE0106F00CFB97
:10020000204606F0E2FAE9B2204606F005FB204659
:1002100006F0DBFA3146204606F0FEFA204606F0EC
:10022000D4FA204606F07CFABDE870400A2009F0B6
:1002300001BB000008B5164A5178937843EA0123C0
:10024000A3F52043142B1AD8DFE803F00B200D0F81
:100250001919191919191919191919191911131520
:100260001700002008BD022008BD072008BD03209C
:1002700008BD042008BD052008BD062008BD0021DA
:10028000802203480AF01EFA082008BD012008BD9C
:10029000F818002010B5074C6018114606F016F843
:1002A000054B1B781C4414F8073C1B1A5842584154
:1002B00010BD00BFF818002079190020084B1879EC
:1002C0005B7943EA002045F25553984205D04CF241
:1002D0000303C31A5842584170470120704700BFBA
:1002E000F8180020044B9B79552B044B0CBF0122BE
:1002F00000221A70704700BFF8180020DC19002097
:1003000010B5084CE379552B01D1012010BD0648EA
:1003100001F083FFE3798342F7D0D0F1010038BFC9
:10032000002010BDF8180020FB1A002013B50D4B5B
:100330001C7A552C01D1012012E00B48694601F0CE
:10034000C7FE00231A461DF803108C42F3D019B9DA
:100350000132D2B2052AEED00133052BF3D10020B1
:1003600002B010BDF8180020FB1A002070B5054639
:100370001E46FFF78FFF044640B91C4AD3781A4443
:100380001379D62B02D01A481A492BE02846FFF7DA
:1003900095FF044678B12846FFF7A4FF2846FFF7EB
:1003A000AFFF044670B96EB11349114807F06EFDF6
:1003B0000F48124916E012490D4807F067FD0C4836
:1003C00010490FE02846FFF7B1FF044660B99DF8D9
:1003D00010300BB9012407E00B49054807F056FD22
:1003E00003480A4907F052FD204670BDF818002066
:1003F000B81B002074D4000898D40008CFD400089B
:1004000018D4000846D4000806D500083ED50008D8
:10041000204B13B51B78002B39D000230093042107
:1004200017220123FFF7A2FF40B31B491B4807F027
:100430002DFD1A4807F0CBFB194B1C7A012C1AD161
:10044000184A1948D97C147001F050FF48B1174878
:100450000F21224606F018FC1548214601F032FB18
:100460000CE012481021022206F00EFC11490B4844
:1004700007F00CFD02E00D4806F080FA0E4B08482C
:100480001A78002102B0BDE810400AF01BB902B092
:1004900010BD00BF0E00002072D50008B81B002060
:1004A000F81800200C000020F91A0020B51B0020CD
:1004B000F81A002092D50008791900201B4B13B5BB
:1004C0001B78002B30D00023009304210A22012343
:1004D000FFF74CFFF8B11649164807F0D7FC15484E
:1004E00007F075FB144B0124144815491C7001F0EA
:1004F000A1FD38B113490F4807F0C8FC1248032189
:10050000022206E011490B4807F0C0FC0E48042106
:10051000224606F0B9FB0E4B0E481A78002102B0B5
:10052000BDE810400AF0CEB802B010BD0E000020A9
:10053000D6D50008B81B00200C000020FB1A0020B4
:1005400000190020EED50008B51B002030D60008A9
:1005500079190020F818002037B5002300930421F2
:100560000F22FFF703FF58B32349244807F08EFCFE
:10057000234D224807F02BFB224B0124224805F192
:100580000A011C7001F0CBFB68B31F4805F10A019A
:1005900001F005FC38B31D49184807F077FC1A48EC
:1005A000E97901F001FEA0B11949144807F06EFC89
:1005B00018480521224606F067FB134801F0D0FCDD
:1005C000154B0F481A78002103B0BDE830400AF0FF
:1005D00079B81249094807F059FC0E48062122460D
:1005E00006F052FBECE70E49044807F04FFC0948BF
:1005F00006210122F4E700BF72D60008B81B0020D4
:10060000F81800200C000020FB1A002018D7000862
:100610008DD60008B51B002079190020D3D600081C
:1006200045D7000870B52E4B88B01B78002B54D0EE
:100630002C4C0025E278009504210123FFF796FE5B
:10064000002841D02849294807F020FC274807F016
:10065000BEFA274B254827491D7007F017FCA67ADC
:10066000E37A03EB0626042E06D820482249052605
:1006700007F00CFCA572E672204902A807F0E9FC1D
:1006800002A905A807F029FD314605A807F00CFED0
:100690000146164807F0F0FB05A807F098FC02A8F1
:1006A00007F095FC1648A17AE27A02F003F918B92E
:1006B0000E48144907F0EAFB627B237B0092124844
:1006C0000021012206F016FE104B06481A78002180
:1006D00008B0BDE8704009F0F5BF08B070BD00BFBC
:1006E0000E000020F818002080D70008B81B00205A
:1006F0000C0000209CD70008D5D70008FBD70008C5
:10070000051B00200BD80008B51B0020791900201C
:100710002DE9F041894B90B01B78002B00F00B8144
:10072000874C0025E278009504210123FFF71EFE87
:10073000002800F0F7808349834807F0A7FB824830
:1007400007F045FA814B627A1D70814B81491A701E
:10075000A27A814B7C481A7007F098FB237BE67ADB
:100760000BAD7E4908A803EB062607F072FC08A92A
:10077000284607F0B2FC3146284607F095FD0146B1
:10078000714807F079FB284607F021FC08A807F01C
:100790001EFC7348E17A227B02F006F80646002828
:1007A0004CD17049684807F071FB6F4B012230460D
:1007B000FF211A7009F033F8FF210746304609F08F
:1007C0002EF86A49064605A807F043FC05A9284605
:1007D00007F083FC1022F9B208A807F0A1FC08A9D1
:1007E000284607F02EFD0146574807F045FB08A8AC
:1007F00007F0EDFB284607F0EAFB05A807F0E7FB4A
:100800005B4905A807F025FC05A9284607F065FC0B
:100810001022F1B208A807F083FC08A9284607F0C7
:1008200010FD0146484807F027FB08A807F0CFFB5A
:10083000284607F0CCFB05A807F0C9FB2846002195
:10084000142209F03FFFE678093E142E01D8002358
:1008500005E03D48474907F019FB022207E0B34293
:1008600004D2E218527BEA540133F8E703223E4BEC
:10087000FF2100201A7008F0D2FFFF2180460020DF
:1008800008F0CDFF3949074602A807F0E2FB02A9AC
:1008900008A807F022FC10225FFA88F105A807F0EB
:1008A0003FFC05A908A807F0CCFC0146264807F044
:1008B000E3FA05A807F08BFB08A807F088FB02A85D
:1008C00007F085FB2A4902A807F0C3FB02A908A884
:1008D00007F003FC1022F9B205A807F021FC05A9D6
:1008E00008A807F0AEFC0146174807F0C5FA05A8AE
:1008F00007F06DFB08A807F06AFB02A807F067FB8A
:100900001D482946324604F005FB637A227B00939A
:10091000A37AE17A01931948012306F053FA184BA0
:1009200001221A70174B06481A78002110B0BDE852
:10093000F04109F0C7BE10B0BDE8F0810E00002004
:10094000F81800204CD80008B81B00200C0000202C
:100950008A19002076D800088B190020CCD800080E
:10096000051B0020DCD80008B61B00201DD900089C
:1009700029D9000835D90008731B0020B51B0020B9
:10098000381B002079190020F0B54E4B89B01B7838
:10099000002B00F094804C4E00230093F278042149
:1009A0000123FFF7E3FC494C002800F0868048490A
:1009B000484807F06BFA474807F009F9464B1A78A0
:1009C0000AB15B785BB94549424807F05FFA0023FA
:1009D0000093434840490122424B00F0F1FE424B54
:1009E000727A1B78384D9A4267D1404BAA7A1B78AD
:1009F0009A4262D101233E493648237007F046FAF5
:100A00002B7BEF7A05AC3B4902A803EB072707F0E5
:100A100020FB02A9204607F060FB3946204607F07C
:100A200043FC01462B4807F027FA204607F0CFFA8F
:100A300002A807F0CCFA042F07D826482E4907F061
:100A400025FA0023EB7205232B732C48F17A327BB5
:100A500001F0E6FE20B92A491E4807F017FA20E007
:100A600028491C4807F012FA274902A807F0F1FAB2
:100A700002A9204607F031FB204801F00DFF014696
:100A8000204607F011FC0146124807F0F5F9204610
:100A900007F09DFA02A807F09AFA4FF47A7008F06E
:100AA000C9FE0023F218527BE2540133072BF9D11F
:100AB0001648214602F0B2FD01E00023237009B080
:100AC000F0BD00BF0E000020F81800200C00002030
:100AD00086D90008B81B0020B21B0020B2D900083C
:100AE000F81A0020CBD900088A1900208B190020A1
:100AF000D5D9000833DA000846DA0008051B0020C3
:100B00009ADA0008DEDA000800DB0008281B002063
:100B10002DE9F04F834B89B01B78002B00F0FE804D
:100B2000814D0024EA78009404210123FFF71EFC84
:100B3000002800F0EA807D497D4807F0A7F97C484D
:100B400007F045F87B4F7C4A01233B70137007F098
:100B5000BBFF02F04DFF032006F0DEFD774B784E21
:100B60001C70784B78491C70784B34601C70784B43
:100B70000C701C70774BA3461C70774BA2461C7000
:100B8000764B1C70764B1C70764B1C70764B1C7031
:100B9000764B1C60764B1C70764900244BF8014064
:100BA0007549764F4BF801407549DFF814824BF8D0
:100BB00001407449DFF80C924BF8014072494BF840
:100BC00007404BF8014071495FFA8AF04BF8014049
:100BD0006F494BF808400AF801406E494BF809404C
:100BE0000AF801406C490BF1040B0AF801406B490B
:100BF0000AF8014001210AF1010A05F0F3FABAF1FD
:100C00000C0FC9D166494A4807F040F94E4B4FF0E6
:100C1000010B1C70474BFF21204683F800B008F001
:100C2000FEFDFF218246204608F0F9FDC0B25A467B
:100C3000009021465B485FFA8AF306F05BFB5A4955
:100C40003B4807F023F9594895F8481095F8492092
:100C500001F06CFE10B13648554901E03448554961
:100C600007F014F9514801F09DFE5349306002A885
:100C700007F0EFF902A905A807F02FFA316805A8D7
:100C800007F012FB01462A4807F0F6F805A807F01E
:100C90009EF902A807F09BF907F016FF0022224BED
:100CA0001046114605EBD00494F84A400C41E40785
:100CB00014D59E7ADC7A04EB0624BC5093F82A60A3
:100CC00093F82B4004EB062448F8024093F84C605C
:100CD00093F84D4004EB062449F802400131C9B2B3
:100CE000082900F1010008BF00210C2803F10203CC
:100CF00002F10402D6D10E4806F069FF294801210D
:100D0000094A06F067F902F055FE2C4B06481A789E
:100D1000002109B0BDE8F04F09F0D4BC09B0BDE82E
:100D2000F08F00BF0E000020F81800200DDB000837
:100D3000B81B00200C00002075180020621B00204A
:100D4000201A0020291B0020381B0020721B0020C5
:100D5000441B0020B41A00203E1B00203A1B002038
:100D6000631B00207418002076180020401B002010
:100D70003F1B0020B81A0020B818002034180020AB
:100D8000641A00208C190020E0190020F4170020BC
:100D9000A41A0020CC1900207A1900200F0000208E
:100DA0003ADB0008B51B00208FDB0008051B002084
:100DB000DFDB000823DC00081CED000879190020A7
:100DC000241A0020781800202DE9F041754B98B0C6
:100DD0001B78002B00F0E380734D0024EA78009428
:100DE00004210123FFF7C2FA002800F0C3806F49F5
:100DF0006F4807F04BF86E4806F0E9FE6D4B012690
:100E00006D4895F8221095F823201E7001F064FCBF
:100E100020B96A49664807F039F800E02646002400
:100E2000674963480FAF07F031F82223384621465F
:100E30001022049405948DF8103009F043FC3323FC
:100E40008DF83C302346EA18927A04A95A540133AB
:100E5000082BF8D10023EA18927CFA540133102BA6
:100E6000F9D1554801F096FB002800F08C805248DB
:100E7000394601F0EDFB002800F0858051494C48CF
:100E800007F004F84C4801F054FB4F4805F0D4FB40
:100E9000EC784748203CE4B24C4906F0F7FF0A2CB6
:100EA00013D80023A34206AF05D2EA1892F82420F3
:100EB000FA540133F6E745493D4806F0E7FF444858
:100EC0003946036822469B68984707F0FDFD4FF4BA
:100ED0007A7008F0AFFC00243D4806F094FE00282C
:100EE0000DF14C080DDD3A4806F039FE08F8040013
:100EF00001340B2CF0D12E48364906F0C7FF0124EF
:100F000021E004B3344909A807F0A3F809A90CA803
:100F100007F0E3F821460CA807F0C6F9014624487B
:100F200006F0AAFF0CA807F052F809A807F04FF83E
:100F3000002718F807101E481022013707F03CF868
:100F4000A742F6D10CE01A48244906F09FFF34B1BD
:100F50001748234906F09AFF0024042600E00326E0
:100F60006A7A2B7A8DE8040102941E4831460122E8
:100F700005F0BCFF1C4B0C481A78002118B0BDE8E6
:100F8000F04109F09FBB1949094806F07FFF0A4864
:100F900001F0ECFA0C4805F04FFB022678E718B098
:100FA000BDE8F0810E000020F81800206ADC00087F
:100FB000B81B00200C000020051B002094DC00085A
:100FC000CFDC0008A2DD0008B01B0020EAE9000821
:100FD000E81B002007DD00081CDD00082FDD0008ED
:100FE00067DD0008B51B002079190020DFDD00084F
:100FF00010B50446FFF71EF9082834D8DFE800F0E2
:101000001F2429050A0F142E19002046BDE81040A0
:10101000FFF7FEB92046BDE81040FFF74FBA204663
:10102000BDE81040FFF798BA2046BDE81040FFF732
:10103000F9BA0D480D49BDE8104006F027BF20461B
:10104000BDE81040FFF764BB2046BDE81040FFF745
:101050009BBC2046BDE81040FFF7B6BE2046BDE869
:101060001040FFF755BD10BDB81B00201CDE000866
:101070002DE9F047564E00278146377007F024FDD2
:101080003C463D46534806F0BEFD002840F39C8098
:1010900007F01AFD96F800A04E480AF101033370DC
:1010A00006F05DFDDFF8488108F80A00032008F02B
:1010B000C1FB33781022434413F8011C464806F064
:1010C00072FF4548454906F0C6FE96F90030002BF0
:1010D0000FDA07F0F9FC3E4B4FF0000A40493E485A
:1010E00083F800A006F0D2FE40465146802209F067
:1010F000E9FA327808EB020313F8013CFE2B04D125
:10110000571EFFB2002C34D104E094BB0D2B01D14B
:101110002FE00124062DB5D132492F4806F0B6FE46
:101120002D4806F054FD07F0CFFC2B482E4906F061
:10113000ADFE294806F04BFD37B92C4B1B7893B117
:101140004846FFF755FF0EE031780023C91BDAB29D
:10115000F8188A42C0B203F10103EEDA18F8000071
:1011600008F80200F3E700233370BDE8F04707F00A
:10117000ABBC052DCDD8DFE805F003070A0D101331
:101180000D2B12D000247DE70A2B0BD110E00D2B84
:1011900008D110E00A2B05D110E00D2B02D110E090
:1011A0000A2BB9D0002425466CE701252C4669E7B7
:1011B0000124022566E70124032563E701240425B1
:1011C00060E7012405255DE700233370BDE8F08763
:1011D00079190020D01B0020B81B0020CDEC00089E
:1011E0003ADE00085CDE000880DE00080D0000200A
:1011F000F818002008B51D20002108F089FA1D20EC
:10120000012108F0EBFA1020002108F081FA1120EA
:10121000002108F07DFA1C20002108F079FA112045
:10122000002108F0DBFA1C20012108F0D7FABDE804
:1012300008401020002108F0D1BA0000014806F053
:101240003FBD00BFD01B002008B561B100211C20AC
:1012500008F0C4FA962008F0EDFABDE808401C201A
:10126000012108F0BBBA08BD08B500211D2008F017
:10127000B5FA0C4806F027FD0220002108F048FAD4
:101280000320002108F044FA0220002108F0A6FA09
:101290000320002108F0A2FABDE808401C2000212C
:1012A00008F09CBAD01B002010B50B78452B12D14A
:1012B0004B78522B0FD18B78CC78303B03EB8303E8
:1012C000303C04EB4304E4B221460A22034806F012
:1012D00073FE204610BD0A2010BD00BFB81B0020C1
:1012E0000B784F2B07D148784B2804D113704B78DB
:1012F000012053707047002070470000F0B593B094
:101300000F466846684916461C4606F0A2FE664926
:1013100003A806F09EFE06A8634906F09AFE002583
:10132000B5420DD2795D0A220FA806F0F9FE0FA989
:10133000684606F041FF0FA806F049FE0135EFE7C9
:101340005A490CA806F085FE0CA9684607F011F86A
:101350000022034669460FA807F00EF80FA903A85C
:1013600006F0C5FE0FA806F032FE0CA806F02FFE10
:101370004E490CA806F06DFE0CA9684606F0F9FF70
:10138000029B021D69460FA806F0F6FF0FA906A8EA
:1013900006F0ADFE0FA806F01AFE0CA806F017FE28
:1013A000059B022B05D103A807F031F83038C5B2F0
:1013B00010E0042B30D103A807F029F8642290FB39
:1013C000F2F302FB1302303B303A03EB830302EBF0
:1013D0004305EDB2364909A806F03BFE09A90FA85E
:1013E00006F07BFE102229460CA806F099FE0CA9F7
:1013F0000FA806F026FF2F4906F030FF01462E48C1
:1014000006F03AFD0CA806F0E2FD0FA806F0DFFD9D
:1014100009A806F0DCFD2570089B022B05D106A863
:1014200006F0F5FF3038C5B210E0042B30D106A825
:1014300006F0EDFF642290FBF2F302FB1302303B57
:10144000303A03EB830302EB4305EDB21B4909A8D5
:1014500006F0FFFD09A90FA806F03FFE102229465D
:101460000CA806F05DFE0CA90FA806F0EAFE1149D3
:1014700006F0F4FE0146104806F0FEFC0CA806F04B
:10148000A6FD0FA806F0A3FD09A806F0A0FD657053
:1014900006A806F09CFD03A806F099FD684606F034
:1014A00096FD13B0F0BD00BFB2E10008ABDE00084E
:1014B000B0DE0008B7DE0008B81B0020BDDE000863
:1014C000F8B54C78432C08D18C78532C05D1CC78C6
:1014D000B4F151056C426C4100E000240026F5B2E5
:1014E0004F5D01363A2FFAD10135EDB20027954212
:1014F000FEB207F1010706D811F805C0013501F861
:1015000006C0EDB2F3E73CB92046C2B2B2420BD2FC
:101510000A5C1A540130F8E7069A02241268147023
:10152000721ED2B2FFF7EAFE0120F8BD37B51548AA
:1015300009B9154900E0154906F08DFC642008F052
:1015400079F900240F4806F05EFB0028E5B208DDBB
:10155000062C14D00B4806F002FB0DF804000134F1
:10156000F0E755B19DF802304F2B08D19DF80300EC
:10157000B0F14B035842584102E0284600E00020F9
:1015800003B030BDD01B0020C5DE0008C9DE000856
:1015900010B5012104461D2008F020F907484FF43A
:1015A000165106F08DFB20460121FFF74DFE204627
:1015B0000121BDE81040FFF7B9BF00BFD01B0020DC
:1015C0002DE9F0419EB005AD0C460746002190463E
:1015D00028466422039309F075F821462C4806F04A
:1015E0003AFC642008F026F90024294806F00BFB99
:1015F0000028E6B207DD642C45D0254806F0AFFA96
:1016000028550134F1E726B92249234806F03EFC6B
:1016100039E09DF814300D2B35D19DF815300A2B8B
:1016200031D11EAB334413F8653C0A2B2BD1023E5B
:101630001EAB334413F8643C0D2B24D10021CCB2F3
:10164000A31CDBB2B34201F1010107DA1EAA134465
:1016500013F8643C144404F8643CF0E73846294627
:10166000FFF722FE0A280CD103AB00933846294627
:1016700022464346FFF724FF00280CBF0320022028
:1016800002E0012000E003201EB0BDE8F08100BFB1
:10169000D01B0020CFDE0008B81B00202DE9F04150
:1016A000B2B006460D4690460021642268461F46A9
:1016B00009F008F819A80021642209F003F80024B1
:1016C000E3B2E85C013420B132AA134403F8640C9D
:1016D000F6E70146CAB25D1818F80240EDB232AA28
:1016E00001312A4414B102F8644CF3E70D2302F8E7
:1016F000643C6B1C32A8DBB203442F480A2203F877
:10170000642C036819A95B6898472C48AA1C0368D5
:1017100019A99B68D2B29847642008F08BF8274833
:1017200006F071FA0028E5B208DD642C3FD02348AA
:1017300006F015FA0DF804000134F0E7002D36D05C
:101740009DF800300D2B32D19DF801300A2B2ED19F
:1017500032AB2B4413F8C93C0A2B28D1023D32ABE3
:101760002B4413F8C83C0D2B21D100218B1CDBB27C
:10177000AB4201F1010209DA32A8034413F8C83C74
:10178000C9B2014401F8C83C1146EFE7304669464A
:10179000FFF78AFD0A2808D1304669463A46FFF726
:1017A0009FFD80F00100C0B202E0012000E00320B4
:1017B00032B0BDE8F08100BFB81B0020D01B002074
:1017C000F7B51E46044617460D4600218DF8071052
:1017D000FFF7ACFE07F078F9204631462FB12A46D4
:1017E0000DF10703FFF7ECFE03E0089A2B46FFF725
:1017F00055FF03282AD8DFE800F011040207002370
:1018000011E01648164901E01448164906F03EFB5F
:1018100020460121FFF78AFE00201CE012490F48F4
:1018200006F034FB12E09DF807205E1CDBB29A4202
:101830000A4809D9E95C102206F0B5FB07480B49B4
:1018400006F009FB3346EEE706F00AFB20460121CD
:10185000FFF76CFE012003B0F0BD00BFB81B0020F5
:10186000E3DE0008F4DE0008FDDE0008CDEC000831
:101870002DE9F0438BB004AF8046002109223846A1
:1018800002AE002408F01EFF0094404631460122BB
:101890002C4BFFF795FF054610B92B482B494BE021
:1018A0002346F25C07AC092A01D8303204E0A2F1E9
:1018B0000A01052998BF3732E2540133082BF0D1D1
:1018C0004FF0000922488DF8249000F0FFFD0246F9
:1018D000C0B120491C4806F0D9FA1D48394600F02D
:1018E00063FD50B14B46E15CFA5C914217D1013384
:1018F000082BF8D1144818491EE01849124806F080
:10190000C5FA07E0009440463146154BFFF758FFF3
:10191000054698B121460E4800F096FD0AE01149AF
:10192000094806F0B3FA00974046314600220C4BB6
:10193000FFF746FF054601E006F0A8FA28460BB07F
:10194000BDE8F08313DF0008B81B00201EDF00088D
:10195000F91A00203EDF0008C6DF00085CDF00083F
:1019600080DF000889DF00082DE9F04F89B002AF61
:1019700007F10C068346894690461C4630460021F6
:101980000A2208F09FFE002C50D1C7F804D0584618
:10199000CDF80080314601224B46FFF711FF824609
:1019A00008B1214606E04049404806F06FFA3F483A
:1019B0003F496FE0CCB218F804300131002BF9D167
:1019C000E11D01F4FC71ADEB010D02A9D8B2A042FA
:1019D00003D2F05CC8540133F8E70B46581AC0B282
:1019E000A0420DD213F8010B092801D8303004E0D1
:1019F000A0F10A05052DF1D8373003F8010CEDE709
:101A00000025EBB2A34243D24B5D013508EB050044
:101A100010F8010C9842F4D02649244806F036FA12
:101A20002248254906F032FA7B689D466C46002321
:101A3000DAB219F8021001330A29F9D1931D03F41F
:101A4000FC73ADEB030DA2F1020E02AB0020C1B29C
:101A5000551EA94200F1010003DA19F801505D5446
:101A6000F5E700223D215A55584603F80E10CDF8EF
:101A700000803146FFF7A4FE054628B90B480F4900
:101A800006F004FAAA4601E04FF0010AA54605E077
:101A900006480B4906F0FAF97B689D4650461C370C
:101AA000BD46BDE8F08F00BFF0DF0008B81B002086
:101AB00016E000083AE0000891E00008D3E00008D2
:101AC00008E100087FB50F2204460D466846002154
:101AD00008F0F8FD6848694906F0D8F90A2606F0CA
:101AE000F3FF002D78D12046FFF7C2FE64498DF840
:101AF0000000644A2B462046FFF736FF62498DF806
:101B00000100624A2B462046FFF72EFF60498DF800
:101B10000200604A2B462046FFF726FF5E498DF8FB
:101B200003005E4A2B462046FFF71EFF5C498DF8F6
:101B300004005C4A2B462046FFF716FF8DF805008F
:101B4000594800F013FCF1285849204608D1584A5A
:101B50002B46FFF709FF57498DF80600464807E076
:101B60004A4A2B46FFF700FF53498DF806004248CA
:101B700006F08CF95149524A00232046FFF7F4FE43
:101B800050498DF807004E4A00232046FFF7ECFE2F
:101B90004D498DF80800464A00232046FFF7E4FE31
:101BA0004A498DF809004A4A00232046FFF7DCFE27
:101BB00048498DF80A00484A00232046FFF7D4FE22
:101BC000324A8DF80B00454920460023FFF7CCFE32
:101BD0000D228DF80C000EE0334800F0C7FBF12811
:101BE0000CBF334A294A204630490023FFF7BCFE88
:101BF00001228DF8000000231DF80310A9B938490F
:101C00001D4806F043F92046FFF7C2FC2046FFF7C7
:101C10002BFB06F059FF2046FFF7BAFC4FF4FA60A1
:101C200007F008FE06F050FF05E00133D9B29142FB
:101C3000E2D304B070BD2B4805F0E5FF002803DDBA
:101C4000284805F08CFFF6E7013E16F0FF067FF40A
:101C500046AF2549084806F019F92449064806F018
:101C600015F940F6B83007F0E5FD06F02DFF04B099
:101C7000BDE8704006F05CBFB81B002030E10008F2
:101C80005FE100086BE1000874E1000871E1000801
:101C90007EE100088AE1000893E100089FE1000866
:101CA000A8E10008B3E10008F91A0020B6E1000835
:101CB000C0E10008C3E10008D0E10008DDE1000850
:101CC000E7E10008EAE10008F4E10008FEE10008AD
:101CD00007E200080AE2000814E2000817E2000820
:101CE00021E20008D01B00203EE200086AE2000862
:101CF0001520012107F072BD1520002107F06EBDEF
:101D000010B500210446152007F002FD1520012121
:101D100007F064FD2046BDE81040FEF733BA7FB5FA
:101D200005460E46FFF7E8FF0D24331921462846E5
:101D300013F80D2C0134FEF755FA162CF5D1304668
:101D4000092104F0C3FA0646214628463246FEF72A
:101D500049FA0D2421462846FEF716FA01AB234422
:101D60000134162C03F80D0CF4D101A8092104F05C
:101D7000ADFAB04203D0FFF7BBFF00200DE02846CC
:101D80000B21FEF701FA552804D028460B215522D5
:101D9000FEF728FAFFF7ACFF012004B070BD7FB555
:101DA00005460E46FFF7A8FF17243319214628469B
:101DB00013F8172C0134FEF715FA202CF5D1304614
:101DC000092104F083FA0646214628463246FEF7EA
:101DD00009FA172421462846FEF7D6F901AB234419
:101DE0000134202C03F8170CF4D101A8092104F0C8
:101DF0006DFAB04203D0FFF77BFF00200DE02846CC
:101E00000C21FEF7C1F9552804D028460C21552293
:101E1000FEF7E8F9FFF76CFF012004B070BDF0B5E4
:101E200085B001AD06460F4628460021092208F07C
:101E300049FC0D2421463046FEF7A6F92B19013442
:101E4000162C03F80D0CF5D121463046FEF79CF90F
:101E500009210446284604F039FA844206D10023B9
:101E6000EA5CFA540133092BFAD101E0002000E0CA
:101E7000012005B0F0BDF0B585B001AD06460F46B6
:101E800028460021092208F01DFC1724214630466F
:101E9000FEF77AF92B190134202C03F8170CF5D131
:101EA00021463046FEF770F909210446284604F021
:101EB0000DFA844206D10023EA5CFA540133092B5F
:101EC000FAD101E0002000E0012005B0F0BD37B5F7
:101ED0000C461E210546FEF757F91F218DF8040018
:101EE0002846FEF751F902218DF8050001A804F0FB
:101EF000EDF9207003B030BD10B50B210446FEF79C
:101F000043F988B1FFF7F8FE204600220B21FEF7C7
:101F100069F9FFF7EDFE20460B21FEF735F9D0F108
:101F2000010038BF002010BD012010BD10B50C21EC
:101F30000446FEF729F988B1FFF7DEFE20460022AD
:101F40000C21FEF74FF9FFF7D3FE20460C21FEF7D8
:101F50001BF9D0F1010038BF002010BD012010BDD9
:101F600010B521210446FEF70FF9552811D0FFF7CF
:101F7000C3FE204655222121FEF734F9FFF7B8FEB3
:101F800020462121FEF700F9B0F15503584258418F
:101F900010BD012010BD08B52121FEF7F5F8B0F104
:101FA00055035842584108BD70B504460D46FFF729
:101FB00036FF20B120462946FFF75DFF48BB20468B
:101FC0002946FFF72CFF48B11549164805F05EFF7A
:101FD00020462946BDE87040FFF7E1BE204629466D
:101FE000FFF749FF06460F4846B10F4905F04EFF7F
:101FF00020462946BDE87040FFF791BE0B4905F029
:1020000045FF2046FFF778FF2046FFF78FFF304659
:1020100070BD0749034805F039FF012070BD00BFBE
:1020200093E20008B81B0020CAE2000801E30008A0
:1020300015E30008F8B504460E462F25731920460F
:10204000294613F82F7CFEF79FF8874203D101350C
:10205000342DF3D136E0FFF74FFE2F2573192946B3
:10206000204613F82F2C0135FEF7BCF8342DF5D19E
:102070000521304604F02AF90746294620463A460B
:10208000FEF7B0F82F2520462946FEF77DF8731994
:1020900013F82F3C834217D10135342DF3D120465C
:1020A0002946FEF771F8B8420ED120463521FEF7D9
:1020B0006BF8552804D0204635215522FEF792F8BA
:1020C000FFF716FE0120F8BDFFF712FE0020F8BD55
:1020D000F7B505460E462F2421462846FEF754F84C
:1020E00000AB23440134342C03F82F0CF4D1052128
:1020F000684604F0EBF8214607462846FEF744F808
:10210000874207D100231DF80320F2540133052B29
:10211000F9D101E0002000E0012003B0F0BD73B56B
:1021200005462F2421462846FEF72EF800AB23440F
:102130000134342C03F82F0CF4D16846052104F047
:10214000C5F8214606462846FEF71EF8331A5842BF
:10215000584102B070BD38B50546FFF7CDFD2F24BC
:1021600028462146FEF710F868B12846214600228D
:10217000FEF738F828462146FEF706F818B1FFF7B3
:10218000B7FD002038BD0134342CE9D12846352173
:10219000FDF7FAFF20B1284635210022FEF722F88C
:1021A000FFF7A6FD012038BD37B50D468DF80710A5
:1021B00036210446FDF7E8FF85422BD002ADFFF73C
:1021C0009BFD15F8012D20463621FEF70BF8012165
:1021D000284604F07BF8372102462046FEF702F835
:1021E00020463621FDF7D0FF9DF8073083420DD100
:1021F00020463821FDF7C8FF552804D02046382155
:102200005522FDF7EFFFFFF773FD03E0FFF770FDC9
:10221000002000E0012003B030BD3621FDF7B4BF3F
:1022200037B536210546FDF7AFFF02AB03F8010DC8
:102230001846012104F04AF8372104462846FDF7E4
:10224000A3FF231A5842584103B030BD10B53621C0
:102250000446FDF799FF88B1FFF74EFD2046362171
:102260000022FDF7BFFF20463621FDF78DFF18B194
:10227000FFF73EFD002010BDFFF73AFD012010BD25
:1022800010B548210446FDF77FFF552811D0FFF710
:1022900033FD204655224821FDF7A4FFFFF728FD16
:1022A00020464821FDF770FFB0F1550358425841D0
:1022B00010BD012010BD10B54D210446FDF764FF8F
:1022C000552810D0FFF718FD204655224D21FDF767
:1022D00089FFFFF70DFD20460021FDF755FF003077
:1022E00018BF012010BD012010BD000037B58DF8CA
:1022F00007101031C9B20129044629D84C21FDF735
:1023000043FF9DF80730834228D002ADFFF7F4FC6D
:1023100015F8012D20464C21FDF764FF01212846C8
:1023200003F0D4FF4E2102462046FDF75BFF204616
:102330004C21FDF729FF9DF80730834205D1204647
:10234000FFF7B9FFFFF7D4FC08E0FFF7D1FC03E08B
:102350000448054905F09AFD002000E0012003B083
:1023600030BD00BFB81B002045E3000837B54C2145
:102370000446FDF709FF02AB03F8010D18460121E1
:1023800003F0A4FF4E2105462046FDF7FDFE8542E1
:1023900002D19DF8070004E02046F021FFF7A6FFD8
:1023A000F02003B030BD0000F7B505460E464F24BF
:1023B00021462846FDF7E8FE00AB23440134572CA4
:1023C00003F84F0CF4D10821684603F07FFF214643
:1023D00007462846FDF7D8FE87420CD100231DF89A
:1023E0000320F2540133082BF9D10448044905F0C5
:1023F0004DFD012000E0002003B0F0BDB81B00201F
:102400007BE3000810B558210446FDF7BDFE5528B2
:1024100008D0FFF771FC204658215522FDF7E2FE57
:10242000FFF766FC10BD10B558210446FDF7ACFE61
:1024300040B1FFF761FC204658210022FDF7D2FE93
:10244000FFF756FC10BD0000F7B50F460546FFF735
:1024500053FC3846082103F039FF4F2406463B1948
:102460002146284613F84F2C0134FDF7BBFE572CAC
:10247000F5D1214628463246FDF7B4FE4F242146C9
:102480002846FDF781FE00AB23440134572C03F8A6
:102490004F0CF4D16846082103F018FF864206D09D
:1024A0002846FFF7C0FFFFF723FC002007E005499F
:1024B000054805F0EBFC2846FFF7A4FF012003B018
:1024C000F0BD00BF90E30008B81B002008B55821FC
:1024D000FDF75AFEB0F155035842584108BD70B59A
:1024E00004460E461546FFF707FC204632462221D9
:1024F000FDF778FE204623212A46FDF773FEFFF7FD
:10250000F7FB70BDFDF740BEFDF73EBE70B504465B
:102510000E461546FFF7F0FB204632462421FDF714
:1025200061FE204625212A46FDF75CFEFFF7E0FB11
:1025300070BD10B50446FFF7DFFB20465522592138
:10254000FDF750FEFFF7D4FB20465921FDF71CFE96
:10255000B0F155035842584110BD08B55921FDF757
:1025600013FEB0F155035842584108BD10B504465A
:10257000FFF7C2FB204600225921FDF733FEFFF78B
:10258000B7FB20465921FDF7FFFDD0F1010038BF10
:10259000002010BD73B5002305460E46009301933D
:1025A000FFF7AAFB5A2433192146284613F85A2C60
:1025B0000134FDF717FE622CF5D13046082103F0F7
:1025C00085FE0646214628463246FDF70BFE5A2474
:1025D00021462846FDF7D8FD00AB23440134622C88
:1025E00003F85A0CF4D10821684603F06FFE044644
:1025F000FFF77EFBB442064804D1064905F046FCCD
:10260000012003E0044905F041FC002002B070BD48
:10261000B81B0020A5E30008D3E3000838B509493A
:102620000546094805F032FC5A2421462846FDF7A4
:10263000ABFD064B1A190134622C02F85A0CF4D186
:10264000184638BD04E40008B81B0020FC1A00201E
:1026500073B5002305460E4600930193FFF74CFB2C
:10266000632433192146284613F8632C0134FDF7FF
:10267000B9FD6B2CF5D13046082103F027FE064644
:10268000732128463246FDF7ADFD632421462846D6
:10269000FDF77AFD00AB234401346B2C03F8630C87
:1026A000F4D10821684603F011FE0446FFF720FB31
:1026B000B442064804D1064905F0E8FB012003E0D6
:1026C000044905F0E3FB002002B070BDB81B0020F8
:1026D0003CE400086AE4000870B50E467421044624
:1026E0001546FDF751FDB04205D120467521FDF795
:1026F0004BFDA84219D0FFF7FFFA2046742132465D
:10270000FDF770FD204675212A46FDF76BFDFFF7AA
:10271000EFFA20467421FDF737FDB0420BD1204679
:102720007521FDF731FDA84205D10649064805F09F
:10273000ADFB012070BD0549034805F0A7FB002053
:1027400070BD00BFE2E40008B81B002004E50008EB
:1027500010B50446FFF7D0FA204674210022FDF799
:1027600041FD204675210022FDF73CFDFFF7C0FA30
:1027700020467421FDF708FD20B920467521FDF79C
:1027800003FD28B10549064805F080FB002010BD77
:102790000449034805F07AFB012010BD26E5000836
:1027A000B81B002049E5000870B50E4676210446A6
:1027B0001546FDF7E9FCB04205D120467721FDF72B
:1027C000E3FCA84219D0FFF797FA2046762132465B
:1027D000FDF708FD204677212A46FDF703FDFFF7A8
:1027E00087FA20467621FDF7CFFCB0420BD1204678
:1027F0007721FDF7C9FCA84205D10649064805F036
:1028000045FB012070BD0549034805F03FFB002052
:1028100070BD00BF6CE50008B81B002094E50008FF
:1028200070B50E467A2104461546FDF7ADFCB04260
:1028300005D120467B21FDF7A7FCA84219D0FFF760
:102840005BFA20467A213246FDF7CCFC20467B21FC
:102850002A46FDF7C7FCFFF74BFA20467A21FDF721
:1028600093FCB0420BD120467B21FDF78DFCA842A2
:1028700005D10649064805F009FB012070BD054950
:10288000034805F003FB002070BD00BF16E60008FA
:10289000B81B002048E6000838B57A210546FDF748
:1028A00073FC7B2104462846FDF76EFC00EB0420F8
:1028B00038BD000070B50E46782104461546FDF778
:1028C00063FCB04205D120467921FDF75DFCA842AA
:1028D00019D0FFF711FA204678213246FDF782FC25
:1028E000204679212A46FDF77DFCFFF701FA2046B4
:1028F0007821FDF749FCB0420BD120467921FDF744
:1029000043FCA84205D10649064805F0BFFA01205C
:1029100070BD0549034805F0B9FA002070BD00BF3D
:10292000DDE60008B81B002009E7000870B50E4678
:102930007C2104461546FDF727FCB04205D1204610
:102940007D21FDF721FCA84219D0FFF7D5F92046DB
:102950007C213246FDF746FC20467D212A46FDF7C4
:1029600041FCFFF7C5F920467C21FDF70DFCB04284
:102970000BD120467D21FDF707FCA84205D1064971
:10298000064805F083FA012070BD0549034805F0AB
:102990007DFA002070BD00BF8FE70008B81B002043
:1029A000BFE7000838B57C210546FDF7EDFB7D212A
:1029B00004462846FDF7E8FB00EB042038BD000084
:1029C0007FB532490546324805F060FA304805F0D7
:1029D000FEF806F079F841F2883006F02BFF06F099
:1029E00073F82B4805F00FF900280ADD284805F098
:1029F000B6F8C1B2274805F0E4FB022006F01AFF42
:102A0000EFE7244CA668002E34D0204605F0F3FCF6
:102A100021461F4805F030FA1F4901A805F019FBAF
:102A200001A9204605F060FC064601A805F0CFFA92
:102A30001748EEB1194905F029FA1949204605F061
:102A40005EFB28462121FDF79FFB40B1FFF754F9BB
:102A5000284621210022FDF7C5FBFFF749F928464A
:102A60002121FDF791FBD0F1010038BF00200AE0E1
:102A70000C4901E006480C4905F008FA20460849CF
:102A800005F03DFB304604B070BD00BF51E80008C2
:102A9000B81B0020641B0020A2E80008A6E800087C
:102AA000B2E10008DCE8000807E900080022026043
:102AB00042607047006820B103688B4201D0806893
:102AC000F9E7704770B504460C2016460D4607F02E
:102AD000E7FA00228260226880E860000AB920607C
:102AE00001E062689060606070BD10B51446FFF749
:102AF000E1FF08B14460012010BD08B5FFF7DAFF1F
:102B000000B1406808BD01F51C414131FFF7DABF53
:102B100001F51C414131FFF7E8BF01F51C4141318E
:102B2000FFF7EBBF002A01F1010114BF4FF47F4210
:102B30000022FFF7C7BF002A01F51C5101F1110166
:102B400014BF4FF47F420022FFF7BCBF01F5EA41FA
:102B50003131FFF7B7BF002A01F1010114BF4FF473
:102B60007F420022FFF7C1BF002A01F51C5101F18D
:102B7000110114BF4FF47F420022FFF7B6BF01F5E9
:102B8000EA413131FFF7B1BF08B50131FFF7B5FFB9
:102B9000B0F57F435842584108BD01F51C5108B5B6
:102BA0001131FFF7AAFFB0F57F435842584108BDE5
:102BB00001F5EA413131FFF7A0BF000070B50446CE
:102BC0000D4609480949164605F060F9A06807F066
:102BD0006FFA0220207307F063FA803D0323A060A0
:102BE00005704670637370BDB81B00202AE90008A9
:102BF000F8B5531E7C2B04460F46164602D9032116
:102C00000A4617E001F51C414131FFF753FF18B99F
:102C10002046032102220DE0A06807F049FA701C4B
:102C20004000C0B2207307F03BFAA06030B92046E4
:102C300003210422BDE8F840FFF7C0BF032303705F
:102C4000237B0025023B4370E9192046FFF765FF0F
:102C5000A3680135020A03F81520A368B54203EB07
:102C600045035870F0D103236373F8BD70B5044673
:102C70000E461546FFF74CFF18B9204606210222E2
:102C800008E020463146FFF748FFA84206D020461C
:102C900006210422BDE87040FFF790BF0223637352
:102CA00070BD2DE9F8431F4616467A1E7A2A04465F
:102CB00088469DF8203002D8B3EB470F03D020465A
:102CC000102103221CE006F51C45413505EB0709E0
:102CD00020462946FFF7EEFE18B9204610210222B1
:102CE0000EE001354D45F3D1A06807F0E1F905206C
:102CF000207307F0D5F9A06030B9204610210422D6
:102D0000BDE8F843FFF75ABF10230370330A43703E
:102D1000002307718670C37008F106053744BE4270
:102D200005F102050BD015F8022C15F8013C3146CF
:102D3000204643EA0222FFF7EBFE0136EFE70323CA
:102D40006373BDE8F8832DE9F843531EB3F5FA6FBA
:102D500004460F46154602D30121032219E0013132
:102D6000FFF7A8FE18B920460121022211E0A06851
:102D700007F09EF9C5F3C7036A070CBF023303339C
:102D80002373207B07F08CF9A06030B92046012125
:102D90000422BDE8F843FFF711BF01230370237B32
:102DA00005EB0708023B43703E46002546451CD014
:102DB00031462046FFF7E8FEC7F10109B1444FEA6A
:102DC000D909012109F10203A268A94010B1D05C20
:102DD000014302E0D05C20EA01010135EDB2082D8B
:102DE000D15408BF00250136E0E703236373BDE833
:102DF000F88300002DE9F843531EB3F5FA6F04463B
:102E00000F46154602D3022103221FE001F51C5193
:102E10001131FFF74FFE18B920460121022215E0BB
:102E20002249234805F032F8A06807F041F9C5F3BC
:102E3000C7036A070CBF023303332373207B07F0F9
:102E40002FF9A06030B9204602210422BDE8F843E2
:102E5000FFF7B4BE02230370237B05EB0708023B98
:102E600043703E46002546451CD031462046FFF7BC
:102E700094FEC7F10109B1444FEAD909012109F1D2
:102E80000203A268A94010B1D05C014302E0D05C0B
:102E900020EA01010135EDB2082DD15408BF00250B
:102EA0000136E0E703236373BDE8F8834FE90008C8
:102EB000B81B0020F8B5531E7C2B04460F4616465F
:102EC00002D90421032217E001F5EA413131FFF76D
:102ED000F1FD18B92046012102220DE0A06807F09B
:102EE000E7F8701C4000C0B2207307F0D9F8A0606A
:102EF00030B9042120460A46BDE8F840FFF75EBE1F
:102F000004230370237B0025023B4370E91920460C
:102F1000FFF74EFEA3680135020A03F81520A368E7
:102F2000B54203EB45035870F0D103236373F8BD3A
:102F300070B5B2F57F4F86B004460E4603D012B18D
:102F40000521032215E0151C18BF01252046314636
:102F50002A46FFF700FE18B920460521022208E0A4
:102F600020463146FFF710FEA84205D02046052135
:102F70000422FFF723FE17E00C49684605F069F8C4
:102F8000694603A805F0A9F8094903A805F066F900
:102F90000146084804F070FF03A805F018F86846D9
:102FA00005F015F80223637306B070BD79E90008D7
:102FB00091E90008B81B00202DE9F0438BB00446CE
:102FC000894604A86C49DF081D46164605F041F8FD
:102FD00004A907A805F081F8394607A805F064F9A7
:102FE0000146664804F048FF07A804F0F0FF04A873
:102FF00004F0EDFF6B0705F1FF3318BF0137B3F5A0
:10300000F66F03D29DF84830BB4207D05C495B485D
:1030100004F03CFF20460F2103224DE0771C07EB14
:10302000050820463946FFF745FD18B920460F210F
:10303000022241E001374745F3D15048514904F09D
:1030400025FF0627504901A805F003F801A904A8A7
:1030500005F043F8394604A805F026F94B4905F078
:10306000FDF8102219F80710804607A805F058F857
:1030700007A9404605F0E5F80146404804F0FCFE8B
:1030800007A804F0A4FF04A804F0A1FF013701A8D9
:1030900004F09DFF102FD5D13A49384804F0F6FED0
:1030A000A06807F005F80520207306F0F9FFA0607E
:1030B00028B920460F210422FFF780FD58E00F2396
:1030C0000370330A43702B0A8670C37005712D4953
:1030D0002A4804F0DBFE06272B4901A804F0B9FFBB
:1030E00001A904A804F0F9FF394604A805F0DCF8AA
:1030F000264905F0B3F8102219F80710804607A8F2
:1031000005F00EF807A9404605F09BF801461B485C
:1031100004F0B2FE07A804F05AFF04A804F057FF19
:10312000013701A804F053FF102FD5D113481549DA
:1031300004F0ACFE3544B0460027C6EB080309EBAB
:10314000D3039A7941463A410137FFB2204602F053
:103150000102FFF700FD08F10108082F08BF002752
:10316000A845EAD105480A4904F090FE0323637399
:103170000BB0BDE8F08300BFA3E90008B81B002036
:10318000B5E9000883F50008D6E90008DDE9000884
:10319000E1E900082DE9F0418B784F788CB0CE78CA
:1031A00043EA07270B7991F800800C4605465449FD
:1031B00003A843EA062604F04CFF03A909A804F07B
:1031C0008CFF1022217806A804F0AAFF06A909A8FE
:1031D00005F037F801464B4804F04EFE06A804F00F
:1031E000F6FE09A804F0F3FE03A804F0F0FE464939
:1031F00003A804F02EFF03A909A804F06EFF102213
:10320000394606A804F0AFFF06A909A805F019F889
:1032100001463C4804F030FE06A804F0D8FE09A898
:1032200004F0D5FE03A804F0D2FE384903A804F048
:1032300010FF03A909A804F050FF1022314606A888
:1032400004F091FF06A909A804F0FBFF01462D48F0
:1032500004F012FE06A804F0BAFE09A804F0B7FEB6
:1032600003A804F0B4FE08F1FF330F2B3FD8DFE8CA
:1032700003F01D230E292F083E3E3E3E3E3E3E3EBD
:103280003514284639463246FFF7F0FC34E028462C
:1032900039463246FFF7ACFC2EE0637928460093AE
:1032A00021463A463346FFF7FCFC25E028463946DE
:1032B0003246FFF748FD1FE0284639463246FFF701
:1032C00099FD19E0284639463246FFF7F3FD13E031
:1032D000284639463246FFF72BFE0DE06379284633
:1032E000009321463A463346FFF766FE04E028463F
:1032F00041460122FFF762FC0CB0BDE8F08100BF3F
:10330000F0E90008B81B0020FCE9000806EA000804
:1033100010B50446FFF7CAFB204610BD80F8281000
:103320000120704770B5049E0161C66104461546D0
:1033300008461146DAB204F087FC4FF4FA6006F052
:1033400079FA002E08DBF6B23046002106F0E0F9EB
:103350003046002106F042FAB5F5964F06DD40F200
:10336000EE23236240F2D663636207E0044B93FBD3
:10337000F5F32362034B93FBF5F56562012070BD05
:10338000C0E1E400C00E160270B50446C06986B004
:1033900000280D4606DBC0B2012106F01FFA01200D
:1033A00006F048FA0023227B5E1CDBB29A421FD94A
:1033B000194A1068411C1160E95C184A1154D15C2B
:1033C0006846102204F0ACFE694603A804F085FEAE
:1033D000134903A804F042FF0146124804F02EFDF1
:1033E00003A804F0F4FD684604F0F1FD3346DAE783
:1033F0000D490C4804F04AFD206903689B69984711
:10340000606A06F025FAE069002803DBC0B20021FB
:1034100006F0E4F906B070BD1C1B0020061B00205E
:10342000CDEC0008B81B002010EB0008F0B5C94334
:103430000B4EC9B2705C0B4DC0436C5CC0B2002136
:10344000AC46CFB2BB4207D0555C01314540705D00
:1034500060401CF80540F4E744EA0020F0BD00BFDE
:1034600010EA0008C0EB00082DE9F0410D78037B5D
:10347000FF2D01EB030204460E4612F8028C12F8EF
:10348000017C03D090F82820AA4219D1A268033BFE
:10349000204612F8011BDBB2FFF7C8FF47EA0827F6
:1034A000874202D00A480B490CE02046711CFFF706
:1034B00071FEFF2D4FF0010007D16073BDE8F08170
:1034C0000348054904F0E2FC0020BDE8F08100BF9C
:1034D000B81B002038EB000864EB0008F8B5044680
:1034E000C0690F46002806DBC0B2012106F076F95C
:1034F000012006F09FF9194D19491A4804F0C6FC3D
:10350000194E2B6894F828105A1CF154237B2A601A
:103510000022D0B298420AD2286800F1010EC5F804
:1035200000E017F802E0013206F800E0F1E7A268D7
:103530002046FFF77BFF2B68020AF2541E449A1CB8
:103540007070606A2A6006F083F9E069002803DB86
:10355000C0B2002106F042F9F8BD00BF1C1B0020DC
:1035600094EB0008B81B0020061B0020D2B238B52F
:1035700004460D460273002A3ED02049204804F03C
:1035800085FC207B06F08CFD0023A060227B591C6B
:10359000DBB29A4204D9E85CA268D0540B46F5E746
:1035A0001748184904F072FC0025237B9D4207D27E
:1035B000A3681348595D102204F0FEFC0135F4E7BE
:1035C00010490F4804F062FC2046A168FFF74CFF49
:1035D00068B1637B032B04D12046A168FFF77EFF0F
:1035E00005E0022B03D12046A168FFF7CDFEA068BD
:1035F00006F05EFD0023237338BD00BFB4EB000866
:10360000B81B0020E7E9000808B5032004F084F89F
:10361000014B01221A7008BD291B002070B55E48BD
:103620000D46097803F052F9697806465A4803F0C6
:103630004DF906EB8606594C06EB860600EB860034
:10364000E080A978544803F041F96071E978524864
:1036500003F03CF9207129794F4803F037F9697973
:10366000A0704D4803F032F9A97960704A4803F020
:103670002DF94B4920704B4804F0EDFBE1880A22FC
:10368000484804F078FC4849464804F0E4FB617976
:103690000A22444804F090FC4449424804F0DBFB11
:1036A00021790A223F4804F087FC41493D4804F053
:1036B000D2FBA1780A223B4804F07EFC3D49394800
:1036C00004F0C9FB61780A22364804F075FC3A49D7
:1036D000344804F0C0FB0A222178324804F06CFC24
:1036E00004F0DAFF642006F0A5F8204602F0A2FEFE
:1036F0000146324803F02EFF642006F09BF804F0E8
:10370000D1FF2E4803F029FF0146204602F006FEB5
:10371000E1886423B1FBF3F1C9B21F4803F0CDF88F
:103720002870E2884FF47A73B2FBF3F103FB1121A6
:103730001948C9B203F0C1F868706179164803F0FE
:10374000BCF8A8702179144803F0B7F8A178E870A4
:10375000114803F0B2F8617828710F4803F0ADF812
:10376000217868710C4803F0A8F80024A871295D3D
:1037700010220C4804F017FC01340A48104904F0E8
:103780006AFB072CF3D1074804F06AFBBDE87040E0
:1037900004480C4904F07ABBB11B0020201B002018
:1037A000C0EC0008B81B0020C7EC0008CFEC0008F4
:1037B000D5EC0008DCEC0008E6EC00082A1B002031
:1037C000CDEC0008F0EC000870B51B4886B002F0A4
:1037D00031FE1A4C054604F05FFF0A2006F02AF875
:1037E0002946204603F0B6FE204603F0B6FE144DEF
:1037F00014492A688618684604F02BFC694603A819
:1038000004F06BFC296803A804F04EFD01460E4845
:1038100004F032FB03A804F0DAFB684604F0D7FB9F
:103820000A493246204603F09AFE0A2006F002F8C2
:1038300004F038FF06B070BD201B00202A1B0020BA
:10384000201A002013ED0008B81B002009360008DC
:103850000148112103F075BE2A1B0020174B10B53B
:103860001A6886B001321A60154A11680131116078
:103870001A68B2F5615F04D300221A60114B01226D
:103880001A70114C6846236810490133236004F014
:10389000E0FB694603A804F020FC216803A804F0BB
:1038A00003FD01460A4804F0E7FA03A804F08FFB81
:1038B000684604F08CFB06B010BD00BF301B002032
:1038C000341B0020711B00202C1B002095ED0008EC
:1038D000B81B002038B50E4C0E4823680133236016
:1038E000FEF7DAFF042812D90A48FEF7D5FFB0F533
:1038F000E16F00D938BD07482568FEF7CDFF854246
:1039000005D300232360044B01221A7038BD38BD53
:10391000341B0020051B0020B41B002010B5084CF0
:103920000849204604F015FA20460121064A04F011
:103930002FFA20460021BDE8104004F001BA00BF74
:10394000381C002040420F00D538000810B5084C44
:103950000849204604F0FDF920460121064A04F0FA
:1039600017FA20460021BDE8104004F0E9B900BF75
:10397000401C002040420F005D38000810B5054C87
:10398000204604F0CFF920460021BDE8104004F0A5
:10399000D7B900BF381C002010B5054C204604F0F4
:1039A000C1F920460021BDE8104004F0C9B900BFAC
:1039B0003C1C002010B5064C204604F0B3F920460C
:1039C000002104F0BDF9034B00221A6010BD00BFB6
:1039D000401C00202C1B0020014804F09BB900BFB4
:1039E000381C0020014804F095B900BF3C1C0020A1
:1039F00008B5034804F08EF9024B00221A6008BD96
:103A0000401C00202C1B002030B5354C8DB0237895
:103A1000002B63D0334B34481D78002D5AD000253D
:103A2000324904F033FA2570FFF7D6FF2846FF210C
:103A300005F0F5FEFF21C4B2284605F0F0FE2C4942
:103A4000C5B203A804F005FB03A909A804F045FBCF
:103A50001022214606A804F063FB06A909A804F079
:103A6000F0FB0146204804F007FA06A804F0AFFA7C
:103A700009A804F0ACFA03A804F0A9FA03A81D49A8
:103A800004F0E7FA03A909A804F027FB102229464D
:103A900006A804F045FB06A909A804F0D2FB0146DC
:103AA000114804F0E9F906A804F091FA09A804F015
:103AB0008EFA03A804F08BFA01210A460E48234629
:103AC000009503F017FCFFF759FF0C49064804F076
:103AD000DDF903E00A4904F0D9F925700DB030BDD5
:103AE000B41B002075180020B81B0020A7ED0008AB
:103AF0001DD9000829D90008B51B0020DEED0008FB
:103B00001EEE0008F7B5294802F05AFA284CFF21AA
:103B10002070002005F083FEFF21C5B2002005F0D3
:103B20007EFE244B22781978C6B29142224C06D0F0
:103B30001A70224801232249237004F0A7F9237840
:103B400093B120491D4804F0A1F91B4B00211970C5
:103B50001D4B01221A701D4800962B4603F0CAFB2C
:103B600016481B4904F092F91A4F3B78E3B11A4901
:103B7000124804F08BF9144B00241C703C70214651
:103B80002B4600961148012203F0BAFA214600960E
:103B90000E4801222B4603F0ADFB08480F4903B045
:103BA000BDE8F04004F072B903B0F0BD731B002013
:103BB000391B00203C1B0020381B0020B81B0020B4
:103BC00043EE000856EE00080C000020B51B002054
:103BD000A7EE0008631B0020E6EE000838EF00089F
:103BE00010B5064C0649204604F033FA2046054934
:103BF000054ABDE8104005F021BF00BF641B00204E
:103C0000B2E10008CF7F00080800002030B54A4824
:103C100085B0FEF7C0F9002846D1484B48491870D6
:103C20004548FEF77CF828B143484549FEF7B7F808
:103C3000002877D14048FEF709FB20B13E48FEF747
:103C40008AFA002873D101238DF804303A48002302
:103C500001A98DF805308DF806308DF807308DF804
:103C60000830FEF7E7F918B13648374904F00EF985
:103C700031480121FEF798FA18B13248334904F06F
:103C800005F933492F4804F001F932492D4804F071
:103C9000FDF809E0304CA368EBB92F482C4904F03B
:103CA0002EFA2E48FDF7E4F92348FEF774F90028B0
:103CB00033D104F009FF234803F0A5FF0028E9DD14
:103CC000204803F04CFFC1B2234804F07AFA0220E6
:103CD00005F0B0FDEFE7204604F08DFB21461948C2
:103CE00004F0CAF81E4901A804F0B3F9204601A95E
:103CF00004F0FAFA054601A804F069F955B114492F
:103D0000204604F0FCF90F48164904F0BFF81648A5
:103D100002F034FE04F0D8FEBFE7084B01221A700F
:103D200005B030BD1149074804F0B0F882E71049EA
:103D3000044804F0ABF886E7FB1A00200E000020D0
:103D4000451B0020B81B002072EF0008AFEF0008F1
:103D5000B2E10008EBEF0008641B00207819002096
:103D6000A4E800082EF00008B51B002071F0000840
:103D7000A5F0000870B504F0A7FE194B1B7843BBF3
:103D800070BD184C18482678184D731C237003F02A
:103D9000E6FEA855022005F04DFD2378132B0CD923
:103DA00004F092FE002612491248267004F06EF8C4
:103DB00028463146142206F085FC23780D481D4420
:103DC00015F8011C102204F0EEF80A480A4904F024
:103DD00042F8054803F017FF0028D2DC70BD00BF91
:103DE0003D1B00203B1B0020E81B00204E1B002039
:103DF000ECF00008B81B00201EF1000830B5B248F6
:103E00008FB002F075FBB14800F0D6FEB04B062033
:103E10001A684FF4FA6122F0E06242F080621A60A0
:103E200004F042FEAB484FF4165103F049FFAA4894
:103E30004FF41651FDF702FA4FF41651A74803F05C
:103E40003FFF04F01CFCA648FDF75AFF9E4802F015
:103E5000F3FB04F039FEA048FDF7CCF901219E48A0
:103E6000FDF764FB9F4D4FF4FA6005F0E3FC00247E
:103E70009D482C70FDF7FCF801232B7004F024FE04
:103E8000F1219A48FEF732FA21469348FDF71AFECF
:103E90009648FEF7F5F996498E4803F0F7FF9548E6
:103EA0002221FEF731FB0228044606D19148232146
:103EB000FEF72AFB012805461CD001228D4802216D
:103EC000FEF70DFB8C4902A804F0C3F802A908A86C
:103ED00004F003F91022022105A804F032F905A923
:103EE00008A804F0AEF9854904F0B8F901210446A8
:103EF0000BA816E0824902A804F0ABF802A908A8B2
:103F000004F0EBF82146102205A804F01AF905A9DF
:103F100008A804F096F9794904F0A0F92946044666
:103F20000BA8102204F00DF920460BA904F089F922
:103F30000146684803F0A0FF0BA804F048F805A864
:103F400004F045F808A804F042F802A804F03FF88D
:103F500068482421FEF7D6FA0228044616D165489F
:103F60002521FEF7CFFA054680B9664908A804F076
:103F700070F808A90BA804F0B0F821460BA804F0CB
:103F800089F95E4904F06AF9294614E0002259488B
:103F90000221FEF7BBFA5C4908A804F05AF808A908
:103FA0000BA804F09AF802210BA804F073F9534906
:103FB00004F054F9002104F06DF90146454803F07E
:103FC0005BFF0BA804F003F808A804F000F8FFF763
:103FD000D1FE4E48FEF7F4FCFFF718FE4B484C4963
:103FE000FDF7E2FFA0B942493A4803F04FFF4949C3
:103FF000384803F04BFF484802F0D8FD3A48FDF737
:1040000037F840F6B83002F06BFC04F05DFDE5E7F0
:104010004249304803F03AFF04F056FDFFF77EFCBA
:10402000FFF7ACFC3E492B4803F030FF30492948EC
:1040300003F02CFFFFF7D6FC3A49264803F026FF91
:104040002B49244803F022FFFFF780FCFFF7D0FC48
:104050003549204803F01AFF25491E4803F016FF92
:10406000FF21002005F0DBFBFF210446002005F0C6
:10407000D6FBC0B20222E3B200900121264803F031
:10408000BBF82A49134803F001FF1949114803F00E
:10409000FDFE0E4801F094FF254B26491870264B73
:1040A00018700C4803F0F2FE11490A4803F0EEFEC6
:1040B000224800210522FEF7B3FB002842D1204907
:1040C000044803F0E3FE5EE0B01B0020731B0020F9
:1040D00004000140B81B0020F81A0020E81B002053
:1040E000041B00200D00002078190020F91A002080
:1040F000B2E10008FA1A002076F200088EE3000808
:10410000C1F20008D7F20008EDF20008FB1A002007
:10411000451B002020F10008B51B002054F10008C9
:104120006DF10008AAF10008E1F1000819F2000899
:104130003C1B00202EF20008391B0020051B00202C
:104140009ADA00081149124803F0A0FE114908A8A4
:1041500003F07FFF08A90BA803F0BFFF0E48FEF78E
:104160009BFB01460BA804F09FF80146084803F0AA
:1041700083FE0BA803F02BFF08A803F028FF4FF4E1
:104180007A7005F057FB0FB030BD00BFDEDA0008D3
:10419000B81B002000DB0008051B002030B587B0ED
:1041A000424803F030FD00280ADD404803F0D7FC08
:1041B000C1B23F4804F005F8022005F03BFBEFE7F1
:1041C0003B4CA368002B6ED0204604F014F9214626
:1041D000364803F051FE374903A803F03AFF204662
:1041E00003A904F0AEF8054603A803F0F0FE002D85
:1041F00033D020460021042204F0E4F8204604F0E5
:1042000006F92D4C02462060C2F307212B48D2B29A
:10421000FEF78CFB10B12548294901E023482949C4
:1042200003F034FE2548FEF7BDFB274920606846B1
:1042300003F00FFF694603A803F04FFF216803A8AE
:1042400004F032F80146194803F016FE03A803F003
:10425000BEFE684603F0BBFE18E01C4903A803F04D
:10426000F8FE204603A904F03FF8054603A803F032
:10427000AEFE85B1164A0D48137883F00103137022
:104280000BB1144900E0144903F000FE134908483B
:1042900003F035FF07E01149204603F030FF0348E3
:1042A0000F4903F0F3FD07B030BD00BFB81B00207D
:1042B000641B002038F30008201A0020051B002092
:1042C0003DF3000873F300082EED0008ACF300087E
:1042D0003D1B0020B5F30008D1F30008B2E100084F
:1042E000EDF300082DE9F04F87B0634803F08BFC35
:1042F00000280ADD604803F032FCC1B25F4803F0D9
:1043000060FF022005F096FAEFE75C4CA368002BF3
:1043100000F0AE80204604F06EF82146564803F0C7
:10432000ABFD574903A803F094FE204603A903F010
:10433000DBFF054603A803F04AFE002D00F096803F
:104340002046504C504903F0DAFE23684F490133B0
:104350004948236003F09AFD4D49684603F079FE11
:10436000694603A803F0B9FE216803A803F09CFF87
:104370000146414803F080FD03A803F028FE68468B
:1043800003F025FE40493C4803F080FDFFF730FB79
:10439000032003F0C1F93F4A002313703E4A3F4F08
:1043A00013703F4A3B6013703E4A1D4613703E4AED
:1043B0001E4613703D4AA34613703D4A13703D4A92
:1043C00013703D4A13703D4A13703D4A13703D4AC5
:1043D00013703D4B0024EC503C4BDFF818A1EC501F
:1043E0003B4BDFF81491EC503A4BDFF81081EC5066
:1043F000394BF0B2EC50394B0121EC50384B45F8B9
:104400000A40F454374B45F80940F454364B45F80C
:104410000840F454354B0435F454013601F0E2FE03
:104420000C2ED6D1DBF8003013F0010313D0304846
:10443000FEF7B8FA386014234AF804303C2349F8F0
:1044400004304FF6FF7348F804300434302CF2D1B6
:10445000FFF7B0FA0AE03B6000224AF8032049F86F
:10446000032048F803200433302BF5D104F02CFB53
:1044700007B0BDE8F08F00BFB81B0020641B002010
:1044800014F40008401B0020B2E1000816F40008F4
:1044900059F40008621B0020291B0020201A00206C
:1044A000721B0020441B0020B41A00203E1B002079
:1044B0003A1B0020381B0020631B002074180020CA
:1044C000761800203F1B0020B81A0020B8180020E2
:1044D000641A00208C190020E0190020F417002035
:1044E000A41A0020CC1900207A1900200F00002007
:1044F000051B002034180020241A00207818002002
:104500002DE9F043814F87B017F800900446B9F1C8
:10451000000F40F0F7807E4DDFF840822B5C002BCF
:1045200000F08F807B4E7C4A336852F82020934203
:10453000C0F08780012101F055FE784B05F804900A
:104540007749012568461D7003F083FD694603A87D
:1045500003F0C3FD214603A803F092FE714903F066
:104560007DFE0146704803F087FC03A803F02FFD91
:10457000684603F02CFD6C4803F029FB6B4B53F8A5
:10458000242052B333686A4908F80450694D41F851
:10459000243068461344684945F8243003F059FD37
:1045A000694603A803F099FD214603A803F068FEBD
:1045B000624903F053FE55F8241003F075FE0146DE
:1045C000594803F059FC03A803F001FD684603F0C5
:1045D000FEFC554803F0FBFA33E0594B594E53F8B3
:1045E00024205949013A43F824203378684601339E
:1045F000337003F02EFD694603A803F06EFD317899
:1046000003A803F03DFE0146474803F035FC03A82C
:1046100003F0DDFC684603F0DAFC434803F0D7FA08
:1046200033780C2B07D14048484903F02FFC484B06
:104630001D70484B1D700020012308F804003B55F5
:1046400061E018F80400002855D0324B1A68394B45
:1046500053F824309A4256D3394B3A4D53F824201C
:104660000126013A43F824202B7837493344684621
:104670002B703E5503F0EDFC694603A803F02DFDB9
:10468000297803A803F0FCFD0146274803F0F4FB5A
:1046900003A803F09CFC684603F099FC224803F051
:1046A00096FA2B780C2B07D11F48284903F0EEFB14
:1046B000274B1E70274B1E700123684618493B5537
:1046C00003F0C7FC694603A803F007FD214603A8D1
:1046D00003F0D6FD204903F0C1FD0146124803F066
:1046E000CBFB03A803F073FC684603F070FC0E4894
:1046F00003F06DFA06E00D4B53F82400003018BFAC
:10470000012000E0002007B0BDE8F0837A19002006
:10471000A41A00202C1B00208C190020381B00201C
:1047200067F400086BF40008B81B0020241A00206E
:10473000E0190020F417002087F40008F7E90008CA
:1047400078180020761800209AF40008AAF40008CF
:10475000621B0020631B0020D0F40008CC1900204D
:104760002DE9F0439B4E87B004F0AEF933780C2B63
:1047700000F0DB800024254604F0A6F9964BEFB24A
:10478000E95C002940F0A4804FF0010805F803809F
:10479000924B04EB0309E358002B55D0904BE358A0
:1047A000002B51D0384601F01DFD8E4B8E4A05F886
:1047B00003808E4B8E4983F800808E4BDFF88C820D
:1047C0001B686846A350D9F80020134444F8083009
:1047D00003F03FFC694603A803F07FFC394603A8B9
:1047E00003F04EFD844903F039FD0146834803F090
:1047F00043FB03A803F0EBFB684603F0E8FB8049AA
:10480000684603F026FC694603A803F066FC3946B7
:1048100003A803F035FD7B4903F020FD54F8081090
:1048200003F042FD0146754803F026FB03A803F0A0
:10483000CEFB684603F0CBFB704803F0C8F9724B1F
:10484000E358002B6AD0C2E06949684603F001FCD6
:10485000694603A803F041FC394603A803F010FDA4
:104860006A4903F0FBFC0146644803F005FB03A81A
:1048700003F0ADFB684603F0AAFB654B0127EF543C
:10488000337864493B446846337003F0E2FB694681
:1048900003A803F022FC317803A803F0F1FC0146E1
:1048A000564803F0E9FA03A803F091FB684603F0C9
:1048B0008EFB524803F08BF933780C2B2ED1564BDC
:1048C0004E4856491F7003F0E1FA554B1F7025E022
:1048D000013F0A2F07D8DFE807F0080A0C0E101274
:1048E0001416181A1C00002014E0012012E0022007
:1048F00010E003200EE004200CE005200AE0062072
:1049000008E0072006E0082004E0092002E00A2071
:1049100000E00B20FFF7F4FD002858D101350C2DE5
:1049200004F104047FF428AF51E0FFF761F83A4B3B
:104930003C4D1A7872B100241C703B4B3B481C70F4
:10494000FEF742FF2D483A4903F0A0FA394B1C709C
:1049500001232B702B78002B39D0334D2B78002B73
:1049600035D0344C012334492448237003F08EFAA7
:104970003249224803F08AFA2A4A00233178137018
:104980002B70154800221A5421481A5415481A54FD
:10499000134850F823000133904218BF11460C2BE6
:1049A000EFD1317051B92649144803F06FFA234909
:1049B000124803F06BFAFEF7FDFF08E021490F48AB
:1049C000227003F063FA0D481F4903F05FFA07B045
:1049D000BDE8F083761800200F0000203418002076
:1049E00078180020A41A0020641A0020381B002028
:1049F00067F400082C1B0020E6F40008B81B002018
:104A0000FCF40008F7E90008241A00200DF500085E
:104A10007A1900209AF40008621B0020AAF400080A
:104A2000631B0020441B0020291B0020281B0020A2
:104A30001DF50008751800204BF500087AF50008F0
:104A400087F50008B1F50008ECF500088C19002086
:104A500008B504F039F80C48FCF70AFB00210B48B4
:104A60000A4600F057FA00F08BF8FEF7CDFFFFF78B
:104A700049F8FFF775FEFFF735FCFFF78FFBBDE840
:104A80000840FFF777B900BF78190020731B00209A
:104A900001480021FDF716B8F81A00201FB530486C
:104AA00001A9FDF781FA2F4CC0B92F492F4803F017
:104AB000EDF92F4802F07AF82E48FCF7D9FA40F6C3
:104AC000B83004F0B7FE03F0FFFF23780133DBB208
:104AD000322B2370E3D904F02BF8E0E70023237096
:104AE0001F48FDF71CFBC0B92349204803F0CEF94D
:104AF0001F4801F0EDFF1F48FCF7BAFA40F6B83046
:104B000004F098FE03F0E0FF23780133DBB2322B90
:104B10002370E5D904F00CF8E2E700232370104875
:104B2000FDF77EFBC0B91549104803F0AFF91048F6
:104B300002F03CF80F48FCF79BFA40F6B83004F05E
:104B400079FE03F0C1FF23780133DBB2322B2370EF
:104B5000E5D903F0EDFFE2E70023237004B010BDB8
:104B6000FB1A0020701B002001F60008B81B002073
:104B7000B51B0020781900204FF60008A7F60008A2
:104B800008B50A4B1A787AB100221A70FEF72AFF8C
:104B9000FFF77EFFFFF782FFFEF7FEFEBDE808404D
:104BA0000348044903F072B908BD00BF711B00201F
:104BB000B81B0020FDF6000813B5D14C4FF0FF33B1
:104BC00000934FF4165200232046CE49FEF7AAFB6D
:104BD00020460121FEF7A2FB002120460A46FDF7F0
:104BE000A1FF204601210022FDF79CFF2046022163
:104BF0000022FDF797FF204603210022FDF792FFD8
:104C0000204604210022FDF78DFF204605210022C9
:104C1000FDF788FF204606210022FDF783FF20468E
:104C200007210022FDF77EFF204608210022FDF724
:104C300079FF204609210022FDF774FF20460A2152
:104C40000022FDF76FFF20460B210022FDF76AFFCF
:104C500020460C210022FDF765FF20460D21002291
:104C6000FDF760FF20460E210022FDF75BFF204686
:104C70000F210022FDF756FF204610210022FDF7EC
:104C800051FF204611210022FDF74CFF2046122142
:104C90000022FDF747FF204613210022FDF742FFC7
:104CA000204614210022FDF73DFF20461521002259
:104CB000FDF738FF204616210022FDF733FF20467E
:104CC00017210022FDF72EFF204618210022FDF7B4
:104CD00029FF204619210022FDF724FF20461A2132
:104CE0000022FDF71FFF20461B210022FDF71AFFBF
:104CF00020461C210022FDF715FF20461D21002221
:104D0000FDF710FF20461E210022FDF70BFF204675
:104D10001F210022FDF706FF204620210022FDF77B
:104D200001FF204621210022FDF7FCFE2046222122
:104D30000022FDF7F7FE204623210022FDF7F2FEB8
:104D4000204624210022FDF7EDFE204625210022E9
:104D5000FDF7E8FE204626210022FDF7E3FE20466F
:104D600027210022FDF7DEFE204628210022FDF744
:104D7000D9FE204629210022FDF7D4FE20462A2113
:104D80000022FDF7CFFE20462B210022FDF7CAFEB0
:104D900020462C210022FDF7C5FE20462D210022B1
:104DA000FDF7C0FE20462E210022FDF7BBFE204667
:104DB0002F210022FDF7B6FE204630210022FDF70C
:104DC000B1FE204631210022FDF7ACFE2046322103
:104DD0000022FDF7A7FE204633210022FDF7A2FEA8
:104DE000204634210022FDF79DFE20463521002279
:104DF000FDF798FE204636210022FDF793FE20465F
:104E000037210022FDF78EFE204638210022FDF7D3
:104E100089FE204639210022FDF784FE20463A21F2
:104E20000022FDF77FFE20463B210022FDF77AFE9F
:104E300020463C210022FDF775FE20463D21002240
:104E4000FDF770FE20463E210022FDF76BFE204656
:104E50003F210022FDF766FE002120460A46FDF7AD
:104E60006AFE204601210022FDF765FE2046022150
:104E70000022FDF760FE204603210022FDF75BFEC5
:104E8000204604210022FDF756FE2046052100227F
:104E9000FDF751FE204606210022FDF74CFE20467C
:104EA00007210022FDF747FE002120460A46FDF7B4
:104EB0004DFE204601210022FDF748FE204602213A
:104EC0000022FDF743FE204603210022FDF73EFEAF
:104ED000204604210022FDF739FE2046052100224C
:104EE000FDF734FE204606210022FDF72FFE204666
:104EF00007210022FDF72AFE204600217F2203E041
:104F0000741B0020D01B002002B0BDE81040FDF74C
:104F1000FABD00BF10B5874C2046FEF727FB2046A0
:104F20000021FDF731FE80F00101C9B21E2004F01E
:104F300055FC20460121FDF727FE80F00101C9B292
:104F40001F2004F04BFC20460221FDF71DFE80F0DF
:104F50000101C9B2262004F041FC20460321FDF7DF
:104F600013FE80F00101C9B2272004F037FC20466F
:104F70000421FDF709FE80F00101C9B2282004F0E8
:104F80002DFC20460521FDF7FFFD80F00101C9B28F
:104F9000292004F023FC20460621FDF7F5FD80F0D2
:104FA0000101C9B2082004F019FC20460721FDF7D1
:104FB000EBFD80F00101C9B20B2004F00FFC20468C
:104FC0000821FDF7E1FD80F00101C9B20C2004F0D9
:104FD00005FC20460921FDF7D7FD80F00101C9B28B
:104FE0000D2004F0FBFB20460A21FDF7CDFD80F0EB
:104FF0000101C9B20F2004F0F1FB20460B21FDF79F
:10500000C3FD80F00101C9B22A2004F0E7FB202093
:1050100004F0CEFB021C18BF012200212046FDF740
:10502000A3FD212004F0C4FB021C18BF01220121B2
:105030002046FDF799FD222004F0BAFB021C18BFA0
:10504000012202212046FDF78FFD232004F0B0FB52
:10505000021C18BF012203212046FDF785FD2C20EC
:1050600004F0A6FB021C18BF012204212046FDF714
:105070007BFD2B2004F09CFB021C18BF01220521A4
:105080002046FDF771FD322004F092FB021C18BF90
:10509000012206212046FDF767FD132004F088FB5E
:1050A000021C18BF012207212046FDF75DFD0020EC
:1050B00004F070FB002102462046FDF760FD012050
:1050C00004F068FB012102462046FDF758FD04204C
:1050D00004F060FB022102462046FDF750FD05204A
:1050E00004F058FB032102462046FDF748FD062048
:1050F00004F050FB042102462046FDF740FD072046
:1051000004F048FB052102462046FDF738FD242027
:1051100004F040FB062102462046FDF730FD252025
:1051200004F038FB072102462046BDE81040FDF799
:1051300026BD00BF741B0020002110B50A4636486A
:10514000FDF709FD0121044600223348FDF703FD68
:1051500008B10134E4B2304802210022FDF7FBFC23
:1051600008B10134E4B22C4803210022FDF7F3FC1E
:1051700008B10134E4B2284804210022FDF7EBFC19
:1051800008B10134E4B2244805210022FDF7E3FC14
:1051900008B10134E4B2204806210022FDF7DBFC0F
:1051A00008B10134E4B21C4807210022FDF7D3FC0A
:1051B00008B10134E4B2184808210022FDF7CBFC05
:1051C00008B10134E4B2144809210022FDF7C3FC00
:1051D00008B10134E4B210480A210022FDF7BBFCFB
:1051E00008B10134E4B20C480B210022FDF7B3FCF6
:1051F00060B10B2C0AD100210A460848FFF78AFE4D
:105200000749084802F042FE012010BD0649054842
:1052100002F03CFE002010BD741B0020731B002018
:1052200035F70008B81B00206CF7000830B583483C
:105230008BB00C46824902F029FE0222214601A8C9
:1052400002F06EFF7F4904A802F003FF04A907A83B
:1052500002F043FF01A907A802F0F3FF01467748D7
:1052600002F00AFE07A802F0B2FE04A802F0AFFEA8
:10527000039D082D40F0EA80012304A801A9002223
:1052800003F07AF80A22002107A802F05AFF07A9C2
:1052900004A803F037F8021C18BF012200216A4855
:1052A000FDF759FC044607A802F091FE04A802F09D
:1052B0008EFE022304A801A9012203F05DF80A2250
:1052C000002107A802F03DFF07A904A803F01AF87F
:1052D000021C18BF012201215B48FDF73CFC05467A
:1052E00007A802F074FE04A802F071FE0DB10134AB
:1052F000E4B2032304A801A9022203F03DF80A2224
:10530000002107A802F01DFF07A904A802F0FAFF78
:10531000021C18BF012202214B48FDF71CFC054668
:1053200007A802F054FE04A802F051FE0DB10134AA
:10533000E4B2042304A801A9032203F01DF80A2201
:10534000002107A802F0FDFE07A904A802F0DAFF79
:10535000021C18BF012203213B48FDF7FCFB054658
:1053600007A802F034FE04A802F031FE0DB10134AA
:10537000E4B2052304A801A9042202F0FDFF0A22D9
:10538000002107A802F0DDFE07A904A802F0BAFF79
:10539000021C18BF012204212B48FDF7DCFB054647
:1053A00007A802F014FE04A802F011FE0DB10134AA
:1053B000E4B2062304A801A9052202F0DDFF0A22B7
:1053C000002107A802F0BDFE07A904A802F09AFF79
:1053D000021C18BF012205211B48FDF7BCFB054636
:1053E00007A802F0F4FD04A802F0F1FD0DB10134AC
:1053F000E4B2072304A801A9062202F0BDFF0A2295
:10540000002107A802F09DFE07A904A802F07AFF78
:10541000021C18BF012206210B48FDF79CFB054624
:1054200007A802F0D4FD04A802F0D1FD0DB10134AB
:10543000E4B204A801A907220823B3E3B81B0020A3
:10544000A3F70008C7F70008741B0020072D40F0E1
:10545000CD8000210A466448FDF77DFB012301A9A8
:105460000022044604A802F087FF0A22002107A8B0
:1054700002F067FE07A904A802F044FF021C18BF4F
:10548000012201215848FDF766FB054607A802F0F6
:105490009EFD04A802F09BFD0DB10134E4B202238D
:1054A00004A801A9012202F067FF0A22002107A82F
:1054B00002F047FE07A904A802F024FF021C18BF4F
:1054C000012202214848FDF746FB054607A802F0E5
:1054D0007EFD04A802F07BFD0DB10134E4B203238C
:1054E00004A801A9022202F047FF0A22002107A80E
:1054F00002F027FE07A904A802F004FF021C18BF4F
:10550000012203213848FDF726FB054607A802F0D3
:105510005EFD04A802F05BFD0DB10134E4B204238A
:1055200004A801A9032202F027FF0A22002107A8EC
:1055300002F007FE07A904A802F0E4FE021C18BF4F
:10554000012204212848FDF706FB054607A802F0C2
:105550003EFD04A802F03BFD0DB10134E4B2052389
:1055600004A801A9042202F007FF0A22002107A8CB
:1055700002F0E7FD07A904A802F0C4FE021C18BF50
:10558000012205211848FDF7E6FA054607A802F0B2
:105590001EFD04A802F01BFD0DB10134E4B2062388
:1055A00004A801A9052202F0E7FE0A22002107A8AB
:1055B00002F0C7FD07A904A802F0A4FE021C18BF50
:1055C000012206210848FDF7C6FA054607A802F0A1
:1055D000FEFC04A802F0FBFC0DB10134E4B204A807
:1055E00001A906220723DDE2741B0020062D40F0EE
:1055F000B38000210A46A748FDF7ADFA0121044611
:105600000022A448FDF7A7FA08B10134E4B201234F
:1056100004A801A9002202F0AFFE0A22002107A877
:1056200002F08FFD07A904A802F06CFE021C18BF4F
:10563000012202219748FDF78EFA054607A802F0DD
:10564000C6FC04A802F0C3FC0DB10134E4B202238D
:1056500004A801A9012202F08FFE0A22002107A856
:1056600002F06FFD07A904A802F04CFE021C18BF4F
:10567000012203218748FDF76EFA054607A802F0CC
:10568000A6FC04A802F0A3FC0DB10134E4B203238C
:1056900004A801A9022202F06FFE0A22002107A835
:1056A00002F04FFD07A904A802F02CFE021C18BF4F
:1056B000012204217748FDF74EFA054607A802F0BB
:1056C00086FC04A802F083FC0DB10134E4B204238B
:1056D00004A801A9032202F04FFE0A22002107A814
:1056E00002F02FFD07A904A802F00CFE021C18BF4F
:1056F000012205216748FDF72EFA054607A802F0AA
:1057000066FC04A802F063FC0DB10134E4B2052389
:1057100004A801A9042202F02FFE0A22002107A8F2
:1057200002F00FFD07A904A802F0ECFD021C18BF4F
:10573000012206215748FDF70EFA054607A802F098
:1057400046FC04A802F043FC0DB10134E4B204A805
:1057500001A90522062325E2052D40F09D800021A8
:105760000A464C48FDF7F7F9012104460022494852
:10577000FDF7F1F908B10134E4B2464802210022F4
:10578000FDF7E9F908B10134E4B2012304A801A945
:10579000002202F0F1FD0A22002107A802F0D1FC4C
:1057A00007A904A802F0AEFD021C18BF01220321C4
:1057B0003848FDF7D0F9054607A802F008FC04A810
:1057C00002F005FC0DB10134E4B2022304A801A9E2
:1057D000012202F0D1FD0A22002107A802F0B1FC4B
:1057E00007A904A802F08EFD021C18BF01220421A3
:1057F0002848FDF7B0F9054607A802F0E8FB04A821
:1058000002F0E5FB0DB10134E4B2032304A801A9C1
:10581000022202F0B1FD0A22002107A802F091FC49
:1058200007A904A802F06EFD021C18BF0122052181
:105830001848FDF790F9054607A802F0C8FB04A830
:1058400002F0C5FB0DB10134E4B2042304A801A9A0
:10585000032202F091FD0A22002107A802F071FC48
:1058600007A904A802F04EFD021C18BF0122062160
:105870000848FDF770F9054607A802F0A8FB04A840
:1058800002F0A5FB0DB10134E4B204A801A9042281
:10589000052387E1741B0020042D40F08380002144
:1058A0000A46A148FDF757F90121044600229E4807
:1058B000FDF751F908B10134E4B29B4802210022FE
:1058C000FDF749F908B10134E4B2974803210022F9
:1058D000FDF741F908B10134E4B2012304A801A99C
:1058E000002202F049FD0A22002107A802F029FC4B
:1058F00007A904A802F006FD021C18BF012204211A
:105900008948FDF728F9054607A802F060FB04A8BE
:1059100002F05DFB0DB10134E4B2022304A801A939
:10592000012202F029FD0A22002107A802F009FC49
:1059300007A904A802F0E6FC021C18BF01220521F9
:105940007948FDF708F9054607A802F040FB04A8CE
:1059500002F03DFB0DB10134E4B2032304A801A918
:10596000022202F009FD0A22002107A802F0E9FB49
:1059700007A904A802F0C6FC021C18BF01220621D8
:105980006948FDF7E8F8054607A802F020FB04A8DF
:1059900002F01DFB0DB10134E4B204A801A90322F9
:1059A0000423FFE0032D6AD100210A465E48FDF77B
:1059B000D2F80121044600225B48FDF7CCF808B17B
:1059C0000134E4B2584802210022FDF7C4F808B1BE
:1059D0000134E4B2544803210022FDF7BCF808B1B9
:1059E0000134E4B2504804210022FDF7B4F808B1B4
:1059F0000134E4B2012304A801A9002202F0BCFC96
:105A00000A22002107A802F09CFB07A904A802F0C3
:105A100079FC021C18BF012205214348FDF79BF8C1
:105A2000054607A802F0D3FA04A802F0D0FA0DB197
:105A30000134E4B2022304A801A9012202F09CFC73
:105A40000A22002107A802F07CFB07A904A802F0A3
:105A500059FC021C18BF012206213348FDF77BF8D0
:105A6000054607A802F0B3FA04A802F0B0FA0DB197
:105A70000134E4B204A801A90222032392E0022D1A
:105A800054D100210A462848FDF765F80121044653
:105A900000222548FDF75FF808B10134E4B222483E
:105AA00002210022FDF757F808B10134E4B21E4884
:105AB00003210022FDF74FF808B10134E4B21A487F
:105AC00004210022FDF747F808B10134E4B216487A
:105AD00005210022FDF73FF808B10134E4B20123AB
