:020000040800F2
:10000000082800204D01000863460008C936000892
:10001000614600080F200008B54B000800000000F2
:10002000000000000000000000000000314800084F
:1000300069200008000000006546000833480008F9
:1000400067010008670100086701000867010008F0
:1000500067010008670100086701000867010008E0
:1000600067010008670100086701000867010008D0
:1000700067010008670100086701000867010008C0
:1000800067010008670100086701000867010008B0
:1000900067010008670100086701000867010008A0
:1000A0006701000867010008670100086701000890
:1000B0006701000867010008670100086701000880
:1000C0006701000867010008670100086701000870
:1000D0006701000867010008A94B000867010008D4
:1000E0006701000867010008670100086701000850
:1000F0006701000867010008670100086701000840
:10010000670100086701000867010008670100082F
:100110006701000867010008CD4800086701000872
:10012000670100086701000867010008670100080F
:10013000DFF80CD000F082F8004800473951000881
:100140000828002080F30888704700000648804790
:1001500006480047FEE7FEE7FEE7FEE7FEE7FEE7AC
:10016000FEE7FEE7FEE7FEE78548000831010008EC
:10017000202A04DB203A21FA02F00021704721FAFC
:1001800002F3D040C2F12002914008431946704763
:100190000649074A0868504343F239021044086090
:1001A0004008704701490860704700004C0000207B
:1001B0006D4EC641D2B201E000F8012B491EFBD2C0
:1001C00070470022F6E710B513460A460446194662
:1001D000FFF7F0FF204610BD2DE9F05F0546002037
:1001E00092469B4688460646814640241BE02846A8
:1001F000414647462246FFF7BBFF53465A46C01AC0
:10020000914110D311461846224600F029F82D1AC4
:1002100067EB01084F4622460120002100F020F83C
:1002200017EB00094E41201EA4F10104DFDC484613
:1002300031462A464346BDE8F09F0000064C074D74
:1002400006E0E06840F0010394E8070098471034A6
:10025000AC42F6D3FFF770FF5855000878550008F8
:10026000202A04DB203A00FA02F100207047914076
:10027000C2F1200320FA03F319439040704710B5F0
:10028000044603F013FB200AA02101EB4000C0B29A
:1002900003F0DEFA03F04EFBE0B203F0D9FA03F00C
:1002A00049FB03F003FBA12003F0D2FA03F042FB69
:1002B000002003F083FA044603F05EFA03F018FB13
:1002C000204610BD70B50D46044603F0EFFA200A33
:1002D000A02101EB4000C0B203F0BAFA03F02AFB00
:1002E000E0B203F0B5FA03F025FB284603F0B0FABC
:1002F00003F020FB03F0FCFABDE870400A2002F096
:1003000087B9000010B50168124A1140B1F1005FD1
:1003100003D0016810A0114013E041680822B2EB3D
:10032000116F04D0406800F07F4113A009E04168DC
:1003300040F60102B2EB114F07D04068010C0904EE
:1003400017A004F0DDFC002010BD1FA004F0D8FCB5
:10035000012010BD0000FE2FD5BBB6A5B5D8D6B77D
:10036000B2BBBACFB7A8A3ACB4EDCEF3B5D8D6B76D
:10037000CEAAA3BA25580A00D6D0B6CFCFF2C1BFB5
:10038000B1EDB5D8D6B7B2BBBACFB7A8A3ACB4ED70
:10039000CEF3B5D8D6B7CEAAA3BA25580A00000026
:1003A000D6D0B6CFCFF2C1BFC6ABD2C6B5D8D6B7BE
:1003B000B2BBBACFB7A8A3ACB4EDCEF3B5D8D6B71D
:1003C000CEAAA3BA25580A00B3CCD0F2D0A3D1E963
:1003D000B3C9B9A60A0000002DE9FC410020374F3F
:1003E000019000903846FFF78DFF354E00282CD045
:1003F00001F036F8D0B13046FFF784FFB0B168465F
:1004000001F0DBF82FA13C48009A04F089FC3A493E
:100410003AA004F075FC009800F0C6F800F0ADF8C2
:1004200001A801F0FEF801A801F05BFB3449324855
:1004300004F076FC304931A004F062FC01F084FC49
:10044000384600F06AFFBDE8FC8101F009F801259B
:100450002C4C0028304614D0FFF754FFB8B1684642
:1004600001F0ABF828A12448009A04F059FC224975
:1004700022A004F045FC009800F096F800F07DF80A
:10048000DCE7FFF73FFF10B184F8905CDBE7A4F8EE
:10049000A05CC4F88C6C01A804F68C4401F057FBF6
:1004A00001A801F01EFB25712549134804F038FC12
:1004B000114912A004F024FCC5E700000000010867
:1004C000008002082852756E20415050204F4B2961
:1004D000204E65772050726F6772616D2073746F64
:1004E0007261676520617265612073697A65203A7F
:1004F00020307825580A0000501300202573000092
:100500005C530008441500202852756E204150505D
:10051000206578637029204E65772050726F67726E
:10052000616D2073746F726167652061726561200F
:1005300073697A65203A20307825580A0000000057
:10054000B053000870B50346002041F221044FF675
:10055000FF750FE013F8012B80EA02200022060449
:1005600003D584EA400080B201E005EA4000521C55
:10057000082AF4DB491EEDD270BD08B501208DF8C4
:10058000000002466946EB2000F0C9FE9DF800001D
:1005900038B100208DF8000001226946EB2000F000
:1005A000D1FE012008BD00002DE9F047154EC0F333
:1005B000CF27C0F34909144D00244FF4806812E09E
:1005C00042461249304604F04FF811A004F098FB5F
:1005D00042460E49284604F0EFFA641CA4B205F521
:1005E000006506F50066BC42EAD34A460749304634
:1005F00004F03AF84A460549284604F0DDFA01209D
:10060000BDE8F0870080020800000108C00000205B
:100610000A0AD7BCB1B8BFBDB1B4CAFDBEDD2E2E2B
:100620002E0A00002DE9F047484D494C4FF47A76E8
:1006300095F89A0C4FF001094FF0000841F2883705
:10064000F0B96069FFF7AEFDFFF7A2FD90FBF7F18F
:1006500007FB1100B0FBF6F1B0FBF6F206FB11034D
:10066000E06020613BA1A5F5FA7004F059FBA5F507
:10067000FA7147A004F044FB85F89A9CC4F80880FE
:10068000207880B995F8A30C68B16069FFF78AFDFE
:10069000FFF77EFD90FBF7F107FB110000F6B83085
:1006A000E06084F80090D4E9021081424CD395F8C0
:1006B000A31CB0FBF6F20029B0FBF6F106FB110318
:1006C0000ED034A1404804F02BFB3F4930A004F089
:1006D00017FB4BF6A12001F09FFAB5F89E5C18E0DD
:1006E0003AA1394804F01CFB374929A004F008FB63
:1006F0004BF6A02001F090FA84F80080424800F008
:1007000006FF95F8900C10B14FF4FA6504E0B5F8C7
:100710009C5C4FF47A7045436069FFF743FDFFF737
:1007200037FD90FBF7F107FB11002844E0602169D9
:1007300001F5FA72904203D200F5FA708142EBD3D0
:10074000E068C4F808802061BDE8F0874415002007
:100750003400002051756572792076616C756520D2
:100760006F662074686520666972737420637963AC
:100770006C6520616674657220626F6F74203A2028
:1007800025647320616E642025646D730A00000087
:100790002573000047657420746865207065726970
:1007A0006F642076616C7565206F662074686520C3
:1007B0007061636B6574203A2025647320616E64F8
:1007C0002025646D730A0000501300205175657276
:1007D000792064657669636520736F6674776172EA
:1007E000652076657273696F6E206379636C65202E
:1007F00076616C756573203A2025647320616E64A0
:100800002025646D730A0000E02100202DE9F843E3
:1008100004460027684600F004FF022104F10F009F
:1008200000F06AFDE27B9DF80000824204D1207C4A
:100830009DF80110884205D0237C99A1A54804F0B9
:100840006FFA5CE0A44DB4F80D00B5F89E2C41BAE7
:100850008A4210D040BA01F0C4F805F69E4000F07C
:100860002FFEB5F89E2C9DA19A4804F059FA99499B
:10087000A3A004F045FAA07D012800D0002085F84F
:10088000A20C618A4EBAC82E00D058B1A08AB5F821
:10089000A01C40BAA84681420FD09AA18D4804F00E
:1008A0003FFA2CE0A6498B4804F03AFA894994A013
:1008B00004F026FA0520BDE8F883E57DA1A11835EE
:1008C0002A46844804F02CFA82498DA004F018FAD4
:1008D00098F8A20CC146C0B1A8191FFA80F8601997
:1008E0004FEA0601FFF72EFE024604EB08000088DF
:1008F00040BA90420ED09FA1764804F011FA754993
:100900007FA004F0FDF90420D5E7601905F1C808BF
:10091000C821E7E7A5A16F4804F002FA6D4978A065
:1009200004F0EEF92E4425E0F80719D0B9F8882C28
:1009300009EB4201521CA9F8882C0A89635D42EA3E
:1009400003220A81B9F8881C09EB41009BA1C288E7
:10095000604804F0E5F95F4969A004F0D1F905E0C9
:10096000B9F8882C615D09EB420001817F1C6D1C88
:10097000BFB2ADB2AE42D7D84C46B9F8882C0223EC
:100980008FA1544804F0CCF952495DA004F0B8F9A5
:10099000B4F8A00C401CA4F8A00C94F8A20C20B948
:1009A000B4F8880CB0F5487F78D1B4F8882C0223CD
:1009B0008DA1484804F6884404F0B2F9454950A096
:1009C00004F09EF9444922880831606801F01AFB5E
:1009D00021886068002500EB410060602580208B45
:1009E00000F0C6FF606801F0E8F8A07EA4F6884435
:1009F000002853D08A4E84F8A25C3046FFF782FC70
:100A000001004FF001074BF6B1202FD084F8B45C01
:100A100004F68C4401F000F9206871420844FFF7A5
:100A2000C3FD3046266001F0C8F83846A78200F0C2
:100A30009FFF684601F055F87AA1264804F070F946
:100A400024492FA004F05CF97E4C62687EA1214805
:100A500004F066F91F492AA004F052F901F074F974
:100A6000204600F05AFC01F063F917E0042184F8F5
:100A7000B41C04F68C4401F0CFF87E49154804F00C
:100A80004FF914491EA004F03BF93046266001F0EE
:100A900094F83846A78200F06BFFE57500200AE75E
:100AA00054686520736F667477617265207665722D
:100AB00073696F6E206F6620746865207061636B68
:100AC0006574206973203A2025582D2558204552F9
:100AD00052210A005013002044150020476574205D
:100AE0006E6577206669726D7761726520637963E0
:100AF0006C652076616C75653A20256420730A0068
:100B000025730000546865206669726D77617265AF
:100B1000207061636B616765206F7264657220731A
:100B2000656E7420627920746865207365727665DD
:100B30007220697320696C6C6567616C210A000022
:100B4000745200085265636569766564207468654F
:100B50002066697273742061646472657373206FB8
:100B60006620746865207061636B6574203A202587
:100B7000640A00005061636B657420636865636B91
:100B800020636F6465206572726F722120546865FE
:100B9000206C6F63616C20636865636B20636F64B6
:100BA00065206973203A2025580A00005072696E4A
:100BB0007465642064617461203A0A00255820003D
:100BC0000A436F70696564202564206C656E6774E4
:100BD000682C202564206279746520747970652002
:100BE000646174610A000000507265706172652072
:100BF000746F2077726974652025642073697A6543
:100C00002C202564206279746520747970652064D5
:100C100061746120746F20464C4153480A00000003
:100C2000008002085072657061726520746F206ADE
:100C3000756D70206E65772070726F6772616D736D
:100C40000A00000000000108546865207365636FA6
:100C50006E6420736574206F6620666F7572206203
:100C60007974652076616C756573203A2025580A81
:100C700000000000B852000870B500220A230BE003
:100C8000845CB4FBF3F5B4FBF3F603FB164404EB0E
:100C900005148454521CD2B28A42F1D370BD0000B4
:100CA0002DE9F047834D0027078004462B680E4648
:100CB0000120FE212080197020882B6800F1010C92
:100CC000310AA4F800C0195420882B68411C2180E7
:100CD0001E5400202918D5F800C091F8913C2188B5
:100CE000401C01F10108A4F80080C0B20CF80130EA
:100CF0000528EFD320882B6800F1010C110AA4F815
:100D000000C0195420882968431C23800A54208875
:100D10002B6800F1010CC021A4F800C019542088F0
:100D20002B6800F1010C0321A4F800C0195420889D
:100D30002B68411C21801F545F4802F25F524FF024
:100D4000E1098046B2F540423CD00F2A02D0102A79
:100D500074D16CE020882A68411C218017545648C1
:100D6000801D00F0D4FBB5F89C0C2A68010A20888D
:100D7000431C2380115422882B6895F89C0C511C2D
:100D800021809854404600F0EBFB04214046FFF7D9
:100D900073FF0020C8462918228891F8963C511C00
:100DA000D5F800C02180C1070CF8023005D0228898
:100DB0002B68511C218003F80280401CC0B204281B
:100DC000E9D33BE000F02DFC04214046FFF754FF3F
:100DD00020882B6895F8962C411C21801A54218874
:100DE0002B6895F8972C481C20805A5421882B6832
:100DF000481C208003F8019020882A68411C21802B
:100E0000175420882A68431CC82123801154B5F840
:100E1000A00C2B68020A2088411C21801A542188CA
:100E20002B6895F8A00C4A1C2280585406E02088B4
:100E30002B6895F8B42C411C21801A5420882B680B
:100E4000411C0B2221801A5400202918228891F875
:100E5000A43C511CD5F800C0401C2180C0B20CF845
:100E600002300B28F1D320882A68411C21801754B6
:100E700028683146C01CFFF765FB21882E684A1C94
:100E8000030A2280735421882B684A1C22805854FC
:100E90000020C1070BD00A2321882E684A1C401C61
:100EA0002280C0B273540628F3D3BDE8F0870D2327
:100EB000F2E7000044150020DA21002070B5044656
:100EC000332004F0C6F80025552806D000216554CB
:100ED000491CC9B20929FAD302E0204604F0BBF844
:100EE000412004F0B6F8552801D0657203E004F102
:100EF000090004F0B0F8A57270BD000038B5174CB9
:100F00000246A2F108036068D21E0344B0F8011043
:100F10001B8849BA5DBA914201DD012038BDC01C71
:100F2000FFF710FBA8420DD00DA0009040F24D231A
:100F300012A216A1204803F0F3FE1F491FA003F0E0
:100F4000DFFEEAE76068817AC02902D1C07A03280F
:100F500001D0032038BD002038BD0000441500201A
:100F60002E2E5C62745F7372635C626F6F745F706D
:100F7000726F746F636F6C2E6300000043524331D5
:100F80003620636865636B206572720042542045A9
:100F90005252204D53473A20222573222065727207
:100FA0006F72206174206C696E65205B25645D2022
:100FB000696E2025730A000050130020257300007D
:100FC0002DE9F84F00250E4680462F46A9462C46AF
:100FD0004FF6FF7A37E000BF18F8042010090FD051
:100FE00036A1374803F09CFE354936A003F088FE51
:100FF00045B118F804000D2811D00A2814D01EE0BD
:1010000031A1EEE798F80000FE2804D018F804009B
:10101000FE2802D015E0554613E0254611E05FEAB0
:10102000C97004D001200BE05FEAC97007D009F154
:10103000010000F0FF09B9F1060F1ED001E0002009
:101040008146641CA4B23088A042C5D820A11C48A7
:1010500003F066FE1A491BA003F052FE7FB155450E
:1010600000D10025781B401C80B2308004F094F839
:101070001849486030B100201AE02746E6E703200F
:10108000BDE8F88F14A0009040F22E2319A220A1F1
:101090000B4803F045FE0A490AA003F031FE012087
:1010A000EEE700BF4B6818F800201A54401C80B2CD
:1010B00032888242F6D80020E2E70000255820005E
:1010C0005013002025730000302558200000000038
:1010D000207D0A00441500202E2E5C62745F73721E
:1010E000635C626F6F745F70726F746F636F6C2E8E
:1010F00063000000706672616D65206170706C79CC
:1011000020666F72206D656D6F7279206572720056
:10111000425420455252204D53473A2022257322F3
:10112000206572726F72206174206C696E65205B3D
:1011300025645D20696E2025730A000070B50546A0
:1011400000200246E0240CE0AB5C58400023C607B8
:1011500002D084EA500000E040085B1C082BF6DB5C
:10116000521C8A42F0DB70BDF8B54BF6A322811AFF
:10117000904213D007DC00F5AC60B0F5404007D0DA
:1011800002281AD108E00D2904D00E2915D107E054
:101190000E2406E0172404E0132402E0182400E0E3
:1011A0000F24234E601E71680A5C0B2A07D021A110
:1011B000A6F5FA7003F0B4FD35E00020F8BD0B2071
:1011C00003F0EAFFC6F8B00C20B325A12D4803F0C8
:1011D000A7FD2C492CA003F093FD00257068611930
:1011E000425CD6F8B00C29A14255264803F098FD80
:1011F000244925A003F084FD6D1CEDB20B2DEDD329
:1012000023A1204803F08CFD1E491FA003F078FDA8
:101210000120F8BD1FA0009040F2772324A22BA14B
:10122000184803F07DFD174917A003F069FDC4E7D6
:1012300044150020546865206C656E677468206FE3
:1012400066205265736572766564206269742069F0
:1012500073203A2025642C204572726F72210A0097
:101260000A5468652064617461206F66205265735A
:10127000657276656420626974206973203A200A79
:1012800000000000501300202573000025582000A6
:101290000A0000002E2E5C62745F7372635C626FE2
:1012A0006F745F70726F746F636F6C2E63000000F9
:1012B0004D656D6F7279206170706C6963617469DE
:1012C0006F6E206661696C656421000042542045A0
:1012D0005252204D53473A202225732220657272C4
:1012E0006F72206174206C696E65205B25645D20DF
:1012F000696E2025730A000010B500220AE0845CA4
:10130000230904F00F0403EB830304EB430383542A
:10131000521CD2B28A42F2D310BD02F039BB2DE981
:10132000F04115460E460746002406E03846791C73
:10133000CFB2FEF7A4FF3055641CAC42F6D30120B7
:10134000BDE8F0812DE9F04115460E46074600F054
:10135000DFFE002406E038467A1C315DD7B2FEF786
:10136000B1FF641CAC42F6D300F0CAFE0120BDE818
:10137000F081000010B51B4CC4F8BC0C04F6A4406E
:1013800004F68844FFF79AFD00202080A076A07420
:10139000E0762072144800F093F81348123800F0F9
:1013A0006DF91148801C00F064F810A119486268BA
:1013B00003F0B6FC174918A003F0A2FC228B17A17A
:1013C000144803F0ADFC134913A003F099FCE28A22
:1013D0001AA1104803F0A4FCBDE810400D490EA06E
:1013E00003F08EBC44150020E22100204375727288
:1013F000656E746C7920777269746520464C415330
:10140000482061646472657373203A2030782558EF
:101410000A0000005013002025730000437572720B
:10142000656E74207061636B6167652073657175AB
:10143000656E6365203A2025640A00004669726D76
:101440007761726520676574206379636C652076C7
:10145000616C7565203A20256420730A0000000045
:1014600008B501226946EB20FFF759FF9DF80000FF
:1014700008BDFEB50446012202A9DA20FFF74FFF9E
:101480009DF808000125552812D1022201A9D72074
:10149000FFF745FF022101A8FFF750FE0646012293
:1014A0006946D920FFF73BFF9DF80000864201D036
:1014B000258003E0BDF8040040BA20800120FEBD75
:1014C000FEB50446012202A9F520FFF728FF9DF88A
:1014D00008000A25552812D1022201A9F220FFF79F
:1014E0001EFF022101A8FFF729FE064601226946D8
:1014F000F420FFF714FF9DF80000864201D02580FC
:1015000003E0BDF8040040BA20800120FEBD3EB5D6
:101510000446012202A9D620FFF701FF9DF808002A
:10152000552801D0052018E0022201A9D320FFF799
:10153000F6FE022101A8FFF701FE054601226946D9
:10154000D520FFF7ECFE9DF80000854202D04FF455
:10155000167002E0BDF8040040BA208001203EBDB4
:101560007CB50446012201A9E620FFF7D8FE9DF8CC
:101570000400552812D102222146E120FFF7CFFEB8
:1015800002212046FFF7DAFD054601226946E520E3
:10159000FFF7C5FE9DF8000085420CD000221046E2
:1015A000A054521CD2B2022AFAD39DF80400552846
:1015B00001D000207CBD01207CBDFEB50446012287
:1015C00002A9F120FFF7ABFE9DF808000025552881
:1015D00001D02560FEBD04226946EC20FFF79FFE86
:1015E00004216846FFF7AAFD0646012201A9F02062
:1015F000FFF795FE9DF804008642EAD19DF80000B1
:10160000000620609DF8011040EA014020609DF82E
:10161000021040EA012020609DF80310084320607A
:10162000FEBD7CB50446012201A9EA20FFF777FE42
:101630009DF80400552812D102222146E720FFF729
:101640006EFE02212046FFF779FD0546012269461C
:10165000E920FFF764FE9DF8000085420AD00022D1
:101660001046A054521CD2B2022AFAD39DF80400AC
:10167000552801D001207CBD00207CBDFEB504466C
:10168000012202A9E020FFF74AFE9DF80800164D4E
:10169000552801D02560FEBD04226946DB20FFF7F6
:1016A0003EFE04216846FFF749FD0646012201A9D6
:1016B000DF20FFF734FE9DF804008642EAD19DF852
:1016C0000000000620609DF8011040EA0140206003
:1016D0009DF8021040EA012020609DF803100843A5
:1016E0002060A842D6D3FEBD008002082DE9F0415B
:1016F0000A46064600257249104600F031FB0028D4
:1017000035D0704CB4F8B60C002830D004F6B64191
:101710003046FFF755FC48BB6068007B012801D0CC
:1017200055280BD1B4F8B60CFFF7E8FB84F8B40CDD
:101730004BF6B12718B1384600F06EFA9EE06068AB
:10174000008946BA3046FFF70FFD78B13046D4F82D
:10175000B01C00F00BF984F8B40CD4F8B00C03F012
:10176000C3FC94F8B40C0028E8D102E00320BDE8E3
:10177000F0816168C21C895C2218401CC0B282F8EA
:10178000911C0528F5D34BF6A3223046B11A4E4ED4
:1017900090425CD007DC00F5AC60B0F5404007D06B
:1017A00002286BD135E00D290FD00E2966D169E0F2
:1017B0004BF6B02000F030FA44A14E4803F0B0FAE6
:1017C0004C494DA003F09CFA75E0384600F024FA2D
:1017D0004AA1484803F0A4FA464947A003F090FA0A
:1017E0000020C10702D108B16D1CEDB205F1100156
:1017F00062686D1CEDB2515C2218401CC0B282F8C8
:10180000961C0428EDD36068C08940BA00F029F91D
:1018100017E0384600F000FA41A1364803F080FA9C
:10182000344935A003F06CFA5FF00000626800F103
:101830000E01515C2218401CC0B282F8961C02288E
:10184000F4D36068417B304600F018FB33E094F835
:10185000A30C80B325466068FEF7D8FF85F8B40C6A
:10186000384600F0D9F937A1224803F059FA214946
:1018700021A003F045FA95F8B40CE0B1606803F0DC
:1018800033FC73E760683749427B1A4803F048FA33
:10189000184919A003F034FA6068407B0B280AD17C
:1018A0003149144803F03CFA124913A003F028FA16
:1018B000002184F8A31C606803F016FC002056E7A2
:1018C0003800002044150020DA2100200A52656308
:1018D00065697665642073657276657220717565D9
:1018E00072792076657273696F6E206672616D65BC
:1018F0000A00000050130020257300000A5265639F
:10190000656976656420536F6674776172652076C9
:10191000657273696F6E206672616D650A00000002
:101920000A72656365697665732074686520666F01
:101930007263652075706772616465206672616D9F
:10194000650A00000A526563656976656420646112
:101950007461207061636B6574206672616D650AE5
:1019600000000000B4540008105300080020704725
:101970003EB5044602226946D720FFF7D0FC9DF809
:101980000010E0B2B1EB142F03D19DF80110814299
:1019900025D0210A8DF800108DF80100022168463B
:1019A000FFF7CCFB8DF8080002226946D720FFF72D
:1019B000C9FC012202A9D920FFF7C4FC012201A918
:1019C000DA20FFF7ACFC9DF80400552807D055201D
:1019D0008DF80400012201A9DA20FFF7B3FC0120F1
:1019E0003EBD3EB5044655208DF8080002226946EA
:1019F000F220FFF794FC9DF80010E0B2B1EB142F39
:101A000005D19DF80110814201D101203EBD210A7E
:101A10008DF800108DF8010002216846FFF78EFB5B
:101A20008DF8040002226946F220FFF78BFC0122A8
:101A300001A9F420FFF786FC02226946F220FFF795
:101A40006EFC02216846FFF779FB9DF80410814285
:101A500001D000203EBD012202A9F520FFF772FC53
:101A6000D3E73EB5044655208DF8080002226946AA
:101A7000D320FFF754FC9DF80010E0B2B1EB142F17
:101A800005D19DF80110814201D101203EBD210AFE
:101A90008DF800108DF8010002216846FFF74EFB1B
:101AA0008DF8040002226946D320FFF74BFC012287
:101AB00001A9D520FFF746FC02226946D320FFF793
:101AC0002EFC02216846FFF739FB9DF80410814285
:101AD00001D000203EBD012202A9D620FFF732FC32
:101AE000D3E73EB5044655258DF80050022201A9E2
:101AF000E120FFF714FC9DF804002178884204D10E
:101B00009DF80500617888421FD002222146E1201D
:101B1000FFF718FC02212046FFF710FB8DF80800A4
:101B2000012202A9E520FFF70DFC01226946E6200B
:101B3000FFF7F5FB9DF80000552806D08DF8005002
:101B400001226946E620FFF7FDFB01203EBD3EB5C0
:101B5000044655258DF80050022201A9E720FFF721
:101B6000DEFB9DF804002178884204D19DF8050031
:101B7000617888421FD002222146E720FFF7E2FB6E
:101B800002212046FFF7DAFA8DF80800012202A9A7
:101B9000E920FFF7D7FB01226946EA20FFF7BFFBE8
:101BA0009DF80000552806D08DF8005001226946A6
:101BB000EA20FFF7C7FB01203EBD0EB5010E8DF8F0
:101BC0000010010C8DF80110010A8DF802108DF83B
:101BD000030004226946DB20FFF7B4FB04216846BA
:101BE000FFF7ACFA8DF80800012202A9DF20FFF709
:101BF000A9FB012201A9E020FFF791FB9DF8040059
:101C0000552807D055208DF80400012201A9E020B5
:101C1000FFF798FB0EBD00007CB505460020ADF82F
:101C200004000B24A5F53A40A03806D0012808D0BE
:101C3000102804D0112807D105E0222404E02B2429
:101C400002E0292400E02324224617A11C4803F0C7
:101C500067F81B491BA003F053F8204603F09CFAD9
:101C6000194E306080B10B3CA1B22A4601A8FFF7A3
:101C700017F8D6F8BC2CBDF80410306890473068CF
:101C800003F032FA00207CBD10A0009040F29B13BC
:101C900015A21CA10A4803F043F8094909A003F062
:101CA0002FF801207CBD000053656E6420667261D0
:101CB0006D652073697A65203D2025640A00000067
:101CC0005013002025730000441500202E2E5C6266
:101CD000745F7372635C626F6F745F70726F746F46
:101CE000636F6C2E63000000706672616D65206129
:101CF00070706C7920666F72206D656D6F727920DF
:101D000065727200425420455252204D53473A208A
:101D100022257322206572726F72206174206C69B3
:101D20006E65205B25645D20696E2025730A0000C6
:101D300010B5044801F043FABDE81040262000F039
:101D400030BF0000000B002010B5044801F048FA35
:101D5000BDE81040262000F013BF0000000B00205B
:101D6000F8B50288002A44D0234A0124002355787C
:101D70000DB954700B800988D57855EAC1761ED00C
:101D8000CC071FD0F5B1D3700488D588AC4219D1E7
:101D900095786D1CEDB29570022D13D39370174991
:101DA0005370D380A1F8B64C038015A1194802F0F6
:101DB000B7FF184918A002F0A3FF0120F8BD05885D
:101DC000D580D4705478A4B1B1F5FA7F11D953708D
:101DD0009370D3700380D38010A000904FF47C7375
:101DE00015A21BA10B4802F09BFF0A490AA002F0B2
:101DF00087FF0020F8BD00003400002044150020BB
:101E0000526563656976656420646174613A207B1C
:101E10002000000050130020257300002E2E5C626D
:101E2000745F7372635C626F6F745F70726F746FF4
:101E3000636F6C2E630000005265636569766520F0
:101E4000646174612074696D656F757421000000B0
:101E5000425420455252204D53473A2022257322A6
:101E6000206572726F72206174206C696E65205BF0
:101E700025645D20696E2025730A0000F8B50F46C1
:101E800004460221FFF738FA2088637846BA2278A0
:101E900031A13C4802F044FF3A493BA002F030FF38
:101EA0006846FFF75DFBBDF8000038A145BAEBB20C
:101EB0002A0A344802F034FF324933A002F020FFEE
:101EC000AE4201D8002F3DD06846FFF7AAFB9DF82F
:101ED00000002178364D0126884204D19DF801008A
:101EE0006178884223D03349264802F019FF2549FA
:101EF00025A002F005FF9DF801309DF800202EA1DD
:101F0000204802F00DFF1F491FA002F0F9FE2046F5
:101F1000FFF71DFE0020A5F8880C3348C5F88C0C8F
:101F2000FFF74BFE3046A5F8A06CFFF721FD2F49C7
:101F3000144802F0F5FE134913A002F0E1FE85F803
:101F4000A36CF8BD2AA10F4802F0EAFE0D490EA0CD
:101F500002F0D6FEF8BD0000536F667477617265BB
:101F60002076657273696F6E206E756D6265722082
:101F70007265636569766564203A2025642D256461
:101F80000A000000501300202573000052756E6E89
:101F9000696E6720736F667477617265207665720B
:101FA00073696F6E203A2025642D25640A000000B5
:101FB0004415002034540008536F667477617265CD
:101FC0002076657273696F6E206F662074656D7020
:101FD0006F726172792073746F72616765203A2045
:101FE00025642D25640A00000080020804550008BD
:101FF0004E6F206E6577206669726D776172650A33
:102000000000000010B502F0D7FD012010BDFEE772
:102010001449B0F5964F20D00DDCB0F5966F16D070
:10202000B0F5166F15D0B0F5965F14D0B0F5165F09
:102030000CD1502014E0B0F5164F10D01422B0F59A
:10204000614F02D0B0F5E13F00D14A807047DC20FB
:1020500006E0782004E0642002E0282000E01E2052
:102060004880704714000020704700001B4810B5DE
:10207000816986B041F480418161816901F48041C8
:102080000491816941F0040181618069144C00F080
:10209000040004900220019003200390012002908C
:1020A000400200906946204600F006FC2015009092
:1020B0006946204600F000FC0B480A4908220160EE
:1020C0004FF4E131416000218160C160C0E9041238
:1020D0008161C16101F00CFA06B010BD0010024030
:1020E000000801400038014080000020002100EB82
:1020F000C00000E0491CB1EBC00FFBD370470000EB
:1021000001222021014800F0D8BC0000000C014051
:1021100000222021014800F0D0BC0000000C01404A
:102120000E4810B5816986B041F00801816180696F
:102130000B4C00F008000490012001900320039054
:10214000202000906946204600F0B6FB01222021A5
:10215000204600F0B2FC06B010BD000000100240A6
:10216000000C014010B55820FEF789F8002809D06E
:10217000FFF7CEFF00215820FEF7A4F8BDE810407D
:10218000FFF7BEBF10BD00007CB5064600246D46BB
:1021900004F14F00FEF773F82855641CE4B2082CD4
:1021A000F6D30821684600F085F904465720FEF76B
:1021B00066F884424FF0000009D1295C3154401C7C
:1021C000C0B20828F9D302A002F09AFD01207CBD1C
:1021D00052656164204C6F52612041646472204FEB
:1021E0004B2E2E2E0A00000038B54C20FEF747F883
:1021F0008DF800000121684600F05CF904464E208D
:10220000FEF73DF8A04202D19DF8000038BDF02055
:1022100000F056F8F02038BD7CB50646FFF778FF91
:102220000821304600F046F90546002404F14F002D
:10223000315DFEF747F8641CE4B2082CF6D329465A
:102240005720FEF73FF800244FEA0D0604F14F0037
:10225000FEF715F83055641CE4B2082CF6D30821BB
:10226000684600F027F9854205D0FFF77BFFFFF7AE
:1022700047FF00207CBD03A002F042FD00F00EF8F5
:1022800001207CBD53617665204C6F526120416412
:102290006472204F4B2E2E2E0A00000010B55820DD
:1022A000FDF7EDFF552809D0FFF732FF55215820E3
:1022B000FEF708F8BDE81040FFF722BF10BD000090
:1022C00001B59DF80000F02805D0F12803D016A034
:1022D00002F016FD25E04C20FDF7D1FF9DF800101F
:1022E000884201D1012008BDFFF712FF9DF80010C0
:1022F0004C20FDF7E7FF0121684600F0DBF80146BE
:102300004E20FDF7DFFF4C20FDF7B9FF9DF80010D0
:10231000884204D100F024F8FFF7F2FEE2E7FFF76D
:10232000EFFE002008BD000053617665204C6F521F
:102330006120636F6D6D756E69636174696F6E2086
:102340006D6F646520457272203C536176655F4C09
:102350006F52615F436F6D5F4D6F64653E0A0000B1
:1023600010B54D20FDF78BFF55280CD0FFF7D0FEA0
:1023700055214D20FDF7A6FFFFF7C2FE0020FDF717
:102380007EFF002800D0012010BD10B55820FDF7B9
:1023900076FF552801D0002010BD012010BD00009F
:1023A00006490020C8610648016941F00401016145
:1023B000016941F0400101617047000060000020A8
:1023C00000200240064A0021D16106490A6942F014
:1023D00002020A614861086940F0400008617047E4
:1023E0006000002000200240044B0022DA61044A11
:1023F000136943F0010313610180704760000020FE
:102400000020024014480022C168CB06134904D5BD
:10241000CA6942F00202CA611022C3685B0705D58F
:10242000CB6943F00103CB6142F00402C369DB07CF
:1024300007D0CB6943F00403CB61C16921F00101EE
:10244000C161A2F58071013901D0C2607047C169D4
:1024500021F00101C16170470020024060000020AE
:1024600070B5054600F02EFB0646114C09E0681CCD
:1024700007D025B100F026FB801BA84201D903201C
:1024800070BDE068C007F2D1E068800601D5202069
:10249000E060E068C00605D4E069C00702D1E068EA
:1024A000400703D5FFF7AEFF012070BD002070BDCF
:1024B0000020024070B5054600200246E0240CE0F2
:1024C000AB5C58400023C60702D084EA500000E00D
:1024D00040085B1C082BF6DB521C8A42F0DB70BD07
:1024E0002DE9F05F90F821100024022903D0042187
:1024F0008163012485E001680A6822F00E020A6007
:1025000001680A6822F001020A603F4E3E4FB21590
:10251000DFF8F4C0DFF8F090DFF8ECA0DFF8E8B007
:10252000DFF8E4E00168783F13011502ACF1640CB8
:10253000A9F15009AAF13C0AABF1280BAEF1140E37
:102540004FF48018B14227D9B9420ED0614512D05C
:1025500049451DD0514518D0594518D0714501D174
:10256000424615E0294EB14201D1012210E0274E2A
:102570001436B14201D110220AE0244E2836B1426D
:1025800006D0224A3C32914201D11A4600E02A4646
:102590001E49091F0A602BE0B94213D0614517D0CC
:1025A000494522D051451DD059451DD0714501D115
:1025B00042461AE0B14202D14FF0807215E0134E4C
:1025C000B14201D1012210E0104E1436B14201D1C6
:1025D00010220AE00D4E2836B14206D00B4A3C329A
:1025E000914201D11A4600E02A46074980394A60E3
:1025F000012180F82110002180F82010416B01B1E9
:1026000088472046BDE8F09F800002400804024051
:1026100070B5044600F056FA0546601C02D0044826
:102620000078044400F04EFA401BA042FAD370BD7B
:10263000000000202DE9F047054626480F460126F8
:10264000017E01290FD00121814601762868DFF83B
:1026500088804CF25034022808D0A2462046FFF76A
:10266000FFFEA8B131E00220BDE8F0872046FFF769
:10267000F7FE08BB0120FFF793FE2046FFF7F0FEB0
:10268000D8F81010064621F00401C8F810101CE01C
:102690004FF0FF303860AC6811E02046FFF792FE43
:1026A0005046FFF7DDFED8F81010060021F00201B9
:1026B000C8F8101001D03C6007E004F50064D5E9CB
:1026C000020100EBC120A042E7D8002189F81810D0
:1026D0003046C9E76000002000200240034801693D
:1026E00041F080010161002070470000002002409D
:1026F0002DE9F05F07461C4888460024017E1546F8
:102700001E46012909D00121814601764CF2503A3A
:102710005046FFF7A5FE18B122E00220BDE8F09F69
:10272000012F02D0022F00D00427D346DFF83CA0AF
:10273000220128463146FDF71BFD81B208EB44001B
:10274000FFF752FE5846FFF78BFEDAF8102022F012
:102750000102CAF8102018B9641CE4B2BC42E7D3E5
:10276000002289F81820D9E76000002000200240EC
:10277000064900200A69120607D5054A4A60054A3B
:102780004A600969090600D501207047002002400F
:1027900023016745AB89EFCD2DE9F04300233E4F80
:1027A0000F2574E001229A400A406ED023F0030402
:1027B000E619D6F808809C074FEA147C05FA0CF954
:1027C00009EA0804DFF8D480404502D14FF0000840
:1027D00024E0DFF8CC80404502D14FF001081DE035
:1027E000DFF8C080404502D14FF0020816E0DFF864
:1027F000B880404502D14FF003080FE0DFF8AC800D
:10280000404502D14FF0040808E0DFF8A4804045BD
:1028100002D14FF0050801E04FF0060808FA0CF865
:10282000A04515D1D6F808C02CEA090CC6F808C096
:10283000204E346894433460341D266896432660E5
:10284000241D266896432660241D2668964326602C
:10285000FF2A01D8064601E000F104064FEA83048E
:1028600001D9A4F12004D6F800C005FA04F82CEA36
:10287000080C4FF0040808FA04F84CEA080CC6F8F3
:1028800000C0C46824EA0204C46003F1010331FA01
:1028900003F287D1BDE8F083000001400008014049
:1028A000000C0140001001400014014000180140DC
:1028B000001C0140000401402DE9F84FDFF8C891E9
:1028C000002409F1040A0AF1040B23460F270BF137
:1028D000040ED1E00125A54006EA0502AA4276D100
:1028E000DFF8A8C14E68A6EB0C0866452BD00DDCBE
:1028F000032E34D005DC36B3012E19D0022E2FD191
:102900001BE0112E16D0122E2AD119E0B8F5881F1F
:1029100019D006DCB8F5803F15D0B8F5801F1FD15F
:1029200011E0B8F5001F0ED0B8F5041F18D10AE069
:10293000CB6815E0CB681B1D12E0CB6808330FE0B5
:10294000CB680C330CE08B682BB1012B4FF00803E4
:1029500003D0456104E0042302E0056100E00023A8
:10296000FF2A01D8064601E000F104064FEA84057B
:1029700001D9A5F12005D6F8008007FA05FC28EA60
:102980000C0803FA05F548EA0508C6F800804D680A
:10299000ED0070D53E4DAE6946F00106AE61AD6901
:1029A00024F0030605F0010500953A4D06EB050CF1
:1029B000DCF80850A607360F07FA06F825EA0805DE
:1029C000DFF8D480404503D14FF0000825E052E005
:1029D000DFF8C880404502D14FF001081DE0DFF864
:1029E000C080404502D14FF0020816E0DFF8B48005
:1029F000404502D14FF003080FE0DFF8AC804045BE
:102A000002D14FF0040808E0DFF8A080404502D171
:102A10004FF0050801E04FF0060808FA06F848EA0A
:102A20000508CCF808804D68D9F80060ED034D46E4
:102A300001D5164300E096432E604D68DAF8006039
:102A4000AD03554601D5164300E096432E604D6810
:102A5000DBF80060ED025D4601D5164300E09643C9
:102A60002E604D68DEF80060AD02754601D5164354
:102A700000E096432E60641C0A681646E2407FF42C
:102A800029AFBDE8F88F00000004014000001110DC
:102A9000001002400000014000080140000C01400D
:102AA000001001400014014000180140001C0140CA
:102AB0008068084000D0012070470AB1016170476A
:102AC0000904FBE70148806870470000000000200F
:102AD000024881680278114481607047000000203C
:102AE000074810B5016841F010010160032000F0B3
:102AF00085F8002000F006F800F024F8002010BD52
:102B00000020024070B50D4D04464FF47A712878CC
:102B1000B1FBF0F00A490968B1FBF0F000F0FCFAF3
:102B200048B9102C07D200222146501E00F046F86A
:102B300000206C6070BD012070BD0000000000200E
:102B40000C0000200C4808B5816941F00101816149
:102B5000816901F001010091C16941F08051C161B9
:102B6000C06900F0805000900448416821F0E061A5
:102B700041F08061416008BD00100240000001404A
:102B800000280DDB00F01F02012191404009800068
:102B900000F1E020C0F88011BFF34F8FBFF36F8FBB
:102BA0007047002809DB00F01F0201219140400915
:102BB000800000F1E020C0F800117047F0B40E4B27
:102BC0001B680C46C3F30223C3F10705042D00D98B
:102BD0000425191D072901D2002300E0DB1E012670
:102BE00006FA05F1491E214099409E40761E164086
:102BF0003143F0BC02F0A8B80CED00E0064900F04B
:102C0000070208684FF6FF03184040EA0220034A13
:102C100010430860704700000CED00E00000FA056A
:102C20002DE9F0470F46050061D0434E306800F0B3
:102C30000700B84209D2306820F0070038433060FE
:102C4000306800F00700B84251D128683B4C81073A
:102C500012D5400703D5606840F4E06060602878D2
:102C6000000703D5606840F4605060606068A96840
:102C700020F0F000084360602878C00728D068681A
:102C8000012810D02168022810D0890700292EDAE7
:102C9000616821F0030101436160FFF713FF804683
:102CA00041F288390DE021688903EFE78901EDE7FA
:102CB000FFF708FFA0EB0801494502D90320BDE852
:102CC000F0876068696800F00C00B0EB810FEFD10D
:102CD000306800F00700B8420BD9306820F00700D8
:102CE00038433060306800F00700B84201D001205E
:102CF000E5E72878400705D56068E96820F4E060DA
:102D0000084360602878000706D56068296920F4C8
:102D1000605040EAC100606000F038F86168084A1D
:102D2000C1F30311515CC8400649086006480068B9
:102D3000FFF7E8FE0020C2E700200240001002403A
:102D4000045200080C00002004000020044805493B
:102D500000684968044AC1F30221515CC8407047C9
:102D60000C000020001002401452000804480549DD
:102D700000684968044AC1F3C221515CC8407047E9
:102D80000C000020001002401452000812A185B06F
:102D90000FC98DE80F0014A0144A00680490516810
:102DA000134801F00C03042B10D0082B0ED1C1F3F3
:102DB0008343C9031DF803000AD5516804AAC1F36F
:102DC0004041515C0A4A5043B0FBF1F005B07047F6
:102DD00008494843FAE7000002030405060708090A
:102DE0000A0B0C0D0E0F1010010200000010024023
:102DF00000127A0000093D002DE9F84F040070D060
:102E00002078C04DC00749D06868C0F38100012810
:102E100007D06868C0F38100022809D16868C00340
:102E200006D52868800339D560680028E7D035E0EA
:102E30006068B0F5803F0BD010B1B0F5A02F11D075
:102E4000286820F480302860286820F4802002E080
:102E5000286840F480302860606890B1FFF732FE47
:102E600006460AE0286840F480202860F0E700BFAA
:102E7000FFF728FE801B642873D828688003F7D5E5
:102E80000CE0FFF71FFE064605E000BFFFF71AFE45
:102E9000801B6428F0D828688003F7D420789A4EE5
:102EA00080074FF001094FF0000839D5686810F02D
:102EB0000C0F07D06868C0F38100022809D1686848
:102EC000C00306D42868800714D52069012808D1DA
:102ED00010E02069B0B1C6F80090FFF7F3FD074697
:102EE00005E00AE1FFF7EEFDC01B0228C4D8286800
:102EF0008007F7D52868616920F0F80040EAC10032
:102F000028600DE0C6F80080FFF7DCFD074604E00E
:102F1000FFF7D8FDC01B022823D828688007F7D404
:102F2000207800072CD57948A169D9B1C0F8009064
:102F3000FFF7C8FD074604E0FFF7C4FDC01B0228E9
:102F40000FD8686A8007F7D571484FF4FA510068C6
:102F5000B0FBF1F0009000BF0098411E0091FAD242
:102F60000EE080E0C0F80080FFF7ACFD074604E00B
:102F7000FFF7A8FDC01B022875D8686A8007F7D440
:102F80002078400760D5E8690027C00008D4E869C8
:102F900040F08050E861E869012700F0805000901F
:102FA0005C480168C90513D40168834641F4807107
:102FB0000160FFF787FD824606E000BFFFF782FD54
:102FC000A0EB0A0064284ED8DBF80000C005F5D558
:102FD000E06801280AD008B1052813D0286A20F03B
:102FE00001002862286A20F0040002E0286A40F00C
:102FF00001002862E06841F2883B98B1FFF762FD6A
:1030000082460BE0286A40F004002862EEE700BF29
:10301000FFF758FDA0EB0A0159455AD8286A8007E6
:10302000F6D50CE0FFF74EFD824605E0FFF74AFDBE
:10303000A0EB0A0159454CD8286A8007F6D41FB185
:10304000E86920F08050E861E06988B36968C1F3FD
:103050008101022944D00228C6F8608004D0FFF71D
:1030600031FD044638E034E0FFF72CFD074604E06C
:10307000FFF728FDC01B02282BD828688001F7D451
:10308000206AB0F5803F05D16868A16820F400305F
:1030900008436860D4E908010843696821F47411A1
:1030A00008436860C6F86090FFF70CFD044606E030
:1030B00025E000BFFFF706FD001B022809D828689D
:1030C0008001F7D51BE000BFFFF7FCFC001B0228C6
:1030D00002D90320BDE8F88F28688001F4D40EE0FF
:1030E0000128F7D06868226A00F48031914204D147
:1030F000616A00F47010884201D00120EAE70020E4
:10310000E8E7000000100240000042428004424212
:103110000C0000200070004010B5401EB0F1807F10
:1031200001D3012010BD4FF0E02460610F21601732
:1031300001F00AFE0020A06107202061002010BDE0
:103140007047704770B590F83C20012A19D00124CF
:1031500000F83C4F0222427050F83C3C5A689D688F
:1031600022F070060A684968324325F08005294339
:103170005A6050F83C2C9160447000210170084660
:1031800070BD022070BD10B5040003D094F83D005E
:1031900010B107E0012010BD002084F83C0020465B
:1031A00000F00CF8022084F83D00211D206801F099
:1031B00093FB012084F83D00002010BD704701689A
:1031C000CA6842F00102CA600068816801F0070124
:1031D000062903D0016841F0010101600020704719
:1031E0000168CA6822F00102CA600068016A41F2FF
:1031F0001112114207D1016A9210114203D10168E4
:1032000021F00101016000207047704770B504464D
:10321000006801694FF00005C943890715D4C168EA
:10322000C943890711D4E91E016101202077206874
:1032300080698007204602D0FFF7E7FF04E000F036
:1032400098F8204600F096F8257720680169C94370
:10325000490717D4C168C943490713D46FF0040163
:103260000161022020772068806910F4407F2046A9
:1032700002D0FFF7CAFF04E000F07BF8204600F020
:1032800079F8257720680169C943090716D4C16810
:10329000C943090712D46FF00801016104202077A7
:1032A0002068C0698007204602D0FFF7AEFF04E027
:1032B00000F05FF8204600F05DF82577206801698E
:1032C000C943C90617D4C168C943C90613D46FF0EE
:1032D00010010161082020772068C06910F4407F48
:1032E000204602D0FFF791FF04E000F042F82046AC
:1032F00000F040F8257720680169C943C90708D163
:10330000C168C943C90704D1891E0161204600F084
:1033100033F820680169C943090609D4C168C94363
:10332000090605D46FF0800101612046FFF708FF10
:1033300020680169C943490609D4C168C9434906DF
:1033400005D46FF040010161204600F047F8206885
:103350000169C94389060BD4C168C943890607D4EA
:103360006FF0200101612046BDE87040FFF7E9BE23
:1033700070BD704770470000114810B50068C16803
:10338000C943C9071AD1891E01610E49104C08882A
:10339000401C08800C480168491C01600B4801680A
:1033A000491C01602068401C2060642806D9012265
:1033B0000849094800F0CEF80020206010BD000048
:1033C000000B0020380000203C00002048000020B6
:1033D0002C00002014000020C00A00207047704715
:1033E00070B5026804461068D168536910F00F0F79
:1033F00050D003F0010501F4907635435DD0C2074B
:1034000005D0CA0503D5E26B42F00102E263420730
:1034100005D5DA0703D0E26B42F00202E2638207CD
:1034200005D5DA0703D0E26B42F00402E26302073B
:1034300005D5DA0703D0E26B42F00802E263E26BE3
:10344000002A33D0800604D5880602D5204601F034
:103450009FFA20684069E16BC0F38010090700D42F
:1034600028B3204601F086FA2068416949061AD53A
:10347000416921F040014161606BA0B11B4941638A
:10348000606BFFF72DF8002810D0606B416BBDE832
:1034900070400847830610D58B060ED52046BDE840
:1034A000704001F075BA2046FFF799FF70BD2046C5
:1034B000FFF795FF0020E06370BD030606D50B06FD
:1034C00004D52046BDE8704001F00ABB4006F3D5A4
:1034D0004806F1D5D168204621F04001D160202175
:1034E00084F8391000F0EFF870BD0000654900085D
:1034F00070B5040004D094F83900002510B106E03E
:10350000012070BD84F83850204600F022F82420B5
:1035100084F839002068C16821F40051C160204658
:1035200001F082FA2068016921F49041016120686C
:10353000416921F02A0141612068C16841F40051CC
:10354000C160E563202084F8390084F83A00002047
:1035500070BD704790F83A30202B22D1F9B1F2B10A
:1035600090F83830012B1CD081628285C285002101
:10357000C163222280F83A2080F838100168CA68B6
:1035800042F48072CA6001684A6942F001024A61ED
:103590000068C16841F02001C1600020704701202F
:1035A000704702207047000010B500680D4988423E
:1035B00013D101220C490D48FFF7CCFF0C490888B4
:1035C000B0F5007F01D3002008800748094B02783E
:1035D00008881A54401C088010BDBDE8104006A0A1
:1035E00001F08EBB0044004014000020C00A0020FF
:1035F00018000020C0080020B2BBCAC74C6F52613F
:10360000B4AEBFDABDD3CAD5A3A10A002DE9F843F1
:10361000044690F839001F4616460D46202850D122
:10362000A5B19EB194F8380001284AD0012084F851
:1036300038004FF00008C4F83C80212084F839009D
:10364000FFF740FAA6848146E68426E00120BDE823
:10365000F883E08C401EE084A0684B46B0F5805FA4
:103660004FF000024FF080012046009703D001F098
:1036700068FAE8B90DE001F064FAC8B92888216851
:10368000C0F308004860206908B16D1C05E0AD1C5E
:1036900003E0216815F8010B4860E08C0028D8D1C0
:1036A0004B46002240212046009701F04AFA08B11B
:1036B0000320CCE7202084F8390084F838800020EB
:1036C000C5E70220C3E77047FEE7000010B50F4CC6
:1036D000002240212046FFF7F0F900F0ABF800226D
:1036E00080212046FFF7E9F90220FEF7FFFC0122C6
:1036F00040212046FFF7E1F90520FEF7F7FC2046C0
:103700000022BDE810404021FFF7D7B9000C01406E
:10371000174810B5816986B041F00801816181695F
:1037200001F008010491816941F00801816180691B
:10373000104C00F008000490012001900320039039
:103740004020009069462046FFF7B6F880200090A0
:1037500069462046FFF7B0F8012240212046FFF7D6
:10376000ACF9012280212046FFF7A7F906B010BD71
:1037700000100240000C014010B50F4C0022402107
:103780002046FFF79AF900F055F8012280212046E3
:10379000FFF793F90220FEF7A9FC01224021204601
:1037A000FFF78BF90520FEF7A1FC20460022BDE8BB
:1037B00010404021FFF781B9000C01402DE9F04194
:1037C000002507462C4600F029F8134E0022402120
:1037D0003046FFF772F90220FEF788FC01224021F3
:1037E0003046FFF76AF96006040E80213046FFF785
:1037F0005FF908B1641CE4B20120FEF777FC6D1C90
:10380000EDB2082DE2D327B1FFF760FF2046BDE8F7
:10381000F081FFF7B1FFF9E7000C01401FB5002070
:1038200001908020009069460148FFF745F81FBDD0
:10383000000C01401FB5012001900320039080205F
:10384000009069460148FFF737F81FBD000C0140A2
:1038500070B505460024FFF7EDFF134E002240210E
:103860003046FFF72AF9280601D5012200E00022A0
:1038700080213046FFF721F96806050E012240211C
:103880003046FFF71AF90220FEF730FC00224021F3
:103890003046FFF712F90220FEF728FC641CE4B260
:1038A000082CE0D370BD0000000C014010B5FFF7FC
:1038B000C1FF0E4C012280212046FFF7FEF80122B5
:1038C00040212046FFF7F9F80520FEF70FFC002203
:1038D00080212046FFF7F1F80620FEF707FC20467E
:1038E0000022BDE810404021FFF7E7B8000C01407E
:1038F00010B5FFF79FFF0E4C002240212046FFF736
:10390000DCF8002280212046FFF7D7F80122402171
:103910002046FFF7D2F80620FEF7E8FB01228021BF
:103920002046FFF7CAF8BDE810400620FEF7DEBBD0
:10393000000C014070B50024FFF770FF134D012209
:1039400080212846FFF7B9F80120FEF7CFFB0122BE
:1039500040212846FFF7B1F80120FEF7C7FB07E03A
:10396000641CE4B2FA2C03D9FFF7C2FF012070BD3A
:1039700080212846FFF79CF80028F1D10022402141
:103980002846FFF79AF8002070BD0000000C0140A7
:1039900010B50168074A1140B1F1005F09D14168D3
:1039A000054C21600068FCF7CDFB2068BDE81040A5
:1039B000004710BD0000FE2F10000020094810B580
:1039C000C16921F40031C1612620FFF7D9F8064C06
:1039D00004212046FEF7E0FE2046BDE81040082105
:1039E000FEF7DABE00100240000801402DE9F04F5A
:1039F00085B0002561B14FF4E1364FF496574FF48E
:103A000016684FF496694FF4964A4FF4164B0CE043
:103A100000F0D6FD05B0BDE8F08F082D16D2DFE826
:103A200005F00407090B0D0F11134FF416540DE0A8
:103A300034460BE03C4609E0444607E04C4605E0CE
:103A4000544603E05C4601E04FF46144204600F038
:103A5000B7FDC820FEF7DCFD2046FEF7D9FA0023AB
:103A600010A20121684600F075F8002813D0214605
:103A70000FA001F045F91848C1688C4207D017A083
:103A800001F03EF90121002000F054FBC2E71DA027
:103A900001F036F9BEE76D1CEDB2082DBDD326A0AE
:103AA000F6E7000041542B4E45543F0D0A0000003C
:103AB0004164617074204C6F5261206D6F64756C4D
:103AC00065204F4B2C206261756472617465203AE9
:103AD0002025640A00000000140000205072657068
:103AE00061726520746F206D6F64696679206C6FF8
:103AF0007261206261756472617465203A20256488
:103B00000A0000005468657265206973206E6F209A
:103B10006E65656420746F206368616E67652074EC
:103B20006865206C6F726120626175647261746592
:103B30002E2E2E0A000000004164617074204C6F2C
:103B40005261206D6F64756C652045727220212171
:103B5000210A0000F8B5054600201E4617460C460F
:103B60008DF8000000F000FA2CB16A46294638466C
:103B700000F0D0F804E02A463146384600F042F81A
:103B800080B1012804D002280ED003281BD101E007
:103B90000FA000E013A001F0B3F8012000F0E4F959
:103BA0000020F8BD12A00CE0002405E0295D14A05F
:103BB00001F0A6F8641CE4B29DF800008442F5D33D
:103BC00007A001F09DF8012000F0CEF90120F8BD1A
:103BD00052656365697074204552524F522E2E2EE5
:103BE0000A000000496E766F6C6964210A000000CB
:103BF00053657420706172616D204F4B0A000000A4
:103C000025630000F0B585B00D4606461746002432
:103C100014216846FCF7D5FA00200246694602E006
:103C20000B54401CC0B2335C002BF9D104E00B54A0
:103C3000401C521CC0B2D2B2AB5C002BF7D10D229B
:103C40000A54401CC0B20A220A54401C284DC2B279
:103C50000020A8804FF47A7633462648FFF7D6FC3A
:103C60009DF80300422803D19DF80400522809D092
:103C70006888FEF7CDFCA98861B11F4802780D2A3B
:103C80000CD017E00021E868FFF7B0FE3046FEF7E1
:103C9000BFFC2AE019A001F033F80BE042780A2AB1
:103CA00008D1421812F8013C0A2B03D112F8022C59
:103CB0000D2A02D0032005B0F0BD0222891E05E0C6
:103CC000835C0355641C521CE4B2D2B28A42F7DB17
:103CD000094800F0B3F80A2805D13946064800F033
:103CE000D1F8012801D00120E5E70020E3E700003A
:103CF00014000020C00A0020C00800204E6F20726F
:103D00006563656976652064617461202121210AFB
:103D1000000000002DE9F0410E460021254F154618
:103D20000C46B9800A4602E0521CC9B2D2B201F177
:103D30000101835C0A2BF7D1CAB201464FF47A73B2
:103D40001D48FFF763FC7888FEF762FCB88820B155
:103D50001A490A780D2A04D00FE019A000F0D0FF0C
:103D60000BE04A780A2A08D10A1812F8013C0A2BFB
:103D700003D112F8022C0D2A02D00320BDE8F081F5
:103D80000222801E05E08B5C0B55641C521CE4B2C1
:103D9000D2B28242F7DB094800F050F80A2801D07D
:103DA0000120EBE72B4632462146044800F020FB79
:103DB0000220E3E714000020C00A0020C008002011
:103DC0004E6F207265636569766520646174612059
:103DD0002121210A000000003022027000218170A0
:103DE0001549C968B1F5964F20D00DDCB1F5966F35
:103DF00016D0B1F5166F15D0B1F5965F14D0B1F5A8
:103E0000165F0CD1332109E0B1F5164F10D0B1F592
:103E1000614F0FD0B1F5E13F01D1372141707047BB
:103E2000427070473121F9E73221F7E73421F5E795
:103E30003521F3E73621F1E71400002010B50178B1
:103E4000452902D14178522901D00A2010BDC178FC
:103E50008078D022303800EB800002EB400008442C
:103E6000C4B2214602A000F04BFF204610BD000066
:103E70004C6F72612045727220436F6465203D2053
:103E800025640A0002784F2A02D143784B2B01D0D7
:103E9000002070470A704078487001207047000089
:103EA00070B52A4886B0816941F008018161816955
:103EB00001F008010491816941F008018161816983
:103EC00001F008010491816941F02001816181695B
:103ED00001F020010491816941F004018161806950
:103EE000012400F00400049065030320184ECDE97E
:103EF0000054039069463046FEF7DEFC0122294655
:103F00003046FEF7DAFD694630460094FEF7D4FCF1
:103F1000002201213046FEF7D0FD022000906946C4
:103F20003046FEF7C9FC002202213046FEF7C5FDEF
:103F30002403694630460094FEF7BEFC0122214668
:103F40003046FEF7BAFD06B070BD0000001002401A
:103F5000000C014043782C2B05D1032903D30178B1
:103F6000117080785070704710B50F4C00214FF4DD
:103F70007A73A18068B1052204F110010B48FFF7A4
:103F800045FB6088FEF744FB094881784F2904D03F
:103F900006E005490322891DF0E7C0784B2801D0CF
:103FA000002010BD012010BD14000020C00A002018
:103FB000C00800202DE9FE434FF000090F4680465F
:103FC000CDF80090CDF804904C464D46CDF80890C1
:103FD00012B1012A3ED077E00B46424601216846E5
:103FE000FFF7B8FD08B1002007E038A000F088FE18
:103FF0006AE06D1C401CEDB2C0B2395C0029F8D1FA
:10400000284601F0C9F806460020694603E00A5C2C
:104010003254401CC0B2A842F9D300210CE0705CBD
:10402000092801D8303004E0A0F10A02052A01D89D
:1040300037307054491CC9B2A942F0D300200DE0BA
:10404000315C3A5C914207D02A4800F059FE304674
:1040500001F04AF8002010E0401CC0B2A842EFD3A3
:1040600025A000F04DFE304601F03EF80120BDE8ED
:10407000FE83641C401CE4B2C0B218F800100A2988
:10408000F7D1601E01F088F805460020611E04E0AB
:1040900018F800202A54401CC0B28842F8DB2819C6
:1040A0003D2100F8019C00F8021C3B462A460021F5
:1040B0006846FFF74FFD08B12846D5E714A000F089
:1040C0001FFE284601F010F80020D0E751756572F8
:1040D0007920706172616D657465727320466169E3
:1040E0006C6421203C506172616D5F436865636B55
:1040F0003E0A00001C520008526561642070617223
:10410000616D20636F72726563742E2E2E0A00003B
:10411000506172616D6574657273207365742045BA
:10412000727221203C506172616D5F436865636B00
:104130003E0A00002DE9F04389B00E4681461C215D
:104140006846FCF73EF8002456A000F0D9FD5D4D0E
:104150000027E846AF806EB107A8FFF73DFE0122B9
:1041600007A959A0FFF726FFE868FDF751FF09B03E
:10417000BDE8F083B9F1000F0FD0FEF735F8F02855
:104180004FF0010207D053A153A0FFF713FF8DF8A2
:10419000000001215FE053A1F6E700F071FA8DF80D
:1041A0000000002250A153A0FFF704FF8DF801008A
:1041B000002253A155A0FFF7FDFE8DF8020000225A
:1041C00055A158A0FFF7F6FE8DF80300002258A174
:1041D00058A0FFF7EFFE8DF80400FEF705F8F02871
:1041E0004FF000023AD03BA13BA0FFF7E3FE8DF871
:1041F0000500002252A153A0FFF7DCFE8DF8060057
:1042000000224FA152A0FFF7D5FE8DF80700002233
:1042100034A152A0FFF7CEFE8DF8080000222DA198
:1042200051A0FFF7C7FE8DF8090000222DA151A073
:10423000FFF7C0FE8DF80A00002251A151A0FFF740
:10424000B9FE8DF80B00002251A152A0FFF7B2FE7B
:104250008DF80C000D210020424605E021A1C3E7A6
:10426000135C23B1401CC0B28842F9D37FE74CA055
:1042700000F046FD641CE4B200F002F900F050F9D1
:1042800000F0FEF84FF4FA60FEF7C2F90A2CFFF4D2
:1042900062AF4BA000F034FD40F6B830FEF7B8F93D
:1042A000AF8064E7436F6E666967757261746520FD
:1042B0004C6F526120706172616D65746572732E0E
:1042C0002E2E0A001400002041542B425241544526
:1042D0003D0000003031000041542B4E45543F0D4D
:1042E0000A000000303000003731303030303030DC
:1042F0000000000041542B4D414444523F0D0A0040
:1043000031433537384445300000000041542B54C8
:10431000465245513F0D0A00314330334131383068
:104320000000000041542B52465245513F0D0A00F7
:104330003334000041542B53594E433F0D0A0000C3
:104340003039000041542B5453463F0D0A00000001
:1043500041542B5253463F0D0A00000041542B524A
:1043600049513F0D0A00000041542B5349503F0D65
:104370000A00000041542B5449513F0D0A0000002F
:104380003037000041542B42573F0D0A0000000017
:104390003134000041542B504F573F0D0A000000AC
:1043A000506172616D20696E6974204572722C20B3
:1043B00054727920616761696E2E2E2E0A0000000A
:1043C0004C6F526120706172616D6574657273200B
:1043D000736574204552524F5221203C50617261E6
:1043E0006D657465725F496E69743E0A0000000075
:1043F000F0B4002546782C46432E05D18678532EFE
:1044000002D1C678512E01D0002603E0012601E03A
:104410006D1CEDB2475D3A2FFAD16D1CEDB28D42A5
:1044200004D8475D0755641CE4B2F6E736B1002EA8
:104430000ED0641EE1B2F0BCFFF78CBD002103E09A
:10444000455C5554491CC9B2A142F9D3491E1970A3
:10445000F0BC704770B5094D4FF4805400222146DE
:104460002846FEF72AFB9620FEF7D2F8214628467A
:10447000BDE870400122FEF720BB0000000C0140A7
:1044800010B5FFF70DFD06480021C068FFF7AEFA32
:10449000FFF7E0FFBDE810400120FFF765BD000019
:1044A0001400002070B506460D460EA000F028FC52
:1044B00013A000F025FC002405E0315D15A000F0FC
:1044C0001FFC641CA4B2AC42F7D313A000F018FC8C
:1044D0002A463146BDE870404FF47A730F48FFF723
:1044E00095B8000073656E642064617461206C652A
:1044F0006E203A20256442797465730A000000003A
:1045000053656E642064617461206672616D65201C
:104510003A200000255820000A000000C00A0020B0
:1045200070B50D4C00224FF400512046FEF7C5FA3D
:10453000FFF744FA094D002204212846FEF7BDFA90
:10454000002208212846FEF7B8FA0022A1142046CE
:10455000BDE87040FEF7B1BA000C01400008014010
:104560003EB51448C16941F01001C161C0691249EA
:1045700000F0100002901148002401605321C0E9AE
:1045800001144FF47A71C160FEF7FDFD0120CDE901
:10459000000469460948FEF7D5FD002202213620B5
:1045A000FEF70CFB3620FEF7FCFA0448FEF707FE88
:1045B0003EBD00000010024000100040000B002033
:1045C00030B52249044685B0886940F0040088610E
:1045D000886900F004000490C86940F40030C861A4
:1045E000C8691B4D00F400300490042000900220A4
:1045F0000190012002900320039069462846FEF7AF
:104600005BF90820009069462846FEF755F91249E3
:1046100010480C22C1E9000400208860C860C1E98C
:1046200004028861C8610846FEF762FF002201218A
:104630002620FEF7C3FA2620FEF7B3FA0122074927
:104640000548FEF787FF05B030BD000000100240AE
:104650000008014000440040C00A0020140000206F
:10466000FEE770477047000010B5002305E000BF6B
:1046700030F8024B21F813405B1C9342F8D310BD75
:1046800030B589B00025049505952B462CA2012153
:1046900007A80695FFF75EFA40B1002107AA6C460D
:1046A000505C6054092807D830300AE027A000F099
:1046B00027FB002009B030BDA0F10A03052B01D86B
:1046C00037306054491CC9B20829E9D38DF8085025
:1046D000FDF75BFE002823D025A000F011FB04A805
:1046E000FDF752FD002817D0002004A9225C0B5CC6
:1046F0009A4209D026A000F003FB04AB34A20021AB
:1047000007A8FFF727FA16E0401CC0B20828EDD32F
:1047100032A000F0F5FA10E03BA000F0F1FA07E05B
:104720006B462BA2002107A8FFF714FA0028C1D07E
:104730006846FDF771FD0028BCD00120BAE70000F3
:1047400041542B414444523F0D0A000052656164BC
:10475000204C6F5261204144445220457272203CEB
:10476000526577726974655F49443E0A0000000033
:10477000566572696679204C6F526120416464729B
:10478000203C526577726974655F49443E0A0000B7
:104790004C6F5261206164647220666F72204154D4
:1047A000204572726F72212C2077726974652045E2
:1047B00050206164647220746F204C6F526121201C
:1047C0003C526577726974655F49443E0A00000097
:1047D00041542B414444523D000000004C6F526153
:1047E000206164647220666F7220415420436F72AE
:1047F000726563742C204F4B203C5265777269744C
:10480000655F49443E0A0000455020736176656447
:10481000206572722C207265777269746521203C64
:10482000526577726974655F49443E0A0000000072
:104830007047FEF74DB930B58FB028216846FBF7B9
:10484000C0FC14210AA8FBF7BCFC01210804CDE937
:1048500000100024029402250491CDE907504FF482
:10486000E01009906846FEF7C7FA0F20CDE90A0567
:104870006802CDE90C4002210AA80E94FEF7D0F997
:104880000FB030BD0D48016841F001010160416881
:104890000B4A1140416001680A4A114001600168F9
:1048A00021F480210160416821F4FE0141604FF450
:1048B0001F0181600449C003086070470010024076
:1048C0000000FFF8FFFFF6FE08ED00E00148FEF7EC
:1048D0009DBC0000000B0020F0B502681C4B1D4D74
:1048E0001D4E1E4F1E4C4FF0804C984209D0A042E6
:1048F00007D0604505D0A84203D0B04201D0B842ED
:1049000004D122F0700E4A6842EA0E02984209D0A1
:10491000A04207D0604505D0A84203D0B04201D0E4
:10492000B84203D122F44075CA682A434D6922F087
:1049300080022A4302608A68C2620A6882629842E0
:1049400001D0A04201D10969016301214161F0BD9B
:10495000002C01400004004000080040000C004012
:104960000034014010B5406A0021C185C184FEF7C2
:1049700036FD10BD0168CA6822F49072CA600168F1
:104980004A6922F001024A61202180F83A107047FA
:1049900010B590F83A10222901D0022010BD81688C
:1049A000B1F5805F11D00169002901681FD0496805
:1049B00001F07F03816A4A1C82620B70C18D491E1F
:1049C0000904090CC18518D02BE00269816A002A0C
:1049D0000268526805D0D2B20A80816A491C81629D
:1049E000ECE7C2F308020A80816A891CF7E74A688B
:1049F000816A4B1C83620A70E0E70168CA6822F092
:104A00002002CA600168CA6822F48072CA60016824
:104A10004A6922F001024A61202180F83A10FEF72B
:104A2000C3FD002010BD00002DE9F04104460068E0
:104A30000169E26821F44051114301612169A068D4
:104A40000843616908432168CA6841F20C639A43CC
:104A50000243CA6020684169A26921F44071114390
:104A600041611E49206864253226884202D1FEF742
:104A70007DF901E0FEF76AF900EBC00101EB0011DE
:104A800060686FF018078000B1FBF0F2B2FBF5F23E
:104A9000B1FBF0F37A4303EB8202B1FBF0F306EBD8
:104AA0000212B2FBF5F2B3FBF5F302F0F00202EBF7
:104AB0000312B1FBF0F3B1FBF0F0B0FBF5F078437B
:104AC00003EB800006EB0010B0FBF5F0216800F06E
:104AD0000F0010448860BDE8F081000000380140FC
:104AE00090F83910212901D0022070478168B1F572
:104AF000805F016A0BD04A1C02620268097851602B
:104B0000C18C491E0904090CC1840ED017E0098824
:104B10000268C1F30801516001690029016A02D0ED
:104B2000491C0162ECE7891CFBE70168CA6822F0B6
:104B30008002CA600068C16841F04001C160002085
:104B400070472DE9F041984617460E460446069DEB
:104B50001DE0681C1BD02DB1FDF7B4FFA0EB0800D1
:104B6000A84214D92068C16821F4D071C1602068BE
:104B7000416921F001014161202084F8390084F865
:104B80003A00002084F838000320BDE8F081206856
:104B9000006836EA000004D00020B842D9D00020D6
:104BA000F3E70120F9E700000148FEF719BC000017
:104BB000C00A0020FEE700002DE9F05FA0F10064CC
:104BC00015468B468046B4F5802F63D808EB450325
:104BD000424631A13B4800F0A3F83A493AA000F020
:104BE0008FF8FDF7C5FDE70AC4F34906C6F58064F2
:104BF000A54200D8ACB2DFF8D4A000BF4FF00060EF
:104C000000EBC72081464FF480623049FFF72CFD4E
:104C100000204FF6FF7105E033183AF813208A425E
:104C200002D1401CA042F7D3A0422BD2274800213A
:104C3000103801600121C0E902912549FDF7FAFC15
:104C40000020514606E000BF3BF810203318401CFE
:104C500021F81320A042F7D348464FF480621B4945
:104C600000F038F8A54211D000262D1B4FF48060CB
:104C70007F1C0BEB440B08EB4408854200D8284608
:104C800084B2BBE7224659464046E9E7BDE8F05FFB
:104C9000FDF724BDBDE8F09F0A0A77726974655F6D
:104CA00061646472203D3D20307825582C20656E6B
:104CB000645F61646472203D3D20307825580A0AA3
:104CC000000000005013002025730000500B00204E
:104CD000300000202DE9F04116460F46054600241D
:104CE00009E000BF37F81420002329460120FDF712
:104CF000FFFC641CAD1CB442F4D3BDE8F08100009D
:104D00000FB4054B10B503A9044A029800F03CF813
:104D100010BC5DF814FB0000D150000850000020CA
:104D20000FB4084B10B504A902AA039800F02CF8A0
:104D3000044602A9002000F087F9204610BC5DF867
:104D400014FB0000495000080907090E002804DB85
:104D500000F1E02080F80014704700F00F0000F12F
:104D6000E02080F8141D704702E008C8121F08C137
:104D7000002AFAD170477047002001E001C1121FDC
:104D8000002AFBD1704700002DE9FF4F8DB09B46F4
:104D90000F460446002606E025280BD05A460F99F8
:104DA0009047641C761C20780028F5D111B030465D
:104DB000BDE8F08F0025A8460122984900E0054390
:104DC00014F8013F203B02FA03F00842F7D12078A3
:104DD0002E2817D114F8010F45F004052A280ED00B
:104DE0006FF02F022078A0F1300109290AD808EBD2
:104DF000880102EB410100EB0108641CF2E757F85F
:104E0000048B641C20786C280DD004DC4C2812D054
:104E10006A2811D104E074280DD07A280CD10AE058
:104E200045F4001507E0617845F48015814202D110
:104E3000641C05F58015641C2278692A45D008DCBD
:104E4000002AB3D0582A69D0632A10D0642A08D126
:104E50003BE0702A67D0732A13D0752A5CD0782A79
:104E60005CD010465A460F999047761CD3E017F84D
:104E7000040B8DF8000000208DF80100E9460120A8
:104E800003E057F8049B4FF0FF3069074FF000052F
:104E900001D40AE06D1C45450DDA8542FADB19F8AC
:104EA00005100029F6D106E06D1C8542FCDB19F8DF
:104EB00005100029F8D12E4404E019F8010B5A46D8
:104EC0000F9990476D1EF8D2A5E00A200021CDE988
:104ED0000801C5F3025002280DD001CFC117031EEF
:104EE00071F100030DDA4FF0000CD0EB0C006CEB0D
:104EF00001012D2308E0FF1D27F00707F7E8020155
:104F0000EDE72B0504D52B238DF8283001233BE05A
:104F1000EB0739D02023F7E70A2000E0102000211A
:104F2000CDE9080107E01020002145F00405CDE996
:104F300008014FF00808C5F3025002280FD001CF36
:104F400000214FF0000A2B071FD5702A0DD0DDE994
:104F500008C38CF0100C5CEA030C0CD015E0FF1DAC
:104F600027F00707F7E80201EBE740228DF8282039
:104F70004FF0010A0BE050EA010306D030238DF810
:104F800028308DF8292002239A46582A04D024A2DA
:104F90000DF120090B9209E026A2F9E7DDE90823CB
:104FA000FBF71AF90B9B9B5C09F8013D50EA0102E3
:104FB000F4D1ADEB090020300890680701D44FF020
:104FC00001080899884502DDA8EB010000E00020F7
:104FD0008046002506E00AA85A46405D0F99904792
:104FE0006D1C761C5545F6DB04E030205A460F99BF
:104FF0009047761CB8F10001A8F10108F5DC05E046
:1050000019F8010B5A460F999047761C0899481ECB
:1050100008900029F4DC641CC5E6000009280100A2
:10502000303132333435363738396162636465661E
:1050300000000000303132333435363738394142E0
:1050400043444546000000000A68531C0B60107082
:105050007047FBF714B970B505463D20FBF70FF913
:105060000922342100F00EF800280AD0002404F1AF
:105070003400FBF704F92855641CE4B2092CF6D37C
:10508000012070BD2DE9F04180460F4615461046BF
:1050900000F082F80646002405E03819FBF7EFF827
:1050A0003055641CE4B2AC42F7D329463046FDF7D4
:1050B00001FA404505D1304600F016F80120BDE860
:1050C000F081FDF71DF8304600F00EF80020F6E7FD
:1050D00013B54FF6FF73012269460248FEF796FAB0
:1050E00000981CBD8000002010B5002821D0114B75
:1050F0000022001F196803E0814203D80A4649686C
:105100000029F9D152B11368841A9C4204D1006875
:1051100018441060104602E0506000E0186039B199
:1051200002680B1A934203D10B681A440260496863
:10513000416010BD54000020FDF7D2FCFFF77BFB5F
:10514000FCF794FFFEF7E4FAFCF7EAFFFEF7A8FE8F
:105150004FF4FA60FDF75CFA0B4801210068FEF796
:1051600045FC00210846FEF7E5FFFFF7F9F907487F
:10517000FCF700F9FBF730F9FBF754FA044905484E
:10518000FCF7B4FAF8E7000020000020A54400086E
:1051900018000020C0080020F0B50B30154D20F09D
:1051A00007010024144A0FE003688B420BD38B42A3
:1051B00005D95E1A43184768C3E9006700E04368F1
:1051C000136002C004E0021D10680028ECD12046E4
:1051D000002802D1286808B10020F0BD064A07481F
:1051E0001060074A121A22F00702C0E900240120C9
:1051F0002860D7E758000020540000200C2200202F
:105200000824002000000000000000000102030448
:105210000607080900000000010203045468652025
:10522000706172616D65746572732061726520646E
:105230006966666572656E742066726F6D20776848
:1052400061742069732065787065637465642E20CD
:1052500052657365742074686520706172616D6554
:1052600074657273203C506172616D5F4368656361
:105270006B3E0A00546865206C656E677468206F29
:105280006620746865206669726D7761726520704A
:1052900061636B6167652073656E74206279207449
:1052A00068652073657276657220697320696C6C1D
:1052B0006567616C210A00000A446F776E6C6F614C
:1052C00064206F66207468652070726F6772616D0C
:1052D0002063616C6962726174696F6E20666169D6
:1052E0006C65642C20656D7074792074686520701D
:1052F0006172616D65746572732C20726561647989
:1053000020746F2067657420616761696E210A00EF
:10531000536F6674776172652076657273696F6E1C
:10532000206E756D626572206572726F722067659E
:105330007474696E6720646174612066726F6D2099
:105340007365727665722C20726561647920746F62
:1053500020636F7272656374210A00005B595145C6
:1053600055204F535D20546865204150502068619E
:1053700073206265656E206465746563746564207E
:10538000696E20424F4F5420616E64206973207211
:105390006561647920746F206D6F756E7420746818
:1053A0006520424F4F54204150502E2E2E0A0000AF
:1053B0005B59514555204F535D4E6F204150502051
:1053C00069732064657465637465642C206F722052
:1053D00041505020657863657074696F6E20697301
:1053E0002064657465637465642C2074686520733B
:1053F0006F6674776172652076657273696F6E206F
:10540000697320636C65617265642C20616E642031
:10541000746865206669726D7761726520697320B2
:10542000746F206265207265747269657665642E9A
:105430002E2E0A005468652072656365697665647E
:1054400020736F6674776172652076657273696F19
:105450006E206E756D626572206973206469666680
:105460006572656E742066726F6D20746865207455
:10547000656D7020617265612E205265736176657D
:1054800020616E6420726573657420746865207095
:1054900061636B61676520696E64657820616E6425
:1054A00020777269746520616464726573732E2E4F
:1054B0002E0A00005265636569766564207468652C
:1054C0002067656E6572616C2072656365697074D2
:1054D000206F6620746865207365727665722C2073
:1054E0007468652070726F63657373696E6720728C
:1054F0006573756C7420636F6465203A2025580AC3
:105500000000000047657420746865206E65772090
:10551000736F6674776172652076657273696F6EFA
:10552000206E756D62657220616E642070726570A8
:1055300061726520746F2073656E642074686520E5
:10554000676574206669726D77617265207061634A
:105550006B6167650A0000007855000800000020B4
:105560005C000000684D0008D45500085C00002075
:10557000AC270000784D000801000000100000007A
:105580000000000000A24A04000000000000DC004F
:1055900000002B2B2B000000802500004154540DEF
:1055A0000A000000000000000000000000000000F1
:1055B00000000000000000000000000000000000EB
:1055C00000000000000000000000000000000000DB
:0455D00000000000D7
:0400000508000131BD
:00000001FF
