:020000040800F2
:1000000000000120B9E70008A1EA0008A5EA0008FD
:10001000A9EA0008ADEA0008B1EA000801EB00080F
:1000200001EB000801EB000801EB000801EB000800
:1000300001EB000801EB000801EB000891EF00085C
:1000400001EB000801EB000801EB000895E6000851
:1000500001EB000801EB000801EB000801EB0008D0
:1000600001EB000801EB000801EB000801EB0008C0
:1000700001EB000801EB000801EB000801EB0008B0
:1000800001EB000801EB000879EB000801EB000828
:1000900001EB000801EB000801EB000801EB000890
:1000A000D9F10008FDF1000821F2000859F200081A
:1000B000ADF200081DF300088DF3000801EB000805
:1000C00001EB000801EB000801EB000801EB000860
:1000D00001EB000885F60008D9F600082DF70008A6
:1000E00001EB0008DDE6000801EB0008B5F40008AC
:1000F000D9F40008FDF4000835F50008C9EB000844
:1001000001EB000801EB0008FDF3000801EB00081B
:1001100081F70008D5F700086DF4000891F4000895
:1001200001EB000801EB000801EB000801EB0008FF
:1001300010B5054C237833B9044B13B10448AFF321
:1001400000800123237010BD501700200000000024
:10015000EC5C010808B5064B1BB106480649AFF335
:1001600000800648036813B1054B03B1984708BDEA
:1001700000000000EC5C010854170020501700201C
:1001800000000000012902D11C30C0B270470629CE
:1001900084BF01F1FF31C9B211F0010F14BF1E205D
:1001A0001F207047444B2DE9F047B1FBF3F603FBEA
:1001B00016113C23B1FBF3F203FB12120546027049
:1001C0004FF46160B1FBF0F200FB1211B1FBF3F3ED
:1001D0006B704FF4FA63AA70B6B2EB80EC884FF400
:1001E000C873B4FBF3F803FB18481FFA88F8B8F19A
:1001F000000F16D06423B4FBF3F203FB12439BB24F
:10020000002B53D014F0030140F26D130CBF4FF4D8
:10021000B7721A4696420EDB002908BF4FF4B77337
:1002200004E0B6F5B77F06DB4FF4B773F61A013476
:10023000B6B2EC80D2E700236B716423B4FBF3F712
:1002400003FB1747BFB2B8F1000F06D03FB114F05F
:10025000030F14BF0020012002E0012000E0384617
:1002600095F80590C0B24946FFF78CFF864209F128
:10027000010A15D3B8F1000F06D03FB114F0030FF7
:1002800014BF0020012002E0012000E03846C0B287
:100290004946FFF777FF301A86B285F805A0D2E706
:1002A00001362E7185F805A0BDE8F087B6F5B67F5A
:1002B000C1DD40F26D13B9E780510100F8B5427815
:1002C00087783C2303FB072702780579467903FBEF
:1002D0000727013D013EEDB2F6B2044605714671B5
:1002E000013E731CE38834D04FF4C872B3FBF2F1C3
:1002F00002FB113292B262B16422B3FBF2F002FB54
:10030000103080B230B113F0030F14BF0020012071
:1003100000E00120C0B2F1B2FFF734FF284485B2FB
:10032000DEE74FF4C872B3FBF2F102FB113292B276
:10033000AAB16422B3FBF2F102FB113292B28AB18C
:1003400013F0030F40F26D1208BF4FF4B77215445B
:10035000ADB2013B9BB2B3F5FA6FE2D205E04FF4C8
:10036000B772F4E740F26D12F1E7024800FB057046
:10037000F8BD00BF805101000CF02CBA38B504461E
:100380000D460CF042FA2046A0210CF0D5FA20468A
:100390000CF0ABFAC5F3072120460CF0CDFA20464D
:1003A0000CF0A3FAE9B220460CF0C6FA20460CF095
:1003B0009CFA20460CF029FA2046A1210CF0BCFA48
:1003C00020460CF092FA002120460CF0DCFA05469B
:1003D00020460CF06DFA20460CF032FA284638BD63
:1003E00070B5044616460D460CF00FFA2046A021C3
:1003F0000CF0A2FA20460CF078FAC5F3072120464B
:100400000CF09AFA20460CF070FAE9B220460CF093
:1004100093FA20460CF069FA314620460CF08CFA2B
:1004200020460CF062FA20460CF00AFABDE8704053
:100430000A200FF0D1BE0000064A5178937843EAB3
:100440000123A3F52043152B9ABF034AD05C0E204D
:10045000704700BF9C180020CD74010810B5074CF0
:10046000601811460AF018F9054B1B881C4414F853
:10047000073C1B1A5842584110BD00BF9C18002071
:1004800084170020084B18795B7943EA002045F275
:100490005553984205D04CF20303C31A58425841B1
:1004A00070470120704700BF9C180020044B9B79C7
:1004B000552B044B0CBF012200221A70704700BF5D
:1004C0009C1800205118002010B5084CE379552BDA
:1004D00001D1012010BD064803F011FFE3798342EA
:1004E000F7D0D0F1010038BF002010BD9C180020CB
:1004F000B91B002013B50D4B1C7A552C01D10120DE
:1005000012E00B48694603F055FE00231A461DF819
:1005100003108C42F3D019B90132D2B2052AEED0C1
:100520000133052BF3D1002002B010BD9C18002030
:10053000B91B002070B586B005461E46FFF78EFF3A
:10054000044680B9304AD3781A441379D62B0AD09E
:100550002E4968460FF024FC694603A80FF041FCC1
:1005600003A82B4937E02846FFF78CFF044698B1D3
:100570002846FFF79BFF2846FFF7A6FF0446B0B9C1
:10058000AEB1224968460FF00BFC694603A80FF094
:1005900028FC03A81F491EE01C4968460FF000FC18
:1005A000694603A80FF01DFC03A81B4913E0284669
:1005B000FFF7A0FF044618BB9DF828300BB90124B3
:1005C0001EE0124968460FF0EBFB694603A80FF0E6
:1005D00008FC124903A80FF0BDFC11490FF0BAFC4A
:1005E00010490FF0B7FC10490FF0B4FC01460F485A
:1005F0000FF0EAFA03A80FF091FB68460FF08EFBAC
:10060000204606B070BD00BF9C180020E0760108AF
:10061000017701080D770108E87601082C770108B9
:10062000FE76010883760108069701085C1F00200A
:10063000F8B50F460EF0BEFB06F094F803200EF05E
:1006400009F82F4A002313702E4A1D4613702E4AB4
:100650001E4613702D4A13702D4A13702D4A1360D5
:100660002D4A13702D4A13702D4A13702D4A1370A2
:100670002D4A13702D4A13702D4A13602D4A1360B2
:100680002D4A13702D4A13702D4A13702D4A137082
:100690002D4A13602D4A13702D4A13602D4B0024F0
:1006A000EC502D4BF0B2EC502C4B0121EC502C4B6C
:1006B000EC502C4BEC502C4BEC502C4BEC502C4B6E
:1006C000EC502C4BEC502C4BEC502C4BF4542C4B52
:1006D000F4542C4BF4542C4BF45409F005FE013621
:1006E0002A4B0C2EEC5005F10405D7D137B1284820
:1006F00007210322BDE8F8400CF0E6BBF8BD00BFBF
:10070000261C0020E51B00203B1C0020031C0020B1
:10071000C919002098180020021C0020FE1B002090
:10072000FD1B0020271C0020691B00201D18002035
:10073000341C0020CC190020B11B0020B01B00206D
:10074000C8190020531800208017002054180020DA
:10075000AC1B0020181A0020581800209C170020FD
:10076000581A0020D8190020D81A0020DC170020C1
:100770006C1B0020181B0020981A0020591B002019
:10078000871700206D1700200C0000202018002083
:10079000541F002010B53B4B88B01B78002B6ED047
:1007A00000230093042117220123FFF7C3FE002832
:1007B0005CD0354902A80FF0F3FA02A905A80FF0A2
:1007C00010FB324905A80FF0C5FB31490FF0C2FB01
:1007D00030490FF0BFFB30490FF0BCFB01462F48FA
:1007E0000FF0F2F905A80FF099FA02A80FF096FAA7
:1007F0002A480FF093F82A4B1C7A012C33D1294850
:10080000D97C03F0E5FD48B127480F2122460CF0C2
:100810005BFB2648214603F0CBF827E00222224862
:1008200010210CF051FB02A821490FF0B9FA02A9DE
:1008300005A80FF0D6FA05A81E490FF08BFB144946
:100840000FF088FB13490FF085FB13490FF082FB73
:10085000014612480FF0B8F905A80FF05FFA02A898
:100860000FF05CFA02E010480CF03CF9124B0C4817
:100870001A88002108B0BDE8104011F08FB908B007
:1008800010BD00BF1D000020487701084F77010808
:10089000FE7601082E750108069701085C1F0020EE
:1008A0009C180020B51B0020541F0020B31B002003
:1008B000547701085C7701088417002000B5444B89
:1008C00089B01B78002B7FD00023009304210A22DB
:1008D0000123FFF72FFE00286DD03E4902A80FF03C
:1008E0005FFA02A905A80FF07CFA3B4905A80FF0B2
:1008F00031FB3A490FF02EFB39490FF02BFB3949F8
:100900000FF028FB014638480FF05EF905A80FF0FC
:1009100005FA02A80FF002FA33480EF0FFFF334841
:10092000334903F0F9FB10B32A4902A80FF038FA53
:1009300002A905A80FF055FA2E4905A80FF00AFBE9
:1009400026490FF007FB26490FF004FB25490FF05D
:1009500001FB014624480FF037F905A80FF0DEF936
:1009600002A80FF0DBF924480321022221E02349E9
:1009700002A80FF015FA02A905A80FF032FA2049D3
:1009800005A80FF0E7FA15490FF0E4FA14490FF043
:10099000E1FA14490FF0DEFA014613480FF014F99A
:1009A00005A80FF0BBF902A80FF0B8F9124804210E
:1009B00001220CF089FA134B13481A88002109B060
:1009C0005DF804EB11F0EAB809B05DF804FB00BF74
:1009D0001D0000204877010885770108FE76010890
:1009E00088740108069701085C1F0020B91B0020CD
:1009F000A41800208A770108541F002054770108AA
:100A0000B9770108841700209C18002010B5002336
:100A100088B0009304210F22FFF78CFD00287DD0C1
:100A20005B4902A80FF0BCF902A905A80FF0D9F99B
:100A3000584905A80FF08EFA57490FF08BFA57491D
:100A40000FF088FA56490FF085FA014655480FF025
:100A5000BBF805A80FF062F9534C02A80FF05EF93D
:100A600050480EF05BFF514804F10A0103F053F9BE
:100A7000002800F081804D4804F10A0103F08BF951
:100A8000002879D0424902A80FF08AF902A905A8E6
:100A90000FF0A7F9464905A80FF05CFA3E490FF0A0
:100AA00059FA3E490FF056FA3D490FF053FA014604
:100AB0003C480FF089F805A80FF030F902A80FF0B4
:100AC0002DF93A48E17903F0E1FB00282FD03049B5
:100AD00002A80FF065F902A905A80FF082F93549BF
:100AE00005A80FF037FA2C490FF034FA2B490FF014
:100AF00031FA2B490FF02EFA01462A480FF064F81C
:100B000005A80FF00BF902A80FF008F92A480521F3
:100B100001220CF0D9F9254803F01EFA274B224890
:100B20001A88002108B0BDE8104011F037B82449F8
:100B300002A80FF035F902A905A80FF052F92149D2
:100B400005A80FF007FA14490FF004FA13490FF043
:100B500001FA13490FF0FEF9014612480FF034F87C
:100B600005A80FF0DBF802A80FF0D8F8124806210C
:100B700001220CF0A9F9D1E7114902A80FF010F9F0
:100B800002A905A80FF02DF905A80F49D9E700BF64
:100B90004877010885770108FE760108E3740108AB
:100BA000069701085C1F00209C180020B91B00203C
:100BB00047780108E8770108541F002084170020B7
:100BC00054770108187801085E78010800B5304BA9
:100BD00089B01B78002B57D02E4B0421DA780023E4
:100BE00000930123FFF7A6FC002844D02A4902A85D
:100BF0000FF0D6F802A905A80FF0F3F8274905A8C9
:100C00000FF0A8F926490FF0A5F926490FF0A2F92F
:100C100025490FF09FF9014624480EF0D5FF05A89D
:100C20000FF07CF802A80FF079F820480EF076FE5D
:100C3000194902A80FF0B4F802A905A80FF0D1F8DD
:100C40001B4905A80FF086F915490FF083F91549DE
:100C50000FF080F914490FF07DF9014613480EF0AA
:100C6000B3FF05A80FF05AF802A80FF057F8114883
:100C700002210DF055FA104B06481A88002109B0E0
:100C80005DF804EB10F08ABF09B05DF804FB00BF0B
:100C90001D0000209C180020487701088378010877
:100CA000FE760108B8740108069701085C1F002051
:100CB00088780108541F00208417002010B52F4B9E
:100CC00088B01B780446002B56D0002300930421E3
:100CD00005220123FFF72EFC002844D0284902A852
:100CE0000FF05EF802A905A80FF07BF8254905A8CA
:100CF0000FF030F924490FF02DF924490FF02AF9AB
:100D000023490FF027F9014622480EF05DFF05A8A0
:100D10000FF004F802A80FF001F8194902A80FF02B
:100D20003FF802A905A80FF05CF81B4905A80FF0D1
:100D300011F915490FF00EF914490FF00BF9144988
:100D40000FF008F9014613480EF03EFF05A80EF01B
:100D5000E5FF02A80EF0E2FF0E480EF0DFFD204690
:100D60000121FFF765FC0D4B0D481A88002108B0E2
:100D7000BDE8104010F012BF08B010BD1D000020EB
:100D800048770108AA780108FE760108F77401087F
:100D9000069701085C1F0020AF7801088417002027
:100DA0009C180020F0B5524B8FB01B78002B00F040
:100DB0009C80504C0025E278042100950123FFF728
:100DC000B9FB2746002800F0878009AC4A4906A8ED
:100DD0000EF0E6FF06A920460FF003F8474920462B
:100DE0000FF0B8F846490FF0B5F846490FF0B2F8E1
:100DF00045490FF0AFF8014644480EF0E5FE2046A5
:100E00000EF08CFF06A80EF089FF40480EF086FD1C
:100E10000DF0D0FF384906A80EF0C2FF06A9204603
:100E20000EF0DFFF3A4920460FF094F834490FF0F6
:100E300091F834490FF08EF833490FF08BF80146E2
:100E400032480EF0C1FE20460EF068FF06A80EF0F4
:100E500065FF20462946142210F0A0FEFE78053ECC
:100E6000142E01D8294620E02A4903A80EF098FF45
:100E700003A906A80EF0B5FF274906A80FF06AF8E7
:100E80001F490FF067F81F490FF064F81E490FF073
:100E900061F801461D480EF097FE06A80EF03EFFD1
:100EA00003A80EF03BFF022207E0B14204D27B18F8
:100EB0005B7A63540131F8E70322184B18481A7023
:100EC0002146324607F038FE0122164800210CF078
:100ED000A1F8154B01221A70144B06481A880021FC
:100EE0000FB0BDE8F04010F059BE0FB0F0BD00BF2C
:100EF0001D0000209C18002048770108BF780108D9
:100F0000FE76010801760108069701085C1F0020A3
:100F1000C478010854770108F57801084E1F0020B5
:100F20003A1C0020541F0020FD1B002084170020C5
:100F300070B5324B88B01B78002B5CD0304C00254C
:100F4000E278042100950123FFF7F4FA26460028F1
:100F500051D005AC2B4902A80EF022FF02A9204671
:100F60000EF03FFF284920460EF0F4FF27490EF00F
:100F7000F1FF27490EF0EEFF26490EF0EBFF014688
:100F800025480EF021FE20460EF0C8FE02A80EF005
:100F9000C5FE21480EF0C2FC1A4902A80EF000FF5F
:100FA00002A920460EF01DFF1C4920460EF0D2FF7C
:100FB00016490EF0CFFF16490EF0CCFF15490EF082
:100FC000C9FF014614480EF0FFFD20460EF0A6FEB4
:100FD00002A80EF0A3FE2B46F218527AE254013317
:100FE000072BF9D10E48214605F0D2F90D481721FB
:100FF00002220BF069FF08B070BD00BF1D00002089
:101000009C1800204877010821790108FE76010824
:10101000F1750108069701085C1F00202679010878
:10102000E41B0020541F0020F0B57F4B8FB01B78CD
:10103000002B00F0F7807D4D0027EA78009704210F
:101040000123FFF777FA002800F0BC800AAC78494A
:1010500007A80EF0A5FE07A920460EF0C2FE7549AE
:1010600020460EF077FF74490EF074FF73490EF0BE
:1010700071FF73490EF06EFF014672480EF0A4FD39
:1010800020460EF04BFE07A80EF048FE6D480EF00D
:1010900045FC6D4895F8221095F8232003F0F8FCE4
:1010A000F8B96A4907A80EF07BFE07A920460EF0A2
:1010B00098FE674920460EF04DFF5F490EF04AFF4B
:1010C0005E490EF047FF5E490EF044FF01465D4861
:1010D0000EF07AFD20460EF021FE07A80EF01EFE4F
:1010E0000127534907A80EF05BFE07A920460EF022
:1010F00078FE584920460EF02DFF4F490EF02AFF8A
:101100004E490EF027FF4E490EF024FF01464D4890
:101110000EF05AFD20460EF001FE002607A80EF044
:10112000FDFD2223204631461022029603968DF8BB
:10113000083010F033FD33238DF828303346EA1899
:10114000127A02A95A540133082BF8D10023EA1865
:10115000127CE2540133102BF9D13B4803F04CFBD5
:10116000002838D03848214603F00CFC002832D043
:101170002F4904A80EF014FE04A907A80EF031FEB2
:10118000354907A80EF0E6FE2B490EF0E3FE2B4989
:101190000EF0E0FE2A490EF0DDFE014629480EF071
:1011A00013FD07A80EF0BAFD04A80EF0B7FD2648FF
:1011B00003F0F1FA29480BF0CFFA29483946012209
:1011C0000BF0DEFF274B19481A8800210FB0BDE84D
:1011D000F04010F0E3BC1D4904A80EF0E1FD04A9A5
:1011E00007A80EF0FEFD204907A80EF0B3FE124935
:1011F0000EF0B0FE11490EF0ADFE11490EF0AAFE40
:10120000014610480EF0E0FC07A80EF087FD04A888
:101210000EF084FD0C4803F0DBFA10480BF09CFA4A
:101220000227CAE70FB0F0BD1D0000209C18002067
:101230004877010845790108FE760108997601088A
:10124000069701085C1F0020B81B00205477010896
:101250004A79010861790108757901084C1F00205D
:10126000541F0020841700208E790108F0B5814BAF
:101270008DB01B780746002B00F0F9807E4C0025CE
:10128000E278009504210123FFF754F9002800F0CB
:10129000C6807A4906A80EF083FD06A909A80EF0BB
:1012A000A0FD774909A80EF055FE76490EF052FED2
:1012B00075490EF04FFE75490EF04CFE014674481C
:1012C0000EF082FC09A80EF029FD06A80EF026FDFE
:1012D0006F480EF023FB6F4B0126384629461E70DF
:1012E000FFF7A6F96C4B6D4894F8461094F8472028
:1012F0001E7003F0D1FD50B1604906A80EF050FDFC
:1013000006A909A80EF06DFD09A8654909E065491F
:1013100006A80EF045FD06A909A80EF062FD624977
:1013200009A80EF017FE57490EF014FE56490EF0AC
:1013300011FE56490EF00EFE014655480EF044FCD3
:1013400009A80EF0EBFC06A80EF0E8FC534803F0E9
:1013500021FE564D4949286003A80EF021FD03A93E
:1013600009A80EF03EFD524906A80EF019FD06A987
:1013700009A80EF0E2FD29680EF012FE41490EF0B8
:10138000E9FD41490EF0E6FD40490EF0E3FD01465E
:101390003F480EF019FC06A80EF0C0FC09A80EF09C
:1013A000BDFC03A80EF0BAFC0DF004FD0022324B88
:1013B0001046114604EBD00595F848500D41ED0755
:1013C00015D55D7A1E7A05EB06263A4D565193F8EF
:1013D000295093F8286005EB0626374D565193F8AF
:1013E0004B5093F84A6005EB0626344D56510131B7
:1013F000C9B2082900F1010008BF00210C2803F13F
:10140000020302F10402D5D121480EF087FA2C48DC
:101410000321194A0BF024FF05F08CF91EE029493D
:1014200006A80EF0BDFC06A909A80EF0DAFC2649B4
:1014300009A80EF08FFD13490EF08CFD12490EF035
:1014400089FD12490EF086FD014611480EF0BCFBE5
:1014500009A80EF063FC06A80EF060FC1B4B0648C2
:101460001A8800210DB0BDE8F04010F097BB0DB018
:10147000F0BD00BF1D0000209C1800204877010827
:10148000A7790108FE76010847750108069701084B
:101490005C1F00201C18002052180020B81B0020E0
:1014A000AC79010854770108C87901089818002020
:1014B00055900108581800209C170020D81A0020C9
:1014C000541F0020E07601080F7A010884170020DD
:1014D0002DE9F041A14B8CB01B780546002B00F0A4
:1014E0003A819F4E0024F278009404210123FFF7F3
:1014F00021F8002800F007819A4906A80EF050FC58
:1015000006A909A80EF06DFC974909A80EF022FD66
:1015100096490EF01FFD96490EF01CFD95490EF000
:1015200019FD014694480EF04FFB09A80EF0F6FB9A
:1015300006A80EF0F3FB90480EF0F0F98F4B012255
:10154000284621461A70FFF773F88D4B02221A7055
:10155000327A737A8B4F03EB0223824903A83B60F4
:101560000EF01EFC03A909A80EF03BFC864906A854
:101570000EF016FC06A909A80EF0DFFC39680EF083
:101580000FFD82490EF0E6FC78490EF0E3FC784945
:101590000EF0E0FC77490EF0DDFC014676480EF0D7
:1015A00013FB06A80EF0BAFB09A80EF0B7FB03A8C0
:1015B0000EF0B4FB764DB37A6A4903A82B700EF097
:1015C000EFFB03A909A80EF00CFC724906A80EF067
:1015D000E7FB06A909A80EF0B0FC29780EF0CCFCB8
:1015E0006A490EF0B7FC61490EF0B4FC60490EF098
:1015F000B1FC60490EF0AEFC01465F480EF0E4FA23
:1016000006A80EF08BFB09A80EF088FB03A80EF0CD
:1016100085FB614DF37A534903A82B700EF0C0FB94
:1016200003A909A80EF0DDFB5C4906A80EF0B8FB83
:1016300006A909A80EF081FC29780EF09DFC4B4903
:101640000EF088FC4A490EF085FC4A490EF082FCF7
:10165000014649480EF0B8FA06A80EF05FFB09A84B
:101660000EF05CFB03A80EF059FB2546B84606EBCE
:10167000D4031B7B2B41DB0734D5D8F80030484F0F
:10168000384947F8243003A80EF08AFB03A909A8BB
:101690000EF0A7FB434906A80EF082FB06A909A895
:1016A0000EF04BFC21460EF07BFC3F490EF052FC45
:1016B00057F824100EF074FC2C490EF04BFC2C490A
:1016C0000EF048FC2B490EF045FC01462A480EF06E
:1016D0007BFA06A80EF022FB09A80EF01FFB03A858
:1016E0000EF01CFB0135EDB2082D04F1010408BF1A
:1016F00000250C2CBBD12D480321194A0BF034FED8
:1017000005F018F81EE02A4906A80EF049FB06A9C4
:1017100009A80EF066FB274909A80EF01BFC134927
:101720000EF018FC12490EF015FC12490EF012FCD6
:10173000014611480EF048FA09A80EF0EFFA06A883
:101740000EF0ECFA1C4B06481A8800210CB0BDE8DC
:10175000F04110F023BA0CB0BDE8F0811D0000206C
:101760009C18002048770108237A0108FE760108BA
:1017700099740108069701085C1F00201C180020BE
:1017800052180020CC190020287A0108A69A0108D6
:10179000B11B00203E7A0108B01B0020557A0108D9
:1017A000181A0020697A01087E7A0108541F002067
:1017B000E0760108827A010884170020F0B5774BA3
:1017C0008DB01B780546002B00F0E580744E002498
:1017D000F278009404210123FEF7ACFE002800F00B
:1017E000B280704906A80EF0DBFA06A909A80EF02F
:1017F000F8FA6D4909A80EF0ADFB6C490EF0AAFB92
:101800006B490EF0A7FB6B490EF0A4FB01466A483A
:101810000EF0DAF909A80EF081FA06A80EF07EFAA9
:1018200065480EF07BF8654B0122284621461A7068
:10183000FEF7FEFE624B03221A702546072C8CBF72
:10184000B37D737D2B4103F00103002B3BD0630874
:10185000043316F8132006EB43035B78594F03EB70
:10186000022347F824304F4903A80EF099FA03A940
:1018700009A80EF0B6FA544906A80EF091FA06A986
:1018800009A80EF05AFB21460EF08AFB4F490EF0D4
:1018900061FB57F824100EF083FB44490EF05AFB0D
:1018A00043490EF057FB43490EF054FB01464248B2
:1018B0000EF08AF906A80EF031FA09A80EF02EFAF9
:1018C00003A80EF02BFA0135EDB2082D04F1010446
:1018D00008BF00250C2CB1D1337D3D4C03A8314904
:1018E00023700EF05DFA03A909A80EF07AFA06A893
:1018F00038490EF055FA06A909A80EF01EFB21780A
:101900000EF03AFB34490EF025FB28490EF022FB7D
:1019100027490EF01FFB27490EF01CFB0146264805
:101920000EF052F906A80EF0F9F909A80EF0F6F932
:1019300003A80EF0F3F929480321194A0BF0ACFD76
:1019400004F0F8FE1EE0264906A80EF029FA06A9C2
:1019500009A80EF046FA234909A80EF0FBFA13492C
:101960000EF0F8FA12490EF0F5FA12490EF0F2FAFA
:10197000014611480EF028F909A80EF0CFF906A883
:101980000EF0CCF9184B06481A8800210DB0BDE8BE
:10199000F04010F003B90DB0F0BD00BF1D000020F5
:1019A0009C18002048770108967A0108FE76010805
:1019B0008C750108069701085C1F00201C18002088
:1019C00052180020201800209B7A01087E7A010816
:1019D00098170020BA7A0108A69A0108541F00201F
:1019E000E0760108DB7A01088417002010B5304B3F
:1019F00088B01B78002B58D02E4B0024DA780421B5
:101A000000940123FEF796FD38B302A82A490EF090
:101A1000C7F902A905A80EF0E4F905A827490EF0B8
:101A200099FA27490EF096FA26490EF093FA2649BC
:101A30000EF090FA014625480EF0C6F805A80EF003
:101A40006DF902A80EF06AF920480DF067FF2048F2
:101A5000214603220BF03CFF1EE01E4902A80EF0B7
:101A60009FF902A905A80EF0BCF91B4905A80EF0C4
:101A700071FA13490EF06EFA12490EF06BFA124920
:101A80000EF068FA014611480EF09EF805A80EF017
:101A900045F902A80EF042F9104B06481A880021B9
:101AA00008B0BDE8104010F079B808B010BD00BF14
:101AB0001D0000209C18002048770108EF7A0108DB
:101AC000FE760108BC760108069701085C1F00201D
:101AD000541F0020E07601080B7B010884170020CA
:101AE00070B5874B8CB01B78002B00F00781854CBC
:101AF00000230093E27804210123FEF71BFD002858
:101B000000F0D480804906A80EF04AF906A909A879
:101B10000EF067F97D4909A80EF01CFA7C490EF019
:101B200019FA7C490EF016FA7B490EF013FA0146B9
:101B30007A480EF049F809A80EF0F0F806A80EF061
:101B4000EDF876480DF0EAFE637A257A6E4903A82F
:101B500003EB05250EF024F903A909A80EF041F9BD
:101B60006F4906A80EF01CF906A909A80EF0E5F9C0
:101B700029460EF015FA66490EF0ECF965490EF0AB
:101B8000E9F965490EF0E6F9014664480EF01CF8E3
:101B900006A80EF0C3F809A80EF0C0F803A80EF0CE
:101BA000BDF86048217A627A03F0EAF80546F8B990
:101BB00006A85D490EF0F4F806A909A80EF011F97F
:101BC00009A85A490EF0C6F951490EF0C3F9514916
:101BD0000EF0C0F950490EF0BDF901464F480DF026
:101BE000F3FF09A80EF09AF806A80EF097F800E0A7
:101BF0000125E37AA67A444903A803EB06260EF0F2
:101C0000CFF803A909A80EF0ECF8494906A80EF090
:101C1000C7F806A909A80EF090F931460EF0C0F9F0
:101C20003B490EF097F93B490EF094F93A490EF012
:101C300091F9014639480DF0C7FF06A80EF06EF87D
:101C400009A80EF06BF803A80EF068F83548A17AE1
:101C5000E27A03F009F8F8B906A833490EF0A0F8C3
:101C600006A909A80EF0BDF809A832490EF072F9CC
:101C700027490EF06FF927490EF06CF926490EF04E
:101C800069F9014625480DF09FFF09A80EF046F8B6
:101C900006A80EF043F803E015B12748152101E02E
:101CA0002548162102220BF00FF91EE0234906A851
:101CB0000EF076F806A909A80EF093F8204909A8B5
:101CC0000EF048F912490EF045F912490EF042F9AA
:101CD00011490EF03FF9014610480DF075FF09A8B3
:101CE0000EF01CF806A80EF019F8164B05481A88D5
:101CF00000210CB0BDE870400FF050BF0CB070BDBB
:101D00001D0000209C180020487701081F7B010857
:101D1000FE7601086D750108069701085C1F00201A
:101D2000247B0108B81B002054770108347B01088C
:101D3000507B0108607B0108541F0020E0760108F9
:101D40009D7B01088417002010B5384B88B01B78A4
:101D5000002B68D0364C00230093E2780421012345
:101D6000FEF7E8FB002836D0324902A80EF018F83A
:101D700002A905A80EF035F82F4905A80EF0EAF8DB
:101D80002E490EF0E7F82E490EF0E4F82D490EF03A
:101D9000E1F801462C480DF017FF05A80DF0BEFF35
:101DA00002A80DF0BBFF28480DF0B8FD2748217AA6
:101DB00002F00EFB20B12648012101F0F9FD29E0D7
:101DC000244902A80DF0ECFF02A905A80EF009F8BD
:101DD00005A8214909E0174902A80DF0E1FF02A971
:101DE00005A80DF0FEFF1D4905A80EF0B3F8134934
:101DF0000EF0B0F812490EF0ADF812490EF0AAF844
:101E0000014611480DF0E0FE05A80DF087FF02A87D
:101E10000DF084FF124B06481A88002108B0BDE877
:101E200010400FF0BBBE08B010BD00BF1D00002069
:101E30009C180020E0760108B17B0108FE760108BD
:101E40003A760108069701085C1F0020B51B0020A8
:101E5000B31B002054770108B67B0108C97B010839
:101E6000841700202DE9F047AE4BA0B01B78002B63
:101E700000F03282AC4C4FF00008E2780421CDF83B
:101E800000800123FEF756FB002800F0E281A749FD
:101E90001AA80DF085FF1AA91DA80DF0A2FFA449EC
:101EA0001DA80EF057F8A3490EF054F8A2490EF001
:101EB00051F8A2490EF04EF80146A1480DF084FEFB
:101EC0001DA80DF02BFF1AA80DF028FF9C480DF05F
:101ED00025FD217A10220BAF090905A80DF0ADFFF1
:101EE00005A938460DF07DFF217A102201F00F017F
:101EF00008A80DF0A2FF08A938460EF01EF8617A76
:101F00000EAE05461022090930460DF096FF284610
:101F100031460EF012F8617A11AD8146102201F0BF
:101F20000F0128460DF089FF484629460EF005F8B6
:101F3000A17A81461022090914A80DF07EFF4846B7
:101F400014A90DF0FAFFA17A8146102201F00F01C9
:101F500017A80DF072FF484617A90DF0EEFFE17AC1
:101F60008146102209091AA80DF067FF48461AA9F0
:101F70000DF0E3FFE17A1022814601F00F011DA868
:101F80000DF05BFF1DA948460DF0D7FF014602A8E2
:101F90000DF027FF1DA80DF0C1FE1AA80DF0BEFE22
:101FA00017A80DF0BBFE14A80DF0B8FE28460DF0E2
:101FB000B5FE30460DF0B2FE08A80DF0AFFE384673
:101FC0000DF0ACFE05A80DF0A9FE58491AA80DF0B9
:101FD000E7FE1AA91DA80DF004FF5A491DA80DF02F
:101FE000B9FF02A90DF0A9FF52490DF0B3FF524904
:101FF0000DF0B0FF51490DF0ADFF014650480DF016
:10200000E3FD1DA80DF08AFE1AA80DF087FE4C48CE
:102010004D49CDF82C80CDF830800DF0C4FD4446FC
:10202000049B9C4212D2214602A80EF018F83038C8
:10203000C1B208290DD839550A2241480DF05BFE7E
:102040003F4842490DF0AFFD0134E9E74FF0000988
:1020500001E04FF001093E4939480DF0BFFD002471
:10206000374839490DF09FFD0E940F942E4B1A19E5
:10207000117B9A4664290ED80A22314831550DF059
:102080003AFE01342E4831490DF08DFD082CEDD17A
:102090004FF0000801E04FF001082E4928480DF0EC
:1020A0009DFD0024264828490DF07DFD11941294D1
:1020B0009AF814302248A3401B0644BF01232B5535
:1020C000295D0A2201340DF016FE082CF0D11C48BF
:1020D00021490DF083FDB9F1000F45D01F491AA821
:1020E0000DF05EFE1AA91DA80DF07BFE1C491DA86F
:1020F0000DF030FF0F490DF02DFF0F490DF02AFFB5
:102100000E490DF027FF01460D480DF05DFD1DA89D
:102110000DF004FE1AA80DF001FE12480321024A38
:10212000012390E01D0000209C1800204877010842
:10213000DD7B0108FE760108CE75010806970108CF
:102140005C1F0020E27B010896980108AB7F010824
:10215000F97B0108067C0108177C01085477010807
:10216000287C0108541F0020B8F1000F23D05C49DF
:102170001AA80DF015FE1AA91DA80DF032FE594936
:102180001DA80DF0E7FE58490DF0E4FE57490DF08B
:10219000E1FE57490DF0DEFE014656480DF014FDF4
:1021A0001DA80DF0BBFD1AA80DF0B8FD5248032183
:1021B000524A022347E05248394602F0F9FE00280D
:1021C00054D04F48294602F06DFF00284ED04C48AD
:1021D00002F0E2FF002849D04A4B14AA1868596857
:1021E00003C214A83146022208F076FB04280446F4
:1021F00041D13B4917A80DF0D3FD17A91DA80DF03B
:10220000F0FD41491AA80DF0CBFD1AA91DA80DF04B
:1022100094FE35490DF09EFE34490DF09BFE344985
:102220000DF098FE014633480DF0CEFC1AA80DF0D3
:1022300075FD1DA80DF072FD17A80DF06FFD2E485D
:102240002E4A032123460BF039FC02A80DF066FD4F
:1022500003E028482D490DF0C1FC2D4B27481A8872
:10226000002120B0BDE8F0470FF098BC03212248C0
:10227000224A0B46E7E7274917A80DF091FD17A959
:102280001DA80DF0AEFD23491AA80DF089FD1AA96D
:102290001DA80DF052FE20490DF05CFE1F490DF007
:1022A00059FE11490DF056FE10490DF053FE10492C
:1022B0000DF050FE01460F480DF086FC1AA80DF0F7
:1022C0002DFD1DA80DF02AFD17A80DF027FD0A48C9
:1022D00003210A4A4346B6E720B0BDE8F08700BFB5
:1022E000547701085F7C0108FE760108CE7501086D
:1022F000069701085C1F0020541F00209C18002036
:10230000B61B0020807401089A7C01082F7D01080B
:102310008417002048770108BD7C0108137D01085F
:10232000F0B59E4B8FB01B78002B00F089819C4F3D
:102330000025FA78042100950123FEF7FBF8002818
:1023400000F05681974908A80DF02AFD08A90BA8AE
:102350000DF047FD94490BA80DF0FCFD93490DF0DD
:10236000F9FD93490DF0F6FD92490DF0F3FD01469C
:1023700091480DF029FC0BA80DF0D0FC08A80DF039
:10238000CDFC8D480DF0CAFA8C4B03261E708C4C88
:102390003B7A8C48237002F063FFA646074628BBB1
:1023A00008A889490DF0FCFC08A90BA80DF019FD3F
:1023B0000BA886490DF0CEFD7C490DF0CBFD7C4984
:1023C0000DF0C8FD7B490DF0C5FD01467A480DF0C2
:1023D000FBFB0BA80DF0A2FC08A80DF09FFC7C48AD
:1023E000314622783B460BF02FFC20E12B46794A00
:1023F00000259D540133082BF9D1774A03AB1068AF
:10240000516803C39EF80030FF2B27D1654905A80A
:102410000DF0C6FC05A90BA80DF0E3FC6F4908A858
:102420000DF0BEFC08A90BA80DF087FD5F490DF06B
:1024300091FD5F490DF08EFD5E490DF08BFD01466B
:102440005D480DF0C1FB08A80DF068FC0BA80DF06D
:1024500065FC05A80DF062FC042443E02C46584BB3
:10246000EEB21A78C6F10703DBB242FA03F3DB07D8
:1024700035D5584B0122EA544A4905A80DF090FC85
:1024800005A90BA80DF0ADFC554908A80DF088FC76
:1024900008A90BA80DF051FD31460DF06DFD514915
:1024A0000DF058FD41490DF055FD41490DF052FD2B
:1024B00040490DF04FFD01463F480DF085FB08A84F
:1024C0000DF02CFC0BA80DF029FC05A80DF026FC46
:1024D0000EAB23440136013403F82C6CE4B2013511
:1024E000082DBCD12F4908A80DF05AFC08A90BA84B
:1024F0000DF077FC3C490BA80DF02CFD2B490DF09D
:1025000029FD2B490DF026FD2A490DF023FD01463A
:1025100029480DF059FB0BA80DF000FC08A80DF0A0
:10252000FDFB274B2A481A78022101230BF08CFB74
:1025300003A82146012208F0FDFD002877D10122E1
:10254000214603A809F01AFE1649044605A80DF015
:1025500027FC05A90BA80DF044FC244908A80DF0A0
:102560001FFC08A90BA80DF0E8FC21460DF004FDA6
:102570000E490DF0EFFC0E490DF0ECFC0D490DF08D
:10258000E9FC01460C480DF01FFB08A80DF0C6FB46
:102590000BA80DF0C3FB05A847E000BF1D000020FD
:1025A0009C180020487701084A7D0108FE76010842
:1025B000787F0108069701085C1F00205218002050
:1025C00050180020B61B0020547701084F7D0108E9
:1025D000541F0020D019002080740108817D01085B
:1025E000A07D0108A47D0108BA7D0108D67D0108FF
:1025F000144908A80DF0D4FB08A90BA80DF0F1FBB5
:1026000011490BA80DF0A6FC10490DF0A3FC1049D0
:102610000DF0A0FC0F490DF09DFC01460E480DF099
:10262000D3FA0BA80DF07AFB08A80DF077FB0B4B43
:102630000B481A8800210FB0BDE8F0400FF0AEBA89
:102640000FB0F0BDE0760108E57D0108FE760108D7
:10265000787F0108069701085C1F0020841700207E
:102660009C1800202DE9F0417D4B94B01B78002B85
:1026700000F0C0817B4D0024EA78042100940123FE
:10268000FDF758FFA846002800F08C8176490EA877
:102690000DF086FB0EA911A80DF0A3FB734911A83C
:1026A0000DF058FC72490DF055FC72490DF052FCCA
:1026B00071490DF04FFC014670480DF085FA11A8E4
:1026C0000DF02CFB0EA80DF029FB6C480DF026F93F
:1026D00005F108070394049405940694079408945C
:1026E00009940A940125264617F8013B0BA8FF2BF5
:1026F0005D4912D10DF054FB0BA911A80DF071FB2F
:102700005F490EA80DF04CFB0EA911A80DF015FCA9
:1027100029460DF045FC5B49CEE0642B38D80DF01E
:102720003FFB0BA911A80DF05CFB55490EA80DF05D
:1027300037FB0EA911A80DF000FC29460DF030FC66
:1027400051490DF007FC17F8011C0DF015FC484924
:102750000DF000FC47490DF0FDFB47490DF0FAFB79
:10276000014646480DF030FA0EA80DF0D7FA11A830
:102770000DF0D4FA0BA80DF0D1FA14AB17F8012C18
:102780003344013603F8445C03F8342CF6B2ABE072
:10279000F02B2FD10DF004FB0BA911A80DF021FB9C
:1027A00037490EA80DF0FCFA0EA911A80DF0C5FBD3
:1027B00029460DF0F5FB35490DF0CCFB2C490DF009
:1027C000C9FB2C490DF0C6FB2B490DF0C3FB01469C
:1027D0002A480DF0F9F90EA80DF0A0FA11A80DF095
:1027E0009DFA0BA80DF09AFA14AB234403F83C5C55
:1027F000002230E0F12B4DD10DF0D2FA0BA911A837
:102800000DF0EFFA1E490EA80DF0CAFA0EA911A894
:102810000DF093FB29460DF0C3FB1D490DF09AFB0B
:1028200013490DF097FB13490DF094FB12490DF07D
:1028300091FB014611480DF0C7F90EA80DF06EFA94
:1028400011A80DF06BFA0BA80DF068FA14AB234435
:1028500003F83C5C6422013403F82C2CE4B243E01E
:102860001D0000209C18002048770108F97D010810
:10287000FE76010809750108069701085C1F002013
:10288000A07D0108FE7D0108147E01082D7E01084F
:102890003D7E01080DF084FA0BA911A80DF0A1FAF4
:1028A00056490EA80DF07CFA0EA911A80DF045FBB3
:1028B00029460DF075FB52490DF04CFB51490DF0C6
:1028C00049FB51490DF046FB50490DF043FB0146D1
:1028D0004F480DF079F90EA80DF020FA11A80DF06F
:1028E0001DFA0BA80DF01AFA0135092D7FF4FCAE84
:1028F00098F81030474D48490BA82B700DF050FA4E
:102900000BA911A80DF06DFA44490EA80DF048FA74
:102910000EA911A80DF011FB29780DF02DFB4049EF
:102920000DF018FB37490DF015FB37490DF012FB80
:1029300036490DF00FFB014635480DF045F90EA85C
:102940000DF0ECF911A80DF0E9F90BA80DF0E6F97E
:10295000344802210122344B0BF026FA76B131467D
:1029600007AA03A807F0ECFE03A83146022208F0EC
:10297000E1FBA0B903A8314602220EE07CB121465A
:1029800009AA05A807F0DCFE05A82146032208F0E5
:10299000D1FB20B905A82146032209F0EFFB002353
:1029A0002B701EE021490EA80DF0FAF90EA911A80E
:1029B0000DF017FA1E4911A80DF0CCFA11490DF0CF
:1029C000C9FA11490DF0C6FA10490DF0C3FA0146D3
:1029D0000F480DF0F9F811A80DF0A0F90EA80DF0B0
:1029E0009DF9144B14481A88002114B0BDE8F04139
:1029F0000FF0D4B814B0BDE8F08100BFA07D01088D
:102A00004D7E0108FE760108097501080697010848
:102A10005C1F002097170020487701087E7E010880
:102A2000A69A0108541F0020A4180020E07601088F
:102A3000A07E0108841700209C180020F0B5674B89
:102A40008FB01B78002B00F0C780654D0024EA781A
:102A5000042100940123FDF76DFD2F46002800F0AE
:102A60009380604908A80DF09BF908A90BA80DF008
:102A7000B8F95D490BA80DF06DFA5C490DF06AFAE2
:102A80005B490DF067FA5B490DF064FA01465A485C
:102A90000DF09AF80BA80DF041F908A80DF03EF9D9
:102AA00055480CF03BFF554A03AB1068516803C30F
:102AB0002B7AFF2B27D14B4905A80DF071F905A9F9
:102AC0000BA80DF08EF94E4908A80DF069F908A978
:102AD0000BA80DF032FA45490DF03CFA44490DF0CF
:102AE00039FA44490DF036FA014643480DF06CF8C6
:102AF00008A80DF013F90BA80DF010F905A80DF0BA
:102B00000DF904253BE025463B7A661CA34013F0F3
:102B1000800F31D0334905A80DF042F905A90BA863
:102B20000DF05FF9374908A80DF03AF908A90BA88C
:102B30000DF003FA21460DF033FA33490DF00AFA8D
:102B40002A490DF007FA2A490DF004FA29490DF037
:102B500001FA014628480DF037F808A80DF0DEF814
:102B60000BA80DF0DBF805A80DF0D8F80EAB2B4440
:102B7000013503F82C6CEDB2082E3446C4D103A8FD
:102B8000294608F02BFA1EE0204908A80DF008F9A4
:102B900008A90BA80DF025F91D490BA80DF0DAF9CD
:102BA00012490DF0D7F912490DF0D4F911490DF081
:102BB000D1F9014610480DF007F80BA80DF0AEF85A
:102BC00008A80DF0ABF8134B05481A8800210FB088
:102BD000BDE8F0400EF0E2BF0FB0F0BD1D000020D8
:102BE0009C18002048770108B47E0108FE76010891
:102BF000AE750108069701085C1F0020807401086B
:102C0000B97E0108A07D0108D27E0108E0760108A6
:102C1000E27E01088417002030B56B4B89B01B7829
:102C2000002B00F0CF80694C0025E278009504214C
:102C30000123FDF77FFC002800F09C80644902A876
:102C40000DF0AEF802A905A80DF0CBF8614905A872
:102C50000DF080F960490DF07DF960490DF07AF9C9
:102C60005F490DF077F901465E480CF0ADFF05A80D
:102C70000DF054F802A80DF051F85A480CF04EFE31
:102C80005948217A02F0F6FA18B302A850490DF01B
:102C900087F802A905A80DF0A4F805A853490DF07E
:102CA00059F94D490DF056F94C490DF053F94C497D
:102CB0000DF050F901464B480CF086FF05A80DF0C9
:102CC0002DF802A80DF02AF80121474802F040FB38
:102CD00027E0474902A80DF063F802A905A80DF006
:102CE00080F8444905A80DF035F93B490DF032F95B
:102CF0003A490DF02FF93A490DF02CF901463948BF
:102D00000CF062FF05A80DF009F802A80DF006F816
:102D10000A21354802F0AEFA3348012102F018FBCF
:102D20000125637A03B308F081F9294902A80DF05F
:102D300037F802A905A80DF054F82F4905A80DF0A1
:102D400009F925490DF006F924490DF003F9244944
:102D50000DF000F9014623480CF036FF05A80CF0F1
:102D6000DDFF02A80CF0DAFF244803212A460BF00D
:102D700009F91EE0224902A80DF012F802A905A8DF
:102D80000DF02FF81F4905A80DF0E4F812490DF0D9
:102D9000E1F812490DF0DEF811490DF0DBF80146BB
:102DA00010480CF011FF05A80CF0B8FF02A80CF0B9
:102DB000B5FF154B05481A88002109B0BDE8304021
:102DC0000EF0ECBE09B030BD1D0000209C180020A4
:102DD00048770108F67E0108FE760108557601085D
:102DE000069701085C1F0020B61B0020FB7E01082F
:102DF000547701080E7F0108217F0108541F00202D
:102E0000E07601082E7F01088417002010B586B0F7
:102E10000446FDF711FB132876D8DFE800F03E42A8
:102E2000460A0E12161A4A4E52565A5E1E62666ABA
:102E30006E722046FDF7AEFC66E02046FDF73EFDD3
:102E400062E02046FDF7E2FD5EE02046FDF7BEFEB3
:102E50005AE02046FDF732FF56E068462B490CF059
:102E60009FFF694603A80CF0BCFF03A828490DF09A
:102E700071F828490DF06EF827490DF06BF82749D5
:102E80000DF068F8014626480CF09EFE03A80CF0F1
:102E900045FF68460CF042FF36E02046FDF782FF12
:102EA00032E02046FEF744F82EE02046FEF7BCF85C
:102EB0002AE02046FEF7DAF926E02046FEF708FB76
:102EC00022E02046FEF77AFC1EE02046FEF78EFD4B
:102ED0001AE02046FEF704FE16E02046FEF734FF17
:102EE00012E02046FEF7BEFF0EE02046FFF718FA7C
:102EF0000AE02046FFF7B6FB06E02046FFF79EFDFE
:102F000002E02046FFF788FE06B010BDE07601081B
:102F1000427F0108FE760108247601080697010821
:102F20005C1F00202DE9F74F444D002682462E807D
:102F30000BF040FF424B01271968344601919B4634
:102F400040480CF007FD002806DD0199DBF8002061
:102F500001F6B8339A4222D30BF02CFF062C69D12C
:102F600039483A490CF03AFE36B9394B1B788BB1E7
:102F70005046FFF74BFF0DE028880023801BDAB294
:102F8000F4188242E4B203F10103EEDA31490C5D38
:102F90008C54F4E703B0BDE8F04F0BF00BBFB5F86D
:102FA0000090284809F101022A800CF07FFCDFF82C
:102FB000A4802B8808F80900434413F8011C102250
:102FC00021480CF098FE24491F480CF0ECFD1D48E8
:102FD0000CF0C0FC002802DC04200DF0FDF82B886A
:102FE000B3F5967F02D3154B00221A8047B12B8888
:102FF00008EB030212F8012CFE2AA1D15E1EF6B2E4
:103000002B88434413F8013C0D2B02D1E3070BD46A
:1030100004E00A2B0AD114F0010309D00134E4B210
:10302000062C99D000278BE70124FBE70024F9E761
:103030001C46F7E703B0BDE8F08F00BF84170020FF
:10304000AC200020741F00205C1F0020607F01085E
:103050001C0000209C180020AB7F010808B5044824
:10306000FFF760FF0BF0A6FEBDE8084003F086BB4B
:103070008617002008B51D2000210DF0C3F81D2083
:1030800001210DF07DF8102000210DF0BBF811207A
:1030900000210DF0B7F81C2000210DF0B3F811202D
:1030A00000210DF06DF81C2001210DF069F8BDE83C
:1030B0000840102000210DF063B8000001480CF01A
:1030C000A7BC00BF741F002008B561B100211C20FF
:1030D0000DF056F896200DF07FF8BDE808401C2052
:1030E00001210DF04DB808BD08B500211D200DF0DF
:1030F00047F80C480CF08FFC022000210DF082F8FC
:10310000032000210DF07EF8022000210DF038F898
:10311000032000210DF034F8BDE808401C200021F8
:103120000DF02EB8741F002010B50B78452B12D16E
:103130004B78522B0FD18B78CC78303B03EB830349
:10314000303C04EB4304E4B221460A2203480CF06D
:10315000DBFD204610BD0A2010BD00BF5C1F002013
:103160000B784F2B07D148784B2804D113704B783C
:103170000120537070470020704700002DE9F04196
:1031800090B00E4601A865491C4690460CF008FE1A
:10319000624904A80CF004FE604907A80CF000FE88
:1031A0002046002104220EF0F9FCE023A370E37016
:1031B00035460027AB1B43453AD229780A220DA891
:1031C0000CF02AFE0DA901A80CF072FE0DA80CF05F
:1031D000A5FD15F8013B2C2B28D0303BDBB2092B89
:1031E00098BF05F8013C15F8011C57B92D2902D1EB
:1031F0004B484C4909E00DA80A220CF00DFE04A82A
:103200000DE02D2906D1464847490CF0E7FCF02394
:10321000E370CFE70DA80A220CF0FEFD07A80DA968
:103220000CF046FE0DA80CF079FDC3E70127C1E7BD
:103230003E490AA80CF0B4FD0AA90DA80CF0D1FD76
:1032400001A90DA80CF079FE014635480CF0BCFC34
:103250000DA80CF063FD0AA80CF060FD34490DA820
:103260000CF09EFD0DA92E480CF090FC0DA80CF062
:1032700055FDA3782A48F02B01D12E4903E0E02B1D
:103280000CBF26492C490CF08EFC04A90DA80CF0AB
:10329000A8FD2A490DA80CF05DFE014620480CF05F
:1032A00093FC0DA80CF03AFD25490DA80CF078FD13
:1032B0000DA91B480CF06AFC0DA80CF02FFDE3785B
:1032C0001748F02B01D11B4903E0E02B0CBF134939
:1032D00019490CF068FC07A90DA80CF082FD0DA897
:1032E00016490CF037FE01460D480CF06DFC0DA898
:1032F0000CF014FD04A80CF012FF207007A80CF0CD
:103300000EFF607007A80CF009FD04A80CF006FD84
:1033100001A80CF003FD10B0BDE8F0817383010833
:103320005C1F0020AD7F0108BA7F0108C87F01083B
:10333000D37F0108278D0108DE7F0108EB7F01089C
:10334000F27F0108F8B54C78432C08D18C78532CC7
:1033500005D1CC78B4F151056C426C4100E00024F9
:103360000026F5B24F5D01363A2FFAD10135EDB2A4
:1033700000279542FEB207F1010706D811F805C0F3
:10338000013501F806C0EDB2F3E73CB92046C2B200
:10339000B2420BD20A5C1A540130F8E7069A0224B2
:1033A00012681470721ED2B2FFF7E8FE0120F8BD59
:1033B00037B5154809B9154900E015490CF0F3FB7C
:1033C00064200CF009FF00240F480CF0C3FA002819
:1033D000E5B208DD062C14D00B480CF067FA0DF8A6
:1033E00004000134F0E755B19DF802304F2B08D1AD
:1033F0009DF80300B0F14B035842584102E02846C3
:1034000000E0002003B030BD741F002024850108B7
:10341000FE7F010810B5012104461D200CF0B0FE0E
:1034200007484FF416510CF0F3FA20460121FFF73C
:103430004BFE20460121BDE81040FFF7B9BF00BF99
:10344000741F00202DE9F0419EB005AD0C460746E3
:10345000002190462846642203930EF09FFB2146EC
:103460002C480CF0A0FB64200CF0B6FE0024294888
:103470000CF070FA0028E6B207DD642C45D0254830
:103480000CF014FA28550134F1E726B922492348F3
:103490000CF0A4FB39E09DF814300D2B35D19DF8CC
:1034A00015300A2B31D11EAB334413F8653C0A2B7F
:1034B0002BD1023E1EAB334413F8643C0D2B24D1B8
:1034C0000021CCB2A31CDBB2B34201F1010107DA47
:1034D0001EAA134413F8643C144404F8643CF0E757
:1034E00038462946FFF720FE0A280CD103AB00938B
:1034F0003846294622464346FFF724FF00280CBFE2
:103500000320022002E0012000E003201EB0BDE8FD
:10351000F08100BF741F0020048001085C1F0020A0
:103520002DE9F041B2B006460D46904600216422D6
:1035300068461F460EF032FB19A8002164220EF0E7
:103540002DFB0024E3B2E85C013420B132AA13441D
:1035500003F8640CF6E70146CAB25D1818F8024099
:10356000EDB232AA01312A4414B102F8644CF3E7F7
:103570000D2302F8643C6B1C32A8DBB203442F48D5
:103580000A2203F8642C036819A95B6898472C4841
:10359000AA1C036819A99B68D2B2984764200CF052
:1035A0001BFE27480CF0D6F90028E5B208DD642C94
:1035B0003FD023480CF07AF90DF804000134F0E70D
:1035C000002D36D09DF800300D2B32D19DF8013002
:1035D0000A2B2ED132AB2B4413F8C93C0A2B28D12D
:1035E000023D32AB2B4413F8C83C0D2B21D10021F6
:1035F0008B1CDBB2AB4201F1010209DA32A80344B1
:1036000013F8C83CC9B2014401F8C83C1146EFE7C1
:1036100030466946FFF788FD0A2808D130466946DA
:103620003A46FFF79DFD80F00100C0B202E00120A4
:1036300000E0032032B0BDE8F08100BF5C1F002035
:10364000741F0020F7B51E46044617460D4600219C
:103650008DF80710FFF7ACFE0BF0ACFB20463146AF
:103660002FB12A460DF10703FFF7ECFE03E0089A9D
:103670002B46FFF755FF03282AD8DFE800F0110496
:103680000207002311E01648164901E014481649C4
:103690000CF0A4FA20460121FFF78AFE00201CE06E
:1036A00012490F480CF09AFA12E09DF807205E1CB0
:1036B000DBB29A420A4809D9E95C10220CF01BFBE4
:1036C00007480B490CF06FFA3346EEE70CF070FA3E
:1036D00020460121FFF76CFE012003B0F0BD00BFC2
:1036E0005C1F002018800108298001083280010831
:1036F000AB7F01082DE9F0438BB004AF8046002179
:103700000922384602AE00240EF048FA00944046E2
:1037100031460122454BFFF795FF054620B9444944
:1037200044480CF05BFA7DE02346F25C07AC092AC2
:1037300001D8303204E0A2F10A01052998BF3732DE
:10374000E2540133082BF0D14FF000093A488DF8CC
:10375000249000F099FF024600284AD037493548A6
:103760000CF03CFA3448394600F0B4FE00283BD057
:103770004B46E15CFA5C914248D10133082BF8D109
:103780002F492C480CF02AFA2E492A480CF00BFA43
:103790009DF8161027480CF001FA9DF817102548DF
:1037A0000CF0FCF99DF8141022480CF0F7F99DF884
:1037B000151020480CF0F2F99DF812101D480CF07D
:1037C000EDF99DF813101B480CF0E8F99DF8101066
:1037D00018480CF0E3F99DF8111016480CF0DEF9CA
:1037E00014480CF0E5F91DE0174912480CF0F6F901
:1037F00007E0009440463146144BFFF723FF05468F
:1038000080B121460C4800F0D9FE0AE01049094871
:103810000CF0E4F900974046314600220B4BFFF7CD
:1038200011FF054628460BB0BDE8F083488001082B
:10383000538001085C1F0020B51B00207380010825
:10384000FB8001082581010891800108B5800108ED
:10385000BE8001082DE9F04F89B002AF07F10C06D8
:103860008346894690461C46304600210A220EF0C7
:1038700095F9002C50D1C7F804D05846CDF80080F7
:10388000314601224B46FFF7DDFE824608B1214654
:1038900006E0404940480CF0A1F93F483F496FE03D
:1038A000CCB218F804300131002BF9D1E11D01F43C
:1038B000FC71ADEB010D02A9D8B2A04203D2F05CBD
:1038C000C8540133F8E70B46581AC0B2A0420DD2D3
:1038D00013F8010B092801D8303004E0A0F10A05E3
:1038E000052DF1D8373003F8010CEDE70025EBB2D8
:1038F000A34243D24B5D013508EB050010F8010CE3
:103900009842F4D0264924480CF068F92248254909
:103910000CF064F97B689D466C460023DAB219F816
:10392000021001330A29F9D1931D03F4FC73ADEBA6
:10393000030DA2F1020E02AB0020C1B2551EA94236
:1039400000F1010003DA19F801505D54F5E7002297
:103950003D215A55584603F80E10CDF800803146E7
:10396000FFF770FE054628B90B480F490CF036F9F1
:10397000AA4601E04FF0010AA54605E006480B49BA
:103980000CF02CF97B689D4650461C37BD46BDE8BF
:10399000F08F00BF338101085C1F002059810108AE
:1039A0007D810108D4810108168201084B8201083B
:1039B0002DE9F0418AB006AF0F2204460D46384685
:1039C00000210EF0EBF89B489B490CF007F90A2602
:1039D0000BF0F0F9002D40F0DF802046FFF78AFE63
:1039E00096498DF81800964A2B462046FFF732FF7D
:1039F0002B468DF8190093492046934AFFF72AFF7A
:103A0000DFF8D0828DF81A0098F80030012B04D12D
:103A10008E4988480CF0E2F82BE0022B0FD18C493C
:103A200084480CF0DBF88B498B4A20462B46FFF785
:103A300011FF8A498DF81B00894A204624E08949F4
:103A400068460CF0ADF9694603A80CF0CAF998F87D
:103A5000001003A80CF090FA83490CF07BFA0146A1
:103A600074480CF0B1F803A80CF058F968460CF053
:103A700055F978497D4A20462B46FFF7EBFE7749FA
:103A80007B4A8DF81B0020462B46FFF7E3FEDFF84C
:103A900048828DF81C0098F80030222B04D175491B
:103AA00064480CF09BF823E00C2B07D17249614865
:103AB0000CF094F820467149714A1CE0714968463F
:103AC0000CF06EF9694603A80CF08BF998F8001019
:103AD00003A80CF051FA64490CF03CFA0146554831
:103AE0000CF072F803A80CF019F968460CF016F9FE
:103AF0006249654A20460023FFF7ACFE8DF81D00A1
:103B0000624800F0C9FCF1286149204608D1614AA9
:103B10000023FFF79FFE60498DF81E00454807E02F
:103B2000494A0023FFF796FE5C498DF81E00414884
:103B30000CF054F85A495B4A00232046FFF78AFEEE
:103B400059498DF81F00574A00232046FFF782FE8F
:103B500056498DF820004F4A00232046FFF77AFE91
:103B600053498DF82100534A00232046FFF772FE87
:103B700051498DF82200514A00232046FFF76AFE82
:103B8000314A8DF823004E4920460023FFF762FE9C
:103B90000D228DF824000EE03C4800F07DFCF12859
:103BA0000CBF3C4A284A204639490023FFF752FE01
:103BB00001228DF818000023F95CA9B941491D487C
:103BC0000CF00CF82046FFF725FC2046FFF78CFA96
:103BD0000BF0F0F82046FFF71DFC4FF4FA600CF0F4
:103BE000FBFA0BF0E7F804E00133D9B29142E3D3DA
:103BF0001DE035480BF0AEFE002803DD32480BF027
:103C000055FEF6E7013E16F0FF067FF4E1AE2F49C0
:103C100008480BF0E3FF2E4906480BF0DFFF40F6A3
:103C2000B8300CF0D9FA0BF0C5F80BF0F7F80AB081
:103C3000BDE8F0815C1F002073820108A2820108A8
:103C4000AE820108B7820108B4820108C18201086E
:103C5000FF820108D582010813830108EA82010866
:103C60001C8301082583010840830108E1820108C3
:103C7000F6820108578301087483010869830108EB
:103C8000838301088683010866830108B51B002031
:103C90009F83010823790108A9830108B6830108DD
:103CA000C3830108DF7B0108CD830108D7830108A6
:103CB000E1830108217B0108EA8301088578010876
:103CC000F4830108FE830108741F00201B8401088F
:103CD00047840108B21B0020B41B002015200121DD
:103CE0000CF04EBA08B5152000210CF049FABDE8D9
:103CF000084032200CF070BA10B50021044615209F
:103D00000CF080FA152001210CF03AFA2046BDE8AB
:103D10001040FCF731BB7FB505460E46FFF7E2FFCA
:103D20000D2433192146284613F80D2C0134FCF7D5
:103D300057FB162CF5D13046092106F0ADFC06469E
:103D4000214628463246FCF74BFB0D2421462846E7
:103D5000FCF714FB01AB23440134162C03F80D0CC3
:103D6000F4D101A8092106F097FCB04203D0FFF777
:103D7000B5FF00200DE028460B21FCF7FFFA55287F
:103D800004D028460B215522FCF72AFBFFF7A6FF9B
:103D9000012004B070BD7FB505460E46FFF7A2FFB7
:103DA000172433192146284613F8172C0134FCF741
:103DB00017FB202CF5D13046092106F06DFC064694
:103DC000214628463246FCF70BFB1724214628469D
:103DD000FCF7D4FA01AB23440134202C03F8170C70
:103DE000F4D101A8092106F057FCB04203D0FFF737
:103DF00075FF00200DE028460C21FCF7BFFA55287E
:103E000004D028460C215522FCF7EAFAFFF766FF9A
:103E1000012004B070BDF0B585B001AD06460F4677
:103E20002846002109220DF0B9FE0D242146304616
:103E3000FCF7A4FA2B190134162C03F80D0CF5D15C
:103E400021463046FCF79AFA09210446284606F036
:103E500023FC844206D10023EA5CFA540133092B87
:103E6000FAD101E0002000E0012005B0F0BDF0B57E
:103E700085B001AD06460F462846002109220DF007
:103E80008DFE172421463046FCF778FA2B190134B1
:103E9000202C03F8170CF5D121463046FCF76EFABA
:103EA00009210446284606F0F7FB844206D1002388
:103EB000EA5CFA540133092BFAD101E0002000E05A
:103EC000012005B0F0BD37B50C461E210546FCF7B4
:103ED00055FA1F218DF804002846FCF74FFA0221FD
:103EE0008DF8050001A806F0D7FB207003B030BDA7
:103EF00010B50B210446FCF741FA88B1FFF7F2FE3A
:103F0000204600220B21FCF76BFAFFF7E7FE204664
:103F10000B21FCF733FAD0F1010038BF002010BDAF
:103F2000012010BD10B50C210446FCF727FA88B11A
:103F3000FFF7D8FE204600220C21FCF751FAFFF7CC
:103F4000CDFE20460C21FCF719FAD0F1010038BF54
:103F5000002010BD012010BD10B521210446FCF742
:103F60000DFA552811D0FFF7BDFE2046552221211C
:103F7000FCF736FAFFF7B2FE20462121FCF7FEF9E6
:103F8000B0F155035842584110BD012010BD08B58D
:103F90002121FCF7F3F9B0F155035842584108BD0F
:103FA00070B586B004460D46FFF735FF28B12046B0
:103FB0002946FFF75CFF002877D120462946FFF706
:103FC0002AFF18B368464A490BF0EAFE694603A87F
:103FD0000BF007FF03A847490BF0BCFF46490BF065
:103FE000B9FF46490BF0B6FF45490BF0B3FF014658
:103FF00044480BF0E9FD03A80BF090FE68460BF077
:104000008DFE20462946FFF7C6FE6EE02946204673
:10401000FFF72DFF0646364968460EB30BF0C0FE8B
:10402000694603A80BF0DDFE03A837490BF092FFA9
:1040300031490BF08FFF31490BF08CFF30490BF009
:1040400089FF01462F480BF0BFFD03A80BF066FE69
:1040500068460BF063FE20462946FFF75CFE44E00D
:104060000BF09EFE694603A80BF0BBFE274903A890
:104070000BF070FF20490BF06DFF20490BF06AFF39
:104080001F490BF067FF01461E480BF09DFD03A87A
:104090000BF044FE68460BF041FE2046FFF728FF78
:1040A0002046FFF73FFF30461FE0194968460BF0F6
:1040B00077FE694603A80BF094FE164903A80BF09F
:1040C00049FF0D490BF046FF0C490BF043FF0C492B
:1040D0000BF040FF01460B480BF076FD03A80BF0F8
:1040E0001DFE68460BF01AFE012006B070BD00BF31
:1040F0005477010828850108FE760108018501082A
:10410000069701085C1F00205F850108968501085D
:1041100048770108AA850108F8B504460E462F2500
:1041200073192046294613F82F7CFCF727F987429C
:1041300003D10135342DF3D136E0FFF7D3FD2F2520
:1041400073192946204613F82F2C0135FCF748F93E
:10415000342DF5D10521304606F09EFA0746294652
:1041600020463A46FCF73CF92F2520462946FCF725
:1041700005F9731913F82F3C834217D10135342DFB
:10418000F3D120462946FCF7F9F8B8420ED1204673
:104190003521FCF7F3F8552804D020463521552267
:1041A000FCF71EF9FFF79AFD0120F8BDFFF796FD19
:1041B0000020F8BDF7B505460E462F2421462846B7
:1041C000FCF7DCF800AB23440134342C03F82F0C4B
:1041D000F4D10521684606F05FFA214607462846D5
:1041E000FCF7CCF8874207D100231DF80320F254D6
:1041F0000133052BF9D101E0002000E0012003B0DC
:10420000F0BD73B505462F2421462846FCF7B6F8C5
:1042100000AB23440134342C03F82F0CF4D168464E
:10422000052106F039FA214606462846FCF7A6F88D
:10423000331A5842584102B070BD38B50546FFF7F1
:1042400051FD2F2428462146FCF798F868B12846EE
:1042500021460022FCF7C4F828462146FCF78EF8D8
:1042600018B1FFF73BFD002038BD0134342CE9D1F3
:1042700028463521FCF782F820B128463521002256
:10428000FCF7AEF8FFF72AFD012038BD37B50D4623
:104290008DF8071036210446FCF770F885422BD0C4
:1042A00002ADFFF71FFD15F8012D20463621FCF762
:1042B00097F80121284606F0EFF9372102462046FB
:1042C000FCF78EF820463621FCF758F89DF80730A9
:1042D00083420DD120463821FCF750F8552804D0F0
:1042E000204638215522FCF77BF8FFF7F7FC03E066
:1042F000FFF7F4FC002000E0012003B030BD3621C0
:10430000FCF73CB837B536210546FCF737F802AB69
:1043100003F8010D1846012106F0BEF937210446C5
:104320002846FCF72BF8231A5842584103B030BDF9
:1043300010B536210446FCF721F888B1FFF7D2FC0E
:10434000204636210022FCF74BF820463621FCF7A8
:1043500015F818B1FFF7C2FC002010BDFFF7BEFC36
:10436000012010BD10B548210446FCF707F8552878
:1043700011D0FFF7B7FC204655224821FCF730F852
:10438000FFF7ACFC20464821FBF7F8FFB0F15503DE
:104390005842584110BD012010BD10B54D210446B2
:1043A000FBF7ECFF552810D0FFF79CFC2046552268
:1043B0004D21FCF715F8FFF791FC20460021FBF793
:1043C000DDFF003018BF012010BD012010BD00002E
:1043D00030B589B08DF807101031C9B201290446F3
:1043E00029D84C21FBF7CAFF9DF80730834243D000
:1043F00008ADFFF777FC15F8192D20464C21FBF787
:10440000EFFF0121284606F047F94E2102462046DB
:10441000FBF7E6FF20464C21FBF7B0FF9DF8073085
:10442000834205D12046FFF7B8FFFFF757FC23E092
:10443000FFF754FC1EE0124902A80BF0B1FC02A9E0
:1044400005A80BF0CEFC0F4905A80BF083FD0E4923
:104450000BF080FD0D490BF07DFD0D490BF07AFD51
:1044600001460C480BF0B0FB05A80BF057FC02A866
:104470000BF054FC002000E0012009B030BD00BF6B
:1044800054770108DA850108FE760108B78B010828
:10449000069701085C1F002037B54C210446FBF746
:1044A0006DFF02AB03F8010D1846012106F0F4F888
:1044B0004E2105462046FBF761FF854202D19DF85B
:1044C000070004E02046F021FFF782FFF02003B050
:1044D00030BD0000F0B5054689B00E464F24214698
:1044E0002846FBF74BFF00AB23440134572C03F85D
:1044F0004F0CF4D10821684606F0CEF82146074655
:104500002846FBF73BFF874227D100231DF80320F5
:10451000F2540133082BF9D1114902A80BF040FCE9
:1045200002A905A80BF05DFC0E4905A80BF012FDD1
:104530000D490BF00FFD0D490BF00CFD0C490BF074
:1045400009FD01460B480BF03FFB05A80BF0E6FB0D
:1045500002A80BF0E3FB012000E0002009B0F0BD51
:1045600048770108FB850108FE760108DE8B01080B
:10457000069701085C1F002010B558210446FBF780
:10458000FDFE552808D0FFF7ADFB204658215522E7
:10459000FBF726FFFFF7A2FB10BD10B5582104461C
:1045A000FBF7ECFE40B1FFF79DFB204658210022AF
:1045B000FBF716FFFFF792FB10BD0000F0B50F46AA
:1045C00089B00546FFF78EFB3846082106F064F8EF
:1045D0004F2406463B192146284613F84F2C013438
:1045E000FBF7FEFE572CF5D1214628463246FBF755
:1045F000F7FE4F2421462846FBF7C0FE00AB2344BC
:104600000134572C03F84F0CF4D16846082106F00A
:1046100043F8864206D02846FFF7BFFFFFF75EFB50
:10462000002022E0124902A80BF0BAFB02A905A85B
:104630000BF0D7FB0F4905A80BF08CFC0E490BF0D3
:1046400089FC0E490BF086FC0D490BF083FC0146FA
:104650000C480BF0B9FA05A80BF060FB02A80BF0B0
:104660005DFB2846FFF788FF012009B0F0BD00BFC1
:104670004877010810860108FE760108CB840108FE
:10468000069701085C1F002008B55821FBF776FE4D
:10469000B0F155035842584108BD10B57F2104467A
:1046A000FBF76CFE55280AD0FFF71CFB20467F2144
:1046B0005522FBF795FEFFF711FB002010BD0120EE
:1046C00010BD38B50C467E210546FBF757FEA042CB
:1046D00008D0FFF707FB28467E212246FBF780FE25
:1046E000FFF7FCFA012038BD7E21FBF747BE10B56D
:1046F00081210446FBF742FE55280AD0FFF7F2FA63
:10470000204681215522FBF76BFEFFF7E7FA0020D8
:1047100010BD012010BD38B50C4680210546FBF7C1
:104720002DFEA04208D0FFF7DDFA28468021224660
:10473000FBF756FEFFF7D2FA012038BD8021FBF7C8
:104740001DBE70B504460E461546FFF7CBFA20464F
:1047500032462221FBF744FE204623212A46FBF75E
:104760003FFEFFF7BBFA70BDFBF708BEFBF706BEC6
:1047700070B504460E461546FFF7B4FA2046324699
:104780002421FBF72DFE204625212A46FBF728FE93
:10479000FFF7A4FA70BD10B50446FFF7A3FA204650
:1047A00055225921FBF71CFEFFF798FA20465921A4
:1047B000FBF7E4FDB0F155035842584110BD08B570
:1047C0005921FBF7DBFDB0F155035842584108BDB4
:1047D00010B50446FFF786FA204600225921FBF760
:1047E000FFFDFFF77BFA20465921FBF7C7FDD0F10B
:1047F000010038BF002010BD70B5002388B0054609
:104800000E4600930193FFF76DFA5A24331921469F
:10481000284613F85A2C0134FBF7E2FD622CF5D13F
:104820003046082105F038FF064621462846324624
:10483000FBF7D6FD5A2421462846FBF79FFD00AB27
:1048400023440134622C03F85A0CF4D10821684641
:1048500005F022FF0446FFF741FAB44202A81FD137
:1048600020490BF09DFA02A905A80BF0BAFA1E49DF
:1048700005A80BF06FFB1D490BF06CFB1C490BF0FE
:1048800069FB1C490BF066FB01461B480BF09CF9C9
:1048900005A80BF043FA02A80BF040FA01201EE035
:1048A00016490BF07DFA02A905A80BF09AFA1449F3
:1048B00005A80BF04FFB0D490BF04CFB0C490BF01E
:1048C00049FB0C490BF046FB01460B480BF07CF909
:1048D00005A80BF023FA02A80BF020FA002008B07C
:1048E00070BD00BF4877010825860108FE760108E3
:1048F0002B8C0108069701085C1F002054770108E3
:104900004086010830B587B01749054668460BF068
:1049100047FA694603A80BF064FA144903A80BF0A0
:1049200019FB13490BF016FB12490BF013FB12494C
:104930000BF010FB014611480BF046F903A80BF0F1
:10494000EDF968460BF0EAF95A2421462846FBF7B0
:1049500015FD0B4B1A190134622C02F85A0CF4D1D4
:10496000184607B030BD00BF4877010873830108BF
:10497000FE7601083D8C0108069701085C1F0020A7
:10498000BB1B002070B5002388B005460E4600937F
:104990000193FFF7A7F9632433192146284613F83A
:1049A000632C0134FBF71CFD6B2CF5D1304608213C
:1049B00005F072FE0646732128463246FBF710FDCD
:1049C000632421462846FBF7D9FC00AB234401347D
:1049D0006B2C03F8630CF4D10821684605F05CFEEB
:1049E0000446FFF77BF9B44202A81FD120490BF01F
:1049F000D7F902A905A80BF0F4F91E4905A80BF098
:104A0000A9FA1D490BF0A6FA1C490BF0A3FA1C49A0
:104A10000BF0A0FA01461B480BF0D6F805A80BF0E6
:104A20007DF902A80BF07AF901201EE016490BF07F
:104A3000B7F902A905A80BF0D4F9144905A80BF0A1
:104A400089FA0D490BF086FA0C490BF083FA0C49F0
:104A50000BF080FA01460B480BF0B6F805A80BF0F6
:104A60005DF902A80BF05AF9002008B070BD00BF34
:104A7000487701086E860108FE760108DA8401088D
:104A8000069701085C1F00205477010889860108F9
:104A900070B50E4686B0742104461546FBF76EFCD1
:104AA000B04205D120467521FBF768FCA84219D019
:104AB000FFF718F9204674213246FBF791FC204697
:104AC00075212A46FBF78CFCFFF708F92046742174
:104AD000FBF754FCB04226D120467521FBF74EFC73
:104AE000A84220D1214968460BF05AF9694603A82B
:104AF0000BF077F91E4903A80BF02CFA1D490BF0B7
:104B000029FA1D490BF026FA1C490BF023FA01463D
:104B10001B480BF059F803A80BF000F968460BF09E
:104B2000FDF801201FE0174968460BF039F9694686
:104B300003A80BF056F9144903A80BF00BFA0D4922
:104B40000BF008FA0C490BF005FA0C490BF002FACD
:104B500001460B480BF038F803A80BF0DFF8684665
:104B60000BF0DCF8002006B070BD00BF48770108EC
:104B7000A7860108FE760108BE8401080697010891
:104B80005C1F002054770108BB86010810B504465D
:104B900086B0FFF7A7F8204674210022FBF720FC1F
:104BA000204675210022FBF71BFCFFF797F82046F3
:104BB0007421FBF7E3FB20B920467521FBF7DEFBF0
:104BC00000B3214968460BF0EBF8694603A80BF0E7
:104BD00008F91E4903A80BF0BDF91D490BF0BAF9FD
:104BE0001C490BF0B7F91C490BF0B4F901461B48FE
:104BF0000AF0EAFF03A80BF091F868460BF08EF874
:104C000000201FE0164968460BF0CAF8694603A861
:104C10000BF0E7F8134903A80BF09CF90C490BF0D3
:104C200099F90C490BF096F90B490BF093F90146F1
:104C30000A480AF0C9FF03A80BF070F868460BF0A9
:104C40006DF8012006B010BD54770108CF86010829
:104C5000FE7601081D8C0108069701085C1F0020E4
:104C600048770108E386010870B50E4686B07A21C0
:104C700004461546FBF782FBB04205D120467B2156
:104C8000FBF77CFBA84219D0FFF72CF820467A21CD
:104C90003246FBF7A5FB20467B212A46FBF7A0FB0B
:104CA000FFF71CF820467A21FBF768FBB04226D1BB
:104CB00020467B21FBF762FBA84220D121496846B0
:104CC0000BF06EF8694603A80BF08BF81E4903A899
:104CD0000BF040F91D490BF03DF91D490BF03AF975
:104CE0001C490BF037F901461B480AF06DFF03A879
:104CF0000BF014F868460BF011F801201FE017497B
:104D000068460BF04DF8694603A80BF06AF81449A1
:104D100003A80BF01FF90D490BF01CF90C490BF01F
:104D200019F90C490BF016F901460B480AF04CFF33
:104D300003A80AF0F3FF68460AF0F0FF002006B06F
:104D400070BD00BF487701085B870108FE76010847
:104D500086840108069701085C1F0020547701082B
:104D60007487010838B57A210546FBF707FB7B21DC
:104D700004462846FBF702FB00EB042038BD000088
:104D800070B50E4686B0782104461546FBF7F6FA54
:104D9000B04205D120467921FBF7F0FAA84219D09C
:104DA000FEF7A0FF204678213246FBF719FB20468C
:104DB00079212A46FBF714FBFEF790FF2046782165
:104DC000FBF7DCFAB04226D120467921FBF7D6FA70
:104DD000A84220D1214968460AF0E2FF694603A8AB
:104DE0000AF0FFFF1E4903A80BF0B4F81D490BF0B1
:104DF000B1F81D490BF0AEF81C490BF0ABF80146B9
:104E00001B480AF0E1FE03A80AF088FF68460AF092
:104E100085FF01201FE0174968460AF0C1FF694677
:104E200003A80AF0DEFF144903A80BF093F80D491C
:104E30000BF090F80C490BF08DF80C490BF08AF848
:104E400001460B480AF0C0FE03A80AF067FF684657
:104E50000AF064FF002006B070BD00BF487701086B
:104E6000BF870108FE7601085F8C010806970108DC
:104E70005C1F002054770108D887010838B57821D5
:104E80000546FBF77BFA792104462846FBF776FABC
:104E900000EB042038BD000070B50E4686B07C21C2
:104EA00004461546FBF76AFAB04205D120467D213B
:104EB000FBF764FAA84219D0FEF714FF20467C21C4
:104EC0003246FBF78DFA20467D212A46FBF788FA09
:104ED000FEF704FF20467C21FBF750FAB04226D1B2
:104EE00020467D21FBF74AFAA84220D12149684695
:104EF0000AF056FF694603A80AF073FF1E4903A88B
:104F00000BF028F81D490BF025F81D490BF022F88D
:104F10001C490BF01FF801461B480AF055FE03A878
:104F20000AF0FCFE68460AF0F9FE01201FE017496E
:104F300068460AF035FF694603A80AF052FF144993
:104F400003A80BF007F80D490BF004F80C490BF01F
:104F500001F80C490AF0FEFF01460B480AF034FE46
:104F600003A80AF0DBFE68460AF0D8FE002006B06F
:104F700070BD00BF4877010823880108FE7601084C
:104F8000CA8B0108069701085C1F002054770108AE
:104F90003E88010838B57C210546FBF7EFF97D21F5
:104FA00004462846FBF7EAF900EB042038BD000070
:104FB00070B586B005460E46FEF794FE002404F157
:104FC0008201325D28460134FBF70AFA082CF6D13B
:104FD000FEF784FE0024284604F18201FBF7CEF997
:104FE000335D834220D0234968460AF0D9FE6946E2
:104FF00003A80AF0F6FE204903A80AF0ABFF1F49F8
:105000000AF0A8FF1E490AF0A5FF1E490AF0A2FFF8
:1050100001461D480AF0D8FD03A80AF07FFE684645
:105020000AF07CFE002022E00134082CD3D117497D
:1050300068460AF0B5FE694603A80AF0D2FE144994
:1050400003A80AF087FF0D490AF084FF0C490AF013
:1050500081FF0C490AF07EFF01460B480AF0B4FDBF
:1050600003A80AF05BFE68460AF058FE012006B06D
:1050700070BD00BF547701088F880108FE760108D3
:10508000EC840108069701085C1F0020487701089E
:10509000AE880108052902D88231FBF76FB90020DC
:1050A0007047000070B586B005460E46FEF71AFE42
:1050B000002404F18A01325D28460134FBF790F99F
:1050C000082CF6D1FEF70AFE8A2428462146FBF773
:1050D00055F9331913F88A3C834220D02249684697
:1050E0000AF05EFE694603A80AF07BFE1F4903A88A
:1050F0000AF030FF1E490AF02DFF1E490AF02AFF70
:105100001D490AF027FF01461C480AF05DFD03A86F
:105110000AF004FE68460AF001FE002022E0013495
:10512000922CD2D1164968460AF03AFE694603A885
:105130000AF057FE134903A80AF00CFF0C490AF0C5
:1051400009FF0C490AF006FF0B490AF003FF01466C
:105150000A480AF039FD03A80AF0E0FD68460AF0A3
:10516000DDFD012006B070BD5477010805890108F6
:10517000FE7601080A8C0108069701085C1F0020D2
:105180004877010836890108052902D88A31FBF7DA
:10519000F5B800207047000010B5044686B0FEF751
:1051A000A1FD204692215522FBF71AF9FEF796FD44
:1051B00020469221FBF7E2F8552868461FD1204986
:1051C0000AF0EEFD694603A80AF00BFE1D4903A88C
:1051D0000AF0C0FE1C490AF0BDFE1C490AF0BAFEE6
:1051E0001B490AF0B7FE01461A480AF0EDFC03A875
:1051F0000AF094FD68460AF091FD01201EE0164970
:105200000AF0CEFD694603A80AF0EBFD134903A896
:105210000AF0A0FE0C490AF09DFE0C490AF09AFE25
:105220000B490AF097FE01460A480AF0CDFC03A894
:105230000AF074FD68460AF071FD002006B010BD4A
:105240004877010899890108FE7601084F8C01080A
:10525000069701085C1F002054770108C3890108E4
:1052600008B59221FBF78AF8B0F15503584258412E
:1052700008BD000030B5054687B00C46FEF732FD8C
:10528000284693212246FBF7ABF8FEF727FD284678
:105290009321FBF773F80546A542684622D12249BF
:1052A0000AF07EFD694603A80AF09BFD1F4903A88A
:1052B0000AF050FE29460AF05FFE1D490AF04AFE38
:1052C0001C490AF047FE1C490AF044FE01461B48EF
:1052D0000AF07AFC03A80AF021FD68460AF01EFDD8
:1052E00001201EE016490AF05BFD694603A80AF09A
:1052F00078FD144903A80AF02DFE0D490AF02AFE94
:105300000C490AF027FE0C490AF024FE01460B481E
:105310000AF05AFC03A80AF001FD68460AF0FEFCF8
:10532000002007B030BD00BF48770108478A010858
:10533000FE760108A8840108069701085C1F00207A
:10534000547701086C8A01089321FBF717B8000015
:1053500030B50C4687B00546FEF7C4FC28469421BC
:105360002246FBF73DF8FEF7B9FC28469421FBF7EF
:1053700005F8A04268461FD120490AF011FD694690
:1053800003A80AF02EFD1E4903A80AF0E3FD1D49FB
:105390000AF0E0FD1C490AF0DDFD1C490AF0DAFDC7
:1053A00001461B480AF010FC03A80AF0B7FC684647
:1053B0000AF0B4FC01201EE016490AF0F1FC69462F
:1053C00003A80AF00EFD144903A80AF0C3FD0D4915
:1053D0000AF0C0FD0C490AF0BDFD0C490AF0BAFD07
:1053E00001460B480AF0F0FB03A80AF097FC684658
:1053F0000AF094FC002007B030BD00BF48770108D8
:10540000BD8A0108FE760108988401080697010804
:105410005C1F002054770108D78A010808B5942141
:10542000FAF7ACFF003018BF012008BD2DE9F04F9E
:1054300087B00E469046824609F0BCFCFEF752FC4F
:10544000B04434464445C6EB04097BD0C6EB0A059C
:1054500025446048294614F8012BFAF7C1FF0027BC
:105460005C482946FAF78AFF14F8013C8342E9D0E8
:1054700009F0A0FC584968460AF092FC694603A866
:105480000AF0AFFC554903A80AF064FD29460AF06A
:1054900087FD53490AF05EFD294683464D48FAF7D9
:1054A0006DFF014658460AF067FD4E490AF052FD6D
:1054B0004D490AF04FFD4D490AF04CFD01464C485C
:1054C0000AF082FB03A80AF029FC68460AF026FCD1
:1054D000414968460AF064FC694603A80AF081FC69
:1054E000444903A80AF036FD49460AF059FD4249ED
:1054F0000AF030FD013714F8011C0AF03DFDFFB23F
:105500003E490AF027FD39460AF036FD35490AF0D2
:1055100021FD35490AF01EFD34490AF01BFD014604
:1055200033480AF051FB03A80AF0F8FB68460AF07A
:10553000F5FB0B2F29D02748294614F8012CFAF740
:105540004FFF8DE7FEF7CAFB2D4968460AF028FC9D
:10555000694603A80AF045FC2A4903A80AF0FAFCA8
:1055600020490AF0F7FC20490AF0F4FC1F490AF030
:10557000F1FC01461E480AF027FB03A80AF0CEFB07
:1055800068460AF0CBFB002021E0FEF7A7FB12499A
:1055900068460AF005FC694603A80AF022FC1A498D
:1055A00003A80AF0D7FC0F490AF0D4FC0E490AF010
:1055B000D1FC0E490AF0CEFC01460D480AF004FB6E
:1055C00003A80AF0ABFB68460AF0A8FB022007B06C
:1055D000BDE8F08F6C170020547701082B8B010871
:1055E000308D0108FE7601087084010806970108D5
:1055F0005C1F0020388B01087E7A01083D8B010872
:10560000E07601084B8B0108558B0108F8B505467B
:105610000E4617180446BC4207D021460448FAF744
:10562000ADFE731B18550134F5E70020F8BD00BF2F
:105630006C17002070B586B06C49054668460AF0C4
:10564000AFFB694603A80AF0CCFB694903A80AF03E
:1056500081FC68490AF07EFC67490AF07BFC6749D7
:105660000AF078FC014666480AF0AEFA03A80AF090
:1056700055FB68460AF052FB61480AF04FF909F001
:1056800099FB41F288300AF0A7FD09F093FB5C48D2
:105690000AF060F900280ADD59480AF007F9C1B29A
:1056A00058480AF00AFC02200AF096FDEFE7554C34
:1056B000A668002E73D020460AF025FD4B496846A7
:1056C0000AF06EFB694603A80AF08BFB214603A88B
:1056D0000AF033FC47490AF03DFC47490AF03AFC1E
:1056E00046490AF037FC014645480AF06DFA03A81E
:1056F0000AF014FB68460AF011FB434903A80AF0BC
:105700004FFB03A920460AF06BFC064603A80AF0EB
:1057100005FB6846002E38D034490AF041FB694643
:1057200003A80AF05EFB394903A80AF013FC3149CB
:105730000AF010FC30490AF00DFC30490AF00AFC6E
:1057400001462F480AF040FA03A80AF0E7FA684633
:105750000AF0E4FA2E4920460AF04DFB28462121A2
:10576000FAF70CFE40B1FEF7BDFA284621210022CF
:10577000FAF736FEFEF7B2FA28462121FAF7FEFDC7
:10578000D0F1010038BF00202DE022490AF008FBCB
:10579000694603A80AF025FB03A81F4909E013493D
:1057A00068460AF0FDFA694603A80AF01AFB1B498D
:1057B00003A80AF0CFFB0F490AF0CCFB0E490AF010
:1057C000C9FB0E490AF0C6FB01460D480AF0FCF978
:1057D00003A80AF0A3FA68460AF0A0FA20460C498A
:1057E0000AF009FB304606B070BD00BF48770108DB
:1057F0005A8B0108FE760108ED8B01080697010817
:105800005C1F0020281C00208C8B0108908B010855
:105810007383010854770108A78B0108B38B010833
:105820000022026042607047006820B103688B422A
:1058300001D08068F9E7704770B504460C20164621
:105840000D460BF023FE00228260226880E8600093
:105850000AB9206001E062689060606070BD10B5B8
:105860001446FFF7E1FF08B14460012010BD08B500
:10587000FFF7DAFF00B1406808BD01F51C41413176
:10588000FFF7DABF01F51C414131FFF7E8BF01F531
:105890001C414131FFF7EBBF002A01F1010114BFA8
:1058A0004FF47F420022FFF7C7BF002A01F51C51C9
:1058B00001F1110114BF4FF47F420022FFF7BCBF7A
:1058C00001F5EA413131FFF7B7BF002A01F10101CB
:1058D00014BF4FF47F420022FFF7C1BF002A01F539
:1058E0001C5101F1110114BF4FF47F420022FFF758
:1058F000B6BF01F5EA413131FFF7B1BF08B501315B
:10590000FFF7B5FFB0F57F435842584108BD01F598
:105910001C5108B51131FFF7AAFFB0F57F4358427B
:10592000584108BD01F5EA413131FFF7A0BF000041
:1059300070B504460D460948094916460AF04EF965
:10594000A0680BF0ABFD022020730BF09FFD803DA3
:105950000323A06005704670637370BD5C1F002058
:10596000718C0108F8B5531E7C2B04460F46164671
:1059700002D903210A4617E001F51C414131FFF726
:1059800053FF18B92046032102220DE0A0680BF056
:1059900085FD701C4000C0B220730BF077FDA06045
:1059A00030B9204603210422BDE8F840FFF7C0BF0C
:1059B00003230370237B0025023B4370E919204633
:1059C000FFF765FFA3680135020A03F81520A368F5
:1059D000B54203EB45035870F0D103236373F8BD60
:1059E00070B504460E461546FFF74CFF18B9204621
:1059F0000621022208E020463146FFF748FFA84270
:105A000006D0204606210422BDE87040FFF790BF73
:105A10000223637370BD2DE9F8431F4616467A1EB4
:105A20007A2A044688469DF8203002D8B3EB470F07
:105A300003D02046102103221CE006F51C45413509
:105A400005EB070920462946FFF7EEFE18B9204668
:105A5000102102220EE001354D45F3D1A0680BF074
:105A60001DFD052020730BF011FDA06030B920460C
:105A700010210422BDE8F843FFF75ABF102303703A
:105A8000330A4370002307718670C37008F106055E
:105A90003744BE4205F102050BD015F8022C15F86B
:105AA000013C3146204643EA0222FFF7EBFE013675
:105AB000EFE703236373BDE8F8832DE9F843531E32
:105AC000B3F5FA6F04460F46154602D301210322AF
:105AD00019E00131FFF7A8FE18B920460121022282
