:020000040800F2
:100000000000012099E8000881EB000885EB00085A
:1000100089EB00088DEB000891EB0008E1EB00088C
:10002000E1EB0008E1EB0008E1EB0008E1EB000880
:10003000E1EB0008E1EB0008E1EB000871F00008DB
:10004000E1EB0008E1EB0008E1EB000875E70008D0
:10005000E1EB0008E1EB0008E1EB0008E1EB000850
:10006000E1EB0008E1EB0008E1EB0008E1EB000840
:10007000E1EB0008E1EB0008E1EB0008E1EB000830
:10008000E1EB0008E1EB000859EC0008E1EB0008A7
:10009000E1EB0008E1EB0008E1EB0008E1EB000810
:1000A000B9F20008DDF2000801F3000839F3000896
:1000B0008DF30008FDF300086DF40008E1EB000883
:1000C000E1EB0008E1EB0008E1EB0008E1EB0008E0
:1000D000E1EB000865F70008B9F700080DF8000823
:1000E000E1EB0008BDE70008E1EB000895F500082A
:1000F000B9F50008DDF5000815F60008A9EC0008C0
:10010000E1EB0008E1EB0008DDF40008E1EB00089A
:1001100061F80008B5F800084DF5000871F5000811
:10012000E1EB0008E1EB0008E1EB0008E1EB00087F
:1001300010B5054C237833B9044B13B10448AFF321
:1001400000800123237010BD501700200000000024
:10015000CC5D010808B5064B1BB106480649AFF354
:1001600000800648036813B1054B03B1984708BDEA
:1001700000000000CC5D010854170020501700203B
:1001800000000000012902D11C30C0B270470629CE
:1001900084BF01F1FF31C9B211F0010F14BF1E205D
:1001A0001F207047444B2DE9F047B1FBF3F603FBEA
:1001B00016113C23B1FBF3F203FB12120546027049
:1001C0004FF46160B1FBF0F200FB1211B1FBF3F3ED
:1001D0006B704FF4FA63AA70B6B2EB80EC884FF400
:1001E000C873B4FBF3F803FB18481FFA88F8B8F19A
:1001F000000F16D06423B4FBF3F203FB12439BB24F
:10020000002B53D014F0030140F26D130CBF4FF4D8
:10021000B7721A4696420EDB002908BF4FF4B77337
:1002200004E0B6F5B77F06DB4FF4B773F61A013476
:10023000B6B2EC80D2E700236B716423B4FBF3F712
:1002400003FB1747BFB2B8F1000F06D03FB114F05F
:10025000030F14BF0020012002E0012000E0384617
:1002600095F80590C0B24946FFF78CFF864209F128
:10027000010A15D3B8F1000F06D03FB114F0030FF7
:1002800014BF0020012002E0012000E03846C0B287
:100290004946FFF777FF301A86B285F805A0D2E706
:1002A00001362E7185F805A0BDE8F087B6F5B67F5A
:1002B000C1DD40F26D13B9E780510100F8B5427815
:1002C00087783C2303FB072702780579467903FBEF
:1002D0000727013D013EEDB2F6B2044605714671B5
:1002E000013E731CE38834D04FF4C872B3FBF2F1C3
:1002F00002FB113292B262B16422B3FBF2F002FB54
:10030000103080B230B113F0030F14BF0020012071
:1003100000E00120C0B2F1B2FFF734FF284485B2FB
:10032000DEE74FF4C872B3FBF2F102FB113292B276
:10033000AAB16422B3FBF2F102FB113292B28AB18C
:1003400013F0030F40F26D1208BF4FF4B77215445B
:10035000ADB2013B9BB2B3F5FA6FE2D205E04FF4C8
:10036000B772F4E740F26D12F1E7024800FB057046
:10037000F8BD00BF805101000CF09CBA38B50446AE
:100380000D460CF0B2FA2046A0210CF045FB2046A9
:100390000CF01BFBC5F3072120460CF03DFB20466B
:1003A0000CF013FBE9B220460CF036FB20460CF0B3
:1003B0000CFB20460CF099FA2046A1210CF02CFBF6
:1003C00020460CF002FB002120460CF04CFB0546B9
:1003D00020460CF0DDFA20460CF0A2FA284638BD83
:1003E00070B5044616460D460CF07FFA2046A02153
:1003F0000CF012FB20460CF0E8FAC5F3072120466A
:100400000CF00AFB20460CF0E0FAE9B220460CF0B2
:1004100003FB20460CF0D9FA314620460CF0FCFADA
:1004200020460CF0D2FA20460CF07AFABDE8704073
:100430000A200FF041BF0000064A5178937843EA42
:100440000123A3F52043152B9ABF034AD05C0E204D
:10045000704700BF9C180020AD75010810B5074C0F
:10046000601811460AF08AF9054B1B881C4414F8E1
:10047000073C1B1A5842584110BD00BF9C18002071
:1004800084170020084B18795B7943EA002045F275
:100490005553984205D04CF20303C31A58425841B1
:1004A00070470120704700BF9C180020044B9B79C7
:1004B000552B044B0CBF012200221A70704700BF5D
:1004C0009C1800205118002010B5084CE379552BDA
:1004D00001D1012010BD064803F011FFE3798342EA
:1004E000F7D0D0F1010038BF002010BD9C180020CB
:1004F000B91B002013B50D4B1C7A552C01D10120DE
:1005000012E00B48694603F055FE00231A461DF819
:1005100003108C42F3D019B90132D2B2052AEED0C1
:100520000133052BF3D1002002B010BD9C18002030
:10053000B91B002070B586B005461E46FFF78EFF3A
:10054000044680B9304AD3781A441379D62B0AD09E
:100550002E4968460FF094FC694603A80FF0B1FCE1
:1005600003A82B4937E02846FFF78CFF044698B1D3
:100570002846FFF79BFF2846FFF7A6FF0446B0B9C1
:10058000AEB1224968460FF07BFC694603A80FF024
:1005900098FC03A81F491EE01C4968460FF070FC38
:1005A000694603A80FF08DFC03A81B4913E02846F9
:1005B000FFF7A0FF044618BB9DF828300BB90124B3
:1005C0001EE0124968460FF05BFC694603A80FF075
:1005D00078FC124903A80FF02DFD11490FF02AFDF8
:1005E00010490FF027FD10490FF024FD01460F4878
:1005F0000FF05AFB03A80FF001FC68460FF0FEFB5A
:10060000204606B070BD00BF9C180020C0770108CE
:10061000E1770108ED770108C87701080C78010837
:10062000DE77010863770108449801085C1F002009
:10063000F8B50F460EF02EFC06F006F903200EF07A
:1006400079F82F4A002313702E4A1D4613702E4A44
:100650001E4613702D4A13702D4A13702D4A1360D5
:100660002D4A13702D4A13702D4A13702D4A1370A2
:100670002D4A13702D4A13702D4A13602D4A1360B2
:100680002D4A13702D4A13702D4A13702D4A137082
:100690002D4A13602D4A13702D4A13602D4B0024F0
:1006A000EC502D4BF0B2EC502C4B0121EC502C4B6C
:1006B000EC502C4BEC502C4BEC502C4BEC502C4B6E
:1006C000EC502C4BEC502C4BEC502C4BF4542C4B52
:1006D000F4542C4BF4542C4BF45409F077FE0136AF
:1006E0002A4B0C2EEC5005F10405D7D137B1284820
:1006F00007210322BDE8F8400CF056BCF8BD00BF4E
:10070000261C0020E51B00203B1C0020031C0020B1
:10071000C919002098180020021C0020FE1B002090
:10072000FD1B0020271C0020691B00201D18002035
:10073000341C0020CC190020B11B0020B01B00206D
:10074000C8190020531800208017002054180020DA
:10075000AC1B0020181A0020581800209C170020FD
:10076000581A0020D8190020D81A0020DC170020C1
:100770006C1B0020181B0020981A0020591B002019
:10078000871700206D1700200C0000202018002083
:10079000541F002010B53B4B88B01B78002B6ED047
:1007A00000230093042117220123FFF7C3FE002832
:1007B0005CD0354902A80FF063FB02A905A80FF031
:1007C00080FB324905A80FF035FC31490FF032FCAF
:1007D00030490FF02FFC30490FF02CFC01462F4818
:1007E0000FF062FA05A80FF009FB02A80FF006FB54
:1007F0002A480FF003F92A4B1C7A012C33D12948DF
:10080000D97C03F0E5FD48B127480F2122460CF0C2
:10081000CBFB2648214603F0CBF827E002222248F2
:1008200010210CF0C1FB02A821490FF029FB02A9FD
:1008300005A80FF046FB05A81E490FF0FBFB144965
:100840000FF0F8FB13490FF0F5FB13490FF0F2FB23
:10085000014612480FF028FA05A80FF0CFFA02A8B7
:100860000FF0CCFA02E010480CF0ACF9124B0C4837
:100870001A88002108B0BDE8104011F0FFB908B097
:1008800010BD00BF1D000020287801082F78010846
:10089000DE7701080E760108449801085C1F0020ED
:1008A0009C180020B51B0020541F0020B31B002003
:1008B000347801083C7801088417002000B5444BC7
:1008C00089B01B78002B7FD00023009304210A22DB
:1008D0000123FFF72FFE00286DD03E4902A80FF03C
:1008E000CFFA02A905A80FF0ECFA3B4905A80FF0D2
:1008F000A1FB3A490FF09EFB39490FF09BFB3949A8
:100900000FF098FB014638480FF0CEF905A80FF01C
:1009100075FA02A80FF072FA33480FF06FF83348F7
:10092000334903F0F9FB10B32A4902A80FF0A8FAE3
:1009300002A905A80FF0C5FA2E4905A80FF07AFB09
:1009400026490FF077FB26490FF074FB25490FF07D
:1009500071FB014624480FF0A7F905A80FF04EFAE5
:1009600002A80FF04BFA24480321022221E0234978
:1009700002A80FF085FA02A905A80FF0A2FA2049F3
:1009800005A80FF057FB15490FF054FB14490FF061
:1009900051FB14490FF04EFB014613480FF084F948
:1009A00005A80FF02BFA02A80FF028FA124804212C
:1009B00001220CF0F9FA134B13481A88002109B0F0
:1009C0005DF804EB11F05AB909B05DF804FB00BF03
:1009D0001D0000202878010865780108DE770108ED
:1009E00068750108449801085C1F0020B91B0020AD
:1009F000A41800206A780108541F002034780108E8
:100A000099780108841700209C18002010B5002355
:100A100088B0009304210F22FFF78CFD00287DD0C1
:100A20005B4902A80FF02CFA02A905A80FF049FAB9
:100A3000584905A80FF0FEFA57490FF0FBFA57493D
:100A40000FF0F8FA56490FF0F5FA014655480FF045
:100A50002BF905A80FF0D2F9534C02A80FF0CEF9EC
:100A600050480EF0CBFF514804F10A0103F053F94E
:100A7000002800F081804D4804F10A0103F08BF951
:100A8000002879D0424902A80FF0FAF902A905A876
:100A90000FF017FA464905A80FF0CCFA3E490FF0BF
:100AA000C9FA3E490FF0C6FA3D490FF0C3FA0146B4
:100AB0003C480FF0F9F805A80FF0A0F902A80FF0D4
:100AC0009DF93A48E17903F0E1FB00282FD0304945
:100AD00002A80FF0D5F902A905A80FF0F2F93549DF
:100AE00005A80FF0A7FA2C490FF0A4FA2B490FF034
:100AF000A1FA2B490FF09EFA01462A480FF0D4F8CC
:100B000005A80FF07BF902A80FF078F92A48052113
:100B100001220CF049FA254803F01EFA274B22481F
:100B20001A88002108B0BDE8104011F0A7B8244988
:100B300002A80FF0A5F902A905A80FF0C2F92149F2
:100B400005A80FF077FA14490FF074FA13490FF063
:100B500071FA13490FF06EFA014612480FF0A4F82B
:100B600005A80FF04BF902A80FF048F9124806212A
:100B700001220CF019FAD1E7114902A80FF080F90F
:100B800002A905A80FF09DF905A80F49D9E700BFF4
:100B90002878010865780108DE770108C375010827
:100BA000449801085C1F00209C180020B91B0020FD
:100BB00027790108C8780108541F002084170020F5
:100BC00034780108F87801083E79010800B5304B07
:100BD00089B01B78002B57D02E4B0421DA780023E4
:100BE00000930123FFF7A6FC002844D02A4902A85D
:100BF0000FF046F902A905A80FF063F9274905A8E7
:100C00000FF018FA26490FF015FA26490FF012FADC
:100C100025490FF00FFA014624480FF045F805A8C2
:100C20000FF0ECF802A80FF0E9F820480EF0E6FE0D
:100C3000194902A80FF024F902A905A80FF041F9FB
:100C40001B4905A80FF0F6F915490FF0F3F91549FE
:100C50000FF0F0F914490FF0EDF9014613480FF0C9
:100C600023F805A80FF0CAF802A80FF0C7F811483A
:100C700002210DF0C5FA104B06481A88002109B070
:100C80005DF804EB10F0FABF09B05DF804FB00BF9B
:100C90001D0000209C1800202878010863790108B5
:100CA000DE77010898750108449801085C1F002050
:100CB00068790108541F00208417002010B52F4BBD
:100CC00088B01B780446002B56D0002300930421E3
:100CD00005220123FFF72EFC002844D0284902A852
:100CE0000FF0CEF802A905A80FF0EBF8254905A8EA
:100CF0000FF0A0F924490FF09DF924490FF09AF95B
:100D000023490FF097F9014622480EF0CDFF05A8C0
:100D10000FF074F802A80FF071F8194902A80FF04B
:100D2000AFF802A905A80FF0CCF81B4905A80FF0F1
:100D300081F915490FF07EF914490FF07BF9144938
:100D40000FF078F9014613480EF0AEFF05A80FF03A
:100D500055F802A80FF052F80E480EF04FFE20464C
:100D60000121FFF765FC0D4B0D481A88002108B0E2
:100D7000BDE8104010F082BF08B010BD1D0000207B
:100D8000287801088A790108DE770108D7750108FB
:100D9000449801085C1F00208F7901088417002007
:100DA0009C180020F0B5524B8FB01B78002B00F040
:100DB0009C80504C0025E278042100950123FFF728
:100DC000B9FB2746002800F0878009AC4A4906A8ED
:100DD0000FF056F806A920460FF073F84749204651
:100DE0000FF028F946490FF025F946490FF022F98E
:100DF00045490FF01FF9014644480EF055FF2046C3
:100E00000EF0FCFF06A80EF0F9FF40480EF0F6FDCC
:100E10000EF040F8384906A80FF032F806A920462F
:100E20000FF04FF83A4920460FF004F934490FF01B
:100E300001F934490FF0FEF833490FF0FBF8014691
:100E400032480EF031FF20460EF0D8FF06A80EF013
:100E5000D5FF20462946142210F010FFFE78053EEB
:100E6000142E01D8294620E02A4903A80FF008F8DB
:100E700003A906A80FF025F8274906A80FF0DAF80D
:100E80001F490FF0D7F81F490FF0D4F81E490FF093
:100E9000D1F801461D480EF007FF06A80EF0AEFF80
:100EA00003A80EF0ABFF022207E0B14204D27B1888
:100EB0005B7A63540131F8E70322184B18481A7023
:100EC0002146324607F0AAFE0122164800210CF006
:100ED00011F9154B01221A70144B06481A8800218B
:100EE0000FB0BDE8F04010F0C9BE0FB0F0BD00BFBC
:100EF0001D0000209C180020287801089F79010817
:100F0000DE770108E1760108449801085C1F0020A3
:100F1000A479010834780108D57901084E1F002012
:100F20003A1C0020541F0020FD1B002084170020C5
:100F300070B5324B88B01B78002B5CD0304C00254C
:100F4000E278042100950123FFF7F4FA26460028F1
:100F500051D005AC2B4902A80EF092FF02A9204601
:100F60000EF0AFFF284920460FF064F827490FF034
:100F700061F827490FF05EF826490FF05BF801464B
:100F800025480EF091FE20460EF038FF02A80EF024
:100F900035FF21480EF032FD1A4902A80EF070FF0D
:100FA00002A920460EF08DFF1C4920460FF042F8A2
:100FB00016490FF03FF816490FF03CF815490FF0AD
:100FC00039F8014614480EF06FFE20460EF016FF69
:100FD00002A80EF013FF2B46F218527AE2540133A6
:100FE000072BF9D10E48214605F044FA0D48172188
:100FF00002220BF0D9FF08B070BD00BF1D00002019
:101000009C18002028780108017A0108DE77010881
:10101000D1760108449801085C1F0020067A010877
:10102000E41B0020541F0020F0B57F4B8FB01B78CD
:10103000002B00F0F7807D4D0027EA78009704210F
:101040000123FFF777FA002800F0BC800AAC78494A
:1010500007A80EF015FF07A920460EF032FF7549CC
:1010600020460EF0E7FF74490EF0E4FF73490EF0DE
:10107000E1FF73490EF0DEFF014672480EF014FEE8
:1010800020460EF0BBFE07A80EF0B8FE6D480EF02D
:10109000B5FC6D4895F8221095F8232003F0F8FC74
:1010A000F8B96A4907A80EF0EBFE07A920460EF032
:1010B00008FF674920460EF0BDFF5F490EF0BAFFFA
:1010C0005E490EF0B7FF5E490EF0B4FF01465D4881
:1010D0000EF0EAFD20460EF091FE07A80EF08EFEFF
:1010E0000127534907A80EF0CBFE07A920460EF0B2
:1010F000E8FE584920460EF09DFF4F490EF09AFF3A
:101100004E490EF097FF4E490EF094FF01464D48B0
:101110000EF0CAFD20460EF071FE002607A80EF064
:101120006DFE2223204631461022029603968DF84A
:10113000083010F0A3FD33238DF828303346EA1829
:10114000127A02A95A540133082BF8D10023EA1865
:10115000127CE2540133102BF9D13B4803F04CFBD5
:10116000002838D03848214603F00CFC002832D043
:101170002F4904A80EF084FE04A907A80EF0A1FED2
:10118000354907A80EF056FF2B490EF053FF2B49A7
:101190000EF050FF2A490EF04DFF014629480EF08F
:1011A00083FD07A80EF02AFE04A80EF027FE2648AD
:1011B00003F0F1FA29480BF03FFB29483946012298
:1011C0000CF04EF8274B19481A8800210FB0BDE8E3
:1011D000F04010F053BD1D4904A80EF051FE04A9C3
:1011E00007A80EF06EFE204907A80EF023FF124953
:1011F0000EF020FF11490EF01DFF11490EF01AFFED
:10120000014610480EF050FD07A80EF0F7FD04A8A7
:101210000EF0F4FD0C4803F0DBFA10480BF00CFB69
:101220000227CAE70FB0F0BD1D0000209C18002067
:1012300028780108257A0108DE7701087977010806
:10124000449801085C1F0020B81B00203478010876
:101250002A7A0108417A0108557A01084C1F0020BA
:10126000541F0020841700206E7A0108F0B5814BCE
:101270008DB01B780746002B00F0F9807E4C0025CE
:10128000E278009504210123FFF754F9002800F0CB
:10129000C6807A4906A80EF0F3FD06A909A80EF04B
:1012A00010FE774909A80EF0C5FE76490EF0C2FE81
:1012B00075490EF0BFFE75490EF0BCFE014674483C
:1012C0000EF0F2FC09A80EF099FD06A80EF096FDAE
:1012D0006F480EF093FB6F4B0126384629461E706F
:1012E000FFF7A6F96C4B6D4894F8461094F8472028
:1012F0001E7003F0D1FD50B1604906A80EF0C0FD8C
:1013000006A909A80EF0DDFD09A8654909E06549AF
:1013100006A80EF0B5FD06A909A80EF0D2FD624997
:1013200009A80EF087FE57490EF084FE56490EF0CC
:1013300081FE56490EF07EFE014655480EF0B4FC83
:1013400009A80EF05BFD06A80EF058FD534803F007
:1013500021FE564D4949286003A80EF091FD03A9CE
:1013600009A80EF0AEFD524906A80EF089FD06A9A7
:1013700009A80EF052FE29680EF082FE41490EF0D7
:1013800059FE41490EF056FE40490EF053FE01460B
:101390003F480EF089FC06A80EF030FD09A80EF0BB
:1013A0002DFD03A80EF02AFD0DF074FD0022324B36
:1013B0001046114604EBD00595F848500D41ED0755
:1013C00015D55D7A1E7A05EB06263A4D565193F8EF
:1013D000295093F8286005EB0626374D565193F8AF
:1013E0004B5093F84A6005EB0626344D56510131B7
:1013F000C9B2082900F1010008BF00210C2803F13F
:10140000020302F10402D5D121480EF0F7FA2C486C
:101410000321194A0BF094FF05F0FEF91EE029495B
:1014200006A80EF02DFD06A909A80EF04AFD2649D2
:1014300009A80EF0FFFD13490EF0FCFD12490EF055
:10144000F9FD12490EF0F6FD014611480EF02CFC94
:1014500009A80EF0D3FC06A80EF0D0FC1B4B0648E2
:101460001A8800210DB0BDE8F04010F007BC0DB0A7
:10147000F0BD00BF1D0000209C1800202878010846
:10148000877A0108DE770108277601084498010869
:101490005C1F00201C18002052180020B81B0020E0
:1014A0008C7A010834780108A87A0108981800207D
:1014B00093910108581800209C170020D81A00208A
:1014C000541F0020C0770108EF7A0108841700201C
:1014D0002DE9F041A14B8CB01B780546002B00F0A4
:1014E0003A819F4E0024F278009404210123FFF7F3
:1014F00021F8002800F007819A4906A80EF0C0FCE8
:1015000006A909A80EF0DDFC974909A80EF092FD86
:1015100096490EF08FFD96490EF08CFD95490EF020
:1015200089FD014694480EF0BFFB09A80EF066FC49
:1015300006A80EF063FC90480EF060FA8F4B012273
:10154000284621461A70FFF773F88D4B02221A7055
:10155000327A737A8B4F03EB0223824903A83B60F4
:101560000EF08EFC03A909A80EF0ABFC864906A874
:101570000EF086FC06A909A80EF04FFD39680EF0A2
:101580007FFD82490EF056FD78490EF053FD7849F3
:101590000EF050FD77490EF04DFD014676480EF0F5
:1015A00083FB06A80EF02AFC09A80EF027FC03A86E
:1015B0000EF024FC764DB37A6A4903A82B700EF026
:1015C0005FFC03A909A80EF07CFC724906A80EF086
:1015D00057FC06A909A80EF020FD29780EF03CFD65
:1015E0006A490EF027FD61490EF024FD60490EF0B6
:1015F00021FD60490EF01EFD01465F480EF054FBD0
:1016000006A80EF0FBFB09A80EF0F8FB03A80EF0ED
:10161000F5FB614DF37A534903A82B700EF030FCB3
:1016200003A909A80EF04DFC5C4906A80EF028FCA1
:1016300006A909A80EF0F1FC29780EF00DFD4B4922
:101640000EF0F8FC4A490EF0F5FC4A490EF0F2FCA7
:10165000014649480EF028FB06A80EF0CFFB09A86A
:101660000EF0CCFB03A80EF0C9FB2546B84606EBEE
:10167000D4031B7B2B41DB0734D5D8F80030484F0F
:10168000384947F8243003A80EF0FAFB03A909A84B
:101690000EF017FC434906A80EF0F2FB06A909A8B4
:1016A0000EF0BBFC21460EF0EBFC3F490EF0C2FCF5
:1016B00057F824100EF0E4FC2C490EF0BBFC2C492A
:1016C0000EF0B8FC2B490EF0B5FC01462A480EF08E
:1016D000EBFA06A80EF092FB09A80EF08FFB03A808
:1016E0000EF08CFB0135EDB2082D04F1010408BFAA
:1016F00000250C2CBBD12D480321194A0BF0A4FE68
:1017000005F08AF81EE02A4906A80EF0B9FB06A9E2
:1017100009A80EF0D6FB274909A80EF08BFC134947
:101720000EF088FC12490EF085FC12490EF082FC86
:10173000014611480EF0B8FA09A80EF05FFB06A8A2
:101740000EF05CFB1C4B06481A8800210CB0BDE86B
:10175000F04110F093BA0CB0BDE8F0811D000020FC
:101760009C18002028780108037B0108DE77010817
:1017700079750108449801085C1F00201C1800209E
:1017800052180020CC190020087B0108E49B0108B6
:10179000B11B00201E7B0108B01B0020357B010817
:1017A000181A0020497B01085E7B0108541F0020A5
:1017B000C0770108627B010884170020F0B5774BE1
:1017C0008DB01B780546002B00F0E580744E002498
:1017D000F278009404210123FEF7ACFE002800F00B
:1017E000B280704906A80EF04BFB06A909A80EF0BE
:1017F00068FB6D4909A80EF01DFC6C490EF01AFC3F
:101800006B490EF017FC6B490EF014FC01466A4858
:101810000EF04AFA09A80EF0F1FA06A80EF0EEFA58
:1018200065480EF0EBF8654B0122284621461A70F8
:10183000FEF7FEFE624B03221A702546072C8CBF72
:10184000B37D737D2B4103F00103002B3BD0630874
:10185000043316F8132006EB43035B78594F03EB70
:10186000022347F824304F4903A80EF009FB03A9CF
:1018700009A80EF026FB544906A80EF001FB06A9A4
:1018800009A80EF0CAFB21460EF0FAFB4F490EF0F4
:10189000D1FB57F824100EF0F3FB44490EF0CAFBBD
:1018A00043490EF0C7FB43490EF0C4FB01464248D2
:1018B0000EF0FAF906A80EF0A1FA09A80EF09EFAA9
:1018C00003A80EF09BFA0135EDB2082D04F10104D6
:1018D00008BF00250C2CB1D1337D3D4C03A8314904
:1018E00023700EF0CDFA03A909A80EF0EAFA06A8B3
:1018F00038490EF0C5FA06A909A80EF08EFB21782A
:101900000EF0AAFB34490EF095FB28490EF092FB2D
:1019100027490EF08FFB27490EF08CFB0146264825
:101920000EF0C2F906A80EF069FA09A80EF066FAE0
:1019300003A80EF063FA29480321194A0BF01CFE94
:1019400004F06AFF1EE0264906A80EF099FA06A9DF
:1019500009A80EF0B6FA234909A80EF06BFB13494B
:101960000EF068FB12490EF065FB12490EF062FBA7
:10197000014611480EF098F909A80EF03FFA06A8A2
:101980000EF03CFA184B06481A8800210DB0BDE84D
:10199000F04010F073B90DB0F0BD00BF1D00002085
:1019A0009C18002028780108767B0108DE77010862
:1019B0006C760108449801085C1F00201C18002068
:1019C00052180020201800207B7B01085E7B010854
:1019D000981700209A7B0108E49B0108541F0020FF
:1019E000C0770108BB7B01088417002010B5304B7D
:1019F00088B01B78002B58D02E4B0024DA780421B5
:101A000000940123FEF796FD38B302A82A490EF090
:101A100037FA02A905A80EF054FA05A827490EF0D6
:101A200009FB27490EF006FB26490EF003FB264969
:101A30000EF000FB014625480EF036F905A80EF021
:101A4000DDF902A80EF0DAF920480DF0D7FF2048A2
:101A5000214603220BF0ACFF1EE01E4902A80EF047
:101A60000FFA02A905A80EF02CFA1B4905A80EF0E2
:101A7000E1FA13490EF0DEFA12490EF0DBFA1249D0
:101A80000EF0D8FA014611480EF00EF905A80EF036
:101A9000B5F902A80EF0B2F9104B06481A880021D9
:101AA00008B0BDE8104010F0E9B808B010BD00BFA4
:101AB0001D0000209C18002028780108CF7B010819
:101AC000DE7701089C770108449801085C1F00201C
:101AD000541F0020C0770108EB7B01088417002009
:101AE00070B5874B8CB01B78002B00F00781854CBC
:101AF00000230093E27804210123FEF71BFD002858
:101B000000F0D480804906A80EF0BAF906A909A809
:101B10000EF0D7F97D4909A80EF08CFA7C490EF039
:101B200089FA7C490EF086FA7B490EF083FA014669
:101B30007A480EF0B9F809A80EF060F906A80EF080
:101B40005DF976480DF05AFF637A257A6E4903A84D
:101B500003EB05250EF094F903A909A80EF0B1F9DD
:101B60006F4906A80EF08CF906A909A80EF055FADF
:101B700029460EF085FA66490EF05CFA65490EF0CA
:101B800059FA65490EF056FA014664480EF08CF891
:101B900006A80EF033F909A80EF030F903A80EF0EC
:101BA0002DF96048217A627A03F0EAF80546F8B91F
:101BB00006A85D490EF064F906A909A80EF081F99E
:101BC00009A85A490EF036FA51490EF033FA514934
:101BD0000EF030FA50490EF02DFA01464F480EF043
:101BE00063F809A80EF00AF906A80EF007F900E05C
:101BF0000125E37AA67A444903A803EB06260EF0F2
:101C00003FF903A909A80EF05CF9494906A80EF0AE
:101C100037F906A909A80EF000FA31460EF030FA9D
:101C20003B490EF007FA3B490EF004FA3A490EF030
:101C300001FA014639480EF037F806A80EF0DEF832
:101C400009A80EF0DBF803A80EF0D8F83548A17A01
:101C5000E27A03F009F8F8B906A833490EF010F952
:101C600006A909A80EF02DF909A832490EF0E2F9EB
:101C700027490EF0DFF927490EF0DCF926490EF06E
:101C8000D9F9014625480EF00FF809A80EF0B6F86C
:101C900006A80EF0B3F803E015B12748152101E0BE
:101CA0002548162102220BF07FF91EE0234906A8E1
:101CB0000EF0E6F806A909A80EF003F9204909A8D4
:101CC0000EF0B8F912490EF0B5F912490EF0B2F95A
:101CD00011490EF0AFF9014610480DF0E5FF09A8D3
:101CE0000EF08CF806A80EF089F8164B05481A88F5
:101CF00000210CB0BDE870400FF0C0BF0CB070BD4B
:101D00001D0000209C18002028780108FF7B010896
:101D1000DE7701084D760108449801085C1F002019
:101D2000047C0108B81B002034780108147C0108E9
:101D3000307C0108407C0108541F0020C077010856
:101D40007D7C01088417002010B5384B88B01B78C3
:101D5000002B68D0364C00230093E2780421012345
:101D6000FEF7E8FB002836D0324902A80EF088F8CA
:101D700002A905A80EF0A5F82F4905A80EF05AF9FA
:101D80002E490EF057F92E490EF054F92D490EF058
:101D900051F901462C480DF087FF05A80EF02EF8EA
:101DA00002A80EF02BF828480DF028FE2748217ACB
:101DB00002F00EFB20B12648012101F0F9FD29E0D7
:101DC000244902A80EF05CF802A905A80EF079F8E3
:101DD00005A8214909E0174902A80EF051F802A907
:101DE00005A80EF06EF81D4905A80EF023F9134959
:101DF0000EF020F912490EF01DF912490EF01AF9F1
:101E0000014611480DF050FF05A80DF0F7FF02A89C
:101E10000DF0F4FF124B06481A88002108B0BDE807
:101E200010400FF02BBF08B010BD00BF1D000020F8
:101E30009C180020C0770108917C0108DE7701081A
:101E40001A770108449801085C1F0020B51B002088
:101E5000B31B002034780108967C0108A97C010896
:101E6000841700202DE9F047AE4BA0B01B78002B63
:101E700000F03282AC4C4FF00008E2780421CDF83B
:101E800000800123FEF756FB002800F0E281A749FD
:101E90001AA80DF0F5FF1AA91DA80EF012F8A44912
:101EA0001DA80EF0C7F8A3490EF0C4F8A2490EF021
:101EB000C1F8A2490EF0BEF80146A1480DF0F4FEAB
:101EC0001DA80DF09BFF1AA80DF098FF9C480DF07F
:101ED00095FD217A10220BAF090905A80EF01DF817
:101EE00005A938460DF0EDFF217A102201F00F010F
:101EF00008A80EF012F808A938460EF08EF8617A9C
:101F00000EAE05461022090930460EF006F82846A6
:101F100031460EF082F8617A11AD8146102201F04F
:101F20000F0128460DF0F9FF484629460EF075F8D6
:101F3000A17A81461022090914A80DF0EEFF484647
:101F400014A90EF06AF8A17A8146102201F00F015F
:101F500017A80DF0E2FF484617A90EF05EF8E17AE7
:101F60008146102209091AA80DF0D7FF48461AA980
:101F70000EF053F8E17A1022814601F00F011DA8FE
:101F80000DF0CBFF1DA948460EF047F8014602A808
:101F90000DF097FF1DA80DF031FF1AA80DF02EFFD0
:101FA00017A80DF02BFF14A80DF028FF28460DF000
:101FB00025FF30460DF022FF08A80DF01FFF384620
:101FC0000DF01CFF05A80DF019FF58491AA80DF0D7
:101FD00057FF1AA91DA80DF074FF5A491DA80EF04D
:101FE00029F802A90EF019F852490EF023F85249C7
:101FF0000EF020F851490EF01DF8014650480DF042
:1020000053FE1DA80DF0FAFE1AA80DF0F7FE4C487D
:102010004D49CDF82C80CDF830800DF034FE44468B
:10202000049B9C4212D2214602A80EF088F8303858
:10203000C1B208290DD839550A2241480DF0CBFE0E
:102040003F4842490DF01FFE0134E9E74FF0000917
:1020500001E04FF001093E4939480DF02FFE002400
:10206000374839490DF00FFE0E940F942E4B1A1974
:10207000117B9A4664290ED80A22314831550DF059
:10208000AAFE01342E4831490DF0FDFD082CEDD19A
:102090004FF0000801E04FF001082E4928480DF0EC
:1020A0000DFE0024264828490DF0EDFD11941294F0
:1020B0009AF814302248A3401B0644BF01232B5535
:1020C000295D0A2201340DF086FE082CF0D11C484F
:1020D00021490DF0F3FDB9F1000F45D01F491AA8B1
:1020E0000DF0CEFE1AA91DA80DF0EBFE1C491DA88F
:1020F0000DF0A0FF0F490DF09DFF0F490DF09AFF65
:102100000E490DF097FF01460D480DF0CDFD1DA8BD
:102110000DF074FE1AA80DF071FE12480321024A58
:10212000012390E01D0000209C1800202878010861
:10213000BD7C0108DE770108AE76010844980108ED
:102140005C1F0020C27C0108D49901088B80010823
:10215000D97C0108E67C0108F77C01083478010885
:10216000087D0108541F0020B8F1000F23D05C49FE
:102170001AA80DF085FE1AA91DA80DF0A2FE594956
:102180001DA80DF057FF58490DF054FF57490DF0A9
:1021900051FF57490DF04EFF014656480DF084FDA2
:1021A0001DA80DF02BFE1AA80DF028FE52480321A1
:1021B000524A022347E05248394602F0F9FE00280D
:1021C00054D04F48294602F06DFF00284ED04C48AD
:1021D00002F0E2FF002849D04A4B14AA1868596857
:1021E00003C214A83146022208F0E8FB0428044682
:1021F00041D13B4917A80DF043FE17A91DA80DF0CA
:1022000060FE41491AA80DF03BFE1AA91DA80DF069
:1022100004FF35490DF00EFF34490DF00BFF344932
:102220000DF008FF014633480DF03EFD1AA80DF0F1
:10223000E5FD1DA80DF0E2FD17A80DF0DFFD2E480D
:102240002E4A032123460BF0A9FC02A80DF0D6FD6F
:1022500003E028482D490DF031FD2D4B27481A8801
:10226000002120B0BDE8F0470FF008BD032122484F
:10227000224A0B46E7E7274917A80DF001FE17A9E8
:102280001DA80DF01EFE23491AA80DF0F9FD1AA98C
:102290001DA80DF0C2FE20490DF0CCFE1F490DF027
:1022A000C9FE11490DF0C6FE10490DF0C3FE1049DC
:1022B0000DF0C0FE01460F480DF0F6FC1AA80DF017
:1022C0009DFD1DA80DF09AFD17A80DF097FD0A4879
:1022D00003210A4A4346B6E720B0BDE8F08700BFB5
:1022E000347801083F7D0108DE770108AE760108E9
:1022F000449801085C1F0020541F00209C180020F7
:10230000B61B0020607501087A7D01080F7E010868
:1023100084170020287801089D7D0108F37D0108BD
:10232000F0B59E4B8FB01B78002B00F089819C4F3D
:102330000025FA78042100950123FEF7FBF8002818
:1023400000F05681974908A80DF09AFD08A90BA83E
:102350000DF0B7FD94490BA80DF06CFE93490DF0FC
:1023600069FE93490DF066FE92490DF063FE014649
:1023700091480DF099FC0BA80DF040FD08A80DF058
:102380003DFD8D480DF03AFB8C4B03261E708C4CA6
:102390003B7A8C48237002F063FFA646074628BBB1
:1023A00008A889490DF06CFD08A90BA80DF089FD5E
:1023B0000BA886490DF03EFE7C490DF03BFE7C49A2
:1023C0000DF038FE7B490DF035FE01467A480DF0E0
:1023D0006BFC0BA80DF012FD08A80DF00FFD7C485A
:1023E000314622783B460BF09FFC20E12B46794A90
:1023F00000259D540133082BF9D1774A03AB1068AF
:10240000516803C39EF80030FF2B27D1654905A80A
:102410000DF036FD05A90BA80DF053FD6F4908A876
:102420000DF02EFD08A90BA80DF0F7FD5F490DF08A
:1024300001FE5F490DF0FEFD5E490DF0FBFD01461A
:102440005D480DF031FC08A80DF0D8FC0BA80DF08C
:10245000D5FC05A80DF0D2FC042443E02C46584BD3
:10246000EEB21A78C6F10703DBB242FA03F3DB07D8
:1024700035D5584B0122EA544A4905A80DF000FD14
:1024800005A90BA80DF01DFD554908A80DF0F8FC95
:1024900008A90BA80DF0C1FD31460DF0DDFD514935
:1024A0000DF0C8FD41490DF0C5FD41490DF0C2FDDB
:1024B00040490DF0BFFD01463F480DF0F5FB08A86F
:1024C0000DF09CFC0BA80DF099FC05A80DF096FCF6
:1024D0000EAB23440136013403F82C6CE4B2013511
:1024E000082DBCD12F4908A80DF0CAFC08A90BA8DB
:1024F0000DF0E7FC3C490BA80DF09CFD2B490DF0BD
:1025000099FD2B490DF096FD2A490DF093FD0146EA
:1025100029480DF0C9FB0BA80DF070FC08A80DF0C0
:102520006DFC274B2A481A78022101230BF0FCFB93
:1025300003A82146012208F06FFE002877D101226E
:10254000214603A809F08AFE1649044605A80DF0A5
:1025500097FC05A90BA80DF0B4FC244908A80DF0C0
:102560008FFC08A90BA80DF058FD21460DF074FD55
:102570000E490DF05FFD0E490DF05CFD0D490DF0AB
:1025800059FD01460C480DF08FFB08A80DF036FCF4
:102590000BA80DF033FC05A847E000BF1D0000208C
:1025A0009C180020287801082A7E0108DE7701089F
:1025B00058800108449801085C1F00205218002030
:1025C00050180020B61B0020347801082F7E010827
:1025D000541F0020D019002060750108617E010899
:1025E000807E0108847E01089A7E0108B67E01087B
:1025F000144908A80DF044FC08A90BA80DF061FCD3
:1026000011490BA80DF016FD10490DF013FD1049EE
:102610000DF010FD0F490DF00DFD01460E480DF0B7
:1026200043FB0BA80DF0EAFB08A80DF0E7FB0B4BF2
:102630000B481A8800210FB0BDE8F0400FF01EBB18
:102640000FB0F0BDC0770108C57E0108DE77010834
:1026500058800108449801085C1F0020841700205E
:102660009C1800202DE9F0417D4B94B01B78002B85
:1026700000F0C0817B4D0024EA78042100940123FE
:10268000FDF758FFA846002800F08C8176490EA877
:102690000DF0F6FB0EA911A80DF013FC734911A85B
:1026A0000DF0C8FC72490DF0C5FC72490DF0C2FC7A
:1026B00071490DF0BFFC014670480DF0F5FA11A804
:1026C0000DF09CFB0EA80DF099FB6C480DF096F9EF
:1026D00005F108070394049405940694079408945C
:1026E00009940A940125264617F8013B0BA8FF2BF5
:1026F0005D4912D10DF0C4FB0BA911A80DF0E1FB4F
:102700005F490EA80DF0BCFB0EA911A80DF085FCC9
:1027100029460DF0B5FC5B49CEE0642B38D80DF0AE
:10272000AFFB0BA911A80DF0CCFB55490EA80DF07D
:10273000A7FB0EA911A80DF070FC29460DF0A0FC16
:1027400051490DF077FC17F8011C0DF085FC484944
:102750000DF070FC47490DF06DFC47490DF06AFC27
:10276000014646480DF0A0FA0EA80DF047FB11A84F
:102770000DF044FB0BA80DF041FB14AB17F8012C36
:102780003344013603F8445C03F8342CF6B2ABE072
:10279000F02B2FD10DF074FB0BA911A80DF091FBBC
:1027A00037490EA80DF06CFB0EA911A80DF035FCF1
:1027B00029460DF065FC35490DF03CFC2C490DF027
:1027C00039FC2C490DF036FC2B490DF033FC014649
:1027D0002A480DF069FA0EA80DF010FB11A80DF0B3
:1027E0000DFB0BA80DF00AFB14AB234403F83C5C73
:1027F000002230E0F12B4DD10DF042FB0BA911A8C6
:102800000DF05FFB1E490EA80DF03AFB0EA911A8B2
:102810000DF003FC29460DF033FC1D490DF00AFCB8
:1028200013490DF007FC13490DF004FC12490DF09B
:1028300001FC014611480DF037FA0EA80DF0DEFA42
:1028400011A80DF0DBFA0BA80DF0D8FA14AB234455
:1028500003F83C5C6422013403F82C2CE4B243E01E
:102860001D0000209C18002028780108D97E01084E
:10287000DE770108E9750108449801085C1F002013
:10288000807E0108DE7E0108F47E01080D7F0108CC
:102890001D7F01080DF0F4FA0BA911A80DF011FB32
:1028A00056490EA80DF0ECFA0EA911A80DF0B5FBD3
:1028B00029460DF0E5FB52490DF0BCFB51490DF0E6
:1028C000B9FB51490DF0B6FB50490DF0B3FB014681
:1028D0004F480DF0E9F90EA80DF090FA11A80DF08F
:1028E0008DFA0BA80DF08AFA0135092D7FF4FCAEA4
:1028F00098F81030474D48490BA82B700DF0C0FADE
:102900000BA911A80DF0DDFA44490EA80DF0B8FA94
:102910000EA911A80DF081FB29780DF09DFB40490F
:102920000DF088FB37490DF085FB37490DF082FB30
:1029300036490DF07FFB014635480DF0B5F90EA87C
:102940000DF05CFA11A80DF059FA0BA80DF056FA2B
:10295000344802210122344B0BF096FA76B131460D
:1029600007AA03A807F05EFF03A83146022208F079
:1029700053FCA0B903A8314602220EE07CB12146E7
:1029800009AA05A807F04EFF05A82146032208F072
:1029900043FC20B905A82146032209F05FFC00236F
:1029A0002B701EE021490EA80DF06AFA0EA911A89D
:1029B0000DF087FA1E4911A80DF03CFB11490DF0EE
:1029C00039FB11490DF036FB10490DF033FB014680
:1029D0000F480DF069F911A80DF010FA0EA80DF0CE
:1029E0000DFA144B14481A88002114B0BDE8F041C8
:1029F0000FF044B914B0BDE8F08100BF807E01083B
:102A00002D7F0108DE770108E97501084498010867
:102A10005C1F002097170020287801085E7F0108BE
:102A2000E49B0108541F0020A4180020C07701086F
:102A3000807F0108841700209C180020F0B5674BA8
:102A40008FB01B78002B00F0C780654D0024EA781A
:102A5000042100940123FDF76DFD2F46002800F0AE
:102A60009380604908A80DF00BFA08A90BA80DF097
:102A700028FA5D490BA80DF0DDFA5C490DF0DAFA91
:102A80005B490DF0D7FA5B490DF0D4FA01465A487C
:102A90000DF00AF90BA80DF0B1F908A80DF0AEF988
:102AA00055480CF0ABFF554A03AB1068516803C39F
:102AB0002B7AFF2B27D14B4905A80DF0E1F905A989
:102AC0000BA80DF0FEF94E4908A80DF0D9F908A998
:102AD0000BA80DF0A2FA45490DF0ACFA44490DF0EF
:102AE000A9FA44490DF0A6FA014643480DF0DCF876
:102AF00008A80DF083F90BA80DF080F905A80DF0DA
:102B00007DF904253BE025463B7A661CA34013F083
:102B1000800F31D0334905A80DF0B2F905A90BA8F3
:102B20000DF0CFF9374908A80DF0AAF908A90BA8AC
:102B30000DF073FA21460DF0A3FA33490DF07AFA3D
:102B40002A490DF077FA2A490DF074FA29490DF057
:102B500071FA014628480DF0A7F808A80DF04EF9C3
:102B60000BA80DF04BF905A80DF048F90EAB2B445E
:102B7000013503F82C6CEDB2082E3446C4D103A8FD
:102B8000294608F09DFA1EE0204908A80DF078F9C2
:102B900008A90BA80DF095F91D490BA80DF04AFAEC
:102BA00012490DF047FA12490DF044FA11490DF09F
:102BB00041FA014610480DF077F80BA80DF01EF908
:102BC00008A80DF01BF9134B05481A8800210FB017
:102BD000BDE8F0400FF052B80FB0F0BD1D0000206E
:102BE0009C18002028780108947F0108DE770108EE
:102BF0008E760108449801085C1F0020607501086A
:102C0000997F0108807E0108B27F0108C077010822
:102C1000C27F01088417002030B56B4B89B01B7848
:102C2000002B00F0CF80694C0025E278009504214C
:102C30000123FDF77FFC002800F09C80644902A876
:102C40000DF01EF902A905A80DF03BF9614905A890
:102C50000DF0F0F960490DF0EDF960490DF0EAF979
:102C60005F490DF0E7F901465E480DF01DF805A833
:102C70000DF0C4F802A80DF0C1F85A480CF0BEFEE1
:102C80005948217A02F0F6FA18B302A850490DF01B
:102C9000F7F802A905A80DF014F905A853490DF09D
:102CA000C9F94D490DF0C6F94C490DF0C3F94C492D
:102CB0000DF0C0F901464B480CF0F6FF05A80DF0E9
:102CC0009DF802A80DF09AF80121474802F05AFB3E
:102CD00027E0474902A80DF0D3F802A905A80DF096
:102CE000F0F8444905A80DF0A5F93B490DF0A2F90B
:102CF0003A490DF09FF93A490DF09CF901463948DF
:102D00000CF0D2FF05A80DF079F802A80DF076F8C6
:102D10000A21354802F0AEFA3348012102F032FBB5
:102D20000125637A03B308F0F3F9294902A80DF0ED
:102D3000A7F802A905A80DF0C4F82F4905A80DF0C1
:102D400079F925490DF076F924490DF073F92449F4
:102D50000DF070F9014623480CF0A6FF05A80DF010
:102D60004DF802A80DF04AF8244803212A460BF03A
:102D700079F91EE0224902A80DF082F802A905A8FF
:102D80000DF09FF81F4905A80DF054F912490DF0F8
:102D900051F912490DF04EF911490DF04BF9014668
:102DA00010480CF081FF05A80DF028F802A80DF0DE
:102DB00025F8154B05481A88002109B0BDE83040B8
:102DC0000EF05CBF09B030BD1D0000209C18002033
:102DD00028780108D67F0108DE77010835770108D9
:102DE000449801085C1F0020B61B0020DB7F01080F
:102DF00034780108EE7F010801800108541F00208B
:102E0000C07701080E8001088417002010B586B035
:102E10000446FDF711FB132876D8DFE800F03E42A8
:102E2000460A0E12161A4A4E52565A5E1E62666ABA
:102E30006E722046FDF7AEFC66E02046FDF73EFDD3
:102E400062E02046FDF7E2FD5EE02046FDF7BEFEB3
:102E50005AE02046FDF732FF56E068462B490DF058
:102E60000FF8694603A80DF02CF803A828490DF0C7
:102E7000E1F828490DF0DEF827490DF0DBF8274985
:102E80000DF0D8F8014626480CF00EFF03A80CF010
:102E9000B5FF68460CF0B2FF36E02046FDF782FF32
:102EA00032E02046FEF744F82EE02046FEF7BCF85C
:102EB0002AE02046FEF7DAF926E02046FEF708FB76
:102EC00022E02046FEF77AFC1EE02046FEF78EFD4B
:102ED0001AE02046FEF704FE16E02046FEF734FF17
:102EE00012E02046FEF7BEFF0EE02046FFF718FA7C
:102EF0000AE02046FFF7B6FB06E02046FFF79EFDFE
:102F000002E02046FFF788FE06B010BDC07701083A
:102F100022800108DE77010804770108449801083F
:102F20005C1F00202DE9F74F444D002682462E807D
:102F30000BF0B0FF424B01271968344601919B46C4
:102F400040480CF077FD002806DD0199DBF80020F1
:102F500001F6B8339A4222D30BF09CFF062C69D1BC
:102F600039483A490CF0AAFE36B9394B1B788BB177
:102F70005046FFF74BFF0DE028880023801BDAB294
:102F8000F4188242E4B203F10103EEDA31490C5D38
:102F90008C54F4E703B0BDE8F04F0BF07BBFB5F8FD
:102FA0000090284809F101022A800CF0EFFCDFF8BC
:102FB000A4802B8808F80900434413F8011C102250
:102FC00021480CF008FF24491F480CF05CFE1D4806
:102FD0000CF030FD002802DC04200DF06DF92B8888
:102FE000B3F5967F02D3154B00221A8047B12B8888
:102FF00008EB030212F8012CFE2AA1D15E1EF6B2E4
:103000002B88434413F8013C0D2B02D1E3070BD46A
:1030100004E00A2B0AD114F0010309D00134E4B210
:10302000062C99D000278BE70124FBE70024F9E761
:103030001C46F7E703B0BDE8F08F00BF84170020FF
:10304000AC200020741F00205C1F0020408001087D
:103050001C0000209C1800208B80010808B5044843
:10306000FFF760FF0BF016FFBDE8084003F0F8BB68
:103070008617002008B51D2000210DF033F91D2012
:1030800001210DF0EDF8102000210DF02BF9112099
:1030900000210DF027F91C2000210DF023F911204B
:1030A00000210DF0DDF81C2001210DF0D9F8BDE85C
:1030B0000840102000210DF0D3B8000001480CF0AA
:1030C00017BD00BF741F002008B561B100211C208E
:1030D0000DF0C6F896200DF0EFF8BDE808401C2072
:1030E00001210DF0BDB808BD08B500211D200DF06F
:1030F000B7F80C480CF0FFFC022000210DF0F2F8AC
:10310000032000210DF0EEF8022000210DF0A8F8B8
:10311000032000210DF0A4F8BDE808401C20002188
:103120000DF09EB8741F002010B50B78452B12D1FE
:103130004B78522B0FD18B78CC78303B03EB830349
:10314000303C04EB4304E4B221460A2203480CF06D
:103150004BFE204610BD0A2010BD00BF5C1F0020A2
:103160000B784F2B07D148784B2804D113704B783C
:103170000120537070470020704700002DE9F04196
:1031800090B00E4601A865491C4690460CF078FEAA
:10319000624904A80CF074FE604907A80CF070FEA8
:1031A0002046002104220EF069FDE023A370E370A5
:1031B00035460027AB1B43453AD229780A220DA891
:1031C0000CF09AFE0DA901A80CF0E2FE0DA80CF07F
:1031D00015FE15F8013B2C2B28D0303BDBB2092B18
:1031E00098BF05F8013C15F8011C57B92D2902D1EB
:1031F0004B484C4909E00DA80A220CF07DFE04A8BA
:103200000DE02D2906D1464847490CF057FDF02323
:10321000E370CFE70DA80A220CF06EFE07A80DA9F7
:103220000CF0B6FE0DA80CF0E9FDC3E70127C1E7DD
:103230003E490AA80CF024FE0AA90DA80CF041FE94
:1032400001A90DA80CF0E9FE014635480CF02CFD53
:103250000DA80CF0D3FD0AA80CF0D0FD34490DA840
:103260000CF00EFE0DA92E480CF000FD0DA80CF080
:10327000C5FDA3782A48F02B01D12E4903E0E02BAD
:103280000CBF26492C490CF0FEFC04A90DA80CF03B
:1032900018FE2A490DA80CF0CDFE014620480CF07E
:1032A00003FD0DA80CF0AAFD25490DA80CF0E8FDC2
:1032B0000DA91B480CF0DAFC0DA80CF09FFDE3787B
:1032C0001748F02B01D11B4903E0E02B0CBF134939
:1032D00019490CF0D8FC07A90DA80CF0F2FD0DA8B7
:1032E00016490CF0A7FE01460D480CF0DDFC0DA8B8
:1032F0000CF084FD04A80CF082FF207007A80CF0ED
:103300007EFF607007A80CF079FD04A80CF076FD34
:1033100001A80CF073FD10B0BDE8F08153840108E2
:103320005C1F00208D8001089A800108A880010898
:10333000B3800108658E0108BE800108CB800108BA
:10334000D2800108F8B54C78432C08D18C78532CE6
:1033500005D1CC78B4F151056C426C4100E00024F9
:103360000026F5B24F5D01363A2FFAD10135EDB2A4
:1033700000279542FEB207F1010706D811F805C0F3
:10338000013501F806C0EDB2F3E73CB92046C2B200
:10339000B2420BD20A5C1A540130F8E7069A0224B2
:1033A00012681470721ED2B2FFF7E8FE0120F8BD59
:1033B00037B5154809B9154900E015490CF063FC0B
:1033C00064200CF079FF00240F480CF033FB002838
:1033D000E5B208DD062C14D00B480CF0D7FA0DF836
:1033E00004000134F0E755B19DF802304F2B08D1AD
:1033F0009DF80300B0F14B035842584102E02846C3
:1034000000E0002003B030BD741F00201A860108C0
:10341000DE80010810B5012104461D200CF020FFBC
:1034200007484FF416510CF063FB20460121FFF7CB
:103430004BFE20460121BDE81040FFF7B9BF00BF99
:10344000741F00202DE9F0419EB005AD0C460746E3
:10345000002190462846642203930EF00FFC21467B
:103460002C480CF010FC64200CF026FF00242948A6
:103470000CF0E0FA0028E6B207DD642C45D02548C0
:103480000CF084FA28550134F1E726B92249234883
:103490000CF014FC39E09DF814300D2B35D19DF85B
:1034A00015300A2B31D11EAB334413F8653C0A2B7F
:1034B0002BD1023E1EAB334413F8643C0D2B24D1B8
:1034C0000021CCB2A31CDBB2B34201F1010107DA47
:1034D0001EAA134413F8643C144404F8643CF0E757
:1034E00038462946FFF720FE0A280CD103AB00938B
:1034F0003846294622464346FFF724FF00280CBFE2
:103500000320022002E0012000E003201EB0BDE8FD
:10351000F08100BF741F0020E48001085C1F0020C0
:103520002DE9F041B2B006460D46904600216422D6
:1035300068461F460EF0A2FB19A8002164220EF077
:103540009DFB0024E3B2E85C013420B132AA1344AD
:1035500003F8640CF6E70146CAB25D1818F8024099
:10356000EDB232AA01312A4414B102F8644CF3E7F7
:103570000D2302F8643C6B1C32A8DBB203442F48D5
:103580000A2203F8642C036819A95B6898472C4841
:10359000AA1C036819A99B68D2B2984764200CF052
:1035A0008BFE27480CF046FA0028E5B208DD642CB3
:1035B0003FD023480CF0EAF90DF804000134F0E79D
:1035C000002D36D09DF800300D2B32D19DF8013002
:1035D0000A2B2ED132AB2B4413F8C93C0A2B28D12D
:1035E000023D32AB2B4413F8C83C0D2B21D10021F6
:1035F0008B1CDBB2AB4201F1010209DA32A80344B1
:1036000013F8C83CC9B2014401F8C83C1146EFE7C1
:1036100030466946FFF788FD0A2808D130466946DA
:103620003A46FFF79DFD80F00100C0B202E00120A4
:1036300000E0032032B0BDE8F08100BF5C1F002035
:10364000741F0020F7B51E46044617460D4600219C
:103650008DF80710FFF7ACFE0BF01CFC204631463E
:103660002FB12A460DF10703FFF7ECFE03E0089A9D
:103670002B46FFF755FF03282AD8DFE800F0110496
:103680000207002311E01648164901E014481649C4
:103690000CF014FB20460121FFF78AFE00201CE0FD
:1036A00012490F480CF00AFB12E09DF807205E1C3F
:1036B000DBB29A420A4809D9E95C10220CF08BFB74
:1036C00007480B490CF0DFFA3346EEE70CF0E0FA5E
:1036D00020460121FFF76CFE012003B0F0BD00BFC2
:1036E0005C1F0020F880010809810108128101088F
:1036F0008B8001082DE9F0438BB004AF8046002198
:103700000922384602AE00240EF0B8FA0094404672
:1037100031460122454BFFF795FF054620B9444944
:1037200044480CF0CBFA7DE02346F25C07AC092A52
:1037300001D8303204E0A2F10A01052998BF3732DE
:10374000E2540133082BF0D14FF000093A488DF8CC
:10375000249000F099FF024600284AD037493548A6
:103760000CF0ACFA3448394600F0B4FE00283BD0E7
:103770004B46E15CFA5C914248D10133082BF8D109
:103780002F492C480CF09AFA2E492A480CF07BFA63
:103790009DF8161027480CF071FA9DF8171025486F
:1037A0000CF06CFA9DF8141022480CF067FA9DF8A2
:1037B000151020480CF062FA9DF812101D480CF00C
:1037C0005DFA9DF813101B480CF058FA9DF8101084
:1037D00018480CF053FA9DF8111016480CF04EFAE8
:1037E00014480CF055FA1DE0174912480CF066FA1F
:1037F00007E0009440463146144BFFF723FF05468F
:1038000080B121460C4800F0D9FE0AE01049094871
:103810000CF054FA00974046314600220B4BFFF75C
:1038200011FF054628460BB0BDE8F083288101084A
:10383000338101085C1F0020B51B00205381010863
:10384000DB81010805820108718101089581010869
:103850009E8101082DE9F04F89B002AF07F10C06F7
:103860008346894690461C46304600210A220EF0C7
:1038700005FA002C50D1C7F804D05846CDF8008086
:10388000314601224B46FFF7DDFE824608B1214654
:1038900006E0404940480CF011FA3F483F496FE0CC
:1038A000CCB218F804300131002BF9D1E11D01F43C
:1038B000FC71ADEB010D02A9D8B2A04203D2F05CBD
:1038C000C8540133F8E70B46581AC0B2A0420DD2D3
:1038D00013F8010B092801D8303004E0A0F10A05E3
:1038E000052DF1D8373003F8010CEDE70025EBB2D8
:1038F000A34243D24B5D013508EB050010F8010CE3
:103900009842F4D0264924480CF0D8F92248254999
:103910000CF0D4F97B689D466C460023DAB219F8A6
:10392000021001330A29F9D1931D03F4FC73ADEBA6
:10393000030DA2F1020E02AB0020C1B2551EA94236
:1039400000F1010003DA19F801505D54F5E7002297
:103950003D215A55584603F80E10CDF800803146E7
:10396000FFF770FE054628B90B480F490CF0A6F981
:10397000AA4601E04FF0010AA54605E006480B49BA
:103980000CF09CF97B689D4650461C37BD46BDE84F
:10399000F08F00BF138201085C1F002039820108EC
:1039A0005D820108B4820108F68201082B830108B8
:1039B0002DE9F0418AB006AF0F2204460D46384685
:1039C00000210EF05BF99B489B490CF077F90A2621
:1039D0000BF060FA002D40F0DF802046FFF78AFEF2
:1039E00096498DF81800964A2B462046FFF732FF7D
:1039F0002B468DF8190093492046934AFFF72AFF7A
:103A0000DFF8D0828DF81A0098F80030012B04D12D
:103A10008E4988480CF052F92BE0022B0FD18C49CB
:103A200084480CF04BF98B498B4A20462B46FFF714
:103A300011FF8A498DF81B00894A204624E08949F4
:103A400068460CF01DFA694603A80CF03AFA98F89B
:103A5000001003A80CF000FB83490CF0EBFA0146C0
:103A600074480CF021F903A80CF0C8F968460CF072
:103A7000C5F978497D4A20462B46FFF7EBFE77498A
:103A80007B4A8DF81B0020462B46FFF7E3FEDFF84C
:103A900048828DF81C0098F80030222B04D175491B
:103AA00064480CF00BF923E00C2B07D172496148F4
:103AB0000CF004F920467149714A1CE071496846CE
:103AC0000CF0DEF9694603A80CF0FBF998F8001039
:103AD00003A80CF0C1FA64490CF0ACFA0146554851
:103AE0000CF0E2F803A80CF089F968460CF086F9AE
:103AF0006249654A20460023FFF7ACFE8DF81D00A1
:103B0000624800F0C9FCF1286149204608D1614AA9
:103B10000023FFF79FFE60498DF81E00454807E02F
:103B2000494A0023FFF796FE5C498DF81E00414884
:103B30000CF0C4F85A495B4A00232046FFF78AFE7E
:103B400059498DF81F00574A00232046FFF782FE8F
:103B500056498DF820004F4A00232046FFF77AFE91
:103B600053498DF82100534A00232046FFF772FE87
:103B700051498DF82200514A00232046FFF76AFE82
:103B8000314A8DF823004E4920460023FFF762FE9C
:103B90000D228DF824000EE03C4800F07DFCF12859
:103BA0000CBF3C4A284A204639490023FFF752FE01
:103BB00001228DF818000023F95CA9B941491D487C
:103BC0000CF07CF82046FFF725FC2046FFF78CFA26
:103BD0000BF060F92046FFF71DFC4FF4FA600CF083
:103BE0006BFB0BF057F904E00133D9B29142E3D3F8
:103BF0001DE035480BF01EFF002803DD32480BF0B6
:103C0000C5FEF6E7013E16F0FF067FF4E1AE2F4950
:103C100008480CF053F82E4906480CF04FF840F6CF
:103C2000B8300CF049FB0BF035F90BF067F90AB02E
:103C3000BDE8F0815C1F00205383010882830108E6
:103C40008E8301089783010894830108A1830108EA
:103C5000DF830108B5830108F3830108CA830108E3
:103C6000FC8301080584010820840108C183010840
:103C7000D683010837840108548401084984010867
:103C8000638401086684010846840108B51B00208E
:103C90007F840108037A0108898401089684010859
:103CA000A3840108BF7C0108AD840108B784010822
:103CB000C1840108017C0108CA84010865790108F2
:103CC000D4840108DE840108741F0020FB840108ED
:103CD00027850108B21B0020B41B002015200121FC
:103CE0000CF0BEBA08B5152000210CF0B9FABDE8F9
:103CF000084032200CF0E0BA10B50021044615202F
:103D00000CF0F0FA152001210CF0AAFA2046BDE8CB
:103D10001040FCF731BB7FB505460E46FFF7E2FFCA
:103D20000D2433192146284613F80D2C0134FCF7D5
:103D300057FB162CF5D13046092106F01FFD06462B
:103D4000214628463246FCF74BFB0D2421462846E7
:103D5000FCF714FB01AB23440134162C03F80D0CC3
:103D6000F4D101A8092106F009FDB04203D0FFF704
:103D7000B5FF00200DE028460B21FCF7FFFA55287F
:103D800004D028460B215522FCF72AFBFFF7A6FF9B
:103D9000012004B070BD7FB505460E46FFF7A2FFB7
:103DA000172433192146284613F8172C0134FCF741
:103DB00017FB202CF5D13046092106F0DFFC064622
:103DC000214628463246FCF70BFB1724214628469D
:103DD000FCF7D4FA01AB23440134202C03F8170C70
:103DE000F4D101A8092106F0C9FCB04203D0FFF7C5
:103DF00075FF00200DE028460C21FCF7BFFA55287E
:103E000004D028460C215522FCF7EAFAFFF766FF9A
:103E1000012004B070BDF0B585B001AD06460F4677
:103E20002846002109220DF029FF0D2421463046A5
:103E3000FCF7A4FA2B190134162C03F80D0CF5D15C
:103E400021463046FCF79AFA09210446284606F036
:103E500095FC844206D10023EA5CFA540133092B15
:103E6000FAD101E0002000E0012005B0F0BDF0B57E
:103E700085B001AD06460F462846002109220DF007
:103E8000FDFE172421463046FCF778FA2B19013441
:103E9000202C03F8170CF5D121463046FCF76EFABA
:103EA00009210446284606F069FC844206D1002315
:103EB000EA5CFA540133092BFAD101E0002000E05A
:103EC000012005B0F0BD37B50C461E210546FCF7B4
:103ED00055FA1F218DF804002846FCF74FFA0221FD
:103EE0008DF8050001A806F049FC207003B030BD34
:103EF00010B50B210446FCF741FA88B1FFF7F2FE3A
:103F0000204600220B21FCF76BFAFFF7E7FE204664
:103F10000B21FCF733FAD0F1010038BF002010BDAF
:103F2000012010BD10B50C210446FCF727FA88B11A
:103F3000FFF7D8FE204600220C21FCF751FAFFF7CC
:103F4000CDFE20460C21FCF719FAD0F1010038BF54
:103F5000002010BD012010BD10B521210446FCF742
:103F60000DFA552811D0FFF7BDFE2046552221211C
:103F7000FCF736FAFFF7B2FE20462121FCF7FEF9E6
:103F8000B0F155035842584110BD012010BD08B58D
:103F90002121FCF7F3F9B0F155035842584108BD0F
:103FA00070B586B004460D46FFF735FF28B12046B0
:103FB0002946FFF75CFF002877D120462946FFF706
:103FC0002AFF18B368464A490BF05AFF694603A80E
:103FD0000BF077FF03A847490CF02CF846490CF08A
:103FE00029F846490CF026F845490CF023F801461B
:103FF00044480BF059FE03A80BF000FF68460BF095
:10400000FDFE20462946FFF7C6FE6EE02946204603
:10401000FFF72DFF0646364968460EB30BF030FF1A
:10402000694603A80BF04DFF03A837490CF002F8CE
:1040300031490BF0FFFF31490BF0FCFF30490BF029
:10404000F9FF01462F480BF02FFE03A80BF0D6FE18
:1040500068460BF0D3FE20462946FFF75CFE44E09D
:104060000BF00EFF694603A80BF02BFF274903A8AE
:104070000BF0E0FF20490BF0DDFF20490BF0DAFFE9
:104080001F490BF0D7FF01461E480BF00DFE03A899
:104090000BF0B4FE68460BF0B1FE2046FFF728FF98
:1040A0002046FFF73FFF30461FE0194968460BF0F6
:1040B000E7FE694603A80BF004FF164903A80BF0BE
:1040C000B9FF0D490BF0B6FF0C490BF0B3FF0C49DB
:1040D0000BF0B0FF01460B480BF0E6FD03A80BF018
:1040E0008DFE68460BF08AFE012006B070BD00BF51
:1040F000347801081E860108DE770108F78501087B
:10410000449801085C1F0020558601088C86010830
:1041100028780108A0860108F8B504460E462F2528
:1041200073192046294613F82F7CFCF727F987429C
:1041300003D10135342DF3D136E0FFF7D3FD2F2520
:1041400073192946204613F82F2C0135FCF748F93E
:10415000342DF5D10521304606F010FB07462946DF
:1041600020463A46FCF73CF92F2520462946FCF725
:1041700005F9731913F82F3C834217D10135342DFB
:10418000F3D120462946FCF7F9F8B8420ED1204673
:104190003521FCF7F3F8552804D020463521552267
:1041A000FCF71EF9FFF79AFD0120F8BDFFF796FD19
:1041B0000020F8BDF7B505460E462F2421462846B7
:1041C000FCF7DCF800AB23440134342C03F82F0C4B
:1041D000F4D10521684606F0D1FA21460746284663
:1041E000FCF7CCF8874207D100231DF80320F254D6
:1041F0000133052BF9D101E0002000E0012003B0DC
:10420000F0BD73B505462F2421462846FCF7B6F8C5
:1042100000AB23440134342C03F82F0CF4D168464E
:10422000052106F0ABFA214606462846FCF7A6F81B
:10423000331A5842584102B070BD38B50546FFF7F1
:1042400051FD2F2428462146FCF798F868B12846EE
:1042500021460022FCF7C4F828462146FCF78EF8D8
:1042600018B1FFF73BFD002038BD0134342CE9D1F3
:1042700028463521FCF782F820B128463521002256
:10428000FCF7AEF8FFF72AFD012038BD37B50D4623
:104290008DF8071036210446FCF770F885422BD0C4
:1042A00002ADFFF71FFD15F8012D20463621FCF762
:1042B00097F80121284606F061FA37210246204688
:1042C000FCF78EF820463621FCF758F89DF80730A9
:1042D00083420DD120463821FCF750F8552804D0F0
:1042E000204638215522FCF77BF8FFF7F7FC03E066
:1042F000FFF7F4FC002000E0012003B030BD3621C0
:10430000FCF73CB837B536210546FCF737F802AB69
:1043100003F8010D1846012106F030FA3721044652
:104320002846FCF72BF8231A5842584103B030BDF9
:1043300010B536210446FCF721F888B1FFF7D2FC0E
:10434000204636210022FCF74BF820463621FCF7A8
:1043500015F818B1FFF7C2FC002010BDFFF7BEFC36
:10436000012010BD10B548210446FCF707F8552878
:1043700011D0FFF7B7FC204655224821FCF730F852
:10438000FFF7ACFC20464821FBF7F8FFB0F15503DE
:104390005842584110BD012010BD10B54D210446B2
:1043A000FBF7ECFF552810D0FFF79CFC2046552268
:1043B0004D21FCF715F8FFF791FC20460021FBF793
:1043C000DDFF003018BF012010BD012010BD00002E
:1043D00030B589B08DF807101031C9B201290446F3
:1043E00029D84C21FBF7CAFF9DF80730834243D000
:1043F00008ADFFF777FC15F8192D20464C21FBF787
:10440000EFFF0121284606F0B9F94E210246204669
:10441000FBF7E6FF20464C21FBF7B0FF9DF8073085
:10442000834205D12046FFF7B8FFFFF757FC23E092
:10443000FFF754FC1EE0124902A80BF021FD02A96F
:1044400005A80BF03EFD0F4905A80BF0F3FD0E4942
:104450000BF0F0FD0D490BF0EDFD0D490BF0EAFD01
:1044600001460C480BF020FC05A80BF0C7FC02A885
:104470000BF0C4FC002000E0012009B030BD00BFFB
:1044800034780108D0860108DE770108F58C010830
:10449000449801085C1F002037B54C210446FBF707
:1044A0006DFF02AB03F8010D1846012106F066F915
:1044B0004E2105462046FBF761FF854202D19DF85B
:1044C000070004E02046F021FFF782FFF02003B050
:1044D00030BD0000F0B5054689B00E464F24214698
:1044E0002846FBF74BFF00AB23440134572C03F85D
:1044F0004F0CF4D10821684606F040F921460746E2
:104500002846FBF73BFF874227D100231DF80320F5
:10451000F2540133082BF9D1114902A80BF0B0FC79
:1045200002A905A80BF0CDFC0E4905A80BF082FDF1
:104530000D490BF07FFD0D490BF07CFD0C490BF094
:1045400079FD01460B480BF0AFFB05A80BF056FCBC
:1045500002A80BF053FC012000E0002009B0F0BDE0
:1045600028780108F1860108DE7701081C8D010812
:10457000449801085C1F002010B558210446FBF741
:10458000FDFE552808D0FFF7ADFB204658215522E7
:10459000FBF726FFFFF7A2FB10BD10B5582104461C
:1045A000FBF7ECFE40B1FFF79DFB204658210022AF
:1045B000FBF716FFFFF792FB10BD0000F0B50F46AA
:1045C00089B00546FFF78EFB3846082106F0D6F87D
:1045D0004F2406463B192146284613F84F2C013438
:1045E000FBF7FEFE572CF5D1214628463246FBF755
:1045F000F7FE4F2421462846FBF7C0FE00AB2344BC
:104600000134572C03F84F0CF4D16846082106F00A
:10461000B5F8864206D02846FFF7BFFFFFF75EFBDE
:10462000002022E0124902A80BF02AFC02A905A8EA
:104630000BF047FC0F4905A80BF0FCFC0E490BF0F2
:10464000F9FC0E490BF0F6FC0D490BF0F3FC0146AA
:104650000C480BF029FB05A80BF0D0FB02A80BF0CF
:10466000CDFB2846FFF788FF012009B0F0BD00BF51
:104670002878010806870108DE770108C18501084E
:10468000449801085C1F002008B55821FBF776FE0E
:10469000B0F155035842584108BD10B57F2104467A
:1046A000FBF76CFE55280AD0FFF71CFB20467F2144
:1046B0005522FBF795FEFFF711FB002010BD0120EE
:1046C00010BD38B50C467E210546FBF757FEA042CB
:1046D00008D0FFF707FB28467E212246FBF780FE25
:1046E000FFF7FCFA012038BD7E21FBF747BE10B56D
:1046F00081210446FBF742FE55280AD0FFF7F2FA63
:10470000204681215522FBF76BFEFFF7E7FA0020D8
:1047100010BD012010BD38B50C4680210546FBF7C1
:104720002DFEA04208D0FFF7DDFA28468021224660
:10473000FBF756FEFFF7D2FA012038BD8021FBF7C8
:104740001DBE70B504460E461546FFF7CBFA20464F
:1047500032462221FBF744FE204623212A46FBF75E
:104760003FFEFFF7BBFA70BDFBF708BEFBF706BEC6
:1047700070B504460E461546FFF7B4FA2046324699
:104780002421FBF72DFE204625212A46FBF728FE93
:10479000FFF7A4FA70BD10B50446FFF7A3FA204650
:1047A00055225921FBF71CFEFFF798FA20465921A4
:1047B000FBF7E4FDB0F155035842584110BD08B570
:1047C0005921FBF7DBFDB0F155035842584108BDB4
:1047D00010B50446FFF786FA204600225921FBF760
:1047E000FFFDFFF77BFA20465921FBF7C7FDD0F10B
:1047F000010038BF002010BD70B5002388B0054609
:104800000E4600930193FFF76DFA5A24331921469F
:10481000284613F85A2C0134FBF7E2FD622CF5D13F
:104820003046082105F0AAFF0646214628463246B2
:10483000FBF7D6FD5A2421462846FBF79FFD00AB27
:1048400023440134622C03F85A0CF4D10821684641
:1048500005F094FF0446FFF741FAB44202A81FD1C5
:1048600020490BF00DFB02A905A80BF02AFB1E49FD
:1048700005A80BF0DFFB1D490BF0DCFB1C490BF01E
:10488000D9FB1C490BF0D6FB01461B480BF00CFA78
:1048900005A80BF0B3FA02A80BF0B0FA01201EE055
:1048A00016490BF0EDFA02A905A80BF00AFB144912
:1048B00005A80BF0BFFB0D490BF0BCFB0C490BF03E
:1048C000B9FB0C490BF0B6FB01460B480BF0ECF9B9
:1048D00005A80BF093FA02A80BF090FA002008B09C
:1048E00070BD00BF287801081B870108DE7701082A
:1048F000698D0108449801085C1F00203478010884
:104900003687010830B587B01749054668460BF071
:10491000B7FA694603A80BF0D4FA144903A80BF0C0
:1049200089FB13490BF086FB12490BF083FB1249FC
:104930000BF080FB014611480BF0B6F903A80BF011
:104940005DFA68460BF05AFA5A2421462846FBF7CE
:1049500015FD0B4B1A190134622C02F85A0CF4D1D4
:10496000184607B030BD00BF2878010853840108FD
:10497000DE7701087B8D0108449801085C1F002048
:10498000BB1B002070B5002388B005460E4600937F
:104990000193FFF7A7F9632433192146284613F83A
:1049A000632C0134FBF71CFD6B2CF5D1304608213C
:1049B00005F0E4FE0646732128463246FBF710FD5B
:1049C000632421462846FBF7D9FC00AB234401347D
:1049D0006B2C03F8630CF4D10821684605F0CEFE79
:1049E0000446FFF77BF9B44202A81FD120490BF01F
:1049F00047FA02A905A80BF064FA1E4905A80BF0B6
:104A000019FB1D490BF016FB1C490BF013FB1C494D
:104A10000BF010FB01461B480BF046F905A80BF004
:104A2000EDF902A80BF0EAF901201EE016490BF09F
:104A300027FA02A905A80BF044FA144905A80BF0BF
:104A4000F9FA0D490BF0F6FA0C490BF0F3FA0C49A0
:104A50000BF0F0FA01460B480BF026F905A80BF015
:104A6000CDF902A80BF0CAF9002008B070BD00BF54
:104A70002878010864870108DE770108D0850108DD
:104A8000449801085C1F0020347801087F870108E2
:104A900070B50E4686B0742104461546FBF76EFCD1
:104AA000B04205D120467521FBF768FCA84219D019
:104AB000FFF718F9204674213246FBF791FC204697
:104AC00075212A46FBF78CFCFFF708F92046742174
:104AD000FBF754FCB04226D120467521FBF74EFC73
:104AE000A84220D1214968460BF0CAF9694603A8BB
:104AF0000BF0E7F91E4903A80BF09CFA1D490BF0D7
:104B000099FA1D490BF096FA1C490BF093FA0146ED
:104B10001B480BF0C9F803A80BF070F968460BF0BE
:104B20006DF901201FE0174968460BF0A9F96946A5
:104B300003A80BF0C6F9144903A80BF07BFA0D4942
:104B40000BF078FA0C490BF075FA0C490BF072FA7D
:104B500001460B480BF0A8F803A80BF04FF9684684
:104B60000BF04CF9002006B070BD00BF287801089A
:104B70009D870108DE770108B48501084498010883
:104B80005C1F002034780108B187010810B5044685
:104B900086B0FFF7A7F8204674210022FBF720FC1F
:104BA000204675210022FBF71BFCFFF797F82046F3
:104BB0007421FBF7E3FB20B920467521FBF7DEFBF0
:104BC00000B3214968460BF05BF9694603A80BF076
:104BD00078F91E4903A80BF02DFA1D490BF02AFAAB
:104BE0001C490BF027FA1C490BF024FA01461B481C
:104BF0000BF05AF803A80BF001F968460BF0FEF829
:104C000000201FE0164968460BF03AF9694603A8F0
:104C10000BF057F9134903A80BF00CFA0C490BF0F1
:104C200009FA0C490BF006FA0B490BF003FA01469E
:104C30000A480BF039F803A80BF0E0F868460BF0CF
:104C4000DDF8012006B010BD34780108C5870108E1
:104C5000DE7701085B8D0108449801085C1F002085
:104C600028780108D987010870B50E4686B07A21E8
:104C700004461546FBF782FBB04205D120467B2156
:104C8000FBF77CFBA84219D0FFF72CF820467A21CD
:104C90003246FBF7A5FB20467B212A46FBF7A0FB0B
:104CA000FFF71CF820467A21FBF768FBB04226D1BB
:104CB00020467B21FBF762FBA84220D121496846B0
:104CC0000BF0DEF8694603A80BF0FBF81E4903A8B9
:104CD0000BF0B0F91D490BF0ADF91D490BF0AAF925
:104CE0001C490BF0A7F901461B480AF0DDFF03A899
:104CF0000BF084F868460BF081F801201FE017499B
:104D000068460BF0BDF8694603A80BF0DAF81449C1
:104D100003A80BF08FF90D490BF08CF90C490BF03F
:104D200089F90C490BF086F901460B480AF0BCFFE3
:104D300003A80BF063F868460BF060F8002006B09B
:104D400070BD00BF2878010851880108DE7701088E
:104D50007C850108449801085C1F00203478010814
:104D60006A88010838B57A210546FBF707FB7B21E5
:104D700004462846FBF702FB00EB042038BD000088
:104D800070B50E4686B0782104461546FBF7F6FA54
:104D9000B04205D120467921FBF7F0FAA84219D09C
:104DA000FEF7A0FF204678213246FBF719FB20468C
:104DB00079212A46FBF714FBFEF790FF2046782165
:104DC000FBF7DCFAB04226D120467921FBF7D6FA70
:104DD000A84220D1214968460BF052F8694603A841
:104DE0000BF06FF81E4903A80BF024F91D490BF0D6
:104DF00021F91D490BF01EF91C490BF01BF9014666
:104E00001B480AF051FF03A80AF0F8FF68460AF0B1
:104E1000F5FF01201FE0174968460BF031F869469D
:104E200003A80BF04EF8144903A80BF003F90D4941
:104E30000BF000F90C490BF0FDF80C490BF0FAF8F7
:104E400001460B480AF030FF03A80AF0D7FF684676
:104E50000AF0D4FF002006B070BD00BF287801081A
:104E6000B5880108DE7701089D8D01084498010886
:104E70005C1F002034780108CE88010838B57821FD
:104E80000546FBF77BFA792104462846FBF776FABC
:104E900000EB042038BD000070B50E4686B07C21C2
:104EA00004461546FBF76AFAB04205D120467D213B
:104EB000FBF764FAA84219D0FEF714FF20467C21C4
:104EC0003246FBF78DFA20467D212A46FBF788FA09
:104ED000FEF704FF20467C21FBF750FAB04226D1B2
:104EE00020467D21FBF74AFAA84220D12149684695
:104EF0000AF0C6FF694603A80AF0E3FF1E4903A8AB
:104F00000BF098F81D490BF095F81D490BF092F83D
:104F10001C490BF08FF801461B480AF0C5FE03A898
:104F20000AF06CFF68460AF069FF01201FE017498C
:104F300068460AF0A5FF694603A80AF0C2FF1449B3
:104F400003A80BF077F80D490BF074F80C490BF03F
:104F500071F80C490BF06EF801460B480AF0A4FEFC
:104F600003A80AF04BFF68460AF048FF002006B08D
:104F700070BD00BF2878010819890108DE77010893
:104F8000088D0108449801085C1F0020347801084E
:104F90003489010838B57C210546FBF7EFF97D21FE
:104FA00004462846FBF7EAF900EB042038BD000070
:104FB00070B586B005460E46FEF794FE002404F157
:104FC0008201325D28460134FBF70AFA082CF6D13B
:104FD000FEF784FE0024284604F18201FBF7CEF997
:104FE000335D834220D0234968460AF049FF694671
:104FF00003A80AF066FF204903A80BF01BF81F491D
:105000000BF018F81E490BF015F81E490BF012F8BA
:1050100001461D480AF048FE03A80AF0EFFE684664
:105020000AF0ECFE002022E00134082CD3D117490D
:1050300068460AF025FF694603A80AF042FF1449B2
:1050400003A80AF0F7FF0D490AF0F4FF0C490AF033
:10505000F1FF0C490AF0EEFF01460B480AF024FE6E
:1050600003A80AF0CBFE68460AF0C8FE012006B08D
:1050700070BD00BF3478010885890108DE7701081A
:10508000E2850108449801085C1F00202878010887
:10509000A4890108052902D88231FBF76FB90020E5
:1050A0007047000070B586B005460E46FEF71AFE42
:1050B000002404F18A01325D28460134FBF790F99F
:1050C000082CF6D1FEF70AFE8A2428462146FBF773
:1050D00055F9331913F88A3C834220D02249684697
:1050E0000AF0CEFE694603A80AF0EBFE1F4903A8AA
:1050F0000AF0A0FF1E490AF09DFF1E490AF09AFF20
:105100001D490AF097FF01461C480AF0CDFD03A88F
:105110000AF074FE68460AF071FE002022E00134B5
:10512000922CD2D1164968460AF0AAFE694603A815
:105130000AF0C7FE134903A80AF07CFF0C490AF0E5
:1051400079FF0C490AF076FF0B490AF073FF01461C
:105150000A480AF0A9FD03A80AF050FE68460AF0C2
:105160004DFE012006B070BD34780108FB890108AE
:10517000DE770108488D0108449801085C1F002073
:10518000287801082C8A0108052902D88A31FBF702
:10519000F5B800207047000010B5044686B0FEF751
:1051A000A1FD204692215522FBF71AF9FEF796FD44
:1051B00020469221FBF7E2F8552868461FD1204986
:1051C0000AF05EFE694603A80AF07BFE1D4903A8AB
:1051D0000AF030FF1C490AF02DFF1C490AF02AFF93
:1051E0001B490AF027FF01461A480AF05DFD03A893
:1051F0000AF004FE68460AF001FE01201EE016498E
:105200000AF03EFE694603A80AF05BFE134903A8B4
:105210000AF010FF0C490AF00DFF0C490AF00AFFD2
:105220000B490AF007FF01460A480AF03DFD03A8B2
:105230000AF0E4FD68460AF0E1FD002006B010BD6A
:10524000287801088F8A0108DE7701088D8D010812
:10525000449801085C1F002034780108B98A0108CD
:1052600008B59221FBF78AF8B0F15503584258412E
:1052700008BD000030B589B008AD04468DF80710B0
:10528000FEF730FD15F8192D20469321FBF7A8F8FD
:105290002846012105F072FA0546952120462A4646
:1052A000FBF79EF8FEF71AFD20469321FBF766F800
:1052B0009DF80730834206D120469521FBF75EF822
:1052C000A842044620D0264902A80AF0D9FD02A926
:1052D00005A80AF0F6FD234905A80AF0ABFE22490D
:1052E0000AF0A8FE21490AF0A5FE21490AF0A2FE13
:1052F000014620480AF0D8FC05A80AF07FFD02A864
:105300000AF07CFD002029E01B4902A80AF0B8FD44
:1053100002A905A80AF0D5FD184905A80AF08AFED9
:105320009DF807100AF098FE15490AF083FE214601
:105330000AF092FE0C490AF07DFE0C490AF07AFE52
:105340000B490AF077FE01460A480AF0ADFC05A8B1
:105350000AF054FD02A80AF051FD012009B030BD49
:10536000347801083D8B0108DE7701089E8501082D
:10537000449801085C1F002028780108598B010817
:105380007E8B010830B50C4687B00546FEF7AAFCB7
:10539000284694212246FBF723F8FEF79FFC284677
:1053A0009421FAF7EBFFA04268461FD120490AF08A
:1053B00067FD694603A80AF084FD1E4903A80AF0A8
:1053C00039FE1D490AF036FE1C490AF033FE1C491D
:1053D0000AF030FE01461B480AF066FC03A80AF0FA
:1053E0000DFD68460AF00AFD01201EE016490AF08C
:1053F00047FD694603A80AF064FD144903A80AF0B2
:1054000019FE0D490AF016FE0C490AF013FE0C496C
:105410000AF010FE01460B480AF046FC03A80AF009
:10542000EDFC68460AF0EAFC002007B030BD00BF82
:1054300028780108C68B0108DE7701088E850108EF
:10544000449801085C1F002034780108E08B0108B3
:1054500070B5002388B004468DF807300A259321E3
:105460002046FAF78BFF08AB03F8190D1846012107
:1054700005F084F9952106462046FAF77FFF86421B
:1054800002D19DF807002BE0013D15F0FF05E6D1A4
:10549000144902A80AF0F4FC02A905A80AF011FDBB
:1054A000114905A80AF0C6FD10490AF0C3FD1049CC
:1054B0000AF0C0FD0F490AF0BDFD01460E480AF092
:1054C000F3FB05A80AF09AFC02A80AF097FC052154
:1054D0000A48FFF7CFFE09480121FFF753FF0520D7
:1054E00008B070BD28780108FD8B0108DE7701083F
:1054F00050850108449801085C1F0020B61B00205D
:1055000008B59421FAF73AFF003018BF012008BD12
:105510002DE9F04F87B00E469046824609F0BAFC5E
:10552000FEF7E0FBB04434464445C6EB04097BD0AB
:10553000C6EB0A0525446048294614F8012BFAF702
:105540004FFF00275C482946FAF718FF14F8013C82
:105550008342E9D009F09EFC584968460AF090FC65
:10556000694603A80AF0ADFC554903A80AF062FD9C
:1055700029460AF085FD53490AF05CFD2946834619
:105580004D48FAF7FBFE014658460AF065FD4E49C4
:105590000AF050FD4D490AF04DFD4D490AF04AFD13
:1055A00001464C480AF080FB03A80AF027FC684635
:1055B0000AF024FC414968460AF062FC694603A8E7
:1055C0000AF07FFC444903A80AF034FD49460AF07A
:1055D00057FD42490AF02EFD013714F8011C0AF06C
:1055E0003BFDFFB23E490AF025FD39460AF034FD85
:1055F00035490AF01FFD35490AF01CFD34490AF00F
:1056000019FD014633480AF04FFB03A80AF0F6FBE8
:1056100068460AF0F3FB0B2F29D02748294614F8D7
:10562000012CFAF7DDFE8DE7FEF758FB2D496846A1
:105630000AF026FC694603A80AF043FC2A4903A89D
:105640000AF0F8FC20490AF0F5FC20490AF0F2FCC7
:105650001F490AF0EFFC01461E480AF025FB03A88B
:105660000AF0CCFB68460AF0C9FB002021E0FEF7F7
:1056700035FB124968460AF003FC694603A80AF0A4
:1056800020FC1A4903A80AF0D5FC0F490AF0D2FC05
:105690000E490AF0CFFC0E490AF0CCFC01460D4839
:1056A0000AF002FB03A80AF0A9FB68460AF0A6FB71
:1056B000022007B0BDE8F08F6C1700203478010895
:1056C000698C01086E8E0108DE7701086685010885
:1056D000449801085C1F0020768C01085E7B01085D
:1056E0007B8C0108C0770108898C0108938C010824
:1056F000F8B505460E4617180446BC4207D02146A9
:105700000448FAF73BFE731B18550134F5E70020F7
:10571000F8BD00BF6C17002070B586B06C49054617
:1057200068460AF0ADFB694603A80AF0CAFB69495E
:1057300003A80AF07FFC68490AF07CFC67490AF07C
:1057400079FC67490AF076FC014666480AF0ACFA33
:1057500003A80AF053FB68460AF050FB61480AF0C0
:105760004DF909F097FB41F288300AF0A5FD09F0E8
:1057700091FB5C480AF05EF900280ADD59480AF0FE
:1057800005F9C1B258480AF008FC02200AF094FD5D
:10579000EFE7554CA668002E73D020460AF023FD93
:1057A0004B4968460AF06CFB694603A80AF089FB7E
:1057B000214603A80AF031FC47490AF03BFC47495F
:1057C0000AF038FC46490AF035FC014645480AF023
:1057D0006BFA03A80AF012FB68460AF00FFB434974
:1057E00003A80AF04DFB03A920460AF069FC06460F
:1057F00003A80AF003FB6846002E38D034490AF0AB
:105800003FFB694603A80AF05CFB394903A80AF08C
:1058100011FC31490AF00EFC30490AF00BFC30490A
:105820000AF008FC01462F480AF03EFA03A80AF0E5
:10583000E5FA68460AF0E2FA2E4920460AF04BFBE8
:1058400028462121FAF79AFD40B1FEF74BFA284687
:1058500021210022FAF7C4FDFEF740FA2846212153
:10586000FAF78CFDD0F1010038BF00202DE022496D
:105870000AF006FB694603A80AF023FB03A81F49A8
:1058800009E0134968460AF0FBFA694603A80AF0E2
:1058900018FB1B4903A80AF0CDFB0F490AF0CAFB0D
:1058A0000E490AF0C7FB0E490AF0C4FB01460D4839
:1058B0000AF0FAF903A80AF0A1FA68460AF09EFA7B
:1058C00020460C490AF007FB304606B070BD00BF09
:1058D00028780108988C0108DE7701082B8D0108D3
:1058E000449801085C1F0020281C0020CA8C010875
:1058F000CE8C01085384010834780108E58C010836
:10590000F18C01080022026042607047006820B1FB
:1059100003688B4201D08068F9E7704770B5044690
:105920000C2016460D460BF021FE002282602268F4
:1059300080E860000AB9206001E062689060606001
:1059400070BD10B51446FFF7E1FF08B144600120B7
:1059500010BD08B5FFF7DAFF00B1406808BD01F5DA
:105960001C414131FFF7DABF01F51C414131FFF71E
:10597000E8BF01F51C414131FFF7EBBF002A01F1FF
:10598000010114BF4FF47F420022FFF7C7BF002A76
:1059900001F51C5101F1110114BF4FF47F420022A7
:1059A000FFF7BCBF01F5EA413131FFF7B7BF002A6D
:1059B00001F1010114BF4FF47F420022FFF7C1BF84
:1059C000002A01F51C5101F1110114BF4FF47F426F
:1059D0000022FFF7B6BF01F5EA413131FFF7B1BF51
:1059E00008B50131FFF7B5FFB0F57F435842584184
:1059F00008BD01F51C5108B51131FFF7AAFFB0F53C
:105A00007F435842584108BD01F5EA413131FFF763
:105A1000A0BF000070B504460D4609480949164666
:105A20000AF04CF9A0680BF0A9FD022020730BF0DE
:105A30009DFD803D0323A06005704670637370BDBB
:105A40005C1F0020AF8D0108F8B5531E7C2B044667
:105A50000F46164602D903210A4617E001F51C41FC
:105A60004131FFF753FF18B92046032102220DE010
:105A7000A0680BF083FD701C4000C0B220730BF0D7
:105A800075FDA06030B9204603210422BDE8F8402E
:105A9000FFF7C0BF03230370237B0025023B437045
:105AA000E9192046FFF765FFA3680135020A03F8EC
:105AB0001520A368B54203EB45035870F0D10323CA
:105AC0006373F8BD70B504460E461546FFF74CFFEC
:105AD00018B920460621022208E020463146FFF789
