:020000040800F2
:1000000000C00020417A0008317D0008357D0008DD
:10001000397D00083D7D0008417D0008917D000884
:10002000917D0008917D0008917D0008917D000878
:10003000917D0008917D0008917D000821820008D3
:10004000917D0008917D0008917D00081D790008D0
:10005000917D0008917D0008917D0008917D000848
:10006000917D0008917D0008917D0008917D000838
:10007000917D0008917D0008917D0008917D000828
:10008000917D0008917D0008097E0008917D00089F
:10009000917D0008917D0008917D0008917D000808
:1000A000698400088D840008B1840008E984000890
:1000B0003D850008AD8500081D860008917D00087B
:1000C000917D0008917D0008917D0008917D0008D8
:1000D000917D00081589000869890008BD8900081C
:1000E000917D000865790008917D0008458700082A
:1000F000698700088D870008C5870008597E0008B9
:10010000917D0008917D00088D860008917D000892
:10011000118A0008658A0008FD860008218700080A
:10012000917D0008917D0008917D0008917D000877
:1001300010B5054C237833B9044B13B10448AFF321
:1001400000800123237010BD18170020000000005C
:1001500074B2000808B5064B1BB106480649AFF358
:1001600000800648036813B1054B03B1984708BDEA
:100170000000000074B200081C17002018170020AF
:1001800000000000012902D11C30C0B270470629CE
:1001900084BF01F1FF31C9B211F0010F14BF1E205D
:1001A0001F207047444B2DE9F047B1FBF3F603FBEA
:1001B00016113C23B1FBF3F203FB12120546027049
:1001C0004FF46160B1FBF0F200FB1211B1FBF3F3ED
:1001D0006B704FF4FA63AA70B6B2EB80EC884FF400
:1001E000C873B4FBF3F803FB18481FFA88F8B8F19A
:1001F000000F16D06423B4FBF3F203FB12439BB24F
:10020000002B53D014F0030140F26D130CBF4FF4D8
:10021000B7721A4696420EDB002908BF4FF4B77337
:1002200004E0B6F5B77F06DB4FF4B773F61A013476
:10023000B6B2EC80D2E700236B716423B4FBF3F712
:1002400003FB1747BFB2B8F1000F06D03FB114F05F
:10025000030F14BF0020012002E0012000E0384617
:1002600095F80590C0B24946FFF78CFF864209F128
:10027000010A15D3B8F1000F06D03FB114F0030FF7
:1002800014BF0020012002E0012000E03846C0B287
:100290004946FFF777FF301A86B285F805A0D2E706
:1002A00001362E7185F805A0BDE8F087B6F5B67F5A
:1002B000C1DD40F26D13B9E780510100F8B5427815
:1002C00087783C2303FB072702780579467903FBEF
:1002D0000727013D013EEDB2F6B2044605714671B5
:1002E000013E731CE38834D04FF4C872B3FBF2F1C3
:1002F00002FB113292B262B16422B3FBF2F002FB54
:10030000103080B230B113F0030F14BF0020012071
:1003100000E00120C0B2F1B2FFF734FF284485B2FB
:10032000DEE74FF4C872B3FBF2F102FB113292B276
:10033000AAB16422B3FBF2F102FB113292B28AB18C
:1003400013F0030F40F26D1208BF4FF4B77215445B
:10035000ADB2013B9BB2B3F5FA6FE2D205E04FF4C8
:10036000B772F4E740F26D12F1E7024800FB057046
:10037000F8BD00BF8051010006F016BB38B50D4630
:10038000044606F02CFB290A49006039204601F09A
:10039000FE0106F0BBFB204606F091FBE9B22046C9
:1003A00006F0B4FB204606F08AFB204606F017FB59
:1003B0002046A12106F0AAFB204606F080FB002182
:1003C000204606F0CAFB0546204606F05BFB2046A9
:1003D00006F020FB284638BD70B50D46164604468B
:1003E00006F0FDFA290A49006039204601F0FE01B5
:1003F00006F08CFB204606F062FBE9B2204606F0D0
:1004000085FB204606F05BFB3146204606F07EFB6E
:10041000204606F054FB204606F0FCFABDE870408A
:100420000A2009F071B8000008B5184A517893788D
:1004300043EA0123A3F52043152B1CD8DFE803F082
:100440000B230D0F1B1B1B1B1B1B1B1B1B1B1B1B1E
:100450001B1113151719002008BD022008BD082024
:1004600008BD032008BD042008BD052008BD0620E6
:1004700008BD072008BD00214FF40072034809F0B1
:10048000A9FF092008BD012008BD00BF38180020C1
:1004900010B5074C6018114606F08EF9054B1B7815
:1004A0001C4414F8073C1B1A5842584110BD00BFA9
:1004B00038180020481A0020084B18795B7943EA65
:1004C000002045F25553984205D04CF20303C31A5D
:1004D0005842584170470120704700BF381800202B
:1004E000044B9B79552B044B0CBF012200221A7040
:1004F000704700BF381800209D1A002010B5084C26
:10050000E379552B01D1012010BD064802F049F8CE
:10051000E3798342F7D0D0F1010038BF002010BD4D
:1005200038180020BB1D002013B50D4B1C7A552C2C
:1005300001D1012012E00B48694601F08DFF002334
:100540001A461DF803108C42F3D019B90132D2B209
:10055000052AEED00133052BF3D1002002B010BDE7
:1005600038180020BB1D002070B505461E46FFF759
:100570008FFF044640B91C4AD3781A441379D62B0E
:1005800002D01A481A492BE02846FFF795FF044687
:1005900078B12846FFF7A4FF2846FFF7AFFF0446CF
:1005A00070B96EB11349114808F060FC0F48124948
:1005B00016E012490D4808F059FC0C4810490FE0AC
:1005C0002846FFF7B1FF044660B99DF810300BB91B
:1005D000012407E00B49054808F048FC03480A4994
:1005E00008F044FC204670BD381800208C1E002006
:1005F0002CCA000850CA000887CA0008D0C90008E1
:10060000FEC90008BECA0008F6CA0008204B13B590
:100610001B78002B39D000230093042117220123DB
:10062000FFF7A2FF40B31B491B4808F01FFC1A4804
:1006300008F0BCFA194B1C7A012C1AD1184A194837
:10064000D97C147002F016F848B117480F212246E1
:1006500006F094FC1548214601F0F8FB0CE0124826
:100660001021022206F08AFC11490B4808F0FEFB1B
:1006700002E00D4806F0FCFA0E4B08481A780021FB
:1006800002B0BDE8104009F0A5BE02B010BD00BF29
:100690000E0000202ACB00088C1E002038180020F5
:1006A0000C000020B91D0020831E0020B81D002072
:1006B0004ACB0008481A00201B4B13B51B78002BAF
:1006C00030D00023009304210A220123FFF74CFFBE
:1006D000F8B11649164808F0C9FB154808F066FA43
:1006E000144B0124144815491C7001F067FE38B101
:1006F00013490F4808F0BAFB12480321022206E012
:1007000011490B4808F0B2FB0E480421224606F0BE
:1007100035FC0E4B0E481A78002102B0BDE810409F
:1007200009F058BE02B010BD0E0000208ECB0008AC
:100730008C1E00200C000020BB1D00204018002053
:10074000A6CB0008831E0020E8CB0008481A002032
:100750003818002037B50023009304210F22FFF73B
:1007600003FF58B32349244808F080FB234D224857
:1007700008F01CFA224B0124224805F10A011C70E2
:1007800001F091FC68B31F4805F10A0101F0CBFCB0
:1007900038B31D49184808F069FB1A48E97901F097
:1007A000C7FEA0B11949144808F060FB184805219C
:1007B000224606F0E3FB134801F096FD154B0F4867
:1007C0001A78002103B0BDE8304009F003BE124999
:1007D000094808F04BFB0E480621224606F0CEFBE6
:1007E000ECE70E49044808F041FB094806210122C4
:1007F000F4E700BF2ACC00088C1E00203818002027
:100800000C000020BB1D0020D0CC000845CC000807
:10081000831E0020481A00208BCC0008FDCC000865
:1008200070B52E4B88B01B78002B54D02C4C002573
:10083000E278009504210123FFF796FE002841D0BD
:100840002849294808F012FB274808F0AFF9274B40
:10085000254827491D7008F009FBA67AE37A03EBC7
:100860000626042E06D820482249052608F0FEFA5E
:10087000A572E672204902A808F005FC02A905A8A5
:1008800008F022FC314605A808F0FDFC0146164898
:1008900008F0E2FA05A808F0B4FB02A808F0B1FBE2
:1008A0001648A17AE27A02F0C9F918B90E4814493B
:1008B00008F0DCFA627B237B0092124800210122BF
:1008C00006F0DEFD104B06481A78002108B0BDE89E
:1008D000704009F07FBD08B070BD00BF0E00002061
:1008E0003818002038CD00088C1E00200C00002095
:1008F00054CD00088DCD0008B3CD0008C51D0020E3
:10090000C3CD0008831E0020481A00203A4B73B55F
:100910001B78002B6ED000240094042105220123B3
:10092000FFF722FE00285CD03449354808F09EFAD3
:100930003449334808F09AFA314808F037F9324E12
:10094000324A01233370137007F07CFB03F014FA72
:10095000032006F0C3FF2E4B25461C702D4B1C7048
:100960002D4B1C702D4B1C702D4B1C702D4B1C6087
:100970002D4B1C702D4B1C702D4B1C702D4B1C7067
:100980002D4B1C702D4B1C702D4B1C602D4B1C7067
:100990002D4A0023A3502D4AE8B2A3502C4A01212E
:1009A000A3502C4AA3502C4AA3502C4AA3502C4AA3
:1009B000A3502C4AA3502C4AA3502C4A0434AB54C5
:1009C0002B4AAB542B4AAB542B4AAB54013505F0A0
:1009D0007FFE0C2DDCD1012228480721327006F061
:1009E000CDFA274B27481A78002102B0BDE87040A5
:1009F00009F0F0BC02B070BD0E00002004CE00086B
:100A00008C1E00201DCE00080C000020B517002011
:100A10002E1E0020E91D00203E1E0020031E002087
:100A2000741D0020E01A0020021E0020FE1D002080
:100A3000FD1D00202F1E0020B4170020B617002037
:100A40000C1E0020081E002074170020E41A00204D
:100A5000781D0020F8170020B8170020241D002062
:100A60005C1A0020A01A002034170020641D00200A
:100A7000381A0020491A00200F000020831E002091
:100A8000481A0020381800202DE9F0418A4B90B018
:100A90001B78002B00F00D81884C0025E278009532
:100AA00004210123FFF760FD002800F0F98084494C
:100AB000844808F0DBF9834808F078F807F0C2FAB8
:100AC000814B627A1D70814B81491A70A27A814BE9
:100AD0007C481A7008F0CAF9237BE67A0BAD7E4990
:100AE00008A803EB062608F0CEFA08A9284608F065
:100AF000EBFA3146284608F0C6FB0146714808F07B
:100B0000ABF9284608F07DFA08A808F07AFA73488D
:100B1000E17A227B02F00CF8064600284CD170499D
:100B2000684808F0A3F96F4B01223046FF211A7084
:100B300008F0DFFCFF210746304608F0DAFC6A497E
:100B4000064605A808F09FFA05A9284608F0BCFA51
:100B50001022F9B208A808F0D2FA08A9284608F02D
:100B60005FFB0146574808F077F908A808F049FAF2
:100B7000284608F046FA05A808F043FA5B4905A89C
:100B800008F081FA05A9284608F09EFA1022F1B271
:100B900008A808F0B4FA08A9284608F041FB014665
:100BA000484808F059F908A808F02BFA284608F038
:100BB00028FA05A808F025FA28460021142209F091
:100BC00009FCE678093E142E01D8002305E03D48D3
:100BD000474908F04BF9022207E0B34204D2E21879
:100BE000527BEA540133F8E703223E4BFF210020F9
:100BF0001A7008F07EFCFF218046002008F079FC86
:100C00003949074602A808F03EFA02A908A808F0E8
:100C10005BFA10225FFA88F105A808F070FA05A9BE
:100C200008A808F0FDFA0146264808F015F905A8BD
:100C300008F0E7F908A808F0E4F902A808F0E1F9DB
:100C40002A4902A808F01FFA02A908A808F03CFAED
:100C50001022F9B205A808F052FA05A908A808F070
:100C6000DFFA0146174808F0F7F805A808F0C9F9B7
:100C700008A808F0C6F902A808F0C3F91D482946DB
:100C8000324604F07DFB637A227B0093A37AE17AFB
:100C900001931948012306F007FA184B01221A7034
:100CA000174B06481A78002110B0BDE8F04109F052
:100CB00091BB10B0BDE8F0810E0000203818002074
:100CC0002DCE00088C1E00200C0000205A1A002097
:100CD00057CE00085B1A0020ADCE0008C51D0020CD
:100CE000BDCE0008841E0020FECE00080ACF0008FA
:100CF00016CF00083F1E0020831E0020FD1D00208F
:100D0000481A0020F0B54E4B89B01B78002B00F03C
:100D100094804C4E00230093F27804210123FFF7C6
:100D200023FC494C002800F086804849484808F0D8
:100D30009DF8474807F03AFF464B1A780AB15B78AE
:100D40005BB94549424808F091F8002300934348B5
:100D500040490122424B00F0C3FE424B727A1B789D
:100D6000384D9A4267D1404BAA7A1B789A4262D199
:100D700001233E493648237008F078F82B7BEF7A40
:100D800005AC3B4902A803EB072708F07CF902A950
:100D9000204608F099F93946204608F074FA0146D1
:100DA0002B4808F059F8204608F02BF902A808F063
:100DB00028F9042F07D826482E4908F057F80023B1
:100DC000EB7205232B732C48F17A327B01F0ECFE99
:100DD00020B92A491E4808F049F820E028491C4853
:100DE00008F044F8274902A808F04DF902A9204666
:100DF00008F06AF9204801F013FF0146204608F088
:100E000042FA0146124808F027F8204608F0F9F89F
:100E100002A808F0F6F84FF47A7008F075FB00238A
:100E2000F218527BE2540133072BF9D116482146C0
:100E300002F0B8FD01E00023237009B0F0BD00BF4F
:100E40000E000020381800200C00002067CF00089A
:100E50008C1E00207E1E002093CF0008B81D0020AD
:100E6000ACCF00085A1A00205B1A0020B6CF000849
:100E700014D0000827D00008C51D00207BD0000832
:100E8000BFD00008E1D00008E81D00202DE9F04F98
:100E9000744B89B01B78002B00F0E180724E002467
:100EA000F278009404210123FFF75EFB002800F094
:100EB000C9806E496E4807F0D9FF6D4807F076FE8D
:100EC0006C4F6D4A012313703B7007F0BBF802F0C2
:100ED00053FF032006F002FD684A694B1470694A0B
:100EE0001C701470684A694B1470694A1C70147045
:100EF000684B694A1C701470684B694A1C70147006
:100F0000684B694A1C701460684B694A1C60147015
:100F10002546BB469A46674A0023A350664A674F58
:100F2000A350674ADFF8D481A350664ADFF8D09116
:100F3000A350654AE351A350644AE8B2A350644AFF
:100F40000121AB54634A44F80830AB54624A44F878
:100F50000930AB54614A0434AB54013505F0B8FB99
:100F60000C2DD8D101235E4896F8481096F84920F8
:100F70008BF8003001F09EFE10B13D48594901E068
:100F80003B48594907F072FF554801F0CFFE5749D9
:100F9000CAF8000002A808F076F802A905A808F02F
:100FA00093F8DAF8001005A808F06DF9014630480A
:100FB00007F052FF05A808F024F802A808F021F86D
:100FC00007F040F80022284B1046114606EBD004EB
:100FD00094F84A400C41E40714D59D7ADC7A04EB7E
:100FE0000524BC5093F82A5093F82B4004EB0524B9
:100FF00048F8024093F84C5093F84D4004EB052418
:1010000049F802400131C9B2082900F1010008BFC6
:1010100000210C2803F1020302F10402D6D1144886
:1010200007F0C4FDFF21002008F063FAFF21002033
:1010300008F05FFA2E4802210B4A06F03DF902F053
:101040007DFE03E00A482B4907F010FF2A4B0648B3
:101050001A78002109B0BDE8F04F09F0BBB909B01A
:10106000BDE8F08F0E00002038180020EED00008F8
:101070008C1E00200C000020B5170020021E00204E
:101080002E1E0020FE1D0020FD1D0020E91D002059
:101090002F1E00203E1E0020B4170020031E00203B
:1010A000B6170020741D00200C1E0020E01A00203E
:1010B000081E0020781D0020F8170020741700205B
:1010C000241D00205C1A0020A01A002034170020E4
:1010D000641D0020381A0020491A00200F0000204B
:1010E000C51D00201BD100085FD10008ACE200083C
:1010F000831E0020A6D10008481A0020E41A002010
:10110000B81700202DE9F041754B98B01B78002BE3
:1011100000F0E380734D0024EA7800940421012359
:10112000FFF722FA002800F0C3806F496F4807F0EC
:101130009DFE6E4807F03AFD6D4B01266D4895F80F
:10114000221095F823201E7001F08AFC20B96A490C
:10115000664807F08BFE00E0264600246749634896
:101160000FAF07F083FE2223384621461022049455
:1011700005948DF8103009F02DF933238DF83C30AB
:101180002346EA18927A04A95A540133082BF8D15D
:101190000023EA18927CFA540133102BF9D15548F8
:1011A00001F0BCFB002800F08C805248394601F069
:1011B00013FC002800F0858051494C4807F056FE8A
:1011C0004C4801F07AFB4F4805F0B0FBEC784748FB
:1011D000203CE4B24C4907F049FE0A2C13D8002306
:1011E000A34206AF05D2EA1892F82420FA5401333C
:1011F000F6E745493D4807F039FE4448394603685B
:1012000022469B68984706F01DFF4FF47A7008F05D
:101210007BF900243D4807F0E5FC00280DF14C085F
:101220000DDD3A4807F08AFC08F8040001340B2C65
:10123000F0D12E48364907F019FE012421E004B30D
:10124000344909A807F01FFF09A90CA807F03CFFC3
:1012500021460CA808F017F80146244807F0FCFDC9
:101260000CA807F0CEFE09A807F0CBFE002718F85F
:1012700007101E481022013707F08EFEA742F6D154
:101280000CE01A48244907F0F1FD34B1174823490E
:1012900007F0ECFD0024042600E003266A7A2B7A8E
:1012A0008DE8040102941E483146012205F090FFAA
:1012B0001C4B0C481A78002118B0BDE8F04109F029
:1012C00089B81949094807F0D1FD0A4801F012FB15
:1012D0000C4805F02BFB022678E718B0BDE8F0813A
:1012E0000E00002038180020C4D100088C1E0020F9
:1012F0000C000020C51D0020EED1000829D20008F6
:10130000FCD200087C1E00207ADF0008BC1E0020F2
:1013100061D2000876D2000889D20008C1D2000844
:10132000831E0020481A002039D3000810B5044657
:10133000FFF77AF8092839D8DFE800F024292E05CC
:101340000A0F1419331E2046BDE81040FFF75EB99E
:101350002046BDE81040FFF7AFB92046BDE8104079
:10136000FFF7F8B92046BDE81040FFF759BA20460C
:10137000BDE81040FFF7CABA0D480E49BDE810405D
:1013800007F074BD2046BDE81040FFF77DBB204646
:10139000BDE81040FFF7B6BC2046BDE81040FFF79F
:1013A000B1BE2046BDE81040FFF770BD10BD00BFC4
:1013B0008C1E002076D300082DE9F043564B8BB0ED
:1013C0001B688046554D06F03DFE00214FF400722B
:1013D000534808F0FFFF002452482C7007F002FC2D
:1013E0000A284F4E2F467ED94E483146802207F0BC
:1013F000F7FD2870C3B29C426BD2335D484DFE2B83
:1014000065D12B1993F80390474901A807F03BFEDB
:1014100001A907A807F058FE1022494604A807F0C2
:1014200091FE04A907A807F0FBFE01463F4807F01C
:1014300013FD04A807F0E5FD07A807F0E2FD01A8E9
:1014400007F0DFFD3B780B3B1B1B99453AD809EBB6
:1014500004032B445A790D2A31D19A790A2A2ED1C4
:10146000DA790D2A2BD11A7A0A2A28D15A7A0D2A2A
:1014700025D19B7A0A2B22D12C482D4907F0DBFC81
:10148000E4B2002509F10B0362199D42D2B210D2D9
:10149000B15C284B1022E954244807F074FD23481E
:1014A000254907F0C8FC254B01351A7801321A701E
:1014B000E8E71E48224907F0D9FC01240AE01B484E
:1014C000204901E01948204907F0D0FC01E001342F
:1014D00090E70024124800214FF4007208F07AFFD0
:1014E00000233B7006E0304621464FF4007208F0BE
:1014F00071FF2C7006F0A6FD1CB14046FFF716FFE9
:1015000007E00C4821464FF4007208F063FF0B4BD4
:101510001C700BB0BDE8F083DC1F00209C1A00207B
:10152000241B0020A41E002094D300088C1E002041
:10153000A4D30008381800205DE20008481A0020F3
:101540004CD70008B2D30008DDD3000808B51D2031
:10155000002107F047FF1D20012107F0A9FF1020FF
:10156000002107F03FFF1120002107F03BFF1C2066
:10157000002107F037FF1120002107F099FF1C2000
:10158000012107F095FFBDE808401020002107F079
:101590008FBF0000014807F083BB00BFA41E0020DE
:1015A00008B561B100211C2007F082FF962007F0EA
:1015B000ABFFBDE808401C20012107F079BF08BD42
:1015C00008B500211D2007F073FF0C4807F06BFBE6
:1015D0000220002107F006FF0320002107F002FF90
:1015E0000220002107F064FF0320002107F060FFC4
:1015F000BDE808401C20002107F05ABFA41E0020AF
:1016000010B50B78452B12D14B78522B0FD18B781C
:10161000CC78303B03EB8303303C04EB4304E4B26F
:1016200021460A22034807F0B7FC204610BD0A20D5
:1016300010BD00BF8C1E00200B784F2B07D14878BF
:101640004B2804D113704B78012053707047002051
:10165000704700002DE9F04190B00E4601A85849AE
:101660001C46904607F00FFD554904A807F00BFDF6
:10167000534907A807F007FD20460021042208F07F
:10168000A9FEE023A370E37035460027AB1B43455A
:101690003AD229780A220DA807F031FD0DA901A838
:1016A00007F079FD0DA807F0ACFC15F8013B2C2BD9
:1016B00028D0303BDBB2092B98BF05F8013C15F868
:1016C000011C57B92D2902D13E483F4909E00DA818
:1016D0000A2207F014FD04A80DE02D2906D139488F
:1016E0003A4907F0C3FBF023E370CFE70DA80A22C5
:1016F00007F005FD07A80DA907F04DFD0DA807F09F
:1017000080FCC3E70127C1E70AA8314907F0BBFC09
:101710000AA90DA807F0D8FC01A90DA807F080FDC3
:101720000146284807F098FB0DA807F06AFC0AA8B4
:1017300007F067FC0AA8274907F0A5FC0AA90DA82D
:1017400007F0C2FC04A90DA807F06AFD224907F0C2
:1017500074FD01461B4807F07FFB0DA807F051FC04
:101760000AA807F04EFC0AA81C4907F08CFC0AA93D
:101770000DA807F0A9FC07A90DA807F051FD16490F
:1017800007F05BFD01460F4807F066FB0DA807F068
:1017900038FC0AA807F035FC04A807F016FE2070F4
:1017A00007A807F012FE607007A807F02AFC04A83B
:1017B00007F027FC01A807F024FC10B0BDE8F08179
:1017C0004CD700088C1E00200ED400081BD4000843
:1017D00029D4000834D400083FD4000845D40008B8
:1017E000F8B54C78432C08D18C78532C05D1CC78A3
:1017F000B4F151056C426C4100E000240026F5B2C2
:101800004F5D01363A2FFAD10135EDB200279542EE
:10181000FEB207F1010706D811F805C0013501F83D
:1018200006C0EDB2F3E73CB92046C2B2B2420BD2D9
:101830000A5C1A540130F8E7069A02241268147000
:10184000721ED2B2FFF706FF0120F8BD37B515486A
:1018500009B9154900E0154907F0EDFA642007F0D1
:1018600053FE00240F4807F0BDF90028E5B208DD5B
:10187000062C14D00B4807F061F90DF80400013470
:10188000F0E755B19DF802304F2B08D19DF80300C9
:10189000B0F14B035842584102E0284600E00020D6
:1018A00003B030BDA41E002051D4000855D4000858
:1018B00010B5012104461D2007F0FAFD07484FF43A
:1018C000165107F0EDF920460121FFF769FE204689
:1018D0000121BDE81040FFF7B9BF00BFA41E0020E2
:1018E0002DE9F0419EB005AD0C460746002190461B
:1018F00028466422039308F06DFD21462C4807F02A
:101900009AFA642007F000FE0024294807F06AF9DB
:101910000028E6B207DD642C45D0254807F00EF913
:1019200028550134F1E726B92249234807F09EFAE9
:1019300039E09DF814300D2B35D19DF815300A2B68
:1019400031D11EAB334413F8653C0A2B2BD1023E38
:101950001EAB334413F8643C0D2B24D10021CCB2D0
:10196000A31CDBB2B34201F1010107DA1EAA134442
:1019700013F8643C144404F8643CF0E73846294604
:10198000FFF73EFE0A280CD103AB009338462946E8
:1019900022464346FFF724FF00280CBF0320022005
:1019A00002E0012000E003201EB0BDE8F08100BF8E
:1019B000A41E00205BD400088C1E00202DE9F041FD
:1019C000B2B006460D4690460021642268461F4686
:1019D00008F000FD19A80021642208F0FBFC002497
:1019E000E3B2E85C013420B132AA134403F8640C7A
:1019F000F6E70146CAB25D1818F80240EDB232AA05
:101A000001312A4414B102F8644CF3E70D2302F8C3
:101A1000643C6B1C32A8DBB203442F480A2203F853
:101A2000642C036819A95B6898472C48AA1C0368B2
:101A300019A99B68D2B29847642007F065FD274832
:101A400007F0D0F80028E5B208DD642C3FD0234829
:101A500007F074F80DF804000134F0E7002D36D0DB
:101A60009DF800300D2B32D19DF801300A2B2ED17C
:101A700032AB2B4413F8C93C0A2B28D1023D32ABC0
:101A80002B4413F8C83C0D2B21D100218B1CDBB259
:101A9000AB4201F1010209DA32A8034413F8C83C51
:101AA000C9B2014401F8C83C1146EFE73046694627
:101AB000FFF7A6FD0A2808D1304669463A46FFF7E7
:101AC000BBFD80F00100C0B202E0012000E0032075
:101AD00032B0BDE8F08100BF8C1E0020A41E0020A3
:101AE000F7B51E46044617460D4600218DF807102F
:101AF000FFF7ACFE06F0A6FA204631462FB12A4683
:101B00000DF10703FFF7ECFE03E0089A2B46FFF701
:101B100055FF03282AD8DFE800F01104020700234C
:101B200011E01648164901E01448164907F09EF9DD
:101B300020460121FFF78AFE00201CE012490F48D1
:101B400007F094F912E09DF807205E1CDBB29A4280
:101B50000A4809D9E95C102207F015FA07480B4931
:101B600007F069F93346EEE707F06AF920460121EC
:101B7000FFF76CFE012003B0F0BD00BF8C1E0020FB
:101B80006FD4000880D4000889D400085DE2000802
:101B90002DE9F0438BB004AF80460021092238467E
:101BA00002AE002408F016FC0094404631460122A3
:101BB000454BFFF795FF054620B94449444807F0D7
:101BC00055F97DE02346F25C07AC092A01D8303292
:101BD00004E0A2F10A01052998BF3732E25401332B
:101BE000082BF0D14FF000093A488DF8249000F00E
:101BF00031FE024600284AD03749354807F036F909
:101C00003448394600F094FD00283BD04B46E15C57
:101C1000FA5C914248D10133082BF8D12F492C4866
:101C200007F024F92E492A4807F005F99DF8161007
:101C3000274807F0FBF89DF81710254807F0F6F83D
:101C40009DF81410224807F0F1F89DF8151020486F
:101C500007F0ECF89DF812101D4807F0E7F89DF822
:101C600013101B4807F0E2F89DF81010184807F011
:101C7000DDF89DF81110164807F0D8F8144807F061
:101C8000DFF81DE01749124807F0F0F807E000946C
:101C900040463146144BFFF723FF054680B12146ED
:101CA0000C4800F095FD0AE01049094807F0DEF8FD
:101CB00000974046314600220B4BFFF711FF0546C7
:101CC00028460BB0BDE8F0839FD40008AAD40008D2
:101CD0008C1E0020B91D0020CAD4000852D500086F
:101CE0007CD50008E8D400080CD5000815D50008FC
:101CF0002DE9F04F89B002AF07F10C068346894603
:101D000090461C46304600210A2208F063FB002C56
:101D100050D1C7F804D05846CDF800803146012292
:101D20004B46FFF7DDFE824608B1214606E04049FA
:101D3000404807F09BF83F483F496FE0CCB218F8A5
:101D400004300131002BF9D1E11D01F4FC71ADEB40
:101D5000010D02A9D8B2A04203D2F05CC8540133ED
:101D6000F8E70B46581AC0B2A0420DD213F8010B87
:101D7000092801D8303004E0A0F10A05052DF1D87A
:101D8000373003F8010CEDE70025EBB2A34243D254
:101D90004B5D013508EB050010F8010C9842F4D0BA
:101DA0002649244807F062F82248254907F05EF8E2
:101DB0007B689D466C460023DAB219F802100133A5
:101DC0000A29F9D1931D03F4FC73ADEB030DA2F1C5
:101DD000020E02AB0020C1B2551EA94200F1010063
:101DE00003DA19F801505D54F5E700223D215A55F8
:101DF000584603F80E10CDF800803146FFF770FE0C
:101E0000054628B90B480F4907F030F8AA4601E00B
:101E10004FF0010AA54605E006480B4907F026F8F1
:101E20007B689D4650461C37BD46BDE8F08F00BF1D
:101E30008AD500088C1E0020B0D50008D4D5000833
:101E40002BD600086DD60008A2D600087FB50F2259
:101E500004460D466846002108F0BCFA6848694906
:101E600007F004F80A2606F0EDF8002D78D1204698
:101E7000FFF78EFE64498DF80000644A2B46204629
:101E8000FFF736FF62498DF80100624A2B46204673
:101E9000FFF72EFF60498DF80200604A2B4620466E
:101EA000FFF726FF5E498DF803005E4A2B46204669
:101EB000FFF71EFF5C498DF804005C4A2B46204664
:101EC000FFF716FF8DF80500594800F013FCF128C4
:101ED0005849204608D1584A2B46FFF709FF574971
:101EE0008DF80600464807E04A4A2B46FFF700FFF8
:101EF00053498DF80600424806F0B8FF5149524A4E
:101F000000232046FFF7F4FE50498DF807004E4AA3
:101F100000232046FFF7ECFE4D498DF80800464AA5
:101F200000232046FFF7E4FE4A498DF809004A4A9B
:101F300000232046FFF7DCFE48498DF80A00484A96
:101F400000232046FFF7D4FE324A8DF80B004549A6
:101F500020460023FFF7CCFE0D228DF80C000EE08A
:101F6000334800F0C7FBF1280CBF334A294A20460A
:101F700030490023FFF7BCFE01228DF8000000234A
:101F80001DF80310A9B938491D4806F06FFF204617
:101F9000FFF78EFC2046FFF713FB06F053F82046B0
:101FA000FFF786FC4FF4FA6007F0AEFA06F04AF845
:101FB00005E00133D9B29142E2D304B070BD2B48A1
:101FC00006F010FE002803DD284806F0B7FDF6E70E
:101FD000013E16F0FF067FF446AF2549084806F09B
:101FE00045FF2449064806F041FF40F6B83007F0A7
:101FF0008BFA06F027F804B0BDE8704006F056B83A
:102000008C1E0020CAD60008F9D6000805D70008A3
:102010000ED700080BD7000818D7000824D70008EF
:102020002DD7000839D7000842D700084DD700083F
:10203000B91D002050D700085AD700085DD7000806
:102040006AD7000877D7000881D7000884D700082E
:102050008ED7000898D70008A1D70008A4D7000899
:10206000AED70008B1D70008BBD70008A41E0020D7
:10207000D8D7000804D800081520012107F018BAA5
:102080001520002107F014BA10B5002104461520D0
:1020900007F0A8F91520012107F00AFA2046BDE84B
:1020A0001040FEF769B97FB505460E46FFF7E8FF19
:1020B0000D2433192146284613F80D2C0134FEF760
:1020C0008BF9162CF5D13046092104F075FB064634
:1020D000214628463246FEF77FF90D242146284640
:1020E000FEF74CF901AB23440134162C03F80D0C18
:1020F000F4D101A8092104F05FFBB04203D0FFF73F
:10210000BBFF00200DE028460B21FEF737F95528CC
:1021100004D028460B215522FEF75EF9FFF7ACFFED
:10212000012004B070BD7FB505460E46FFF7A8FF3D
:10213000172433192146284613F8172C0134FEF7CB
:102140004BF9202CF5D13046092104F035FB064629
:10215000214628463246FEF73FF9172421462846F5
:10216000FEF70CF901AB23440134202C03F8170CC3
:10217000F4D101A8092104F01FFBB04203D0FFF7FE
:102180007BFF00200DE028460C21FEF7F7F85528CC
:1021900004D028460C215522FEF71EF9FFF76CFFEC
:1021A000012004B070BDF0B585B001AD06460F4604
:1021B00028460021092208F00DF90D242146304659
:1021C000FEF7DCF82B190134162C03F80D0CF5D1B1
:1021D00021463046FEF7D2F809210446284604F08D
:1021E000EBFA844206D10023EA5CFA540133092B4E
:1021F000FAD101E0002000E0012005B0F0BDF0B50B
:1022000085B001AD06460F4628460021092208F098
:10221000E1F8172421463046FEF7B0F82B190134B7
:10222000202C03F8170CF5D121463046FEF7A6F80E
:1022300009210446284604F0BFFA844206D100234F
:10224000EA5CFA540133092BFAD101E0002000E0E6
:10225000012005B0F0BD37B50C461E210546FEF73E
:102260008DF81F218DF804002846FEF787F802211B
:102270008DF8050001A804F09FFA207003B030BD6E
:1022800010B50B210446FEF779F888B1FFF7F8FE88
:10229000204600220B21FEF79FF8FFF7EDFE2046B7
:1022A0000B21FEF76BF8D0F1010038BF002010BD04
:1022B000012010BD10B50C210446FEF75FF888B16F
:1022C000FFF7DEFE204600220C21FEF785F8FFF71F
:1022D000D3FE20460C21FEF751F8D0F1010038BFA3
:1022E000002010BD012010BD10B521210446FEF7CD
:1022F00045F8552811D0FFF7C3FE2046552221216D
:10230000FEF76AF8FFF7B8FE20462121FEF736F8FF
:10231000B0F155035842584110BD012010BD08B519
:102320002121FEF72BF8B0F155035842584108BD62
:1023300070B504460D46FFF736FF20B1204629460A
:10234000FFF75DFF48BB20462946FFF72CFF48B149
:102350001549164806F08AFD20462946BDE870401A
:10236000FFF7E1BE20462946FFF749FF06460F4822
:1023700046B10F4906F07AFD20462946BDE8704077
:10238000FFF791BE0B4906F071FD2046FFF778FF7D
:102390002046FFF78FFF304670BD0749034806F01F
:1023A00065FD012070BD00BF2DD800088C1E0020E7
:1023B00064D800089BD80008AFD80008F8B50446D8
:1023C0000E462F2573192046294613F82F7CFDF75A
:1023D000D5FF874203D10135342DF3D136E0FFF725
:1023E0004FFE2F2573192946204613F82F2C01354F
:1023F000FDF7F2FF342DF5D10521304604F0DCF96C
:102400000746294620463A46FDF7E6FF2F25204697
:102410002946FDF7B3FF731913F82F3C834217D1F8
:102420000135342DF3D120462946FDF7A7FFB842E8
:102430000ED120463521FDF7A1FF552804D02046B6
:1024400035215522FDF7C8FFFFF716FE0120F8BD24
:10245000FFF712FE0020F8BDF7B505460E462F2403
:1024600021462846FDF78AFF00AB23440134342C73
:1024700003F82F0CF4D10521684604F09DF921469C
:1024800007462846FDF77AFF874207D100231DF84B
:102490000320F2540133052BF9D101E0002000E0C4
:1024A000012003B0F0BD73B505462F242146284610
:1024B000FDF764FF00AB23440134342C03F82F0CE8
:1024C000F4D16846052104F077F9214606462846EE
:1024D000FDF754FF331A5842584102B070BD38B569
:1024E0000546FFF7CDFD2F2428462146FDF746FF80
:1024F00068B1284621460022FDF76EFF2846214696
:10250000FDF73CFF18B1FFF7B7FD002038BD0134DF
:10251000342CE9D128463521FDF730FF20B128467B
:1025200035210022FDF758FFFFF7A6FD012038BD39
:1025300037B50D468DF8071036210446FDF71EFF0E
:1025400085422BD002ADFFF79BFD15F8012D2046EB
:102550003621FDF741FF0121284604F02DF93721EE
:1025600002462046FDF738FF20463621FDF706FFDC
:102570009DF8073083420DD120463821FDF7FEFE3D
:10258000552804D0204638215522FDF725FFFFF7B6
:1025900073FD03E0FFF770FD002000E0012003B0B1
:1025A00030BD3621FDF7EABE37B536210546FDF7C9
:1025B000E5FE02AB03F8010D1846012104F0FCF81A
:1025C000372104462846FDF7D9FE231A58425841C0
:1025D00003B030BD10B536210446FDF7CFFE88B1FB
:1025E000FFF74EFD204636210022FDF7F5FE20467E
:1025F0003621FDF7C3FE18B1FFF73EFD002010BDE8
:10260000FFF73AFD012010BD10B548210446FDF743
:10261000B5FE552811D0FFF733FD2046552248213D
:10262000FDF7DAFEFFF728FD20464821FDF7A6FE5C
:10263000B0F155035842584110BD012010BD10B5EE
:102640004D210446FDF79AFE552810D0FFF718FDDE
:10265000204655224D21FDF7BFFEFFF70DFD204618
:102660000021FDF78BFE003018BF012010BD0120B6
:1026700010BD000037B58DF807101031C9B201291F
:10268000044629D84C21FDF779FE9DF80730834296
:1026900028D002ADFFF7F4FC15F8012D20464C219F
:1026A000FDF79AFE0121284604F086F84E210246E5
:1026B0002046FDF791FE20464C21FDF75FFE9DF878
:1026C0000730834205D12046FFF7B9FFFFF7D4FC5E
:1026D00008E0FFF7D1FC03E00448054906F0C6FB1B
:1026E000002000E0012003B030BD00BF8C1E0020A0
:1026F000DFD8000837B54C210446FDF73FFE02AB9A
:1027000003F8010D1846012104F056F84E21054644
:102710002046FDF733FE854202D19DF8070004E014
:102720002046F021FFF7A6FFF02003B030BD0000E7
:10273000F7B505460E464F2421462846FDF71EFEF6
:1027400000AB23440134572C03F84F0CF4D108217B
:10275000684604F031F8214607462846FDF70EFE8C
:1027600087420CD100231DF80320F2540133082BBB
:10277000F9D10448044906F079FB012000E000206B
:1027800003B0F0BD8C1E002015D9000810B55821EB
:102790000446FDF7F3FD552808D0FFF771FC2046ED
:1027A00058215522FDF718FEFFF766FC10BD10B545
:1027B00058210446FDF7E2FD40B1FFF761FC2046D9
:1027C00058210022FDF708FEFFF756FC10BD00005F
:1027D000F7B50F460546FFF753FC3846082103F0CE
:1027E000EBFF4F2406463B192146284613F84F2C91
:1027F0000134FDF7F1FD572CF5D12146284632462C
:10280000FDF7EAFD4F2421462846FDF7B7FD00AB52
:1028100023440134572C03F84F0CF4D168460821A7
:1028200003F0CAFF864206D02846FFF7C0FFFFF735
:1028300023FC002007E00549054806F017FB284661
:10284000FFF7A4FF012003B0F0BD00BF2AD90008A4
:102850008C1E002008B55821FDF790FDB0F15503FE
:102860005842584108BD70B504460E461546FFF75C
:1028700007FC204632462221FDF7AEFD20462321EB
:102880002A46FDF7A9FDFFF7F7FB70BDFDF776BD02
:10289000FDF774BD70B504460E461546FFF7F0FB14
:1028A000204632462421FDF797FD204625212A4661
:1028B000FDF792FDFFF7E0FB70BD10B50446FFF792
:1028C000DFFB204655225921FDF786FDFFF7D4FB9B
:1028D00020465921FDF752FDB0F1550358425841A9
:1028E00010BD08B55921FDF749FDB0F15503584217
:1028F000584108BD10B50446FFF7C2FB2046002230
:102900005921FDF769FDFFF7B7FB20465921FDF777
:1029100035FDD0F1010038BF002010BD73B5002394
:1029200005460E4600930193FFF7AAFB5A2433197C
:102930002146284613F85A2C0134FDF74DFD622C30
:10294000F5D13046082103F037FF064621462846D8
:102950003246FDF741FD5A2421462846FDF70EFD7B
:1029600000AB23440134622C03F85A0CF4D1082143
:10297000684603F021FF0446FFF77EFBB442064899
:1029800004D1064906F072FA012003E0044906F07A
:102990006DFA002002B070BD8C1E00203FD90008E7
:1029A0006DD9000838B509490546094806F05EFAB0
:1029B0005A2421462846FDF7E1FC064B1A1901343A
:1029C000622C02F85A0CF4D1184638BD9ED9000882
:1029D0008C1E0020BC1D002073B5002305460E464A
:1029E00000930193FFF74CFB6324331921462846DB
:1029F00013F8632C0134FDF7EFFC6B2CF5D1304656
:102A0000082103F0D9FE0646732128463246FDF719
:102A1000E3FC632421462846FDF7B0FC00AB2344C9
:102A200001346B2C03F8630CF4D10821684603F0E1
:102A3000C3FE0446FFF720FBB442064804D1064912
:102A400006F014FA012003E0044906F00FFA002012
:102A500002B070BD8C1E0020D6D9000804DA000830
:102A600070B50E46742104461546FDF787FCB0424A
:102A700005D120467521FDF781FCA84219D0FFF74A
:102A8000FFFA204674213246FDF7A6FC2046752148
:102A90002A46FDF7A1FCFFF7EFFA20467421FDF767
:102AA0006DFCB0420BD120467521FDF767FCA842B2
:102AB00005D10649064806F0D9F9012070BD05493F
:102AC000034806F0D3F9002070BD00BF7CDA00088F
:102AD0008C1E00209EDA000810B50446FFF7D0FADD
:102AE000204674210022FDF777FC20467521002244
:102AF000FDF772FCFFF7C0FA20467421FDF73EFC9B
:102B000020B920467521FDF739FC28B10549064852
:102B100006F0ACF9002010BD0449034806F0A6F900
:102B2000012010BDC0DA00088C1E0020E3DA000886
:102B300070B50E46762104461546FDF71FFCB042DF
:102B400005D120467721FDF719FCA84219D0FFF7DF
:102B500097FA204676213246FDF73EFC2046772143
:102B60002A46FDF739FCFFF787FA20467621FDF764
:102B700005FCB0420BD120467721FDF7FFFBA842B0
:102B800005D10649064806F071F9012070BD0549D6
:102B9000034806F06BF9002070BD00BF06DB00089B
:102BA0008C1E00202EDB000870B50E467A210446EC
:102BB0001546FDF7E3FBB04205D120467B21FDF72A
:102BC000DDFBA84219D0FFF75BFA20467A21324696
:102BD000FDF702FC20467B212A46FDF7FDFBFFF7AF
:102BE0004BFA20467A21FDF7C9FBB0420BD12046B3
:102BF0007B21FDF7C3FBA84205D10649064806F034
:102C000035F9012070BD0549034806F02FF9002071
:102C100070BD00BFB0DB00088C1E0020E2DB0008A6
:102C200038B57A210546FDF7A9FB7B2104462846E5
:102C3000FDF7A4FB00EB042038BD000070B50E4684
:102C4000782104461546FDF799FBB04205D1204690
:102C50007921FDF793FBA84219D0FFF711FA20461E
:102C600078213246FDF7B8FB204679212A46FDF748
:102C7000B3FBFFF701FA20467821FDF77FFBB04256
:102C80000BD120467921FDF779FBA84205D10649F1
:102C9000064806F0EBF8012070BD0549034806F030
:102CA000E5F8002070BD00BF77DC00088C1E002016
:102CB000A3DC000870B50E467C2104461546FDF7DE
:102CC0005DFBB04205D120467D21FDF757FBA842B0
:102CD00019D0FFF7D5F920467C213246FDF77CFB61
:102CE00020467D212A46FDF777FBFFF7C5F92046F0
:102CF0007C21FDF743FBB0420BD120467D21FDF73F
:102D00003DFBA84205D10649064806F0AFF8012070
:102D100070BD0549034806F0A9F8002070BD00BF4A
:102D200029DD00088C1E002059DD000838B57C2103
:102D30000546FDF723FB7D2104462846FDF71EFBD3
:102D400000EB042038BD00007FB53249054632480B
:102D500006F08CF8304805F029FF05F073F941F2D0
:102D6000883006F0D1FB05F06DF92B4805F03AFFED
:102D700000280ADD284805F0E1FEC1B2274806F028
:102D80000FFA022006F0C0FBEFE7244CA668002EE5
:102D900034D0204606F00DFB21461F4806F05CF8B3
:102DA0001F4901A806F06FF901A9204606F08BFA29
:102DB000064601A806F025F91748EEB1194906F0B4
:102DC00055F81949204606F089F928462121FDF7D2
:102DD000D5FA40B1FFF754F9284621210022FDF72A
:102DE000FBFAFFF749F928462121FDF7C7FAD0F190
:102DF000010038BF00200AE00C4901E006480C49F8
:102E000006F034F82046084906F068F9304604B068
:102E100070BD00BFEBDD00088C1E0020301E0020BE
:102E20003CDE000840DE00084CD7000876DE0008D3
:102E3000A1DE00080022026042607047006820B1F5
:102E400003688B4201D08068F9E7704770B504468B
:102E50000C2016460D4606F0ABFF00228260226869
:102E600080E860000AB9206001E0626890606060FC
:102E700070BD10B51446FFF7E1FF08B144600120B2
:102E800010BD08B5FFF7DAFF00B1406808BD01F5D5
:102E90001C414131FFF7DABF01F51C414131FFF719
:102EA000E8BF01F51C414131FFF7EBBF002A01F1FA
:102EB000010114BF4FF47F420022FFF7C7BF002A71
:102EC00001F51C5101F1110114BF4FF47F420022A2
:102ED000FFF7BCBF01F5EA413131FFF7B7BF002A68
:102EE00001F1010114BF4FF47F420022FFF7C1BF7F
:102EF000002A01F51C5101F1110114BF4FF47F426A
:102F00000022FFF7B6BF01F5EA413131FFF7B1BF4B
:102F100008B50131FFF7B5FFB0F57F43584258417E
:102F200008BD01F51C5108B51131FFF7AAFFB0F536
:102F30007F435842584108BD01F5EA413131FFF75E
:102F4000A0BF000070B504460D4609480949164661
:102F500005F08CFFA06806F033FF0220207306F016
:102F600027FF803D0323A06005704670637370BD2A
:102F70008C1E0020C4DE0008F8B5531E7C2B0446CE
:102F80000F46164602D903210A4617E001F51C41F7
:102F90004131FFF753FF18B92046032102220DE00B
:102FA000A06806F00DFF701C4000C0B2207306F050
:102FB000FFFEA06030B9204603210422BDE8F8409E
:102FC000FFF7C0BF03230370237B0025023B437040
:102FD000E9192046FFF765FFA3680135020A03F8E7
:102FE0001520A368B54203EB45035870F0D10323C5
:102FF0006373F8BD70B504460E461546FFF74CFFE7
:1030000018B920460621022208E020463146FFF783
:1030100048FFA84206D0204606210422BDE87040A1
:10302000FFF790BF0223637370BD2DE9F8431F467D
:1030300016467A1E7A2A044688469DF8203002D821
:10304000B3EB470F03D02046102103221CE006F506
:103050001C45413505EB070920462946FFF7EEFEE2
:1030600018B92046102102220EE001354D45F3D15A
:10307000A06806F0A5FE0520207306F099FEA0606A
:1030800030B9204610210422BDE8F843FFF75ABFAB
:1030900010230370330A4370002307718670C370D6
:1030A00008F106053744BE4205F102050BD015F8BC
:1030B000022C15F8013C3146204643EA0222FFF774
:1030C000EBFE0136EFE703236373BDE8F8832DE9D8
:1030D000F843531EB3F5FA6F04460F46154602D364
:1030E0000121032219E00131FFF7A8FE18B920469B
:1030F0000121022211E0A06806F062FEC5F3C703B9
:103100006A070CBF023303332373207B06F050FEA3
:10311000A06030B9204601210422BDE8F843FFF742
:1031200011BF01230370237B05EB0708023B4370AB
:103130003E46002546451CD031462046FFF7E8FEB6
:10314000C7F10109B1444FEAD909012109F102038C
:10315000A268A94010B1D05C014302E0D05C20EA33
:1031600001010135EDB2082DD15408BF002501360B
:10317000E0E703236373BDE8F88300002DE9F8431B
:10318000531EB3F5FA6F04460F46154602D30221CB
:1031900003221FE001F51C511131FFF74FFE18B952
:1031A00020460121022215E02249234805F05EFE57
:1031B000A06806F005FEC5F3C7036A070CBF02331B
:1031C00003332373207B06F0F3FDA06030B9204663
:1031D00002210422BDE8F843FFF7B4BE02230370C6
:1031E000237B05EB0708023B43703E46002546451E
:1031F0001CD031462046FFF794FEC7F10109B144C7
:103200004FEAD909012109F10203A268A94010B1CE
:10321000D05C014302E0D05C20EA01010135EDB24F
:10322000082DD15408BF00250136E0E7032363735E
:10323000BDE8F883E7DE00088C1E0020F8B5531EB9
:103240007C2B04460F46164602D90421032217E0C0
:1032500001F5EA413131FFF7F1FD18B920460121AE
:1032600002220DE0A06806F0ABFD701C4000C0B269
:10327000207306F09DFDA06030B9042120460A4667
:10328000BDE8F840FFF75EBE04230370237B0025F2
:10329000023B4370E9192046FFF74EFEA368013553
:1032A000020A03F81520A368B54203EB45035870E2
:1032B000F0D103236373F8BD70B5B2F57F4F86B0CC
:1032C00004460E4603D012B10521032215E0151C59
:1032D00018BF0125204631462A46FFF700FE18B9DF
:1032E00020460521022208E020463146FFF710FE65
:1032F000A84205D0204605210422FFF723FE17E04F
:103300000C49684605F0BFFE694603A805F0DCFEDF
:10331000094903A805F091FF0146084805F09CFD06
:1033200003A805F06EFE684605F06BFE022363738A
:1033300006B070BD11DF000829DF00088C1E0020D8
:103340002DE9F0438BB00446894604A86C49DF0898
:103350001D46164605F097FE04A907A805F0B4FE21
:10336000394607A805F08FFF0146664805F074FD51
:1033700007A805F046FE04A805F043FE6B0705F11B
:10338000FF3318BF0137B3F5F66F03D29DF848300D
:10339000BB4207D05C495B4805F068FD20460F2121
:1033A00003224DE0771C07EB050820463946FFF75E
:1033B00045FD18B920460F21022241E0013747455B
:1033C000F3D15048514905F051FD0627504901A855
:1033D00005F059FE01A904A805F076FE394604A8B7
:1033E00005F051FF4B4905F028FF102219F807108E
:1033F000804607A805F083FE07A9404605F010FFA8
:103400000146404805F028FD07A805F0FAFD04A88C
:1034100005F0F7FD013701A805F0F3FD102FD5D118
:103420003A49384805F022FDA06806F0C9FC05209D
:10343000207306F0BDFCA06028B920460F210422AD
:10344000FFF780FD58E00F230370330A43702B0A07
:103450008670C37005712D492A4805F007FD0627BF
:103460002B4901A805F00FFE01A904A805F02CFEC8
:10347000394604A805F007FF264905F0DEFE1022B4
:1034800019F80710804607A805F039FE07A940463D
:1034900005F0C6FE01461B4805F0DEFC07A805F056
:1034A000B0FD04A805F0ADFD013701A805F0A9FDA8
:1034B000102FD5D11348154905F0D8FC3544B04636
:1034C0000027C6EB080309EBD3039A7941463A413A
:1034D0000137FFB2204602F00102FFF700FD08F1BC
:1034E0000108082F08BF0027A845EAD105480A4966
:1034F00005F0BCFC032363730BB0BDE8F08300BF91
:103500003BDF00088C1E00204DDF000854EB000854
:1035100066DF00086DDF000871DF00082DE9F0416B
:103520008B784F788CB0CE7843EA07270B7991F8E7
:1035300000800C460546544903A843EA062605F0D8
:10354000A2FD03A909A805F0BFFD1022217806A855
:1035500005F0D5FD06A909A805F062FE01464B4815
:1035600005F07AFC06A805F04CFD09A805F049FD18
:1035700003A805F046FD464903A805F084FD03A90C
:1035800009A805F0A1FD1022394606A805F0DAFDCC
:1035900006A909A805F044FE01463C4805F05CFC7C
:1035A00006A805F02EFD09A805F02BFD03A805F0DF
:1035B00028FD384903A805F066FD03A909A805F010
:1035C00083FD1022314606A805F0BCFD06A909A816
:1035D00005F026FE01462D4805F03EFC06A805F044
:1035E00010FD09A805F00DFD03A805F00AFD08F17E
:1035F000FF330F2B3FD8DFE803F01D230E292F08E0
:103600003E3E3E3E3E3E3E3E35142846394632461C
:10361000FFF7F0FC34E0284639463246FFF7ACFCB1
:103620002EE063792846009321463A463346FFF759
:10363000FCFC25E0284639463246FFF748FD1FE0EE
:10364000284639463246FFF799FD19E028463946A3
:103650003246FFF7F3FD13E0284639463246FFF7BE
:103660002BFE0DE063792846009321463A46334607
:10367000FFF766FE04E0284641460122FFF762FCA0
:103680000CB0BDE8F08100BF80DF00088C1E002078
:103690008CDF000896DF000810B50446FFF7CAFB70
:1036A000204610BD80F828100120704770B5049E98
:1036B0000161C6610446154608461146DAB205F0B6
:1036C000B3FA4FF4FA6005F01FFF002E08DBF6B2E4
:1036D0003046002105F086FE3046002105F0E8FE68
:1036E000B5F5964F06DD40F2EE23236240F2D66335
:1036F000636207E0044B93FBF5F32362034B93FBF8
:10370000F5F56562012070BDC0E1E400C00E16024F
:1037100070B50446C06986B000280D4606DBC0B20D
:10372000012105F0C5FE012005F0EEFE0023227BFD
:103730005E1CDBB29A421FD9194A1068411C116005
:10374000E95C184A1154D15C6846102205F0D7FC98
:10375000694603A805F0B8FC134903A805F06DFD00
:103760000146124805F05AFB03A805F04AFC6846DA
:1037700005F047FC3346DAE70D490C4805F076FBC7
:10378000206903689B699847606A05F0CBFEE06991
:10379000002803DBC0B2002105F08AFE06B070BD30
:1037A000DC1D0020C61D00205DE200088C1E0020EC
:1037B000A0E00008F0B5C9430B4EC9B2705C0B4DD8
:1037C000C0436C5CC0B20021AC46CFB2BB4207D054
:1037D000555C01314540705D60401CF80540F4E7E0
:1037E00044EA0020F0BD00BFA0DF000850E100085F
:1037F0002DE9F0410D78037BFF2D01EB0302044618
:103800000E4612F8028C12F8017C03D090F82820A2
:10381000AA4219D1A268033B204612F8011BDBB271
:10382000FFF7C8FF47EA0827874202D00A480B493A
:103830000CE02046711CFFF771FEFF2D4FF00100D8
:1038400007D16073BDE8F0810348054905F00EFB20
:103850000020BDE8F08100BF8C1E0020C8E00008F9
:10386000F4E00008F8B50446C0690F46002806DBFE
:10387000C0B2012105F01CFE012005F045FE194DE6
:1038800019491A4805F0F2FA194E2B6894F82810D5
:103890005A1CF154237B2A600022D0B298420AD2EB
:1038A000286800F1010EC5F800E017F802E00132C7
:1038B00006F800E0F1E7A2682046FFF77BFF2B68DF
:1038C000020AF2541E449A1C7070606A2A6005F065
:1038D00029FEE069002803DBC0B2002105F0E8FD05
:1038E000F8BD00BFDC1D002024E100088C1E002074
:1038F000C61D0020D2B238B504460D460273002A18
:103900003ED02049204805F0B1FA207B06F050FA5D
:103910000023A060227B591CDBB29A4204D9E85CE8
:10392000A268D0540B46F5E71748184905F09EFAEF
:103930000025237B9D4207D2A3681348595D1022BE
:1039400005F02AFB0135F4E710490F4805F08EFA1F
:103950002046A168FFF74CFF68B1637B032B04D1BD
:103960002046A168FFF77EFF05E0022B03D1204629
:10397000A168FFF7CDFEA06806F022FA00232373AA
:1039800038BD00BF44E100088C1E002077DF00082E
:1039900008B5032003F0A2FF014B01221A7008BDF5
:1039A000E91D002070B55E480D46097803F008F95E
:1039B000697806465A4803F003F906EB8606594C27
:1039C00006EB860600EB8600E080A978544803F0F9
:1039D000F7F86071E978524803F0F2F8207129791C
:1039E0004F4803F0EDF86979A0704D4803F0E8F80E
:1039F000A97960704A4803F0E3F84B4920704B48BE
:103A000005F019FAE1880A22484805F0A4FA484965
:103A1000464805F010FA61790A22444805F0BCFADC
:103A20004449424805F007FA21790A223F4805F047
:103A3000B3FA41493D4805F0FEF9A1780A223B4816
:103A400005F0AAFA3D49394805F0F5F961780A22EE
:103A5000364805F0A1FA3A49344805F0ECF90A2253
:103A60002178324805F098FA04F06EFA642005F0E7
:103A70004BFD2046FCF722FC0146324803F04CFE89
:103A8000642005F041FD04F065FA2E4803F047FE7E
:103A900001462046FCF786FBE1886423B1FBF3F185
:103AA000C9B21F4803F083F82870E2884FF47A7394
:103AB000B2FBF3F103FB11211948C9B203F077F807
:103AC00068706179164803F072F8A870217914487B
:103AD00003F06DF8A178E870114803F068F8617898
:103AE00028710F4803F063F8217868710C4803F0DF
:103AF0005EF80024A871295D10220C4805F043FAF5
:103B000001340A48104905F096F9072CF3D107480B
:103B100005F096F9BDE8704004480C4905F0A6B9D7
:103B20007D1E0020E01D002050E200088C1E0020B9
:103B300057E200085FE2000865E200086CE2000856
:103B400076E20008EA1D00205DE2000880E200083D
:103B500070B51B4886B0FCF7B1FB1A4C054604F063
:103B6000F3F90A2005F0D0FC2946204603F0D4FDE5
:103B7000204603F0D4FD144D14492A68861868467F
:103B800005F081FA694603A805F09EFA296803A8A2
:103B900005F079FB01460E4805F05EF903A805F033
:103BA00030FA684605F02DFA0A493246204603F0FD
:103BB000B8FD0A2005F0A8FC04F0CCF906B070BDF1
:103BC000E01D0020EA1D0020E01A0020A3E200080A
:103BD0008C1E0020913900080148112103F093BD8B
:103BE000EA1D0020174B10B51A6886B001321A6022
:103BF000154A1168013111601A68B2F5615F04D38A
:103C000000221A60114B01221A70114C6846236879
:103C100010490133236005F036FA694603A805F020
:103C200053FA216803A805F02EFB01460A4805F067
:103C300013F903A805F0E5F9684605F0E2F906B0C6
:103C400010BD00BFF01D0020F41D00203D1E00200F
:103C5000EC1D002025E300088C1E002038B50E4C1A
:103C60000E48236801332360FEF7DAFF042812D9D7
:103C70000A48FEF7D5FFB0F5E16F00D938BD074817
:103C80002568FEF7CDFF854205D300232360044B52
:103C900001221A7038BD38BDF41D0020C51D00205A
:103CA000821E002010B5084C0849204605F041F856
:103CB00020460121064A05F05BF820460021BDE8B8
:103CC000104005F02DB800BF841F002040420F00B7
:103CD0005D3C000810B5084C0849204605F029F85D
:103CE00020460121064A05F043F820460021BDE8A0
:103CF000104005F015B800BF8C1F002040420F0097
:103D0000E53B000810B5054C204604F0FBFF2046BB
:103D10000021BDE8104005F003B800BF841F00205B
:103D200010B5054C204604F0EDFF20460021BDE80B
:103D3000104004F0F5BF00BF881F002010B5064CEE
:103D4000204604F0DFFF2046002104F0E9FF034B8A
:103D500000221A6010BD00BF8C1F0020EC1D002047
:103D6000014804F0C7BF00BF841F0020014804F0D1
:103D7000C1BF00BF881F002008B5034804F0BAFF88
:103D8000024B00221A6008BD8C1F0020EC1D002091
:103D900030B5354C8DB02378002B63D0334B34488D
:103DA0001D78002D5AD00025324905F05FF82570A6
:103DB000FFF7D6FF2846FF2105F09BFBFF21C4B289
:103DC000284605F096FB2C49C5B203A805F05BF91F
:103DD00003A909A805F078F91022214606A805F0E4
:103DE0008EF906A909A805F01BFA0146204805F03E
:103DF00033F806A805F005F909A805F002F903A8AB
:103E000005F0FFF803A81D4905F03DF903A909A82D
:103E100005F05AF91022294606A805F070F906A9FE
:103E200009A805F0FDF90146114805F015F806A8A6
:103E300005F0E7F809A805F0E4F803A805F0E1F8B3
:103E400001210A460E482346009503F019FBFFF7AF
:103E500059FF0C49064805F009F803E00A4905F046
:103E600005F825700DB030BD821E0020B51700206A
:103E70008C1E002037E30008FECE00080ACF0008A1
:103E8000831E00206EE30008AEE300082DE9F34135
:103E9000364802F0CBFA364D364C2870334802F0E3
:103EA0000FFB0646314802F06BFB30442060FF21D7
:103EB000002005F01EFBFF21C6B2002005F019FB13
:103EC0002D4B2A781978A0469142C7B22B4C06D0C8
:103ED0001A702B4801232B49237004F0C7FF2A4B8B
:103EE000D8F800201968294D914206D01A6024485C
:103EF000012327492B7004F0B9FFD8F80020254B87
:103F000002B101221A702B780BB9237893B12249A0
:103F10001B4804F0ABFF214B0021012221702970C6
:103F20001A701F480097334603F0AAFA14481D4937
:103F300004F09CFF1C4C2378A3B11C49104804F0EA
:103F400095FF164B0021217019701548009701222A
:103F5000334603F095FA0A48154902B0BDE8F0412E
:103F600004F084BF02B0BDE8F08100BF3F1E002016
:103F7000FC1D0020041E0020001E0020011E002049
:103F80008C1E0020D3E30008F81D0020FD1D00203A
:103F9000E6E30008B5170020F9E300080C00002054
:103FA000831E00204AE400082F1E002089E4000838
:103FB000DBE4000810B5064C0649204605F063F81E
:103FC00020460549054ABDE8104005F0BFBB00BFCB
:103FD000301E00204CD70008039000080800002085
:103FE00030B54A4885B0FEF79AF9002846D1484BCB
:103FF000484918704548FEF756F828B143484549E6
:10400000FEF791F8002877D14048FEF7E3FA20B197
:104010003E48FEF764FA002873D101238DF804307E
:104020003A48002301A98DF805308DF806308DF847
:1040300007308DF80830FEF7C1F918B13648374916
:1040400004F014FF31480121FEF772FA18B132482A
:10405000334904F00BFF33492F4804F007FF32497E
:104060002D4804F003FF09E0304CA368EBB92F485A
:104070002C4905F033F82E48FDF79EF92348FEF74A
:104080004EF9002833D103F0DDFF234804F0AAFDE8
:104090000028E9DD204804F051FDC1B2234805F0B5
:1040A0007FF8022005F030FAEFE7204605F081F9AD
:1040B0002146194804F0D0FE1E4901A804F0E3FF90
:1040C000204601A905F0FFF8054601A804F099FF74
:1040D00055B11449204605F001F80F48164904F07F
:1040E000C5FE164802F0C4FD03F0ACFFBFE7084B65
:1040F00001221A7005B030BD1149074804F0B6FE20
:1041000082E71049044804F0B1FE86E7BB1D002099
:104110000E000020111E00208C1E002015E5000856
:1041200052E500084CD700088EE50008301E00203C
:10413000591A00203EDE0008D1E50008831E002049
:1041400014E6000848E6000870B503F07BFF194B41
:104150001B7843BB70BD184C18482678184D731C4B
:10416000237004F0EBFCA855022005F0CDF923786C
:10417000132B0CD903F066FF002612491248267053
:1041800004F074FE28463146142206F023F9237801
:104190000D481D4415F8011C102204F0F4FE0A48D5
:1041A0000A4904F048FE054804F01CFD0028D2DC52
:1041B00070BD00BF101E0020FF1D0020BC1E00208F
:1041C0001A1E00208FE600088C1E0020C1E60008A1
:1041D00030B587488FB002F006FB864800F022FF1A
:1041E000854B06201A684FF4FA6122F0E06242F033
:1041F00080621A6003F016FF80484FF4165104F0F5
:104200004FFD7F484FF41651FDF7C4F97D48372123
:1042100004F0E4FE4FF416517B4804F041FD03F036
:1042200086FE7A48FDF730FF714802F07FFB03F00D
:1042300009FF7348FDF78AF901217148FDF706FB74
:10424000734D4FF4FA6005F05FF9002471482C704B
:10425000FDF7B2F801232B7003F0F4FEF1216E4854
:10426000FEF708FA21466648FDF7F0FD6A48FEF7BA
:10427000CBF96A49614804F0F9FD69482221FEF74B
:1042800007FB0228044606D165482321FEF700FB00
:10429000302805461CD0302261480221FEF7E3FA9F
:1042A000604902A804F0EFFE02A908A804F00CFF80
:1042B0001022022105A804F033FF05A908A804F084
:1042C000AFFF594904F0B9FF302104460BA816E0AE
:1042D000564902A804F0D7FE02A908A804F0F4FE8B
:1042E0002146102205A804F01BFF05A908A804F028
:1042F00097FF4D4904F0A1FF294604460BA8102260
:1043000004F00EFF20460BA904F08AFF01463B484B
:1043100004F0A2FD0BA804F074FE05A804F071FEE1
:1043200008A804F06EFE02A804F06BFE3C482421AD
:10433000FEF7ACFA0228044616D139482521FEF7CB
:10434000A5FA054680B93A4908A804F09CFE08A9D8
:104350000BA804F0B9FE21460BA804F08AFF3249ED
:1043600004F06BFF294614E000222D480221FEF7DD
:1043700091FA304908A804F086FE08A90BA804F0B9
:10438000A3FE02210BA804F074FF274904F055FF97
:10439000002104F06EFF0146184804F05DFD0BA8F3
:1043A00004F02FFE08A804F02CFEFFF7CDFE2248F3
:1043B000FEF7CAFCFFF714FE1F482049FDF7B8FFBF
:1043C000002841D115490D4804F050FD1C490B4807
:1043D00004F04CFD1B4802F063FD0E48FCF7ECFFB7
:1043E00040F6B83002F0F6FB03F02CFEE4E700BF25
:1043F0007C1E00203F1E0020040001408C1E002077
:10440000B81D0020A41E0020BC1E0020C41D0020DA
:104410000D000020591A0020B91D00204CD70008BB
:10442000BA1D002023E8000828D900086EE800081B
:1044300084E800089AE80008BB1D0020111E002037
:10444000C3E60008831E00204C494D4804F00EFDD1
:104450004B484C4904F0EFFC00244B4B1022195DF3
:10446000474804F090FD01344548484904F0E3FC16
:10447000092CF2D1424804F0E3FC03F0E3FDFFF71E
:1044800011FCFFF73FFC42493D4804F0EFFC414975
:104490003B4804F0EBFCFFF769FC3F49384804F067
:1044A000E5FC3C49364804F0E1FCFFF713FCFFF75C
:1044B00063FC3A49324804F0D9FC3649304804F0EC
:1044C000D5FCFF21002005F014F8FF210446002050
:1044D00005F00FF8C0B20222E3B20090012130488B
:1044E00002F050FF2F49264804F0C0FC2949244817
:1044F00004F0BCFC2C4801F099FF2C4B18702C4B9D
:104500001870294801F0DCFF2A4B2B4918602B4B0F
:1045100018601B4804F0AAFC1E49194804F0A6FCC8
:10452000274800210522FEF73FFB08B32549144820
:1045300004F09CFC08A8244904F0A5FD08A90BA8D8
:1045400004F0C2FD1E48FEF76BFB01460BA804F009
:104550009AFE01460A4804F07FFC0BA804F051FDC6
:1045600008A804F04EFD4FF47A7004F0CDFF03E08C
:104570000348164904F07AFC0FB030BDF7E6000896
:104580008C1E002010E70008111E00205DE20008CC
:104590001AE700084CD7000857E700088EE7000824
:1045A000831E0020C6E700083F1E0020001E0020DA
:1045B000FC1D0020F81D0020DBE70008041E002081
:1045C000C51D0020BFD00008E1D000087BD0000846
:1045D00070B588B04F4804F005FB00280ADD4D484F
:1045E00004F0ACFAC1B24C4804F0DAFD022004F049
:1045F0008BFFEFE7484CA368002B00F08980204632
:1046000004F0D7FE2146434804F026FC434905A8A0
:1046100004F039FD204605A904F082FE054605A8F0
:1046200004F0EFFC002D33D020460021042204F0DA
:10463000A7FE204604F0C9FE394C02462060C2F3B2
:1046400007213848D2B2FEF735FB10B13148364960
:1046500001E03048354904F009FC3248FEF766FBBA
:104660003349206002A804F00EFD02A905A804F059
:104670002BFD216805A804F006FE0146254804F03C
:10468000EBFB05A804F0BDFC02A804F0BAFC18E09E
:10469000284905A804F0F7FC204605A904F013FEFC
:1046A000054605A804F0ADFC6DB1234A19481378FE
:1046B00083F0010313700BB1204900E0204904F09E
:1046C000D5FB154818E01F4905A804F0DCFC20467E
:1046D00005A904F0F8FD064605A804F092FC7EB199
:1046E00019490C4804F0C2FB0095184818490122EA
:1046F000184BFDF7F5F92046174904F0EFFC07E0E9
:104700001549204604F0EAFC0248144904F0AEFBC7
:1047100008B070BD8C1E0020301E0020E5E80008A7
:10472000E01A0020C51D0020EAE8000820E9000882
:10473000BEE2000859E90008101E002062E90008E6
:104740007EE900089AE90008A2E90008B81D0020E7
:104750007E1E0020ACCF00084CD70008BEE9000840
:104760002DE9F04F87B0634804F03CFA00280ADDD9
:10477000604804F0E3F9C1B25F4804F011FD022083
:1047800004F0C2FEEFE75C4CA368002B00F0AE80A3
:10479000204604F00EFE2146564804F05DFB5749C2
:1047A00003A804F070FC204603A904F08CFD054624
:1047B00003A804F026FC002D00F096802046504C03
:1047C000504904F08BFC23684F490133494823606A
:1047D00004F04CFB4D49684604F055FC694603A8BB
:1047E00004F072FC216803A804F04DFD0146414825
:1047F00004F032FB03A804F004FC684604F001FC5A
:1048000040493C4804F032FBFFF7B6FA032003F0BE
:1048100065F83F4A002313703E4A3F4F13703F4AEA
:104820003B6013703E4A1D4613703E4A1E4613708D
:104830003D4AA34613703D4A13703D4A13703D4AEA
:1048400013703D4A13703D4A13703D4A13703D4B3F
:104850000024EC503C4BDFF818A1EC503B4BDFF848
:104860001491EC503A4BDFF81081EC50394BF0B218
:10487000EC50394B0121EC50384B45F80A40F454C8
:10488000374B45F80940F454364B45F80840F4548A
:10489000354B0435F454013601F01AFF0C2ED6D1F5
:1048A000DBF8003013F0010313D03048FEF73EFA76
:1048B000386014234AF804303C2349F804304FF69A
:1048C000FF7348F804300434302CF2D1FFF736FA85
:1048D0000AE03B6000224AF8032049F8032048F828
:1048E00003200433302BF5D103F0ACFB07B0BDE857
:1048F000F08F00BF8C1E0020301E0020E5E900086C
:104900000C1E00204CD70008E7E900082AEA00083E
:104910002E1E0020E91D0020E01A00203E1E00206F
:10492000031E0020741D0020021E0020FE1D00201A
:10493000FD1D00202F1E0020B4170020B6170020F8
:10494000081E0020781D0020F8170020241D0020DC
:104950005C1A0020A01A002034170020641D0020DB
:10496000381A0020491A00200F000020C51D002021
:1049700074170020E41A0020B81700202DE9F04336
:10498000804E87B016F800900446B9F1000F40F051
:10499000F480DFF83C827C4F18F80030002B00F0E8
:1049A0008C807A4D7A4A2B6852F820209342C0F0CE
:1049B0008480012101F08CFE7649684608F8049055
:1049C00004F061FB694603A804F07EFB214603A8BE
:1049D00004F045FC704904F030FC01466F4804F0D7
:1049E0003BFA03A804F00DFB684604F00AFB6B4891
:1049F00004F0DCF86A4B53F8242052B301233B55F2
:104A000068492B68684D41F824306846134467496B
:104A100045F8243004F037FB694603A804F054FB42
:104A2000214603A804F01BFC614904F006FC55F87C
:104A3000241004F028FC0146584804F00DFA03A89D
:104A400004F0DFFA684604F0DCFA544804F0AEF8EB
:104A500033E0584B584D53F824205849013A43F855
:104A600024202B78684601332B7004F00CFB694638
:104A700003A804F029FB297803A804F0F0FB014601
:104A8000464804F0E9F903A804F0BBFA684604F0CC
:104A9000B8FA424804F08AF82B780C2B08D13F482A
:104AA000474904F0E3F9474A01231370464A13705B
:104AB000002001233855335560E0385D002855D07B
:104AC000324B1A68384B53F824309A4256D3394B3C
:104AD000394D53F824200127013A43F824202B783C
:104AE00036493B4468462B70375504F0CCFA69468A
:104AF00003A804F0E9FA297803A804F0B0FB014602
:104B0000264804F0A9F903A804F07BFA684604F0EB
:104B100078FA224804F04AF82B780C2B07D11F486A
:104B2000274904F0A3F9274B1F70274B1F7001235F
:104B300068461849335504F0A6FA694603A804F0FC
:104B4000C3FA214603A804F08AFB204904F075FB50
:104B50000146124804F080F903A804F052FA6846AE
:104B600004F04FFA0D4804F021F806E00C4B53F81E
:104B70002400003018BF012000E0002007B0BDE88D
:104B8000F08300BF491A0020381A0020EC1D0020D5
:104B90005C1A002038EA00083CEA00088C1E00205D
:104BA000E41A0020A01A00203417002058EA000858
:104BB00087DF0008B8170020B61700206BEA00084E
:104BC0007BEA00082E1E00202F1E0020A1EA00080C
:104BD000641D00202DE9F0439A4E87B003F032FAAD
:104BE00033780C2B00F0D8800024254603F02AFAF5
:104BF000954BEFB2E95C002940F0A1804FF001082D
:104C000005F80380914B04EB0309E358002B52D0C5
:104C10008F4BE358002B4ED0384601F059FD8D4B99
:104C20008D4A05F803808D4BDFF88C821B688C4918
:104C3000A350D9F800206846134444F8083004F023
:104C400022FA694603A804F03FFA394603A804F0A3
:104C500006FB844904F0F1FA0146834804F0FCF8AD
:104C600003A804F0CEF9684604F0CBF97F49684602
:104C700004F009FA694603A804F026FA394603A8A5
:104C800004F0EDFA7A4904F0D8FA54F8081004F068
:104C9000FAFA0146744804F0DFF803A804F0B1F909
:104CA000684604F0AEF9704803F080FF714BE3589A
:104CB000002B6AD0C2E06A49684604F0E4F969460C
:104CC00003A804F001FA394603A804F0C8FA6A49B7
:104CD00004F0B3FA0146644804F0BEF803A804F0F7
:104CE00090F9684604F08DF9644B0127EF5433784E
:104CF00063493B446846337004F0C5F9694603A82C
:104D000004F0E2F9317803A804F0A9FA0146564804
:104D100004F0A2F803A804F074F9684604F071F9ED
:104D2000514803F043FF33780C2B2ED1554B4E489E
:104D300055491F7004F09AF8544B1F7025E0013F4D
:104D40000A2F07D8DFE807F0080A0C0E1012141615
:104D5000181A1C00002014E0012012E0022010E0CC
:104D600003200EE004200CE005200AE0062008E005
:104D7000072006E0082004E0092002E00A2000E005
:104D80000B20FFF7FBFD002858D101350C2D04F155
:104D900004047FF42BAF51E0FEF7EEFF394B3C4D9E
:104DA0001A7872B100241C703A4B3B481C70FEF715
:104DB000CFFE2D48394904F059F8394B1C700123B6
:104DC0002B702B78002B39D0324D2B78002B35D01F
:104DD000334C012333492448237004F047F8324907
:104DE000214804F043F82A4A0023317813702B70CD
:104DF000154800221A5421481A5416481A541448C7
:104E000050F823000133904218BF11460C2BEFD10C
:104E1000317051B92549144804F028F82249124844
:104E200004F024F8FEF78AFF08E021490E482270BA
:104E300004F01CF80C481F4904F018F807B0BDE84E
:104E4000F08300BFB61700200F0000207417002069
:104E5000B8170020641D0020241D0020EC1D002038
:104E600038EA0008B7EA00088C1E0020CDEA0008E6
:104E700087DF0008E41A0020DEEA0008491A002053
:104E80006BEA00082E1E00207BEA00082F1E00207F
:104E9000031E0020E91D0020E81D0020EEEA0008A6
:104EA000B51700201CEB00084BEB000858EB00087E
:104EB00082EB0008BDEB00085C1A002008B503F087
:104EC000C1F80C48FCF778FA00210B480A4600F0BC
:104ED00057FAFFF77FFE00F089F8FEF759FFFEF75B
:104EE000D5FFFFF73DFCFFF773FBBDE80840FFF778
:104EF0002BB900BF591A00203F1E00200148002195
:104F0000FCF7A4BFB81D00201FB5304801A9FDF76C
:104F10000FFA2F4CC0B92F492F4803F0A7FF2F4895
:104F200001F0BEFF2E48FCF747FA40F6B83004F017
:104F3000EBFA03F087F823780133DBB2322B2370CE
:104F4000E3D903F0B3F8E0E7002323701F48FDF72F
:104F5000AAFAC0B92349204803F088FF1F4801F08E
:104F600031FF1F48FCF728FA40F6B83004F0CCFABD
:104F700003F068F823780133DBB2322B2370E5D9D4
:104F800003F094F8E2E7002323701048FDF70CFBD0
:104F9000C0B91549104803F069FF104801F080FFBF
:104FA0000F48FCF709FA40F6B83004F0ADFA03F008
:104FB00049F823780133DBB2322B2370E5D903F0B3
:104FC00075F8E2E70023237004B010BDBB1D00207C
:104FD0003C1E0020D2EB00088C1E0020831E002007
:104FE000591A002020EC000878EC000808B50A4B9C
:104FF0001A787AB100221A70FEF7B8FEFFF77EFF2A
:10500000FFF782FFFEF78CFEBDE808400348044925
:1050100003F02CBF08BD00BF3D1E00208C1E0020E9
:10502000CEEC000813B5D14C4FF0FF3300934FF492
:10503000165200232046CE49FEF738FB20460121B8
:10504000FEF730FB002120460A46FDF72FFF2046E1
:1050500001210022FDF72AFF204602210022FDF750
:1050600025FF204603210022FDF720FF20460421D2
:105070000022FDF71BFF204605210022FDF716FF49
:10508000204606210022FDF711FF204607210022BD
:10509000FDF70CFF204608210022FDF707FF204600
:1050A00009210022FDF702FF20460A210022FDF718
:1050B000FDFE20460B210022FDF7F8FE20460C21C4
:1050C0000022FDF7F3FE20460D210022FDF7EEFE43
:1050D00020460E210022FDF7E9FE20460F21002286
:1050E000FDF7E4FE204610210022FDF7DFFE2046FA
:1050F00011210022FDF7DAFE204612210022FDF7E1
:10510000D5FE204613210022FDF7D0FE20461421B3
:105110000022FDF7CBFE204615210022FDF7C6FE3A
:10512000204616210022FDF7C1FE2046172100224D
:10513000FDF7BCFE204618210022FDF7B7FE2046F1
:1051400019210022FDF7B2FE20461A210022FDF7A8
:10515000ADFE20461B210022FDF7A8FE20461C21A3
:105160000022FDF7A3FE20461D210022FDF79EFE32
:1051700020461E210022FDF799FE20461F21002215
:10518000FDF794FE204620210022FDF78FFE2046E9
:1051900021210022FDF78AFE204622210022FDF770
:1051A00085FE204623210022FDF780FE2046242193
:1051B0000022FDF77BFE204625210022FDF776FE2A
:1051C000204626210022FDF771FE204627210022DD
:1051D000FDF76CFE204628210022FDF767FE2046E1
:1051E00029210022FDF762FE20462A210022FDF738
:1051F0005DFE20462B210022FDF758FE20462C2183
:105200000022FDF753FE20462D210022FDF74EFE21
:1052100020462E210022FDF749FE20462F210022A4
:10522000FDF744FE204630210022FDF73FFE2046D8
:1052300031210022FDF73AFE204632210022FDF7FF
:1052400035FE204633210022FDF730FE2046342172
:105250000022FDF72BFE204635210022FDF726FE19
:10526000204636210022FDF721FE2046372100226C
:10527000FDF71CFE204638210022FDF717FE2046D0
:1052800039210022FDF712FE20463A210022FDF7C7
:105290000DFE20463B210022FDF708FE20463C2162
:1052A0000022FDF703FE20463D210022FDF7FEFD12
:1052B00020463E210022FDF7F9FD20463F21002235
:1052C000FDF7F4FD002120460A46FDF7F8FD2046D3
:1052D00001210022FDF7F3FD204602210022FDF707
:1052E000EEFD204603210022FDF7E9FD20460421C2
:1052F0000022FDF7E4FD204605210022FDF7DFFD39
:10530000204606210022FDF7DAFD20460721002273
:10531000FDF7D5FD002120460A46FDF7DBFD2046BE
:1053200001210022FDF7D6FD204602210022FDF7D3
:10533000D1FD204603210022FDF7CCFD20460421AB
:105340000022FDF7C7FD204605210022FDF7C2FD22
:10535000204606210022FDF7BDFD20460721002240
:10536000FDF7B8FD204600217F2203E0401E00200B
:10537000A41E002002B0BDE81040FDF788BD00BFAC
:1053800010B5874C2046FEF7B5FA20460021FDF700
:10539000BFFD80F00101C9B21E2004F089F820464B
:1053A0000121FDF7B5FD80F00101C9B21F2004F015
:1053B0007FF820460221FDF7ABFD80F00101C9B264
:1053C000262004F075F820460321FDF7A1FD80F0AA
:1053D0000101C9B2272004F06BF820460421FDF733
:1053E00097FD80F00101C9B2282004F061F8204641
:1053F0000521FDF78DFD80F00101C9B2292004F0DF
:1054000057F820460621FDF783FD80F00101C9B25F
:10541000082004F04DF820460721FDF779FD80F0C3
:105420000101C9B20B2004F043F820460821FDF722
:105430006FFD80F00101C9B20C2004F039F820465C
:105440000921FDF765FD80F00101C9B20D2004F0CE
:105450002FF820460A21FDF75BFD80F00101C9B25B
:105460000F2004F025F820460B21FDF751FD80F0B8
:105470000101C9B22A2004F01BF8202004F002F830
:10548000021C18BF012200212046FDF731FD21201A
:1054900003F0F8FF021C18BF012201212046FDF78E
:1054A00027FD222003F0EEFF021C18BF012202217B
:1054B0002046FDF71DFD232003F0E4FF021C18BF6A
:1054C000012203212046FDF713FD2C2003F0DAFF13
:1054D000021C18BF012204212046FDF709FD2B20E4
:1054E00003F0D0FF021C18BF012205212046FDF762
:1054F000FFFC322003F0C6FF021C18BF0122062168
:105500002046FDF7F5FC132003F0BCFF021C18BF7A
:10551000012207212046FDF7EBFC002003F0A4FF49
:10552000002102462046FDF7EEFC012003F09CFF1F
:10553000012102462046FDF7E6FC042003F094FF1B
:10554000022102462046FDF7DEFC052003F08CFF19
:10555000032102462046FDF7D6FC062003F084FF17
:10556000042102462046FDF7CEFC072003F07CFF15
:10557000052102462046FDF7C6FC242003F074FFF7
:10558000062102462046FDF7BEFC252003F06CFFF5
:10559000072102462046BDE81040FDF7B4BC00BF1D
:1055A000401E0020002110B50A463648FDF797FC42
:1055B0000121044600223348FDF791FC08B1013473
:1055C000E4B2304802210022FDF789FC08B1013421
:1055D000E4B22C4803210022FDF781FC08B101341C
:1055E000E4B2284804210022FDF779FC08B1013417
:1055F000E4B2244805210022FDF771FC08B1013412
:10560000E4B2204806210022FDF769FC08B101340C
:10561000E4B21C4807210022FDF761FC08B1013407
:10562000E4B2184808210022FDF759FC08B1013402
:10563000E4B2144809210022FDF751FC08B10134FD
:10564000E4B210480A210022FDF749FC08B10134F8
:10565000E4B20C480B210022FDF741FC60B10B2C99
:105660000AD100210A460848FFF78AFE0749084880
:1056700003F0FCFB012010BD0649054803F0F6FBD2
:10568000002010BD401E00203F1E002006ED000837
:105690008C1E00203DED000830B583488BB00C46D1
:1056A000824903F0E3FB0222214601A803F027FD13
:1056B0007F4904A803F0E7FC04A907A803F004FD50
:1056C00001A907A803F0ACFD0146774803F0C4FB2D
:1056D00007A803F096FC04A803F093FC039D082D93
:1056E00040F0EA80012304A801A9002203F022FE71
:1056F0000A22002107A803F013FD07A904A803F05C
:10570000F0FD021C18BF012200216A48FDF7E7FBEB
:10571000044607A803F075FC04A803F072FC0223FA
:1057200004A801A9012203F005FE0A22002107A80E
:1057300003F0F6FC07A904A803F0D3FD021C18BF70
:10574000012201215B48FDF7CAFB054607A803F0CB
:1057500058FC04A803F055FC0DB10134E4B2032356
:1057600004A801A9022203F0E5FD0A22002107A8EE
:1057700003F0D6FC07A904A803F0B3FD021C18BF70
:10578000012202214B48FDF7AAFB054607A803F0BA
:1057900038FC04A803F035FC0DB10134E4B2042355
:1057A00004A801A9032203F0C5FD0A22002107A8CD
:1057B00003F0B6FC07A904A803F093FD021C18BF70
:1057C000012203213B48FDF78AFB054607A803F0A9
:1057D00018FC04A803F015FC0DB10134E4B2052354
:1057E00004A801A9042203F0A5FD0A22002107A8AC
:1057F00003F096FC07A904A803F073FD021C18BF70
:10580000012204212B48FDF76AFB054607A803F097
:10581000F8FB04A803F0F5FB0DB10134E4B2062354
:1058200004A801A9052203F085FD0A22002107A88A
:1058300003F076FC07A904A803F053FD021C18BF6F
:10584000012205211B48FDF74AFB054607A803F086
:10585000D8FB04A803F0D5FB0DB10134E4B2072353
:1058600004A801A9062203F065FD0A22002107A869
:1058700003F056FC07A904A803F033FD021C18BF6F
:10588000012206210B48FDF72AFB054607A803F075
:10589000B8FB04A803F0B5FB0DB10134E4B204A8D1
:1058A00001A907220823B3E38C1E002074ED000831
:1058B00098ED0008401E0020072D40F0CD8000210B
:1058C0000A466448FDF70BFB012301A900220446A8
:1058D00004A803F02FFD0A22002107A803F020FCF2
:1058E00007A904A803F0FDFC021C18BF0122012136
:1058F0005848FDF7F4FA054607A803F082FB04A810
:1059000003F07FFB0DB10134E4B2022304A801A926
:10591000012203F00FFD0A22002107A803F000FC7A
:1059200007A904A803F0DDFC021C18BF0122022114
:105930004848FDF7D4FA054607A803F062FB04A81F
:1059400003F05FFB0DB10134E4B2032304A801A905
:10595000022203F0EFFC0A22002107A803F0E0FB7B
:1059600007A904A803F0BDFC021C18BF01220321F3
:105970003848FDF7B4FA054607A803F042FB04A82F
:1059800003F03FFB0DB10134E4B2042304A801A9E4
:10599000032203F0CFFC0A22002107A803F0C0FB7A
:1059A00007A904A803F09DFC021C18BF01220421D2
:1059B0002848FDF794FA054607A803F022FB04A83F
:1059C00003F01FFB0DB10134E4B2052304A801A9C3
:1059D000042203F0AFFC0A22002107A803F0A0FB79
:1059E00007A904A803F07DFC021C18BF01220521B1
:1059F0001848FDF774FA054607A803F002FB04A84F
:105A000003F0FFFA0DB10134E4B2062304A801A9A2
:105A1000052203F08FFC0A22002107A803F080FB77
:105A200007A904A803F05DFC021C18BF012206218F
:105A30000848FDF754FA054607A803F0E2FA04A85F
:105A400003F0DFFA0DB10134E4B204A801A9062283
:105A50000723DDE2401E0020062D40F0B380002128
:105A60000A46A748FDF73BFA012104460022A44854
:105A7000FDF735FA08B10134E4B2012304A801A905
:105A8000002203F057FC0A22002107A803F048FB7C
:105A900007A904A803F025FC021C18BF012202215B
:105AA0009748FDF71CFA054607A803F0AAFA04A8D0
:105AB00003F0A7FA0DB10134E4B2022304A801A94E
:105AC000012203F037FC0A22002107A803F028FB7B
:105AD00007A904A803F005FC021C18BF012203213A
