:020000040800F2
:1000000000C0002069950008519800085598000824
:10001000599800085D98000861980008B198000898
:10002000B1980008B1980008B1980008B19800088C
:10003000B1980008B1980008B1980008419D0008E7
:10004000B1980008B1980008B198000845940008DC
:10005000B1980008B1980008B1980008B19800085C
:10006000B1980008B1980008B1980008B19800084C
:10007000B1980008B1980008B1980008B19800083C
:10008000B1980008B198000829990008B1980008B3
:10009000B1980008B1980008B1980008B19800081C
:1000A000899F0008AD9F0008D19F000809A00008A3
:1000B0005DA00008CDA000083DA10008B19800088F
:1000C000B1980008B1980008B1980008B1980008EC
:1000D000B198000835A4000889A40008DDA4000830
:1000E000B19800088D940008B198000865A2000836
:1000F00089A20008ADA20008E5A2000879990008CD
:10010000B1980008B1980008ADA10008B1980008A6
:1001100031A5000885A500081DA2000841A200081D
:10012000B1980008B1980008B1980008B19800088B
:1001300010B5054C237833B9044B13B10448AFF321
:1001400000800123237010BD18170020000000005C
:100150001CD4000808B5064B1BB106480649AFF38E
:1001600000800648036813B1054B03B1984708BDEA
:10017000000000001CD400081C17002018170020E5
:1001800000000000012902D11C30C0B270470629CE
:1001900084BF01F1FF31C9B211F0010F14BF1E205D
:1001A0001F207047444B2DE9F047B1FBF3F603FBEA
:1001B00016113C23B1FBF3F203FB12120546027049
:1001C0004FF46160B1FBF0F200FB1211B1FBF3F3ED
:1001D0006B704FF4FA63AA70B6B2EB80EC884FF400
:1001E000C873B4FBF3F803FB18481FFA88F8B8F19A
:1001F000000F16D06423B4FBF3F203FB12439BB24F
:10020000002B53D014F0030140F26D130CBF4FF4D8
:10021000B7721A4696420EDB002908BF4FF4B77337
:1002200004E0B6F5B77F06DB4FF4B773F61A013476
:10023000B6B2EC80D2E700236B716423B4FBF3F712
:1002400003FB1747BFB2B8F1000F06D03FB114F05F
:10025000030F14BF0020012002E0012000E0384617
:1002600095F80590C0B24946FFF78CFF864209F128
:10027000010A15D3B8F1000F06D03FB114F0030FF7
:1002800014BF0020012002E0012000E03846C0B287
:100290004946FFF777FF301A86B285F805A0D2E706
:1002A00001362E7185F805A0BDE8F087B6F5B67F5A
:1002B000C1DD40F26D13B9E780510100F8B5427815
:1002C00087783C2303FB072702780579467903FBEF
:1002D0000727013D013EEDB2F6B2044605714671B5
:1002E000013E731CE38834D04FF4C872B3FBF2F1C3
:1002F00002FB113292B262B16422B3FBF2F002FB54
:10030000103080B230B113F0030F14BF0020012071
:1003100000E00120C0B2F1B2FFF734FF284485B2FB
:10032000DEE74FF4C872B3FBF2F102FB113292B276
:10033000AAB16422B3FBF2F102FB113292B28AB18C
:1003400013F0030F40F26D1208BF4FF4B77215445B
:10035000ADB2013B9BB2B3F5FA6FE2D205E04FF4C8
:10036000B772F4E740F26D12F1E7024800FB057046
:10037000F8BD00BF8051010007F0C0BE38B50D4682
:10038000044607F0D6FE290A49006039204601F0EC
:10039000FE0107F065FF204607F03BFFE9B220466B
:1003A00007F05EFF204607F034FF204607F0C1FE4D
:1003B0002046A12107F054FF204607F02AFF002124
:1003C000204607F074FF0546204607F005FF20464B
:1003D00007F0CAFE284638BD70B50D4616460446DD
:1003E00007F0A7FE290A49006039204601F0FE0106
:1003F00007F036FF204607F00CFFE9B2204607F071
:100400002FFF204607F005FF3146204607F028FF62
:10041000204607F0FEFE204607F0A6FEBDE870402D
:100420000A200AF0F9BD0000064A5178937843EAA1
:100430000123A3F52043152B9ABF034AD05C0E205D
:10044000704700BFA918002078EB000810B5074CD2
:100450006018114607F05AFD054B1B881C4414F820
:10046000073C1B1A5842584110BD00BFA918002074
:1004700022180020084B18795B7943EA002045F2E6
:100480005553984205D04CF20303C31A58425841C1
:1004900070470120704700BFA9180020044B9B79CA
:1004A000552B044B0CBF012200221A70704700BF6D
:1004B000A91800205618002010B5084CE379552BD8
:1004C00001D1012010BD064802F0A9FAE379834268
:1004D000F7D0D0F1010038BF002010BDA9180020CE
:1004E000FD1B002013B50D4B1C7A552C01D10120AA
:1004F00012E00B48694602F0EDF900231A461DF898
:1005000003108C42F3D019B90132D2B2052AEED0D1
:100510000133052BF3D1002002B010BDA918002033
:10052000FD1B002070B505461E46FFF78FFF0446F1
:1005300040B91C4AD3781A441379D62B02D01A48F2
:100540001A492BE02846FFF795FF044678B1284664
:10055000FFF7A4FF2846FFF7AFFF044670B96EB15E
:10056000134911480AF012FA0F48124916E01249CD
:100570000D480AF00BFA0C4810490FE02846FFF727
:10058000B1FF044660B99DF810300BB9012407E0B3
:100590000B4905480AF0FAF903480A490AF0F6F946
:1005A000204670BDA9180020CC1C0020EAEB0008F2
:1005B0000EEC000845EC00088EEB0008BCEB0008D0
:1005C0007CEC0008B4EC0008F8B50F4609F0CAFA54
:1005D00004F09EFA032008F015FF304A0023137040
:1005E0002F4A012113702F4A1D4613702E4A1E46B2
:1005F00013702E4A13702E4A13602E4A13702E4A1F
:1006000013702E4A13702E4A13702E4A13702E4AFE
:1006100013702E4A13602E4A11702E4A13602E4A10
:1006200013702E4A13702E4A13702E4A13702E4ADE
:1006300013602E4A13702E4A13602E4B0024EC5088
:100640002D4BF0B2EC502D4B0121EC502C4BEC50CB
:100650002C4BEC502C4BEC502C4BEC502C4BEC50CE
:100660002C4BEC502C4BEC502C4BF4542C4BF454A6
:100670002C4BF4542C4BF45407F0D4FB01362B4B89
:100680000C2EEC5005F10405D7D137B128480721CD
:100690000322BDE8F84008F01BB8F8BD6E1C00202E
:1006A000291C00207E1C0020461C00201A1A002055
:1006B000A4180020451C0020411C0020401C0020E4
:1006C0006F1C00204C1B0020201800204C1C002018
:1006D000351B00201C1A0020A4170020B01A00208F
:1006E000191A00205E180020741700205F180020DF
:1006F000D41B0020601A002060180020A8170020DA
:10070000D8190020201A0020B41A0020941B0020C1
:10071000501B0020F41A002034170020361B002044
:1007200094170020A01A00200C000020241800209C
:10073000C31C00201F4B13B51B78002B37D00023A0
:100740000093042117220123FFF7ECFE30B31A496E
:100750001A480AF01BF9194809F0B8FF184B1C7A1F
:10076000012C18D11748D97C02F0C2F948B11648BB
:100770000F21224607F0ACFF1448214601F03CFD52
:100780000CE011481021022207F0A2FF10490B488B
:100790000AF0FCF802E00C4807F014FE0D4B084884
:1007A0001A88002102B0BDE810400BF09BBB02B0DC
:1007B00010BD00BF1D000020E8EC0008CC1C00208C
:1007C000A9180020FA1B0020C31C0020F81B0020E1
:1007D00008ED0008221800201A4B07B51B786BB3F0
:1007E0000023009304210A220123FFF79BFEE0B1BE
:1007F000154916480AF0CAF8144809F067FF14486A
:10080000144902F019F838B1134910480AF0BEF83B
:1008100012480321022206E011490C480AF0B6F8FA
:100820000E480421012207F053FF0E4B0E481A8890
:10083000002103B05DF804EB0BF054BB03B05DF88E
:1008400004FB00BF1D0000204CED0008CC1C002064
:10085000FD1B0020B118002064ED0008C31C00201F
:10086000A6ED000822180020A918002013B50023C7
:10087000009304210F22FFF755FE40B31F49204883
:10088000204C0AF083F81E4809F020FF1E4804F1AE
:100890000A0101F046FE68B31B4804F10A0101F0A9
:1008A00080FE38B3194916480AF070F81648E17905
:1008B00002F07CF8A0B1164911480AF067F8154813
:1008C0000521012207F004FF0F4801F04BFF124BF6
:1008D0000C481A88002102B0BDE810400BF002BBA2
:1008E00007480E490AF052F80A480621012207F08B
:1008F000EFFEECE702480A49F4E700BFE8ED000824
:10090000CC1C0020A9180020FD1B00208EEE000842
:1009100003EE0008C31C00202218002049EE000846
:10092000BBEE0008134B13B51B780BB3124B00241E
:10093000DA78042100940123FFF7F4FD78B10F4920
:100940000F480AF023F80E4809F0C0FE0D490C4884
:100950000AF01CF80C482146022208F0D9F90B4B8A
:1009600005481A88002102B0BDE810400BF0BABA61
:1009700002B010BD1D000020A9180020F6EE0008EE
:10098000CC1C002012EF0008C31C002022180020FD
:10099000134B13B51B780446FBB1002300930421CD
:1009A00005220123FFF7BEFD70B10E490E4809F084
:1009B000EDFF0E490C4809F0E9FF0B4809F086FEEF
:1009C00020460121FFF700FE094B0A481A88002142
:1009D00002B0BDE810400BF085BA02B010BD00BFF8
:1009E0001D0000204BEF0008CC1C002064EF000825
:1009F00022180020A9180020F0B5284B89B01B78D8
:100A0000002B49D0264D0024EA78042100940123CC
:100A1000FFF788FD2F46002835D02249224809F0EB
:100A2000B5FF214809F052FE03AD09F09BF81F49BC
:100A30001D4809F0ABFF2846214614220BF052FA5C
:100A4000FE78053E142E01D8234605E016481849C5
:100A500009F09CFF022207E0B34204D2FA18527A4E
:100A6000EA540133F8E70322124B13481A7029465F
:100A7000324606F023F801221048002107F0AAFEB2
:100A80000F4B01221A700F4B05481A88002109B03C
:100A9000BDE8F0400BF026BA09B0F0BD1D00002003
:100AA000A918002074EF0008CC1C00209EEF00085D
:100AB000F4EF0008C41C00207F1C0020C31C002091
:100AC000401C00202218002030B5154B85B01B7843
:100AD0001BB3144D0024EA78009404210123FFF78E
:100AE00021FDD0B11049114809F050FF0F4809F01D
:100AF000EDFD0E480E4909F049FF2346EA18527AE7
:100B000002A95A540133072BF8D10A4803F036FEE4
:100B100009481721022207F0DBFD05B030BD00BFF8
:100B20001D000020A918002045F00008CC1C002062
:100B30005CF00008281C0020C31C0020F0B53A4BD4
:100B400089B01B78002B6CD0384C0026E2780096D8
:100B500004210123FFF7E6FC00284DD03449354835
:100B600009F014FF334809F0B1FD334894F822101E
:100B700094F8232002F006FA20B92E482F4909F0F4
:100B800005FF012600252E492A4804AF09F0FEFE84
:100B90002223384629461022029503958DF8083005
:100BA0000BF0A0F933238DF810302B46E218127A9F
:100BB00002A95A540133082BF8D10023E218127C01
:100BC000FA540133102BF9D11B4802F039F9E0B186
:100BD0001948394602F092F9B8B11A49154809F096
:100BE000D5FE154802F0FBF8174807F049FA1748F8
:100BF0003146012207F080FE154B0C481A8800216F
:100C000009B0BDE8F0400BF06DB91249094809F090
:100C1000BDFE094802F000F90B4807F031FA022640
:100C2000E5E709B0F0BD00BF1D000020A9180020B5
:100C30008DF00008CC1C0020071C0020B7F0000835
:100C4000F2F000082AF10008BC1C0020C31C0020A0
:100C50002218002067F1000870B54A4B88B01B7855
:100C60000646002B00F08C80474C0025E27800956A
:100C700004210123FFF756FC002874D0434944485F
:100C800009F084FE424809F021FD424B0122304622
:100C900029461A70FFF798FC3F4B404894F84610DD
:100CA00094F847201D7002F069FA10B138483C49A9
:100CB00001E037483B4909F069FE384802F09AFAEA
:100CC000394D3A49286002A809F042FF02A905A857
:100CD00009F05FFF296805A80AF03AF801462C4898
:100CE00009F04AFE05A809F0F1FE02A809F0EEFE9F
:100CF00008F038FF0022244B1046114604EBD005C3
:100D000095F848500D41ED0715D55D7A1E7A05EB33
:100D10000626274D565193F8295093F8286005EB85
:100D20000626244D565193F84B5093F84A6005EB34
:100D30000626214D56510131C9B2082900F10100A2
:100D400008BF00210C2803F1020302F10402D5D1EF
:100D50000F4809F0BBFC194803210B4A07F01AFEA3
:100D600003F0B8FE03E00A48154909F00FFE154BE1
:100D700005481A88002108B0BDE870400BF0B2B8F1
:100D800008B070BD1D000020A9180020A4F10008C3
:100D9000CC1C00204D1B002057180020071C0020F1
:100DA000D1F1000815F20008A41800206A0B010810
:100DB00060180020A8170020B41A0020C31C0020CF
:100DC0005CF20008221800202DE9F041604B88B049
:100DD0001B780746002B00F0B7805E4E0024F278A7
:100DE000009404210123FFF79DFB002800F09F8061
:100DF00059495A4809F0CAFD584809F067FC584B50
:100E00000125384621461D70FFF7DEFB554B327A2F
:100E10001D70737A544F03EB0223544902A83B60C0
:100E200009F096FE02A905A809F0B3FE396805A8E5
:100E300009F08EFF4E4909F065FF0146474809F069
:100E40009BFD05A809F042FE02A809F03FFE494DAE
:100E5000B37A494902A82B7009F07AFE02A905A8C5
:100E600009F097FE297805A809F05EFF404909F0CE
:100E700049FF0146394809F07FFD05A809F026FE23
:100E800002A809F023FE3D4DF37A3D4902A82B70DC
:100E900009F05EFE02A905A809F07BFE297805A8E5
:100EA00009F042FF01462D4809F066FD05A809F04A
:100EB0000DFE02A809F00AFE2546B84606EBD4034B
:100EC0001B7B2B41DB0721D5D8F800302D4F2E4955
:100ED00047F8243002A809F03BFE02A905A809F052
:100EE00058FE214605A809F033FF284909F00AFFFA
:100EF00057F8241009F02CFF0146184809F03CFD72
:100F000005A809F0E3FD02A809F0E0FD0135EDB206
:100F1000082D04F1010408BF00250C2CCED11C487B
:100F200003210C4A07F096FD03F0D4FD03E00B48C3
:100F3000184909F02BFD184B06481A88002108B003
:100F4000BDE8F0410AF0CEBF08B0BDE8F08100BFB7
:100F50001D000020A91800207AF20008CC1C0020F7
:100F60004D1B0020571800201C1A0020A0F200087A
:100F70004D160108A4170020B6F20008B01A002090
:100F8000CDF20008601A0020E1F20008F6F2000835
:100F9000C31C0020FAF2000822180020F0B5484BCC
:100FA00089B01B780546002B00F08780454E002451
:100FB000F278009404210123FFF7B4FA00286FD0DF
:100FC0004149424809F0E2FC404809F07FFB404BB0
:100FD0000122284621461A70FFF7F6FA3D4B0222FD
:100FE0001A702546072C8CBFB37D737D2B4103F00F
:100FF000010343B36308043316F8132006EB4303DD
:101000005B78354F03EB022347F82430334902A8BD
:1010100009F09EFD02A905A809F0BBFD214605A81F
:1010200009F096FE2E4909F06DFE57F8241009F0DC
:101030008FFE0146254809F09FFC05A809F046FDF2
:1010400002A809F043FD0135EDB2082D04F10104B9
:1010500008BF00250C2CC5D1337D224C02A82249A3
:10106000237009F075FD02A905A809F092FD217809
:1010700005A809F059FE1D4909F044FE0146134830
:1010800009F07AFC05A809F021FD02A809F01EFD6F
:10109000174803210B4A07F051FD03F01BFD03E045
:1010A0000A48144909F072FC134B06481A880021BB
:1010B00009B0BDE8F0400AF015BF09B0F0BD00BFAF
:1010C0001D000020A918002018F30008CC1C0020E7
:1010D0004D1B0020571800202418002041F3000861
:1010E000F6F20008A517002060F300084D1601086D
:1010F000C31C002081F3000822180020144B13B5F4
:101100001B7813B3134B0024DA78042100940123D5
:10111000FFF708FA60B11049104809F037FC0F4892
:1011200009F0D4FA0E482146032207F083FE03E0BB
:101130000A480C4909F02AFC0B4B06481A88002182
:1011400002B0BDE810400AF0CDBE02B010BD00BF35
:101150001D000020A91800209FF30008CC1C0020CF
:10116000C31C0020BBF300082218002070B53D4BC3
:1011700088B01B78002B73D03B4C00230093E2789F
:1011800004210123FFF7CEF900285CD03749384805
:1011900009F0FCFB364809F099FA637A257A35495B
:1011A00002A803EB052509F0D3FC02A905A809F064
:1011B000F0FC294605A809F0CBFD01462C4809F0B2
:1011C000DBFB05A809F082FC02A809F07FFC2A4895
:1011D000217A627A01F088FF054620B92749244820
:1011E00009F0D4FB00E00125E37AA67A244902A89D
:1011F00003EB062609F0ACFC02A905A809F0C9FC1E
:10120000314605A809F0A4FD0146194809F0B4FBD0
:1012100005A809F05BFC02A809F058FC1648A17A61
:10122000E27A01F017FF20B91649114809F0AEFB28
:1012300003E015B11448152101E0134816210222DC
:1012400007F046FA03E00A48104909F09FFB104BEB
:1012500005481A88002108B0BDE870400AF042BE77
:1012600008B070BD1D000020A9180020D9F30008A7
:10127000CC1C0020FFF30008071C00200FF400081E
:101280004CF400085CF40008C31C002099F400082A
:1012900022180020174B13B51B784BB3164C0023B4
:1012A0000093E27804210123FFF73CF998B1134938
:1012B000134809F06BFB124809F008FA1148217A2B
:1012C00001F016FC20B11048012100F095FF06E066
:1012D0000B480E4901E00A480D4909F057FB0D4B38
:1012E00005481A88002102B0BDE810400AF0FABD96
:1012F00002B010BD1D000020A9180020B7F400089E
:10130000CC1C0020FA1B0020F81B0020D9F4000898
:1013100009F50008221800202DE9F041634B92B036
:101320001B78002B00F0BF80614F0026FA78042163
:1013300000960123FFF7F6F8002800F0A7805D492A
:101340005D4809F023FB5C4809F0C0F90CAD1022A0
:10135000397A06A809F038FC06A9284609F019FCD4
:101360001022797A09A809F02FFC09A9284609F06A
:10137000BCFC0FAC10228046B97A204609F024FC50
:101380002146404609F0B1FC014603A809F001FCE2
:10139000204609F09BFB09A809F098FB284609F0B4
:1013A00095FB06A809F092FB434844490C96ADF81A
:1013B000346009F0D0FA059B9E4212D2314603A850
:1013C00009F025FD3038C1B208290DD80A223A4863
:1013D000A95509F068FB3848394909F0BCFA0136CB
:1013E000E9E74FF0000801E04FF0010835493248C5
:1013F00009F0CCFA00263048304909F0ACFA0F96D3
:10140000ADF84060BB19D97A64290DD80A222A4860
:10141000A15509F048FB01362748294909F09BFAF4
:10142000062EEFD1002600E001262348254909F0C9
:10143000ADFA2148B8F1000F07D0234909F0A6FA08
:10144000224803211A4A00231AE03EB1204909F03C
:101450009DFA1E480321164A012311E01D4909F097
:1014600095FA29461C4801F0D3FE21461A4802F09D
:10147000CFFA194802F0FAFA14480D4A0321022360
:1014800007F094FD03A809F021FB03E00A48134983
:1014900009F07CFA124B06481A88002112B0BDE808
:1014A000F0410AF01FBD12B0BDE8F0811D00002020
:1014B000A918002027F50008CC1C00203D140108C5
:1014C0009902010851F5000855F50008C31C0020D9
:1014D0008CF50008C7F50008FB1B002016F6000875
:1014E00022180020554B2DE9F74F1B788046002B22
:1014F00000F0A180524E0025F278042100950123CE
:10150000FFF710F8002800F089804E494E4809F096
:101510003DFA4D4809F0DAF84C4B02221A704C4C57
:10152000337A4C48237002F0B7FA2746064650B982
:101530004949454809F02AFA4848032122783346A8
:1015400007F0B8FD6EE02B4645484649464A00255F
:101550001D545D549D540133062B81468A469346A3
:10156000F2D12C463A78C4F1070342FA03F3DB07C1
:10157000E6B22BD5012309F804300AF804300BF841
:1015800004303146334802F047F93146314802F021
:10159000FDF931462F4801F0F1FE31462D4801F0AA
:1015A000B5FF31462B4802F07DF83146294802F05C
:1015B0007DFA2E4A0023AB502D4A2348AB502D4ACA
:1015C0002D49AB502D4AAB5009F0E0F90134062CFF
:1015D00005F10405C6D140460021FEF7F5FF284A73
:1015E00000231370274A01241360274A27491370E8
:1015F000274A15481370274A1370274A1370274A41
:101600001370274B1C7009F0C1F9144803213A7874
:10161000234607F04FFD03F05DFA03E00A48214935
:1016200009F0B4F9204B06481A88002103B0BDE840
:10163000F04F0AF057BC03B0BDE8F08F1D0000204A
:10164000A918002034F60008CC1C002057180020F0
:1016500055180020FB1B002061F60008C31C002069
:10166000E817002058180020F11B0020D81B00208C
:101670007C1700200818002005FB0008F017002048
:10168000F01B0020481B002054180020BBF6000867
:10169000901B0020341B0020181A0020A0180020E6
:1016A000A8180020FFF600082218002010B50446F4
:1016B000FEF7BAFE102860D8DFE800F0282D3209C6
:1016C0000E13181D373C41464B5022555A002046F8
:1016D000BDE81040FFF72EB82046BDE81040FFF7E8
:1016E0007BB82046BDE81040FFF7C0B82046BDE8F3
:1016F0001040FFF717B92046BDE81040FFF748B982
:101700001E481F49BDE8104009F040B92046BDE819
:101710001040FFF771B92046BDE81040FFF7D4B97B
:101720002046BDE81040FFF709BA2046BDE810404A
:10173000FFF792BA2046BDE81040FFF745BB2046B0
:10174000BDE81040FFF72ABC2046BDE81040FFF777
:10175000D5BC2046BDE81040FFF708BD2046BDE8D7
:101760001040FFF797BD2046BDE81040FFF7D4BDFD
:101770002046BDE81040FFF7B5BE10BDCC1C0020D0
:101780001DF700082DE9F74F444D002682462E80B4
:1017900008F0E8F9424B01271968344601919B464D
:1017A000404808F0AFFF002806DD0199DBF8002073
:1017B00001F6B8339A4222D308F0D4F9062C69D145
:1017C00039483A4909F0E2F836B9394B1B788BB100
:1017D0005046FFF76BFF0DE028880023801BDAB22C
:1017E000F4188242E4B203F10103EEDA31490C5DF0
:1017F0008C54F4E703B0BDE8F04F08F0B3B9B5F886
:101800000090284809F101022A8008F027FFDFF83C
:10181000A4802B8808F80900434413F8011C102207
:10182000214809F040F924491F4809F094F81D485F
:1018300008F068FF002802DC042009F0EDFB2B888B
:10184000B3F5967F02D3154B00221A8047B12B883F
:1018500008EB030212F8012CFE2AA1D15E1EF6B29B
:101860002B88434413F8013C0D2B02D1E3070BD422
:1018700004E00A2B0AD114F0010309D00134E4B2C8
:10188000062C99D000278BE70124FBE70024F9E719
:101890001C46F7E703B0BDE8F08F00BF2218002018
:1018A0001C1E0020E41C0020CC1C00203BF700087C
:1018B0001C000020A91800209902010808B51D206D
:1018C000002109F017FB1D20012109F079FB1020F0
:1018D000002109F00FFB1120002109F00BFB1C2057
:1018E000002109F007FB1120002109F069FB1C20F1
:1018F000012109F065FBBDE808401020002109F036
:101900005FBB0000014808F05BBF00BFE41C002083
:1019100008B561B100211C2009F052FB962009F0A6
:101920007BFBBDE808401C20012109F049BB08BD34
:1019300008B500211D2009F043FB0C4808F043FFC7
:101940000220002109F0D6FA0320002109F0D2FA82
:101950000220002109F034FB0320002109F030FBB4
:10196000BDE808401C20002109F02ABBE41C00202F
:1019700010B50B78452B12D14B78522B0FD18B78A9
:10198000CC78303B03EB8303303C04EB4304E4B2FC
:1019900021460A22034809F08FF8204610BD0A208C
:1019A00010BD00BFCC1C00200B784F2B07D148780E
:1019B0004B2804D113704B780120537070470020DE
:1019C000704700002DE9F04190B00E4601A865492E
:1019D0001C46904609F0BCF8624904A809F0B8F822
:1019E000604907A809F0B4F82046002104220AF053
:1019F00079FAE023A370E37035460027AB1B43451B
:101A00003AD229780A220DA809F0DEF80DA901A81A
:101A100009F026F90DA809F059F815F8013B2C2B0F
:101A200028D0303BDBB2092B98BF05F8013C15F8F4
:101A3000011C57B92D2902D14B484C4909E00DA88A
:101A40000A2209F0C1F804A80DE02D2906D1464864
:101A5000474908F09BFFF023E370CFE70DA80A2267
:101A600009F0B2F807A80DA909F0FAF80DA809F0D5
:101A70002DF8C3E70127C1E73E490AA809F068F835
:101A80000AA90DA809F085F801A90DA809F02DF9FA
:101A90000146354808F070FF0DA809F017F80AA8AC
:101AA00009F014F834490DA809F052F80DA92E4890
:101AB00008F044FF0DA809F009F8A3782A48F02B94
:101AC00001D12E4903E0E02B0CBF26492C4908F038
:101AD00042FF04A90DA809F05CF82A490DA809F0F5
:101AE00011F90146204808F047FF0DA808F0EEFF65
:101AF00025490DA809F02CF80DA91B4808F01EFF78
:101B00000DA808F0E3FFE3781748F02B01D11B493B
:101B100003E0E02B0CBF1349194908F01CFF07A98B
:101B20000DA809F036F80DA8164909F0EBF80146A2
:101B30000D4808F021FF0DA808F0C8FF04A809F01F
:101B4000C6F9207007A809F0C2F9607007A808F06C
:101B5000BDFF04A808F0BAFF01A808F0B7FF10B055
:101B6000BDE8F08105FB0008CC1C002075F70008DB
:101B700082F7000890F700089BF700083C0801086E
:101B8000A6F70008B3F70008BAF70008F8B54C78D4
:101B9000432C08D18C78532C05D1CC78B4F1510565
:101BA0006C426C4100E000240026F5B24F5D013626
:101BB0003A2FFAD10135EDB200279542FEB207F176
:101BC000010706D811F805C0013501F806C0EDB2CD
:101BD000F3E73CB92046C2B2B2420BD20A5C1A54B7
:101BE0000130F8E7069A022412681470721ED2B20D
:101BF000FFF7E8FE0120F8BD37B5154809B91549CA
:101C000000E0154908F0A7FE642009F005FA002459
:101C10000F4808F077FD0028E5B208DD062C14D047
:101C20000B4808F01BFD0DF804000134F0E755B136
:101C30009DF802304F2B08D19DF80300B0F14B0303
:101C40005842584102E0284600E0002003B030BD71
:101C5000E41C0020C6F70008CAF7000810B50121EF
:101C600004461D2009F0ACF907484FF4165108F05E
:101C7000A7FD20460121FFF74BFE20460121BDE8CC
:101C80001040FFF7B9BF00BFE41C00202DE9F04170
:101C90009EB005AD0C4607460021904628466422BA
:101CA00003930AF01FF921462C4808F054FE6420E3
:101CB00009F0B2F90024294808F024FD0028E6B212
:101CC00007DD642C45D0254808F0C8FC28550134B0
:101CD000F1E726B92249234808F058FE39E09DF87B
:101CE00014300D2B35D19DF815300A2B31D11EAB98
:101CF000334413F8653C0A2B2BD1023E1EAB334410
:101D000013F8643C0D2B24D10021CCB2A31CDBB210
:101D1000B34201F1010107DA1EAA134413F8643C2F
:101D2000144404F8643CF0E738462946FFF720FEE7
:101D30000A280CD103AB0093384629462246434675
:101D4000FFF724FF00280CBF0320022002E001203F
:101D500000E003201EB0BDE8F08100BFE41C0020BD
:101D6000D0F70008CC1C00202DE9F041B2B00646A7
:101D70000D4690460021642268461F460AF0B2F8DC
:101D800019A8002164220AF0ADF80024E3B2E85C4F
:101D9000013420B132AA134403F8640CF6E701467B
:101DA000CAB25D1818F80240EDB232AA01312A44D5
:101DB00014B102F8644CF3E70D2302F8643C6B1C89
:101DC00032A8DBB203442F480A2203F8642C0368CC
:101DD00019A95B6898472C48AA1C036819A99B6835
:101DE000D2B29847642009F017F9274808F08AFC16
:101DF0000028E5B208DD642C3FD0234808F02EFC13
:101E00000DF804000134F0E7002D36D09DF80030C5
:101E10000D2B32D19DF801300A2B2ED132AB2B4441
:101E200013F8C93C0A2B28D1023D32AB2B4413F8DE
:101E3000C83C0D2B21D100218B1CDBB2AB4201F140
:101E4000010209DA32A8034413F8C83CC9B20144BC
:101E500001F8C83C1146EFE730466946FFF788FDB8
:101E60000A2808D1304669463A46FFF79DFD80F0C2
:101E70000100C0B202E0012000E0032032B0BDE862
:101E8000F08100BFCC1C0020E41C0020F7B51E46EA
:101E9000044617460D4600218DF80710FFF7ACFEEB
:101EA00007F060FE204631462FB12A460DF10703A8
:101EB000FFF7ECFE03E0089A2B46FFF755FF0328D7
:101EC0002AD8DFE800F011040207002311E01648C9
:101ED000164901E01448164908F058FD2046012132
:101EE000FFF78AFE00201CE012490F4808F04EFD63
:101EF00012E09DF807205E1CDBB29A420A4809D91D
:101F0000E95C102208F0CFFD07480B4908F023FDDB
:101F10003346EEE708F024FD20460121FFF76CFE72
:101F2000012003B0F0BD00BFCC1C0020E4F7000886
:101F3000F5F70008FEF70008990201082DE9F043C3
:101F40008BB004AF804600210922384602AE00243F
:101F500009F0C8FF0094404631460122454BFFF787
:101F600095FF054620B94449444808F00FFD7DE03F
:101F70002346F25C07AC092A01D8303204E0A2F112
:101F80000A01052998BF3732E2540133082BF0D1FA
:101F90004FF000093A488DF8249000F099FE02466F
:101FA00000284AD03749354808F0F0FC3448394613
:101FB00000F0FCFD00283BD04B46E15CFA5C91420E
:101FC00048D10133082BF8D12F492C4808F0DEFC0A
:101FD0002E492A4808F0BFFC9DF81610274808F043
:101FE000B5FC9DF81710254808F0B0FC9DF81410BA
:101FF000224808F0ABFC9DF81510204808F0A6FC1C
:102000009DF812101D4808F0A1FC9DF813101B4804
:1020100008F09CFC9DF81010184808F097FC9DF8FB
:102020001110164808F092FC144808F099FC1DE0C5
:102030001749124808F0AAFC07E0009440463146D0
:10204000144BFFF723FF054680B121460C4800F0F2
:10205000FDFD0AE01049094808F098FC0097404649
:10206000314600220B4BFFF711FF054628460BB007
:10207000BDE8F08314F800081FF80008CC1C00200D
:10208000FA1B00203FF80008C7F80008F1F8000824
:102090005DF8000881F800088AF800082DE9F04F83
:1020A00089B002AF07F10C068346894690461C466C
:1020B000304600210A2209F015FF002C50D1C7F844
:1020C00004D05846CDF80080314601224B46FFF738
:1020D000DDFE824608B1214606E04049404808F04E
:1020E00055FC3F483F496FE0CCB218F8043001314D
:1020F000002BF9D1E11D01F4FC71ADEB010D02A93A
:10210000D8B2A04203D2F05CC8540133F8E70B46C2
:10211000581AC0B2A0420DD213F8010B092801D8F9
:10212000303004E0A0F10A05052DF1D8373003F86E
:10213000010CEDE70025EBB2A34243D24B5D013524
:1021400008EB050010F8010C9842F4D02649244809
:1021500008F01CFC2248254908F018FC7B689D46C5
:102160006C460023DAB219F8021001330A29F9D1BA
:10217000931D03F4FC73ADEB030DA2F1020E02AB51
:102180000020C1B2551EA94200F1010003DA19F87E
:1021900001505D54F5E700223D215A55584603F899
:1021A0000E10CDF800803146FFF770FE054628B9C5
:1021B0000B480F4908F0EAFBAA4601E04FF0010A7C
:1021C000A54605E006480B4908F0E0FB7B689D4604
:1021D00050461C37BD46BDE8F08F00BFFFF8000831
:1021E000CC1C002025F9000849F90008A0F90008D6
:1021F000E2F9000817FA00082DE9F0438BB00DF161
:1022000018090F2204460D464846002109F06AFECF
:102210009348944908F0BAFB4FF00A0807F0A2FC73
:10222000002D40F0CC802046FFF788FE8E498DF8C7
:1022300018008E4A2B462046FFF730FF2B468DF8BC
:1022400019008B4920468B4AFFF728FF8A4E8DF8EC
:102250001A003378012B26D0022B0BD18749884AEC
:1022600020462B46FFF71AFF86498DF81B00864A49
:10227000204623E08549684608F06AFC694603A8C1
:1022800008F087FC317803A808F04EFD804908F07B
:1022900039FD0146724808F06FFB03A808F016FCF0
:1022A000684608F013FC75497A4A20462B46FFF72A
:1022B000F5FE7449784A8DF81B0020462B46FFF73F
:1022C000EDFE764B8DF81C001B78342B03D1204695
:1022D0007349744A04E0122B09D17149724A2046AD
:1022E0000023FFF7DBFE06278DF81D0000E0052721
:1022F0006E4800F03DFC7E1CF1280AAA1744F6B295
:1023000020466B4908D16B4A0023FFF7C7FE6A4994
:1023100007F8100C524807E0564A0023FFF7BEFEAC
:10232000664907F8100C4E4808F030FB6449654ACE
:1023300000232046FFF7B2FE0AAB334403F8100C2B
:102340006149604A00232046FFF7A8FE731C0AAAD1
:10235000DBB2134403F8100C5C49564A00232046B4
:10236000FFF79CFEB31C0AAADBB2134403F8100C5F
:102370005749584A00232046FFF790FEF31C0AAA4B
:10238000DBB2134403F8100C5349544A002320468F
:10239000FFF784FE331D0AAADBB2134403F8100CC6
:1023A0004F4900232046334AFFF778FEB71D053614
:1023B000F6B20AAB1E44FFB206F8100C0EE03B4822
:1023C00000F0D6FBF1283A4920460CBF394A294A89
:1023D0000023FFF763FE01278DF81800002319F88A
:1023E0000320AAB93F491E4808F0D0FA2046FFF75B
:1023F00035FC2046FFF79CFA07F0B4FB2046FFF7B8
:102400002DFC4FF4FA6008F007FE07F0ABFB04E088
:102410000133DAB2BA42E2D31EE0334808F072F96F
:10242000002803DD304808F019F9F6E708F1FF3815
:1024300018F0FF087FF4F2AE2C49094808F0A6FA1C
:102440002B49074808F0A2FA40F6B83008F0E4FD3E
:1024500007F088FB07F0BAFB0BB0BDE8F08300BFC4
:10246000CC1C00203FFA00086EFA00087AFA000837
:1024700083FA000880FA0008F71B00208DFA000894
:10248000B7FA0008A2FA0008C0FA0008C9FA000862
:10249000E4FA000899FA0008AEFA0008F91B0020D7
:1024A000FBFA000806FB000809FB0008FA1B0020E5
:1024B0000CFB000816FB000819FB000826FB0008AF
:1024C00033FB00083DFB000840FB00084AFB000806
:1024D00054FB00085DFB000860FB00086AFB000875
:1024E0006DFB000877FB0008E41C002094FB00084B
:1024F000C0FB00081520012108F062BD1520002155
:1025000008F05EBD10B500210446152008F0F2FC6D
:102510001520012108F054FD2046BDE81040FDF7CC
:102520002BBF7FB505460E46FFF7E8FF0D24331994
:102530002146284613F80D2C0134FDF74DFF162CCB
:10254000F5D13046092105F0E1FC06462146284632
:102550003246FDF741FF0D2421462846FDF70EFFC8
:1025600001AB23440134162C03F80D0CF4D101A85F
:10257000092105F0CBFCB04203D0FFF7BBFF0020E0
:102580000DE028460B21FDF7F9FE552804D028461A
:102590000B215522FDF720FFFFF7ACFF012004B00F
:1025A00070BD7FB505460E46FFF7A8FF1724331907
:1025B0002146284613F8172C0134FDF70DFF202C77
:1025C000F5D13046092105F0A1FC064621462846F2
:1025D0003246FDF701FF172421462846FDF7CEFEBF
:1025E00001AB23440134202C03F8170CF4D101A8CB
:1025F000092105F08BFCB04203D0FFF77BFF0020E0
:102600000DE028460C21FDF7B9FE552804D02846D8
:102610000C215522FDF7E0FEFFF76CFF012004B00E
:1026200070BDF0B585B001AD06460F4628460021C5
:10263000092209F057FC0D2421463046FDF79EFE85
:102640002B190134162C03F80D0CF5D12146304618
:10265000FDF794FE09210446284605F057FC844204
:1026600006D10023EA5CFA540133092BFAD101E0C8
:10267000002000E0012005B0F0BDF0B585B001AD4F
:1026800006460F4628460021092209F02BFC172494
:1026900021463046FDF772FE2B190134202C03F839
:1026A000170CF5D121463046FDF768FE0921044696
:1026B000284605F02BFC844206D10023EA5CFA543C
:1026C0000133092BFAD101E0002000E0012005B020
:1026D000F0BD37B50C461E210546FDF74FFE1F2104
:1026E0008DF804002846FDF749FE02218DF805000B
:1026F00001A805F00BFC207003B030BD10B50B2114
:102700000446FDF73BFE88B1FFF7F8FE20460022A5
:102710000B21FDF761FEFFF7EDFE20460B21FDF7D3
:102720002DFED0F1010038BF002010BD012010BDEA
:1027300010B50C210446FDF721FE88B1FFF7DEFE3F
:10274000204600220C21FDF747FEFFF7D3FE20466E
:102750000C21FDF713FED0F1010038BF002010BDA1
:10276000012010BD10B521210446FDF707FE5528B4
:1027700011D0FFF7C3FE204655222121FDF72CFE84
:10278000FFF7B8FE20462121FDF7F8FDB0F1550313
:102790005842584110BD012010BD08B52121FDF758
:1027A000EDFDB0F155035842584108BD70B50446DF
:1027B0000D46FFF736FF20B120462946FFF75DFFA3
:1027C00048BB20462946FFF72CFF48B1154916485B
:1027D00008F0DCF820462946BDE87040FFF7E1BE6E
:1027E00020462946FFF749FF06460F4846B10F49E4
:1027F00008F0CCF820462946BDE87040FFF791BEAE
:102800000B4908F0C3F82046FFF778FF2046FFF792
:102810008FFF304670BD0749034808F0B7F8012024
:1028200070BD00BFE9FB0008CC1C002020FC0008A4
:1028300057FC00086BFC0008F8B504460E462F252F
:1028400073192046294613F82F7CFDF797FD874220
:1028500003D10135342DF3D136E0FFF74FFE2F259C
:1028600073192946204613F82F2C0135FDF7B4FDC6
:10287000342DF5D10521304605F048FB07462946A1
:1028800020463A46FDF7A8FD2F2520462946FDF7AC
:1028900075FD731913F82F3C834217D10135342D80
:1028A000F3D120462946FDF769FDB8420ED12046F6
:1028B0003521FDF763FD552804D0204635215522EA
:1028C000FDF78AFDFFF716FE0120F8BDFFF712FEA7
:1028D0000020F8BDF7B505460E462F2421462846B0
:1028E000FDF74CFD00AB23440134342C03F82F0CCE
:1028F000F4D10521684605F009FB21460746284624
:10290000FDF73CFD874207D100231DF80320F25458
:102910000133052BF9D101E0002000E0012003B0D4
:10292000F0BD73B505462F2421462846FDF726FD48
:1029300000AB23440134342C03F82F0CF4D1684647
:10294000052105F0E3FA214606462846FDF716FD67
:10295000331A5842584102B070BD38B50546FFF7EA
:10296000CDFD2F2428462146FDF708FD68B12846F5
:1029700021460022FDF730FD28462146FDF7FEFCEA
:1029800018B1FFF7B7FD002038BD0134342CE9D170
:1029900028463521FDF7F2FC20B1284635210022DA
:1029A000FDF71AFDFFF7A6FD012038BD37B50D462E
:1029B0008DF8071036210446FDF7E0FC85422BD048
:1029C00002ADFFF79BFD15F8012D20463621FDF7DE
:1029D00003FD0121284605F099FA372102462046D9
:1029E000FDF7FAFC20463621FDF7C8FC9DF80730BC
:1029F00083420DD120463821FDF7C0FC552804D074
:102A0000204638215522FDF7E7FCFFF773FD03E070
:102A1000FFF770FD002000E0012003B030BD36213B
:102A2000FDF7ACBC37B536210546FDF7A7FC02AB78
:102A300003F8010D1846012105F068FA3721044614
:102A40002846FDF79BFC231A5842584103B030BD7D
:102A500010B536210446FDF791FC88B1FFF74EFD15
:102A6000204636210022FDF7B7FC20463621FDF72F
:102A700085FC18B1FFF73EFD002010BDFFF73AFDC1
:102A8000012010BD10B548210446FDF777FC5528FC
:102A900011D0FFF733FD204655224821FDF79CFC5D
:102AA000FFF728FD20464821FDF768FCB0F15503EB
:102AB0005842584110BD012010BD10B54D210446AB
:102AC000FDF75CFC552810D0FFF718FD2046552275
:102AD0004D21FDF781FCFFF70DFD20460021FDF79C
:102AE0004DFC003018BF012010BD012010BD0000BA
:102AF00037B58DF807101031C9B20129044629D81D
:102B00004C21FDF73BFC9DF80730834228D002ADF5
:102B1000FFF7F4FC15F8012D20464C21FDF75CFC75
:102B20000121284605F0F2F94E2102462046FDF724
:102B300053FC20464C21FDF721FC9DF807308342D1
:102B400005D12046FFF7B9FFFFF7D4FC08E0FFF7F7
:102B5000D1FC03E00448054907F018FF002000E01D
:102B6000012003B030BD00BFCC1C00209BFC00083E
:102B700037B54C210446FDF701FC02AB03F8010D0B
:102B80001846012105F0C2F94E2105462046FDF701
:102B9000F5FB854202D19DF8070004E02046F021B4
:102BA000FFF7A6FFF02003B030BD0000F7B50546E3
:102BB0000E464F2421462846FDF7E0FB00AB234498
:102BC0000134572C03F84F0CF4D10821684605F066
:102BD0009DF9214607462846FDF7D0FB87420CD1D8
:102BE00000231DF80320F2540133082BF9D10448C7
:102BF000044907F0CBFE012000E0002003B0F0BD47
:102C0000CC1C0020D1FC000810B558210446FDF76B
:102C1000B5FB552808D0FFF771FC204658215522F6
:102C2000FDF7DAFBFFF766FC10BD10B5582104462E
:102C3000FDF7A4FB40B1FFF761FC204658210022BC
:102C4000FDF7CAFBFFF756FC10BD0000F7B50F46B5
:102C50000546FFF753FC3846082105F057F94F2485
:102C600006463B192146284613F84F2C0134FDF740
:102C7000B3FB572CF5D1214628463246FDF7ACFB75
:102C80004F2421462846FDF779FB00AB234401344D
:102C9000572C03F84F0CF4D16846082105F036F99B
:102CA000864206D02846FFF7C0FFFFF723FC00202E
:102CB00007E00549054807F069FE2846FFF7A4FF2D
:102CC000012003B0F0BD00BFE6FC0008CC1C0020D2
:102CD00008B55821FDF752FBB0F155035842584151
:102CE00008BD10B57F210446FDF748FB55280AD0E2
:102CF000FFF704FC20467F215522FDF76DFBFFF70F
:102D0000F9FB002010BD012010BD38B50C467E2116
:102D10000546FDF733FBA04208D0FFF7EFFB28463E
:102D20007E212246FDF758FBFFF7E4FB012038BD6A
:102D30007E21FDF723BB10B581210446FDF71EFB64
:102D400055280AD0FFF7DAFB204681215522FDF7EE
:102D500043FBFFF7CFFB002010BD012010BD38B5AD
:102D60000C4680210546FDF709FBA04208D0FFF77D
:102D7000C5FB284680212246FDF72EFBFFF7BAFB54
:102D8000012038BD8021FDF7F9BA70B504460E4622
:102D90001546FFF7B3FB204632462221FDF71CFB08
:102DA000204623212A46FDF717FBFFF7A3FB70BD42
:102DB000FDF7E4BAFDF7E2BA70B504460E461546D3
:102DC000FFF79CFB204632462421FDF705FB2046F9
:102DD00025212A46FDF700FBFFF78CFB70BD10B5DF
:102DE0000446FFF78BFB204655225921FDF7F4FAE4
:102DF000FFF780FB20465921FDF7C0FAB0F15503DB
:102E00005842584110BD08B55921FDF7B7FAB0F145
:102E100055035842584108BD10B50446FFF76EFBF4
:102E2000204600225921FDF7D7FAFFF763FB204621
:102E30005921FDF7A3FAD0F1010038BF002010BDE1
:102E400073B5002305460E4600930193FFF756FB2A
:102E50005A2433192146284613F85A2C0134FDF719
:102E6000BBFA622CF5D13046082105F04FF8064632
:102E7000214628463246FDF7AFFA5A242146284615
:102E8000FDF77CFA00AB23440134622C03F85A0CA2
:102E9000F4D10821684605F039F80446FFF72AFB0B
:102EA000B442064804D1064907F070FD012003E052
:102EB000044907F06BFD002002B070BDCC1C00205F
:102EC000FBFC000829FD000838B5094905460948FA
:102ED00007F05CFD5A2421462846FDF74FFA064BC1
:102EE0001A190134622C02F85A0CF4D1184638BD74
:102EF0005AFD0008CC1C0020FE1B002073B50023E7
:102F000005460E4600930193FFF7F8FA6324331940
:102F10002146284613F8632C0134FDF75DFA6B2C2B
:102F2000F5D13046082104F0F1FF0646732128460A
:102F30003246FDF751FA632421462846FDF71EFA72
:102F400000AB234401346B2C03F8630CF4D108214B
:102F5000684604F0DBFF0446FFF7CCFAB4420648AB
:102F600004D1064907F012FD012003E0044907F0EF
:102F70000DFD002002B070BDCC1C002092FD0008A9
:102F8000C0FD000870B50E46742104461546FDF7D5
:102F9000F5F9B04205D120467521FDF7EFF9A842B9
:102FA00019D0FFF7ABFA204674213246FDF714FA28
:102FB000204675212A46FDF70FFAFFF79BFA2046B7
:102FC0007421FDF7DBF9B0420BD120467521FDF7E6
:102FD000D5F9A84205D10649064807F0D7FC0120DB
:102FE00070BD0549034807F0D1FC002070BD00BF4B
:102FF00038FE0008CC1C00205AFE000810B504461C
:10300000FFF77CFA204674210022FDF7E5F92046FF
:1030100075210022FDF7E0F9FFF76CFA20467421D4
:10302000FDF7ACF920B920467521FDF7A7F928B1C5
:103030000549064807F0AAFC002010BD04490348D2
:1030400007F0A4FC012010BD7CFE0008CC1C002071
:103050009FFE000870B50E467A2104461546FDF71E
:103060008DF9B04205D120467B21FDF787F9A842B2
:1030700019D0FFF743FA20467A213246FDF7ACF922
:1030800020467B212A46FDF7A7F9FFF733FA2046B1
:103090007A21FDF773F9B0420BD120467B21FDF771
:1030A0006DF9A84205D10649064807F06FFC0120DA
:1030B00070BD0549034807F069FC002070BD00BFE2
:1030C0006CFF0008CC1C002098FF000838B57A215E
:1030D0000546FDF753F97B2104462846FDF74EF9D6
:1030E00000EB042038BD000070B50E467821044680
:1030F0001546FDF743F9B04205D120467921FDF789
:103100003DF9A84219D0FFF7F9F920467821324657
:10311000FDF762F9204679212A46FDF75DF9FFF7B0
:10312000E9F920467821FDF729F9B0420BD1204674
:103130007921FDF723F9A84205D10649064807F091
:1031400025FC012070BD0549034807F01FFC002045
:1031500070BD00BF1E000108CC1C00204A00010801
:1031600038B578210546FDF709F979210446284646
:10317000FDF704F900EB042038BD000070B50E46E1
:103180007C2104461546FDF7F9F8B04205D12046EA
:103190007D21FDF7F3F8A84219D0FFF7AFF92046DB
:1031A0007C213246FDF718F920467D212A46FDF79D
:1031B00013F9FFF79FF920467C21FDF7DFF8B042B5
:1031C0000BD120467D21FDF7D9F8A84205D106494B
:1031D000064807F0DBFB012070BD0549034807F0F6
:1031E000D5FB002070BD00BFD0000108CC1C002022
:1031F0000001010838B57C210546FDF7BFF87D21A7
:1032000004462846FDF7BAF800EB042038BD00005C
:1032100070B506460D46FFF771F9002404F18201EE
:103220002A5D30460134FDF7D7F8062CF6D1FFF7BA
:1032300061F90349034807F0A9FB012070BD00BFF5
:1032400092010108CC1C0020052902D88231FDF72B
:1032500095B8002070470000F0B5052A89B00646F1
:103260000D46144617D92F4902A807F071FC02A990
:1032700005A807F08EFC214605A807F055FD01467C
:10328000294807F079FB05A807F020FC02A807F001
:103290001DFC002044E004F144077F00FFF72EF9F5
:1032A000304639462A0A8DF80550FDF795F89DF805
:1032B00005203046791CFDF78FF81C4902A807F05D
:1032C00047FC02A905A807F064FC214605A807F001
:1032D0002BFD174907F016FD0146134807F02EFB9A
:1032E00005A807F0F3FB02A807F0F0FB0A22294625
:1032F00002A807F07AFC02A905A807F04AFC0D49CC
:1033000005A807F0FFFC0146074807F035FB05A8B4
:1033100007F0DCFB02A807F0D9FBFFF7EBF8012070
:1033200009B0F0BDF7010108CC1C00200A02010819
:10333000140201082D020108052937B5054606D9F2
:103340000C4B0D48194407F021FB00200FE04431DD
:103350004C002146FDF712F8611C8DF80400284648
:10336000FDF70CF89DF8043040EA032080B203B06A
:1033700030BD00BF3D020108CC1C002030B505293E
:1033800087B005462CD84C00E4B2FFF7B7F82846C2
:1033900004F188010022FDF71FF80022284604F1FD
:1033A0008901FDF719F81049684607F0D1FB694615
:1033B00003A807F0EEFB610803A807F0BFFC0B4968
:1033C00007F0A0FC01460A4807F0D6FA03A807F068
:1033D0007DFB684607F07AFBFFF78CF8012000E0E0
:1033E000002007B030BD00BF520201085C02010896
:1033F000CC1C0020F0B5052A89B006460D461446BF
:1034000017D92E4902A807F0A3FB02A905A807F0C7
:10341000C0FB214605A807F087FC0146284807F0B5
:10342000ABFA05A807F052FB02A807F04FFB0020FB
:1034300042E004F14A077F00FFF760F83046394662
:103440002A0A8DF80550FCF7C7FF9DF80520304685
:10345000791CFCF7C1FF1B4902A807F079FB02A900
:1034600005A807F096FB214605A807F05DFC164964
:1034700007F048FC0146124807F060FA05A807F07B
:1034800025FB02A807F022FB0A22294602A807F022
:10349000ACFB02A905A807F07CFB0C4905A807F0C6
:1034A00031FC0146064807F067FA05A807F00EFB55
:1034B00002A807F00BFB012009B0F0BD8302010850
:1034C000CC1C00200A0201089B020108AE02010880
:1034D000052970B5064605D90A490B4807F056FA82
:1034E000002070BD4C00E4B204F19401FCF746FFEB
:1034F00004F1950105463046FCF740FF40EA0520FF
:1035000080B270BDC1020108CC1C002030B5052975
:1035100087B005460C4605D919481A4907F036FA0E
:1035200000202BE06400E4B2FEF7E8FF284604F137
:1035300094010022FCF750FF0022284604F1950177
:10354000FCF74AFF1049684607F002FB694603A8EA
:1035500007F01FFB610803A807F0F0FB0B4907F019
:10356000D1FB0146064807F007FA03A807F0AEFAB8
:10357000684607F0ABFAFEF7BDFF012007B030BD8B
:10358000CC1C0020D702010852020108EE020108FB
:1035900070B5052A86B006460C46154617D92D4942
:1035A000684607F0D5FA694603A807F0F2FA2946FB
:1035B00003A807F0B9FB0146274807F0DDF903A887
:1035C00007F084FA684607F081FA002040E05500D1
:1035D000EDB2FEF793FF304605F1A001220AFCF799
:1035E000FBFEE2B2304605F1A101FCF7F5FE1B49F6
:1035F000684607F0ADFA694603A807F0CAFA6908F9
:1036000003A807F09BFB164907F07CFB0146124814
:1036100007F094F903A807F059FA684607F056FA3C
:103620000A222146684607F0E0FA694603A807F037
:10363000B0FA0C4903A807F065FB0146064807F0FD
:103640009BF903A807F042FA684607F03FFA012009
:1036500006B070BD12030108CC1C00200A0201084C
:103660002B0301083E030108052970B5064605D95C
:103670000A490B4807F08AF9002070BD4C00E4B2FB
:1036800004F1A001FCF77AFE04F1A10105463046E1
:10369000FCF774FE40EA052080B270BD52030108B9
:1036A000CC1C002070B5052986B005460C4605D90E
:1036B00019481A4907F06AF900202AE004F1500677
:1036C0007600FEF71BFF284631460022FCF784FEF9
:1036D00000222846711CFCF77FFE1149684607F05E
:1036E00037FA694603A807F054FA214603A807F001
:1036F0001BFB0C4907F006FB0146074807F03CF9A5
:1037000003A807F0E3F9684607F0E0F9FEF7F2FED8
:10371000012006B070BD00BFCC1C00206903010869
:103720005202010884030108F0B5052A89B0064653
:103730000C46154605D91D481D4907F027F90020FC
:1037400032E0FEF7DBFE230C8DF8043005EB450775
:10375000230A8DF806408DF80530AC37002401AB04
:1037600039191A5D30460134FCF736FE032CF6D1C8
:10377000104902A807F0ECF902A905A807F009FA18
:10378000294605A807F0D0FA0B4907F0BBFA014615
:10379000064807F0F1F805A807F098F902A807F025
:1037A00095F9FEF7A7FE012009B0F0BDCC1C002062
:1037B000690301080A020108A9030108052973B574
:1037C00006464FF0000405D91148124907F0DEF80B
:1037D00020461AE001EB4101ADF804408DF80640A7
:1037E00001F1AC0529193046FCF7C8FD01AB1855AD
:1037F0000134032CF6D19DF805009DF80440000229
:103800009DF8063040EA0440184302B070BD00BF86
:10381000CC1C0020D2030108F0B5052987B006466C
:103820000C4605D919481A4907F0B0F800202AE0DB
:10383000FEF764FE04EB440505F1AF07AC352946FD
:10384000304600220135FCF7C7FDBD42F7D11149D2
:10385000684607F07DF9694603A807F09AF9214602
:1038600003A807F061FA0C4907F04CFA0146074833
:1038700007F082F803A807F029F9684607F026F94F
:10388000FEF738FE012007B0F0BD00BFCC1C0020C1
:10389000D203010852020108ED030108F0B5052A20
:1038A00089B006460C46154605D91D481D4907F046
:1038B0006DF8002032E0FEF721FE230C8DF8043075
:1038C00005EB4507230A8DF806408DF80530BE3715
:1038D000002401AB39191A5D30460134FCF77CFD38
:1038E000032CF6D1104902A807F032F902A905A865
:1038F00007F04FF9294605A807F016FA0B4907F01B
:1039000001FA0146064807F037F805A807F0DEF887
:1039100002A807F0DBF8FEF7EDFD012009B0F0BDCD
:10392000CC1C0020170401080A0201083304010816
:10393000052973B506464FF0000405D91148124910
:1039400007F024F820461AE001EB4101ADF80440ED
:103950008DF8064001F1BE0529193046FCF70EFD31
:1039600001AB18550134032CF6D19DF805009DF8E4
:10397000044000029DF8063040EA0440184302B0BB
:1039800070BD00BFCC1C00205D040108F0B5052906
:1039900087B006460C4605D919481A4906F0F6FFC5
:1039A00000202AE0FEF7AAFD04EB440505F1C1075B
:1039B000BE352946304600220135FCF70DFDBD42DB
:1039C000F7D11149684607F0C3F8694603A807F024
:1039D000E0F8214603A807F0A7F90C4907F092F98F
:1039E0000146074806F0C8FF03A807F06FF86846CD
:1039F00007F06CF8FEF77EFD012007B0F0BD00BFB8
:103A0000CC1C002079040108520201089604010828
:103A100070B506460D46FEF771FD002404F1D00195
:103A20002A5D30460134FCF7D7FC062CF6D1FEF7B0
:103A300061FD0349034806F0A9FF012070BD00BFE6
:103A4000C1040108CC1C0020052908B504D8BDE834
:103A50000840D031FCF792BC0249034806F096FFBB
:103A6000002008BDF3040108CC1C002010B504465A
:103A7000FEF744FD20465522D621FCF7ADFCFEF7AB
:103A800039FD0349034806F081FF012010BD00BF46
:103A90003F050108CC1C002008B5D621FCF76EFCC0
:103AA000B0F155035842584108BD000030B5052912
:103AB00087B005460C4605D91548164906F066FF3D
:103AC000002023E0FEF71AFD0022284604F1D7016A
:103AD000FCF782FC1049684607F03AF8694603A8EB
:103AE00007F057F8214603A807F01EF90B4907F025
:103AF00009F90146064806F03FFF03A806F0E6FF75
:103B0000684606F0E3FFFEF7F5FC012007B030BD84
:103B1000CC1C0020C2050108520201084D06010814
:103B20007FB532490546324806F030FF304806F08E
:103B3000CDFD06F017F841F2883007F06DFA06F077
:103B400011F82B4806F0DEFD00280ADD284806F0B3
:103B500085FDC1B2274807F088F8022007F05CFA1B
:103B6000EFE7244CA668002E34D0204607F0A3F9D6
:103B700021461F4806F000FF1F4901A806F0E8FF94
:103B800001A9204607F004F9064601A806F09EFFA9
:103B90001748EEB1194906F0F9FE1949204607F019
:103BA00002F828462121FCF7E9FB40B1FEF7A6FC0C
:103BB000284621210022FCF70FFCFEF79BFC28463B
:103BC0002121FCF7DBFBD0F1010038BF00200AE027
:103BD0000C4901E006480C4906F0D8FE2046084989
:103BE00006F0E1FF304604B070BD00BFAD0601082D
:103BF000CC1C0020701C0020FE06010802070108F2
:103C000005FB00083807010863070108002202606D
:103C100042607047006820B103688B4201D0806821
:103C2000F9E7704770B504460C2016460D4607F0BC
:103C300047FE00228260226880E860000AB92060A6
:103C400001E062689060606070BD10B51446FFF7D7
:103C5000E1FF08B14460012010BD08B5FFF7DAFFAD
:103C600000B1406808BD01F51C414131FFF7DABFE2
:103C700001F51C414131FFF7E8BF01F51C4141311D
:103C8000FFF7EBBF002A01F1010114BF4FF47F429F
:103C90000022FFF7C7BF002A01F51C5101F11101F5
:103CA00014BF4FF47F420022FFF7BCBF01F5EA4189
:103CB0003131FFF7B7BF002A01F1010114BF4FF402
:103CC0007F420022FFF7C1BF002A01F51C5101F11C
:103CD000110114BF4FF47F420022FFF7B6BF01F578
:103CE000EA413131FFF7B1BF08B50131FFF7B5FF48
:103CF000B0F57F435842584108BD01F51C5108B545
:103D00001131FFF7AAFFB0F57F435842584108BD73
:103D100001F5EA413131FFF7A0BF000070B504465C
:103D20000D4609480949164606F030FEA06807F01E
:103D3000CFFD0220207307F0C3FD803D0323A06068
:103D400005704670637370BDCC1C002086070108A7
:103D5000F8B5531E7C2B04460F46164602D90321A4
:103D60000A4617E001F51C414131FFF753FF18B92E
:103D70002046032102220DE0A06807F0A9FD701C77
:103D80004000C0B2207307F09BFDA06030B9204610
:103D900003210422BDE8F840FFF7C0BF03230370EE
:103DA000237B0025023B4370E9192046FFF765FF9E
:103DB000A3680135020A03F81520A368B54203EB96
:103DC00045035870F0D103236373F8BD70B5044602
:103DD0000E461546FFF74CFF18B920460621022271
:103DE00008E020463146FFF748FFA84206D02046AB
:103DF00006210422BDE87040FFF790BF02236373E1
:103E000070BD2DE9F8431F4616467A1E7A2A0446ED
:103E100088469DF8203002D8B3EB470F03D02046E8
:103E2000102103221CE006F51C45413505EB07096E
:103E300020462946FFF7EEFE18B92046102102223F
:103E40000EE001354D45F3D1A06807F041FD052096
:103E5000207307F035FDA06030B920461021042200
:103E6000BDE8F843FFF75ABF10230370330A4370CD
:103E7000002307718670C37008F106053744BE42FF
:103E800005F102050BD015F8022C15F8013C31465E
:103E9000204643EA0222FFF7EBFE0136EFE7032359
:103EA0006373BDE8F8832DE9F843531EB3F5FA6F49
:103EB00004460F46154602D30121032219E00131C1
:103EC000FFF7A8FE18B920460121022211E0A068E0
:103ED00007F0FEFCC5F3C7036A070CBF02330333C8
:103EE0002373207B07F0ECFCA06030B92046012151
:103EF0000422BDE8F843FFF711BF01230370237BC1
:103F000005EB0708023B43703E46002546451CD0A2
:103F100031462046FFF7E8FEC7F10109B1444FEAF8
:103F2000D909012109F10203A268A94010B1D05CAE
:103F3000014302E0D05C20EA01010135EDB2082D19
:103F4000D15408BF00250136E0E703236373BDE8C1
:103F5000F88300002DE9F843531EB3F5FA6F0446C9
:103F60000F46154602D3022103221FE001F51C5122
:103F70001131FFF74FFE18B920460121022215E04A
:103F80002249234806F002FDA06807F0A1FCC5F312
:103F9000C7036A070CBF023303332373207B07F088
:103FA0008FFCA06030B9204602210422BDE8F8430E
:103FB000FFF7B4BE02230370237B05EB0708023B27
:103FC00043703E46002546451CD031462046FFF74B
:103FD00094FEC7F10109B1444FEAD909012109F161
:103FE0000203A268A94010B1D05C014302E0D05C9A
:103FF00020EA01010135EDB2082DD15408BF00259A
:104000000136E0E703236373BDE8F883A9070108DD
:10401000CC1C0020F8B5531E7C2B04460F461646D8
:1040200002D90421032217E001F5EA413131FFF7FB
:10403000F1FD18B92046012102220DE0A06807F029
:1040400047FC701C4000C0B2207307F039FCA06030
:1040500030B9042120460A46BDE8F840FFF75EBEAD
:1040600004230370237B0025023B4370E91920469B
:10407000FFF74EFEA3680135020A03F81520A36876
:10408000B54203EB45035870F0D103236373F8BDC9
:1040900070B5B2F57F4F86B004460E4603D012B11C
:1040A0000521032215E0151C18BF012520463146C5
:1040B0002A46FFF700FE18B920460521022208E033
:1040C00020463146FFF710FEA84205D020460521C4
:1040D0000422FFF723FE17E00C49684606F038FD7E
:1040E000694603A806F055FD094903A806F00AFE33
:1040F0000146084806F040FC03A806F0E7FC6846C5
:1041000006F0E4FC0223637306B070BDD307010818
:10411000EB070108CC1C00202DE9F0438BB00446CE
:10412000894604A86C49DF081D46164606F010FDB6
:1041300004A907A806F02DFD394607A806F008FED9
:104140000146664806F018FC07A806F0BFFC04A864
:1041500006F0BCFC6B0705F1FF3318BF0137B3F560
:10416000F66F03D29DF84830BB4207D05C495B48EC
:1041700006F00CFC20460F2103224DE0771C07EBD4
:10418000050820463946FFF745FD18B920460F219E
:10419000022241E001374745F3D15048514906F02A
:1041A000F5FB0627504901A806F0D2FC01A904A896
:1041B00006F0EFFC394604A806F0CAFD4B4906F0AC
:1041C000A1FD102219F80710804607A806F0FCFC94
:1041D00007A9404606F089FD0146404806F0CCFBA1
:1041E00007A806F073FC04A806F070FC013701A8CC
:1041F00006F06CFC102FD5D13A49384806F0C6FBC2
:10420000A06807F065FB0520207307F059FBA0604C
:1042100028B920460F210422FFF780FD58E00F2324
:104220000370330A43702B0A8670C37005712D49E1
:104230002A4806F0ABFB06272B4901A806F088FCAC
:1042400001A904A806F0A5FC394604A806F080FDE3
:10425000264906F057FD102219F80710804607A8D6
:1042600006F0B2FC07A9404606F03FFD01461B4898
:1042700006F082FB07A806F029FC04A806F026FC3D
:10428000013701A806F022FC102FD5D1134815499B
:1042900006F07CFB3544B0460027C6EB080309EB6B
:1042A000D3039A7941463A410137FFB2204602F0E2
:1042B0000102FFF700FD08F10108082F08BF0027E1
:1042C000A845EAD105480A4906F060FB0323637359
:1042D0000BB0BDE8F08300BFFD070108CC1C002037
:1042E0000F0801083D14010828080108F6F200082B
:1042F0002F0801082DE9F0418B784F788CB0CE78EB
:1043000043EA07270B7991F800800C46054654498B
:1043100003A843EA062606F01BFC03A909A806F039
:1043200038FC1022217806A806F04EFC06A909A840
:1043300006F0DBFC01464B4806F01EFB06A806F023
:10434000C5FB09A806F0C2FB03A806F0BFFB46495F
:1043500003A806F0FDFB03A909A806F01AFC102229
:10436000394606A806F053FC06A909A806F0BDFCCC
:1043700001463C4806F000FB06A806F0A7FB09A88A
:1043800006F0A4FB03A806F0A1FB384903A806F039
:10439000DFFB03A909A806F0FCFB1022314606A8A2
:1043A00006F035FC06A909A806F09FFC01462D4839
:1043B00006F0E2FA06A806F089FB09A806F086FBDB
:1043C00003A806F083FB08F1FF330F2B3FD8DFE88B
:1043D00003F01D230E292F083E3E3E3E3E3E3E3E4C
:1043E0003514284639463246FFF7F0FC34E02846BB
:1043F00039463246FFF7ACFC2EE06379284600933D
:1044000021463A463346FFF7FCFC25E0284639466C
:104410003246FFF748FD1FE0284639463246FFF78F
:1044200099FD19E0284639463246FFF7F3FD13E0BF
:10443000284639463246FFF72BFE0DE063792846C1
:10444000009321463A463346FFF766FE04E02846CD
:1044500041460122FFF762FC0CB0BDE8F08100BFCD
:104460003E080108CC1C00204A0801085408010835
:1044700010B50446FFF7CAFB204610BD80F828108F
:104480000120704770B5049E0161C661044615465F
:1044900008461146DAB206F057F94FF4FA6006F012
:1044A000BBFD002E08DBF6B23046002106F022FDEF
:1044B0003046002106F084FDB5F5964F06DD40F24A
:1044C000EE23236240F2D663636207E0044B93FB62
:1044D000F5F32362034B93FBF5F56562012070BD94
:1044E000C0E1E400C00E160270B50446C06986B093
:1044F00000280D4606DBC0B2012106F061FD012057
:1045000006F08AFD0023227B5E1CDBB29A421FD993
:10451000194A1068411C1160E95C184A1154D15CB9
:104520006846102206F050FB694603A806F031FBEE
:10453000134903A806F0E6FB0146124806F0FEF90F
:1045400003A806F0C3FA684606F0C0FA3346DAE775
:104550000D490C4806F01AFA206903689B699847D0
:10456000606A06F067FDE069002803DBC0B2002145
:1045700006F026FD06B070BD1C1C0020081C0020A3
:1045800099020108CC1C00205E090108F0B5C9435E
:104590000B4EC9B2705C0B4DC0436C5CC0B20021C5
:1045A000AC46CFB2BB4207D0555C01314540705D8F
:1045B00060401CF80540F4E744EA0020F0BD00BF6D
:1045C0005E0801080E0A01082DE9F0410D78037B11
:1045D000FF2D01EB030204460E4612F8028C12F87E
:1045E000017C03D090F82820AA4219D1A268033B8D
:1045F000204612F8011BDBB2FFF7C8FF47EA082785
:10460000874202D00A480B490CE02046711CFFF794
:1046100071FEFF2D4FF0010007D16073BDE8F081FE
:104620000348054906F0B2F90020BDE8F08100BF5B
:10463000CC1C002086090108B2090108F8B504461F
:10464000C0690F46002806DBC0B2012106F0B8FCA5
:10465000012006F0E1FC194D19491A4806F096F9B7
:10466000194E2B6894F828105A1CF154237B2A60A9
:104670000022D0B298420AD2286800F1010EC5F893
:1046800000E017F802E0013206F800E0F1E7A26866
:104690002046FFF77BFF2B68020AF2541E449A1C47
:1046A0007070606A2A6006F0C5FCE069002803DBD0
:1046B000C0B2002106F084FCF8BD00BF1C1C002025
:1046C000E2090108CC1C0020081C0020D2B238B539
:1046D00004460D460273002A3ED02049204806F0C9
:1046E00055F9207B07F0ECF80023A060227B591CD1
:1046F000DBB29A4204D9E85CA268D0540B46F5E7D5
:104700001748184906F042F90025237B9D4207D23D
:10471000A3681348595D102206F0CEF90135F4E77D
:1047200010490F4806F032F92046A168FFF74CFF08
:1047300068B1637B032B04D12046A168FFF77EFF9D
:1047400005E0022B03D12046A168FFF7CDFEA0684B
:1047500007F0BEF80023237338BD00BF020A01082A
:10476000CC1C00203508010808B5032004F04AFEDF
:10477000014B01221A7008BD291C002070B55E484B
:104780000D46097803F0C6FD697806465A4803F0DD
:10479000C1FD06EB8606594C06EB860600EB86004B
:1047A000E080A978544803F0B5FD6071E97852487B
:1047B00003F0B0FD207129794F4803F0ABFD697912
:1047C000A0704D4803F0A6FDA97960704A4803F037
:1047D000A1FD4B4920704B4806F0BDF8E1880A2244
:1047E000484806F048F94849464806F0B4F8617967
:1047F0000A22444806F060F94449424806F0ABF802
:1048000021790A223F4806F057F941493D4806F010
:10481000A2F8A1780A223B4806F04EF93D493948F2
:1048200006F099F861780A22364806F045F93A49C7
:10483000344806F090F80A222178324806F03CF914
:1048400005F012F9642006F0E7FB2046FBF736FD81
:104850000146324804F0F4FC642006F0DDFB05F06C
:1048600009F92E4804F0EFFC01462046FBF79AFCBC
:10487000E1886423B1FBF3F1C9B21F4803F041FDA5
:104880002870E2884FF47A73B2FBF3F103FB112135
:104890001948C9B203F035FD68706179164803F014
:1048A00030FDA8702179144803F02BFDA178E87041
:1048B000114803F026FD617828710F4803F021FDAF
:1048C000217868710C4803F01CFD0024A871295D53
:1048D00010220C4806F0E7F801340A48104906F0A7
:1048E0003AF8072CF3D1074806F03AF8BDE87040D3
:1048F00004480C4906F04AB8BD1C0020201C0020CA
:104900000E0B0108CC1C0020150B01081D0B010823
:10491000230B01082A0B0108340B01082A1C002074
:10492000990201083E0B010870B51B4886B0FBF7E1
:10493000C5FC1A4C054605F097F80A2006F06CFBFA
:104940002946204604F07CFC204604F07CFC144DF3
:1049500014492A688618684606F0FAF8694603A8DA
:1049600006F017F9296803A806F0F2F901460E4887
:1049700006F002F803A806F0A9F8684606F0A6F8C3
:104980000A493246204604F060FC0A2006F044FB47
:1049900005F070F806B070BD201C00202A1C002015
:1049A000A4180020610B0108CC1C002069470008F6
:1049B0000148112104F03BBC2A1C0020084B1A6856
:1049C00001321A601A68B2F5615F04D300221A60DE
:1049D000044B01221A70044B1A6801321A607047A6
:1049E000301C00207D1C00202C1C002070B50F4CBA
:1049F0002368013323600E4B1D7855B10D4825689F
:104A0000FEF7AEFB0A23584385420ED300232360F2
:104A100008E008482668FEF759FB0A2358438642F7
:104A200003D32560044B01221A7070BD341C002092
:104A30004D1B0020071C0020C21C002010B5084C94
:104A40000849204605F005FF20460121064A05F0E9
:104A50001FFF20460021BDE8104005F0F1BE00BF59
:104A6000C41D0020A0860100ED49000810B5084CC7
:104A70000849204605F0EDFE20460121064A05F0D2
:104A800007FF20460021BDE8104005F0D9BE00BF59
:104A9000CC1D002040420F00BD49000810B5054C58
:104AA000204605F0BFFE20460021BDE8104005F07D
:104AB000C7BE00BFC41D002010B5054C204605F040
:104AC000B1FE20460021BDE8104005F0B9BE00BF90
:104AD000C81D002010B5064C204605F0A3FE204658
:104AE000002105F0ADFE034B00221A6010BD00BF8F
:104AF000CC1D00202C1C0020014805F08BBE00BFFF
:104B0000C41D0020014805F085BE00BFC81D00205F
:104B100008B5034805F07EFE024B00221A6008BD6E
:104B2000CC1D00202C1C0020114B70B51A78F2B15E
:104B300000221A70FFF7E0FF0E4B0F4A1978156834
:104B400016461C4651B133685B1BB3F5FA6F03D2AE
:104B50000A48FCF717FEF6E70023237001210848F6
:104B60000A4604F0D5F8BDE87040FFF797BF70BD66
:104B7000C21C0020351B00201C1E002078170020BE
:104B8000C31C0020F8B5314802F0EEFF304C314D27
:104B900020702E4803F032F806462C4803F08EF8B9
:104BA00030442860FF21002006F02BFAFF2100206E
:104BB00006F027FA284B22781978914207D01A700C
:104BC000264B0122264827491A7005F0DFFE264BA6
:104BD0002A681968254C914206D01A6020480123A2
:104BE0002349237005F0D2FE2A68224B02B101222C
:104BF0001A7023782BB9194B1B7813B91E4B1B78ED
:104C000013B31E4B1E4A1978166817461D4651B13C
:104C10003B689B1BB3F5FA6F03D21A48FCF7B2FD51
:104C2000F6E700232B7018490D4805F0AFFE0B4A3C
:104C300000231370104A01211370237013480A4691
:104C4000BDE8F84004F064B8F8BD00BF7F1C002048
:104C5000381C0020481C0020431C0020441C00205D
:104C6000CC1C0020EF0B01083C1C0020401C002045
:104C7000020C01084D1B00206F1C0020351B00207A
:104C80001C1E002078170020150C0108C31C0020F2
:104C9000F0B59A4B8BB01D781E46002D40F029814F
:104CA000ECB2052122469648FEF7D6FA4FF4617120
:104CB00022469348FEF79EFB40F26B312246904815
:104CC000FEF766FC40F2DC5122468D48FEF72CFDD3
:104CD00001358B4840F214512246FEF7DFFD062DC8
:104CE000DED1884C69462068A38800908448ADF8DE
:104CF0000430FEF78DFA54F8060F02A9A38802903B
:104D00007F48ADF80C30FEF783FE00257E4904A8ED
:104D1000ECB205F01DFF04A907A805F03AFF2146F3
:104D200007A806F001F8794905F0ECFF214607468F
:104D30007348FEF701FB0146384605F0FFFF0146C8
:104D4000734805F019FE07A805F0C0FE04A805F099
:104D5000BDFE6D4904A805F0FBFE04A907A805F0F7
:104D600018FF214607A805F0DFFF6A4905F0CAFFD2
:104D7000214607466248FEF7ABFB0146384605F080
:104D8000DDFF0146624805F0F7FD07A805F09EFE2D
:104D900004A805F09BFE5C4904A805F0D9FE04A90F
:104DA00007A805F0F6FE214607A805F0BDFF5A4901
:104DB00005F0A8FF214607465148FEF755FC01467D
:104DC000384605F0BBFF0146514805F0D5FD07A860
:104DD00005F07CFE04A805F079FE4B4904A805F017
:104DE000B7FE04A907A805F0D4FE214607A805F0E0
:104DF0009BFF4A4905F086FF214607464048FEF7DB
:104E0000DDFC0146384605F0A3FF0146404805F0A9
:104E1000B3FD07A805F05AFE04A805F057FE3A496D
:104E200004A805F095FE04A907A805F0B2FE2146E6
:104E300007A805F079FF3A4905F064FF21460746C7
:104E40002F48FEF775FD0146384605F081FF014603
:104E50002F4805F091FD07A805F038FE04A805F0DD
:104E600035FE294904A805F073FE04A907A805F03A
:104E700090FE214607A805F057FF2A4905F042FF9A
:104E8000214607461E48FEF7DFF90146384605F081
:104E90004BFF01461E4805F06FFD07A805F016FE02
:104EA00004A805F013FE184904A805F051FE04A952
:104EB00007A805F06EFE214607A805F035FF1A4940
:104EC00005F020FF214607460D48FEF7BDFD0146CF
:104ED000384605F029FF01460D4805F04DFD07A8AD
:104EE00005F0F4FD013504A805F0F0FD062D7FF472
:104EF0000DAF012333700BB0F0BD00BFF01B0020DD
:104F0000FB1B0020E30B010858020108660C010896
:104F1000CC1C00207B0C0108900C0108A50C01089A
:104F2000BE0C0108D70C0108EC0C010810B5064CAA
:104F30000649204605F00CFE20460549054ABDE815
:104F4000104006F08BB900BF701C002005FB000864
:104F5000CDAA00080800002030B54A4885B0FDF70A
:104F60001CFC002846D1484B484918704548FDF7BD
:104F7000D8FA28B143484549FDF713FB002877D1FB
:104F80004048FDF765FD20B13E48FDF7E6FC0028EE
:104F900073D101238DF804303A48002301A98DF81C
:104FA00005308DF806308DF807308DF80830FDF7A4
:104FB00043FC18B13648374905F0E8FC3148012177
:104FC000FDF7F4FC18B13248334905F0DFFC3349F2
:104FD0002F4805F0DBFC32492D4805F0D7FC09E0ED
:104FE000304CA368EBB92F482C4905F0DCFD2E4866
:104FF000FCF7C8FB2348FDF7D0FB002833D104F0B1
:10500000B1FD234805F07EFB0028E9DD204805F0CE
:1050100025FBC1B2234805F028FE022005F0FCFF65
:10502000EFE7204605F047FF2146194805F0A4FCAC
:105030001E4901A805F08CFD204601A905F0A8FE37
:10504000054601A805F042FD55B11449204605F07A
:10505000AAFD0F48164905F099FC164803F0B2F96D
:1050600004F080FDBFE7084B01221A7005B030BD87
:105070001149074805F08AFC82E71049044805F009
:1050800085FC86E7FD1B00201D000020511C002030
:10509000CC1C0020210D01085E0D010805FB000855
:1050A0009A0D0108701C00207817002000070108E5
:1050B000DD0D0108C31C0020200E0108540E01085C
:1050C00070B504F04FFD194B1B7843BB70BD184CF5
:1050D00018482678184D731C237005F0BFFAA855A0
:1050E000022005F099FF2378132B0CD904F03AFD28
:1050F000002612491248267005F048FC2846314621
:10510000142206F0EFFE23780D481D4415F8011C0B
:10511000102205F0C8FC0A480A4905F01CFC0548A5
:1051200005F0F0FA0028D2DC70BD00BF501C002052
:10513000421C0020FC1C00205A1C00209B0E010871
:10514000CC1C0020CD0E010830B5B2488DB002F065
:10515000F4FEB14801F004FBB04B06201A684FF48E
:10516000FA6122F0E06242F080621A6004F0EAFC28
:10517000AB484FF4E13105F023FBAA484FF4165138
:10518000FCF7C0FB4FF41651A74805F019FB04F0DB
:105190005EFCA648FDF7B6F99E4802F071FF04F0E8
:1051A000E1FCA048FCF78AFB01219E48FCF724FDA6
:1051B0009F4D4FF4FA6005F02FFF012400239D4816
:1051C0002B70FCF7DFFA2C7004F0CCFC9A48F1212C
:1051D000FDF78EFC9848FDF784FD18B996482146E6
:1051E000FDF793FD9448FDF7A3FD944C944920707E
:1051F00003A805F0ADFC03A909A805F0CAFC10221C
:10520000217806A805F0E0FC06A909A805F06DFDC7
:105210000146834805F0B0FB06A805F057FC09A835
:1052200005F054FC03A805F051FC8348FDF783FD0D
:1052300018B981483421FDF792FD7F48FDF7A2FDA2
:10524000804C8149207003A805F082FC03A909A8BD
:1052500005F09FFC0A22217806A805F0B5FC06A9F6
:1052600009A805F042FD01466D4805F085FB06A83A
:1052700005F02CFC09A805F029FC03A805F026FC84
:1052800000216848FCF7B8FF6B48FDF7FBFB6F494E
:10529000634805F07BFB6E482221FDF78BFD052856
:1052A000054622D16A482321FDF784FD10280446D3
:1052B0001BD16849684605F04BFC694606A805F015
:1052C00068FC2246294603A805F08FFC03A906A81E
:1052D00005F00BFD604905F015FD21460546224607
:1052E00009A805F082FC28461FE010225848052135
:1052F000FDF74BFD5949684605F02AFC694606A8AA
:1053000005F047FC1022052103A805F06EFC03A957
:1053100006A805F0EAFC504905F0F4FC102104460B
:105320000A4609A805F061FC204609A905F0DDFC44
:1053300001463B4805F020FB09A805F0C7FB03A880
:1053400005F0C4FB06A805F0C1FB684605F0BEFBEE
:105350003F482421FDF72CFD0228044616D13C4885
:105360002521FDF725FD054680B93D4906A805F034
:10537000EFFB06A909A805F00CFC214609A805F0D9
:10538000DDFC354905F0BEFC294614E0002230481A
:105390000221FDF711FD334906A805F0D9FB06A946
:1053A00009A805F0F6FB022109A805F0C7FC2A4967
:1053B00005F0A8FC002105F0C1FC0146184805F0E5
:1053C000DBFA09A805F082FB06A805F07FFBFFF7D2
:1053D00077FE2548FEF7A4FBFFF7BEFD22482349D0
:1053E000FDF7E4F9002847D118490D4805F0CEFA39
:1053F0001F490B4805F0CAFA1E4803F0FBF80D4898
:10540000FCF7C0F940F6B83002F08EFF04F0AAFBBA
:10541000E4E700BFBC1C00207F1C0020040001400A
:10542000CC1C0020F81B0020FC1C0020061C0020C7
:105430001C00002078170020FA1B0020F71B00201A
:10544000CF0E0108F91B0020DE0E010805FB000845
:10545000FC1B00204B100108E4FC0008611001084F
:10546000AC100108C2100108FD1B0020511C0020D7
:10547000EB0E0108C31C00203549364805F086FABA
:105480003448354905F067FA0024344B1022195D81
:10549000304805F008FB01342E48314905F05BFA2D
:1054A000092CF2D12B4805F05BFA04F05BFBFFF707
:1054B000C5FAFFF7F3FA2B49264805F067FA2A499F
:1054C000244805F063FAFFF71DFB2849214805F041
:1054D0005DFA25491F4805F059FAFFF7C7FAFFF7AB
:1054E00017FB23491B4805F051FA1F49194805F0DD
:1054F0004DFA02221F48012103F094FB1E49154872
:1055000005F044FA1849134805F040FA1B4802F028
:105510002BFB1B4B18701B4B1870184802F06EFBCE
:10552000194B1A4918601A4B18600A4805F02EFAF0
:105530000D49084805F02AFA002105221548FDF713
:10554000D3FD00210A221348FDF784FD0DB030BDC4
:105550001F0F0108CC1C0020380F0108511C00202F
:1055600099020108420F010805FB00087F0F01089E
:10557000B60F0108C31C0020EE0F01087F1C00209D
:10558000431C0020381C00203C1C00200310010894
:10559000481C0020071C002070B588B0834805F027
:1055A000B1F800280ADD814805F058F8C1B28048FA
:1055B00005F05BFB022005F02FFDEFE77C4CA368B4
:1055C000002B00F0F180204605F075FC214677485D
:1055D00005F0D2F9774905A805F0BAFA204605A9E1
:1055E00005F003FC054605A805F070FA002D30D043
:1055F00020460021042205F045FC204605F067FC0A
:105600006D4C02462060C2F307216C48D2B2FDF710
:10561000B5FD10B165486A4901E06448694905F083
:10562000B5F96648FDF7E6FD6749206002A805F078
:105630008FFA02A905A805F0ACFA216805A805F0C3
:1056400087FB0146594805F097F905A805F03EFA91
:105650005EE05E4905A805F07BFA204605A905F045
:1056600097FB054605A805F031FA55B1584A4F4851
:10567000137883F0010313700BB156498EE056493D
:105680008CE0564905A805F063FA204605A905F007
:105690007FFB064605A805F019FA5EB1504943485C
:1056A00005F074F900954F4901224F4B4F48FCF724
:1056B000EDFB75E04E4905A805F04AFA204605A91C
:1056C00005F093FB054605A805F000FA25B3494906
:1056D000364805F05BF9484905A805F039FA05A9EF
:1056E000204605F0A5FBA368421C214602A805F050
:1056F000A3FB05A805F0EAF902A805F0E8FBC1B292
:105700003E48FDF702FB3D48FDF712FB3C4B18708D
:1057100002A805F0DBF943E03A4905A805F018FABC
:10572000204605A905F061FB054605A805F0CEF960
:1057300005B335491D4805F029F92F4905A805F09D
:1057400007FA05A9204605F073FBA368421C214611
:1057500002A805F071FB05A805F0B8F902A805F04C
:10576000B6FBC1B22548FDF7FAFA2448FDF70AFB5B
:10577000264BCCE7264905A805F0EAF9204605A9FD
:1057800005F006FB044605A805F0A0F924B117486A
:105790002946FCF731FD03E004481E4905F0F6F800
:1057A00003481D4905F0FFF908B070BDCC1C00206E
:1057B000701C00200D110108A4180020071C0020F7
:1057C000121101084A1101087C0B0108851101081A
:1057D000501C00208E110108AA110108C6110108F1
:1057E000CE110108BE1C0020EA110108F81B0020A0
:1057F000F41101080512010826120108FA1B002005
:10580000F71B00201912010828120108F91B0020BB
:105810003A1201084412010805FB00082DE9F04F77
:1058200087B0624804F06EFF00280ADD5F4804F08C
:1058300015FFC1B25E4805F018FA022005F0ECFB36
:10584000EFE75B4CA368002B00F0AC80204605F02E
:1058500032FB2146554805F08FF8564903A805F05C
:1058600077F9204603A905F093FA054603A805F049
:105870002DF9002D00F0948020464F4C4F4905F043
:1058800092F923684E4901334848236005F07EF8B9
:105890004C49684605F05CF9694603A805F079F9BA
:1058A000216803A805F054FA0146404805F064F861
:1058B00003A805F00BF9684605F008F93F493B4895
:1058C00005F064F8FFF724F9032003F09BFD3E4A3E
:1058D000002313703D4A3E4F13703E4A3B601370E5
:1058E0003D4A1D4613703D4A1E4613703C4AA3466E
:1058F00013703C4A13703C4A13703C4A13703C4A84
:1059000013703C4A13703C4B0024EC503B4BDFF8C7
:1059100014A1EC503A4BDFF81091EC50394BDFF802
:105920000C81EC50384BF0B2EC50384B0121EC506C
:10593000374B45F80A40F454364B45F80940F454C7
:10594000354B45F80840F454344B0435F4540136D3
:1059500002F068FA0C2ED6D1DBF8003013F0010308
:1059600013D02F48FDF746FC386014234AF8043062
:105970003C2349F804304FF6FF7348F804300434F0
:10598000302CF2D1FFF7A6F80AE03B6000224AF87B
:10599000032049F8032048F803200433302BF5D1C5
:1059A00004F0E0F807B0BDE8F08F00BFCC1C002089
:1059B000701C00206D1201084C1C002005FB000823
:1059C0006F120108B21201086E1C0020291C002071
:1059D000A41800207E1C0020461C00201A1A00205B
:1059E000451C0020411C0020401C00206F1C002092
:1059F0004C1B002020180020D8190020201A00205D
:105A0000941B0020501B0020F41A002034170020A3
:105A1000361B002094170020A01A00200C00002044
:105A2000071C002060180020A8170020B41A0020CE
:105A30002DE9F043804E87B016F800900446B9F186
:105A4000000F40F0F480DFF83C827C4F18F8003003
:105A5000002B00F08C807A4D7A4A2B6852F8202077
:105A60009342C0F08480012102F0DCF97649684657
:105A700008F8049005F06CF8694603A805F089F869
:105A8000214603A805F050F9704905F03BF901469D
:105A90006F4804F071FF03A805F018F8684605F098
:105AA00015F86B4804F012FE6A4B53F8242052B3E9
:105AB00001233B5568492B68684D41F824306846FE
:105AC0001344674945F8243005F042F8694603A8B5
:105AD00005F05FF8214603A805F026F9614905F0B5
