:020000040800F2
:1000000000C000207D790008617C0008657C000844
:10001000697C00086D7C0008717C0008C17C0008C8
:10002000C17C0008C17C0008C17C0008C17C0008BC
:10003000C17C0008C17C0008C17C00085181000817
:10004000C17C0008C17C0008C17C00085978000808
:10005000C17C0008C17C0008C17C0008C17C00088C
:10006000C17C0008C17C0008C17C0008C17C00087C
:10007000C17C0008C17C0008C17C0008C17C00086C
:10008000C17C0008C17C0008397D0008C17C0008E3
:10009000C17C0008C17C0008C17C0008C17C00084C
:1000A00099830008BD830008E183000819840008D3
:1000B0006D840008DD8400084D850008C17C0008BF
:1000C000C17C0008C17C0008C17C0008C17C00081C
:1000D000C17C00084588000899880008ED88000860
:1000E000C17C0008A1780008C17C00087586000862
:1000F00099860008BD860008F5860008897D0008FD
:10010000C17C0008C17C0008BD850008C17C0008D6
:1001100041890008958900082D860008518600084D
:10012000C17C0008C17C0008C17C0008C17C0008BB
:1001300010B5054C237833B9044B13B10448AFF321
:1001400000800123237010BD18170020000000005C
:10015000B4B8000808B5064B1BB106480649AFF312
:1001600000800648036813B1054B03B1984708BDEA
:1001700000000000B4B800081C1700201817002069
:1001800000000000012902D11C30C0B270470629CE
:1001900084BF01F1FF31C9B211F0010F14BF1E205D
:1001A0001F207047444B2DE9F047B1FBF3F603FBEA
:1001B00016113C23B1FBF3F203FB12120546027049
:1001C0004FF46160B1FBF0F200FB1211B1FBF3F3ED
:1001D0006B704FF4FA63AA70B6B2EB80EC884FF400
:1001E000C873B4FBF3F803FB18481FFA88F8B8F19A
:1001F000000F16D06423B4FBF3F203FB12439BB24F
:10020000002B53D014F0030140F26D130CBF4FF4D8
:10021000B7721A4696420EDB002908BF4FF4B77337
:1002200004E0B6F5B77F06DB4FF4B773F61A013476
:10023000B6B2EC80D2E700236B716423B4FBF3F712
:1002400003FB1747BFB2B8F1000F06D03FB114F05F
:10025000030F14BF0020012002E0012000E0384617
:1002600095F80590C0B24946FFF78CFF864209F128
:10027000010A15D3B8F1000F06D03FB114F0030FF7
:1002800014BF0020012002E0012000E03846C0B287
:100290004946FFF777FF301A86B285F805A0D2E706
:1002A00001362E7185F805A0BDE8F087B6F5B67F5A
:1002B000C1DD40F26D13B9E780510100F8B5427815
:1002C00087783C2303FB072702780579467903FBEF
:1002D0000727013D013EEDB2F6B2044605714671B5
:1002E000013E731CE38834D04FF4C872B3FBF2F1C3
:1002F00002FB113292B262B16422B3FBF2F002FB54
:10030000103080B230B113F0030F14BF0020012071
:1003100000E00120C0B2F1B2FFF734FF284485B2FB
:10032000DEE74FF4C872B3FBF2F102FB113292B276
:10033000AAB16422B3FBF2F102FB113292B28AB18C
:1003400013F0030F40F26D1208BF4FF4B77215445B
:10035000ADB2013B9BB2B3F5FA6FE2D205E04FF4C8
:10036000B772F4E740F26D12F1E7024800FB057046
:10037000F8BD00BF8051010006F0B2BA38B50D4695
:10038000044606F0C8FA290A49006039204601F0FF
:10039000FE0106F057FB204606F02DFBE9B2204691
:1003A00006F050FB204606F026FB204606F0B3FA86
:1003B0002046A12106F046FB204606F01CFB00214A
:1003C000204606F066FB0546204606F0F7FA204672
:1003D00006F0BCFA284638BD70B50D4616460446F0
:1003E00006F099FA290A49006039204601F0FE0119
:1003F00006F028FB204606F0FEFAE9B2204606F099
:1004000021FB204606F0F7FA3146204606F01AFB9B
:10041000204606F0F0FA204606F098FABDE8704053
:100420000A2009F045B8000008B5184A51789378B9
:1004300043EA0123A3F52043152B1CD8DFE803F082
:100440000B230D0F1B1B1B1B1B1B1B1B1B1B1B1B1E
:100450001B1113151719002008BD022008BD082024
:1004600008BD032008BD042008BD052008BD0620E6
:1004700008BD072008BD00214FF40072034809F0B1
:100480007DFF092008BD012008BD00BF38180020ED
:1004900010B5074C6018114606F02AF9054B1B7879
:1004A0001C4414F8073C1B1A5842584110BD00BFA9
:1004B00038180020481A0020084B18795B7943EA65
:1004C000002045F25553984205D04CF20303C31A5D
:1004D0005842584170470120704700BF381800202B
:1004E000044B9B79552B044B0CBF012200221A7040
:1004F000704700BF381800209D1A002010B5084C26
:10050000E379552B01D1012010BD064802F017F800
:10051000E3798342F7D0D0F1010038BF002010BD4D
:1005200038180020BB1D002013B50D4B1C7A552C2C
:1005300001D1012012E00B48694601F05BFF002366
:100540001A461DF803108C42F3D019B90132D2B209
:10055000052AEED00133052BF3D1002002B010BDE7
:1005600038180020BB1D002070B505461E46FFF759
:100570008FFF044640B91C4AD3781A441379D62B0E
:1005800002D01A481A492BE02846FFF795FF044687
:1005900078B12846FFF7A4FF2846FFF7AFFF0446CF
:1005A00070B96EB11349114808F0F8FB0F481249B1
:1005B00016E012490D4808F0F1FB0C4810490FE015
:1005C0002846FFF7B1FF044660B99DF810300BB91B
:1005D000012407E00B49054808F0E0FB03480A49FD
:1005E00008F0DCFB204670BD381800207C1E00207F
:1005F0006CD0000890D00008C7D0000810D00008C8
:100600003ED00008FED0000836D10008204B13B5BC
:100610001B78002B39D000230093042117220123DB
:10062000FFF7A2FF40B31B491B4808F0B7FB1A486D
:1006300008F054FA194B1C7A012C1AD1184A19489F
:10064000D97C147001F0E4FF48B117480F2122460D
:1006500006F030FC1548214601F0C6FB0CE01248BC
:100660001021022206F026FC11490B4808F096FBE7
:1006700002E00D4806F098FA0E4B08481A7800215F
:1006800002B0BDE8104009F079BE02B010BD00BF55
:100690000E0000206AD100087C1E002038180020BF
:1006A0000C000020B91D0020751E0020B81D002080
:1006B0008AD10008481A00201B4B13B51B78002B69
:1006C00030D00023009304210A220123FFF74CFFBE
:1006D000F8B11649164808F061FB154808F0FEF914
:1006E000144B0124144815491C7001F035FE38B133
:1006F00013490F4808F052FB12480321022206E07A
:1007000011490B4808F04AFB0E480421224606F026
:10071000D1FB0E4B0E481A78002102B0BDE8104004
:1007200009F02CBE02B010BD0E000020CED1000892
:100730007C1E00200C000020BB1D00204018002063
:10074000E6D10008751E002028D20008481A0020B3
:100750003818002037B50023009304210F22FFF73B
:1007600003FF58B32349244808F018FB234D2248BF
:1007700008F0B4F9224B0124224805F10A011C704B
:1007800001F05FFC68B31F4805F10A0101F099FC14
:1007900038B31D49184808F001FB1A48E97901F0FF
:1007A00095FEA0B11949144808F0F8FA1848052137
:1007B000224606F07FFB134801F064FD154B0F48FD
:1007C0001A78002103B0BDE8304009F0D7BD1249C6
:1007D000094808F0E3FA0E480621224606F06AFBB3
:1007E000ECE70E49044808F0D9FA0948062101222D
:1007F000F4E700BF6AD200087C1E002038180020F1
:100800000C000020BB1D002010D3000885D200087A
:10081000751E0020481A0020CBD200083DD30008E6
:1008200070B52E4B88B01B78002B54D02C4C002573
:10083000E278009504210123FFF796FE002841D0BD
:100840002849294808F0AAFA274808F047F9274B11
:10085000254827491D7008F0A1FAA67AE37A03EB30
:100860000626042E06D820482249052608F096FAC6
:10087000A572E672204902A808F09EFB02A905A80D
:1008800008F0DDFB314605A808F0C0FC014616481B
:1008900008F07AFA05A808F04DFB02A808F04AFB18
:1008A0001648A17AE27A02F097F918B90E4814496D
:1008B00008F074FA627B237B009212480021012227
:1008C00006F098FD104B06481A78002108B0BDE8E4
:1008D000704009F053BD08B070BD00BF0E0000208D
:1008E0003818002078D300087C1E00200C0000205F
:1008F00094D30008CDD30008F3D30008C51D002011
:1009000003D40008751E0020481A0020394B73B527
:100910001B78002B6CD000240094042105220123B5
:10092000FFF722FE00285AD03349344808F036FA3F
:100930003349324808F032FA304808F0CFF8314EE7
:10094000314A01233370137007F014FB03F0E2F90E
:10095000032006F061FF2D4B25461C702C4B1C70AC
:100960002C4B1C702C4B1C702C4B1C702C4B1C608B
:100970002C4B1C702C4B1C702C4B1C702C4B1C706B
:100980002C4B1C702C4B1C702C4B1C602C4B1C706B
:100990002C4A0023A3502C4AE8B2A3502B4A012131
:1009A000A3502B4AA3502B4AA3502B4AA3502B4AA7
:1009B000A3502B4AA3502B4AA3502B4A0434AB54C8
:1009C0002A4AAB542A4AAB542A4AAB54013505F0A3
:1009D0001BFE0C2DDCD10123337007F0CBFA264B24
:1009E00026481A78002102B0BDE8704009F0C6BC64
:1009F00002B070BD0E00002044D400087C1E002010
:100A000071D400080C000020B5170020221E002021
:100A1000E91D0020321E0020041E0020741D00204D
:100A2000E01A0020FE1D0020FA1D0020F81D002005
:100A3000231E0020B4170020B6170020001E00203F
:100A4000FF1D002074170020E41A0020781D0020EC
:100A5000F8170020B8170020241D00205C1A002081
:100A6000A01A002034170020641D0020381A00202E
:100A7000491A00200F000020481A002038180020D2
:100A80002DE9F0418A4B90B01B78002B00F00D81CE
:100A9000884C0025E278009504210123FFF764FDCE
:100AA000002800F0F9808449844808F077F98348E9
:100AB00008F014F807F05EFA814B627A1D70814BE2
:100AC00081491A70A27A814B7C481A7008F066F945
:100AD000237BE67A0BAD7E4908A803EB062608F0D7
:100AE0006BFA08A9284608F0AAFA3146284608F009
:100AF0008DFB0146714808F047F9284608F01AFABC
:100B000008A808F017FA7348E17A227B01F0DEFFAB
:100B1000064600284CD17049684808F03FF96F4BF1
:100B200001223046FF211A7008F0B7FCFF2107466A
:100B3000304608F0B2FC6A49064605A808F03CFABF
:100B400005A9284608F07BFA1022F9B208A808F097
:100B500099FA08A9284608F026FB0146574808F0EC
:100B600013F908A808F0E6F9284608F0E3F905A803
:100B700008F0E0F95B4905A808F01EFA05A9284627
:100B800008F05DFA1022F1B208A808F07BFA08A973
:100B9000284608F008FB0146484808F0F5F808A880
:100BA00008F0C8F9284608F0C5F905A808F0C2F908
:100BB00028460021142209F0E1FBE678093E142EB4
:100BC00001D8002305E03D48474908F0E7F8022234
:100BD00007E0B34204D2E218527BEA540133F8E74B
:100BE00003223E4BFF2100201A7008F056FCFF2123
:100BF0008046002008F051FC3949074602A808F059
:100C0000DBF902A908A808F01AFA10225FFA88F1A5
:100C100005A808F037FA05A908A808F0C4FA0146A3
:100C2000264808F0B1F805A808F084F908A808F0EB
:100C300081F902A808F07EF92A4902A808F0BCF957
:100C400002A908A808F0FBF91022F9B205A808F0DB
:100C500019FA05A908A808F0A6FA0146174808F0ED
:100C600093F805A808F066F908A808F063F902A847
:100C700008F060F91D482946324604F0E3FA637A29
:100C8000227B0093A37AE17A01931948012306F0AD
:100C9000AFF9184B01221A70174B06481A78002139
:100CA00010B0BDE8F04109F069BB10B0BDE8F081BB
:100CB0000E0000203818002081D400087C1E00207F
:100CC0000C0000205A1A0020ABD400085B1A002048
:100CD00001D50008C51D002011D50008761E002092
:100CE00052D500085ED500086AD50008331E0020E2
:100CF000751E0020F81D0020481A0020F0B54E4B4C
:100D000089B01B78002B00F094804C4E0023009398
:100D1000F27804210123FFF727FC494C002800F05A
:100D200086804849484808F039F8474807F0D6FE19
:100D3000464B1A780AB15B785BB94549424808F0DE
:100D40002DF800230093434840490122424B00F014
:100D5000C9FE424B727A1B78384D9A4267D1404B9C
:100D6000AA7A1B789A4262D101233E493648237001
:100D700008F014F82B7BEF7A05AC3B4902A803EB93
:100D8000072708F019F902A9204608F058F9394652
:100D9000204608F03BFA01462B4807F0F5FF2046B5
:100DA00008F0C8F802A808F0C5F8042F07D82648AC
:100DB0002E4907F0F3FF0023EB7205232B732C4819
:100DC000F17A327B01F0BEFE20B92A491E4807F0B5
:100DD000E5FF20E028491C4807F0E0FF274902A86A
:100DE00008F0EAF802A9204608F029F9204801F0A5
:100DF000E5FE0146204608F009FA0146124807F0D0
:100E0000C3FF204608F096F802A808F093F84FF4C4
:100E10007A7008F04DFB0023F218527BE254013344
:100E2000072BF9D11648214602F08AFD01E0002384
:100E3000237009B0F0BD00BF0E000020381800205C
:100E40000C000020BBD500087C1E0020721E002074
:100E5000E7D50008B81D002000D600085A1A002067
:100E60005B1A00200AD6000868D600087BD6000866
:100E7000C51D0020CFD6000813D7000835D70008BD
:100E8000E81D00202DE9F04F6B4B89B01B78002B3B
:100E900000F0CF80694E0024F278009404210123F1
:100EA000FFF762FB002800F0BB806549654807F04A
:100EB00075FF644807F012FE634F644A0123137004
:100EC0003B7007F057F802F025FF032006F0A4FC62
:100ED0005F4A604B1470604A1C7014705F4A604B2C
:100EE0001470604A1C7014705F4B604A1C70147060
:100EF0005F4B604A1C7014705F4B604A1C7014603A
:100F00005F4B604A1C6014702546BB469A465E4A99
:100F10000023A3505D4A5E4FA3505E4ADFF8A881CC
:100F2000A3505D4ADFF8A491A3505C4AE351A3505B
:100F30005B4AE8B2A3505B4A0121AB545A4A44F8D9
:100F40000830AB54594A44F80930AB54584A043479
:100F5000AB54013505F058FB0C2DD8D10123554871
:100F600096F8481096F849208BF8003001F070FE92
:100F700010B13448504901E03248504907F00EFFA3
:100F80004C4801F0A1FE4E49CAF8000002A808F042
:100F900013F802A905A808F052F8DAF8001005A81D
:100FA00008F034F90146274807F0EEFE05A807F0DF
:100FB000C1FF02A807F0BEFF06F0DCFF00221F4BB6
:100FC0001046114606EBD00494F84A400C41E40761
:100FD00014D59D7ADC7A04EB0524BC5093F82A5092
:100FE00093F82B4004EB052448F8024093F84C504A
:100FF00093F84D4004EB052449F802400131C9B291
:10100000082900F1010008BF00210C2803F10203A8
:1010100002F10402D6D10B4807F060FD02F05CFE3D
:10102000284B06481A78002109B0BDE8F04F09F0B6
:10103000A5B909B0BDE8F08F0E00002038180020D7
:1010400042D700087C1E00200C000020B5170020AD
:10105000FE1D0020221E0020FA1D0020F81D002089
:10106000E91D0020231E0020321E0020B41700209E
:10107000041E0020B6170020741D0020001E002052
:10108000E01A0020FF1D0020781D0020F817002026
:1010900074170020241D00205C1A0020A01A0020D4
:1010A00034170020641D0020381A0020491A00203F
:1010B0000F000020C51D00206FD70008B3D700081F
:1010C000B5E80008481A0020E41A0020B8170020EC
:1010D0002DE9F041754B98B01B78002B00F0E380B0
:1010E000734D0024EA78009404210123FFF73CFAB1
:1010F000002800F0C3806F496F4807F04FFE6E482C
:1011000007F0ECFC6D4B01266D4895F8221095F820
:1011100023201E7001F072FC20B96A49664807F06E
:101120003DFE00E026460024674963480FAF07F004
:1011300035FE2223384621461022049405948DF86A
:10114000103009F01BF933238DF83C302346EA18A0
:10115000927A04A95A540133082BF8D10023EA18D3
:10116000927CFA540133102BF9D1554801F0A4FBBD
:10117000002800F08C805248394601F0FBFB002823
:1011800000F0858051494C4807F008FE4C4801F0BA
:1011900062FB4F4805F066FBEC784748203CE4B220
:1011A0004C4907F0FBFD0A2C13D80023A34206AFDD
:1011B00005D2EA1892F82420FA540133F6E745499B
:1011C0003D4807F0EBFD44483946036822469B68DA
:1011D000984706F0CFFE4FF47A7008F069F90024C2
:1011E0003D4807F097FC00280DF14C080DDD3A480A
:1011F00007F03CFC08F8040001340B2CF0D12E4819
:10120000364907F0CBFD012421E004B3344909A895
:1012100007F0D2FE09A90CA807F011FF21460CA87F
:1012200007F0F4FF0146244807F0AEFD0CA807F0D4
:1012300081FE09A807F07EFE002718F807101E4857
:101240001022013707F040FEA742F6D10CE01A4801
:10125000244907F0A3FD34B11748234907F09EFD48
:101260000024042600E003266A7A2B7A8DE8040124
:1012700002941E483146012205F04EFF1C4B0C48DB
:101280001A78002118B0BDE8F04109F077B8194983
:10129000094807F083FD0A4801F0FAFA0C4805F006
:1012A000E1FA022678E718B0BDE8F0810E000020D0
:1012B00038180020FAD700087C1E00200C000020FF
:1012C000C51D002024D800085FD8000832D90008C6
:1012D000701E002083E50008AC1E002097D800088F
:1012E000ACD80008BFD80008F7D80008751E002049
:1012F000481A00206FD9000810B50446FFF794F88B
:10130000092839D8DFE800F024292E050A0F14191E
:10131000331E2046BDE81040FFF778B92046BDE8EF
:101320001040FFF7C9B92046BDE81040FFF712BAD8
:101330002046BDE81040FFF773BA2046BDE81040D4
:10134000FFF7E4BA0D480E49BDE8104007F026BD8E
:101350002046BDE81040FFF793BB2046BDE8104093
:10136000FFF7CCBC2046BDE81040FFF7B1BE2046D9
:10137000BDE81040FFF786BD10BD00BF7C1E0020F9
:10138000ACD900082DE9F043564B8BB01B68804662
:10139000554D06F0EFFD00214FF40072534808F060
:1013A000EDFF002452482C7007F0B4FB0A284F4E82
:1013B0002F467ED94E483146802207F0A9FD28707D
:1013C000C3B29C426BD2335D484DFE2B65D12B19C5
:1013D00093F80390474901A807F0EEFD01A907A87B
:1013E00007F02DFE1022494604A807F06EFE04A95E
:1013F00007A807F0D8FE01463F4807F0C5FC04A83F
:1014000007F098FD07A807F095FD01A807F092FDE9
:101410003B780B3B1B1B99453AD809EB04032B4443
:101420005A790D2A31D19A790A2A2ED1DA790D2AE0
:101430002BD11A7A0A2A28D15A7A0D2A25D19B7AD9
:101440000A2B22D12C482D4907F08DFCE4B200254F
:1014500009F10B0362199D42D2B210D2B15C284B44
:101460001022E954244807F026FD2348254907F0B7
:101470007AFC254B01351A7801321A70E8E71E48CC
:10148000224907F08BFC01240AE01B48204901E0B7
:101490001948204907F082FC01E0013490E700245C
:1014A000124800214FF4007208F068FF00233B70DF
:1014B00006E0304621464FF4007208F05FFF2C70C2
:1014C00006F058FD1CB14046FFF716FF07E00C4838
:1014D00021464FF4007208F051FF0B4B1C700BB00B
:1014E000BDE8F083CC1F00209C1A0020241B0020A4
:1014F000941E0020CAD900087C1E0020DAD90008FA
:101500003818002066E80008481A00204BDD000863
:10151000E8D9000813DA000808B51D20002107F0FB
:1015200035FF1D20012107F097FF1020002107F053
:101530002DFF1120002107F029FF1C20002107F0BA
:1015400025FF1120002107F087FF1C20012107F053
:1015500083FFBDE808401020002107F07DBF000098
:10156000014807F035BB00BF941E002008B561B1EB
:1015700000211C2007F070FF962007F099FFBDE8BE
:1015800008401C20012107F067BF08BD08B50021F5
:101590001D2007F061FF0C4807F01DFB0220002111
:1015A00007F0F4FE0320002107F0F0FE02200021E6
:1015B00007F052FF0320002107F04EFFBDE808406E
:1015C0001C20002107F048BF941E002010B50B78A6
:1015D000452B12D14B78522B0FD18B78CC78303BE6
:1015E00003EB8303303C04EB4304E4B221460A22BC
:1015F000034807F069FC204610BD0A2010BD00BF5B
:101600007C1E00200B784F2B07D148784B2804D143
:1016100013704B7801205370704700207047000012
:10162000F0B593B00F466846684916461C4607F069
:10163000C3FC664903A807F0BFFC06A8634907F08E
:10164000BBFC0025B5420DD2795D0A220FA807F038
:1016500019FD0FA9684607F061FD0FA807F06AFCA5
:101660000135EFE75A490CA807F0A6FC0CA968461B
:1016700007F031FE0022034669460FA807F02EFE50
:101680000FA903A807F0E5FC0FA807F053FC0CA86E
:1016900007F050FC4E490CA807F08EFC0CA96846D8
:1016A00007F019FE029B021D69460FA807F016FEFF
:1016B0000FA906A807F0CDFC0FA807F03BFC0CA86B
:1016C00007F038FC059B022B05D103A807F051FE5B
:1016D0003038C5B210E0042B30D103A807F049FE22
:1016E000642290FBF2F302FB1302303B303A03EB2F
:1016F000830302EB4305EDB2364909A807F05CFC11
:1017000009A90FA807F09BFC102229460CA807F096
:10171000B9FC0CA90FA807F046FD2F4907F050FDB2
:1017200001462E4807F030FB0CA807F003FC0FA879
:1017300007F000FC09A807F0FDFB2570089B022BB1
:1017400005D106A807F015FE3038C5B210E0042B0D
:1017500030D106A807F00DFE642290FBF2F302FBE5
:101760001302303B303A03EB830302EB4305EDB247
:101770001B4909A807F020FC09A90FA807F05FFC86
:10178000102229460CA807F07DFC0CA90FA807F031
:101790000AFD114907F014FD0146104807F0F4FA5C
:1017A0000CA807F0C7FB0FA807F0C4FB09A807F0B7
:1017B000C1FB657006A807F0BDFB03A807F0BAFBE4
:1017C000684607F0B7FB13B0F0BD00BF4BDD000863
:1017D00044DA000849DA000850DA00087C1E0020CC
:1017E00056DA0008F8B54C78432C08D18C78532C85
:1017F00005D1CC78B4F151056C426C4100E0002475
:101800000026F5B24F5D01363A2FFAD10135EDB21F
:1018100000279542FEB207F1010706D811F805C06E
:10182000013501F806C0EDB2F3E73CB92046C2B27B
:10183000B2420BD20A5C1A540130F8E7069A02242D
:1018400012681470721ED2B2FFF7EAFE0120F8BDD2
:1018500037B5154809B9154900E0154907F083FA6D
:10186000642007F025FE00240F4807F053F90028F4
:10187000E5B208DD062C14D00B4807F0F7F80DF898
:1018800004000134F0E755B19DF802304F2B08D128
:101890009DF80300B0F14B035842584102E028463E
:1018A00000E0002003B030BD941E00205EDA000886
:1018B00062DA000810B5012104461D2007F0CCFDB6
:1018C00007484FF4165107F083F920460121FFF72E
:1018D0004DFE20460121BDE81040FFF7B9BF00BF13
:1018E000941E00202DE9F0419EB005AD0C46074640
:1018F0000021904628466422039308F03FFD2146CC
:101900002C4807F030FA642007F0D2FD0024294863
:1019100007F000F90028E6B207DD642C45D0254821
:1019200007F0A4F828550134F1E726B922492348E5
:1019300007F034FA39E09DF814300D2B35D19DF8BD
:1019400015300A2B31D11EAB334413F8653C0A2BFA
:101950002BD1023E1EAB334413F8643C0D2B24D133
:101960000021CCB2A31CDBB2B34201F1010107DAC2
:101970001EAA134413F8643C144404F8643CF0E7D2
:1019800038462946FFF722FE0A280CD103AB009304
:101990003846294622464346FFF724FF00280CBF5D
:1019A0000320022002E0012000E003201EB0BDE879
:1019B000F08100BF941E002068DA00087C1E002021
:1019C0002DE9F041B2B006460D4690460021642252
:1019D00068461F4608F0D2FC19A80021642208F0CE
:1019E000CDFC0024E3B2E85C013420B132AA1344F8
:1019F00003F8640CF6E70146CAB25D1818F8024015
:101A0000EDB232AA01312A4414B102F8644CF3E772
:101A10000D2302F8643C6B1C32A8DBB203442F4850
:101A20000A2203F8642C036819A95B6898472C48BC
:101A3000AA1C036819A99B68D2B29847642007F0D2
:101A400037FD274807F066F80028E5B208DD642C6A
:101A50003FD0234807F00AF80DF804000134F0E7FE
:101A6000002D36D09DF800300D2B32D19DF801307D
:101A70000A2B2ED132AB2B4413F8C93C0A2B28D1A8
:101A8000023D32AB2B4413F8C83C0D2B21D1002171
:101A90008B1CDBB2AB4201F1010209DA32A803442C
:101AA00013F8C83CC9B2014401F8C83C1146EFE73D
:101AB00030466946FFF78AFD0A2808D13046694654
:101AC0003A46FFF79FFD80F00100C0B202E001201E
:101AD00000E0032032B0BDE8F08100BF7C1E002092
:101AE000941E0020F7B51E46044617460D460021F9
:101AF0008DF80710FFF7ACFE06F03CFA20463146A1
:101B00002FB12A460DF10703FFF7ECFE03E0089A18
:101B10002B46FFF755FF03282AD8DFE800F0110411
:101B20000207002311E01648164901E0144816493F
:101B300007F034F920460121FFF78AFE00201CE05F
:101B400012490F4807F02AF912E09DF807205E1CA1
:101B5000DBB29A420A4809D9E95C102207F0ABF9D6
:101B600007480B4907F0FFF83346EEE707F000F9A6
:101B700020460121FFF76CFE012003B0F0BD00BF3D
:101B80007C1E00207CDA00088DDA000896DA000856
:101B900066E800082DE9F0438BB004AF80460021D1
:101BA0000922384602AE002408F0E8FB00944046C3
:101BB000314601222C4BFFF795FF054610B92B4803
:101BC0002B494BE02346F25C07AC092A01D830329E
:101BD00004E0A2F10A01052998BF3732E25401332B
:101BE000082BF0D14FF0000922488DF8249000F026
:101BF000FFFD0246C0B120491C4807F0CFF81D4840
:101C0000394600F063FD50B14B46E15CFA5C91420D
:101C100017D10133082BF8D1144818491EE0184990
:101C2000124807F0BBF807E0009440463146154BD8
:101C3000FFF758FF054698B121460E4800F096FD83
:101C40000AE01149094807F0A9F8009740463146D3
:101C500000220C4BFFF746FF054601E007F09EF817
:101C600028460BB0BDE8F083ACDA00087C1E0020EB
:101C7000B7DA0008B91D0020D7DA00085FDB0008DA
:101C8000F5DA000819DB000822DB00082DE9F04F27
:101C900089B002AF07F10C068346894690461C4680
:101CA000304600210A2208F069FB002C50D1C7F809
:101CB00004D05846CDF80080314601224B46FFF74C
:101CC00011FF824608B1214606E04049404807F02E
:101CD00065F83F483F496FE0CCB218F80430013155
:101CE000002BF9D1E11D01F4FC71ADEB010D02A94E
:101CF000D8B2A04203D2F05CC8540133F8E70B46D7
:101D0000581AC0B2A0420DD213F8010B092801D80D
:101D1000303004E0A0F10A05052DF1D8373003F882
:101D2000010CEDE70025EBB2A34243D24B5D013538
:101D300008EB050010F8010C9842F4D0264924481D
:101D400007F02CF82248254907F028F87B689D46C3
:101D50006C460023DAB219F8021001330A29F9D1CE
:101D6000931D03F4FC73ADEB030DA2F1020E02AB65
:101D70000020C1B2551EA94200F1010003DA19F892
:101D800001505D54F5E700223D215A55584603F8AD
:101D90000E10CDF800803146FFF7A4FE054628B9A5
:101DA0000B480F4906F0FAFFAA4601E04FF0010A7E
:101DB000A54605E006480B4906F0F0FF7B689D4606
:101DC00050461C37BD46BDE8F08F00BF89DB0008D8
:101DD0007C1E0020AFDB0008D3DB00082ADC0008F3
:101DE0006CDC0008A1DC00087FB50F2204460D461C
:101DF0006846002108F0C2FA6848694906F0CEFF3B
:101E00000A2606F0B7F8002D78D12046FFF7C2FE6B
:101E100064498DF80000644A2B462046FFF736FFE0
:101E200062498DF80100624A2B462046FFF72EFFDB
:101E300060498DF80200604A2B462046FFF726FFD6
:101E40005E498DF803005E4A2B462046FFF71EFFD1
:101E50005C498DF804005C4A2B462046FFF716FFCC
:101E60008DF80500594800F013FCF1285849204628
:101E700008D1584A2B46FFF709FF57498DF806004D
:101E8000464807E04A4A2B46FFF700FF53498DF8C2
:101E90000600424806F082FF5149524A002320467C
:101EA000FFF7F4FE50498DF807004E4A0023204604
:101EB000FFF7ECFE4D498DF80800464A0023204606
:101EC000FFF7E4FE4A498DF809004A4A00232046FC
:101ED000FFF7DCFE48498DF80A00484A00232046F7
:101EE000FFF7D4FE324A8DF80B0045492046002307
:101EF000FFF7CCFE0D228DF80C000EE0334800F009
:101F0000C7FBF1280CBF334A294A20463049002339
:101F1000FFF7BCFE01228DF8000000231DF803101E
:101F2000A9B938491D4806F039FF2046FFF7C2FC21
:101F30002046FFF72BFB06F01DF82046FFF7BAFC02
:101F40004FF4FA6007F0B4FA06F014F805E0013334
:101F5000D9B29142E2D304B070BD2B4806F0DAFD4D
:101F6000002803DD284806F081FDF6E7013E16F063
:101F7000FF067FF446AF2549084806F00FFF2449C5
:101F8000064806F00BFF40F6B83007F091FA05F06E
:101F9000F1FF04B0BDE8704006F020B87C1E0020C0
:101FA000C9DC0008F8DC000804DD00080DDD0008CD
:101FB0000ADD000817DD000823DD00082CDD00081D
:101FC00038DD000841DD00084CDD0008B91D0020A7
:101FD0004FDD000859DD00085CDD000869DD000800
:101FE00076DD000880DD000883DD00088DDD000857
:101FF00097DD0008A0DD0008A3DD0008ADDD0008C6
:10200000B0DD0008BADD0008941E0020D7DD00080E
:1020100003DE00081520012107F01EBA152000215B
:1020200007F01ABA10B500210446152007F0AEF9E2
:102030001520012107F010FA2046BDE81040FEF7F8
:102040009BB97FB505460E46FFF7E8FF0D2433190F
:102050002146284613F80D2C0134FEF7BDF9162C45
:10206000F5D13046092104F043FB064621462846B7
:102070003246FEF7B1F90D2421462846FEF77EF9D7
:1020800001AB23440134162C03F80D0CF4D101A844
:10209000092104F02DFBB04203D0FFF7BBFF002065
:1020A0000DE028460B21FEF769F9552804D0284693
:1020B0000B215522FEF790F9FFF7ACFF012004B089
:1020C00070BD7FB505460E46FFF7A8FF17243319EC
:1020D0002146284613F8172C0134FEF77DF9202CF1
:1020E000F5D13046092104F003FB06462146284677
:1020F0003246FEF771F9172421462846FEF73EF9CD
:1021000001AB23440134202C03F8170CF4D101A8AF
:10211000092104F0EDFAB04203D0FFF77BFF002065
:102120000DE028460C21FEF729F9552804D0284651
:102130000C215522FEF750F9FFF76CFF012004B087
:1021400070BDF0B585B001AD06460F4628460021AA
:10215000092208F013F90D2421463046FEF70EF946
:102160002B190134162C03F80D0CF5D121463046FD
:10217000FEF704F909210446284604F0B9FA84421E
:1021800006D10023EA5CFA540133092BFAD101E0AD
:10219000002000E0012005B0F0BDF0B585B001AD34
:1021A00006460F4628460021092208F0E7F81724C2
:1021B00021463046FEF7E2F82B190134202C03F8B3
:1021C000170CF5D121463046FEF7D8F80921044610
:1021D000284604F08DFA844206D10023EA5CFA54C2
:1021E0000133092BFAD101E0002000E0012005B005
:1021F000F0BD37B50C461E210546FEF7BFF81F217E
:102200008DF804002846FEF7B9F802218DF8050084
:1022100001A804F06DFA207003B030BD10B50B2199
:102220000446FEF7ABF888B1FFF7F8FE204600221F
:102230000B21FEF7D1F8FFF7EDFE20460B21FEF74C
:102240009DF8D0F1010038BF002010BD012010BD65
:1022500010B50C210446FEF791F888B1FFF7DEFEB9
:10226000204600220C21FEF7B7F8FFF7D3FE2046E8
:102270000C21FEF783F8D0F1010038BF002010BD1B
:10228000012010BD10B521210446FEF777F855282E
:1022900011D0FFF7C3FE204655222121FEF79CF8FE
:1022A000FFF7B8FE20462121FEF768F8B0F155038C
:1022B0005842584110BD012010BD08B52121FEF73C
:1022C0005DF8B0F155035842584108BD70B5044659
:1022D0000D46FFF736FF20B120462946FFF75DFF88
:1022E00048BB20462946FFF72CFF48B11549164840
:1022F00006F054FD20462946BDE87040FFF7E1BED8
:1023000020462946FFF749FF06460F4846B10F49C8
:1023100006F044FD20462946BDE87040FFF791BE17
:102320000B4906F03BFD2046FFF778FF2046FFF7FC
:102330008FFF304670BD0749034806F02FFD01208E
:1023400070BD00BF2CDE00087C1E002063DE00088C
:102350009ADE0008AEDE0008F8B504460E462F25CA
:1023600073192046294613F82F7CFEF707F8874299
:1023700003D10135342DF3D136E0FFF74FFE2F2581
:1023800073192946204613F82F2C0135FEF724F83F
:10239000342DF5D10521304604F0AAF90746294627
:1023A00020463A46FEF718F82F2520462946FDF725
:1023B000E5FF731913F82F3C834217D10135342DF3
:1023C000F3D120462946FDF7D9FFB8420ED1204669
:1023D0003521FDF7D3FF552804D02046352155225D
:1023E000FDF7FAFFFFF716FE0120F8BDFFF712FE1A
:1023F0000020F8BDF7B505460E462F242146284695
:10240000FDF7BCFF00AB23440134342C03F82F0C40
:10241000F4D10521684604F06BF9214607462846A9
:10242000FDF7ACFF874207D100231DF80320F254CB
:102430000133052BF9D101E0002000E0012003B0B9
:10244000F0BD73B505462F2421462846FDF796FFBB
:1024500000AB23440134342C03F82F0CF4D168462C
:10246000052104F045F9214606462846FDF786FF7A
:10247000331A5842584102B070BD38B50546FFF7CF
:10248000CDFD2F2428462146FDF778FF68B1284668
:1024900021460022FDF7A0FF28462146FDF76EFFEA
:1024A00018B1FFF7B7FD002038BD0134342CE9D155
:1024B00028463521FDF762FF20B12846352100224C
:1024C000FDF78AFFFFF7A6FD012038BD37B50D46A1
:1024D0008DF8071036210446FDF750FF85422BD0BA
:1024E00002ADFFF79BFD15F8012D20463621FDF7C3
:1024F00073FF0121284604F0FBF8372102462046ED
:10250000FDF76AFF20463621FDF738FF9DF80730BA
:1025100083420DD120463821FDF730FF552804D0E5
:10252000204638215522FDF757FFFFF773FD03E0E2
:10253000FFF770FD002000E0012003B030BD362120
:10254000FDF71CBF37B536210546FDF717FF02AB77
:1025500003F8010D1846012104F0CAF8372104469A
:102560002846FDF70BFF231A5842584103B030BDEF
:1025700010B536210446FDF701FF88B1FFF74EFD87
:10258000204636210022FDF727FF20463621FDF7A1
:10259000F5FE18B1FFF73EFD002010BDFFF73AFD34
:1025A000012010BD10B548210446FDF7E7FE55286F
:1025B00011D0FFF733FD204655224821FDF70CFFCF
:1025C000FFF728FD20464821FDF7D8FEB0F155035E
:1025D0005842584110BD012010BD10B54D21044690
:1025E000FDF7CCFE552810D0FFF718FD20465522E8
:1025F0004D21FDF7F1FEFFF70DFD20460021FDF70F
:10260000BDFE003018BF012010BD012010BD00002C
:1026100037B58DF807101031C9B20129044629D801
:102620004C21FDF7ABFE9DF80730834228D002AD68
:10263000FFF7F4FC15F8012D20464C21FDF7CCFEE8
:102640000121284604F054F84E2102462046FDF7A9
:10265000C3FE20464C21FDF791FE9DF807308342D2
:1026600005D12046FFF7B9FFFFF7D4FC08E0FFF7DC
:10267000D1FC03E00448054906F090FB002000E08F
:10268000012003B030BD00BF7C1E0020DEDE00084C
:1026900037B54C210446FDF771FE02AB03F8010D7E
:1026A0001846012104F024F84E2105462046FDF786
:1026B00065FE854202D19DF8070004E02046F02126
:1026C000FFF7A6FFF02003B030BD0000F7B50546C8
:1026D0000E464F2421462846FDF750FE00AB23440A
:1026E0000134572C03F84F0CF4D10821684603F04D
:1026F000FFFF214607462846FDF740FE87420CD1E2
:1027000000231DF80320F2540133082BF9D10448AB
:10271000044906F043FB012000E0002003B0F0BDB7
:102720007C1E002014DF000810B558210446FDF778
:1027300025FE552808D0FFF771FC20465821552268
:10274000FDF74AFEFFF766FC10BD10B558210446A0
:10275000FDF714FE40B1FFF761FC2046582100222E
:10276000FDF73AFEFFF756FC10BD0000F7B50F4627
:102770000546FFF753FC3846082103F0B9FF4F2404
:1027800006463B192146284613F84F2C0134FDF725
:1027900023FE572CF5D1214628463246FDF71CFE74
:1027A0004F2421462846FDF7E9FD00AB23440134C0
:1027B000572C03F84F0CF4D16846082103F098FF1A
:1027C000864206D02846FFF7C0FFFFF723FC002013
:1027D00007E00549054806F0E1FA2846FFF7A4FF9F
:1027E000012003B0F0BD00BF29DF00087C1E0020DF
:1027F00008B55821FDF7C2FDB0F1550358425841C4
:1028000008BD70B504460E461546FFF707FC204686
:1028100032462221FDF7E0FD204623212A46FDF71E
:10282000DBFDFFF7F7FB70BDFDF7A8BDFDF7A6BD0B
:1028300070B504460E461546FFF7F0FB20463246BB
:102840002421FDF7C9FD204625212A46FDF7C4FDB8
:10285000FFF7E0FB70BD10B50446FFF7DFFB204635
:1028600055225921FDF7B8FDFFF7D4FB2046592129
:10287000FDF784FDB0F155035842584110BD08B52D
:102880005921FDF77BFDB0F155035842584108BD71
:1028900010B50446FFF7C2FB204600225921FDF780
:1028A0009BFDFFF7B7FB20465921FDF767FDD0F1EF
:1028B000010038BF002010BD73B5002305460E4649
:1028C00000930193FFF7AAFB5A24331921462846A7
:1028D00013F85A2C0134FDF77FFD622CF5D13046F8
:1028E000082103F005FF0646214628463246FDF73B
:1028F00073FD5A2421462846FDF740FD00AB2344D2
:102900000134622C03F85A0CF4D10821684603F014
:10291000EFFE0446FFF77EFBB442064804D10649A9
:1029200006F03CFA012003E0044906F037FA0020E3
:1029300002B070BD7C1E00203EDF00086CDF000886
:1029400038B509490546094806F028FA5A242146AF
:102950002846FDF713FD064B1A190134622C02F8C4
:102960005A0CF4D1184638BD9DDF00087C1E0020AB
:10297000BC1D002073B5002305460E46009301934D
:10298000FFF74CFB632433192146284613F8632CC8
:102990000134FDF721FD6B2CF5D13046082103F001
:1029A000A7FE0646732128463246FDF715FD63242F
:1029B00021462846FDF7E2FC00AB234401346B2C92
:1029C00003F8630CF4D10821684603F091FE044635
:1029D000FFF720FBB442064804D1064906F0DEF9B1
:1029E000012003E0044906F0D9F9002002B070BDCF
:1029F0007C1E0020D5DF000803E0000870B50E46FD
:102A0000742104461546FDF7B9FCB04205D12046B5
:102A10007521FDF7B3FCA84219D0FFF7FFFA204655
:102A200074213246FDF7D8FC204675212A46FDF771
:102A3000D3FCFFF7EFFA20467421FDF79FFCB0426C
:102A40000BD120467521FDF799FCA84205D1064916
:102A5000064806F0A3F9012070BD0549034806F0B9
:102A60009DF9002070BD00BF7BE000087C1E0020A7
:102A70009DE0000810B50446FFF7D0FA2046742107
:102A80000022FDF7A9FC204675210022FDF7A4FCD9
:102A9000FFF7C0FA20467421FDF770FC20B92046EC
:102AA0007521FDF76BFC28B10549064806F076F95B
:102AB000002010BD0449034806F070F9012010BD44
:102AC000BFE000087C1E0020E2E0000870B50E4662
:102AD000762104461546FDF751FCB04205D120464B
:102AE0007721FDF74BFCA84219D0FFF797FA204653
:102AF00076213246FDF770FC204677212A46FDF705
:102B00006BFCFFF787FA20467621FDF737FCB042D1
:102B10000BD120467721FDF731FCA84205D10649AB
:102B2000064806F03BF9012070BD0549034806F050
:102B300035F9002070BD00BF05E100087C1E0020B3
:102B40002DE1000870B50E467A2104461546FDF7C2
:102B500015FCB04205D120467B21FDF70FFCA842B1
:102B600019D0FFF75BFA20467A213246FDF734FC94
:102B700020467B212A46FDF72FFCFFF74BFA204623
:102B80007A21FDF7FBFBB0420BD120467B21FDF7FC
:102B9000F5FBA84205D10649064806F0FFF80120DA
:102BA00070BD0549034806F0F9F8002070BD00BF6C
:102BB000AFE100087C1E0020E1E1000838B57A2171
:102BC0000546FDF7DBFB7B2104462846FDF7D6FBD7
:102BD00000EB042038BD000070B50E467821044695
:102BE0001546FDF7CBFBB04205D120467921FDF714
:102BF000C5FBA84219D0FFF711FA204678213246CA
:102C0000FDF7EAFB204679212A46FDF7E5FBFFF7B1
:102C100001FA20467821FDF7B1FBB0420BD12046E6
:102C20007921FDF7ABFBA84205D10649064806F01D
:102C3000B5F8012070BD0549034806F0AFF8002043
:102C400070BD00BF76E200087C1E0020A2E20008F2
:102C500070B50E467C2104461546FDF78FFBB04249
:102C600005D120467D21FDF789FBA84219D0FFF749
:102C7000D5F920467C213246FDF7AEFB20467D216A
:102C80002A46FDF7A9FBFFF7C5F920467C21FDF791
:102C900075FBB0420BD120467D21FDF76FFBA842AA
:102CA00005D10649064806F079F8012070BD0549AE
:102CB000034806F073F8002070BD00BF28E3000849
:102CC0007C1E002058E3000838B57C210546FDF73E
:102CD00055FB7D2104462846FDF750FB00EB042000
:102CE00038BD00007FB532490546324806F056F837
:102CF000304805F0F3FE05F03DF941F2883006F06A
:102D0000D7FB05F037F92B4805F004FF00280ADD52
:102D1000284805F0ABFEC1B2274806F004FA0220AD
:102D200006F0C6FBEFE7244CA668002E34D0204600
:102D300006F013FB21461F4806F026F81F4901A89C
:102D400006F03AF901A9204606F080FA064601A8E5
:102D500006F0F0F81748EEB1194906F01FF81949C6
:102D6000204606F07EF928462121FDF707FB40B1F9
:102D7000FFF754F9284621210022FDF72DFBFFF72C
:102D800049F928462121FDF7F9FAD0F1010038BFB1
:102D900000200AE00C4901E006480C4905F0FEFF5E
:102DA0002046084906F05DF9304604B070BD00BF0A
:102DB000EAE300087C1E0020241E00203BE40008FB
:102DC0003FE400084BDD000875E40008A0E40008BB
:102DD0000022026042607047006820B103688B42A5
:102DE00001D08068F9E7704770B504460C2016469C
:102DF0000D4606F0B1FF00228260226880E8600084
:102E00000AB9206001E062689060606070BD10B532
:102E10001446FFF7E1FF08B14460012010BD08B57A
:102E2000FFF7DAFF00B1406808BD01F51C414131F0
:102E3000FFF7DABF01F51C414131FFF7E8BF01F5AB
:102E40001C414131FFF7EBBF002A01F1010114BF22
:102E50004FF47F420022FFF7C7BF002A01F51C5143
:102E600001F1110114BF4FF47F420022FFF7BCBFF4
:102E700001F5EA413131FFF7B7BF002A01F1010145
:102E800014BF4FF47F420022FFF7C1BF002A01F5B3
:102E90001C5101F1110114BF4FF47F420022FFF7D2
:102EA000B6BF01F5EA413131FFF7B1BF08B50131D5
:102EB000FFF7B5FFB0F57F435842584108BD01F513
:102EC0001C5108B51131FFF7AAFFB0F57F435842F6
:102ED000584108BD01F5EA413131FFF7A0BF0000BC
:102EE00070B504460D4609480949164605F056FFD7
:102EF000A06806F039FF0220207306F02DFF803D08
:102F00000323A06005704670637370BD7C1E0020B3
:102F1000C3E40008F8B5531E7C2B04460F46164642
:102F200002D903210A4617E001F51C414131FFF7A0
:102F300053FF18B92046032102220DE0A06806F0D5
:102F400013FF701C4000C0B2207306F005FFA060A4
:102F500030B9204603210422BDE8F840FFF7C0BF86
:102F600003230370237B0025023B4370E9192046AD
:102F7000FFF765FFA3680135020A03F81520A3686F
:102F8000B54203EB45035870F0D103236373F8BDDA
:102F900070B504460E461546FFF74CFF18B920469B
:102FA0000621022208E020463146FFF748FFA842EA
:102FB00006D0204606210422BDE87040FFF790BFEE
:102FC0000223637370BD2DE9F8431F4616467A1E2F
:102FD0007A2A044688469DF8203002D8B3EB470F82
:102FE00003D02046102103221CE006F51C45413584
:102FF00005EB070920462946FFF7EEFE18B92046E3
:10300000102102220EE001354D45F3D1A06806F0F3
:10301000ABFE0520207306F09FFEA06030B920466D
:1030200010210422BDE8F843FFF75ABF10230370B4
:10303000330A4370002307718670C37008F10605D8
:103040003744BE4205F102050BD015F8022C15F8E5
:10305000013C3146204643EA0222FFF7EBFE0136EF
:10306000EFE703236373BDE8F8832DE9F843531EAC
:10307000B3F5FA6F04460F46154602D30121032229
:1030800019E00131FFF7A8FE18B9204601210222FC
:1030900011E0A06806F068FEC5F3C7036A070CBF1D
:1030A000023303332373207B06F056FEA06030B951
:1030B000204601210422BDE8F843FFF711BF012398
:1030C0000370237B05EB0708023B43703E46002557
:1030D00046451CD031462046FFF7E8FEC7F10109FE
:1030E000B1444FEAD909012109F10203A268A940BC
:1030F00010B1D05C014302E0D05C20EA010101354F
:10310000EDB2082DD15408BF00250136E0E70323B6
:103110006373BDE8F88300002DE9F843531EB3F54F
:10312000FA6F04460F46154602D3022103221FE020
:1031300001F51C511131FFF74FFE18B9204601214E
:10314000022215E02249234805F028FEA06806F077
:103150000BFEC5F3C7036A070CBF023303332373A7
:10316000207B06F0F9FDA06030B920460221042240
:10317000BDE8F843FFF7B4BE02230370237B05EBE1
:103180000708023B43703E46002546451CD03146A9
:103190002046FFF794FEC7F10109B1444FEAD9096F
:1031A000012109F10203A268A94010B1D05C0143DA
:1031B00002E0D05C20EA01010135EDB2082DD154C6
:1031C00008BF00250136E0E703236373BDE8F883F9
:1031D000E8E400087C1E0020F8B5531E7C2B044652
:1031E0000F46164602D90421032217E001F5EA41F1
:1031F0003131FFF7F1FD18B92046012102220DE01F
:10320000A06806F0B1FD701C4000C0B2207306F04B
:10321000A3FDA06030B9042120460A46BDE8F8406D
:10322000FFF75EBE04230370237B0025023B43703F
:10323000E9192046FFF74EFEA3680135020A03F89C
:103240001520A368B54203EB45035870F0D1032362
:103250006373F8BD70B5B2F57F4F86B004460E4675
:1032600003D012B10521032215E0151C18BF01255A
:10327000204631462A46FFF700FE18B920460521B0
:10328000022208E020463146FFF710FEA84205D092
:10329000204605210422FFF723FE17E00C4968466B
:1032A00005F08AFE694603A805F0C9FE094903A88E
:1032B00005F086FF0146084805F066FD03A805F005
:1032C00039FE684605F036FE0223637306B070BD12
:1032D00012E500082AE500087C1E00202DE9F043D5
:1032E0008BB00446894604A86C49DF081D46164683
:1032F00005F062FE04A907A805F0A1FE394607A85B
:1033000005F084FF0146664805F03EFD07A805F07C
:1033100011FE04A805F00EFE6B0705F1FF3318BF80
:103320000137B3F5F66F03D29DF84830BB4207D0A2
:103330005C495B4805F032FD20460F2103224DE039
:10334000771C07EB050820463946FFF745FD18B9FD
:1033500020460F21022241E001374745F3D1504872
:10336000514905F01BFD0627504901A805F024FE30
:1033700001A904A805F063FE394604A805F046FF3C
:103380004B4905F01DFF102219F80710804607A8C9
:1033900005F078FE07A9404605F005FF01464048C4
:1033A00005F0F2FC07A805F0C5FD04A805F0C2FD74
:1033B000013701A805F0BEFD102FD5D13A49384894
:1033C00005F0ECFCA06806F0CFFC0520207306F0A9
:1033D000C3FCA06028B920460F210422FFF780FD1E
:1033E00058E00F230370330A43702B0A8670C370B2
:1033F00005712D492A4805F0D1FC06272B4901A863
:1034000005F0DAFD01A904A805F019FE394604A863
:1034100005F0FCFE264905F0D3FE102219F807102E
:10342000804607A805F02EFE07A9404605F0BBFE22
:1034300001461B4805F0A8FC07A805F07BFD04A881
:1034400005F078FD013701A805F074FD102FD5D1E6
:103450001348154905F0A2FC3544B0460027C6EBD9
:10346000080309EBD3039A7941463A410137FFB289
:10347000204602F00102FFF700FD08F10108082FC5
:1034800008BF0027A845EAD105480A4905F086FC8F
:10349000032363730BB0BDE8F08300BF3CE5000875
:1034A0007C1E00204EE500081CF100086FE50008B6
:1034B00076E500087AE500082DE9F0418B784F7831
:1034C0008CB0CE7843EA07270B7991F800800C4640
:1034D0000546544903A843EA062605F06DFD03A9F5
:1034E00009A805F0ACFD1022217806A805F0CAFD58
:1034F00006A909A805F057FE01464B4805F044FC13
:1035000006A805F017FD09A805F014FD03A805F0AD
:1035100011FD464903A805F04FFD03A909A805F0D0
:103520008EFD1022394606A805F0CFFD06A909A890
:1035300005F039FE01463C4805F026FC06A805F0DA
:10354000F9FC09A805F0F6FC03A805F0F3FC3849DE
:1035500003A805F031FD03A909A805F070FD1022AC
:10356000314606A805F0B1FD06A909A805F01BFE25
:1035700001462D4805F008FC06A805F0DBFC09A86B
:1035800005F0D8FC03A805F0D5FC08F1FF330F2B9C
:103590003FD8DFE803F01D230E292F083E3E3E3EB4
:1035A0003E3E3E3E3514284639463246FFF7F0FC93
:1035B00034E0284639463246FFF7ACFC2EE063790A
:1035C0002846009321463A463346FFF7FCFC25E0A7
:1035D000284639463246FFF748FD1FE0284639465F
:1035E0003246FFF799FD19E0284639463246FFF783
:1035F000F3FD13E0284639463246FFF72BFE0DE077
:1036000063792846009321463A463346FFF766FE23
:1036100004E0284641460122FFF762FC0CB0BDE8F9
:10362000F08100BF89E500087C1E002095E50008B8
:103630009FE5000810B50446FFF7CAFB204610BD01
:1036400080F828100120704770B5049E0161C661A2
:103650000446154608461146DAB205F07DFA4FF4E5
:10366000FA6005F025FF002E08DBF6B23046002197
:1036700005F08CFE3046002105F0EEFEB5F5964FC4
:1036800006DD40F2EE23236240F2D663636207E078
:10369000044B93FBF5F32362034B93FBF5F5656253
:1036A000012070BDC0E1E400C00E160270B50446F2
:1036B000C06986B000280D4606DBC0B2012105F0C6
:1036C000CBFE012005F0F4FE0023227B5E1CDBB262
:1036D0009A421FD9194A1068411C1160E95C184AC6
:1036E0001154D15C6846102205F0CCFC694603A851
:1036F00005F0A5FC134903A805F062FD0146124838
:1037000005F024FB03A805F015FC684605F012FC43
:103710003346DAE70D490C4805F040FB20690368A1
:103720009B699847606A05F0D1FEE069002803DBD9
:10373000C0B2002105F090FE06B070BDDC1D002077
:10374000C61D002066E800087C1E0020A9E60008CF
:10375000F0B5C9430B4EC9B2705C0B4DC0436C5CF5
:10376000C0B20021AC46CFB2BB4207D0555C01319C
:103770004540705D60401CF80540F4E744EA0020D5
:10378000F0BD00BFA9E5000859E700082DE9F041A8
:103790000D78037BFF2D01EB030204460E4612F861
:1037A000028C12F8017C03D090F82820AA4219D18B
:1037B000A268033B204612F8011BDBB2FFF7C8FFEB
:1037C00047EA0827874202D00A480B490CE0204606
:1037D000711CFFF771FEFF2D4FF0010007D16073E0
:1037E000BDE8F0810348054905F0D8FA0020BDE89E
:1037F000F08100BF7C1E0020D1E60008FDE6000835
:10380000F8B50446C0690F46002806DBC0B20121A6
:1038100005F022FE012005F04BFE194D19491A480A
:1038200005F0BCFA194E2B6894F828105A1CF15474
:10383000237B2A600022D0B298420AD2286800F185
:10384000010EC5F800E017F802E0013206F800E0CA
:10385000F1E7A2682046FFF77BFF2B68020AF254CB
:103860001E449A1C7070606A2A6005F02FFEE069A1
:10387000002803DBC0B2002105F0EEFDF8BD00BF5B
:10388000DC1D00202DE700087C1E0020C61D002046
:10389000D2B238B504460D460273002A3ED0204904
:1038A000204805F07BFA207B06F056FA0023A06042
:1038B000227B591CDBB29A4204D9E85CA268D0543E
:1038C0000B46F5E71748184905F068FA0025237BF1
:1038D0009D4207D2A3681348595D102205F0F4FAFF
:1038E0000135F4E710490F4805F058FA2046A16861
:1038F000FFF74CFF68B1637B032B04D12046A1681E
:10390000FFF77EFF05E0022B03D12046A168FFF7F9
:10391000CDFEA06806F028FA0023237338BD00BF4F
:103920004DE700087C1E002080E5000808B5032054
:1039300003F072FF014B01221A7008BDE91D00203F
:1039400070B55E480D46097803F0D6F869780646EA
:103950005A4803F0D1F806EB8606594C06EB86066A
:1039600000EB8600E080A978544803F0C5F8607148
:10397000E978524803F0C0F8207129794F4803F0E4
:10398000BBF86979A0704D4803F0B6F8A97960706A
:103990004A4803F0B1F84B4920704B4805F0E3F971
:1039A000E1880A22484805F06EFA4849464805F081
:1039B000DAF961790A22444805F086FA4449424816
:1039C00005F0D1F921790A223F4805F07DFA4149F5
:1039D0003D4805F0C8F9A1780A223B4805F074FA81
:1039E0003D49394805F0BFF961780A22364805F0AB
:1039F0006BFA3A49344805F0B6F90A222178324880
:103A000005F062FA04F038FA642005F051FD204612
:103A1000FCF754FC0146324803F01CFE642005F01C
:103A200047FD04F02FFA2E4803F017FE014620460A
:103A3000FCF7B8FBE1886423B1FBF3F1C9B21F487E
:103A400003F051F82870E2884FF47A73B2FBF3F177
:103A500003FB11211948C9B203F045F86870617978
:103A6000164803F040F8A8702179144803F03BF899
:103A7000A178E870114803F036F8617828710F4892
:103A800003F031F8217868710C4803F02CF8002419
:103A9000A871295D10220C4805F00DFA01340A487E
:103AA000104905F060F9072CF3D1074805F060F9DB
:103AB000BDE8704004480C4905F070B9711E002043
:103AC000E01D002059E800087C1E002060E8000886
:103AD00068E800086EE8000875E800087FE800085C
:103AE000EA1D002066E8000889E8000870B51B4858
:103AF00086B0FCF7E3FB1A4C054604F0BDF90A203A
:103B000005F0D6FC2946204603F0A4FD204603F02C
:103B1000A4FD144D14492A688618684605F04CFA2D
:103B2000694603A805F08BFA296803A805F06EFB27
:103B300001460E4805F028F903A805F0FBF9684690
:103B400005F0F8F90A493246204603F088FD0A20BC
:103B500005F0AEFC04F096F906B070BDE01D002043
:103B6000EA1D0020E01A0020ACE800087C1E0020BE
:103B70002D3900080148112103F063BDEA1D002022
:103B8000174B10B51A6886B001321A60154A1168D1
:103B9000013111601A68B2F5615F04D300221A6026
:103BA000114B01221A70114C6846236810490133E9
:103BB000236005F001FA694603A805F040FA216880
:103BC00003A805F023FB01460A4805F0DDF803A829
:103BD00005F0B0F9684605F0ADF906B010BD00BFBC
:103BE000F01D0020F41D0020311E0020EC1D0020DF
:103BF0002EE900087C1E002038B50E4C0E482368C4
:103C000001332360FEF7DAFF042812D90A48FEF7D1
:103C1000D5FFB0F5E16F00D938BD07482568FEF73C
:103C2000CDFF854205D300232360044B01221A7087
:103C300038BD38BDF41D0020C51D0020741E0020B5
:103C400010B5084C0849204605F00BF82046012124
:103C5000064A05F025F820460021BDE8104004F092
:103C6000F7BF00BF741F002040420F00F93B00085F
:103C700010B5084C0849204604F0F3FF2046012106
:103C8000064A05F00DF820460021BDE8104004F07A
:103C9000DFBF00BF7C1F002040420F00813B0008B7
:103CA00010B5054C204604F0C5FF20460021BDE8B4
:103CB000104004F0CDBF00BF741F002010B5054CAC
:103CC000204604F0B7FF20460021BDE8104004F074
:103CD000BFBF00BF781F002010B5064C204604F07F
:103CE000A9FF2046002104F0B3FF034B00221A6015
:103CF00010BD00BF7C1F0020EC1D0020014804F017
:103D000091BF00BF741F0020014804F08BBF00BFAB
:103D1000781F002008B5034804F084FF024B0022FE
:103D20001A6008BD7C1F0020EC1D002030B5354C0A
:103D30008DB02378002B63D0334B34481D78002D91
:103D40005AD00025324905F029F82570FFF7D6FF33
:103D50002846FF2105F0A1FBFF21C4B2284605F04B
:103D60009CFB2C49C5B203A805F026F903A909A8B4
:103D700005F065F91022214606A805F083F906A989
:103D800009A805F010FA0146204804F0FDFF06A836
:103D900005F0D0F809A805F0CDF803A805F0CAF899
:103DA00003A81D4905F008F903A909A805F047F97A
:103DB0001022294606A805F065F906A909A805F00C
:103DC000F2F90146114804F0DFFF06A805F0B2F849
:103DD00009A805F0AFF803A805F0ACF801210A46E0
:103DE0000E482346009503F005FBFFF759FF0C49E9
:103DF000064804F0D3FF03E00A4904F0CFFF257022
:103E00000DB030BD741E0020B51700207C1E0020B0
:103E100040E9000852D500085ED50008751E002054
:103E200077E90008B7E90008F7B5294802F060FA19
:103E3000284CFF212070002005F02FFBFF21C5B288
:103E4000002005F02AFB244B22781978C6B2914253
:103E5000224C06D01A70224801232249237004F014
:103E60009DFF237893B120491D4804F097FF1B4B19
:103E7000002119701D4B01221A701D4800962B4617
:103E800003F0B8FA16481B4904F088FF1A4F3B7834
:103E9000E3B11A49124804F081FF144B00241C704E
:103EA0003C7021462B4600961148012203F0A8F9E8
:103EB000214600960E4801222B4603F09BFA084843
:103EC0000F4903B0BDE8F04004F068BF03B0F0BD97
:103ED000331E0020F91D0020FC1D0020F81D0020CD
:103EE0007C1E0020DCE90008EFE900080C0000203F
:103EF000751E002040EA0008231E00207FEA00080B
:103F0000D1EA000810B5064C0649204605F054F8E1
:103F100020460549054ABDE8104005F0EBBB00BF4F
:103F2000241E00204BDD0008358F0008080000200B
:103F300030B54A4885B0FEF7C0F9002846D1484B55
:103F4000484918704548FEF77CF828B14348454970
:103F5000FEF7B7F8002877D14048FEF709FB20B1FB
:103F60003E48FEF78AFA002873D101238DF8043009
:103F70003A48002301A98DF805308DF806308DF8F8
:103F800007308DF80830FEF7E7F918B136483749A1
:103F900004F004FF31480121FEF798FA18B13248C5
:103FA000334904F0FBFE33492F4804F0F7FE324951
:103FB0002D4804F0F3FE09E0304CA368EBB92F481C
:103FC0002C4905F04EF82E48FDF7DCF92348FEF7A2
:103FD00074F9002833D103F0CDFF234804F09AFD93
:103FE0000028E9DD204804F041FDC1B2234805F076
:103FF0009AF8022005F05CFAEFE7204605F0ADF9EB
:104000002146194804F0C0FE1E4901A804F0D4FF5F
:10401000204601A905F01AF9054601A804F08AFF17
:1040200055B11449204605F01CF80F48164904F014
:10403000B5FE164802F0B8FD03F09CFFBFE7084B41
:1040400001221A7005B030BD1149074804F0A6FEE0
:1040500082E71049044804F0A1FE86E7BB1D00205A
:104060000E000020051E00207C1E00200BEB000827
:1040700048EB00084BDD000884EB0008241E0020FC
:10408000591A00203DE40008C7EB0008751E002007
:104090000AEC00083EEC000870B503F06BFF194B0A
:1040A0001B7843BB70BD184C18482678184D731CFC
:1040B000237004F0DBFCA855022005F0F9F9237801
:1040C000132B0CD903F056FF002612491248267014
:1040D00004F064FE28463146142206F04FF9237896
:1040E0000D481D4415F8011C102204F0E4FE0A4896
:1040F0000A4904F038FE054804F00CFD0028D2DC23
:1041000070BD00BFFD1D0020FB1D0020AC1E002067
:104110000E1E002085EC00087C1E0020B7EC000875
:1041200030B5B4488FB002F0FAFAB34800F0DCFEC4
:10413000B24B06201A684FF4FA6122F0E06242F0B6
:1041400080621A6003F006FFAD484FF4165104F088
:104150003FFDAC484FF41651FDF702FAAA4837214B
:1041600004F0D4FE4FF41651A84804F031FD03F0DA
:1041700076FEA748FDF756FF9E4802F073FB03F05A
:10418000F9FEA048FDF7C8F901219E48FDF760FB44
:10419000A04D4FF4FA6005F08BF900249E482C7076
:1041A000FDF7F0F801232B7003F0E4FEF1219B48AA
:1041B000FEF72EFA21469348FDF716FE9748FEF7C4
:1041C000F1F997498E4804F0E9FD96482221FEF75F
:1041D0002DFB0228044606D192482321FEF726FB38
:1041E000112805461CD011228E480221FEF709FB3A
:1041F0008D4902A804F0E0FE02A908A804F01FFF00
:104200001022022105A804F04EFF05A908A804F019
:10421000CAFF864904F0D4FF112104460BA816E01A
:10422000834902A804F0C8FE02A908A804F007FF09
:104230002146102205A804F036FF05A908A804F0BD
:10424000B2FF7A4904F0BCFF294604460BA81022AD
:1042500004F029FF20460BA904F0A5FF0146684899
:1042600004F092FD0BA804F065FE05A804F062FEC0
:1042700008A804F05FFE02A804F05CFE694824214F
:10428000FEF7D2FA0228044616D166482521FEF729
:10429000CBFA054680B9674908A804F08DFE08A945
:1042A0000BA804F0CCFE21460BA804F0A5FF5F4943
:1042B00004F086FF294614E000225A480221FEF746
:1042C000B7FA5D4908A804F077FE08A90BA804F026
:1042D000B6FE02210BA804F08FFF544904F070FFD2
:1042E000002104F089FF0146454804F04DFD0BA86C
:1042F00004F020FE08A804F01DFEFFF7CDFE4F4895
:10430000FEF7F0FCFFF714FE4C484D49FDF7DEFFC9
:10431000A0B943493A4804F041FD4A49384804F0FD
:104320003DFD494802F058FD3B48FDF72BF840F6AB
:10433000B83002F0EBFB03F01DFEE5E743493048DF
:1043400004F02CFD03F016FEFFF77AFCFFF7A8FC43
:104350003F492B4804F022FD3149294804F01EFD55
:10436000FFF7D2FC3B49264804F018FD2C492448AD
:1043700004F014FDFFF77CFCFFF7CCFC3649204825
:1043800004F00CFD26491E4804F008FDFF21002022
:1043900005F083F8FF210446002005F07EF8C0B246
:1043A0000222E3B200900121274802F0A5FF2B4929
:1043B000134804F0F3FC1A49114804F0EFFC0E48CE
:1043C00001F096FF264B27491870274B18700C48B0
:1043D00004F0E4FC12490A4804F0E0FC2348002100
:1043E0000522FEF7AFFB002844D12149044804F020
:1043F000D5FC60E0701E0020331E00200400014048
:104400007C1E0020B81D0020941E0020AC1E002041
:10441000C41D00200D000020591A0020B91D0020E5
:104420004BDD0008BA1D00200FEE000827DF000852
:104430005AEE000870EE000886EE0008BB1D002052
:10444000051E0020B9EC0008751E0020EDEC0008E8
:1044500006ED000843ED00087AED0008B2ED000813
:10446000FC1D0020C7ED0008F91D0020C51D00201F
:10447000CFD600081149124804F090FC114908A851
:1044800004F09AFD08A90BA804F0D9FD0E48FEF728
:1044900095FB01460BA804F0B9FE0146084804F05C
:1044A00073FC0BA804F046FD08A804F043FD4FF48C
:1044B0007A7004F0FDFF0FB030BD00BF13D70008C5
:1044C0007C1E002035D70008C51D002030B587B000
:1044D000424804F01FFB00280ADD404804F0C6FAF9
:1044E000C1B23F4804F01FFE022004F0E1FFEFE7F5
:1044F0003B4CA368002B6ED0204604F02EFF2146D3
:10450000364804F041FC374903A804F055FD204625
:1045100003A904F0C8FE054603A804F00BFD002D16
:1045200033D020460021042204F0FEFE204604F091
:1045300020FF2D4C02462060C2F307212B48D2B247
:10454000FEF786FB10B12548294901E02348294997
:1045500004F024FC2548FEF7B7FB27492060684695
:1045600004F02AFD694603A804F069FD216803A848
:1045700004F04CFE0146194804F006FC03A804F0C0
:10458000D9FC684604F0D6FC18E01C4903A804F0E6
:1045900013FD204603A904F059FE054603A804F0C4
:1045A000C9FC85B1164A0D48137883F001031370D6
:1045B0000BB1144900E0144904F0F0FB134908481A
:1045C00004F04FFD07E01149204604F04AFD03487E
:1045D0000F4904F0E3FB07B030BD00BF7C1E002094
:1045E000241E0020D1EE0008E01A0020C51D002086
:1045F000D6EE00080CEF0008C7E8000845EF0008F9
:10460000FD1D00204EEF00086AEF00084BDD00089A
:1046100086EF00082DE9F04F87B0634804F07AFA7E
:1046200000280ADD604804F021FAC1B25F4804F0B6
:104630007AFD022004F03CFFEFE75C4CA368002BFE
:1046400000F0AE80204604F088FE2146564804F073
:104650009BFB574903A804F0AFFC204603A904F0D4
:10466000F5FD054603A804F065FC002D00F09680DA
:104670002046504C504904F0F4FC23684F49013364
:104680004948236004F08AFB4D49684604F094FCD5
:10469000694603A804F0D3FC216803A804F0B6FD22
:1046A0000146414804F070FB03A804F043FC68464F
:1046B00004F040FC40493C4804F070FBFFF72AFB43
:1046C000032003F0A9F83F4A002313703E4A3F4FEE
:1046D00013703F4A3B6013703E4A1D4613703E4ABA
:1046E0001E4613703D4AA34613703D4A13703D4A5F
:1046F00013703D4A13703D4A13703D4A13703D4A92
:1047000013703D4B0024EC503C4BDFF818A1EC50EB
:104710003B4BDFF81491EC503A4BDFF81081EC5032
:10472000394BF0B2EC50394B0121EC50384B45F885
:104730000A40F454374B45F80940F454364B45F8D9
:104740000840F454354B0435F454013601F05CFF55
:104750000C2ED6D1DBF8003013F0010313D0304813
:10476000FEF7B2FA386014234AF804303C2349F8C3
:1047700004304FF6FF7348F804300434302CF2D183
:10478000FFF7AAFA0AE03B6000224AF8032049F842
:10479000032048F803200433302BF5D103F0EAFB63
:1047A00007B0BDE8F08F00BF7C1E0020241E002053
:1047B000ADEF0008001E00204BDD0008AFEF000841
:1047C000F2EF0008221E0020E91D0020E01A002060
:1047D000321E0020041E0020741D0020FE1D00203B
:1047E000FA1D0020F81D0020231E0020B417002011
:1047F000B6170020FF1D0020781D0020F8170020AC
:10480000241D00205C1A0020A01A0020341700206C
:10481000641D0020381A0020491A00200F000020D3
:10482000C51D002074170020E41A0020B8170020CE
:104830002DE9F043814F87B017F800900446B9F195
:10484000000F40F0F7807E4DDFF840822B5C002B9C
:1048500000F08F807B4E7C4A336852F820209342D0
:10486000C0F08780012101F0CFFE784B05F804905D
:104870007749012568461D7004F09EFB694603A830
:1048800004F0DDFB214603A804F0ACFC714904F000
:1048900097FC0146704804F077FA03A804F04AFB3D
:1048A000684604F047FB6C4804F018F96B4B53F86A
:1048B000242052B333686A4908F80450694D41F81E
:1048C000243068461344684945F8243004F074FBEA
:1048D000694603A804F0B3FB214603A804F082FC58
:1048E000624904F06DFC55F8241004F08FFC014679
:1048F000594804F049FA03A804F01CFB684604F088
:1049000019FB554804F0EAF833E0594B594E53F877
:1049100024205949013A43F824203378684601336A
:10492000337004F049FB694603A804F088FB317832
:1049300003A804F057FC0146474804F025FA03A8F1
:1049400004F0F8FA684604F0F5FA434804F0C6F8B3
:1049500033780C2B07D14048484904F01FFA484BE4
:104960001D70484B1D700020012308F804003B55C2
:1049700061E018F80400002855D0324B1A68394B12
:1049800053F824309A4256D3394B3A4D53F82420E9
:104990000126013A43F824202B78374933446846EE
:1049A0002B703E5504F008FB694603A804F047FB52
:1049B000297803A804F016FC0146274804F0E4F91E
:1049C00003A804F0B7FA684604F0B4FA224804F0E9
:1049D00085F82B780C2B07D11F48284904F0DEF905
:1049E000274B1E70274B1E700123684618493B5504
:1049F00004F0E2FA694603A804F021FB214603A86B
:104A000004F0F0FB204904F0DBFB0146124804F0FF
:104A1000BBF903A804F08EFA684604F08BFA0E483E
:104A200004F05CF806E00D4B53F82400003018BF8A
:104A3000012000E0002007B0BDE8F083491A002003
:104A4000641D0020EC1D00205C1A0020F81D0020D1
:104A500000F0000804F000087C1E0020E41A00208A
:104A6000A01A00203417002020F0000890E500086C
:104A7000B8170020B617002033F0000843F00008F4
:104A8000221E0020231E002069F00008381A002092
:104A90002DE9F0439B4E87B003F06CFA33780C2B72
:104AA00000F0DB800024254603F064FA964BEFB259
:104AB000E95C002940F0A4804FF0010805F803806C
:104AC000924B04EB0309E358002B55D0904BE3586D
:104AD000002B51D0384601F097FD8E4B8E4A05F8D9
:104AE00003808E4B8E4983F800808E4BDFF88C82DA
:104AF0001B686846A350D9F80020134444F80830D6
:104B000004F05AFA694603A804F099FA394603A852
:104B100004F068FB844904F053FB0146834804F029
:104B200033F903A804F006FA684604F003FA804952
:104B3000684604F041FA694603A804F080FA394651
:104B400003A804F04FFB7B4904F03AFB54F808102B
:104B500004F05CFB0146754804F016F903A804F064
:104B6000E9F9684604F0E6F9704803F0B7FF724BC4
:104B7000E358002B6AD0C2E06949684604F01CFA89
:104B8000694603A804F05BFA394603A804F02AFB3F
:104B90006A4904F015FB0146644804F0F5F803A8DF
:104BA00004F0C8F9684604F0C5F9654B0127EF54D5
:104BB000337864493B446846337004F0FDF9694634
:104BC00003A804F03CFA317803A804F00BFB01467B
:104BD000564804F0D9F803A804F0ACF9684604F08C
:104BE000A9F9524803F07AFF33780C2B2ED1564B9B
:104BF0004E4856491F7004F0D1F8554B1F7025E000
:104C0000013F0A2F07D8DFE807F0080A0C0E101240
:104C10001416181A1C00002014E0012012E00220D3
:104C200010E003200EE004200CE005200AE006203E
:104C300008E0072006E0082004E0092002E00A203E
:104C400000E00B20FFF7F4FD002858D101350C2DB2
:104C500004F104047FF428AF51E0FFF75BF83A4B0E
:104C60003C4D1A7872B100241C703B4B3B481C70C1
:104C7000FEF73CFF2D483A4904F090F8394B1C7080
:104C800001232B702B78002B39D0334D2B78002B40
:104C900035D0344C012334492448237004F07EF885
:104CA0003249224804F07AF82A4A002331781370F6
:104CB0002B70154800221A5421481A5415481A54CA
:104CC000134850F823000133904218BF11460C2BB3
:104CD000EFD1317051B92649144804F05FF82349E7
:104CE000124804F05BF8FEF7F7FF08E021490F488F
:104CF000227004F053F80D481F4904F04FF807B034
:104D0000BDE8F083B61700200F00002074170020C4
:104D1000B8170020641D0020241D0020F81D00206D
:104D200000F00008EC1D00207FF000087C1E002031
:104D300095F0000890E50008E41A0020A6F00008AD
:104D4000491A002033F00008221E002043F000081A
:104D5000231E0020041E0020E91D0020E81D002065
:104D6000B6F00008B5170020E4F0000813F10008C1
:104D700020F100084AF1000885F100085C1A0020C3
:104D800008B503F0F7F80C48FCF7FCFA00210B48D3
:104D90000A4600F057FAFFF77BFE00F089F8FEF7AD
:104DA000C5FFFFF741F8FFF735FCFFF78FFBBDE8C4
:104DB0000840FFF771B900BF591A0020331E0020C8
:104DC00001480021FDF710B8B81D00201FB530487C
:104DD00001A9FDF77BFA2F4CC0B92F492F4803F0EA
:104DE000DDFF2F4801F0F8FF2E48FCF7CBFA40F624
:104DF000B83004F05DFB03F0BDF823780133DBB27B
:104E0000322B2370E3D903F0E9F8E0E700232370A5
:104E10001F48FDF716FBC0B92349204803F0BEFF29
:104E20001F4801F06BFF1F48FCF7ACFA40F6B830A2
:104E300004F03EFB03F09EF823780133DBB2322B03
:104E40002370E5D903F0CAF8E2E700232370104885
:104E5000FDF778FBC0B91549104803F09FFF1048D3
:104E600001F0BAFF0F48FCF78DFA40F6B83004F0B5
:104E70001FFB03F07FF823780133DBB2322B237062
:104E8000E5D903F0ABF8E2E70023237004B010BDCE
:104E9000BB1D0020301E00209AF100087C1E00205F
:104EA000751E0020591A0020E8F1000840F20008A1
:104EB00008B50A4B1A787AB100221A70FEF724FF5F
:104EC000FFF77EFFFFF782FFFEF7F8FEBDE8084020
:104ED0000348044903F062BF08BD00BF311E002033
:104EE0007C1E002096F2000813B5D14C4FF0FF3322
:104EF00000934FF4165200232046CE49FEF7A4FB40
:104F000020460121FEF79CFB002120460A46FDF7C2
:104F10009BFF204601210022FDF796FF204602213B
:104F20000022FDF791FF204603210022FDF78CFFB0
:104F3000204604210022FDF787FF2046052100229C
:104F4000FDF782FF204606210022FDF77DFF204667
:104F500007210022FDF778FF204608210022FDF7F7
:104F600073FF204609210022FDF76EFF20460A212B
:104F70000022FDF769FF20460B210022FDF764FFA8
:104F800020460C210022FDF75FFF20460D21002264
:104F9000FDF75AFF20460E210022FDF755FF20465F
:104FA0000F210022FDF750FF204610210022FDF7BF
:104FB0004BFF204611210022FDF746FF204612211B
:104FC0000022FDF741FF204613210022FDF73CFFA0
:104FD000204614210022FDF737FF2046152100222C
:104FE000FDF732FF204616210022FDF72DFF204657
:104FF00017210022FDF728FF204618210022FDF787
:1050000023FF204619210022FDF71EFF20461A210A
:105010000022FDF719FF20461B210022FDF714FF97
:1050200020461C210022FDF70FFF20461D210022F3
:10503000FDF70AFF20461E210022FDF705FF20464E
:105040001F210022FDF700FF204620210022FDF74E
:10505000FBFE204621210022FDF7F6FE20462221FC
:105060000022FDF7F1FE204623210022FDF7ECFE91
:10507000204624210022FDF7E7FE204625210022BC
:10508000FDF7E2FE204626210022FDF7DDFE204648
:1050900027210022FDF7D8FE204628210022FDF717
:1050A000D3FE204629210022FDF7CEFE20462A21EC
:1050B0000022FDF7C9FE20462B210022FDF7C4FE89
:1050C00020462C210022FDF7BFFE20462D21002284
:1050D000FDF7BAFE20462E210022FDF7B5FE204640
:1050E0002F210022FDF7B0FE204630210022FDF7DF
:1050F000ABFE204631210022FDF7A6FE20463221DC
:105100000022FDF7A1FE204633210022FDF79CFE80
:10511000204634210022FDF797FE2046352100224B
:10512000FDF792FE204636210022FDF78DFE204637
:1051300037210022FDF788FE204638210022FDF7A6
:1051400083FE204639210022FDF77EFE20463A21CB
:105150000022FDF779FE20463B210022FDF774FE78
:1051600020463C210022FDF76FFE20463D21002213
:10517000FDF76AFE20463E210022FDF765FE20462F
:105180003F210022FDF760FE002120460A46FDF780
:1051900064FE204601210022FDF75FFE2046022129
:1051A0000022FDF75AFE204603210022FDF755FE9E
:1051B000204604210022FDF750FE20460521002252
:1051C000FDF74BFE204606210022FDF746FE204655
:1051D00007210022FDF741FE002120460A46FDF787
:1051E00047FE204601210022FDF742FE2046022113
:1051F0000022FDF73DFE204603210022FDF738FE88
:10520000204604210022FDF733FE2046052100221E
:10521000FDF72EFE204606210022FDF729FE20463E
:1052200007210022FDF724FE204600217F2203E013
:10523000341E0020941E002002B0BDE81040FDF78F
:10524000F4BD00BF10B5874C2046FEF721FB204679
:105250000021FDF72BFE80F00101C9B21E2004F0F1
:10526000FBF820460121FDF721FE80F00101C9B2C3
:105270001F2004F0F1F820460221FDF717FE80F010
:105280000101C9B2262004F0E7F820460321FDF70A
:105290000DFE80F00101C9B2272004F0DDF82046A0
:1052A0000421FDF703FE80F00101C9B2282004F0BB
:1052B000D3F820460521FDF7F9FD80F00101C9B2C0
:1052C000292004F0C9F820460621FDF7EFFD80F003
:1052D0000101C9B2082004F0BFF820460721FDF7FC
:1052E000E5FD80F00101C9B20B2004F0B5F82046BD
:1052F0000821FDF7DBFD80F00101C9B20C2004F0AC
:10530000ABF820460921FDF7D1FD80F00101C9B2BB
:105310000D2004F0A1F820460A21FDF7C7FD80F01A
:105320000101C9B20F2004F097F820460B21FDF7C8
:10533000BDFD80F00101C9B22A2004F08DF82020C3
:1053400004F074F8021C18BF012200212046FDF76A
:105350009DFD212004F06AF8021C18BF01220121E2
:105360002046FDF793FD222004F060F8021C18BFD0
:10537000012202212046FDF789FD232004F056F882
:10538000021C18BF012203212046FDF77FFD2C20BF
:1053900004F04CF8021C18BF012204212046FDF73E
:1053A00075FD2B2004F042F8021C18BF01220521D4
:1053B0002046FDF76BFD322004F038F8021C18BFC0
:1053C000012206212046FDF761FD132004F02EF88E
:1053D000021C18BF012207212046FDF757FD0020BF
:1053E00004F016F8002102462046FDF75AFD012080
:1053F00004F00EF8012102462046FDF752FD04207C
:1054000004F006F8022102462046FDF74AFD052079
:1054100003F0FEFF032102462046FDF742FD062071
:1054200003F0F6FF042102462046FDF73AFD07206F
:1054300003F0EEFF052102462046FDF732FD242051
:1054400003F0E6FF062102462046FDF72AFD25204F
:1054500003F0DEFF072102462046BDE81040FDF7BD
:1054600020BD00BF341E0020002110B50A4636487A
:10547000FDF703FD0121044600223348FDF7FDFC42
:1054800008B10134E4B2304802210022FDF7F5FCF6
:1054900008B10134E4B22C4803210022FDF7EDFCF1
:1054A00008B10134E4B2284804210022FDF7E5FCEC
:1054B00008B10134E4B2244805210022FDF7DDFCE7
:1054C00008B10134E4B2204806210022FDF7D5FCE2
:1054D00008B10134E4B21C4807210022FDF7CDFCDD
:1054E00008B10134E4B2184808210022FDF7C5FCD8
:1054F00008B10134E4B2144809210022FDF7BDFCD3
:1055000008B10134E4B210480A210022FDF7B5FCCD
:1055100008B10134E4B20C480B210022FDF7ADFCC8
:1055200060B10B2C0AD100210A460848FFF78AFE19
:105530000749084803F032FC012010BD0649054820
:1055400003F02CFC002010BD341E0020331E002070
:10555000CEF200087C1E002005F3000830B5834819
:105560008BB00C46824903F019FC0222214601A8A7
:1055700003F088FD7F4904A803F01EFD04A907A8D5
:1055800003F05DFD01A907A803F00DFE0146774871
:1055900003F0FAFB07A803F0CDFC04A803F0CAFC53
:1055A000039D082D40F0EA80012304A801A90022F0
:1055B00003F094FE0A22002107A803F074FD07A956
:1055C00004A803F051FE021C18BF012200216A4802
:1055D000FDF753FC044607A803F0ACFC04A803F055
:1055E000A9FC022304A801A9012203F077FE0A22E4
:1055F000002107A803F057FD07A904A803F034FE13
:10560000021C18BF012201215B48FDF736FC05464C
:1056100007A803F08FFC04A803F08CFC0DB1013443
:10562000E4B2032304A801A9022203F057FE0A22D0
:10563000002107A803F037FD07A904A803F014FE12
:10564000021C18BF012202214B48FDF716FC05463B
:1056500007A803F06FFC04A803F06CFC0DB1013443
:10566000E4B2042304A801A9032203F037FE0A22AE
:10567000002107A803F017FD07A904A803F0F4FD13
:10568000021C18BF012203213B48FDF7F6FB05462B
:1056900007A803F04FFC04A803F04CFC0DB1013443
:1056A000E4B2052304A801A9042203F017FE0A228C
:1056B000002107A803F0F7FC07A904A803F0D4FD14
:1056C000021C18BF012204212B48FDF7D6FB05461A
:1056D00007A803F02FFC04A803F02CFC0DB1013443
:1056E000E4B2062304A801A9052203F0F7FD0A226B
:1056F000002107A803F0D7FC07A904A803F0B4FD14
:10570000021C18BF012205211B48FDF7B6FB054608
:1057100007A803F00FFC04A803F00CFC0DB1013442
:10572000E4B2072304A801A9062203F0D7FD0A2248
:10573000002107A803F0B7FC07A904A803F094FD13
:10574000021C18BF012206210B48FDF796FB0546F7
:1057500007A803F0EFFB04A803F0ECFB0DB1013444
:10576000E4B204A801A907220823B3E37C1E0020A9
:105770003CF3000860F30008341E0020072D40F0C1
:10578000CD8000210A466448FDF777FB012301A97B
:105790000022044604A803F0A1FD0A22002107A864
:1057A00003F081FC07A904A803F05EFD021C18BFEA
:1057B000012201215848FDF760FB054607A803F0C8
:1057C000B9FB04A803F0B6FB0DB10134E4B2022327
:1057D00004A801A9012203F081FD0A22002107A8E3
:1057E00003F061FC07A904A803F03EFD021C18BFEA
:1057F000012202214848FDF740FB054607A803F0B7
:1058000099FB04A803F096FB0DB10134E4B2032325
:1058100004A801A9022203F061FD0A22002107A8C1
:1058200003F041FC07A904A803F01EFD021C18BFE9
:10583000012203213848FDF720FB054607A803F0A5
:1058400079FB04A803F076FB0DB10134E4B2042324
:1058500004A801A9032203F041FD0A22002107A8A0
:1058600003F021FC07A904A803F0FEFC021C18BFEA
:10587000012204212848FDF700FB054607A803F094
:1058800059FB04A803F056FB0DB10134E4B2052323
:1058900004A801A9042203F021FD0A22002107A87F
:1058A00003F001FC07A904A803F0DEFC021C18BFEA
:1058B000012205211848FDF7E0FA054607A803F084
:1058C00039FB04A803F036FB0DB10134E4B2062322
:1058D00004A801A9052203F001FD0A22002107A85E
:1058E00003F0E1FB07A904A803F0BEFC021C18BFEB
:1058F000012206210848FDF7C0FA054607A803F073
:1059000019FB04A803F016FB0DB10134E4B204A89E
:1059100001A906220723DDE2341E0020062D40F0F7
:10592000B38000210A46A748FDF7A7FA01210446E3
:105930000022A448FDF7A1FA08B10134E4B2012322
:1059400004A801A9002203F0C9FC0A22002107A82B
:1059500003F0A9FB07A904A803F086FC021C18BFEA
:10596000012202219748FDF788FA054607A803F0AF
:10597000E1FA04A803F0DEFA0DB10134E4B2022327
:1059800004A801A9012203F0A9FC0A22002107A80A
:1059900003F089FB07A904A803F066FC021C18BFEA
:1059A000012203218748FDF768FA054607A803F09E
:1059B000C1FA04A803F0BEFA0DB10134E4B2032326
:1059C00004A801A9022203F089FC0A22002107A8E9
:1059D00003F069FB07A904A803F046FC021C18BFEA
:1059E000012204217748FDF748FA054607A803F08D
:1059F000A1FA04A803F09EFA0DB10134E4B2042325
:105A000004A801A9032203F069FC0A22002107A8C7
:105A100003F049FB07A904A803F026FC021C18BFE9
:105A2000012205216748FDF728FA054607A803F07B
:105A300081FA04A803F07EFA0DB10134E4B2052323
:105A400004A801A9042203F049FC0A22002107A8A6
:105A500003F029FB07A904A803F006FC021C18BFE9
:105A6000012206215748FDF708FA054607A803F06A
:105A700061FA04A803F05EFA0DB10134E4B204A89F
:105A800001A90522062325E2052D40F09D80002175
:105A90000A464C48FDF7F1F9012104460022494825
:105AA000FDF7EBF908B10134E4B2464802210022C7
:105AB000FDF7E3F908B10134E4B2012304A801A918
:105AC000002203F00BFC0A22002107A803F0EBFAE6
:105AD00007A904A803F0C8FB021C18BF0122032178
