:020000040800F2
:10000000000001206DE3000851E6000855E60008F5
:1000100059E600085DE6000861E60008B1E6000860
:10002000B1E60008B1E60008B1E60008B1E6000854
:10003000B1E60008B1E60008B1E6000841EB0008AF
:10004000B1E60008B1E60008B1E6000849E20008A0
:10005000B1E60008B1E60008B1E60008B1E6000824
:10006000B1E60008B1E60008B1E60008B1E6000814
:10007000B1E60008B1E60008B1E60008B1E6000804
:10008000B1E60008B1E6000829E70008B1E600087B
:10009000B1E60008B1E60008B1E60008B1E60008E4
:1000A00089ED0008ADED0008D1ED000809EE00086B
:1000B0005DEE0008CDEE00083DEF0008B1E6000857
:1000C000B1E60008B1E60008B1E60008B1E60008B4
:1000D000B1E6000835F2000889F20008DDF20008F8
:1000E000B1E6000891E20008B1E6000865F00008FA
:1000F00089F00008ADF00008E5F0000879E7000895
:10010000B1E60008B1E60008ADEF0008B1E600086E
:1001100031F3000885F300081DF0000841F00008E5
:10012000B1E60008B1E60008B1E60008B1E6000853
:1001300010B5054C237833B9044B13B10448AFF321
:1001400000800123237010BD501700200000000024
:100150009C58010808B5064B1BB106480649AFF389
:1001600000800648036813B1054B03B1984708BDEA
:10017000000000009C580108541700205017002070
:1001800000000000012902D11C30C0B270470629CE
:1001900084BF01F1FF31C9B211F0010F14BF1E205D
:1001A0001F207047444B2DE9F047B1FBF3F603FBEA
:1001B00016113C23B1FBF3F203FB12120546027049
:1001C0004FF46160B1FBF0F200FB1211B1FBF3F3ED
:1001D0006B704FF4FA63AA70B6B2EB80EC884FF400
:1001E000C873B4FBF3F803FB18481FFA88F8B8F19A
:1001F000000F16D06423B4FBF3F203FB12439BB24F
:10020000002B53D014F0030140F26D130CBF4FF4D8
:10021000B7721A4696420EDB002908BF4FF4B77337
:1002200004E0B6F5B77F06DB4FF4B773F61A013476
:10023000B6B2EC80D2E700236B716423B4FBF3F712
:1002400003FB1747BFB2B8F1000F06D03FB114F05F
:10025000030F14BF0020012002E0012000E0384617
:1002600095F80590C0B24946FFF78CFF864209F128
:10027000010A15D3B8F1000F06D03FB114F0030FF7
:1002800014BF0020012002E0012000E03846C0B287
:100290004946FFF777FF301A86B285F805A0D2E706
:1002A00001362E7185F805A0BDE8F087B6F5B67F5A
:1002B000C1DD40F26D13B9E780510100F8B5427815
:1002C00087783C2303FB072702780579467903FBEF
:1002D0000727013D013EEDB2F6B2044605714671B5
:1002E000013E731CE38834D04FF4C872B3FBF2F1C3
:1002F00002FB113292B262B16422B3FBF2F002FB54
:10030000103080B230B113F0030F14BF0020012071
:1003100000E00120C0B2F1B2FFF734FF284485B2FB
:10032000DEE74FF4C872B3FBF2F102FB113292B276
:10033000AAB16422B3FBF2F102FB113292B28AB18C
:1003400013F0030F40F26D1208BF4FF4B77215445B
:10035000ADB2013B9BB2B3F5FA6FE2D205E04FF4C8
:10036000B772F4E740F26D12F1E7024800FB057046
:10037000F8BD00BF805101000CF006B838B5044646
:100380000D460CF01CF82046A0210CF0AFF82046DA
:100390000CF085F8C5F3072120460CF0A7F820469D
:1003A0000CF07DF8E9B220460CF0A0F820460CF0E5
:1003B00076F820460CF003F82046A1210CF096F8C0
:1003C00020460CF06CF8002120460CF0B6F80546EB
:1003D00020460CF047F820460CF00CF8284638BDB3
:1003E00070B5044616460D460BF0E9FF2046A021E5
:1003F0000CF07CF820460CF052F8C5F3072120469B
:100400000CF074F820460CF04AF8E9B220460CF0E3
:100410006DF820460CF043F8314620460CF066F8A3
:1004200020460CF03CF820460BF0E4FFBDE870409D
:100430000A200FF0A9BC0000064A5178937843EADD
:100440000123A3F52043152B9ABF034AD05C0E204D
:10045000704700BF9C1800207D70010810B5074C44
:100460006018114609F04CFF054B1B881C4414F81A
:10047000073C1B1A5842584110BD00BF9C18002071
:1004800084170020084B18795B7943EA002045F275
:100490005553984205D04CF20303C31A58425841B1
:1004A00070470120704700BF9C180020044B9B79C7
:1004B000552B044B0CBF012200221A70704700BF5D
:1004C0009C1800205118002010B5084CE379552BDA
:1004D00001D1012010BD064803F00DFFE3798342EE
:1004E000F7D0D0F1010038BF002010BD9C180020CB
:1004F000B91B002013B50D4B1C7A552C01D10120DE
:1005000012E00B48694603F051FE00231A461DF81D
:1005100003108C42F3D019B90132D2B2052AEED0C1
:100520000133052BF3D1002002B010BD9C18002030
:10053000B91B002070B586B005461E46FFF78EFF3A
:10054000044680B9304AD3781A441379D62B0AD09E
:100550002E4968460FF0FCF9694603A80FF019FA16
:1005600003A82B4937E02846FFF78CFF044698B1D3
:100570002846FFF79BFF2846FFF7A6FF0446B0B9C1
:10058000AEB1224968460FF0E3F9694603A80FF0BF
:1005900000FA03A81F491EE01C4968460FF0D8F96D
:1005A000694603A80FF0F5F903A81B4913E0284694
:1005B000FFF7A0FF044618BB9DF828300BB90124B3
:1005C0001EE0124968460FF0C3F9694603A80FF010
:1005D000E0F9124903A80FF095FA11490FF092FAC9
:1005E00010490FF08FFA10490FF08CFA01460F48AE
:1005F0000FF0C2F803A80FF069F968460FF066F92A
:10060000204606B070BD00BF9C1800209072010803
:10061000B1720108BD72010898720108DC7201080C
:10062000AE72010833720108589201085C1F002065
:10063000F8B50F460EF096F905F032FF03200DF0E5
:10064000E3FD2F4A002313702E4A1D4613702E4AD5
:100650001E4613702D4A13702D4A13702D4A1360D5
:100660002D4A13702D4A13702D4A13702D4A1370A2
:100670002D4A13702D4A13702D4A13602D4A1360B2
:100680002D4A13702D4A13702D4A13702D4A137082
:100690002D4A13602D4A13702D4A13602D4B0024F0
:1006A000EC502D4BF0B2EC502C4B0121EC502C4B6C
:1006B000EC502C4BEC502C4BEC502C4BEC502C4B6E
:1006C000EC502C4BEC502C4BEC502C4BF4542C4B52
:1006D000F4542C4BF4542C4BF45409F039FC0136EF
:1006E0002A4B0C2EEC5005F10405D7D137B1284820
:1006F00007210322BDE8F8400CF0C0B9F8BD00BFE7
:10070000261C0020E51B00203B1C0020031C0020B1
:10071000C919002098180020021C0020FE1B002090
:10072000FD1B0020271C0020691B00201D18002035
:10073000341C0020CC190020B11B0020B01B00206D
:10074000C8190020531800208017002054180020DA
:10075000AC1B0020181A0020581800209C170020FD
:10076000581A0020D8190020D81A0020DC170020C1
:100770006C1B0020181B0020981A0020591B002019
:10078000871700206D1700200C0000202018002083
:10079000541F002010B53B4B88B01B78002B6ED047
:1007A00000230093042117220123FFF7C3FE002832
:1007B0005CD0354902A80FF0CBF802A905A80FF0CC
:1007C000E8F8324905A80FF09DF931490FF09AF980
:1007D00030490FF097F930490FF094F901462F484E
:1007E0000EF0CAFF05A80FF071F802A80FF06EF81E
:1007F0002A480EF06BFE2A4B1C7A012C33D1294873
:10080000D97C03F0E1FD48B127480F2122460CF0C6
:1008100035F92648214603F0C7F827E0022222488E
:1008200010210CF02BF902A821490FF091F802A930
:1008300005A80FF0AEF805A81E490FF063F914499A
:100840000FF060F913490FF05DF913490FF05AF9F1
:10085000014612480EF090FF05A80FF037F802A8E5
:100860000FF034F802E010480BF016FF124B0C4862
:100870001A88002108B0BDE8104010F067BF08B02A
:1008800010BD00BF1D000020F8720108FF720108B2
:10089000AE720108DE700108589201085C1F00204A
:1008A0009C180020B51B0020541F0020B31B002003
:1008B000047301080C7301088417002000B5444B31
:1008C00089B01B78002B7FD00023009304210A22DB
:1008D0000123FFF72FFE00286DD03E4902A80FF03C
:1008E00037F802A905A80FF054F83B4905A80FF006
:1008F00009F93A490FF006F939490FF003F9394976
:100900000FF000F9014638480EF036FF05A80EF04A
:10091000DDFF02A80EF0DAFF33480EF0D7FD3348B2
:10092000334903F0F5FB10B32A4902A80FF010F881
:1009300002A905A80FF02DF82E4905A80FF0E2F83E
:1009400026490FF0DFF826490FF0DCF825490FF0B3
:10095000D9F8014624480EF00FFF05A80EF0B6FFA7
:1009600002A80EF0B3FF24480321022221E023490C
:1009700002A80EF0EDFF02A905A80FF00AF8204921
:1009800005A80FF0BFF815490FF0BCF814490FF097
:10099000B9F814490FF0B6F8014613480EF0ECFE12
:1009A00005A80EF093FF02A80EF090FF1248042154
:1009B00001220CF063F8134B13481A88002109B088
:1009C0005DF804EB10F0C2BE09B05DF804FB00BF97
:1009D0001D000020F872010835730108AE7201088D
:1009E00038700108589201085C1F0020B91B0020D4
:1009F000A41800203A730108541F00200473010852
:100A000069730108841700209C18002010B500238A
:100A100088B0009304210F22FFF78CFD00287DD0C1
:100A20005B4902A80EF094FF02A905A80EF0B1FFE1
:100A3000584905A80FF066F857490FF063F8574971
:100A40000FF060F856490FF05DF8014655480EF07A
:100A500093FE05A80EF03AFF534C02A80EF036FFA5
:100A600050480EF033FD514804F10A0103F04FF9EC
:100A7000002800F081804D4804F10A0103F087F955
:100A8000002879D0424902A80EF062FF02A905A809
:100A90000EF07FFF464905A80FF034F83E490FF0ED
:100AA00031F83E490FF02EF83D490FF02BF8014682
:100AB0003C480EF061FE05A80EF008FF02A80EF0FB
:100AC00005FF3A48E17903F0DDFB00282FD03049DB
:100AD00002A80EF03DFF02A905A80EF05AFF354905
:100AE00005A80FF00FF82C490FF00CF82B490FF068
:100AF00009F82B490FF006F801462A480EF03CFE93
:100B000005A80EF0E3FE02A80EF0E0FE2A4805213B
:100B100001220BF0B3FF254803F01AFA274B2248B5
:100B20001A88002108B0BDE8104010F00FBE24491B
:100B300002A80EF00DFF02A905A80EF02AFF214918
:100B400005A80EF0DFFF14490EF0DCFF13490EF08C
:100B5000D9FF13490EF0D6FF014612480EF00CFEE5
:100B600005A80EF0B3FE02A80EF0B0FE1248062152
:100B700001220BF083FFD1E7114902A80EF0E8FE35
:100B800002A905A80EF005FF05A80F49D9E700BF87
:100B9000F872010835730108AE72010893700108FC
:100BA000589201085C1F00209C180020B91B0020EF
:100BB000F773010898730108541F00208417002060
:100BC00004730108C87301080E74010800B5304BA6
:100BD00089B01B78002B57D02E4B0421DA780023E4
:100BE00000930123FFF7A6FC002844D02A4902A85D
:100BF0000EF0AEFE02A905A80EF0CBFE274905A80F
:100C00000EF080FF26490EF07DFF26490EF07AFF98
:100C100025490EF077FF014624480EF0ADFD05A8EA
:100C20000EF054FE02A80EF051FE20480EF04EFCCD
:100C3000194902A80EF08CFE02A905A80EF0A9FE23
:100C40001B4905A80EF05EFF15490EF05BFF154924
:100C50000EF058FF14490EF055FF014613480EF0F0
:100C60008BFD05A80EF032FE02A80EF02FFE1148F3
:100C700002210DF02FF8104B06481A88002109B008
:100C80005DF804EB10F062BD09B05DF804FB00BF35
:100C90001D0000209C180020F87201083374010820
:100CA000AE72010868700108589201085C1F0020AC
:100CB00038740108541F00208417002010B52F4BF2
:100CC00088B01B780446002B56D0002300930421E3
:100CD00005220123FFF72EFC002844D0284902A852
:100CE0000EF036FE02A905A80EF053FE254905A810
:100CF0000EF008FF24490EF005FF24490EF002FF14
:100D000023490EF0FFFE014622480EF035FD05A8EE
:100D10000EF0DCFD02A80EF0D9FD194902A80EF074
:100D200017FE02A905A80EF034FE1B4905A80EF017
:100D3000E9FE15490EF0E6FE14490EF0E3FE1449F3
:100D40000EF0E0FE014613480EF016FD05A80EF069
:100D5000BDFD02A80EF0BAFD0E480EF0B7FB20460E
:100D60000121FFF765FC0D4B0D481A88002108B0E2
:100D7000BDE8104010F0EABC08B010BD1D00002016
:100D8000F87201085A740108AE720108A7700108D0
:100D9000589201085C1F00205F740108841700202E
:100DA0009C180020F0B5524B8FB01B78002B00F040
:100DB0009C80504C0025E278042100950123FFF728
:100DC000B9FB2746002800F0878009AC4A4906A8ED
:100DD0000EF0BEFD06A920460EF0DBFD4749204679
:100DE0000EF090FE46490EF08DFE46490EF08AFE4A
:100DF00045490EF087FE014644480EF0BDFC2046F2
:100E00000EF064FD06A80EF061FD40480EF05EFB9A
:100E10000DF0A8FD384906A80EF09AFD06A9204657
:100E20000EF0B7FD3A4920460EF06CFE34490EF044
:100E300069FE34490EF066FE33490EF063FE01464A
:100E400032480EF099FC20460EF040FD06A80EF048
:100E50003DFD20462946142210F078FCFE78053E20
:100E6000142E01D8294620E02A4903A80EF070FD6F
:100E700003A906A80EF08DFD274906A80EF042FE34
:100E80001F490EF03FFE1F490EF03CFE1E490EF0BA
:100E900039FE01461D480EF06FFC06A80EF016FD47
:100EA00003A80EF013FD022207E0B14204D27B1822
:100EB0005B7A63540131F8E70322184B18481A7023
:100EC0002146324607F0AEFC0122164800210BF005
:100ED0007BFE154B01221A70144B06481A8800211C
:100EE0000FB0BDE8F04010F031BC0FB0F0BD00BF56
:100EF0001D0000209C180020F87201086F74010882
:100F0000AE720108B1710108589201085C1F0020FF
:100F10007474010804730108A57401084E1F0020B1
:100F20003A1C0020541F0020FD1B002084170020C5
:100F300070B5324B88B01B78002B5CD0304C00254C
:100F4000E278042100950123FFF7F4FA26460028F1
:100F500051D005AC2B4902A80EF0FAFC02A920469C
:100F60000EF017FD284920460EF0CCFD27490EF063
:100F7000C9FD27490EF0C6FD26490EF0C3FD014606
:100F800025480EF0F9FB20460EF0A0FC02A80EF05A
:100F90009DFC21480EF09AFA1A4902A80EF0D8FCDE
:100FA00002A920460EF0F5FC1C4920460EF0AAFDD1
:100FB00016490EF0A7FD16490EF0A4FD15490EF0D6
:100FC000A1FD014614480EF0D7FB20460EF07EFC32
:100FD00002A80EF07BFC2B46F218527AE254013341
:100FE000072BF9D10E48214605F070F80D4817215E
:100FF00002220BF043FD08B070BD00BF1D000020B1
:101000009C180020F8720108D1740108AE72010822
:10101000A1710108589201085C1F0020D6740108D4
:10102000E41B0020541F0020F0B57F4B8FB01B78CD
:10103000002B00F0F7807D4D0027EA78009704210F
:101040000123FFF777FA002800F0BC800AAC78494A
:1010500007A80EF07DFC07A920460EF09AFC754902
:1010600020460EF04FFD74490EF04CFD73490EF012
:1010700049FD73490EF046FD014672480EF07CFBB7
:1010800020460EF023FC07A80EF020FC6D480EF061
:101090001DFA6D4895F8221095F8232003F0F4FC12
:1010A000F8B96A4907A80EF053FC07A920460EF0CC
:1010B00070FC674920460EF025FD5F490EF022FDC9
:1010C0005E490EF01FFD5E490EF01CFD01465D48B5
:1010D0000EF052FB20460EF0F9FB07A80EF0F6FBCF
:1010E0000127534907A80EF033FC07A920460EF04C
:1010F00050FC584920460EF005FD4F490EF002FD08
:101100004E490EF0FFFC4E490EF0FCFC01464D48E6
:101110000EF032FB20460EF0D9FB002607A80EF099
:10112000D5FB2223204631461022029603968DF8E5
:10113000083010F00BFB33238DF828303346EA18C3
:10114000127A02A95A540133082BF8D10023EA1865
:10115000127CE2540133102BF9D13B4803F048FBD9
:10116000002838D03848214603F008FC002832D047
:101170002F4904A80EF0ECFB04A907A80EF009FC07
:10118000354907A80EF0BEFC2B490EF0BBFC2B49DD
:101190000EF0B8FC2A490EF0B5FC014629480EF0C5
:1011A000EBFA07A80EF092FB04A80EF08FFB26487E
:1011B00003F0EDFA29480BF0A9F829483946012235
:1011C0000BF0B8FD274B19481A8800210FB0BDE875
:1011D000F04010F0BBBA1D4904A80EF0B9FB04A9F9
:1011E00007A80EF0D6FB204907A80EF08BFC124989
:1011F0000EF088FC11490EF085FC11490EF082FCBE
:10120000014610480EF0B8FA07A80EF05FFB04A8DC
:101210000EF05CFB0C4803F0D7FA10480BF076F8A0
:101220000227CAE70FB0F0BD1D0000209C18002067
:10123000F8720108F5740108AE72010849720108DC
:10124000589201085C1F0020B81B0020047301089D
:10125000FA74010811750108257501084C1F00205A
:10126000541F0020841700203E750108F0B5814B03
:101270008DB01B780746002B00F0F9807E4C0025CE
:10128000E278009504210123FFF754F9002800F0CB
:10129000C6807A4906A80EF05BFB06A909A80EF0E5
:1012A00078FB774909A80EF02DFC76490EF02AFC50
:1012B00075490EF027FC75490EF024FC0146744870
:1012C0000EF05AFA09A80EF001FB06A80EF0FEFA7D
:1012D0006F480EF0FBF86F4B0126384629461E700A
:1012E000FFF7A6F96C4B6D4894F8461094F8472028
:1012F0001E7003F0CDFD50B1604906A80EF028FB2A
:1013000006A909A80EF045FB09A8654909E0654949
:1013100006A80EF01DFB06A909A80EF03AFB6249CB
:1013200009A80EF0EFFB57490EF0ECFB56490EF002
:10133000E9FB56490EF0E6FB014655480EF01CFA53
:1013400009A80EF0C3FA06A80EF0C0FA534803F03D
:101350001DFE564D4949286003A80EF0F9FA03A96D
:1013600009A80EF016FB524906A80EF0F1FA06A9DC
:1013700009A80EF0BAFB29680EF0EAFB41490EF00D
:10138000C1FB41490EF0BEFB40490EF0BBFB0146DC
:101390003F480EF0F1F906A80EF098FA09A80EF0F1
:1013A00095FA03A80EF092FA0DF0DCFA0022324B07
:1013B0001046114604EBD00595F848500D41ED0755
:1013C00015D55D7A1E7A05EB06263A4D565193F8EF
:1013D000295093F8286005EB0626374D565193F8AF
:1013E0004B5093F84A6005EB0626344D56510131B7
:1013F000C9B2082900F1010008BF00210C2803F13F
:10140000020302F10402D5D121480EF05FF82C4806
:101410000321194A0BF0FEFC05F02AF81EE02949C9
:1014200006A80EF095FA06A909A80EF0B2FA264908
:1014300009A80EF067FB13490EF064FB12490EF089
:1014400061FB12490EF05EFB014611480EF094F963
:1014500009A80EF03BFA06A80EF038FA1B4B064816
:101460001A8800210DB0BDE8F04010F06FB90DB042
:10147000F0BD00BF1D0000209C180020F87201087C
:1014800057750108AE720108F770010858920108FB
:101490005C1F00201C18002052180020B81B0020E0
:1014A0005C7501080473010878750108981800201C
:1014B000C08B0108581800209C170020D81A002063
:1014C000541F002090720108BF7501088417002086
:1014D0002DE9F041A14B8CB01B780546002B00F0A4
:1014E0003A819F4E0024F278009404210123FFF7F3
:1014F00021F8002800F007819A4906A80EF028FA82
:1015000006A909A80EF045FA974909A80EF0FAFABB
:1015100096490EF0F7FA96490EF0F4FA95490EF056
:10152000F1FA014694480EF027F909A80EF0CEF919
:1015300006A80EF0CBF990480DF0C8FF8F4B0122A2
:10154000284621461A70FFF773F88D4B02221A7055
:10155000327A737A8B4F03EB0223824903A83B60F4
:101560000EF0F6F903A909A80EF013FA864906A8A9
:101570000EF0EEF906A909A80EF0B7FA39680EF0D8
:10158000E7FA82490EF0BEFA78490EF0BBFA7849C4
:101590000EF0B8FA77490EF0B5FA014676480EF02B
:1015A000EBF806A80EF092F909A80EF08FF903A83F
:1015B0000EF08CF9764DB37A6A4903A82B700EF0C1
:1015C000C7F903A909A80EF0E4F9724906A80EF0BC
:1015D000BFF906A909A80EF088FA29780EF0A4FA36
:1015E0006A490EF08FFA61490EF08CFA60490EF0EC
:1015F00089FA60490EF086FA01465F480EF0BCF8A1
:1016000006A80EF063F909A80EF060F903A80EF021
:101610005DF9614DF37A534903A82B700EF098F9E8
:1016200003A909A80EF0B5F95C4906A80EF090F9D7
:1016300006A909A80EF059FA29780EF075FA4B4957
:101640000EF060FA4A490EF05DFA4A490EF05AFA75
:10165000014649480EF090F806A80EF037F909A89F
:101660000EF034F903A80EF031F92546B84606EB22
:10167000D4031B7B2B41DB0734D5D8F80030484F0F
:10168000384947F8243003A80EF062F903A909A8E5
:101690000EF07FF9434906A80EF05AF906A909A8E9
:1016A0000EF023FA21460EF053FA3F490EF02AFAC3
:1016B00057F824100EF04CFA2C490EF023FA2C495E
:1016C0000EF020FA2B490EF01DFA01462A480EF0C2
:1016D00053F806A80EF0FAF809A80EF0F7F803A8D8
:1016E0000EF0F4F80135EDB2082D04F1010408BF45
:1016F00000250C2CBBD12D480321194A0BF00EFC00
:1017000004F0B6FE1EE02A4906A80EF021F906A94B
:1017100009A80EF03EF9274909A80EF0F3F913497C
:101720000EF0F0F912490EF0EDF912490EF0EAF957
:10173000014611480EF020F809A80EF0C7F806A8D7
:101740000EF0C4F81C4B06481A8800210CB0BDE806
:10175000F0410FF0FBBF0CB0BDE8F0811D00002090
:101760009C180020F8720108D3750108AE720108B8
:1017700049700108589201085C1F00201C180020C5
:1017800052180020CC190020D8750108F8950108DE
:10179000B11B0020EE750108B01B00200576010882
:1017A000181A0020197601082E760108541F00200F
:1017B000907201083276010884170020F0B5774B4B
:1017C0008DB01B780546002B00F0E580744E002498
:1017D000F278009404210123FEF7ACFE002800F00B
:1017E000B280704906A80EF0B3F806A909A80EF059
:1017F000D0F86D4909A80EF085F96C490EF082F910
:101800006B490EF07FF96B490EF07CF901466A488E
:101810000DF0B2FF09A80EF059F806A80EF056F820
:1018200065480DF053FE654B0122284621461A708B
:10183000FEF7FEFE624B03221A702546072C8CBF72
:10184000B37D737D2B4103F00103002B3BD0630874
:10185000043316F8132006EB43035B78594F03EB70
:10186000022347F824304F4903A80EF071F803A96A
:1018700009A80EF08EF8544906A80EF069F806A9DA
:1018800009A80EF032F921460EF062F94F490EF028
:1018900039F957F824100EF05BF944490EF032F98B
:1018A00043490EF02FF943490EF02CF90146424806
:1018B0000DF062FF06A80EF009F809A80EF006F870
:1018C00003A80EF003F80135EDB2082D04F1010470
:1018D00008BF00250C2CB1D1337D3D4C03A8314904
:1018E00023700EF035F803A909A80EF052F806A8E7
:1018F00038490EF02DF806A909A80EF0F6F821785F
:101900000EF012F934490EF0FDF828490EF0FAF8FD
:1019100027490EF0F7F827490EF0F4F8014626485B
:101920000DF02AFF06A80DF0D1FF09A80DF0CEFF9B
:1019300003A80DF0CBFF29480321194A0BF086FBC1
:1019400004F096FD1EE0264906A80EF001F806A94F
:1019500009A80EF01EF8234909A80EF0D3F8134980
:101960000EF0D0F812490EF0CDF812490EF0CAF878
:10197000014611480DF000FF09A80DF0A7FF06A8C9
:101980000DF0A4FF184B06481A8800210DB0BDE8E1
:10199000F0400FF0DBBE0DB0F0BD00BF1D00002019
:1019A0009C180020F872010846760108AE72010802
:1019B0003C710108589201085C1F00201C1800208F
:1019C00052180020201800204B7601082E760108BE
:1019D000981700206A760108F8950108541F002026
:1019E000907201088B7601088417002010B5304BE7
:1019F00088B01B78002B58D02E4B0024DA780421B5
:101A000000940123FEF796FD38B302A82A490DF091
:101A10009FFF02A905A80DF0BCFF05A827490EF0FD
:101A200071F827490EF06EF826490EF06BF826493A
:101A30000EF068F8014625480DF09EFE05A80DF051
:101A400045FF02A80DF042FF20480DF03FFD204861
:101A5000214603220BF016FD1EE01E4902A80DF0E0
:101A600077FF02A905A80DF094FF1B4905A80EF009
:101A700049F813490EF046F812490EF043F812499E
:101A80000EF040F8014611480DF076FE05A80DF065
:101A90001DFF02A80DF01AFF104B06481A880021FE
:101AA00008B0BDE810400FF051BE08B010BD00BF37
:101AB0001D0000209C180020F87201089F76010884
:101AC000AE7201086C720108589201085C1F002078
:101AD000541F002090720108BB7601088417002073
:101AE00070B5874B8CB01B78002B00F00781854CBC
:101AF00000230093E27804210123FEF71BFD002858
:101B000000F0D480804906A80DF022FF06A909A89C
:101B10000DF03FFF7D4909A80DF0F4FF7C490DF061
:101B2000F1FF7C490DF0EEFF7B490DF0EBFF014624
:101B30007A480DF021FE09A80DF0C8FE06A80DF0A8
:101B4000C5FE76480DF0C2FC637A257A6E4903A87B
:101B500003EB05250DF0FCFE03A909A80DF019FF04
:101B60006F4906A80DF0F4FE06A909A80DF0BDFF07
:101B700029460DF0EDFF66490DF0C4FF65490DF0F3
:101B8000C1FF65490DF0BEFF014664480DF0F4FD4C
:101B900006A80DF09BFE09A80DF098FE03A80DF015
:101BA00095FE6048217A627A03F0E6F80546F8B9B6
:101BB00006A85D490DF0CCFE06A909A80DF0E9FEC6
:101BC00009A85A490DF09EFF51490DF09BFF51495C
:101BD0000DF098FF50490DF095FF01464F480DF06C
:101BE000CBFD09A80DF072FE06A80DF06FFE00E017
:101BF0000125E37AA67A444903A803EB06260DF0F3
:101C0000A7FE03A909A80DF0C4FE494906A80DF0D6
:101C10009FFE06A909A80DF068FF31460DF098FF58
:101C20003B490DF06FFF3B490DF06CFF3A490DF059
:101C300069FF014639480DF09FFD06A80DF046FEEC
:101C400009A80DF043FE03A80DF040FE3548A17A27
:101C5000E27A03F005F8F8B906A833490DF078FEEA
:101C600006A909A80DF095FE09A832490DF04AFF12
:101C700027490DF047FF27490DF044FF26490DF095
:101C800041FF014625480DF077FD09A80DF01EFE25
:101C900006A80DF01BFE03E015B12748152101E051
:101CA0002548162102220AF0E9FE1EE0234906A873
:101CB0000DF04EFE06A909A80DF06BFE204909A8FB
:101CC0000DF020FF12490DF01DFF12490DF01AFF13
:101CD00011490DF017FF014610480DF04DFD09A800
:101CE0000DF0F4FD06A80DF0F1FD164B05481A881D
:101CF00000210CB0BDE870400FF028BD0CB070BDE5
:101D00001D0000209C180020F8720108CF76010801
:101D1000AE7201081D710108589201085C1F002075
:101D2000D4760108B81B002004730108E47601088A
:101D30000077010810770108541F002090720108F5
:101D40004D7701088417002010B5384B88B01B78F8
:101D5000002B68D0364C00230093E2780421012345
:101D6000FEF7E8FB002836D0324902A80DF0F0FD5E
:101D700002A905A80DF00DFE2F4905A80DF0C2FE21
:101D80002E490DF0BFFE2E490DF0BCFE2D490DF081
:101D9000B9FE01462C480DF0EFFC05A80DF096FDAC
:101DA00002A80DF093FD28480DF090FB2748217AFA
:101DB00002F00AFB20B12648012101F0F5FD29E0DF
:101DC000244902A80DF0C4FD02A905A80DF0E1FD0B
:101DD00005A8214909E0174902A80DF0B9FD02A99B
:101DE00005A80DF0D6FD1D4905A80DF08BFE134981
:101DF0000DF088FE12490DF085FE12490DF082FEAD
:101E0000014611480DF0B8FC05A80DF05FFD02A8D1
:101E10000DF05CFD124B06481A88002108B0BDE8A1
:101E200010400FF093BC08B010BD00BF1D00002093
:101E30009C1800209072010861770108AE720108B9
:101E4000EA710108589201085C1F0020B51B0020B0
:101E5000B31B002004730108667701087977010835
:101E6000841700202DE9F047AE4BA0B01B78002B63
:101E700000F03282AC4C4FF00008E2780421CDF83B
:101E800000800123FEF756FB002800F0E281A749FD
:101E90001AA80DF05DFD1AA91DA80DF07AFDA44940
:101EA0001DA80DF02FFEA3490DF02CFEA2490DF048
:101EB00029FEA2490DF026FE0146A1480DF05CFC6A
:101EC0001DA80DF003FD1AA80DF000FD9C480DF0B3
:101ED000FDFA217A10220BAF090905A80DF085FD46
:101EE00005A938460DF055FD217A102201F00F01A9
:101EF00008A80DF07AFD08A938460DF0F6FD617AC4
:101F00000EAE05461022090930460DF06EFD28463A
:101F100031460DF0EAFD617A11AD8146102201F0E3
:101F20000F0128460DF061FD484629460DF0DDFD04
:101F3000A17A81461022090914A80DF056FD4846E1
:101F400014A90DF0D2FDA17A8146102201F00F01F3
:101F500017A80DF04AFD484617A90DF0C6FDE17A15
:101F60008146102209091AA80DF03FFD48461AA91A
:101F70000DF0BBFDE17A1022814601F00F011DA892
:101F80000DF033FD1DA948460DF0AFFD014602A836
:101F90000DF0FFFC1DA80DF099FC1AA80DF096FCA1
:101FA00017A80DF093FC14A80DF090FC28460DF036
:101FB0008DFC30460DF08AFC08A80DF087FC3846F1
:101FC0000DF084FC05A80DF081FC58491AA80DF00D
:101FD000BFFC1AA91DA80DF0DCFC5A491DA80DF084
:101FE00091FD02A90DF081FD52490DF08BFD524982
:101FF0000DF088FD51490DF085FD014650480DF06A
:10200000BBFB1DA80DF062FC1AA80DF05FFC4C484C
:102010004D49CDF82C80CDF830800DF09CFB444626
:10202000049B9C4212D2214602A80DF0F0FD3038EC
:10203000C1B208290DD839550A2241480DF033FCA8
:102040003F4842490DF087FB0134E9E74FF00009B2
:1020500001E04FF001093E4939480DF097FB00249B
:10206000374839490DF077FB0E940F942E4B1A190F
:10207000117B9A4664290ED80A22314831550DF059
:1020800012FC01342E4831490DF065FB082CEDD1CE
:102090004FF0000801E04FF001082E4928480DF0EC
:1020A00075FB0024264828490DF055FB1194129425
:1020B0009AF814302248A3401B0644BF01232B5535
:1020C000295D0A2201340DF0EEFB082CF0D11C48EA
:1020D00021490DF05BFBB9F1000F45D01F491AA84B
:1020E0000DF036FC1AA91DA80DF053FC1C491DA8C3
:1020F0000DF008FD0F490DF005FD0F490DF002FD33
:102100000E490DF0FFFC01460D480DF035FB1DA8F2
:102110000DF0DCFB1AA80DF0D9FB12480321024A8E
:10212000012390E01D0000209C180020F872010897
:102130008D770108AE7201087E710108589201087E
:102140005C1F002092770108E89301085A7B010880
:10215000A9770108B6770108C77701080473010859
:10216000D8770108541F0020B8F1000F23D05C4934
:102170001AA80DF0EDFB1AA91DA80DF00AFC59498B
:102180001DA80DF0BFFC58490DF0BCFC57490DF0DF
:10219000B9FC57490DF0B6FC014656480DF0ECFA73
:1021A0001DA80DF093FB1AA80DF090FB52480321D7
:1021B000524A022347E05248394602F0F5FE002811
:1021C00054D04F48294602F069FF00284ED04C48B1
:1021D00002F0DEFF002849D04A4B14AA186859685B
:1021E00003C214A83146022208F0AAF904280446C2
:1021F00041D13B4917A80DF0ABFB17A91DA80DF065
:10220000C8FB41491AA80DF0A3FB1AA91DA80DF09F
:102210006CFC35490DF076FC34490DF073FC344903
:102220000DF070FC014633480DF0A6FA1AA80DF027
:102230004DFB1DA80DF04AFB17A80DF047FB2E48DB
:102240002E4A032123460BF013FA02A80DF03EFBA1
:1022500003E028482D490DF099FA2D4B27481A889C
:10226000002120B0BDE8F0470FF070BA03212248EA
:10227000224A0B46E7E7274917A80DF069FB17A983
:102280001DA80DF086FB23491AA80DF061FB1AA9C1
:102290001DA80DF02AFC20490DF034FC1F490DF05B
:1022A00031FC11490DF02EFC10490DF02BFC1049AA
:1022B0000DF028FC01460F480DF05EFA1AA80DF04B
:1022C00005FB1DA80DF002FB17A80DF0FFFA0A4848
:1022D00003210A4A4346B6E720B0BDE8F08700BFB5
:1022E000047301080F780108AE7201087E710108BD
:1022F000589201085C1F0020541F00209C180020E9
:10230000B61B0020307001084A780108DE78010809
:1023100084170020F87201086D780108C27801085E
:10232000F0B59E4B8FB01B78002B00F089819C4F3D
:102330000025FA78042100950123FEF7FBF8002818
:1023400000F05681974908A80DF002FB08A90BA8D8
:102350000DF01FFB94490BA80DF0D4FB93490DF031
:10236000D1FB93490DF0CEFB92490DF0CBFB01461A
:1023700091480DF001FA0BA80DF0A8FA08A80DF08D
:10238000A5FA8D480DF0A2F88C4B03261E708C4CDC
:102390003B7A8C48237002F05FFFA646074628BBB5
:1023A00008A889490DF0D4FA08A90BA80DF0F1FA94
:1023B0000BA886490DF0A6FB7C490DF0A3FB7C49D8
:1023C0000DF0A0FB7B490DF09DFB01467A480DF016
:1023D000D3F90BA80DF07AFA08A80DF077FA7C482B
:1023E000314622783B460BF009FA20E12B46794A28
:1023F00000259D540133082BF9D1774A03AB1068AF
:10240000516803C39EF80030FF2B27D1654905A80A
:102410000DF09EFA05A90BA80DF0BBFA6F4908A8AC
:102420000DF096FA08A90BA80DF05FFB5F490DF0BF
:1024300069FB5F490DF066FB5E490DF063FB0146E9
:102440005D480DF099F908A80DF040FA0BA80DF0C1
:102450003DFA05A80DF03AFA042443E02C46584B07
:10246000EEB21A78C6F10703DBB242FA03F3DB07D8
:1024700035D5584B0122EA544A4905A80DF068FAAF
:1024800005A90BA80DF085FA554908A80DF060FACA
:1024900008A90BA80DF029FB31460DF045FB514969
:1024A0000DF030FB41490DF02DFB41490DF02AFBA9
:1024B00040490DF027FB01463F480DF05DF908A8A3
:1024C0000DF004FA0BA80DF001FA05A80DF0FEF9C5
:1024D0000EAB23440136013403F82C6CE4B2013511
:1024E000082DBCD12F4908A80DF032FA08A90BA875
:1024F0000DF04FFA3C490BA80DF004FB2B490DF0F1
:1025000001FB2B490DF0FEFA2A490DF0FBFA0146BA
:1025100029480DF031F90BA80DF0D8F908A80DF0F5
:10252000D5F9274B2A481A78022101230BF066F9C6
:1025300003A82146012208F021FC002877D10122BE
:10254000214603A809F018FC1649044605A80DF019
:10255000FFF905A90BA80DF01CFA244908A80DF0F5
:10256000F7F908A90BA80DF0C0FA21460DF0DCFA26
:102570000E490DF0C7FA0E490DF0C4FA0D490DF0E1
:10258000C1FA01460C480DF0F7F808A80DF09EF9C5
:102590000BA80DF09BF905A847E000BF1D00002027
:1025A0009C180020F8720108F9780108AE72010841
:1025B000277B0108589201085C1F00205218002058
:1025C00050180020B61B002004730108FE78010893
:1025D000541F0020D0190020307001083079010804
:1025E0004F79010853790108697901088579010853
:1025F000144908A80DF0ACF908A90BA80DF0C9F909
:1026000011490BA80DF07EFA10490DF07BFA104924
:102610000DF078FA0F490DF075FA01460E480DF0ED
:10262000ABF80BA80DF052F908A80DF04FF90B4BC1
:102630000B481A8800210FB0BDE8F0400FF086B8B3
:102640000FB0F0BD9072010894790108AE720108D4
:10265000277B0108589201085C1F00208417002086
:102660009C1800202DE9F0417D4B94B01B78002B85
:1026700000F0C0817B4D0024EA78042100940123FE
:10268000FDF758FFA846002800F08C8176490EA877
:102690000DF05EF90EA911A80DF07BF9734911A890
:1026A0000DF030FA72490DF02DFA72490DF02AFA48
:1026B00071490DF027FA014670480DF05DF811A838
:1026C0000DF004F90EA80DF001F96C480CF0FEFEB7
:1026D00005F108070394049405940694079408945C
:1026E00009940A940125264617F8013B0BA8FF2BF5
:1026F0005D4912D10DF02CF90BA911A80DF049F983
:102700005F490EA80DF024F90EA911A80DF0EDF9FE
:1027100029460DF01DFA5B49CEE0642B38D80DF048
:1027200017F90BA911A80DF034F955490EA80DF0B1
:102730000FF90EA911A80DF0D8F929460DF008FAE5
:1027400051490DF0DFF917F8011C0DF0EDF948497A
:102750000DF0D8F947490DF0D5F947490DF0D2F9F8
:10276000014646480DF008F80EA80DF0AFF811A884
:102770000DF0ACF80BA80DF0A9F814AB17F8012C6C
:102780003344013603F8445C03F8342CF6B2ABE072
:10279000F02B2FD10DF0DCF80BA911A80DF0F9F8F2
:1027A00037490EA80DF0D4F80EA911A80DF09DF927
:1027B00029460DF0CDF935490DF0A4F92C490DF05D
:1027C000A1F92C490DF09EF92B490DF09BF901461A
:1027D0002A480CF0D1FF0EA80DF078F811A80DF0E2
:1027E00075F80BA80DF072F814AB234403F83C5CA9
:1027F000002230E0F12B4DD10DF0AAF80BA911A861
:102800000DF0C7F81E490EA80DF0A2F80EA911A8E8
:102810000DF06BF929460DF09BF91D490DF072F989
:1028200013490DF06FF913490DF06CF912490DF0D1
:1028300069F9014611480CF09FFF0EA80DF046F80B
:1028400011A80DF043F80BA80DF040F814AB234489
:1028500003F83C5C6422013403F82C2CE4B243E01E
:102860001D0000209C180020F8720108A8790108BA
:10287000AE720108B9700108589201085C1F00206F
:102880004F790108AD790108C3790108DC790108A5
:10289000EC7901080DF05CF80BA911A80DF079F89E
:1028A00056490EA80DF054F80EA911A80DF01DF907
:1028B00029460DF04DF952490DF024F951490DF01A
:1028C00021F951490DF01EF950490DF01BF901464F
:1028D0004F480CF051FF0EA80CF0F8FF11A80CF0B7
:1028E000F5FF0BA80CF0F2FF0135092D7FF4FCAECB
:1028F00098F81030474D48490BA82B700DF028F878
:102900000BA911A80DF045F844490EA80DF020F8C8
:102910000EA911A80DF0E9F829780DF005F9404944
:102920000DF0F0F837490DF0EDF837490DF0EAF801
:1029300036490DF0E7F8014635480CF01DFF0EA8AA
:102940000CF0C4FF11A80CF0C1FF0BA80CF0BEFFE7
:10295000344802210122344B0BF000F876B13146A5
:1029600007AA03A807F020FD03A83146022208F0B9
:1029700005FAA0B903A8314602220EE07CB1214637
:1029800009AA05A807F010FD05A82146032208F0B2
:10299000F5F920B905A82146032209F0EDF9002335
:1029A0002B701EE021490EA80CF0D2FF0EA911A831
:1029B0000CF0EFFF1E4911A80DF0A4F811490DF01D
:1029C000A1F811490DF09EF810490DF09BF8014651
:1029D0000F480CF0D1FE11A80CF078FF0EA80CF0F7
:1029E00075FF144B14481A88002114B0BDE8F0415B
:1029F0000EF0ACBE14B0BDE8F08100BF4F79010805
:102A0000FC790108AE720108B970010858920108FA
:102A10005C1F002097170020F87201082D7A01082A
:102A2000F8950108541F0020A41800209072010896
:102A30004F7A0108841700209C180020F0B5674BDE
:102A40008FB01B78002B00F0C780654D0024EA781A
:102A5000042100940123FDF76DFD2F46002800F0AE
:102A60009380604908A80CF073FF08A90BA80CF02C
:102A700090FF5D490BA80DF045F85C490DF042F858
:102A80005B490DF03FF85B490DF03CF801465A48B0
:102A90000CF072FE0BA80CF019FF08A80CF016FF42
:102AA00055480CF013FD554A03AB1068516803C339
:102AB0002B7AFF2B27D14B4905A80CF049FF05A91C
:102AC0000BA80CF066FF4E4908A80CF041FF08A9BE
:102AD0000BA80DF00AF845490DF014F844490DF023
:102AE00011F844490DF00EF8014643480CF044FE3D
:102AF00008A80CF0EBFE0BA80CF0E8FE05A80CF003
:102B0000E5FE04253BE025463B7A661CA34013F016
:102B1000800F31D0334905A80CF01AFF05A90BA886
:102B20000CF037FF374908A80CF012FF08A90BA8D2
:102B30000CF0DBFF21460DF00BF833490CF0E2FFFF
:102B40002A490CF0DFFF2A490CF0DCFF29490CF080
:102B5000D9FF014628480CF00FFE08A80CF0B6FE7D
:102B60000BA80CF0B3FE05A80CF0B0FE0EAB2B4486
:102B7000013503F82C6CEDB2082E3446C4D103A8FD
:102B8000294608F057F81EE0204908A80CF0E0FE9E
:102B900008A90BA80CF0FDFE1D490BA80CF0B2FF14
:102BA00012490CF0AFFF12490CF0ACFF11490CF0C8
:102BB000A9FF014610480CF0DFFD0BA80CF086FEC3
:102BC00008A80CF083FE134B05481A8800210FB0AB
:102BD000BDE8F0400EF0BABD0FB0F0BD1D00002002
:102BE0009C180020F8720108637A0108AE7201088F
:102BF0005E710108589201085C1F002030700108C6
:102C0000687A01084F790108817A010890720108F9
:102C1000917A01088417002030B5694B89B01B7880
:102C2000002B00F0CB80674C0025E2780095042152
:102C30000123FDF77FFC002800F09880624902A87C
:102C40000CF086FE02A905A80CF0A3FE5F4905A8BA
:102C50000CF058FF5E490CF055FF5E490CF052FF36
:102C60005D490CF04FFF01465C480CF085FD05A85E
:102C70000CF02CFE02A80CF029FE58480CF026FCA3
:102C80005748217A02F0F2FAF8B102A84E490CF046
:102C90005FFE02A905A80CF07CFE05A851490CF0C6
:102CA00031FF4B490CF02EFF4A490CF02BFF4A49EB
:102CB0000CF028FF014649480CF05EFD05A80CF019
:102CC00005FE02A80CF002FE27E0474902A80CF01E
:102CD0003FFE02A905A80CF05CFE444905A80CF0D3
:102CE00011FF3B490CF00EFF3A490CF00BFF3A493B
:102CF0000CF008FF014639480CF03EFD05A80CF029
:102D0000E5FD02A80CF0E2FD0A21354802F0AEFA1A
:102D10003348012102F010FB0125637A03B307F069
:102D2000B1FF294902A80CF013FE02A905A80CF076
:102D300030FE2F4905A80CF0E5FE25490CF0E2FE17
:102D400024490CF0DFFE24490CF0DCFE0146234848
:102D50000CF012FD05A80CF0B9FD02A80CF0B6FDB0
:102D6000244803212A460AF0E7FE1EE0224902A871
:102D70000CF0EEFD02A905A80CF00BFE1F4905A8FA
:102D80000CF0C0FE12490CF0BDFE12490CF0BAFE68
:102D900011490CF0B7FE014610480CF0EDFC05A8F7
:102DA0000CF094FD02A80CF091FD154B05481A8813
:102DB000002109B0BDE830400EF0C8BC09B030BDFC
:102DC0001D0000209C180020F8720108A57A010857
:102DD000AE72010805720108589201085C1F0020BC
:102DE000B61B0020AA7A010804730108BD7A010805
:102DF000D07A0108541F002090720108DD7A010882
:102E00008417002010B586B00446FDF715FB132883
:102E100076D8DFE800F03E42460A0E12161A4A4EF5
:102E200052565A5E1E62666A6E722046FDF7B2FC0A
:102E300066E02046FDF742FD62E02046FDF7E6FD34
:102E40005EE02046FDF7C2FE5AE02046FDF736FF61
:102E500056E068462B490CF07BFD694603A80CF050
:102E600098FD03A828490CF04DFE28490CF04AFEB5
:102E700027490CF047FE27490CF044FE014626483E
:102E80000CF07AFC03A80CF021FD68460CF01EFD46
:102E900036E02046FDF786FF32E02046FEF748F890
:102EA0002EE02046FEF7C0F82AE02046FEF7DEF9C5
:102EB00026E02046FEF70CFB22E02046FEF77EFCD3
:102EC0001EE02046FEF792FD1AE02046FEF708FEBF
:102ED00016E02046FEF738FF12E02046FEF7C2FF5C
:102EE0000EE02046FFF71CFA0AE02046FFF7BAFB87
:102EF00006E02046FFF7A2FD02E02046FFF78CFE29
:102F000006B010BD90720108F17A0108AE72010896
:102F1000D4710108589201085C1F00202DE9F74F79
:102F2000444D002682462E800BF01CFD424B0127AB
:102F30001968344601919B4640480CF0E3FA00289A
:102F400006DD0199DBF8002001F6B8339A4222D35E
:102F50000BF008FD062C69D139483A490CF016FCF3
:102F600036B9394B1B788BB15046FFF74BFF0DE05C
:102F700028880023801BDAB2F4188242E4B203F1FD
:102F80000103EEDA31490C5D8C54F4E703B0BDE87F
:102F9000F04F0BF0E7BCB5F80090284809F10102AA
:102FA0002A800CF05BFADFF8A4802B8808F809006F
:102FB000434413F8011C102221480CF074FC2449EE
:102FC0001F480CF0C8FB1D480CF09CFA002802DCDE
:102FD00004200CF0D9FE2B88B3F5967F02D3154B55
:102FE00000221A8047B12B8808EB030212F8012C4B
:102FF000FE2AA1D15E1EF6B22B88434413F8013C91
:103000000D2B02D1E3070BD404E00A2B0AD114F0F4
:10301000010309D00134E4B2062C99D000278BE7D4
:103020000124FBE70024F9E71C46F7E703B0BDE8FD
:10303000F08F00BF84170020AC200020741F0020F8
:103040005C1F00200F7B01081C0000209C18002042
:103050005A7B010808B50448FFF760FF0BF082FCBB
:10306000BDE8084003F028BA8617002008B51D20E7
:1030700000210CF09FFE1D2001210CF059FE1020B4
:1030800000210CF097FE112000210CF093FE1C2073
:1030900000210CF08FFE112000210CF049FE1C20B5
:1030A00001210CF045FEBDE80840102000210CF085
:1030B0003FBE000001480CF083BA00BF741F00201F
:1030C00008B561B100211C200CF032FE96200CF0F6
:1030D0005BFEBDE808401C2001210CF029BE08BDA4
:1030E00008B500211D200CF023FE0C480CF06BFAF3
:1030F000022000210CF05EFE032000210CF05AFE9D
:10310000022000210CF014FE032000210CF010FE20
:10311000BDE808401C2000210CF00ABE741F0020EE
:1031200010B50B78452B12D14B78522B0FD18B78E1
:10313000CC78303B03EB8303303C04EB4304E4B234
:1031400021460A2203480CF0B7FB204610BD0A2096
:1031500010BD00BF5C1F00200B784F2B07D14878B3
:103160004B2804D113704B78012053707047002016
:10317000704700002DE9F04190B00E4601A8654966
:103180001C4690460CF0E4FB624904A80CF0E0FBFE
:10319000604907A80CF0DCFB2046002104220EF059
:1031A000D5FAE023A370E37035460027AB1B4345F7
:1031B0003AD229780A220DA80CF006FC0DA901A824
:1031C0000CF04EFC0DA80CF081FB15F8013B2C2BEC
:1031D00028D0303BDBB2092B98BF05F8013C15F82D
:1031E000011C57B92D2902D14B484C4909E00DA8C3
:1031F0000A220CF0E9FB04A80DE02D2906D146486F
:1032000047490CF0C3FAF023E370CFE70DA80A2278
:103210000CF0DAFB07A80DA90CF022FC0DA80CF0AD
:1032200055FBC3E70127C1E73E490AA80CF090FB14
:103230000AA90DA80CF0ADFB01A90DA80CF055FCD6
:10324000014635480CF098FA0DA80CF03FFB0AA88F
:103250000CF03CFB34490DA80CF07AFB0DA92E486C
:103260000CF06CFA0DA80CF031FBA3782A48F02B77
:1032700001D12E4903E0E02B0CBF26492C490CF06C
:103280006AFA04A90DA80CF084FB2A490DA80CF0D9
:1032900039FC014620480CF06FFA0DA80CF016FB23
:1032A00025490DA80CF054FB0DA91B480CF046FA5B
:1032B0000DA80CF00BFBE3781748F02B01D11B494C
:1032C00003E0E02B0CBF134919490CF044FA07A99D
:1032D0000DA80CF05EFB0DA816490CF013FC01467E
:1032E0000D480CF049FA0DA80CF0F0FA04A80CF007
:1032F000EEFC207007A80CF0EAFC607007A80CF048
:10330000E5FA04A80CF0E2FA01A80CF0DFFA10B01C
:10331000BDE8F081227F01085C1F00205C7B010872
:10332000697B0108777B0108827B0108928801088C
:103330008D7B01089A7B0108A17B0108F8B54C78C8
:10334000432C08D18C78532C05D1CC78B4F151059D
:103350006C426C4100E000240026F5B24F5D01365E
:103360003A2FFAD10135EDB200279542FEB207F1AE
:10337000010706D811F805C0013501F806C0EDB205
:10338000F3E73CB92046C2B2B2420BD20A5C1A54EF
:103390000130F8E7069A022412681470721ED2B245
:1033A000FFF7E8FE0120F8BD37B5154809B9154902
:1033B00000E015490CF0CFF964200CF0E5FC002486
:1033C0000F480CF09FF80028E5B208DD062C14D059
:1033D0000B480CF043F80DF804000134F0E755B148
:1033E0009DF802304F2B08D19DF80300B0F14B033C
:1033F0005842584102E0284600E0002003B030BDAA
:10340000741F0020D3800108AD7B010810B5012195
:1034100004461D200CF08CFC07484FF416510CF0AC
:10342000CFF820460121FFF74BFE20460121BDE8E1
:103430001040FFF7B9BF00BF741F00202DE9F04115
:103440009EB005AD0C4607460021904628466422F2
:1034500003930EF07BF921462C480CF07CF9642094
:103460000CF092FC002429480CF04CF80028E6B23D
:1034700007DD642C45D025480BF0F0FF28550134BA
:10348000F1E726B9224923480CF080F939E09DF88C
:1034900014300D2B35D19DF815300A2B31D11EABD0
:1034A000334413F8653C0A2B2BD1023E1EAB334448
:1034B00013F8643C0D2B24D10021CCB2A31CDBB249
:1034C000B34201F1010107DA1EAA134413F8643C68
:1034D000144404F8643CF0E738462946FFF720FE20
:1034E0000A280CD103AB00933846294622464346AE
:1034F000FFF724FF00280CBF0320022002E0012078
:1035000000E003201EB0BDE8F08100BF741F002062
:10351000B37B01085C1F00202DE9F041B2B00646E4
:103520000D4690460021642268461F460EF00EF9B3
:1035300019A8002164220EF009F90024E3B2E85C26
:10354000013420B132AA134403F8640CF6E70146B3
:10355000CAB25D1818F80240EDB232AA01312A440D
:1035600014B102F8644CF3E70D2302F8643C6B1CC1
:1035700032A8DBB203442F480A2203F8642C036804
:1035800019A95B6898472C48AA1C036819A99B686D
:10359000D2B2984764200CF0F7FB27480BF0B2FF3B
:1035A0000028E5B208DD642C3FD023480BF056FF1D
:1035B0000DF804000134F0E7002D36D09DF80030FE
:1035C0000D2B32D19DF801300A2B2ED132AB2B447A
:1035D00013F8C93C0A2B28D1023D32AB2B4413F817
:1035E000C83C0D2B21D100218B1CDBB2AB4201F179
:1035F000010209DA32A8034413F8C83CC9B20144F5
:1036000001F8C83C1146EFE730466946FFF788FDF0
:103610000A2808D1304669463A46FFF79DFD80F0FA
:103620000100C0B202E0012000E0032032B0BDE89A
:10363000F08100BF5C1F0020741F0020F7B51E46FC
:10364000044617460D4600218DF80710FFF7ACFE23
:103650000BF088F9204631462FB12A460DF10703B9
:10366000FFF7ECFE03E0089A2B46FFF755FF03280F
:103670002AD8DFE800F011040207002311E0164801
:10368000164901E0144816490CF080F82046012143
:10369000FFF78AFE00201CE012490F480CF076F874
:1036A00012E09DF807205E1CDBB29A420A4809D955
:1036B000E95C10220CF0F7F807480B490CF04BF8C6
:1036C0003346EEE70CF04CF820460121FFF76CFE84
:1036D000012003B0F0BD00BF5C1F0020C77B0108C4
:1036E000D87B0108E17B01085A7B01082DE9F043F2
:1036F0008BB004AF804600210922384602AE002478
:103700000EF024F80094404631460122454BFFF765
:1037100095FF054620B9444944480CF037F87DE050
:103720002346F25C07AC092A01D8303204E0A2F14A
:103730000A01052998BF3732E2540133082BF0D132
:103740004FF000093A488DF8249000F099FF0246A6
:1037500000284AD0374935480CF018F83448394623
:1037600000F0B4FE00283BD04B46E15CFA5C91428D
:1037700048D10133082BF8D12F492C480CF006F81A
:103780002E492A480BF0E7FF9DF8161027480BF04A
:10379000DDFF9DF8171025480BF0D8FF9DF8141099
:1037A00022480BF0D3FF9DF8151020480BF0CEFFF8
:1037B0009DF812101D480BF0C9FF9DF813101B480F
:1037C0000BF0C4FF9DF8101018480BF0BFFF9DF8D8
:1037D000111016480BF0BAFF14480BF0C1FF1DE0A2
:1037E000174912480BF0D2FF07E0009440463146DB
:1037F000144BFFF723FF054680B121460C4800F02B
:10380000D9FE0AE0104909480BF0C0FF0097404676
:10381000314600220B4BFFF711FF054628460BB03F
:10382000BDE8F083F77B0108027C01085C1F0020E3
:10383000B51B0020227C0108AA7C0108D47C010869
:10384000407C0108647C01086D7C01082DE9F04F83
:1038500089B002AF07F10C068346894690461C46A4
:10386000304600210A220DF071FF002C50D1C7F81C
:1038700004D05846CDF80080314601224B46FFF770
:10388000DDFE824608B1214606E0404940480BF083
:103890007DFF3F483F496FE0CCB218F8043001315A
:1038A000002BF9D1E11D01F4FC71ADEB010D02A972
:1038B000D8B2A04203D2F05CC8540133F8E70B46FB
:1038C000581AC0B2A0420DD213F8010B092801D832
:1038D000303004E0A0F10A05052DF1D8373003F8A7
:1038E000010CEDE70025EBB2A34243D24B5D01355D
:1038F00008EB050010F8010C9842F4D02649244842
:103900000BF044FF224825490BF040FF7B689D46A1
:103910006C460023DAB219F8021001330A29F9D1F2
:10392000931D03F4FC73ADEB030DA2F1020E02AB89
:103930000020C1B2551EA94200F1010003DA19F8B6
:1039400001505D54F5E700223D215A55584603F8D1
:103950000E10CDF800803146FFF770FE054628B9FD
:103960000B480F490BF012FFAA4601E04FF0010A85
:10397000A54605E006480B490BF008FF7B689D460D
:1039800050461C37BD46BDE8F08F00BFE27C010801
:103990005C1F0020087D01082C7D0108837D010843
:1039A000C57D0108FA7D01082DE9F0418AB006AF16
:1039B0000F2204460D46384600210DF0C7FE9B48F5
:1039C0009B490BF0E3FE0A260AF0CCFF002D40F0E5
:1039D000DF802046FFF78AFE96498DF81800964A48
:1039E0002B462046FFF732FF2B468DF819009349EE
:1039F0002046934AFFF72AFFDFF8D0828DF81A009D
:103A000098F80030012B04D18E4988480BF0BEFE97
:103A10002BE0022B0FD18C4984480BF0B7FE8B4969
:103A20008B4A20462B46FFF711FF8A498DF81B0071
:103A3000894A204624E0894968460BF089FF694697
:103A400003A80BF0A6FF98F8001003A80CF06CF880
:103A500083490CF057F8014674480BF08DFE03A81B
:103A60000BF034FF68460BF031FF78497D4A204661
:103A70002B46FFF7EBFE77497B4A8DF81B0020466B
:103A80002B46FFF7E3FEDFF848828DF81C0098F81C
:103A90000030222B04D1754964480BF077FE23E0F7
:103AA0000C2B07D1724961480BF070FE204671491A
:103AB000714A1CE0714968460BF04AFF694603A849
:103AC0000BF067FF98F8001003A80CF02DF864497C
:103AD0000CF018F8014655480BF04EFE03A80BF009
:103AE000F5FE68460BF0F2FE6249654A2046002367
:103AF000FFF7ACFE8DF81D00624800F0C9FCF1280C
:103B00006149204608D1614A0023FFF79FFE6049C2
:103B10008DF81E00454807E0494A0023FFF796FE4E
:103B20005C498DF81E0041480BF030FE5A495B4A53
:103B300000232046FFF78AFE59498DF81F00574A97
:103B400000232046FFF782FE56498DF820004F4A99
:103B500000232046FFF77AFE53498DF82100534A8F
:103B600000232046FFF772FE51498DF82200514A8A
:103B700000232046FFF76AFE314A8DF823004E49A4
:103B800020460023FFF762FE0D228DF824000EE090
:103B90003C4800F07DFCF1280CBF3C4A284A2046F6
:103BA00039490023FFF752FE01228DF81800002347
:103BB000F95CA9B941491D480BF0E8FD2046FFF723
:103BC00025FC2046FFF78CFA0AF0CCFE2046FFF7D2
:103BD0001DFC4FF4FA600CF0D7F80AF0C3FE04E0C5
:103BE0000133D9B29142E3D31DE035480BF08AFC92
:103BF000002803DD32480BF031FCF6E7013E16F0F9
:103C0000FF067FF4E1AE2F4908480BF0BFFD2E49B7
:103C100006480BF0BBFD40F6B8300CF0B5F80AF0E2
:103C2000A1FE0AF0D3FE0AB0BDE8F0815C1F0020BF
:103C3000227E0108517E01085D7E0108667E010832
:103C4000637E0108707E0108AE7E0108847E010853
:103C5000C27E0108997E0108CB7E0108D47E01084E
:103C6000EF7E0108907E0108A57E0108067F01080D
:103C7000237F0108187F0108327F0108357F010882
:103C8000157F0108B51B00204E7F0108D374010881
:103C9000587F0108657F0108727F01088F7701084E
:103CA0007C7F0108867F0108907F0108D17601089A
:103CB000997F010835740108A37F0108AD7F0108D1
:103CC000741F0020CA7F0108F67F0108B21B002084
:103CD000B41B0020152001210CF02AB808B51520CE
:103CE00000210CF025F8BDE8084032200CF04CB85B
:103CF00010B50021044615200CF05CF815200121B8
:103D00000CF016F82046BDE81040FCF735BB7FB537
:103D100005460E46FFF7E2FF0D24331921462846DB
:103D200013F80D2C0134FCF75BFB162CF5D1304653
:103D3000092106F0E5FA0646214628463246FCF7F8
:103D40004FFB0D2421462846FCF718FB01AB23440A
:103D50000134162C03F80D0CF4D101A8092106F04A
:103D6000CFFAB04203D0FFF7B5FF00200DE02846A0
:103D70000B21FCF703FB552804D028460B215522C4
:103D8000FCF72EFBFFF7A6FF012004B070BD7FB546
:103D900005460E46FFF7A2FF172433192146284691
:103DA00013F8172C0134FCF71BFB202CF5D13046FF
:103DB000092106F0A5FA0646214628463246FCF7B8
:103DC0000FFB172421462846FCF7D8FA01AB234401
:103DD0000134202C03F8170CF4D101A8092106F0B6
:103DE0008FFAB04203D0FFF775FF00200DE02846A0
:103DF0000C21FCF7C3FA552804D028460C21552283
:103E0000FCF7EEFAFFF766FF012004B070BDF0B5D5
:103E100085B001AD06460F462846002109220DF067
:103E200095FC0D2421463046FCF7A8FA2B190134E5
:103E3000162C03F80D0CF5D121463046FCF79EFAFE
:103E400009210446284606F05BFA844206D1002385
:103E5000EA5CFA540133092BFAD101E0002000E0BA
:103E6000012005B0F0BDF0B585B001AD06460F46A6
:103E70002846002109220DF069FC1724214630460E
:103E8000FCF77CFA2B190134202C03F8170CF5D120
:103E900021463046FCF772FA09210446284606F00E
:103EA0002FFA844206D10023EA5CFA540133092B2D
:103EB000FAD101E0002000E0012005B0F0BD37B5E7
:103EC0000C461E210546FCF759FA1F218DF8040007
:103ED0002846FCF753FA02218DF8050001A806F0E8
:103EE0000FFA207003B030BD10B50B210446FCF76B
:103EF00045FA88B1FFF7F2FE204600220B21FCF7BD
:103F00006FFAFFF7E7FE20460B21FCF737FAD0F1F6
:103F1000010038BF002010BD012010BD10B50C21DC
:103F20000446FCF72BFA88B1FFF7D8FE20460022A2
:103F30000C21FCF755FAFFF7CDFE20460C21FCF7CB
:103F40001DFAD0F1010038BF002010BD012010BDC6
:103F500010B521210446FCF711FA552811D0FFF7BE
:103F6000BDFE204655222121FCF73AFAFFF7B2FEAA
:103F700020462121FCF702FAB0F15503584258417E
:103F800010BD012010BD08B52121FCF7F7F9B0F1F3
:103F900055035842584108BD70B586B004460D46D9
:103FA000FFF735FF28B120462946FFF75CFF0028C0
:103FB00077D120462946FFF72AFF18B368464A49B9
:103FC0000BF0C6FC694603A80BF0E3FC03A84749C5
:103FD0000BF098FD46490BF095FD46490BF092FD1C
:103FE00045490BF08FFD014644480BF0C5FB03A883
:103FF0000BF06CFC68460BF069FC20462946FFF785
:10400000C6FE6EE029462046FFF72DFF06463649DC
:1040100068460EB30BF09CFC694603A80BF0B9FC94
:1040200003A837490BF06EFD31490BF06BFD3149A8
:104030000BF068FD30490BF065FD01462F480BF091
:104040009BFB03A80BF042FC68460BF03FFC2046AC
:104050002946FFF75CFE44E00BF07AFC694603A8B2
:104060000BF097FC274903A80BF04CFD20490BF0FF
:1040700049FD20490BF046FD1F490BF043FD014669
:104080001E480BF079FB03A80BF020FC68460BF0F0
:104090001DFC2046FFF728FF2046FFF73FFF304674
:1040A0001FE0194968460BF053FC694603A80BF062
:1040B00070FC164903A80BF025FD0D490BF022FDFD
:1040C0000C490BF01FFD0C490BF01CFD01460B4881
:1040D0000BF052FB03A80BF0F9FB68460BF0F6FB64
:1040E000012006B070BD00BF04730108D78001082D
:1040F000AE720108B0800108589201085C1F0020D0
:104100000E81010845810108F872010859810108F2
:10411000F8B504460E462F2573192046294613F894
:104120002F7CFCF72BF9874203D10135342DF3D1D5
:1041300036E0FFF7D3FD2F2573192946204613F8E3
:104140002F2C0135FCF74CF9342DF5D105213046E3
:1041500006F0D6F80746294620463A46FCF740F9CD
:104160002F2520462946FCF709F9731913F82F3C2F
:10417000834217D10135342DF3D120462946FCF76F
:10418000FDF8B8420ED120463521FCF7F7F8552846
:1041900004D0204635215522FCF722F9FFF79AFD7D
:1041A0000120F8BDFFF796FD0020F8BDF7B50546E4
:1041B0000E462F2421462846FCF7E0F800AB2344A6
:1041C0000134342C03F82F0CF4D10521684606F095
:1041D00097F8214607462846FCF7D0F8874207D1D2
:1041E00000231DF80320F2540133052BF9D101E01F
:1041F000002000E0012003B0F0BD73B505462F2478
:1042000021462846FCF7BAF800AB23440134342C8D
:1042100003F82F0CF4D16846052106F071F8214609
:1042200006462846FCF7AAF8331A5842584102B00D
:1042300070BD38B50546FFF751FD2F2428462146AD
:10424000FCF79CF868B1284621460022FCF7C8F824
:1042500028462146FCF792F818B1FFF73BFD0020F5
:1042600038BD0134342CE9D128463521FCF786F8D5
:1042700020B1284635210022FCF7B2F8FFF72AFDCD
:10428000012038BD37B50D468DF80710362104469C
:10429000FCF774F885422BD002ADFFF71FFD15F82F
:1042A000012D20463621FCF79BF80121284606F017
:1042B00027F8372102462046FCF792F8204636219F
:1042C000FCF75CF89DF8073083420DD12046382179
:1042D000FCF754F8552804D0204638215522FCF725
:1042E0007FF8FFF7F7FC03E0FFF7F4FC002000E0A5
:1042F000012003B030BD3621FCF740B837B5362178
:104300000546FCF73BF802AB03F8010D1846012106
:1043100005F0F6FF372104462846FCF72FF8231A4C
:104320005842584103B030BD10B536210446FCF761
:1043300025F888B1FFF7D2FC204636210022FCF791
:104340004FF820463621FCF719F818B1FFF7C2FCE8
:10435000002010BDFFF7BEFC012010BD10B54821A4
:104360000446FCF70BF8552811D0FFF7B7FC2046A0
:1043700055224821FCF734F8FFF7ACFC20464821D1
:10438000FBF7FCFFB0F155035842584110BD012026
:1043900010BD10B54D210446FBF7F0FF552810D095
:1043A000FFF79CFC204655224D21FCF719F8FFF73A
:1043B00091FC20460021FBF7E1FF003018BF0120EF
:1043C00010BD012010BD000030B589B08DF8071078
:1043D0001031C9B20129044629D84C21FBF7CEFF80
:1043E0009DF80730834243D008ADFFF777FC15F8FE
:1043F000192D20464C21FBF7F3FF0121284605F03B
:104400007FFF4E2102462046FBF7EAFF20464C2163
:10441000FBF7B4FF9DF80730834205D12046FFF734
:10442000B8FFFFF757FC23E0FFF754FC1EE01249EA
:1044300002A80BF08DFA02A905A80BF0AAFA0F4901
:1044400005A80BF05FFB0E490BF05CFB0D490BF070
:1044500059FB0D490BF056FB01460C480BF08CF94B
:1044600005A80BF033FA02A80BF030FA002000E0A8
:10447000012009B030BD00BF047301088981010823
:10448000AE7201083F870108589201085C1F0020A6
:1044900037B54C210446FBF771FF02AB03F8010D61
:1044A0001846012105F02CFF4E2105462046FBF75A
:1044B00065FF854202D19DF8070004E02046F02107
:1044C000FFF782FFF02003B030BD0000F0B50546D5
:1044D00089B00E464F2421462846FBF74FFF00AB1C
:1044E00023440134572C03F84F0CF4D108216846BB
:1044F00005F006FF214607462846FBF73FFF8742A7
:1045000027D100231DF80320F2540133082BF9D1E1
:10451000114902A80BF01CFA02A905A80BF039FA00
:104520000E4905A80BF0EEFA0D490BF0EBFA0D4918
:104530000BF0E8FA0C490BF0E5FA01460B480BF0DA
:104540001BF905A80BF0C2F902A80BF0BFF9012076
:1045500000E0002009B0F0BDF8720108AA8101084E
:10456000AE72010866870108589201085C1F00209E
:1045700010B558210446FBF701FF552808D0FFF776
:10458000ADFB204658215522FBF72AFFFFF7A2FB7F
:1045900010BD10B558210446FBF7F0FE40B1FFF7FF
:1045A0009DFB204658210022FBF71AFFFFF792FBE4
:1045B00010BD0000F0B50F4689B00546FFF78EFB31
:1045C0003846082105F09CFE4F2406463B1921463B
:1045D000284613F84F2C0134FBF702FF572CF5D176
:1045E000214628463246FBF7FBFE4F24214628464B
:1045F000FBF7C4FE00AB23440134572C03F84F0CE7
:10460000F4D16846082105F07BFE864206D0284694
:10461000FFF7BFFFFFF75EFB002022E0124902A870
:104620000BF096F902A905A80BF0B3F90F4905A8FC
:104630000BF068FA0E490BF065FA0E490BF062FABE
:104640000D490BF05FFA01460C480BF095F805A8F0
:104650000BF03CF902A80BF039F92846FFF788FF68
:10466000012009B0F0BD00BFF8720108BF81010848
:10467000AE7201087A800108589201085C1F002080
:1046800008B55821FBF77AFEB0F15503584258415E
:1046900008BD10B57F210446FBF770FE55280AD0EF
:1046A000FFF71CFB20467F215522FBF799FEFFF701
:1046B00011FB002010BD012010BD38B50C467E2135
:1046C0000546FBF75BFEA04208D0FFF707FB284634
:1046D0007E212246FBF784FEFFF7FCFA012038BD5D
:1046E0007E21FBF74BBE10B581210446FBF746FE49
:1046F00055280AD0FFF7F2FA204681215522FBF710
:104700006FFEFFF7E7FA002010BD012010BD38B59D
:104710000C4680210546FBF731FEA04208D0FFF78A
:10472000DDFA284680212246FBF75AFEFFF7D2FA2F
:10473000012038BD8021FBF721BE70B504460E462E
:104740001546FFF7CBFA204632462221FBF748FEFA
:10475000204623212A46FBF743FEFFF7BBFA70BD34
:10476000FBF70CBEFBF70ABE70B504460E461546B5
:10477000FFF7B4FA204632462421FBF731FE2046EB
:1047800025212A46FBF72CFEFFF7A4FA70BD10B5D1
:104790000446FFF7A3FA204655225921FBF720FED5
:1047A000FFF798FA20465921FBF7E8FDB0F15503D1
:1047B0005842584110BD08B55921FBF7DFFDB0F153
:1047C00055035842584108BD10B50446FFF786FA14
:1047D000204600225921FBF703FEFFF77BFA204613
:1047E0005921FBF7CBFDD0F1010038BF002010BDEF
:1047F00070B5002388B005460E4600930193FFF77D
:104800006DFA5A2433192146284613F85A2C0134DC
:10481000FBF7E6FD622CF5D13046082105F070FD6E
:104820000646214628463246FBF7DAFD5A24214641
:104830002846FBF7A3FD00AB23440134622C03F8A8
:104840005A0CF4D10821684605F05AFD0446FFF7DA
:1048500041FAB44202A81FD120490BF079F802A90D
:1048600005A80BF096F81E4905A80BF04BF91D4959
:104870000BF048F91C490BF045F91C490BF042F9C3
:1048800001461B480AF078FF05A80BF01FF802A8A4
:104890000BF01CF801201EE016490BF059F802A994
:1048A00005A80BF076F8144905A80BF02BF90D4973
:1048B0000BF028F90C490BF025F90C490BF022F903
:1048C00001460B480AF058FF05A80AF0FFFF02A8AE
:1048D0000AF0FCFF002008B070BD00BFF8720108AC
:1048E000D4810108AE720108968701085892010828
:1048F0005C1F002004730108EF81010830B587B008
:104900001749054668460BF023F8694603A80BF0E3
:1049100040F8144903A80BF0F5F813490BF0F2F82E
:1049200012490BF0EFF812490BF0ECF80146114870
:104930000AF022FF03A80AF0C9FF68460AF0C6FF82
:104940005A2421462846FBF719FD0B4B1A1901344E
:10495000622C02F85A0CF4D1184607B030BD00BFE3
:10496000F8720108227F0108AE720108A8870108C9
:10497000589201085C1F0020BB1B002070B500236B
:1049800088B005460E4600930193FFF7A7F963240C
:1049900033192146284613F8632C0134FBF720FD18
:1049A0006B2CF5D13046082105F0AAFC0646732190
:1049B00028463246FBF714FD632421462846FBF7C0
:1049C000DDFC00AB234401346B2C03F8630CF4D101
:1049D0000821684605F094FC0446FFF77BF9B442D1
:1049E00002A81FD120490AF0B3FF02A905A80AF0C6
:1049F000D0FF1E4905A80BF085F81D490BF082F881
:104A00001C490BF07FF81C490BF07CF801461B4851
:104A10000AF0B2FE05A80AF059FF02A80AF056FFF4
:104A200001201EE016490AF093FF02A905A80AF02A
:104A3000B0FF144905A80BF065F80D490BF062F8BA
:104A40000C490BF05FF80C490BF05CF801460B4881
:104A50000AF092FE05A80AF039FF02A80AF036FF14
:104A6000002008B070BD00BFF87201081D82010867
:104A7000AE72010889800108589201085C1F00206D
:104A8000047301083882010870B50E4686B074219F
:104A900004461546FBF772FCB04205D1204675214D
:104AA000FBF76CFCA84219D0FFF718F920467421D7
:104AB0003246FBF795FC204675212A46FBF790FC11
:104AC000FFF708F920467421FBF758FCB04226D1C5
:104AD00020467521FBF752FCA84220D121496846A7
:104AE0000AF036FF694603A80AF053FF1E4903A8DF
:104AF0000BF008F81D490BF005F81D490BF002F802
:104B00001C490AF0FFFF01461B480AF035FE03A8C6
:104B10000AF0DCFE68460AF0D9FE01201FE01749C2
:104B200068460AF015FF694603A80AF032FF1449E7
:104B300003A80AF0E7FF0D490AF0E4FF0C490AF068
:104B4000E1FF0C490AF0DEFF01460B480AF014FEB3
:104B500003A80AF0BBFE68460AF0B8FE002006B0C3
:104B600070BD00BFF872010856820108AE720108DC
:104B70006D800108589201085C1F00200473010831
:104B80006A82010810B5044686B0FFF7A7F82046F0
:104B900074210022FBF724FC204675210022FBF73C
:104BA0001FFCFFF797F820467421FBF7E7FB20B9BD
:104BB00020467521FBF7E2FB00B3214968460AF065
:104BC000C7FE694603A80AF0E4FE1E4903A80AF0DE
:104BD00099FF1D490AF096FF1C490AF093FF1C49F2
:104BE0000AF090FF01461B480AF0C6FD03A80AF030
:104BF0006DFE68460AF06AFE00201FE0164968460E
:104C00000AF0A6FE694603A80AF0C3FE134903A8EA
:104C10000AF078FF0C490AF075FF0C490AF072FFA0
:104C20000B490AF06FFF01460A480AF0A5FD03A8E8
:104C30000AF04CFE68460AF049FE012006B010BD9D
:104C4000047301087E820108AE720108888701089A
:104C5000589201085C1F0020F87201089282010836
:104C600070B50E4686B07A2104461546FBF786FBE2
:104C7000B04205D120467B21FBF780FBA84219D02A
:104C8000FFF72CF820467A213246FBF7A9FB204695
:104C90007B212A46FBF7A4FBFFF71CF820467A216C
:104CA000FBF76CFBB04226D120467B21FBF766FB6D
:104CB000A84220D1214968460AF04AFE694603A865
:104CC0000AF067FE1E4903A80AF01CFF1D490AF0FE
:104CD00019FF1D490AF016FF1C490AF013FF01468F
:104CE0001B480AF049FD03A80AF0F0FD68460AF0E7
:104CF000EDFD01201FE0174968460AF029FE6946CC
:104D000003A80AF046FE144903A80AF0FBFE0D4969
:104D10000AF0F8FE0C490AF0F5FE0C490AF0F2FE22
:104D200001460B480AF028FD03A80AF0CFFD6846AB
:104D30000AF0CCFD002006B070BD00BFF87201087B
:104D40000A830108AE7201083580010858920108F3
:104D50005C1F0020047301082383010838B57A2101
:104D60000546FBF70BFB7B2104462846FBF706FBB9
:104D700000EB042038BD000070B50E4686B07821E7
:104D800004461546FBF7FAFAB04205D120467921D0
:104D9000FBF7F4FAA84219D0FEF7A0FF20467821CD
:104DA0003246FBF71DFB204679212A46FBF718FB0C
:104DB000FEF790FF20467821FBF7E0FAB04226D1BB
:104DC00020467921FBF7DAFAA84220D1214968462A
:104DD0000AF0BEFD694603A80AF0DBFD1E4903A8E0
:104DE0000AF090FE1D490AF08DFE1D490AF08AFE68
:104DF0001C490AF087FE01461B480AF0BDFC03A8C7
:104E00000AF064FD68460AF061FD01201FE01749C1
:104E100068460AF09DFD694603A80AF0BAFD1449E8
:104E200003A80AF06FFE0D490AF06CFE0C490AF067
:104E300069FE0C490AF066FE01460B480AF09CFC2C
:104E400003A80AF043FD68460AF040FD002006B0C2
:104E500070BD00BFF87201086E830108AE720108D0
:104E6000CA870108589201085C1F002004730108DA
:104E70008783010838B578210546FBF77FFA792149
:104E800004462846FBF77AFA00EB042038BD000000
:104E900070B50E4686B07C2104461546FBF76EFAC7
:104EA000B04205D120467D21FBF768FAA84219D00F
:104EB000FEF714FF20467C213246FBF791FA20468C
:104EC0007D212A46FBF78CFAFEF704FF20467C2161
:104ED000FBF754FAB04226D120467D21FBF74EFA6B
:104EE000A84220D1214968460AF032FD694603A84C
:104EF0000AF04FFD1E4903A80AF004FE1D490AF0FE
:104F000001FE1D490AF0FEFD1C490AF0FBFD0146A9
:104F10001B480AF031FC03A80AF0D8FC68460AF0E6
:104F2000D5FC01201FE0174968460AF011FD6946CB
:104F300003A80AF02EFD144903A80AF0E3FD0D4969
:104F40000AF0E0FD0C490AF0DDFD0C490AF0DAFD3B
:104F500001460B480AF010FC03A80AF0B7FC6846AB
:104F60000AF0B4FC002006B070BD00BFF872010862
:104F7000D2830108AE7201085287010858920108D5
:104F80005C1F002004730108ED83010838B57C2103
:104F90000546FBF7F3F97D2104462846FBF7EEF9B9
:104FA00000EB042038BD000070B586B005460E4603
:104FB000FEF794FE002404F18201325D284601349C
:104FC000FBF70EFA082CF6D1FEF784FE00242846E3
:104FD00004F18201FBF7D2F9335D834220D02349EB
:104FE00068460AF0B5FC694603A80AF0D2FC2049DD
:104FF00003A80AF087FD1F490AF084FD1E490AF044
:1050000081FD1E490AF07EFD01461D480AF0B4FBF1
:1050100003A80AF05BFC68460AF058FC002022E076
:105020000134082CD3D1174968460AF091FC69462F
:1050300003A80AF0AEFC144903A80AF063FD0D4969
:105040000AF060FD0C490AF05DFD0C490AF05AFDBA
:1050500001460B480AF090FB03A80AF037FC6846AB
:105060000AF034FC012006B070BD00BF04730108D3
:105070003E840108AE7201089B8001085892010825
:105080005C1F0020F87201085D840108052902D820
:105090008231FBF773B900207047000070B586B00D
:1050A00005460E46FEF71AFE002404F18A01325D21
:1050B00028460134FBF794F9082CF6D1FEF70AFED6
:1050C0008A2428462146FBF759F9331913F88A3CFC
:1050D000834220D0224968460AF03AFC694603A878
:1050E0000AF057FC1F4903A80AF00CFD1E490AF0FC
:1050F00009FD1E490AF006FD1D490AF003FD01469F
:105100001C480AF039FB03A80AF0E0FB68460AF0E5
:10511000DDFB002022E00134922CD2D116496846F2
:105120000AF016FC694603A80AF033FC134903A8E9
:105130000AF0E8FC0C490AF0E5FC0C490AF0E2FC34
:105140000B490AF0DFFC01460A480AF015FB03A8E8
:105150000AF0BCFB68460AF0B9FB012006B070BD3E
:1051600004730108B4840108AE7201087587010850
:10517000589201085C1F0020F8720108E5840108BC
:10518000052902D88A31FBF7F9B8002070470000E2
:1051900010B5044686B0FEF7A1FD204692215522A7
:1051A000FBF71EF9FEF796FD20469221FBF7E6F885
:1051B000552868461FD120490AF0CAFB694603A852
:1051C0000AF0E7FB1D4903A80AF09CFC1C490AF001
:1051D00099FC1C490AF096FC1B490AF093FC014615
:1051E0001A480AF0C9FA03A80AF070FB68460AF0E8
:1051F0006DFB01201EE016490AF0AAFB694603A8D0
:105200000AF0C7FB134903A80AF07CFC0C490AF01A
:1052100079FC0C490AF076FC0B490AF073FC014654
:105220000A480AF0A9FA03A80AF050FB68460AF0F7
:105230004DFB002006B010BDF8720108488501083A
:10524000AE720108BA870108589201085C1F00205D
:10525000047301087285010808B59221FBF78EF8E6
:10526000B0F155035842584108BD000030B50C4616
:1052700087B00546FEF732FD284693212246FBF70C
:10528000AFF8FEF727FD28469321FBF777F8A042F9
:1052900068461FD120490AF05BFB694603A80AF063
:1052A00078FB1E4903A80AF02DFC1D490AF02AFCD0
:1052B0001C490AF027FC1C490AF024FC01461B4843
:1052C0000AF05AFA03A80AF001FB68460AF0FEFA4F
:1052D00001201EE016490AF03BFB694603A80AF0CC
:1052E00058FB144903A80AF00DFC0D490AF00AFC0A
:1052F0000C490AF007FC0C490AF004FC01460B4873
:105300000AF03AFA03A80AF0E1FA68460AF0DEFA6F
:10531000002007B030BD00BFF8720108F685010813
:10532000AE72010857800108589201085C1F0020E6
:10533000047301080F86010830B50C4687B0054696
:10534000FEF7CCFC284694212246FBF749F8FEF7ED
:10535000C1FC28469421FBF711F8A04268461FD1F2
:1053600020490AF0F5FA694603A80AF012FB1E4923
:1053700003A80AF0C7FB1D490AF0C4FB1C490AF048
:10538000C1FB1C490AF0BEFB01461B480AF0F4F9B8
:1053900003A80AF09BFA68460AF098FA01201EE07A
:1053A00016490AF0D5FA694603A80AF0F2FA144938
:1053B00003A80AF0A7FB0D490AF0A4FB0C490AF068
:1053C000A1FB0C490AF09EFB01460B480AF0D4F9F8
:1053D00003A80AF07BFA68460AF078FA002007B0C2
:1053E00030BD00BFF872010860860108AE72010886
:1053F00047800108589201085C1F002004730108CF
:105400007A86010808B59421FAF7B8FF003018BF72
:10541000012008BD2DE9F04186B0054616460F462D
:1054200009F0A0FAFEF75AFC06EB05082C464445A5
:1054300007D07B1B21461A5D3448FAF7D1FF0134AF
:10544000F5E7FEF747FC0024B4423CD004EB050826
:105450002E484146FAF792FF3B5D834231D009F076
:1054600081FA2B4968460AF073FA694603A80AF0E4
:1054700090FA284903A80AF045FB21460AF068FB88
:1054800025490AF03FFB414604462048FAF776FFDB
:10549000014620460AF048FB20490AF033FB204928
:1054A0000AF030FB1F490AF02DFB01461E480AF0A6
:1054B00063F903A80AF00AFA68460AF007FA02201C
:1054C00021E00134C0E7194968460AF041FA69460B
:1054D00003A80AF05EFA164903A80AF013FB0F4965
:1054E0000AF010FB0E490AF00DFB0E490AF00AFB08
:1054F00001460D480AF040F903A80AF0E7F96846AA
:105500000AF0E4F9002006B0BDE8F0816C17002035
:1055100004730108CE8601089B880108AE72010859
:105520001F800108589201085C1F0020907201083A
:10553000DB860108F8B505460E4617180446BC423E
:1055400007D021460448FAF719FF731B1855013498
:10555000F5E70020F8BD00BF6C17002000220260B4
:1055600042607047006820B103688B4201D08068B8
:10557000F9E7704770B504460C2016460D460BF04F
:105580005DFD00228260226880E860000AB9206028
:1055900001E062689060606070BD10B51446FFF76E
:1055A000E1FF08B14460012010BD08B5FFF7DAFF44
:1055B00000B1406808BD01F51C414131FFF7DABF79
:1055C00001F51C414131FFF7E8BF01F51C414131B4
:1055D000FFF7EBBF002A01F1010114BF4FF47F4236
:1055E0000022FFF7C7BF002A01F51C5101F111018C
:1055F00014BF4FF47F420022FFF7BCBF01F5EA4120
:105600003131FFF7B7BF002A01F1010114BF4FF498
:105610007F420022FFF7C1BF002A01F51C5101F1B2
:10562000110114BF4FF47F420022FFF7B6BF01F50E
:10563000EA413131FFF7B1BF08B50131FFF7B5FFDE
:10564000B0F57F435842584108BD01F51C5108B5DB
:105650001131FFF7AAFFB0F57F435842584108BD0A
:1056600001F5EA413131FFF7A0BF000070B50446F3
:105670000D460948094916460AF088F8A0680BF05B
:10568000E5FC022020730BF0D9FC803D0323A060D1
:1056900005704670637370BD5C1F0020DC870108D5
:1056A000F8B5531E7C2B04460F46164602D903213B
:1056B0000A4617E001F51C414131FFF753FF18B9C5
:1056C0002046032102220DE0A0680BF0BFFC701CF5
:1056D0004000C0B220730BF0B1FCA06030B920468E
:1056E00003210422BDE8F840FFF7C0BF0323037085
:1056F000237B0025023B4370E9192046FFF765FF35
:10570000A3680135020A03F81520A368B54203EB2C
:1057100045035870F0D103236373F8BD70B5044698
:105720000E461546FFF74CFF18B920460621022207
:1057300008E020463146FFF748FFA84206D0204641
:1057400006210422BDE87040FFF790BF0223637377
:1057500070BD2DE9F8431F4616467A1E7A2A044684
:1057600088469DF8203002D8B3EB470F03D020467F
:10577000102103221CE006F51C45413505EB070905
:1057800020462946FFF7EEFE18B9204610210222D6
:105790000EE001354D45F3D1A0680BF057FC052014
:1057A00020730BF04BFCA06030B92046102104227E
:1057B000BDE8F843FFF75ABF10230370330A437064
:1057C000002307718670C37008F106053744BE4296
:1057D00005F102050BD015F8022C15F8013C3146F5
:1057E000204643EA0222FFF7EBFE0136EFE70323F0
:1057F0006373BDE8F8832DE9F843531EB3F5FA6FE0
:1058000004460F46154602D30121032219E0013157
:10581000FFF7A8FE18B920460121022211E0A06876
:105820000BF014FCC5F3C7036A070CBF0233033344
:105830002373207B0BF002FCA06030B920460121CD
:105840000422BDE8F843FFF711BF01230370237B57
:1058500005EB0708023B43703E46002546451CD039
:1058600031462046FFF7E8FEC7F10109B1444FEA8F
:10587000D909012109F10203A268A94010B1D05C45
:10588000014302E0D05C20EA01010135EDB2082DB0
:10589000D15408BF00250136E0E703236373BDE858
:1058A000F88300002DE9F843531EB3F5FA6F044660
:1058B0000F46154602D3022103221FE001F51C51B9
:1058C0001131FFF74FFE18B920460121022215E0E1
:1058D0002249234809F05AFFA0680BF0B7FBC5F333
:1058E000C7036A070CBF023303332373207B0BF01B
:1058F000A5FBA06030B9204602210422BDE8F84390
:10590000FFF7B4BE02230370237B05EB0708023BBD
:1059100043703E46002546451CD031462046FFF7E1
:1059200094FEC7F10109B1444FEAD909012109F1F7
:105930000203A268A94010B1D05C014302E0D05C30
:1059400020EA01010135EDB2082DD15408BF002530
:105950000136E0E703236373BDE8F883FF8701089E
:105960005C1F0020F8B5531E7C2B04460F461646DC
:1059700002D90421032217E001F5EA413131FFF792
:10598000F1FD18B92046012102220DE0A0680BF0BC
:105990005DFB701C4000C0B220730BF04FFBA06099
:1059A00030B9042120460A46BDE8F840FFF75EBE44
:1059B00004230370237B0025023B4370E919204632
:1059C000FFF74EFEA3680135020A03F81520A3680D
:1059D000B54203EB45035870F0D103236373F8BD60
:1059E00070B5B2F57F4F86B004460E4603D012B1B3
:1059F0000521032215E0151C18BF0125204631465C
:105A00002A46FFF700FE18B920460521022208E0C9
:105A100020463146FFF710FEA84205D0204605215A
:105A20000422FFF723FE17E00C49684609F090FFB7
:105A3000694603A809F0ADFF094903A80AF062F816
:105A40000146084809F098FE03A809F03FFF6846A0
:105A500009F03CFF0223637306B070BD298801087A
:105A6000418801085C1F00202DE9F0438BB00446FB
:105A7000894604A86C49DF081D46164609F068FFF0
:105A800004A907A809F085FF394607A80AF060F8BD
:105A90000146664809F070FE07A809F017FF04A840
:105AA00009F014FF6B0705F1FF3318BF0137B3F599
:105AB000F66F03D29DF84830BB4207D05C495B4883
:105AC00009F064FE20460F2103224DE0771C07EB0E
:105AD000050820463946FFF745FD18B920460F2135
