:020000040800F2
:100000000000012061B5000851B8000855B800088B
:1000100059B800085DB8000861B80008B1B8000818
:10002000B1B80008B1B80008B1B80008B1B800080C
:10003000B1B80008B1B80008B1B8000841BD000867
:10004000B1B80008B1B80008B1B800083DB4000864
:10005000B1B80008B1B80008B1B80008B1B80008DC
:10006000B1B80008B1B80008B1B80008B1B80008CC
:10007000B1B80008B1B80008B1B80008B1B80008BC
:10008000B1B80008B1B8000829B90008B1B8000833
:10009000B1B80008B1B80008B1B80008B1B800089C
:1000A00089BF0008ADBF0008D1BF000809C0000823
:1000B0005DC00008CDC000083DC10008B1B800080F
:1000C000B1B80008B1B80008B1B80008B1B800086C
:1000D000B1B8000835C4000889C40008DDC40008B0
:1000E000B1B8000885B40008B1B8000865C20008BE
:1000F00089C20008ADC20008E5C2000879B900084D
:10010000B1B80008B1B80008ADC10008B1B8000826
:1001100031C5000885C500081DC2000841C200089D
:10012000B1B80008B1B80008B1B80008B1B800080B
:1001300010B5054C237833B9044B13B10448AFF321
:1001400000800123237010BD501700200000000024
:100150009C2A010808B5064B1BB106480649AFF3B7
:1001600000800648036813B1054B03B1984708BDEA
:10017000000000009C2A010854170020501700209E
:1001800000000000012902D11C30C0B270470629CE
:1001900084BF01F1FF31C9B211F0010F14BF1E205D
:1001A0001F207047444B2DE9F047B1FBF3F603FBEA
:1001B00016113C23B1FBF3F203FB12120546027049
:1001C0004FF46160B1FBF0F200FB1211B1FBF3F3ED
:1001D0006B704FF4FA63AA70B6B2EB80EC884FF400
:1001E000C873B4FBF3F803FB18481FFA88F8B8F19A
:1001F000000F16D06423B4FBF3F203FB12439BB24F
:10020000002B53D014F0030140F26D130CBF4FF4D8
:10021000B7721A4696420EDB002908BF4FF4B77337
:1002200004E0B6F5B77F06DB4FF4B773F61A013476
:10023000B6B2EC80D2E700236B716423B4FBF3F712
:1002400003FB1747BFB2B8F1000F06D03FB114F05F
:10025000030F14BF0020012002E0012000E0384617
:1002600095F80590C0B24946FFF78CFF864209F128
:10027000010A15D3B8F1000F06D03FB114F0030FF7
:1002800014BF0020012002E0012000E03846C0B287
:100290004946FFF777FF301A86B285F805A0D2E706
:1002A00001362E7185F805A0BDE8F087B6F5B67F5A
:1002B000C1DD40F26D13B9E780510100F8B5427815
:1002C00087783C2303FB072702780579467903FBEF
:1002D0000727013D013EEDB2F6B2044605714671B5
:1002E000013E731CE38834D04FF4C872B3FBF2F1C3
:1002F00002FB113292B262B16422B3FBF2F002FB54
:10030000103080B230B113F0030F14BF0020012071
:1003100000E00120C0B2F1B2FFF734FF284485B2FB
:10032000DEE74FF4C872B3FBF2F102FB113292B276
:10033000AAB16422B3FBF2F102FB113292B28AB18C
:1003400013F0030F40F26D1208BF4FF4B77215445B
:10035000ADB2013B9BB2B3F5FA6FE2D205E04FF4C8
:10036000B772F4E740F26D12F1E7024800FB057046
:10037000F8BD00BF8051010009F024BC38B5044627
:100380000D4609F03AFC2046A02109F0CDFC20469C
:1003900009F0A3FCC5F30721204609F0C5FC20465F
:1003A00009F09BFCE9B2204609F0BEFC204609F0AA
:1003B00094FC204609F021FC2046A12109F0B4FC60
:1003C000204609F08AFC0021204609F0D4FC0546AD
:1003D000204609F065FC204609F02AFC284638BD75
:1003E00070B5044616460D4609F007FC2046A021CC
:1003F00009F09AFC204609F070FCC5F3072120465D
:1004000009F092FC204609F068FCE9B2204609F0A8
:100410008BFC204609F061FC3146204609F084FC43
:10042000204609F05AFC204609F002FCBDE8704065
:100430000A200CF0A9BD0000064A5178937843EADF
:100440000123A3F52043152B9ABF034AD05C0E204D
:10045000704700BF601800203842010810B5074CF3
:100460006018114607F044FD054B1B881C4414F826
:10047000073C1B1A5842584110BD00BF60180020AD
:10048000E2170020084B18795B7943EA002045F217
:100490005553984205D04CF20303C31A58425841B1
:1004A00070470120704700BF60180020044B9B7903
:1004B000552B044B0CBF012200221A70704700BF5D
:1004C000601800201518002010B5084CE379552B52
:1004D00001D1012010BD064802F0BFFDE37983423F
:1004E000F7D0D0F1010038BF002010BD6018002007
:1004F000B31B002013B50D4B1C7A552C01D10120E4
:1005000012E00B48694602F003FD00231A461DF86D
:1005100003108C42F3D019B90132D2B2052AEED0C1
:100520000133052BF3D1002002B010BD601800206C
:10053000B31B002070B505461E46FFF78FFF04462B
:1005400040B91C4AD3781A441379D62B02D01A48E2
:100550001A492BE02846FFF795FF044678B1284654
:10056000FFF7A4FF2846FFF7AFFF044670B96EB14E
:10057000134911480CF00AFA0F48124916E01249C3
:100580000D480CF003FA0C4810490FE02846FFF71D
:10059000B1FF044660B99DF810300BB9012407E0A3
:1005A0000B4905480CF0F2F903480A490CF0EEF942
:1005B000204670BD601800205C1F0020AA42010880
:1005C000CE420108054301084E4201087C42010861
:1005D0003C43010874430108F8B50F460BF0C2FA1A
:1005E00004F0EEF903200AF009FF2F4A00231370EC
:1005F0002E4A1D4613702E4A1E4613702D4A137044
:100600002D4A13702D4A13602D4A13702D4A137012
:100610002D4A13702D4A13702D4A13702D4A1370F2
:100620002D4A13602D4A13602D4A13702D4A137002
:100630002D4A13702D4A13702D4A13602D4A1370E2
:100640002D4A13602D4B0024EC502D4BF0B2EC5092
:100650002C4B0121EC502C4BEC502C4BEC502C4BE8
:10066000EC502C4BEC502C4BEC502C4BEC502C4BBE
:10067000EC502C4BF4542C4BF4542C4BF4542C4B8A
:10068000F45407F0F3FA01362A4B0C2EEC5005F126
:100690000405D7D137B1284807210322BDE8F84027
:1006A00009F07ABDF8BD00BF261C0020E11B002028
:1006B000361C0020FF1B00208D1900205C18002034
:1006C000FE1B0020FA1B0020F91B0020271C002025
:1006D000251B0020E1170020041C00209019002099
:1006E00096170020AC1B00208C1900201718002042
:1006F0008017002018180020A81B0020D419002003
:100700001C18002098170020141A002094190020AB
:10071000941A0020681B0020281B0020D41A0020F7
:10072000541A0020151B0020851700206D1700208B
:100730000C000020E4170020531F00201F4B13B5AE
:100740001B78002B37D000230093042117220123AC
:10075000FFF7F0FE30B31A491A480CF017F91948A0
:100760000BF0B4FF184B1C7A012C18D11748D97C18
:1007700002F0DCFC48B116480F21224609F00CFDBE
:100780001448214602F03EF80CE0114810210222E4
:1007900009F002FD10490B480CF0F8F802E00C4893
:1007A00009F074FB0D4B08481A88002102B0BDE81F
:1007B00010400EF0CBB802B010BD00BF1D000020ED
:1007C000A84301085C1F002060180020B01B002017
:1007D000531F0020AE1B0020C8430108E217002071
:1007E0001A4B07B51B786BB30023009304210A2230
:1007F0000123FFF79FFEE0B1154916480CF0C6F83B
:1008000014480BF063FF1448144902F033FB38B16D
:10081000134910480CF0BAF812480321022206E0EE
:1008200011490C480CF0B2F80E480421012209F0DD
:10083000B3FC0E4B0E481A88002103B05DF804EBA0
:100840000EF084B803B05DF804FB00BF1D0000206B
:100850000C4401085C1F0020B31B00206818002016
:1008600024440108531F002066440108E2170020B9
:100870006018002013B50023009304210F22FFF716
:1008800059FE40B31F492048204C0CF07FF81E4809
:100890000BF01CFF1E4804F10A0102F060F968B376
:1008A0001B4804F10A0102F09AF938B319491648B5
:1008B0000CF06CF81648E17902F096FBA0B11649ED
:1008C00011480CF063F815480521012209F064FC79
:1008D0000F4802F065FA124B0C481A88002102B04A
:1008E000BDE810400EF032B807480E490CF04EF843
:1008F0000A480621012209F04FFCECE702480A49A8
:10090000F4E700BFA84401085C1F00206018002025
:10091000B31B00204E450108C3440108531F0020AB
:10092000E2170020094501087B450108134B07B574
:100930001B7803B3124B0421DA78002300930123C0
:10094000FFF7F8FD70B10F490F480CF01FF80E4883
:100950000BF0BCFE0D490C480CF018F80C480221B5
:100960000AF0A6FB0B4B06481A88002103B05DF87D
:1009700004EB0DF0EBBF03B05DF804FB1D0000209D
:1009800060180020B64501085C1F0020D245010810
:10099000531F0020E2170020134B13B51B780446A9
:1009A000FBB100230093042105220123FFF7C2FDC0
:1009B00070B10E490E480BF0E9FF0E490C480BF0E0
:1009C000E5FF0B480BF082FE20460121FFF704FEF5
:1009D000094B0A481A88002102B0BDE810400DF00A
:1009E000B5BF02B010BD00BF1D0000200B460108BE
:1009F0005C1F002024460108E21700206018002038
:100A0000F0B5284B89B01B78002B49D0264D002427
:100A1000EA78042100940123FFF78CFD2F4600287B
:100A200035D0224922480BF0B1FF21480BF04EFE91
:100A300003AD0BF097F81F491D480BF0A7FF2846A0
:100A4000214614220DF082FFFE78053E142E01D8B7
:100A5000234605E0164818490BF098FF022207E0EC
:100A6000B34204D2FA18527AEA540133F8E7032267
:100A7000124B13481A702946324605F0B9FE01227E
:100A80001048002109F00AFC0F4B01221A700F4B8D
:100A900005481A88002109B0BDE8F0400DF056BFA6
:100AA00009B0F0BD1D000020601800203446010888
:100AB0005C1F00205E460108B4460108541F002058
:100AC000371C0020531F0020F91B0020E2170020D4
:100AD00030B5154B85B01B781BB3144D0024EA7854
:100AE000009404210123FFF725FDD0B110491148DE
:100AF0000BF04CFF0F480BF0E9FD0E480E490BF0D0
:100B000045FF2346EA18527A02A95A540133072BAB
:100B1000F8D10A4803F06AFD09481721022209F0BA
:100B20003BFB05B030BD00BF1D0000206018002059
:100B3000054701085C1F00201C470108E01B00203E
:100B4000531F0020F0B53A4B89B01B78002B6CD0B6
:100B5000384C0026E278009604210123FFF7EAFCD6
:100B600000284DD0344935480BF010FF33480BF0C6
:100B7000ADFD334894F8221094F8232002F020FDB4
:100B800020B92E482F490BF001FF012600252E49E0
:100B90002A4804AF0BF0FAFE2223384629461022D9
:100BA000029503958DF808300DF0D0FE33238DF8B3
:100BB00010302B46E218127A02A95A540133082B3E
:100BC000F8D10023E218127CFA540133102BF9D12A
:100BD0001B4802F053FCE0B11948394602F0ACFC66
:100BE000B8B11A4915480BF0D1FE154802F015FCB2
:100BF000174808F0A9FF17483146012209F0E0FB29
:100C0000154B0C481A88002109B0BDE8F0400DF0E2
:100C10009DBE124909480BF0B9FE094802F01AFCC2
:100C20000B4808F091FF0226E5E709B0F0BD00BFD0
:100C30001D000020601800204D4701085C1F0020A7
:100C4000BD1B002077470108B2470108EA470108A9
:100C50004C1F0020531F0020E217002027480108E6
:100C6000F0B54A4B89B01B780746002B00F08C800A
:100C7000474C0025E278009504210123FFF75AFC38
:100C8000002874D0434944480BF080FE42480BF0E2
:100C90001DFD424B0126384629461E70FFF79CFC7D
:100CA0003F4B404894F8461094F847201E7002F0DD
:100CB00083FD10B138483C4901E037483B490BF00F
:100CC00065FE384802F0B4FD394D3A49286002A863
:100CD0000BF03EFF02A905A80BF05BFF296805A8F1
:100CE0000CF036F801462C480BF046FE05A80BF038
:100CF000EDFE02A80BF0EAFE0AF034FF0022244BBE
:100D00001046114604EBD00595F848500D41ED070B
:100D100015D55D7A1E7A05EB0626274D565193F8B8
:100D2000295093F8286005EB0626244D565193F878
:100D30004B5093F84A6005EB0626214D5651013180
:100D4000C9B2082900F1010008BF00210C2803F1F5
:100D5000020302F10402D5D10F480BF0B7FC194889
:100D600003210B4A09F07AFB03F012FE03E00A4864
:100D700015490BF00BFE154B05481A88002109B0E8
:100D8000BDE8F0400DF0E2BD09B0F0BD1D0000204F
:100D900060180020644801085C1F0020E017002054
:100DA00016180020BD1B002091480108D5480108F5
:100DB0005C180020B56401081C180020981700205A
:100DC000941A0020531F00201C490108E21700203C
:100DD0002DE9F041604B88B01B780546002B00F0F0
:100DE000B8805E4E0024F278009404210123FFF7BE
:100DF000A1FB002800F0A08059495A480BF0C6FD1D
:100E000058480BF063FC584B0122284621461A70C3
:100E1000FFF7E2FB554B02221A70327A737A544F75
:100E200003EB0223534902A83B600BF091FE02A999
:100E300005A80BF0AEFE396805A80BF089FF4E49F6
:100E40000BF060FF014647480BF096FD05A80BF03C
:100E50003DFE02A80BF03AFE484DB37A484902A87D
:100E60002B700BF075FE02A905A80BF092FE2978F5
:100E700005A80BF059FF40490BF044FF01463948E3
:100E80000BF07AFD05A80BF021FE02A80BF01EFE68
:100E90003C4DF37A3C4902A82B700BF059FE02A995
:100EA00005A80BF076FE297805A80BF03DFF01465A
:100EB0002C480BF061FD05A80BF008FE02A80BF012
:100EC00005FE2546B84606EBD4031B7B2B41DB070A
:100ED00021D5D8F800302D4F2D4947F8243002A8ED
:100EE0000BF036FE02A905A80BF053FE214605A81B
:100EF0000BF02EFF27490BF005FF57F824100BF0DD
:100F000027FF014617480BF037FD05A80BF0DEFD63
:100F100002A80BF0DBFD0135EDB2082D04F1010450
:100F200008BF00250C2CCED11B4803210B4A09F029
:100F3000F5FA03F02DFD03E00A4818490BF026FDF1
:100F4000174B06481A88002108B0BDE8F0410DF0A3
:100F5000FDBC08B0BDE8F0811D0000206018002035
:100F6000374901085C1F0020E017002016180020F8
:100F7000901900205D490108976F0108961700201D
:100F800073490108AC1B00208A490108D4190020CC
:100F90009E490108B3490108531F0020B7490108C1
:100FA000E2170020F0B5484B89B01B780546002BAE
:100FB00000F08780454E0024F2780094042101233C
:100FC000FFF7B8FA00286FD0414942480BF0DEFC29
:100FD00040480BF07BFB404B0122284621461A700B
:100FE000FFF7FAFA3D4B03221A702546072C8CBFF7
:100FF000B37D737D2B4103F0010343B363080433D6
:1010000016F8132006EB43035B78354F03EB0223FE
:1010100047F82430334902A80BF09AFD02A905A82D
:101020000BF0B7FD214605A80BF092FE2E490BF000
:1010300069FE57F824100BF08BFE014625480BF093
:101040009BFC05A80BF042FD02A80BF03FFD01350B
:10105000EDB2082D04F1010408BF00250C2CC5D108
:10106000337D224C02A8224923700BF071FD02A9A6
:1010700005A80BF08EFD217805A80BF055FE1D4943
:101080000BF040FE014613480BF076FC05A80BF070
:101090001DFD02A80BF01AFD174803210B4A09F0A9
:1010A000B1FA03F075FC03E00A4814490BF06EFC3A
:1010B000134B06481A88002109B0BDE8F0400DF036
:1010C00045BC09B0F0BD00BF1D0000206018002025
:1010D000D24901085C1F0020E017002016180020EC
:1010E000E4170020FB490108B349010897170020C5
:1010F0001A4A0108976F0108531F00203B4A010854
:10110000E2170020144B13B51B7813B3134B0024C4
:10111000DA78042100940123FFF70CFA60B110493A
:1011200010480BF033FC0F480BF0D0FA0E48214664
:10113000032209F0E3FB03E00A480C490BF026FC0C
:101140000B4B06481A88002102B0BDE810400DF094
:10115000FDBB02B010BD00BF1D00002060180020C4
:10116000564A01085C1F0020531F0020724A0108E4
:10117000E217002070B53D4B88B01B78002B73D070
:101180003B4C00230093E27804210123FFF7D2F9BE
:1011900000285CD0374938480BF0F8FB36480BF094
:1011A00095FA637A257A354902A803EB05250BF0F9
:1011B000CFFC02A905A80BF0ECFC294605A80BF012
:1011C000C7FD01462C480BF0D7FB05A80BF07EFCB1
:1011D00002A80BF07BFC2A48217A627A02F0A2FA7C
:1011E000054620B9274924480BF0D0FB00E0012533
:1011F000E37AA67A244902A803EB06260BF0A8FCA2
:1012000002A905A80BF0C5FC314605A80BF0A0FD0E
:10121000014619480BF0B0FB05A80BF057FC02A8DB
:101220000BF054FC1648A17AE27A02F031FA20B9A8
:10123000164911480BF0AAFB03E015B1144815211B
:1012400001E013481621022208F0A6FF03E00A4835
:1012500010490BF09BFB104B05481A88002108B081
:10126000BDE870400DF072BB08B070BD1D000020DD
:10127000601800208D4A01085C1F0020B34A010855
:10128000BD1B0020C34A0108004B0108104B010898
:10129000531F00204D4B0108E2170020174B13B5D8
:1012A0001B784BB3164C00230093E27804210123F2
:1012B000FFF740F998B1134913480BF067FB124848
:1012C0000BF004FA1148217A01F030FF20B11048E8
:1012D000012101F097FA06E00B480E4901E00A48A7
:1012E0000D490BF053FB0D4B05481A88002102B045
:1012F000BDE810400DF02ABB02B010BD1D0000205B
:1013000060180020684B01085C1F0020B01B002003
:10131000AE1B00208A4B0108BA4B0108E2170020DF
:101320002DE9F047A94BA0B01B78002B00F09E815F
:10133000A74C4FF00008E2780421CDF8008001238B
:10134000FFF7F8F8002800F06181A249A2480BF0ED
:101350001DFBA1480BF0BAF9217A1022090905A852
:101360000BF043FC05A90BA80BF013FC217A10220B
:1013700001F00F0108A80BF038FC08A90BA80BF02E
:10138000B4FC617A0EAF05461022090938460BF00D
:101390002CFC284639460BF0A8FC617A11AE0546B4
:1013A000102201F00F0130460BF01FFC2846314699
:1013B0000BF09BFCA17A14AD814610220909284646
:1013C0000BF013FC484629460BF08FFCA17A8146AE
:1013D000102201F00F0117A80BF007FC484617A9CF
:1013E0000BF083FCE17A8146102209091AA80BF060
:1013F000FCFB48461AA90BF078FCE17A10228146E2
:1014000001F00F011DA80BF0F0FB1DA948460BF0E1
:101410006CFC014602A80BF0BCFB1DA80BF056FBB0
:101420001AA80BF053FB17A80BF050FB28460BF043
:101430004DFB30460BF04AFB38460BF047FB08A843
:101440000BF044FB0BA80BF041FB05A80BF03EFB97
:1014500062491DA80BF07CFB02A91DA80BF045FCFE
:1014600001465D480BF088FA1DA80BF02FFB5A4887
:101470005B49CDF83880CDF83C800BF06CFA4446DF
:10148000049B9C4212D2214602A80BF0C0FC3038CB
:10149000C1B208290DD839550A224F480BF003FB79
:1014A0004D4850490BF057FA0134E9E74FF0000975
:1014B00001E04FF001094C4947480BF067FA00245E
:1014C000454847490BF047FA11941294404B1A19BA
:1014D000117B9A4664290ED80A223F4831550BF0F9
:1014E000E2FA01343C483F490BF035FA082CEDD1C3
:1014F0004FF0000801E04FF001083C4936480BF07E
:1015000045FA0024344836490BF025FA1494159412
:101510009AF814303048A3401B0644BF01232B55D2
:10152000295D0A2201340BF0BEFA082CF0D12A48BA
:101530002F490BF02BFAB9F1000F08D02D4926489E
:101540000BF024FA2C480321214A012338E0B8F19A
:10155000000F08D0294920480BF018FA264803212B
:101560001B4A02232CE02648394602F06FF9002876
:1015700059D02348294602F0A1F9002853D0204829
:1015800002F0D4F900284ED01E4B17AA18685968EB
:1015900003C217A83146022206F076FD042804464D
:1015A00046D119491DA80BF0D3FA1DA90A480BF022
:1015B000E3F91DA80BF08AFA0F48054A03212346D8
:1015C00009F058FA02A80BF081FA23E01D00002070
:1015D00060180020D54B01085C1F0020FF4B01085C
:1015E000876D010829510108164C0108234C010898
:1015F000344C0108454C0108531F00207C4C010865
:10160000B11B002030420108B74C010819481A49A3
:101610000BF0BCF9194B1A481A88002120B0BDE81C
:10162000F0470DF093B903211648154A0B46C7E75A
:1016300015491AA80BF08CFA1AA91DA80BF0A9FAE3
:1016400012491DA80BF05EFB11490BF05BFB014634
:1016500008480BF091F91DA80BF038FA1AA80BF006
:1016600035FA08480321064A4346A9E720B0BDE8F9
:10167000F08700BF5C1F0020534D0108E2170020D7
:1016800060180020531F0020DA4C0108E14C0108CB
:10169000374D01082DE9F0415C4B8AB01B78002BD7
:1016A00000F0B0805A4E0025F27804210095012305
:1016B000FEF740FF002800F09880564956480BF08E
:1016C00065F955480BF002F8544B03271F70544C32
:1016D000337A5448237002F04BF92646804650B9BD
:1016E00051494D480BF052F950483946227843464B
:1016F00009F048FA7DE02B464D4A00259D54013300
:10170000082B9046F8D14B4A02AB1068516803C3CE
:101710003378FF2B0CD1484907A80BF019FA07A919
:101720003D480BF029F907A80BF0D0F904242FE06D
:101730002C46EFB23278C7F10703DBB242FA03F36B
:10174000DB0722D5012308F805303C4904A80BF03B
:10175000FFF904A907A80BF01CFA394607A80BF0FB
:10176000E3FA37490BF0CEFA01462B480BF004F9A7
:1017700007A80BF0ABF904A80BF0A8F90AAB2344B7
:101780000137013403F8207CE4B20135082DD0D1B3
:101790002C4921480BF0FAF8244803213278012320
:1017A00009F0F0F902A82146012206F0A1FF00BBD2
:1017B0000122214602A807F03DFF2349044604A860
:1017C0000BF0C6F904A907A80BF0E3F9214607A816
:1017D0000BF0AAFA014610480BF0CEF807A80BF060
:1017E00075F904A80BF072F903E00B4817490BF0E8
:1017F000CDF8174B06481A8800210AB0BDE8F04121
:101800000DF0A4B80AB0BDE8F08100BF1D000020B3
:10181000601800206E4D01085C1F00201618002083
:1018200014180020B11B00209B4D0108531F0020FD
:10183000D817002030420108F54D0108144E010868
:10184000184E01082E4E0108724E0108814E010803
:10185000E21700202DE9F041894B90B01B78002B56
:1018600000F00A81874D0024EA78042100940123C6
:10187000FEF760FEA846002800F0F1808249834808
:101880000BF084F881480AF021FF05F10807029463
:1018900003940494059406940794089409940125EC
:1018A000264617F8013B0AA8FF2B79490BD10BF00C
:1018B0004FF90AA90DA80BF06CF929460DA80BF0F9
:1018C00047FA744974E0642B25D80BF041F90AA952
:1018D0000DA80BF05EF929460DA80BF039FA6E49F8
:1018E0000BF010FA17F8011C0BF01EFA01466748BE
:1018F0000BF042F80DA80BF0E9F80AA80BF0E6F897
:1019000010AB17F8012C3344013603F8385C03F8A8
:10191000282CF6B258E0F02B1CD10BF019F90AA9CB
:101920000DA80BF036F929460DA80BF011FA5B490A
:101930000BF0E8F9014655480BF01EF80DA80BF026
:10194000C5F80AA80BF0C2F810AB234403F8305CCA
:1019500000221DE0F12B20D10BF0FAF80AA90DA806
:101960000BF017F929460DA80BF0F2F94C490BF0D2
:10197000C9F9014645480AF0FFFF0DA80BF0A6F88B
:101980000AA80BF0A3F810AB234403F8305C6422E0
:10199000013403F8202CE4B216E00BF0D9F80AA9C0
:1019A0000DA80BF0F6F829460DA80BF0D1F93D492A
:1019B0000BF0A8F9014635480AF0DEFF0DA80BF040
:1019C00085F80AA80BF082F80135092D7FF469AF7C
:1019D00098F81030344D35490AA82B700BF0B8F840
:1019E0000AA90DA80BF0D5F829780DA80BF09CF9E1
:1019F0002F490BF087F9014624480AF0BDFF0DA8D6
:101A00000BF064F80AA80BF061F82A4803210122C0
:101A1000294B09F029F976B1314606AA02A806F049
:101A2000B7FA02A83146022206F062FEA0B902A867
:101A3000314602220EE07CB1214608AA04A806F035
:101A4000A7FA04A82146032206F052FE20B904A8F2
:101A50002146032207F0EEFD00232B7003E00B4824
:101A600016490AF093FF164B06481A88002110B059
:101A7000BDE8F0410CF06ABF10B0BDE8F08100BFD6
:101A80001D000020601800209C4E01085C1F0020F3
:101A9000144E0108C84E0108DE4E0108F74E010839
:101AA000074F0108174F010895170020484F0108FC
:101AB000976F0108531F0020681800206A4F010823
:101AC000E2170020F0B5344B8BB01B78002B61D0AF
:101AD000324D0024EA78042100940123FEF72AFD08
:101AE0002F46002849D02E492E480AF04FFF2D4896
:101AF0000AF0ECFD2C4A02AB1068516803C32B7A44
:101B0000FF2B0CD1294907A80BF022F807A925487B
:101B10000AF032FF07A80AF0D9FF042528E025467D
:101B20003B7A661CA34013F0800F1ED0204904A806
:101B30000BF00EF804A907A80BF02BF8214607A814
:101B40000BF006F91B490BF0DDF8014615480AF0C9
:101B500013FF07A80AF0BAFF04A80AF0B7FF0AAB00
:101B60002B44013503F8206CEDB2082E3446D7D152
:101B700002A8294606F02EFD03E00A480E490AF0A5
:101B800005FF0E4B05481A8800210BB0BDE8F04058
:101B90000CF0DCBE0BB0F0BD1D0000206018002072
:101BA000854F01085C1F002030420108AC4F01083E
:101BB000144E0108C54F0108D54F0108E217002057
:101BC000244B37B51B78002B41D0234C0025E278FD
:101BD000009504210123FEF7ADFC58B31F492048AE
:101BE0000AF0D4FE1E480AF071FD1E48217A01F069
:101BF000C9FE20B11C491A480AF0C8FE0CE01B4976
:101C000017480AF0C3FE0A21164801F0BBFE15482A
:101C1000012101F0DBFE0125637A2BB106F004FD02
:101C20000F4813490AF0B2FE124803212A4609F070
:101C3000C9F903E00A4810490AF0A8FE0F4B06480C
:101C40001A88002103B0BDE830400CF07FBE03B01D
:101C500030BD00BF1D00002060180020F04F0108BB
:101C60005C1F0020B11B00202550010868500108AE
:101C7000AB500108531F0020B8500108E2170020A4
:101C800010B50446FEF7D8FB132870D8DFE800F043
:101C9000292E330A0F14191E383D42474C51235642
:101CA0005B60656A2046BDE81040FEF747BD2046F0
:101CB000BDE81040FEF794BD2046BDE81040FEF799
:101CC000D9BD2046BDE81040FEF730BE2046BDE835
:101CD0001040FEF761BE26482649BDE810400AF0D4
:101CE00055BE2046BDE81040FEF78ABE2046BDE83E
:101CF0001040FEF7EDBE2046BDE81040FEF722BFC3
:101D00002046BDE81040FEF7ABBF2046BDE81040BE
:101D1000FFF75EB82046BDE81040FFF743B9204604
:101D2000BDE81040FFF7EEB92046BDE81040FFF7D0
:101D300021BA2046BDE81040FFF7B0BA2046BDE802
:101D40001040FFF7EDBA2046BDE81040FFF7A2BCF7
:101D50002046BDE81040FFF77DBD2046BDE810409D
:101D6000FFF7B0BE2046BDE81040FFF729BF10BD09
:101D70005C1F0020D35001082DE9F74F444D002689
:101D800082462E8009F0EEFE424B01271968344648
:101D900001919B4640480AF0B5FC002806DD0199F8
:101DA000DBF8002001F6B8339A4222D309F0DAFEBC
:101DB000062C69D139483A490AF0E8FD36B9394B61
:101DC0001B788BB15046FFF75BFF0DE0288800239E
:101DD000801BDAB2F4188242E4B203F10103EEDAB6
:101DE00031490C5D8C54F4E703B0BDE8F04F09F0C5
:101DF000B9BEB5F80090284809F101022A800AF01E
:101E00002DFCDFF8A4802B8808F80900434413F860
:101E1000011C102221480AF046FE24491F480AF0FE
:101E20009AFD1D480AF06EFC002802DC04200BF02D
:101E3000ABF82B88B3F5967F02D3154B00221A809E
:101E400047B12B8808EB030212F8012CFE2AA1D11E
:101E50005E1EF6B22B88434413F8013C0D2B02D1D1
:101E6000E3070BD404E00A2B0AD114F0010309D0D4
:101E70000134E4B2062C99D000278BE70124FBE75C
:101E80000024F9E71C46F7E703B0BDE8F08F00BF78
:101E9000E2170020AC200020741F00205C1F0020EF
:101EA000F15001081C000020601800202951010891
:101EB00008B50448FFF760FF09F054FEBDE808408C
:101EC00002F08ABD8417002008B51D2000210BF008
:101ED00071F81D2001210BF02BF8102000210BF0D0
:101EE00069F8112000210BF065F81C2000210BF08F
:101EF00061F8112000210BF01BF81C2001210BF0D0
:101F000017F8BDE80840102000210BF011B80000C0
:101F100001480AF055BC00BF741F002008B561B12C
:101F200000211C200BF004F896200BF02DF8BDE8E2
:101F300008401C2001210AF0FBBF08BD08B50021A4
:101F40001D200AF0F5FF0C480AF03DFC022000219C
:101F50000BF030F8032000210BF02CF802200021B8
:101F60000AF0E6FF032000210AF0E2FFBDE8084086
:101F70001C2000210AF0DCBF741F002010B50B7874
:101F8000452B12D14B78522B0FD18B78CC78303B2C
:101F900003EB8303303C04EB4304E4B221460A2202
:101FA00003480AF089FD204610BD0A2010BD00BF7D
:101FB0005C1F00200B784F2B07D148784B2804D1A9
:101FC00013704B7801205370704700207047000059
:101FD0002DE9F04190B00E4601A865491C46904697
:101FE0000AF0B6FD624904A80AF0B2FD604907A8EC
:101FF0000AF0AEFD2046002104220CF0A7FCE023ED
:10200000A370E37035460027AB1B43453AD22978CD
:102010000A220DA80AF0D8FD0DA901A80AF020FE99
:102020000DA80AF053FD15F8013B2C2B28D0303BAE
:10203000DBB2092B98BF05F8013C15F8011C57B914
:102040002D2902D14B484C4909E00DA80A220AF07B
:10205000BBFD04A80DE02D2906D1464847490AF0EA
:1020600095FCF023E370CFE70DA80A220AF0ACFD3F
:1020700007A80DA90AF0F4FD0DA80AF027FDC3E793
:102080000127C1E73E490AA80AF062FD0AA90DA886
:102090000AF07FFD01A90DA80AF027FE0146354888
:1020A0000AF06AFC0DA80AF011FD0AA80AF00EFD5C
:1020B00034490DA80AF04CFD0DA92E480AF03EFC4B
:1020C0000DA80AF003FDA3782A48F02B01D12E4970
:1020D00003E0E02B0CBF26492C490AF03CFC04A984
:1020E0000DA80AF056FD2A490DA80AF00BFE01467C
:1020F00020480AF041FC0DA80AF0E8FC25490DA88B
:102100000AF026FD0DA91B480AF018FC0DA80AF0DC
:10211000DDFCE3781748F02B01D11B4903E0E02BED
:102120000CBF134919490AF016FC07A90DA80AF0BB
:1021300030FD0DA816490AF0E5FD01460D480AF0EC
:102140001BFC0DA80AF0C2FC04A80AF0C0FE207017
:1021500007A80AF0BCFE607007A80AF0B7FC04A844
:102160000AF0B4FC01A80AF0B1FC10B0BDE8F0819F
:10217000F15401085C1F00202B510108385101085F
:102180004651010851510108876101085C5101085D
:102190006951010870510108F8B54C78432C08D1F9
:1021A0008C78532C05D1CC78B4F151056C426C413C
:1021B00000E000240026F5B24F5D01363A2FFAD137
:1021C0000135EDB200279542FEB207F1010706D8AE
:1021D00011F805C0013501F806C0EDB2F3E73CB9CE
:1021E0002046C2B2B2420BD20A5C1A540130F8E760
:1021F000069A022412681470721ED2B2FFF7E8FE2B
:102200000120F8BD37B5154809B9154900E0154951
:102210000AF0A1FB64200AF0B7FE00240F480AF080
:1022200071FA0028E5B208DD062C14D00B480AF03C
:1022300015FA0DF804000134F0E755B19DF80230AD
:102240004F2B08D19DF80300B0F14B035842584181
:1022500002E0284600E0002003B030BD741F0020DB
:102260003E5601087C51010810B5012104461D208D
:102270000AF05EFE07484FF416510AF0A1FA204614
:102280000121FFF74BFE20460121BDE81040FFF77A
:10229000B9BF00BF741F00202DE9F0419EB005AD0D
:1022A0000C460746002190462846642203930CF012
:1022B0004DFB21462C480AF04EFB64200AF064FED8
:1022C000002429480AF01EFA0028E6B207DD642C33
:1022D00045D025480AF0C2F928550134F1E726B95E
:1022E000224923480AF052FB39E09DF814300D2BA7
:1022F00035D19DF815300A2B31D11EAB334413F87C
:10230000653C0A2B2BD1023E1EAB334413F8643CD0
:102310000D2B24D10021CCB2A31CDBB2B34201F1BE
:10232000010107DA1EAA134413F8643C144404F8AC
:10233000643CF0E738462946FFF720FE0A280CD116
:1023400003AB00933846294622464346FFF724FF55
:1023500000280CBF0320022002E0012000E003203F
:102360001EB0BDE8F08100BF741F0020825101083B
:102370005C1F00202DE9F041B2B006460D469046A4
:102380000021642268461F460CF0E0FA19A80021DB
:1023900064220CF0DBFA0024E3B2E85C013420B1E3
:1023A00032AA134403F8640CF6E70146CAB25D187A
:1023B00018F80240EDB232AA01312A4414B102F8F1
:1023C000644CF3E70D2302F8643C6B1C32A8DBB2CB
:1023D00003442F480A2203F8642C036819A95B6898
:1023E00098472C48AA1C036819A99B68D2B2984741
:1023F00064200AF0C9FD27480AF084F90028E5B2F4
:1024000008DD642C3FD023480AF028F90DF80400B9
:102410000134F0E7002D36D09DF800300D2B32D17D
:102420009DF801300A2B2ED132AB2B4413F8C93C56
:102430000A2B28D1023D32AB2B4413F8C83C0D2B9C
:1024400021D100218B1CDBB2AB4201F1010209DA80
:1024500032A8034413F8C83CC9B2014401F8C83C8F
:102460001146EFE730466946FFF788FD0A2808D194
:10247000304669463A46FFF79DFD80F00100C0B244
:1024800002E0012000E0032032B0BDE8F08100BF8F
:102490005C1F0020741F0020F7B51E460446174637
:1024A0000D4600218DF80710FFF7ACFE09F05AFB2E
:1024B000204631462FB12A460DF10703FFF7ECFE07
:1024C00003E0089A2B46FFF755FF03282AD8DFE8D8
:1024D00000F011040207002311E01648164901E03C
:1024E000144816490AF052FA20460121FFF78AFEE5
:1024F00000201CE012490F480AF048FA12E09DF84B
:1025000007205E1CDBB29A420A4809D9E95C102216
:102510000AF0C9FA07480B490AF01DFA3346EEE7FC
:102520000AF01EFA20460121FFF76CFE012003B0DD
:10253000F0BD00BF5C1F002096510108A7510108A3
:10254000B0510108295101082DE9F0438BB004AFC7
:10255000804600210922384602AE00240CF0F6F92C
:102560000094404631460122454BFFF795FF054652
:1025700020B9444944480AF009FA7DE02346F25C58
:1025800007AC092A01D8303204E0A2F10A0105297A
:1025900098BF3732E2540133082BF0D14FF00009D5
:1025A0003A488DF8249000F0B1FE024600284AD047
:1025B000374935480AF0EAF93448394600F014FE44
:1025C00000283BD04B46E15CFA5C914248D1013394
:1025D000082BF8D12F492C480AF0D8F92E492A485F
:1025E0000AF0B9F99DF8161027480AF0AFF99DF8DE
:1025F000171025480AF0AAF99DF8141022480AF08D
:10260000A5F99DF8151020480AF0A0F99DF81210C0
:102610001D480AF09BF99DF813101B480AF096F923
:102620009DF8101018480AF091F99DF811101648FD
:102630000AF08CF914480AF093F91DE01749124882
:102640000AF0A4F907E0009440463146144BFFF726
:1026500023FF054680B121460C4800F015FE0AE034
:10266000104909480AF092F9009740463146002285
:102670000B4BFFF711FF054628460BB0BDE8F08372
:10268000C6510108D15101085C1F0020B01B002079
:10269000F151010879520108A35201080F520108B3
:1026A000335201083C5201082DE9F04F89B002AFC6
:1026B00007F10C068346894690461C4630460021A9
:1026C0000A220CF043F9002C50D1C7F804D0584628
:1026D000CDF80080314601224B46FFF7DDFE8246F1
:1026E00008B1214606E0404940480AF04FF93F480A
:1026F0003F496FE0CCB218F804300131002BF9D11A
:10270000E11D01F4FC71ADEB010D02A9D8B2A042AC
:1027100003D2F05CC8540133F8E70B46581AC0B234
:10272000A0420DD213F8010B092801D8303004E083
:10273000A0F10A05052DF1D8373003F8010CEDE7BB
:102740000025EBB2A34243D24B5D013508EB0500F7
:1027500010F8010C9842F4D0264924480AF016F9E2
:10276000224825490AF012F97B689D466C460023F1
:10277000DAB219F8021001330A29F9D1931D03F4D2
:10278000FC73ADEB030DA2F1020E02AB0020C1B24F
:10279000551EA94200F1010003DA19F801505D54F9
:1027A000F5E700223D215A55584603F80E10CDF8A2
:1027B00000803146FFF770FE054628B90B480F49E7
:1027C0000AF0E4F8AA4601E04FF0010AA54605E048
:1027D00006480B490AF0DAF87B689D4650461C37DC
:1027E000BD46BDE8F08F00BFB15201085C1F00205C
:1027F000D7520108FB5201085253010894530108B3
:10280000C95301082DE9F0418AB006AF0F220446F2
:102810000D46384600210CF099F89B489B490AF078
:10282000B5F80A2609F09EF9002D40F0DF80204619
:10283000FFF78AFE96498DF81800964A2B462046E7
:10284000FFF732FF2B468DF8190093492046934A33
:10285000FFF72AFFDFF8D0828DF81A0098F80030D1
:10286000012B04D18E4988480AF090F82BE0022B06
:102870000FD18C4984480AF089F88B498B4A20464D
:102880002B46FFF711FF8A498DF81B00894A204625
:1028900024E0894968460AF05BF9694603A80AF012
:1028A00078F998F8001003A80AF03EFA83490AF074
:1028B00029FA014674480AF05FF803A80AF006F9FD
:1028C00068460AF003F978497D4A20462B46FFF70F
:1028D000EBFE77497B4A8DF81B0020462B46FFF71D
:1028E000E3FEDFF848828DF81C0098F80030222BB8
:1028F00004D1754964480AF049F823E00C2B07D14C
:10290000724961480AF042F820467149714A1CE058
:10291000714968460AF01CF9694603A80AF039F9BA
:1029200098F8001003A80AF0FFF964490AF0EAF9E0
:10293000014655480AF020F803A80AF0C7F868468F
:102940000AF0C4F86249654A20460023FFF7ACFE4E
:102950008DF81D00624800F029FCF12861492046ED
:1029600008D1614A0023FFF79FFE60498DF81E00E1
:10297000454807E0494A0023FFF796FE5C498DF879
:102980001E0041480AF002F85A495B4A00232046DB
:10299000FFF78AFE59498DF81F00574A0023204649
:1029A000FFF782FE56498DF820004F4A002320464B
:1029B000FFF77AFE53498DF82100534A0023204641
:1029C000FFF772FE51498DF82200514A002320463C
:1029D000FFF76AFE314A8DF823004E492046002356
:1029E000FFF762FE0D228DF824000EE03C4800F057
:1029F000DDFBF1280CBF3C4A284A20463949002318
:102A0000FFF752FE01228DF818000023F95CA9B9E6
:102A100041491D4809F0BAFF2046FFF725FC204632
:102A2000FFF78CFA09F09EF82046FFF71DFC4FF4E3
:102A3000FA600AF0A9FA09F095F804E00133D9B276
:102A40009142E3D31DE0354809F05CFE002803DD28
:102A5000324809F003FEF6E7013E16F0FF067FF468
:102A6000E1AE2F49084809F091FF2E49064809F0C8
:102A70008DFF40F6B8300AF087FA09F073F809F0D4
:102A8000A5F80AB0BDE8F0815C1F0020F1530108F1
:102A9000205401082C54010835540108325401080F
:102AA0003F5401087D540108535401089154010812
:102AB000685401089A540108A3540108BE5401083F
:102AC0005F54010874540108D5540108F2540108F8
:102AD000E75401080155010804550108E4540108B0
:102AE000B01B00201D55010850540108275501084E
:102AF00034550108415501084B5501084E55010850
:102B000058550108625501086B5501086E550108BA
:102B1000785501087B55010885550108741F002070
:102B2000A2550108CE550108AD1B0020AF1B0020A7
:102B3000152001210AF0FCB9152000210AF0F8B98E
:102B400010B50021044615200AF034FA15200121A1
:102B50000AF0EEF92046BDE81040FDF70DBC7FB548
:102B600005460E46FFF7E8FF0D2433192146284697
:102B700013F80D2C0134FDF733FC162CF5D130463B
:102B8000092105F0B5F90646214628463246FDF7EB
:102B900027FC0D2421462846FDF7F0FB01AB23441A
:102BA0000134162C03F80D0CF4D101A8092105F00D
:102BB0009FF9B04203D0FFF7BBFF00200DE028468D
:102BC0000B21FDF7DBFB552804D028460B215522AD
:102BD000FDF706FCFFF7ACFF012004B070BD7FB528
:102BE00005460E46FFF7A8FF17243319214628464D
:102BF00013F8172C0134FDF7F3FB202CF5D13046E8
:102C0000092105F075F90646214628463246FDF7AA
:102C1000E7FB172421462846FDF7B0FB01AB234410
:102C20000134202C03F8170CF4D101A8092105F078
:102C30005FF9B04203D0FFF77BFF00200DE028468C
:102C40000C21FDF79BFB552804D028460C2155226A
:102C5000FDF7C6FBFFF76CFF012004B070BDF0B5B7
:102C600085B001AD06460F462846002109220BF02B
:102C70006DFE0D2421463046FDF780FB2B190134F3
:102C8000162C03F80D0CF5D121463046FDF776FBE6
:102C900009210446284605F02BF9844206D1002379
:102CA000EA5CFA540133092BFAD101E0002000E07C
:102CB000012005B0F0BDF0B585B001AD06460F4668
:102CC0002846002109220BF041FE172421463046F8
:102CD000FDF754FB2B190134202C03F8170CF5D108
:102CE00021463046FDF74AFB09210446284605F0F7
:102CF000FFF8844206D10023EA5CFA540133092B21
:102D0000FAD101E0002000E0012005B0F0BD37B5A8
:102D10000C461E210546FDF731FB1F218DF80400EE
:102D20002846FDF72BFB02218DF8050001A805F0D0
:102D3000DFF8207003B030BD10B50B210446FDF75D
:102D40001DFB88B1FFF7F8FE204600220B21FDF79E
:102D500047FBFFF7EDFE20460B21FDF70FFBD0F1FF
:102D6000010038BF002010BD012010BD10B50C219E
:102D70000446FDF703FB88B1FFF7DEFE2046002284
:102D80000C21FDF72DFBFFF7D3FE20460C21FDF7AC
:102D9000F5FAD0F1010038BF002010BD012010BDB0
:102DA00010B521210446FDF7E9FA552811D0FFF7A7
:102DB000C3FE204655222121FDF712FBFFF7B8FE86
:102DC00020462121FDF7DAFAB0F155035842584167
:102DD00010BD012010BD08B52121FDF7CFFAB0F1DB
:102DE00055035842584108BD70B504460D46FFF7DB
:102DF00036FF20B120462946FFF75DFF48BB20463D
:102E00002946FFF72CFF48B11549164809F0BEFDC9
:102E100020462946BDE87040FFF7E1BE204629461E
:102E2000FFF749FF06460F4846B10F4909F0AEFDCE
:102E300020462946BDE87040FFF791BE0B4909F0D6
:102E4000A5FD2046FFF778FF2046FFF78FFF3046AD
:102E500070BD0749034809F099FD012070BD00BF0E
:102E6000425601085C1F002079560108B05601083F
:102E7000C4560108F8B504460E462F25731920469E
:102E8000294613F82F7CFDF779FA874203D10135E3
:102E9000342DF3D136E0FFF74FFE2F257319294665
:102EA000204613F82F2C0135FDF79AFA342DF5D171
:102EB0000521304605F01CF80746294620463A46CB
:102EC000FDF78EFA2F2520462946FDF757FA73198C
:102ED00013F82F3C834217D10135342DF3D120460E
:102EE0002946FDF74BFAB8420ED120463521FDF7B1
:102EF00045FA552804D0204635215522FDF770FAB1
:102F0000FFF716FE0120F8BDFFF712FE0020F8BD06
:102F1000F7B505460E462F2421462846FDF72EFA22
:102F200000AB23440134342C03F82F0CF4D10521D9
:102F3000684604F0DDFF214607462846FDF71EFAE5
:102F4000874207D100231DF80320F2540133052BDB
:102F5000F9D101E0002000E0012003B0F0BD73B51D
:102F600005462F2421462846FDF708FA00AB2344E6
:102F70000134342C03F82F0CF4D16846052104F0F9
:102F8000B7FF214606462846FDF7F8F9331A58429E
:102F9000584102B070BD38B50546FFF7CDFD2F246E
:102FA00028462146FDF7EAF968B128462146002265
:102FB000FDF716FA28462146FDF7E0F918B1FFF7AC
:102FC000B7FD002038BD0134342CE9D12846352125
:102FD000FDF7D4F920B1284635210022FDF700FA8B
:102FE000FFF7A6FD012038BD37B50D468DF8071057
:102FF00036210446FDF7C2F985422BD002ADFFF71A
:103000009BFD15F8012D20463621FDF7E9F9012138
:10301000284604F06DFF372102462046FDF7E0F90F
:1030200020463621FDF7AAF99DF8073083420DD1DD
:1030300020463821FDF7A2F9552804D02046382132
:103040005522FDF7CDF9FFF773FD03E0FFF770FDA3
:10305000002000E0012003B030BD3621FDF78EB91D
:1030600037B536210546FDF789F902AB03F8010DA6
:103070001846012104F03CFF372104462846FDF79D
:103080007DF9231A5842584103B030BD10B536219E
:103090000446FDF773F988B1FFF74EFD204636214F
:1030A0000022FDF79DF920463621FDF767F918B19A
:1030B000FFF73EFD002010BDFFF73AFD012010BDD7
:1030C00010B548210446FDF759F9552811D0FFF7EE
:1030D00033FD204655224821FDF782F9FFF728FDF0
:1030E00020464821FDF74AF9B0F1550358425841AE
:1030F00010BD012010BD10B54D210446FDF73EF96D
:10310000552810D0FFF718FD204655224D21FDF718
:1031100067F9FFF70DFD20460021FDF72FF900307C
:1031200018BF012010BD012010BD000037B58DF87B
:1031300007101031C9B20129044629D84C21FDF7E6
:103140001DF99DF80730834228D002ADFFF7F4FC4B
:1031500015F8012D20464C21FDF742F901212846A2
:1031600004F0C6FE4E2102462046FDF739F92046FE
:103170004C21FDF703F99DF80730834205D1204625
:10318000FFF7B9FFFFF7D4FC08E0FFF7D1FC03E03D
:103190000448054909F0FAFB002000E0012003B0D3
:1031A00030BD00BF5C1F0020F456010837B54C212C
:1031B0000446FDF7E3F802AB03F8010D18460121C0
:1031C00004F096FE4E2105462046FDF7D7F88542CD
:1031D00002D19DF8070004E02046F021FFF7A6FF8A
:1031E000F02003B030BD0000F7B505460E464F2471
:1031F00021462846FDF7C2F800AB23440134572C82
:1032000003F84F0CF4D10821684604F071FE214602
:1032100007462846FDF7B2F887420CD100231DF877
:103220000320F2540133082BF9D10448044909F072
:10323000ADFB012000E0002003B0F0BD5C1F0020CA
:103240002A57010810B558210446FDF797F855286C
:1032500008D0FFF771FC204658215522FDF7C0F831
:10326000FFF766FC10BD10B558210446FDF786F83F
:1032700040B1FFF761FC204658210022FDF7B0F86D
:10328000FFF756FC10BD0000F7B50F460546FFF7E7
:1032900053FC3846082104F02BFE4F2406463B1908
:1032A0002146284613F84F2C0134FDF799F8572C86
:1032B000F5D1214628463246FDF792F84F242146A3
:1032C0002846FDF75BF800AB23440134572C03F884
:1032D0004F0CF4D16846082104F00AFE864206D05D
:1032E0002846FFF7C0FFFFF723FC002007E0054951
:1032F000054809F04BFB2846FFF7A4FF012003B067
:10330000F0BD00BF3F5701085C1F002008B55821E1
:10331000FDF734F8B0F155035842584108BD10B5D7
:103320007F210446FDF72AF855280AD0FFF704FC50
:1033300020467F215522FDF753F8FFF7F9FB0020C7
:1033400010BD012010BD38B50C467E210546FDF7A5
:1033500015F8A04208D0FFF7EFFB28467E21224651
:10336000FDF73EF8FFF7E4FB012038BD7E21FDF7B5
:1033700005B810B581210446FDF700F855280AD09C
:10338000FFF7DAFB204681215522FDF729F8FFF7E8
:10339000CFFB002010BD012010BD38B50C468021A8
:1033A0000546FCF7EBFFA04208D0FFF7C5FB284617
:1033B00080212246FDF714F8FFF7BAFB012038BD43
:1033C0008021FCF7DBBF70B504460E461546FFF7BB
:1033D000B3FB204632462221FDF702F82046232186
:1033E0002A46FCF7FDFFFFF7A3FB70BDFCF7C6BF45
:1033F000FCF7C4BF70B504460E461546FFF79CFBAC
:10340000204632462421FCF7EBFF204625212A46A0
:10341000FCF7E6FFFFF78CFB70BD10B50446FFF725
:103420008BFB204655225921FCF7DAFFFFF780FB82
:1034300020465921FCF7A2FFB0F1550358425841EC
:1034400010BD08B55921FCF799FFB0F1550358425A
:10345000584108BD10B50446FFF76EFB2046002218
:103460005921FCF7BDFFFFF763FB20465921FCF70C
:1034700085FFD0F1010038BF002010BD73B50023D7
:1034800005460E4600930193FFF756FB5A24331965
:103490002146284613F85A2C0134FCF7A1FF622C70
:1034A000F5D13046082104F023FD06462146284682
:1034B0003246FCF795FF5A2421462846FCF75EFF6A
:1034C00000AB23440134622C03F85A0CF4D10821D8
:1034D000684604F00DFD0446FFF72AFBB442064897
:1034E00004D1064909F052FA012003E0044909F029
:1034F0004DFA002002B070BD5C1F00205457010837
:103500008257010838B509490546094809F03EFACD
:103510005A2421462846FCF731FF064B1A1901347C
:10352000622C02F85A0CF4D1184638BDB357010882
:103530005C1F0020B41B002073B5002305460E4617
:1035400000930193FFF7F8FA6324331921462846C4
:1035500013F8632C0134FCF743FF6B2CF5D1304694
:10356000082104F0C5FC0646732128463246FCF7C4
:1035700037FF632421462846FCF700FF00AB2344B5
:1035800001346B2C03F8630CF4D10821684604F075
:10359000AFFC0446FFF7CCFAB442064804D1064912
:1035A00009F0F4F9012003E0044909F0EFF90020E3
:1035B00002B070BD5C1F0020EB57010819580108CC
:1035C00070B50E46742104461546FCF7D7FEB0428E
:1035D00005D120467521FCF7D1FEA84219D0FFF78E
:1035E000ABFA204674213246FCF7FAFE20467521DC
:1035F0002A46FCF7F5FEFFF79BFA20467421FCF7FC
:10360000BDFEB0420BD120467521FCF7B7FEA842A3
:1036100005D10649064809F0B9F9012070BD0549F0
:10362000034809F0B3F9002070BD00BF91580108AC
:103630005C1F0020B358010810B50446FFF77CFA60
:10364000204674210022FCF7CBFE20467521002283
:10365000FCF7C6FEFFF76CFA20467421FCF78EFEDD
:1036600020B920467521FCF789FE28B10549064896
:1036700009F08CF9002010BD0449034809F086F9CF
:10368000012010BDD55801085C1F0020F858010822
:1036900070B50E467A2104461546FCF76FFEB0421F
:1036A00005D120467B21FCF769FEA84219D0FFF71F
:1036B00043FA20467A213246FCF792FE20467B21CF
:1036C0002A46FCF78DFEFFF733FA20467A21FCF7F5
:1036D00055FEB0420BD120467B21FCF74FFEA8429D
:1036E00005D10649064809F051F9012070BD054988
:1036F000034809F04BF9002070BD00BFC55901080F
:103700005C1F0020F159010838B57A210546FCF705
:1037100035FE7B2104462846FCF730FE00EB0420F2
:1037200038BD000070B50E46782104461546FCF7FA
:1037300025FEB04205D120467921FCF71FFEA842A4
:1037400019D0FFF7F9F9204678213246FCF748FEF8
:10375000204679212A46FCF743FEFFF7E9F9204687
:103760007821FCF70BFEB0420BD120467921FCF703
:1037700005FEA84205D10649064809F007F90120CF
:1037800070BD0549034809F001F9002070BD00BF74
:10379000775A01085C1F0020A35A010838B5782128
:1037A0000546FCF7EBFD792104462846FCF7E6FDCB
:1037B00000EB042038BD000070B50E467C210446A5
:1037C0001546FCF7DBFDB04205D120467D21FCF714
:1037D000D5FDA84219D0FFF7AFF920467C2132462B
:1037E000FCF7FEFD20467D212A46FCF7F9FDFFF798
:1037F0009FF920467C21FCF7C1FDB0420BD1204649
:103800007D21FCF7BBFDA84205D10649064809F019
:10381000BDF8012070BD0549034809F0B7F8002044
:1038200070BD00BF295B01085C1F0020595B0108C7
:1038300038B57C210546FCF7A1FD7D2104462846CC
:10384000FCF79CFD00EB042038BD000070B5054678
:103850000E46FFF771F9002404F18201325D28461B
:103860000134FCF7BDFD082CF6D1FFF761F9002407
:10387000284604F18201FCF781FD335D834205D0C7
:103880000749084809F082F8002070BD0134082C6F
:10389000EED10549034809F079F8012070BD00BF59
:1038A000EB5B01085C1F0020215C0108052902D8A0
:1038B0008231FCF763BD00207047000070B50546FB
:1038C0000E46FFF739F9002404F18A01325D2846DB
:1038D0000134FCF785FD082CF6D1FFF729F98A247D
:1038E00028462146FCF74AFD331913F88A3C8342E7
:1038F00005D00749074809F049F8002070BD013498
:10390000922CEDD10449034809F040F8012070BD24
:10391000BE5C01085C1F0020EF5C0108052902D88D
:103920008A31FCF72BBD00207047000010B504461B
:10393000FFF702F9204692215522FCF751FDFFF7CF
:10394000F7F820469221FCF719FD5528054804D1C7
:10395000054909F01BF8012010BD044909F016F8CB
:10396000002010BD5C1F00207C5D0108B85D0108CF
:1039700008B59221FCF702FDB0F1550358425841B9
:1039800008BD000038B50C460546FFF7D5F82846B7
:1039900093212246FCF724FDFFF7CAF8284693211D
:1039A000FCF7ECFCA042064804D1064908F0EEFF03
:1039B000012038BD044908F0E9FF002038BD00BFF0
:1039C0005C1F0020745E0108A55E010838B50C4636
:1039D0000546FFF7B1F8284694212246FCF700FD82
:1039E000FFF7A6F828469421FCF7C8FCA042064839
:1039F00004D1064908F0CAFF012038BD044908F087
:103A0000C5FF002038BD00BF5C1F0020405F0108DB
:103A10006C5F010808B59421FCF7B0FC003018BFBA
:103A2000012008BDF8B5054617460E46FFF784F895
:103A30002F442C46BC4207D0731B21461A5D044814
:103A4000FCF7CEFC0134F5E7FFF772F80020F8BD73
:103A50006C170020F8B505460E4617180446BC4200
:103A600007D021460448FCF789FC731B1855013424
:103A7000F5E70020F8BD00BF6C17002000220260AF
:103A800042607047006820B103688B4201D08068B3
:103A9000F9E7704770B504460C2016460D460AF04B
:103AA000CDFB00228260226880E860000AB92060B5
:103AB00001E062689060606070BD10B51446FFF769
:103AC000E1FF08B14460012010BD08B5FFF7DAFF3F
:103AD00000B1406808BD01F51C414131FFF7DABF74
:103AE00001F51C414131FFF7E8BF01F51C414131AF
:103AF000FFF7EBBF002A01F1010114BF4FF47F4231
:103B00000022FFF7C7BF002A01F51C5101F1110186
:103B100014BF4FF47F420022FFF7BCBF01F5EA411A
:103B20003131FFF7B7BF002A01F1010114BF4FF493
:103B30007F420022FFF7C1BF002A01F51C5101F1AD
:103B4000110114BF4FF47F420022FFF7B6BF01F509
:103B5000EA413131FFF7B1BF08B50131FFF7B5FFD9
:103B6000B0F57F435842584108BD01F51C5108B5D6
:103B70001131FFF7AAFFB0F57F435842584108BD05
:103B800001F5EA413131FFF7A0BF000070B50446EE
:103B90000D4609480949164608F0F8FEA0680AF0E3
:103BA00055FB022020730AF049FB803D0323A060EF
:103BB00005704670637370BD5C1F0020D160010802
:103BC000F8B5531E7C2B04460F46164602D9032136
:103BD0000A4617E001F51C414131FFF753FF18B9C0
:103BE0002046032102220DE0A0680AF02FFB701C82
:103BF0004000C0B220730AF021FBA06030B920461B
:103C000003210422BDE8F840FFF7C0BF032303707F
:103C1000237B0025023B4370E9192046FFF765FF2F
:103C2000A3680135020A03F81520A368B54203EB27
:103C300045035870F0D103236373F8BD70B5044693
:103C40000E461546FFF74CFF18B920460621022202
:103C500008E020463146FFF748FFA84206D020463C
:103C600006210422BDE87040FFF790BF0223637372
:103C700070BD2DE9F8431F4616467A1E7A2A04467F
:103C800088469DF8203002D8B3EB470F03D020467A
:103C9000102103221CE006F51C45413505EB070900
:103CA00020462946FFF7EEFE18B9204610210222D1
:103CB0000EE001354D45F3D1A0680AF0C7FA0520A2
:103CC00020730AF0BBFAA06030B92046102104220C
:103CD000BDE8F843FFF75ABF10230370330A43705F
:103CE000002307718670C37008F106053744BE4291
:103CF00005F102050BD015F8022C15F8013C3146F0
:103D0000204643EA0222FFF7EBFE0136EFE70323EA
:103D10006373BDE8F8832DE9F843531EB3F5FA6FDA
:103D200004460F46154602D30121032219E0013152
:103D3000FFF7A8FE18B920460121022211E0A06871
:103D40000AF084FAC5F3C7036A070CBF02330333D2
:103D50002373207B0AF072FAA06030B9204601215B
:103D60000422BDE8F843FFF711BF01230370237B52
:103D700005EB0708023B43703E46002546451CD034
:103D800031462046FFF7E8FEC7F10109B1444FEA8A
:103D9000D909012109F10203A268A94010B1D05C40
:103DA000014302E0D05C20EA01010135EDB2082DAB
:103DB000D15408BF00250136E0E703236373BDE853
:103DC000F88300002DE9F843531EB3F5FA6F04465B
:103DD0000F46154602D3022103221FE001F51C51B4
:103DE0001131FFF74FFE18B920460121022215E0DC
:103DF0002249234808F0CAFDA0680AF027FAC5F353
:103E0000C7036A070CBF023303332373207B0AF016
:103E100015FAA06030B9204602210422BDE8F8431B
:103E2000FFF7B4BE02230370237B05EB0708023BB8
:103E300043703E46002546451CD031462046FFF7DC
:103E400094FEC7F10109B1444FEAD909012109F1F2
:103E50000203A268A94010B1D05C014302E0D05C2B
:103E600020EA01010135EDB2082DD15408BF00252B
:103E70000136E0E703236373BDE8F883F4600108CB
:103E80005C1F0020F8B5531E7C2B04460F461646D7
:103E900002D90421032217E001F5EA413131FFF78D
:103EA000F1FD18B92046012102220DE0A0680AF0B8
:103EB000CDF9701C4000C0B220730AF0BFF9A060B9
:103EC00030B9042120460A46BDE8F840FFF75EBE3F
:103ED00004230370237B0025023B4370E91920462D
:103EE000FFF74EFEA3680135020A03F81520A36808
:103EF000B54203EB45035870F0D103236373F8BD5B
:103F000070B5B2F57F4F86B004460E4603D012B1AD
:103F10000521032215E0151C18BF01252046314656
:103F20002A46FFF700FE18B920460521022208E0C4
:103F300020463146FFF710FEA84205D02046052155
:103F40000422FFF723FE17E00C49684608F000FE44
:103F5000694603A808F01DFE094903A808F0D2FE2F
:103F60000146084808F008FD03A808F0AFFD6846C0
:103F700008F0ACFD0223637306B070BD1E6101083A
:103F8000366101085C1F00202DE9F0438BB0044628
:103F9000894604A86C49DF081D46164608F0D8FD7E
:103FA00004A907A808F0F5FD394607A808F0D0FED7
:103FB0000146664808F0E0FC07A808F087FD04A861
:103FC00008F084FD6B0705F1FF3318BF0137B3F527
:103FD000F66F03D29DF84830BB4207D05C495B487E
:103FE00008F0D4FC20460F2103224DE0771C07EB9C
:103FF000050820463946FFF745FD18B920460F2130
:10400000022241E001374745F3D15048514908F0B9
:10401000BDFC0627504901A808F09AFD01A904A893
:1040200008F0B7FD394604A808F092FE4B4908F0A5
:1040300069FE102219F80710804607A808F0C4FD91
:1040400007A9404608F051FE0146404808F094FC9C
:1040500007A808F03BFD04A808F038FD013701A8C7
:1040600008F034FD102FD5D13A49384808F08EFCBD
:10407000A0680AF0EBF8052020730AF0DFF8A060D2
:1040800028B920460F210422FFF780FD58E00F23B6
:104090000370330A43702B0A8670C37005712D4973
:1040A0002A4808F073FC06272B4901A808F050FDA8
:1040B00001A904A808F06DFD394604A808F048FEDF
:1040C000264908F01FFE102219F80710804607A89D
:1040D00008F07AFD07A9404608F007FE01461B4894
:1040E00008F04AFC07A808F0F1FC04A808F0EEFC70
:1040F000013701A808F0EAFC102FD5D11348154963
:1041000008F044FC3544B0460027C6EB080309EB31
:10411000D3039A7941463A410137FFB2204602F073
:104120000102FFF700FD08F10108082F08BF002772
:10413000A845EAD105480A4908F028FC032363731F
:104140000BB0BDE8F08300BF486101085C1F002090
:104150005A610108876D010873610108B3490108BC
:104160007A6101082DE9F0418B784F788CB0CE78D8
:1041700043EA07270B7991F800800C46054654491D
:1041800003A843EA062608F0E3FC03A909A808F0FF
:1041900000FD1022217806A808F016FD06A909A83E
:1041A00008F0A3FD01464B4808F0E6FB06A808F01E
:1041B0008DFC09A808F08AFC03A808F087FC464992
:1041C00003A808F0C5FC03A909A808F0E2FC102226
:1041D000394606A808F01BFD06A909A808F085FDC8
:1041E00001463C4808F0C8FB06A808F06FFC09A887
:1041F00008F06CFC03A808F069FC384903A808F033
:10420000A7FC03A909A808F0C4FC1022314606A89F
:1042100008F0FDFC06A909A808F067FD01462D4835
:1042200008F0AAFB06A808F051FC09A808F04EFC0B
:1042300003A808F04BFC08F1FF330F2B3FD8DFE851
:1042400003F01D230E292F083E3E3E3E3E3E3E3EDD
:104250003514284639463246FFF7F0FC34E028464C
:1042600039463246FFF7ACFC2EE0637928460093CE
:1042700021463A463346FFF7FCFC25E028463946FE
:104280003246FFF748FD1FE0284639463246FFF721
:1042900099FD19E0284639463246FFF7F3FD13E051
:1042A000284639463246FFF72BFE0DE06379284653
:1042B000009321463A463346FFF766FE04E028465F
:1042C00041460122FFF762FC0CB0BDE8F08100BF5F
:1042D000896101085C1F0020956101089F61010848
:1042E00010B50446FFF7CAFB204610BD80F8281021
:1042F0000120704770B5049E0161C66104461546F1
:1043000008461146DAB208F01FFA4FF4FA6008F0D6
:104310003BFE002E08DBF6B23046002108F04AFED4
:104320003046002108F004FEB5F5964F06DD40F258
:10433000EE23236240F2D663636207E0044B93FBF3
:10434000F5F32362034B93FBF5F56562012070BD25
:10435000C0E1E400C00E160270B50446C06986B024
:1043600000280D4606DBC0B2012108F0E1FD012066
:1043700008F00AFE0023227B5E1CDBB29A421FD9A2
:10438000194A1068411C1160E95C184A1154D15C4B
:104390006846102208F018FC694603A808F0F9FBEB
:1043A000134903A808F0AEFC0146124808F0C6FA0B
:1043B00003A808F08BFB684608F088FB3346DAE771
:1043C0000D490C4808F0E2FA206903689B69984798
:1043D000606A08F0E7FDE069002803DBC0B2002155
:1043E00008F0A6FD06B070BDD41B0020BE1B002047
:1043F000295101085C1F0020A9620108F0B5C943DA
:104400000B4EC9B2705C0B4DC0436C5CC0B2002156
:10441000AC46CFB2BB4207D0555C01314540705D20
:1044200060401CF80540F4E744EA0020F0BD00BFFE
:10443000A9610108596301082DE9F0410D78037B5A
:10444000FF2D01EB030204460E4612F8028C12F80F
:10445000017C03D090F82820AA4219D1A268033B1E
:10446000204612F8011BDBB2FFF7C8FF47EA082716
:10447000874202D00A480B490CE02046711CFFF726
:1044800071FEFF2D4FF0010007D16073BDE8F08190
:104490000348054908F07AFA0020BDE8F08100BF22
:1044A0005C1F0020D1620108FD620108F8B50446D6
:1044B000C0690F46002806DBC0B2012108F038FDB4
:1044C000012008F061FD194D19491A4808F05EFAFB
:1044D000194E2B6894F828105A1CF154237B2A603B
:1044E0000022D0B298420AD2286800F1010EC5F825
:1044F00000E017F802E0013206F800E0F1E7A268F8
:104500002046FFF77BFF2B68020AF2541E449A1CD8
:104510007070606A2A6008F045FDE069002803DBDE
:10452000C0B2002108F004FDF8BD00BFD41B00207C
:104530002D6301085C1F0020BE1B0020D2B238B5DD
:1045400004460D460273002A3ED02049204808F058
:104550001DFA207B09F072FE0023A060227B591C0B
:10456000DBB29A4204D9E85CA268D0540B46F5E766
:104570001748184908F00AFA0025237B9D4207D204
:10458000A3681348595D102208F096FA0135F4E744
:1045900010490F4808F0FAF92046A168FFF74CFFD0
:1045A00068B1637B032B04D12046A168FFF77EFF2F
:1045B00005E0022B03D12046A168FFF7CDFEA068DD
:1045C00009F044FE0023237338BD00BF4D6301088A
:1045D0005C1F00208061010808B5032006F00EFF73
:1045E000014B01221A7008BDE11B002070B55E4826
:1045F0000D46097805F0F2FB697806465A4805F041
:10460000EDFB06EB8606594C06EB860600EB8600B2
:10461000E080A978544805F0E1FB6071E9785248E0
:1046200005F0DCFB207129794F4805F0D7FB69794B
:10463000A0704D4805F0D2FBA97960704A4805F09A
:10464000CDFB4B4920704B4808F085F9E1880A22E0
:10465000484808F010FA4849464808F07CF9617962
:104660000A22444808F028FA4449424808F073F9FD
:1046700021790A223F4808F01FFA41493D4808F0D5
:104680006AF9A1780A223B4808F016FA3D493948F0
:1046900008F061F961780A22364808F00DFA3A49C3
:1046A000344808F058F90A222178324808F004FA10
:1046B00007F0DAF9642008F067FC2046FBF7FEFDFE
:1046C0000146324806F0B8FD642008F05DFC07F0B2
:1046D000D1F92E4806F0B3FD01462046FBF762FDF6
:1046E000E1886423B1FBF3F1C9B21F4805F06DFB0B
:1046F0002870E2884FF47A73B2FBF3F103FB1121C7
:104700001948C9B205F061FB68706179164805F077
:104710005CFBA8702179144805F057FBA178E8707C
:10472000114805F052FB617828710F4805F04DFBE8
:10473000217868710C4805F048FB0024A871295DB8
:1047400010220C4808F0AFF901340A48104908F06B
:1047500002F9072CF3D1074808F002F9BDE87040D0
:1047600004480C4908F012B94D1F0020D81B002046
:10477000596401085C1F0020606401086864010836
:104780006E640108756401087F640108E21B002063
:10479000295101088964010870B51B4886B0FBF7F0
:1047A0008DFD1A4C054607F05FF90A2008F0ECFB76
:1047B0002946204606F040FD204606F040FD144DF7
:1047C00014492A688618684608F0C2F9694603A8A1
:1047D00008F0DFF9296803A808F0BAFA01460E4884
:1047E00008F0CAF803A808F071F9684608F06EF9F5
:1047F0000A493246204606F024FD0A2008F0C4FB90
:1048000007F038F906B070BDD81B0020E21B00206D
:104810005C180020AC6401085C1F0020D94500082A
:104820000148112106F0FFBCE21B0020084B1A686A
:1048300001321A601A68B2F5615F04D300221A606F
:10484000044B01221A70044B1A6801321A60704737
:10485000E81B0020351C0020E41B0020054B1A68D3
:1048600001321A601A68092A03D900221A6003F07B
:10487000B9BB7047EC1B002070B50F4C23680133A7
:1048800023600E4B1D7855B10D482568FEF786FF55
:104890000A23584385420ED30023236008E00848CA
:1048A0002668FEF731FF0A235843864203D325606A
:1048B000044B01221A7070BDF01B0020E01700208D
:1048C000BD1B0020521F002010B5084C084920468F
:1048D00007F0BFFF20460121064A07F0D9FF204616
:1048E0000021BDE8104007F0ABBF00BF54200020FE
:1048F000A08601007948000810B5084C08492046F8
:1049000007F0A7FF20460121064A07F0C1FF204615
:104910000021BDE8104007F093BF00BF58200020E1
:10492000A08601005D48000810B5084C08492046E3
:1049300007F08FFF20460121064A07F0A9FF204615
:104940000021BDE8104007F07BBF00BF5C200020C5
:1049500040420F002D48000810B5054C204607F0D6
:1049600061FF20460021BDE8104007F069BF00BF8D
:104970005420002010B5054C204607F053FF204678
:104980000021BDE8104007F05BBF00BF58200020A9
:1049900010B5064C204607F045FF2046002107F0E1
:1049A0004FFF034B00221A6010BD00BF5C200020A7
:1049B000E41B0020014807F02DBF00BF5420002059
:1049C00008B5034807F026FF024B00221A6008BD15
:1049D0005C200020E41B0020094B10B51A786AB156
:1049E00000241C70FFF7E6FF2246234605480121FC
:1049F00006F03AF9BDE81040FFF7AEBF10BD00BFAA
:104A0000521F0020531F0020F8B52D4802F046FF2A
:104A10002C4C2D4D20702A4802F08AFF064628486B
:104A200002F0E6FF294B2278197830449142286041
:104A300007D01A70264B0122264827491A7007F022
:104A4000A5FF264B2A681968254C914206D01A60AA
:104A5000204801232349237007F098FF2A68224B3E
:104A600002B101221A7023782BB9194B1B7813B9A4
:104A70001E4B1B7813B31E4B1E4A19781668174637
:104A80001D4651B13B689B1BB3F5FA6F03D21A4820
:104A9000FDF772F9F6E700232B7018490D4807F06F
:104AA00075FF0B4A00231370104A01211370237005
:104AB00013480A46BDE8F84005F08EBEF8BD00BFB9
:104AC000371C0020F81B0020001C0020FC1B0020CD
:104AD000FD1B00205C1F00202E650108F41B002038
:104AE000F91B002041650108E0170020271C002069
:104AF000141B0020AC2000208417002054650108FE
:104B0000531F002010B5064C0649204608F020F837
:104B100020460549054ABDE8104008F09BBB00BF90
:104B2000281C0020F1540108CDCA0008080000200C
:104B300030B54A4885B0FEF74EF9002846D1484BBB
:104B4000484918704548FEF70AF828B143484549D6
:104B5000FEF745F8002877D14048FEF797FA20B1D4
:104B60003E48FEF718FA002873D101238DF804306F
:104B70003A48002301A98DF805308DF806308DF8EC
:104B800007308DF80830FEF775F918B13648374907
:104B900007F0FCFE31480121FEF726FA18B1324831
:104BA000334907F0F3FE33492F4807F0EFFE32494F
:104BB0002D4807F0EBFE09E0304CA368EBB92F4815
:104BC0002C4907F0F0FF2E48FDF7D6F82348FEF7F2
:104BD00002F9002833D106F0C5FF234807F092FD03
:104BE0000028E9DD204807F039FDC1B2234808F06C
:104BF0003CF8022008F0C8F9EFE7204608F05BF91E
:104C00002146194807F0B8FE1E4901A807F0A0FF89
:104C1000204601A908F0BCF8054601A807F056FF98
:104C200055B11449204607F0BEFF0F48164907F05A
:104C3000ADFE164805F02AF906F094FFBFE7084BD1
:104C400001221A7005B030BD1149074807F09EFED9
:104C500082E71049044807F099FE86E7B31B00205D
:104C60001D000020091C00205C1F0020A565010814
:104C7000E2650108F15401081E660108281C0020A5
:104C8000841700204B60010861660108531F002053
:104C9000A4660108D866010870B506F063FF194BD9
:104CA0001B7843BB70BD184C18482678184D731CF0
:104CB000237007F0D3FCA855022008F065F923788B
:104CC000132B0CD906F04EFF00261249124826700D
:104CD00007F05CFE28463146142209F037FE23789F
:104CE0000D481D4415F8011C102207F0DCFE0A488F
:104CF0000A4907F030FE054807F004FD0028D2DC21
:104D000070BD00BF081C0020FB1B00208C1F002072
:104D1000121C00201F6701085C1F0020516701085A
:104D200030B590488DB004F06BFE8F4801F0B2FBB7
:104D30008E4B06201A684FF4FA6122F0E06242F0CE
:104D400080621A6006F0FEFE89484FF4E13107F0F8
:104D500037FD88484FF41651FDF7DAF886484FF4CE
:104D6000165107F02DFD854906A807F0F1FE06A9AA
:104D700009A807F00EFF824909A807F0C3FF014602
:104D80007B4807F0F9FD09A807F0A0FE06A807F088
:104D90009DFE7C4906A807F0DBFE06A909A807F0DE
:104DA000F8FE794909A807F0ADFF0146704807F001
:104DB000E3FD09A807F08AFE06A807F087FE7349FD
:104DC00006A807F0C5FE06A909A807F0E2FE70498B
:104DD00009A807F097FF0146654807F0CDFD09A82F
:104DE00007F074FE06A807F071FE6A4906A807F0EE
:104DF000AFFE06A909A807F0CCFE8C2109A807F090
:104E00009DFF01465A4807F0B7FD09A807F05EFE6E
:104E100006A807F05BFE06F01AFE5F48FDF790FE5D
:104E2000504804F091FE06F09DFE5248FDF74CF804
:104E300001215048FDF7E6F9584D4FF4FA6008F0AB
:104E4000A3F80124002356482B70FCF795FF2C7023
:104E500006F088FE5348F121FEF768F95148FEF745
:104E60005EFA18B94F482146FEF76DFA4D48FEF735
:104E70007DFA4D4C4D49207003A807F069FE03A947
:104E800009A807F086FE1022217806A807F09CFEEC
:104E900006A909A807F029FF0146354807F06CFD6F
:104EA00006A807F013FE09A807F010FE03A807F0F4
:104EB0000DFE3C48FEF75DFA18B93A483421FEF77A
:104EC0006CFA3848FEF77CFA394C3A49207003A84E
:104ED00007F03EFE03A909A807F05BFE0A2221782D
:104EE00006A807F071FE06A909A807F0FEFE014614
:104EF0001F4807F041FD06A807F0E8FD09A807F0E4
:104F0000E5FD03A807F0E2FD2648FEF7D9F82A4997
:104F1000174807F03BFD29482221FEF769FA0628C9
:104F2000044651D125482321FEF762FA122805468E
:104F30004AD12349684607F00BFE694606A807F0E8
:104F400028FE2146102203A807F04FFE03A906A859
:104F500007F0CBFE1B4907F0D5FE2946044609A8F9
:104F60004EE000BF4C1F0020371C00200400014011
:104F70005C1F0020AE1B00208C1F0020536701081F
:104F80005A670108EE670108F56701080168010822
:104F90000868010811680108BC1B00201C000020E3
:104FA00084170020B01B0020AD1B002018680108EA
:104FB000AF1B002027680108F1540108B21B002034
:104FC000816901081E560108122288480621FEF751
:104FD000FAF98749684607F0BBFD694606A807F05D
:104FE000D8FD1022062103A807F0FFFD03A906A89B
:104FF00007F07BFE7F4907F085FE1221044609A8D1
:10500000102207F0F2FD204609A907F06EFE0146C6
:10501000794807F0B1FC09A807F058FD03A807F08C
:1050200055FD06A807F052FD684607F04FFD6F4892
:105030002421FEF7DBF90228044616D16B4825210E
:10504000FEF7D4F9054680B96C4906A807F080FD43
:1050500006A909A807F09DFD214609A807F06EFEE4
:10506000644907F04FFE294614E000225F48022100
:10507000FEF7C0F9624906A807F06AFD06A909A86B
:1050800007F087FD022109A807F058FE594907F0EB
:1050900039FE002107F052FE0146574807F06CFC2C
:1050A00009A807F013FD06A807F010FDFFF7F4FDAF
:1050B000FFF73EFD53485449FDF796FEA0B953490A
:1050C0004D4807F063FC52494B4807F05FFC5148DC
:1050D00004F0F4FF5048FCF74FFE40F6B83004F0FF
:1050E00087FE06F03FFDE5E74C49434807F04EFCDC
:1050F00041484B4907F02FFC0024434B1022195D17
:105100003D4807F0D0FC01343B48464907F023FCFA
:10511000092CF2D1384807F023FC06F023FDFFF7F5
:10512000D3FBFFF719FC4049334807F02FFC374900
:10513000314807F02BFCFFF7DFFBFFF71BFC3B4977
:105140002D4807F023FC31492B4807F01FFCFFF7DF
:10515000EBFBFFF735FC3649274807F017FC2B49D6
:10516000254807F013FC02222A48012105F0BEFA67
:105170003049214807F00AFC24491F4807F006FC83
:105180002D4802F08BFB2D4B18702D4B18702A48C0
:1051900002F0CEFB2B4B18602B4B186002F0C0FEC8
:1051A00004F054FA1949144807F0F0FB2749124853
:1051B00007F0ECFB1549104807F0E8FB00210A2234
:1051C0002348FEF7AFFA224800211422FEF760FAC6
:1051D0002048FEF71FFC38B90A211E48FEF7D2FB13
:1051E0001C480121FEF7F2FB0DB030BDB21B0020C0
:1051F000976901081E5601085C1F0020E26901083A
:10520000F8690108B31B0020091C0020F1540108B3
:1052100034680108531F00208417002068680108C3
:1052200081680108295101088B680108C8680108D4
:10523000EC68010824690108371C0020FC1B0020D1
:10524000F81B0020F41B0020001C00203969010815
:10525000BD1B0020B11B002070B58EB09E4807F02A
:1052600051FA00280ADD9C4807F0F8F9C1B29B48C2
:1052700007F0FBFC022007F087FEEFE7974CA368DE
:10528000002B00F02681204607F015FE21469248AB
:1052900007F072FB92490BA807F05AFC20460BA9B5
:1052A00007F0A3FD05460BA807F010FC002D31D038
:1052B00020460021042207F0E5FD204607F007FE06
:1052C000884C02462060C2F307218748D2B2FEF71D
:1052D00073FA10B18048854901E07F48844907F09E
:1052E00055FB8148FEF7A4FA8249206008A807F020
:1052F0002FFC08A90BA807F04CFC21680BA807F0AD
:1053000027FD0146744807F037FB0BA807F0DEFBCA
:1053100008A87EE078490BA807F01AFC20460BA9E4
:1053200007F036FD05460BA807F0D0FB55B1734AD0
:105330006948137883F0010313700BB17049C2E020
:105340007049C0E070490BA807F002FC20460BA989
:1053500007F01EFD06460BA807F0B8FB5EB16B49CF
:105360005D4807F013FB009569490122694B6A48C3
:10537000FDF792F8A9E069490BA807F0E9FB204680
:105380000BA907F032FD05460BA807F09FFB002D87
:1053900042D06349504807F0F9FA62490BA807F078
:1053A000D7FB20460BA907F043FDA368421C21460A
:1053B00002A807F041FD0BA807F088FB02A807F040
:1053C00086FDC1B25848FDF7BEFF5748FDF7CEFF36
:1053D000564C5749207005A807F0BAFB05A90BA841
:1053E00007F0D7FB1022217808A807F0EDFB08A9E9
:1053F0000BA807F07AFC0146374807F0BDFA08A869
:1054000007F064FB0BA807F061FB05A807F05EFB43
:1054100002A807F05BFB58E046490BA807F098FB91
:1054200020460BA907F0E1FC05460BA807F04EFB50
:105430001DB34149284807F0A9FA3A490BA807F0DB
:1054400087FB20460BA907F0F3FCA368421C21460A
:1054500002A807F0F1FC0BA807F038FB02A807F040
:1054600036FDC1B23048FDF798FF2F48FDF7A8FF81
:10547000324C3349207005A8AEE732490BA807F03B
:1054800067FB20460BA907F083FC06460BA807F034
:105490001DFB26B120482946FDF7B4F915E02A493D
:1054A0000BA807F055FB20460BA907F071FC04463A
:1054B0000BA807F00BFB24B103F0B6F8064823490C
:1054C00001E00548224907F061FA0448214907F044
:1054D0006AFB0EB070BD00BF5C1F0020281C0020BE
:1054E000436A01085C180020BD1B0020486A0108BF
:1054F000806A0108C7640108BB6A0108081C002013
:10550000C46A0108E06A0108FC6A0108046B01082A
:105510004E1F0020206B0108AE1B00202A6B0108E3
:105520003B6B01085C6B0108B01B0020AD1B002029
:10553000186801084F6B01085E6B0108AF1B002063
:1055400027680108706B01087A6B0108AB500108ED
:105550008B6B0108F15401082DE9F04F87B06248C8
:1055600007F0D0F800280ADD5F4807F077F8C1B2ED
:105570005E4807F07AFB022007F006FDEFE75B4C80
:10558000A368002B00F0AC80204607F094FC214675
:10559000554807F0F1F9564903A807F0D9FA204613
:1055A00003A907F0F5FB054603A807F08FFA002DC5
:1055B00000F0948020464F4C4F4907F0F4FA2368DE
:1055C0004E4901334848236007F0E0F94C496846EA
:1055D00007F0BEFA694603A807F0DBFA216803A8C2
:1055E00007F0B6FB0146404807F0C6F903A807F0EC
:1055F0006DFA684607F06AFA3F493B4807F0C6F97A
:10560000FFF7DEF9032005F0F9FE3E4A0023137090
:105610003D4A3E4F13703E4A3B6013703D4A1D4663
:1056200013703D4A1E4613703C4AA34613703C4A11
:1056300013703C4A13703C4A13703C4A13703C4A46
:1056400013703C4B0024EC503B4BDFF814A1EC50A2
:105650003A4BDFF81091EC50394BDFF80C81EC50ED
:10566000384BF0B2EC50384B0121EC50374B45F839
:105670000A40F454364B45F80940F454354B45F88C
:105680000840F454344B0435F454013602F0EEFA79
:105690000C2ED6D1DBF8003013F0010313D02F48C5
:1056A000FEF7C6F8386014234AF804303C2349F862
:1056B00004304FF6FF7348F804300434302CF2D134
:1056C000FFF766F90AE03B6000224AF8032049F838
:1056D000032048F803200433302BF5D106F042FABA
:1056E00007B0BDE8F08F00BF5C1F0020281C002021
:1056F000B46B0108041C0020F1540108B66B0108CA
:10570000F96B0108261C0020E11B00205C1800201A
:10571000361C0020FF1B00208D190020FE1B0020DE
:10572000FA1B0020F91B0020271C0020251B00204D
:10573000E1170020141A002094190020681B002093
:10574000281B0020D41A0020541A0020151B00200A
:10575000851700206D1700200C000020BD1B0020C5
:105760001C18002098170020941A00202DE9F043FF
:10577000804E87B016F800900446B9F1000F40F053
:10578000F480DFF83C827C4F18F80030002B00F0EA
:105790008C807A4D7A4A2B6852F820209342C0F0D0
:1057A0008480012102F062FA7649684608F8049084
:1057B00007F0CEF9694603A807F0EBF9214603A8E4
:1057C00007F0B2FA704907F09DFA01466F4807F0FA
:1057D000D3F803A807F07AF9684607F077F96B4821
:1057E00006F074FF6A4B53F8242052B301233B5553
:1057F00068492B68684D41F824306846134467496E
:1058000045F8243007F0A4F9694603A807F0C1F968
:10581000214603A807F088FA614907F073FA55F8A2
:10582000241007F095FA0146584807F0A5F803A898
:1058300007F04CF9684607F049F9544806F046FF6E
:1058400033E0584B584D53F824205849013A43F857
:1058500024202B78684601332B7007F079F96946CC
:1058600003A807F096F9297803A807F05DFA014626
:10587000464807F081F803A807F028F9684607F0C2
:1058800025F9424806F022FF2B780C2B08D13F481F
:10589000474907F07BF8474A01231370464A1370C3
:1058A000002001233855335560E0385D002855D07D
:1058B000324B1A68384B53F824309A4256D3394B3E
:1058C000394D53F824200127013A43F824202B783E
:1058D00036493B4468462B70375507F039F969461D
:1058E00003A807F056F9297803A807F01DFA014626
:1058F000264807F041F803A807F0E8F8684607F0E3
:10590000E5F8224806F0E2FE2B780C2B07D11F4861
:10591000274907F03BF8274B1F70274B1F700123C7
:1059200068461849335507F013F9694603A807F08C
:1059300030F9214603A807F0F7F9204907F0E2F90A
:105940000146124807F018F803A807F0BFF86846A8
:1059500007F0BCF80D4806F0B9FE06E00C4B53F812
:105960002400003018BF012000E0002007B0BDE88F
:10597000F08300BF6D17002085170020E41B002076
:10598000281B0020144E0108076C01085C1F002032
:1059900098170020D41A0020541A0020236C010804
:1059A00090610108941A0020E1170020366C01086C
:1059B000466C0108261C0020271C00206C6C010886
:1059C000151B00202DE9F0439A4E87B006F0CAF867
:1059D00033780C2B00F0D8800024254606F0C2F85E
:1059E000954BEFB2E95C002940F0A1804FF001082F
:1059F00005F80380914B04EB0309E358002B52D0C8
:105A00008F4BE358002B4ED0384602F02FF98D4BC8
:105A10008D4A05F803808D4BDFF88C821B688C491A
:105A2000A350D9F800206846134444F8083007F022
:105A30008FF8694603A807F0ACF8394603A807F0C9
:105A400073F9844907F05EF90146834806F094FF34
:105A500003A807F03BF8684607F038F87F49684626
:105A600007F076F8694603A807F093F8394603A8CB
:105A700007F05AF97A4907F045F954F8081007F089
:105A800067F90146744806F077FF03A807F01EF88F
:105A9000684607F01BF8704806F018FE714BE35893
:105AA000002B6AD0C2E06A49684607F051F869469F
:105AB00003A807F06EF8394603A807F035F96A49DC
:105AC00007F020F90146644806F056FF03A806F0E7
:105AD000FDFF684606F0FAFF644B0127EF54337868
