:020000040800F2
:100000000000012075B5000861B8000865B8000857
:1000100069B800086DB8000871B80008C1B80008D8
:10002000C1B80008C1B80008C1B80008C1B80008CC
:10003000C1B80008C1B80008C1B8000851BD000827
:10004000C1B80008C1B80008C1B8000851B4000820
:10005000C1B80008C1B80008C1B80008C1B800089C
:10006000C1B80008C1B80008C1B80008C1B800088C
:10007000C1B80008C1B80008C1B80008C1B800087C
:10008000C1B80008C1B8000839B90008C1B80008F3
:10009000C1B80008C1B80008C1B80008C1B800085C
:1000A00099BF0008BDBF0008E1BF000819C00008E3
:1000B0006DC00008DDC000084DC10008C1B80008CF
:1000C000C1B80008C1B80008C1B80008C1B800082C
:1000D000C1B8000845C4000899C40008EDC4000870
:1000E000C1B8000899B40008C1B8000875C200087A
:1000F00099C20008BDC20008F5C2000889B900080D
:10010000C1B80008C1B80008BDC10008C1B80008E6
:1001100041C5000895C500082DC2000851C200085D
:10012000C1B80008C1B80008C1B80008C1B80008CB
:1001300010B5054C237833B9044B13B10448AFF321
:1001400000800123237010BD501700200000000024
:10015000AC2A010808B5064B1BB106480649AFF3A7
:1001600000800648036813B1054B03B1984708BDEA
:1001700000000000AC2A010854170020501700208E
:1001800000000000012902D11C30C0B270470629CE
:1001900084BF01F1FF31C9B211F0010F14BF1E205D
:1001A0001F207047444B2DE9F047B1FBF3F603FBEA
:1001B00016113C23B1FBF3F203FB12120546027049
:1001C0004FF46160B1FBF0F200FB1211B1FBF3F3ED
:1001D0006B704FF4FA63AA70B6B2EB80EC884FF400
:1001E000C873B4FBF3F803FB18481FFA88F8B8F19A
:1001F000000F16D06423B4FBF3F203FB12439BB24F
:10020000002B53D014F0030140F26D130CBF4FF4D8
:10021000B7721A4696420EDB002908BF4FF4B77337
:1002200004E0B6F5B77F06DB4FF4B773F61A013476
:10023000B6B2EC80D2E700236B716423B4FBF3F712
:1002400003FB1747BFB2B8F1000F06D03FB114F05F
:10025000030F14BF0020012002E0012000E0384617
:1002600095F80590C0B24946FFF78CFF864209F128
:10027000010A15D3B8F1000F06D03FB114F0030FF7
:1002800014BF0020012002E0012000E03846C0B287
:100290004946FFF777FF301A86B285F805A0D2E706
:1002A00001362E7185F805A0BDE8F087B6F5B67F5A
:1002B000C1DD40F26D13B9E780510100F8B5427815
:1002C00087783C2303FB072702780579467903FBEF
:1002D0000727013D013EEDB2F6B2044605714671B5
:1002E000013E731CE38834D04FF4C872B3FBF2F1C3
:1002F00002FB113292B262B16422B3FBF2F002FB54
:10030000103080B230B113F0030F14BF0020012071
:1003100000E00120C0B2F1B2FFF734FF284485B2FB
:10032000DEE74FF4C872B3FBF2F102FB113292B276
:10033000AAB16422B3FBF2F102FB113292B28AB18C
:1003400013F0030F40F26D1208BF4FF4B77215445B
:10035000ADB2013B9BB2B3F5FA6FE2D205E04FF4C8
:10036000B772F4E740F26D12F1E7024800FB057046
:10037000F8BD00BF8051010009F02EBC38B504461D
:100380000D4609F044FC2046A02109F0D7FC204688
:1003900009F0ADFCC5F30721204609F0CFFC20464B
:1003A00009F0A5FCE9B2204609F0C8FC204609F096
:1003B0009EFC204609F02BFC2046A12109F0BEFC42
:1003C000204609F094FC0021204609F0DEFC054699
:1003D000204609F06FFC204609F034FC284638BD61
:1003E00070B5044616460D4609F011FC2046A021C2
:1003F00009F0A4FC204609F07AFCC5F30721204649
:1004000009F09CFC204609F072FCE9B2204609F094
:1004100095FC204609F06BFC3146204609F08EFC25
:10042000204609F064FC204609F00CFCBDE8704051
:100430000A200CF0B1BD0000064A5178937843EAD7
:100440000123A3F52043152B9ABF034AD05C0E204D
:10045000704700BFA01800204842010810B5074CA3
:100460006018114607F0E2FD054B1B881C4414F888
:10047000073C1B1A5842584110BD00BFA01800206D
:1004800022180020084B18795B7943EA002045F2D6
:100490005553984205D04CF20303C31A58425841B1
:1004A00070470120704700BFA0180020044B9B79C3
:1004B000552B044B0CBF012200221A70704700BF5D
:1004C000A01800205518002010B5084CE379552BD2
:1004D00001D1012010BD064802F0C9FDE379834235
:1004E000F7D0D0F1010038BF002010BDA0180020C7
:1004F000B61B002013B50D4B1C7A552C01D10120E1
:1005000012E00B48694602F00DFD00231A461DF863
:1005100003108C42F3D019B90132D2B2052AEED0C1
:100520000133052BF3D1002002B010BDA01800202C
:10053000B61B002070B505461E46FFF78FFF044628
:1005400040B91C4AD3781A441379D62B02D01A48E2
:100550001A492BE02846FFF795FF044678B1284654
:10056000FFF7A4FF2846FFF7AFFF044670B96EB14E
:10057000134911480CF012FA0F48124916E01249BB
:100580000D480CF00BFA0C4810490FE02846FFF715
:10059000B1FF044660B99DF810300BB9012407E0A3
:1005A0000B4905480CF0FAF903480A490CF0F6F932
:1005B000204670BDA0180020541F0020BA42010838
:1005C000DE420108154301085E4201088C42010821
:1005D0004C43010884430108F8B50F460BF0CAFAF2
:1005E00004F08AFA03200AF013FF2F4A0023137045
:1005F0002E4A1D4613702E4A1E4613702D4A137044
:100600002D4A13702D4A13602D4A13702D4A137012
:100610002D4A13702D4A13702D4A13702D4A1370F2
:100620002D4A13602D4A13602D4A13702D4A137002
:100630002D4A13702D4A13702D4A13602D4A1370E2
:100640002D4A13602D4B0024EC502D4BF0B2EC5092
:100650002C4B0121EC502C4BEC502C4BEC502C4BE8
:10066000EC502C4BEC502C4BEC502C4BEC502C4BBE
:10067000EC502C4BF4542C4BF4542C4BF4542C4B8A
:10068000F45407F093FB01362A4B0C2EEC5005F185
:100690000405D7D137B1284807210322BDE8F84027
:1006A00009F084BDF8BD00BF2A1C0020E51B002016
:1006B0003A1C0020031C0020CD1900209C180020AB
:1006C000021C0020FE1B0020FD1B00202B1C002014
:1006D000291B002021180020081C0020D019002010
:1006E000D6170020941A0020CC190020571800209B
:1006F0008017002058180020AC1B0020141A00207E
:100700005C180020D8170020541A0020D4190020AB
:10071000981A00206C1B00202C1B0020D81A0020E7
:1007200084170020191B0020C51700206D1700201A
:100730000C000020241800204B1F00201F4B13B575
:100740001B78002B37D000230093042117220123AC
:10075000FFF7F0FE30B31A491A480CF01FF9194898
:100760000BF0BCFF184B1C7A012C18D11748D97C10
:1007700002F0E6FC48B116480F21224609F016FDAA
:100780001448214602F048F80CE0114810210222DA
:1007900009F00CFD10490B480CF000F902E00C4880
:1007A00009F07EFB0D4B08481A88002102B0BDE815
:1007B00010400EF0D3B802B010BD00BF1D000020E5
:1007C000B8430108541F0020A0180020B31B0020CC
:1007D0004B1F0020B11B0020D84301082218002025
:1007E0001A4B07B51B786BB30023009304210A2230
:1007F0000123FFF79FFEE0B1154916480CF0CEF833
:1008000014480BF06BFF1448144902F03DFB38B15B
:10081000134910480CF0C2F812480321022206E0E6
:1008200011490C480CF0BAF80E480421012209F0D5
:10083000BDFC0E4B0E481A88002103B05DF804EB96
:100840000EF08CB803B05DF804FB00BF1D00002063
:100850001C440108541F0020B61B0020A8180020CB
:10086000344401084B1F0020764401082218002060
:10087000A018002013B50023009304210F22FFF7D6
:1008800059FE40B31F492048204C0CF087F81E4801
:100890000BF024FF1E4804F10A0102F06AF968B364
:1008A0001B4804F10A0102F0A4F938B319491648AB
:1008B0000CF074F81648E17902F0A0FBA0B11649DB
:1008C00011480CF06BF815480521012209F06EFC67
:1008D0000F4802F06FFA124B0C481A88002102B040
:1008E000BDE810400EF03AB807480E490CF056F833
:1008F0000A480621012209F059FCECE702480A499E
:10090000F4E700BFB8440108541F0020A0180020DD
:10091000B61B00205E450108D34401084B1F002090
:1009200022180020194501088B450108134B07B513
:100930001B7803B3124B0421DA78002300930123C0
:10094000FFF7F8FD70B10F490F480CF027F80E487B
:100950000BF0C4FE0D490C480CF020F80C480221A5
:100960000AF0B0FB0B4B06481A88002103B05DF873
:1009700004EB0DF0F3BF03B05DF804FB1D00002095
:10098000A0180020C6450108541F0020E2450108B8
:100990004B1F002022180020134B13B51B78044670
:1009A000FBB100230093042105220123FFF7C2FDC0
:1009B00070B10E490E480BF0F1FF0E490C480BF0D8
:1009C000EDFF0B480BF08AFE20460121FFF704FEE5
:1009D000094B0A481A88002102B0BDE810400DF00A
:1009E000BDBF02B010BD00BF1D0000201B460108A6
:1009F000541F00203446010822180020A0180020AF
:100A0000F0B5284B89B01B78002B49D0264D002427
:100A1000EA78042100940123FFF78CFD2F4600287B
:100A200035D0224922480BF0B9FF21480BF056FE81
:100A300003AD0BF09FF81F491D480BF0AFFF284690
:100A4000214614220DF08AFFFE78053E142E01D8AF
:100A5000234605E0164818490BF0A0FF022207E0E4
:100A6000B34204D2FA18527AEA540133F8E7032267
:100A7000124B13481A702946324605F059FF0122DD
:100A80001048002109F014FC0F4B01221A700F4B83
:100A900005481A88002109B0BDE8F0400DF05EBF9E
:100AA00009B0F0BD1D000020A01800204446010838
:100AB000541F00206E460108C44601084C1F002048
:100AC0003B1C00204B1F0020FD1B00202218002093
:100AD00030B5154B85B01B781BB3144D0024EA7854
:100AE000009404210123FFF725FDD0B110491148DE
:100AF0000BF054FF0F480BF0F1FD0E480E490BF0C0
:100B00004DFF2346EA18527A02A95A540133072BA3
:100B1000F8D10A4803F006FE09481721022209F01D
:100B200045FB05B030BD00BF1D000020A01800200F
:100B300015470108541F00202C470108E41B002022
:100B40004B1F0020F0B53A4B89B01B78002B6CD0BE
:100B5000384C0026E278009604210123FFF7EAFCD6
:100B600000284DD0344935480BF018FF33480BF0BE
:100B7000B5FD334894F8221094F8232002F02AFDA2
:100B800020B92E482F490BF009FF012600252E49D8
:100B90002A4804AF0BF002FF2223384629461022D0
:100BA000029503958DF808300DF0D8FE33238DF8AB
:100BB00010302B46E218127A02A95A540133082B3E
:100BC000F8D10023E218127CFA540133102BF9D12A
:100BD0001B4802F05DFCE0B11948394602F0B6FC52
:100BE000B8B11A4915480BF0D9FE154802F01FFCA0
:100BF000174808F0B3FF17483146012209F0EAFB15
:100C0000154B0C481A88002109B0BDE8F0400DF0E2
:100C1000A5BE124909480BF0C1FE094802F024FCA8
:100C20000B4808F09BFF0226E5E709B0F0BD00BFC6
:100C30001D000020A01800205D470108541F00205F
:100C4000C01B002087470108C2470108FA47010876
:100C5000441F00204B1F00202218002037480108A5
:100C6000F0B54A4B89B01B780746002B00F08C800A
:100C7000474C0025E278009504210123FFF75AFC38
:100C8000002874D0434944480BF088FE42480BF0DA
:100C900025FD424B0126384629461E70FFF79CFC75
:100CA0003F4B404894F8461094F847201E7002F0DD
:100CB0008DFD10B138483C4901E037483B490BF005
:100CC0006DFE384802F0BEFD394D3A49286002A851
:100CD0000BF046FF02A905A80BF063FF296805A8E1
:100CE0000CF03EF801462C480BF04EFE05A80BF028
:100CF000F5FE02A80BF0F2FE0AF03CFF0022244BA6
:100D00001046114604EBD00595F848500D41ED070B
:100D100015D55D7A1E7A05EB0626274D565193F8B8
:100D2000295093F8286005EB0626244D565193F878
:100D30004B5093F84A6005EB0626214D5651013180
:100D4000C9B2082900F1010008BF00210C2803F1F5
:100D5000020302F10402D5D10F480BF0BFFC194881
:100D600003210B4A09F084FB03F0AEFE03E00A48BE
:100D700015490BF013FE154B05481A88002109B0E0
:100D8000BDE8F0400DF0EABD09B0F0BD1D00002047
:100D9000A018002074480108541F002020180020CB
:100DA00056180020C01B0020A1480108E548010892
:100DB0009C180020236501085C180020D81700202B
:100DC000981A00204B1F00202C49010822180020EF
:100DD0002DE9F041604B88B01B780546002B00F0F0
:100DE000B8805E4E0024F278009404210123FFF7BE
:100DF000A1FB002800F0A08059495A480BF0CEFD15
:100E000058480BF06BFC584B0122284621461A70BB
:100E1000FFF7E2FB554B02221A70327A737A544F75
:100E200003EB0223534902A83B600BF099FE02A991
:100E300005A80BF0B6FE396805A80BF091FF4E49E6
:100E40000BF068FF014647480BF09EFD05A80BF02C
:100E500045FE02A80BF042FE484DB37A484902A86D
:100E60002B700BF07DFE02A905A80BF09AFE2978E5
:100E700005A80BF061FF40490BF04CFF01463948D3
:100E80000BF082FD05A80BF029FE02A80BF026FE50
:100E90003C4DF37A3C4902A82B700BF061FE02A98D
:100EA00005A80BF07EFE297805A80BF045FF01464A
:100EB0002C480BF069FD05A80BF010FE02A80BF002
:100EC0000DFE2546B84606EBD4031B7B2B41DB0702
:100ED00021D5D8F800302D4F2D4947F8243002A8ED
:100EE0000BF03EFE02A905A80BF05BFE214605A80B
:100EF0000BF036FF27490BF00DFF57F824100BF0CD
:100F00002FFF014617480BF03FFD05A80BF0E6FD4B
:100F100002A80BF0E3FD0135EDB2082D04F1010448
:100F200008BF00250C2CCED11B4803210B4A09F029
:100F3000FFFA03F0C9FD03E00A4818490BF02EFD43
:100F4000174B06481A88002108B0BDE8F0410DF0A3
:100F500005BD08B0BDE8F0811D000020A0180020EC
:100F600047490108541F002020180020561800206F
:100F7000D01900206D49010805700108D61700201E
:100F800083490108941A00209A490108141A002084
:100F9000AE490108C34901084B1F0020C749010899
:100FA00022180020F0B5484B89B01B780546002B6D
:100FB00000F08780454E0024F2780094042101233C
:100FC000FFF7B8FA00286FD0414942480BF0E6FC21
:100FD00040480BF083FB404B0122284621461A7003
:100FE000FFF7FAFA3D4B03221A702546072C8CBFF7
:100FF000B37D737D2B4103F0010343B363080433D6
:1010000016F8132006EB43035B78354F03EB0223FE
:1010100047F82430334902A80BF0A2FD02A905A825
:101020000BF0BFFD214605A80BF09AFE2E490BF0F0
:1010300071FE57F824100BF093FE014625480BF083
:10104000A3FC05A80BF04AFD02A80BF047FD0135F3
:10105000EDB2082D04F1010408BF00250C2CC5D108
:10106000337D224C02A8224923700BF079FD02A99E
:1010700005A80BF096FD217805A80BF05DFE1D4933
:101080000BF048FE014613480BF07EFC05A80BF060
:1010900025FD02A80BF022FD174803210B4A09F099
:1010A000BBFA03F011FD03E00A4814490BF076FC8B
:1010B000134B06481A88002109B0BDE8F0400DF036
:1010C0004DBC09B0F0BD00BF1D000020A0180020DD
:1010D000E2490108541F0020201800205618002063
:1010E000241800200B4A0108C3490108D717002023
:1010F0002A4A0108057001084B1F00204B4A0108CD
:1011000022180020144B13B51B7813B3134B002483
:10111000DA78042100940123FFF70CFA60B110493A
:1011200010480BF03BFC0F480BF0D8FA0E48214654
:10113000032209F0EDFB03E00A480C490BF02EFCFA
:101140000B4B06481A88002102B0BDE810400DF094
:1011500005BC02B010BD00BF1D000020A01800207B
:10116000664A0108541F00204B1F0020824A0108D4
:101170002218002070B53D4B88B01B78002B73D02F
:101180003B4C00230093E27804210123FFF7D2F9BE
:1011900000285CD0374938480BF000FC36480BF08B
:1011A0009DFA637A257A354902A803EB05250BF0F1
:1011B000D7FC02A905A80BF0F4FC294605A80BF002
:1011C000CFFD01462C480BF0DFFB05A80BF086FC99
:1011D00002A80BF083FC2A48217A627A02F0ACFA6A
:1011E000054620B9274924480BF0D8FB00E001252B
:1011F000E37AA67A244902A803EB06260BF0B0FC9A
:1012000002A905A80BF0CDFC314605A80BF0A8FDFE
:10121000014619480BF0B8FB05A80BF05FFC02A8CB
:101220000BF05CFC1648A17AE27A02F03BFA20B996
:10123000164911480BF0B2FB03E015B11448152113
:1012400001E013481621022208F0B0FF03E00A482B
:1012500010490BF0A3FB104B05481A88002108B079
:10126000BDE870400DF07ABB08B070BD1D000020D5
:10127000A01800209D4A0108541F0020C34A0108FD
:10128000C01B0020D34A0108104B0108204B010865
:101290004B1F00205D4B010822180020174B13B58F
:1012A0001B784BB3164C00230093E27804210123F2
:1012B000FFF740F998B1134913480BF06FFB124840
:1012C0000BF00CFA1148217A01F03AFF20B11048D6
:1012D000012101F0A1FA06E00B480E4901E00A489D
:1012E0000D490BF05BFB0D4B05481A88002102B03D
:1012F000BDE810400DF032BB02B010BD1D00002053
:10130000A0180020784B0108541F0020B31B0020B8
:10131000B11B00209A4B0108CA4B0108221800207B
:101320002DE9F047A94BA0B01B78002B00F09E815F
:10133000A74C4FF00008E2780421CDF8008001238B
:10134000FFF7F8F8002800F06181A249A2480BF0ED
:1013500025FBA1480BF0C2F9217A1022090905A842
:101360000BF04BFC05A90BA80BF01BFC217A1022FB
:1013700001F00F0108A80BF040FC08A90BA80BF026
:10138000BCFC617A0EAF05461022090938460BF005
:1013900034FC284639460BF0B0FC617A11AE0546A4
:1013A000102201F00F0130460BF027FC2846314691
:1013B0000BF0A3FCA17A14AD81461022090928463E
:1013C0000BF01BFC484629460BF097FCA17A81469E
:1013D000102201F00F0117A80BF00FFC484617A9C7
:1013E0000BF08BFCE17A8146102209091AA80BF058
:1013F00004FC48461AA90BF080FCE17A10228146D1
:1014000001F00F011DA80BF0F8FB1DA948460BF0D9
:1014100074FC014602A80BF0C4FB1DA80BF05EFB98
:101420001AA80BF05BFB17A80BF058FB28460BF033
:1014300055FB30460BF052FB38460BF04FFB08A82B
:101440000BF04CFB0BA80BF049FB05A80BF046FB7F
:1014500062491DA80BF084FB02A91DA80BF04DFCEE
:1014600001465D480BF090FA1DA80BF037FB5A4877
:101470005B49CDF83880CDF83C800BF074FA4446D7
:10148000049B9C4212D2214602A80BF0C8FC3038C3
:10149000C1B208290DD839550A224F480BF00BFB71
:1014A0004D4850490BF05FFA0134E9E74FF000096D
:1014B00001E04FF001094C4947480BF06FFA002456
:1014C000454847490BF04FFA11941294404B1A19B2
:1014D000117B9A4664290ED80A223F4831550BF0F9
:1014E000EAFA01343C483F490BF03DFA082CEDD1B3
:1014F0004FF0000801E04FF001083C4936480BF07E
:101500004DFA0024344836490BF02DFA1494159402
:101510009AF814303048A3401B0644BF01232B55D2
:10152000295D0A2201340BF0C6FA082CF0D12A48B2
:101530002F490BF033FAB9F1000F08D02D49264896
:101540000BF02CFA2C480321214A012338E0B8F192
:10155000000F08D0294920480BF020FA2648032123
:101560001B4A02232CE02648394602F079F900286C
:1015700059D02348294602F0ABF9002853D020481F
:1015800002F0DEF900284ED01E4B17AA18685968E1
:1015900003C217A83146022206F048FE042804467A
:1015A00046D119491DA80BF0DBFA1DA90A480BF01A
:1015B000EBF91DA80BF092FA0F48054A03212346C8
:1015C00009F062FA02A80BF089FA23E01D0000205E
:1015D000A0180020E54B0108541F00200F4C010803
:1015E000F56D010868510108264C0108334C0108CB
:1015F000444C0108554C01084B1F00208C4C01083D
:10160000B41B002040420108C74C010819481A4980
:101610000BF0C4F9194B1A481A88002120B0BDE814
:10162000F0470DF09BB903211648154A0B46C7E752
:1016300015491AA80BF094FA1AA91DA80BF0B1FAD3
:1016400012491DA80BF066FB11490BF063FB014624
:1016500008480BF099F91DA80BF040FA1AA80BF0F6
:101660003DFA08480321064A4346A9E720B0BDE8F1
:10167000F08700BF541F0020634D0108221800208E
:10168000A01800204B1F0020EA4C0108F14C010873
:10169000474D01082DE9F0415E4B8AB01B78002BC5
:1016A00000F0B4805C4E0025F278042100950123FF
:1016B000FEF740FF002800F09C80584958480BF086
:1016C0006DF957480BF00AF8564B03271F70564C1C
:1016D000337A5648237002F055F92646804640B9C1
:1016E00053494F480BF05AF952483946227843463D
:1016F0007CE02B46504A00259D540133082B904630
:10170000F8D14E4A02AB1068516803C33378FF2BFF
:101710000CD14B4907A80BF023FA07A940480BF05E
:1017200033F907A80BF0DAF904242FE02C46EFB2C6
:101730003278C7F10703DBB242FA03F3DB0722D5A5
:10174000012308F805303F4904A80BF009FA04A961
:1017500007A80BF026FA394607A80BF0EDFA3A492C
:101760000BF0D8FA01462E480BF00EF907A80BF043
:10177000B5F904A80BF0B2F90AAB234401370134E0
:1017800003F8207CE4B20135082DD0D12F4924483C
:101790000BF004F9274803213278012309F0FCF902
:1017A00002A82146012207F073F8D8B90122214688
:1017B00002A807F0D9FF2649044604A80BF0D0F987
:1017C00004A907A80BF0EDF9214607A80BF0B4FA1D
:1017D000014613480BF0D8F807A80BF07FF904A8CE
:1017E0000BF07CF9134832780321022309F0D4F975
:1017F00003E00B4817490BF0D1F8174B06481A883D
:1018000000210AB0BDE8F0410DF0A8B80AB0BDE86B
:10181000F08100BF1D000020A01800207E4D0108AF
:10182000541F00205618002054180020B41B00201C
:10183000AB4D01084B1F0020181800204042010842
:10184000054E0108244E0108284E01083E4E0108AD
:10185000824E0108914E0108221800202DE9F04324
:10186000894B91B01B78002B00F00B81874D002431
:10187000EA78042100940123FEF75CFEA9460028C3
:1018800000F0F280824983480BF088F881480AF022
:1018900025FF05F108080294039404940594069426
:1018A0000794089409942546264618F8013B6F1CB6
:1018B000FF2B0AA878490BD10BF052F90AA90DA801
:1018C0000BF06FF929460DA80BF04AFA734974E042
:1018D000642B25D80BF044F90AA90DA80BF061F987
:1018E00029460DA80BF03CFA6D490BF013FA18F8D5
:1018F000011C0BF021FA014666480BF045F80DA8D3
:101900000BF0ECF80AA80BF0E9F810AB18F8012C72
:101910003344013603F8387C03F8282CF6B258E03B
:10192000F02B1CD10BF01CF90AA90DA80BF039F90A
:1019300029460DA80BF014FA5A490BF0EBF90146B1
:1019400054480BF021F80DA80BF0C8F80AA80BF0CA
:10195000C5F810AB234403F8307C00221DE0F12BC6
:1019600020D10BF0FDF80AA90DA80BF01AF92946B1
:101970000DA80BF0F5F94C490BF0CCF901464548A0
:101980000BF002F80DA80BF0A9F80AA80BF0A6F8C6
:1019900010AB234403F8307C6422013403F8202C7C
:1019A000E4B216E00BF0DCF80AA90DA80BF0F9F888
:1019B00029460DA80BF0D4F93C490BF0ABF90146D0
:1019C00034480AF0E1FF0DA80BF088F80AA80BF0E4
:1019D00085F8082F01D03D4667E799F81030344D5F
:1019E00034490AA82B700BF0BBF80AA90DA80BF01C
:1019F000D8F829780DA80BF09FF92F490BF08AF938
:101A0000014624480AF0C0FF0DA80BF067F80AA8A9
:101A10000BF064F8294803210122294B09F02EF923
:101A200076B1314606AA02A806F044FB02A8314668
:101A3000022206F02DFFA0B902A8314602220EE0D4
:101A40007CB1214608AA04A806F034FB04A821466C
:101A5000032206F01DFF20B904A82146032207F047
:101A600083FE00232B7003E00A4816490AF096FF14
:101A7000154B06481A88002111B0BDE8F0430CF060
:101A80006DBF11B0BDE8F0831D000020A01800203C
:101A9000AC4E0108541F0020244E0108D84E010806
:101AA000EE4E0108074F0108174F0108274F0108A4
:101AB000D5170020584F0108057001084B1F002062
:101AC000A81800207A4F010822180020F0B5364BE4
:101AD0008BB01B78002B64D0344D0024EA780421AD
:101AE00000940123FEF726FD2F4600284CD03049F4
:101AF00030480AF053FF2F480AF0F0FD2E4A02AB9F
:101B00001068516803C32B7AFF2B0CD12B4907A80F
:101B10000BF026F807A927480AF036FF07A80AF0B5
:101B2000DDFF042528E025463B7A661CA34013F020
:101B3000800F1ED0224904A80BF012F804A907A8B0
:101B40000BF02FF8214607A80BF00AF91D490BF0FE
:101B5000E1F8014617480AF017FF07A80AF0BEFF90
:101B600004A80AF0BBFF0AAB2B44013503F8206C34
:101B7000EDB2082E3446D7D102A8294606F0F2FD70
:101B800030B90C48104901E00A4810490AF006FF34
:101B90000F4B06481A8800210BB0BDE8F0400CF04E
:101BA000DDBE0BB0F0BD00BF1D000020A01800205E
:101BB000954F0108541F002040420108BC4F010806
:101BC000244E0108D54F0108E54F010814500108C3
:101BD00022180020244B37B51B78002B41D0234C12
:101BE0000025E278009504210123FEF7A3FC58B3F9
:101BF0001F4920480AF0D2FE1E480AF06FFD1E4819
:101C0000217A01F0C9FE20B11C491A480AF0C6FE2B
:101C10000CE01B4917480AF0C1FE0A21164801F0E2
:101C2000BBFE1548012101F0DBFE0125637A2BB1D3
:101C300006F0CCFD0F4813490AF0B0FE124803210C
:101C40002A4609F0C9F903E00A4810490AF0A6FE3D
:101C50000F4B06481A88002103B0BDE830400CF055
:101C60007DBE03B030BD00BF1D000020A0180020C5
:101C70002F500108541F0020B41B0020645001089D
:101C8000A7500108EA5001084B1F0020F750010837
:101C90002218002010B50446FEF7CEFB132870D89A
:101CA000DFE800F0292E330A0F14191E383D424791
:101CB0004C5123565B60656A2046BDE81040FEF734
:101CC0003DBD2046BDE81040FEF78ABD2046BDE878
:101CD0001040FEF7CFBD2046BDE81040FEF726BEFF
:101CE0002046BDE81040FEF757BE26482649BDE80D
:101CF00010400AF053BE2046BDE81040FEF780BEFB
:101D00002046BDE81040FEF7E3BE2046BDE8104087
:101D1000FEF718BF2046BDE81040FEF7A1BF2046E1
:101D2000BDE81040FFF754B82046BDE81040FFF76B
:101D300039B92046BDE81040FFF7E4B92046BDE8B8
:101D40001040FFF717BA2046BDE81040FFF7A6BACB
:101D50002046BDE81040FFF7E3BA2046BDE810403A
:101D6000FFF798BC2046BDE81040FFF777BD20463E
:101D7000BDE81040FFF7AABE2046BDE81040FFF7BF
:101D800029BF10BD541F0020125101082DE9F74F43
:101D9000444D002682462E8009F0ECFE424B01277E
:101DA0001968344601919B4640480AF0B3FC00286C
:101DB00006DD0199DBF8002001F6B8339A4222D300
:101DC00009F0D8FE062C69D139483A490AF0E6FDF7
:101DD00036B9394B1B788BB15046FFF75BFF0DE0EE
:101DE00028880023801BDAB2F4188242E4B203F19F
:101DF0000103EEDA31490C5D8C54F4E703B0BDE821
:101E0000F04F09F0B7BEB5F80090284809F101027B
:101E10002A800AF02BFCDFF8A4802B8808F8090040
:101E2000434413F8011C102221480AF044FE2449BF
:101E30001F480AF098FD1D480AF06CFC002802DCDF
:101E400004200BF0A9F82B88B3F5967F02D3154B2D
:101E500000221A8047B12B8808EB030212F8012CEC
:101E6000FE2AA1D15E1EF6B22B88434413F8013C32
:101E70000D2B02D1E3070BD404E00A2B0AD114F096
:101E8000010309D00134E4B2062C99D000278BE776
:101E90000124FBE70024F9E71C46F7E703B0BDE89F
:101EA000F08F00BF22180020A42000206C1F00200B
:101EB000541F0020305101081C000020A0180020F1
:101EC0006851010808B50448FFF760FF09F052FEA9
:101ED000BDE8084002F01CBEC417002008B51D2054
:101EE00000210BF06FF81D2001210BF029F81020C4
:101EF00000210BF067F8112000210BF063F81C2083
:101F000000210BF05FF8112000210BF019F81C20C4
:101F100001210BF015F8BDE80840102000210BF05E
:101F20000FB8000001480AF053BC00BF6C1F00202E
:101F300008B561B100211C200BF002F896200BF0CF
:101F40002BF8BDE808401C2001210AF0F9BF08BDAC
:101F500008B500211D200AF0F3FF0C480AF03BFCF5
:101F6000022000210BF02EF8032000210BF02AF8AC
:101F7000022000210AF0E4FF032000210AF0E0FF24
:101F8000BDE808401C2000210AF0DABF6C1F0020C9
:101F900010B50B78452B12D14B78522B0FD18B7883
:101FA000CC78303B03EB8303303C04EB4304E4B2D6
:101FB00021460A2203480AF087FD204610BD0A2068
:101FC00010BD00BF541F00200B784F2B07D148785D
:101FD0004B2804D113704B780120537070470020B8
:101FE000704700002DE9F04190B00E4601A8654908
:101FF0001C4690460AF0B4FD624904A80AF0B0FD00
:10200000604907A80AF0ACFD2046002104220CF02C
:10201000A5FCE023A370E37035460027AB1B4345C6
:102020003AD229780A220DA80AF0D6FD0DA901A8F6
:102030000AF01EFE0DA80AF051FD15F8013B2C2BED
:1020400028D0303BDBB2092B98BF05F8013C15F8CE
:10205000011C57B92D2902D14B484C4909E00DA864
:102060000A220AF0B9FD04A80DE02D2906D1464840
:1020700047490AF093FCF023E370CFE70DA80A224A
:102080000AF0AAFD07A80DA90AF0F2FD0DA80AF0B2
:1020900025FDC3E70127C1E73E490AA80AF060FD14
:1020A0000AA90DA80AF07DFD01A90DA80AF025FED8
:1020B000014635480AF068FC0DA80AF00FFD0AA891
:1020C0000AF00CFD34490DA80AF04AFD0DA92E486E
:1020D0000AF03CFC0DA80AF001FDA3782A48F02B79
:1020E00001D12E4903E0E02B0CBF26492C490AF010
:1020F0003AFC04A90DA80AF054FD2A490DA80AF0DB
:1021000009FE014620480AF03FFC0DA80AF0E6FC53
:1021100025490DA80AF024FD0DA91B480AF016FC5C
:102120000DA80AF0DBFCE3781748F02B01D11B491E
:1021300003E0E02B0CBF134919490AF014FC07A96E
:102140000DA80AF02EFD0DA816490AF0E3FD014680
:102150000D480AF019FC0DA80AF0C0FC04A80AF00A
:10216000BEFE207007A80AF0BAFE607007A80AF049
:10217000B5FC04A80AF0B2FC01A80AF0AFFC10B04C
:10218000BDE8F08130550108541F00206A51010854
:10219000775101088551010890510108F561010846
:1021A0009B510108A8510108AF510108F8B54C78BE
:1021B000432C08D18C78532C05D1CC78B4F151053F
:1021C0006C426C4100E000240026F5B24F5D013600
:1021D0003A2FFAD10135EDB200279542FEB207F150
:1021E000010706D811F805C0013501F806C0EDB2A7
:1021F000F3E73CB92046C2B2B2420BD20A5C1A5491
:102200000130F8E7069A022412681470721ED2B2E6
:10221000FFF7E8FE0120F8BD37B5154809B91549A3
:1022200000E015490AF09FFB64200AF0B5FE002487
:102230000F480AF06FFA0028E5B208DD062C14D02A
:102240000B480AF013FA0DF804000134F0E755B119
:102250009DF802304F2B08D19DF80300B0F14B03DD
:102260005842584102E0284600E0002003B030BD4B
:102270006C1F00207D560108BB51010810B50121DB
:1022800004461D200AF05CFE07484FF416510AF080
:102290009FFA20460121FFF74BFE20460121BDE8B1
:1022A0001040FFF7B9BF00BF6C1F00202DE9F041BF
:1022B0009EB005AD0C460746002190462846642294
:1022C00003930CF04BFB21462C480AF04CFB642096
:1022D0000AF062FE002429480AF01CFA0028E6B23F
:1022E00007DD642C45D025480AF0C0F92855013493
:1022F000F1E726B9224923480AF050FB39E09DF85E
:1023000014300D2B35D19DF815300A2B31D11EAB71
:10231000334413F8653C0A2B2BD1023E1EAB3344E9
:1023200013F8643C0D2B24D10021CCB2A31CDBB2EA
:10233000B34201F1010107DA1EAA134413F8643C09
:10234000144404F8643CF0E738462946FFF720FEC1
:102350000A280CD103AB009338462946224643464F
:10236000FFF724FF00280CBF0320022002E0012019
:1023700000E003201EB0BDE8F08100BF6C1F00200C
:10238000C1510108541F00202DE9F041B2B00646AA
:102390000D4690460021642268461F460CF0DEFA86
:1023A00019A8002164220CF0D9FA0024E3B2E85CF9
:1023B000013420B132AA134403F8640CF6E7014655
:1023C000CAB25D1818F80240EDB232AA01312A44AF
:1023D00014B102F8644CF3E70D2302F8643C6B1C63
:1023E00032A8DBB203442F480A2203F8642C0368A6
:1023F00019A95B6898472C48AA1C036819A99B680F
:10240000D2B2984764200AF0C7FD27480AF082F943
:102410000028E5B208DD642C3FD023480AF026F9F5
:102420000DF804000134F0E7002D36D09DF800309F
:102430000D2B32D19DF801300A2B2ED132AB2B441B
:1024400013F8C93C0A2B28D1023D32AB2B4413F8B8
:10245000C83C0D2B21D100218B1CDBB2AB4201F11A
:10246000010209DA32A8034413F8C83CC9B2014496
:1024700001F8C83C1146EFE730466946FFF788FD92
:102480000A2808D1304669463A46FFF79DFD80F09C
:102490000100C0B202E0012000E0032032B0BDE83C
:1024A000F08100BF541F00206C1F0020F7B51E46AE
:1024B000044617460D4600218DF80710FFF7ACFEC5
:1024C00009F058FB204631462FB12A460DF107038B
:1024D000FFF7ECFE03E0089A2B46FFF755FF0328B1
:1024E0002AD8DFE800F011040207002311E01648A3
:1024F000164901E0144816490AF050FA2046012115
:10250000FFF78AFE00201CE012490F480AF046FA45
:1025100012E09DF807205E1CDBB29A420A4809D9F6
:10252000E95C10220AF0C7FA07480B490AF01BFAC7
:102530003346EEE70AF01CFA20460121FFF76CFE55
:10254000012003B0F0BD00BF541F0020D551010889
:10255000E6510108EF510108685101082DE9F043E7
:102560008BB004AF804600210922384602AE002419
:102570000CF0F4F90094404631460122454BFFF738
:1025800095FF054620B9444944480AF007FA7DE022
:102590002346F25C07AC092A01D8303204E0A2F1EC
:1025A0000A01052998BF3732E2540133082BF0D1D4
:1025B0004FF000093A488DF8249000F0B1FE024631
:1025C00000284AD0374935480AF0E8F934483946F6
:1025D00000F014FE00283BD04B46E15CFA5C9142CF
:1025E00048D10133082BF8D12F492C480AF0D6F9ED
:1025F0002E492A480AF0B7F99DF8161027480AF024
:10260000ADF99DF8171025480AF0A8F99DF81410A7
:1026100022480AF0A3F99DF8151020480AF09EF907
:102620009DF812101D480AF099F99DF813101B48E7
:102630000AF094F99DF8101018480AF08FF99DF8E7
:10264000111016480AF08AF914480AF091F91DE0B1
:10265000174912480AF0A2F907E0009440463146B3
:10266000144BFFF723FF054680B121460C4800F0CC
:1026700015FE0AE0104909480AF090F90097404613
:10268000314600220B4BFFF711FF054628460BB0E1
:10269000BDE8F0830552010810520108541F0020C4
:1026A000B31B002030520108B8520108E252010861
:1026B0004E520108725201087B5201082DE9F04F79
:1026C00089B002AF07F10C068346894690461C4646
:1026D000304600210A220CF041F9002C50D1C7F8F5
:1026E00004D05846CDF80080314601224B46FFF712
:1026F000DDFE824608B1214606E0404940480AF026
:102700004DF93F483F496FE0CCB218F80430013131
:10271000002BF9D1E11D01F4FC71ADEB010D02A913
:10272000D8B2A04203D2F05CC8540133F8E70B469C
:10273000581AC0B2A0420DD213F8010B092801D8D3
:10274000303004E0A0F10A05052DF1D8373003F848
:10275000010CEDE70025EBB2A34243D24B5D0135FE
:1027600008EB050010F8010C9842F4D026492448E3
:102770000AF014F9224825490AF010F97B689D46B1
:102780006C460023DAB219F8021001330A29F9D194
:10279000931D03F4FC73ADEB030DA2F1020E02AB2B
:1027A0000020C1B2551EA94200F1010003DA19F858
:1027B00001505D54F5E700223D215A55584603F873
:1027C0000E10CDF800803146FFF770FE054628B99F
:1027D0000B480F490AF0E2F8AA4601E04FF0010A5F
:1027E000A54605E006480B490AF0D8F87B689D46E7
:1027F00050461C37BD46BDE8F08F00BFF0520108BF
:10280000541F0020165301083A5301089153010840
:10281000D3530108085401082DE9F0418AB006AFEE
:102820000F2204460D46384600210CF097F89B48CD
:102830009B490AF0B3F80A2609F09CF9002D40F0F4
:10284000DF802046FFF78AFE96498DF81800964AE9
:102850002B462046FFF732FF2B468DF8190093498F
:102860002046934AFFF72AFFDFF8D0828DF81A003E
:1028700098F80030012B04D18E4988480AF08EF870
:102880002BE0022B0FD18C4984480AF087F88B4942
:102890008B4A20462B46FFF711FF8A498DF81B0013
:1028A000894A204624E0894968460AF059F9694670
:1028B00003A80AF076F998F8001003A80AF03CFA89
:1028C00083490AF027FA014674480AF05DF803A824
:1028D0000AF004F968460AF001F978497D4A204671
:1028E0002B46FFF7EBFE77497B4A8DF81B0020460D
:1028F0002B46FFF7E3FEDFF848828DF81C0098F8BE
:102900000030222B04D1754964480AF047F823E0CF
:102910000C2B07D1724961480AF040F820467149F2
:10292000714A1CE0714968460AF01AF9694603A821
:102930000AF037F998F8001003A80AF0FDF9644985
:102940000AF0E8F9014655480AF01EF803A80AF013
:10295000C5F868460AF0C2F86249654A2046002375
:10296000FFF7ACFE8DF81D00624800F029FCF1284D
:102970006149204608D1614A0023FFF79FFE604964
:102980008DF81E00454807E0494A0023FFF796FEF0
:102990005C498DF81E0041480AF000F85A495B4A2C
:1029A00000232046FFF78AFE59498DF81F00574A39
:1029B00000232046FFF782FE56498DF820004F4A3B
:1029C00000232046FFF77AFE53498DF82100534A31
:1029D00000232046FFF772FE51498DF82200514A2C
:1029E00000232046FFF76AFE314A8DF823004E4946
:1029F00020460023FFF762FE0D228DF824000EE032
:102A00003C4800F0DDFBF1280CBF3C4A284A204638
:102A100039490023FFF752FE01228DF818000023E8
:102A2000F95CA9B941491D4809F0B8FF2046FFF7F4
:102A300025FC2046FFF78CFA09F09CF82046FFF7AA
:102A40001DFC4FF4FA600AF0A7FA09F093F804E0CD
:102A50000133D9B29142E3D31DE0354809F05AFE63
:102A6000002803DD324809F001FEF6E7013E16F0CA
:102A7000FF067FF4E1AE2F49084809F08FFF2E4989
:102A8000064809F08BFF40F6B8300AF085FA09F0E5
:102A900071F809F0A3F80AB0BDE8F081541F0020D6
:102AA000305401085F5401086B5401087454010844
:102AB000715401087E540108BC5401089254010865
:102AC000D0540108A7540108D9540108E254010860
:102AD000FD5401089E540108B3540108145501081F
:102AE0003155010826550108405501084355010894
:102AF00023550108B31B00205C5501088F540108C1
:102B00006655010873550108805501088A5501086A
:102B10008D55010897550108A1550108AA550108CE
:102B2000AD550108B7550108BA550108C45501084B
:102B30006C1F0020E15501080D560108B01B002054
:102B4000B21B0020152001210AF0FAB9152000213E
:102B50000AF0F6B910B50021044615200AF032FA41
:102B6000152001210AF0ECF92046BDE81040FDF7E0
:102B700003BC7FB505460E46FFF7E8FF0D24331969
:102B80002146284613F80D2C0134FDF729FC162C9C
:102B9000F5D13046092105F049FA06462146284676
:102BA0003246FDF71DFC0D2421462846FDF7E6FBC5
:102BB00001AB23440134162C03F80D0CF4D101A809
:102BC000092105F033FAB04203D0FFF7BBFF002024
:102BD0000DE028460B21FDF7D1FB552804D02846EF
:102BE0000B215522FDF7FCFBFFF7ACFF012004B0E1
:102BF00070BD7FB505460E46FFF7A8FF17243319B1
:102C00002146284613F8172C0134FDF7E9FB202C48
:102C1000F5D13046092105F009FA06462146284635
:102C20003246FDF7DDFB172421462846FDF7A6FBBB
:102C300001AB23440134202C03F8170CF4D101A874
:102C4000092105F0F3F9B04203D0FFF77BFF002024
:102C50000DE028460C21FDF791FB552804D02846AD
:102C60000C215522FDF7BCFBFFF76CFF012004B0DF
:102C700070BDF0B585B001AD06460F46284600216F
:102C800009220BF06BFE0D2421463046FDF776FB42
:102C90002B190134162C03F80D0CF5D121463046C2
:102CA000FDF76CFB09210446284605F0BFF9844274
:102CB00006D10023EA5CFA540133092BFAD101E072
:102CC000002000E0012005B0F0BDF0B585B001ADF9
:102CD00006460F462846002109220BF03FFE172426
:102CE00021463046FDF74AFB2B190134202C03F80E
:102CF000170CF5D121463046FDF740FB092104466B
:102D0000284605F093F9844206D10023EA5CFA5480
:102D10000133092BFAD101E0002000E0012005B0C9
:102D2000F0BD37B50C461E210546FDF727FB1F21D8
:102D30008DF804002846FDF721FB02218DF80500DF
:102D400001A805F073F9207003B030BD10B50B2158
:102D50000446FDF713FB88B1FFF7F8FE204600227A
:102D60000B21FDF73DFBFFF7EDFE20460B21FDF7A4
:102D700005FBD0F1010038BF002010BD012010BDBF
:102D800010B50C210446FDF7F9FA88B1FFF7DEFE15
:102D9000204600220C21FDF723FBFFF7D3FE20463F
:102DA0000C21FDF7EBFAD0F1010038BF002010BD77
:102DB000012010BD10B521210446FDF7DFFA55288A
:102DC00011D0FFF7C3FE204655222121FDF708FB55
:102DD000FFF7B8FE20462121FDF7D0FAB0F15503E8
:102DE0005842584110BD012010BD08B52121FDF702
:102DF000C5FAB0F155035842584108BD70B50446B4
:102E00000D46FFF736FF20B120462946FFF75DFF4C
:102E100048BB20462946FFF72CFF48B11549164804
:102E200009F0BCFD20462946BDE87040FFF7E1BE31
:102E300020462946FFF749FF06460F4846B10F498D
:102E400009F0ACFD20462946BDE87040FFF791BE71
:102E50000B4909F0A3FD2046FFF778FF2046FFF756
:102E60008FFF304670BD0749034809F097FD0120E8
:102E700070BD00BF81560108541F0020B8560108DC
:102E8000EF56010803570108F8B504460E462F25F2
:102E900073192046294613F82F7CFDF76FFA8742F5
:102EA00003D10135342DF3D136E0FFF74FFE2F2546
:102EB00073192946204613F82F2C0135FDF790FA97
:102EC000342DF5D10521304605F0B0F807462946E6
:102ED00020463A46FDF784FA2F2520462946FDF77D
:102EE0004DFA731913F82F3C834217D10135342D55
:102EF000F3D120462946FDF741FAB8420ED12046CB
:102F00003521FDF73BFA552804D0204635215522BE
:102F1000FDF766FAFFF716FE0120F8BDFFF712FE77
:102F20000020F8BDF7B505460E462F242146284659
:102F3000FDF724FA00AB23440134342C03F82F0CA2
:102F4000F4D10521684605F071F821460746284668
:102F5000FDF714FA874207D100231DF80320F2542D
:102F60000133052BF9D101E0002000E0012003B07E
:102F7000F0BD73B505462F2421462846FDF7FEF91E
:102F800000AB23440134342C03F82F0CF4D16846F1
:102F9000052105F04BF8214606462846FDF7EEF9D7
:102FA000331A5842584102B070BD38B50546FFF794
:102FB000CDFD2F2428462146FDF7E0F968B12846CB
:102FC00021460022FDF70CFA28462146FDF7D6F9E6
:102FD00018B1FFF7B7FD002038BD0134342CE9D11A
:102FE00028463521FDF7CAF920B1284635210022AF
:102FF000FDF7F6F9FFF7A6FD012038BD37B50D4600
:103000008DF8071036210446FDF7B8F985422BD01C
:1030100002ADFFF79BFD15F8012D20463621FDF787
:10302000DFF90121284605F001F837210246204644
:10303000FDF7D6F920463621FDF7A0F99DF80730B7
:1030400083420DD120463821FDF798F9552804D048
:10305000204638215522FDF7C3F9FFF773FD03E041
:10306000FFF770FD002000E0012003B030BD3621E5
:10307000FDF784B937B536210546FDF77FF902AB78
:1030800003F8010D1846012104F0D0FF3721044652
:103090002846FDF773F9231A5842584103B030BD52
:1030A00010B536210446FDF769F988B1FFF74EFDEA
:1030B000204636210022FDF793F920463621FDF700
:1030C0005DF918B1FFF73EFD002010BDFFF73AFD96
:1030D000012010BD10B548210446FDF74FF95528D1
:1030E00011D0FFF733FD204655224821FDF778F92E
:1030F000FFF728FD20464821FDF740F9B0F15503C0
:103100005842584110BD012010BD10B54D21044654
:10311000FDF734F9552810D0FFF718FD2046552249
:103120004D21FDF75DF9FFF70DFD20460021FDF76C
:1031300025F9003018BF012010BD012010BD00008E
:1031400037B58DF807101031C9B20129044629D8C6
:103150004C21FDF713F99DF80730834228D002ADCA
:10316000FFF7F4FC15F8012D20464C21FDF738F946
:103170000121284604F05AFF4E2102462046FDF761
:103180002FF920464C21FDF7F9F89DF807308342CE
:1031900005D12046FFF7B9FFFFF7D4FC08E0FFF7A1
:1031A000D1FC03E00448054909F0F8FB002000E0E9
:1031B000012003B030BD00BF541F00203357010869
:1031C00037B54C210446FDF7D9F802AB03F8010DE1
:1031D0001846012104F02AFF4E2105462046FDF73E
:1031E000CDF8854202D19DF8070004E02046F02189
:1031F000FFF7A6FFF02003B030BD0000F7B505468D
:103200000E464F2421462846FDF7B8F800AB23446C
:103210000134572C03F84F0CF4D10821684604F010
:1032200005FF214607462846FDF7A8F887420CD13E
:1032300000231DF80320F2540133082BF9D1044870
:10324000044909F0ABFB012000E0002003B0F0BD11
:10325000541F00206957010810B558210446FDF796
:103260008DF8552808D0FFF771FC204658215522CB
:10327000FDF7B6F8FFF766FC10BD10B558210446FF
:10328000FDF77CF840B1FFF761FC20465821002291
:10329000FDF7A6F8FFF756FC10BD0000F7B50F4686
:1032A0000546FFF753FC3846082104F0BFFE4F24C3
:1032B00006463B192146284613F84F2C0134FDF7EA
:1032C0008FF8572CF5D1214628463246FDF788F86D
:1032D0004F2421462846FDF751F800AB2344013422
:1032E000572C03F84F0CF4D16846082104F09EFED9
:1032F000864206D02846FFF7C0FFFFF723FC0020D8
:1033000007E00549054809F049FB2846FFF7A4FFF7
:10331000012003B0F0BD00BF7E570108541F0020FC
:1033200008B55821FDF72AF8B0F155035842584125
:1033300008BD10B57F210446FDF720F855280AD0B6
:10334000FFF704FC20467F215522FDF749F8FFF7DF
:10335000F9FB002010BD012010BD38B50C467E21C0
:103360000546FDF70BF8A04208D0FFF7EFFB284613
:103370007E212246FDF734F8FFF7E4FB012038BD3B
:103380007E21FCF7FBBF10B581210446FCF7F6FF58
:1033900055280AD0FFF7DAFB204681215522FDF798
:1033A0001FF8FFF7CFFB002010BD012010BD38B57E
:1033B0000C4680210546FCF7E1FFA04208D0FFF74C
:1033C000C5FB284680212246FDF70AF8FFF7BAFB25
:1033D000012038BD8021FCF7D1BF70B504460E46F0
:1033E0001546FFF7B3FB204632462221FCF7F8FFD3
:1033F000204623212A46FCF7F3FFFFF7A3FB70BD0D
:10340000FCF7BCBFFCF7BABF70B504460E461546C4
:10341000FFF79CFB204632462421FCF7E1FF2046C3
:1034200025212A46FCF7DCFFFFF78CFB70BD10B5A9
:103430000446FFF78BFB204655225921FCF7D0FFAD
:10344000FFF780FB20465921FCF798FFB0F15503A8
:103450005842584110BD08B55921FCF78FFFB0F113
:1034600055035842584108BD10B50446FFF76EFB9E
:10347000204600225921FCF7B3FFFFF763FB2046EB
:103480005921FCF77BFFD0F1010038BF002010BDAF
:1034900073B5002305460E4600930193FFF756FBD4
:1034A0005A2433192146284613F85A2C0134FCF7C4
:1034B00097FF622CF5D13046082104F0B7FD06468F
:1034C000214628463246FCF78BFF5A2421462846DF
:1034D000FCF754FF00AB23440134622C03F85A0C70
:1034E000F4D10821684604F0A1FD0446FFF72AFB49
:1034F000B442064804D1064909F050FA012003E01D
:10350000044909F04BFA002002B070BD541F00209E
:1035100093570108C157010838B5094905460948BC
:1035200009F03CFA5A2421462846FCF727FF064BAF
:103530001A190134622C02F85A0CF4D1184638BD1D
:10354000F2570108541F0020B71B002073B5002359
:1035500005460E4600930193FFF7F8FA63243319EA
:103560002146284613F8632C0134FCF739FF6B2CF5
:10357000F5D13046082104F059FD0646732128464E
:103580003246FCF72DFF632421462846FCF7F6FE61
:1035900000AB234401346B2C03F8630CF4D10821F5
:1035A000684604F043FD0446FFF7CCFAB4420648EF
:1035B00004D1064909F0F2F9012003E0044909F0B9
:1035C000EDF9002002B070BD541F00202A580108F8
:1035D0005858010870B50E46742104461546FCF78C
:1035E000CDFEB04205D120467521FCF7C7FEA842AA
:1035F00019D0FFF7ABFA204674213246FCF7F0FEF3
:10360000204675212A46FCF7EBFEFFF79BFA204681
:103610007421FCF7B3FEB0420BD120467521FCF7B4
:10362000ADFEA84205D10649064809F0B7F90120C8
:1036300070BD0549034809F0B1F9002070BD00BF15
:10364000D0580108541F0020F258010810B5044654
:10365000FFF77CFA204674210022FCF7C1FE2046C9
:1036600075210022FCF7BCFEFFF76CFA204674219E
:10367000FCF784FE20B920467521FCF77FFE28B1B7
:103680000549064809F08AF9002010BD044903489D
:1036900009F084F9012010BD14590108541F0020BD
:1036A0003759010870B50E467A2104461546FCF7D5
:1036B00065FEB04205D120467B21FCF75FFEA842A3
:1036C00019D0FFF743FA20467A213246FCF788FEEC
:1036D00020467B212A46FCF783FEFFF733FA20467B
:1036E0007A21FCF74BFEB0420BD120467B21FCF740
:1036F00045FEA84205D10649064809F04FF90120C8
:1037000070BD0549034809F049F9002070BD00BFAC
:10371000045A0108541F0020305A010838B57A2194
:103720000546FCF72BFE7B2104462846FCF726FEC7
:1037300000EB042038BD000070B50E467821044629
:103740001546FCF71BFEB04205D120467921FCF757
:1037500015FEA84219D0FFF7F9F920467821324624
:10376000FCF73EFE204679212A46FCF739FEFFF79A
:10377000E9F920467821FCF701FEB0420BD1204642
:103780007921FCF7FBFDA84205D10649064809F05E
:1037900005F9012070BD0549034809F0FFF8002034
:1037A00070BD00BFB65A0108541F0020E25A01083C
:1037B00038B578210546FCF7E1FD79210446284615
:1037C000FCF7DCFD00EB042038BD000070B50E46B0
:1037D0007C2104461546FCF7D1FDB04205D12046B8
:1037E0007D21FCF7CBFDA84219D0FFF7AFF92046A9
:1037F0007C213246FCF7F4FD20467D212A46FCF769
:10380000EFFDFFF79FF920467C21FCF7B7FDB042A2
:103810000BD120467D21FCF7B1FDA84205D1064918
:10382000064809F0BBF8012070BD0549034809F0BE
:10383000B5F8002070BD00BF685B0108541F002070
:10384000985B010838B57C210546FCF797FD7D2182
:1038500004462846FCF792FD00EB042038BD00002A
:1038600070B505460E46FFF771F9002404F1820198
:10387000325D28460134FCF7B3FD082CF6D1FFF782
:1038800061F90024284604F18201FCF777FD335DDD
:10389000834205D00749084809F080F8002070BD30
:1038A0000134082CEED10549034809F077F80120CE
:1038B00070BD00BF2A5C0108541F0020605C010835
:1038C000052902D88231FCF759BD0020704700005D
:1038D00070B505460E46FFF739F9002404F18A0158
:1038E000325D28460134FCF77BFD082CF6D1FFF74A
:1038F00029F98A2428462146FCF740FD331913F89C
:103900008A3C834205D00749074809F047F8002060
:1039100070BD0134922CEDD10449034809F03EF802
:10392000012070BDFD5C0108541F00202E5D0108C0
:10393000052902D88A31FCF721BD0020704700001C
:1039400010B50446FFF702F9204692215522FCF7F4
:1039500047FDFFF7F7F820469221FCF70FFD5528A9
:10396000054804D1054909F019F8012010BD0449A2
:1039700009F014F8002010BD541F0020BB5D0108A1
:10398000F75D010808B59221FCF7F8FCB0F155038A
:103990005842584108BD000038B50C460546FFF7AF
:1039A000D5F8284693212246FCF71AFDFFF7CAF8FE
:1039B00028469321FCF7E2FCA042064804D10649C0
:1039C00008F0ECFF012038BD044908F0E7FF0020B3
:1039D00038BD00BF541F0020B35E0108E45E01083B
:1039E00038B50C460546FFF7B1F828469421224623
:1039F000FCF7F6FCFFF7A6F828469421FCF7BEFC7E
:103A0000A042064804D1064908F0C8FF012038BD8D
:103A1000044908F0C3FF002038BD00BF541F002038
:103A20007F5F0108AB5F010808B59421FCF7A6FC95
:103A3000003018BF012008BD2DE9F04104461646AC
:103A40000F46FFF783F826442546B54207D03B1BB7
:103A500029465A5D0F48FCF7C3FC0135F5E7FFF72F
:103A600071F82546B54211D03B1B2946094813F889
:103A70000580FCF783FC804505F10105F2D006497D
:103A8000064808F08BFF0220BDE8F0810020BDE869
:103A9000F08100BF6C17002037600108541F002020
:103AA000F8B505460E4617180446BC4207D0214615
:103AB0000448FCF763FC731B18550134F5E700203C
:103AC000F8BD00BF6C1700207FB53249054632486B
:103AD00008F064FF304808F001FE08F04BF841F2AE
:103AE000883009F059FA08F045F82B4808F012FE22
:103AF00000280ADD284808F0B9FDC1B2274809F0BE
:103B0000BCF8022009F048FAEFE7244CA668002E22
:103B100034D0204609F0D7F921461F4808F034FF79
:103B20001F4901A809F01CF801A9204609F038F93D
:103B3000064601A808F0D2FF1748EEB1194908F06F
:103B40002DFF1949204609F036F828462121FCF7B7
:103B500015FC40B1FEF7FAFF284621210022FCF7B0
:103B60003FFCFEF7EFFF28462121FCF707FCD0F1D0
:103B7000010038BF00200AE00C4901E006480C496A
:103B800008F00CFF2046084909F015F8304604B04B
:103B900070BD00BF66600108541F00202C1C00206F
:103BA000B7600108BB60010830550108F1600108E9
:103BB0001C6101080022026042607047006820B169
:103BC00003688B4201D08068F9E7704770B50446FE
:103BD0000C2016460D460AF039FB0022826022684E
:103BE00080E860000AB9206001E06268906060606F
:103BF00070BD10B51446FFF7E1FF08B14460012025
:103C000010BD08B5FFF7DAFF00B1406808BD01F547
:103C10001C414131FFF7DABF01F51C414131FFF78B
:103C2000E8BF01F51C414131FFF7EBBF002A01F16C
:103C3000010114BF4FF47F420022FFF7C7BF002AE3
:103C400001F51C5101F1110114BF4FF47F42002214
:103C5000FFF7BCBF01F5EA413131FFF7B7BF002ADA
:103C600001F1010114BF4FF47F420022FFF7C1BFF1
:103C7000002A01F51C5101F1110114BF4FF47F42DC
:103C80000022FFF7B6BF01F5EA413131FFF7B1BFBE
:103C900008B50131FFF7B5FFB0F57F4358425841F1
:103CA00008BD01F51C5108B51131FFF7AAFFB0F5A9
:103CB0007F435842584108BD01F5EA413131FFF7D1
:103CC000A0BF000070B504460D46094809491646D4
:103CD00008F064FEA0680AF0C1FA022020730AF01E
:103CE000B5FA803D0323A06005704670637370BD14
:103CF000541F00203F610108F8B5531E7C2B044679
:103D00000F46164602D903210A4617E001F51C4169
:103D10004131FFF753FF18B92046032102220DE07D
:103D2000A0680AF09BFA701C4000C0B220730AF031
:103D30008DFAA06030B9204603210422BDE8F84086
:103D4000FFF7C0BF03230370237B0025023B4370B2
:103D5000E9192046FFF765FFA3680135020A03F859
:103D60001520A368B54203EB45035870F0D1032337
:103D70006373F8BD70B504460E461546FFF74CFF59
:103D800018B920460621022208E020463146FFF7F6
:103D900048FFA84206D0204606210422BDE8704014
:103DA000FFF790BF0223637370BD2DE9F8431F46F0
:103DB00016467A1E7A2A044688469DF8203002D894
:103DC000B3EB470F03D02046102103221CE006F579
:103DD0001C45413505EB070920462946FFF7EEFE55
:103DE00018B92046102102220EE001354D45F3D1CD
:103DF000A0680AF033FA052020730AF027FAA060C1
:103E000030B9204610210422BDE8F843FFF75ABF1D
:103E100010230370330A4370002307718670C37048
:103E200008F106053744BE4205F102050BD015F82E
:103E3000022C15F8013C3146204643EA0222FFF7E6
:103E4000EBFE0136EFE703236373BDE8F8832DE94A
:103E5000F843531EB3F5FA6F04460F46154602D3D6
:103E60000121032219E00131FFF7A8FE18B920460D
:103E70000121022211E0A0680AF0F0F9C5F3C7039E
:103E80006A070CBF023303332373207B0AF0DEF989
:103E9000A06030B9204601210422BDE8F843FFF7B5
:103EA00011BF01230370237B05EB0708023B43701E
:103EB0003E46002546451CD031462046FFF7E8FE29
:103EC000C7F10109B1444FEAD909012109F10203FF
:103ED000A268A94010B1D05C014302E0D05C20EAA6
:103EE00001010135EDB2082DD15408BF002501367E
:103EF000E0E703236373BDE8F88300002DE9F8438E
:103F0000531EB3F5FA6F04460F46154602D302213D
:103F100003221FE001F51C511131FFF74FFE18B9C4
:103F200020460121022215E02249234808F036FDEF
:103F3000A0680AF093F9C5F3C7036A070CBF023300
:103F400003332373207B0AF081F9A06030B9204647
:103F500002210422BDE8F843FFF7B4BE0223037038
:103F6000237B05EB0708023B43703E460025464590
:103F70001CD031462046FFF794FEC7F10109B14439
:103F80004FEAD909012109F10203A268A94010B141
:103F9000D05C014302E0D05C20EA01010135EDB2C2
:103FA000082DD15408BF00250136E0E703236373D1
:103FB000BDE8F88362610108541F0020F8B5531E64
:103FC0007C2B04460F46164602D90421032217E033
:103FD00001F5EA413131FFF7F1FD18B92046012121
:103FE00002220DE0A0680AF039F9701C4000C0B24E
:103FF00020730AF02BF9A06030B9042120460A464C
:10400000BDE8F840FFF75EBE04230370237B002564
:10401000023B4370E9192046FFF74EFEA3680135C5
:10402000020A03F81520A368B54203EB4503587054
:10403000F0D103236373F8BD70B5B2F57F4F86B03E
:1040400004460E4603D012B10521032215E0151CCB
:1040500018BF0125204631462A46FFF700FE18B951
:1040600020460521022208E020463146FFF710FED7
:10407000A84205D0204605210422FFF723FE17E0C1
:104080000C49684608F06CFD694603A808F089FDF4
:10409000094903A808F03EFE0146084808F074FCF0
:1040A00003A808F01BFD684608F018FD022363739F
:1040B00006B070BD8C610108A4610108541F002086
:1040C0002DE9F0438BB00446894604A86C49DF080B
:1040D0001D46164608F044FD04A907A808F061FD36
:1040E000394607A808F03CFE0146664808F04CFC3B
:1040F00007A808F0F3FC04A808F0F0FC6B0705F132
:10410000FF3318BF0137B3F5F66F03D29DF848307F
:10411000BB4207D05C495B4808F040FC20460F21B9
:1041200003224DE0771C07EB050820463946FFF7D0
:1041300045FD18B920460F21022241E001374745CD
:10414000F3D15048514908F029FC0627504901A8ED
:1041500008F006FD01A904A808F023FD394604A8CB
:1041600008F0FEFD4B4908F0D5FD102219F80710A4
:10417000804607A808F030FD07A9404608F0BDFDBD
:104180000146404808F000FC07A808F0A7FC04A876
:1041900008F0A4FC013701A808F0A0FC102FD5D12D
:1041A0003A49384808F0FAFBA0680AF057F80520A9
:1041B00020730AF04BF8A06028B920460F21042292
:1041C000FFF780FD58E00F230370330A43702B0A7A
:1041D0008670C37005712D492A4808F0DFFB062759
:1041E0002B4901A808F0BCFC01A904A808F0D9FCDF
:1041F000394604A808F0B4FD264908F08BFD1022CA
:1042000019F80710804607A808F0E6FC07A9404601
:1042100008F073FD01461B4808F0B6FB07A808F03C
:104220005DFC04A808F05AFC013701A808F056FC10
:10423000102FD5D11348154908F0B0FB3544B046CE
:104240000027C6EB080309EBD3039A7941463A41AC
:104250000137FFB2204602F00102FFF700FD08F12E
:104260000108082F08BF0027A845EAD105480A49D8
:1042700008F094FB032363730BB0BDE8F08300BF29
:10428000B6610108541F0020C8610108F56D0108DE
:10429000E1610108C3490108E86101082DE9F04125
:1042A0008B784F788CB0CE7843EA07270B7991F85A
:1042B00000800C460546544903A843EA062608F048
:1042C0004FFC03A909A808F06CFC1022217806A86D
:1042D00008F082FC06A909A808F00FFD01464B482A
:1042E00008F052FB06A808F0F9FB09A808F0F6FB55
:1042F00003A808F0F3FB464903A808F031FC03A922
:1043000009A808F04EFC1022394606A808F087FCE0
:1043100006A909A808F0F1FC01463C4808F034FB66
:1043200006A808F0DBFB09A808F0D8FB03A808F0F2
:10433000D5FB384903A808F013FC03A909A808F025
:1043400030FC1022314606A808F069FC06A909A82D
:1043500008F0D3FC01462D4808F016FB06A808F02B
:10436000BDFB09A808F0BAFB03A808F0B7FB08F1E9
:10437000FF330F2B3FD8DFE803F01D230E292F0852
:104380003E3E3E3E3E3E3E3E35142846394632468F
:10439000FFF7F0FC34E0284639463246FFF7ACFC24
:1043A0002EE063792846009321463A463346FFF7CC
:1043B000FCFC25E0284639463246FFF748FD1FE061
:1043C000284639463246FFF799FD19E02846394616
:1043D0003246FFF7F3FD13E0284639463246FFF731
:1043E0002BFE0DE063792846009321463A4633467A
:1043F000FFF766FE04E0284641460122FFF762FC13
:104400000CB0BDE8F08100BFF7610108541F002027
:10441000036201080D62010810B50446FFF7CAFBEC
:10442000204610BD80F828100120704770B5049E0A
:104430000161C6610446154608461146DAB208F025
:104440008BF94FF4FA6008F0A7FD002E08DBF6B2F6
:104450003046002108F0B6FD3046002108F070FD1E
:10446000B5F5964F06DD40F2EE23236240F2D663A7
:10447000636207E0044B93FBF5F32362034B93FB6A
:10448000F5F56562012070BDC0E1E400C00E1602C2
:1044900070B50446C06986B000280D4606DBC0B280
:1044A000012108F04DFD012008F076FD0023227B5C
:1044B0005E1CDBB29A421FD9194A1068411C116078
:1044C000E95C184A1154D15C6846102208F084FB5C
:1044D000694603A808F065FB134903A808F01AFC15
:1044E0000146124808F032FA03A808F0F7FA6846C5
:1044F00008F0F4FA3346DAE70D490C4808F04EFAB2
:10450000206903689B699847606A08F053FDE06979
:10451000002803DBC0B2002108F012FD06B070BD18
:10452000D81B0020C11B002068510108541F002027
:1045300017630108F0B5C9430B4EC9B2705C0B4D4F
:10454000C0436C5CC0B20021AC46CFB2BB4207D0C6
:10455000555C01314540705D60401CF80540F4E752
:1045600044EA0020F0BD00BF17620108C7630108DC
:104570002DE9F0410D78037BFF2D01EB030204468A
:104580000E4612F8028C12F8017C03D090F8282015
:10459000AA4219D1A268033B204612F8011BDBB2E4
:1045A000FFF7C8FF47EA0827874202D00A480B49AD
:1045B0000CE02046711CFFF771FEFF2D4FF001004B
:1045C00007D16073BDE8F0810348054908F0E6F9BA
:1045D0000020BDE8F08100BF541F00203F630108A8
:1045E0006B630108F8B50446C0690F46002806DB76
:1045F000C0B2012108F0A4FC012008F0CDFC194D47
:1046000019491A4808F0CAF9194E2B6894F828106D
:104610005A1CF154237B2A600022D0B298420AD25D
:10462000286800F1010EC5F800E017F802E0013239
:1046300006F800E0F1E7A2682046FFF77BFF2B6851
:10464000020AF2541E449A1C7070606A2A6008F0D4
:10465000B1FCE069002803DBC0B2002108F070FC67
:10466000F8BD00BFD81B00209B630108541F002029
:10467000C11B0020D2B238B504460D460273002A91
:104680003ED02049204808F089F9207B09F0DEFD62
:104690000023A060227B591CDBB29A4204D9E85C5B
:1046A000A268D0540B46F5E71748184908F076F988
:1046B0000025237B9D4207D2A3681348595D102231
:1046C00008F002FA0135F4E710490F4808F066F9DE
:1046D0002046A168FFF74CFF68B1637B032B04D130
:1046E0002046A168FFF77EFF05E0022B03D120469C
:1046F000A168FFF7CDFEA06809F0B0FD0023237389
:1047000038BD00BFBB630108541F0020EE610108E3
:1047100008B5032006F07CFE014B01221A7008BD8B
:10472000E51B002070B55E480D46097805F060FB7A
:10473000697806465A4805F05BFB06EB8606594C3D
:1047400006EB860600EB8600E080A978544805F069
:104750004FFB6071E978524805F04AFB20712979D6
:104760004F4805F045FB6979A0704D4805F040FBC6
:10477000A97960704A4805F03BFB4B4920704B48D3
:1047800008F0F1F8E1880A22484808F07CF9484925
:10479000464808F0E8F861790A22444808F094F99C
:1047A0004449424808F0DFF821790A223F4808F0DE
:1047B0008BF941493D4808F0D6F8A1780A223B48D8
:1047C00008F082F93D49394808F0CDF861780A22AD
:1047D000364808F079F93A49344808F0C4F80A2212
:1047E0002178324808F070F907F046F9642008F0A3
:1047F000D3FB2046FBF762FD0146324806F026FD5A
:10480000642008F0C9FB07F03DF92E4806F021FDB1
:1048100001462046FBF7C6FCE1886423B1FBF3F1B7
:10482000C9B21F4805F0DBFA2870E2884FF47A73AA
:10483000B2FBF3F103FB11211948C9B205F0CFFA1D
:1048400068706179164805F0CAFAA8702179144891
:1048500005F0C5FAA178E870114805F0C0FA617852
:1048600028710F4805F0BBFA217868710C4805F0F3
:10487000B6FA0024A871295D10220C4808F01BF933
:1048800001340A48104908F06EF8072CF3D10748A4
:1048900008F06EF8BDE8704004480C4908F07EB896
:1048A000451F0020DC1B0020C7640108541F0020A6
:1048B000CE640108D6640108DC640108E3640108E1
:1048C000ED640108E61B002068510108F764010847
:1048D00070B51B4886B0FBF7F1FC1A4C054607F093
:1048E000CBF80A2008F058FB2946204606F0AEFC1B
:1048F000204606F0AEFC144D14492A688618684616
:1049000008F02EF9694603A808F04BF9296803A8B6
:1049100008F026FA01460E4808F036F803A808F019
:10492000DDF8684608F0DAF80A493246204606F013
:1049300092FC0A2008F030FB07F0A4F806B070BD26
:10494000DC1B0020E61B00209C1800201A650108D3
:10495000541F0020114700080148112106F06DBCCA
:10496000E61B0020084B1A6801321A601A68B2F57B
:10497000615F04D300221A60044B01221A70044BB9
:104980001A6801321A607047EC1B0020391C0020A5
:10499000E81B0020054B1A6801321A601A68092AC0
:1049A00003D900221A6003F0EFBB7047F01B002010
:1049B00070B50F4C2368013323600E4B1D7855B141
:1049C0000D482568FEF7F4FE0A23584385420ED3AE
:1049D0000023236008E008482668FEF79FFE0A23AC
:1049E0005843864203D32560044B01221A7070BDE0
:1049F000F41B002020180020C01B00204A1F0020AC
:104A000010B5084C0849204607F02BFF204601212D
:104A1000064A07F045FF20460021BDE8104007F098
:104A200017BF00BF4C200020A0860100B14900083C
:104A300010B5084C0849204607F013FF2046012115
:104A4000064A07F02DFF20460021BDE8104007F080
:104A5000FFBE00BF50200020A0860100954900083D
:104A600010B5084C0849204607F0FBFE20460121FE
:104A7000064A07F015FF20460021BDE8104007F068
:104A8000E7BE00BF5420002040420F0065490008E7
:104A900010B5054C204607F0CDFE20460021BDE8AC
:104AA000104007F0D5BE00BF4C20002010B5054CCB
:104AB000204607F0BFFE20460021BDE8104007F069
:104AC000C7BE00BF5020002010B5064C204607F09E
:104AD000B1FE2046002107F0BBFE034B00221A6006
:104AE00010BD00BF54200020E81B0020014807F043
:104AF00099BE00BF4C20002008B5034807F092FE85
:104B0000024B00221A6008BD54200020E81B002040
:104B1000094B10B51A786AB100241C70FFF7E6FF44
:104B2000224623460548012106F0A8F8BDE81040BA
:104B3000FFF7AEBF10BD00BF4A1F00204B1F002073
:104B4000F8B52D4802F04AFF2C4C2D4D20702A4814
:104B500002F08EFF0646284802F0EAFF294B227831
:104B6000197830449142286007D01A70264B0122F0
:104B7000264827491A7007F011FF264B2A68196842
:104B8000254C914206D01A60204801232349237006
:104B900007F004FF2A68224B02B101221A70237821
:104BA0002BB9194B1B7813B91E4B1B7813B31E4B33
:104BB0001E4A1978166817461D4651B13B689B1B63
:104BC000B3F5FA6F03D21A48FDF7E0F8F6E70023D1
:104BD0002B7018490D4807F0E1FE0B4A00231370B3
:104BE000104A01211370237013480A46BDE8F840AB
:104BF00005F0FCBDF8BD00BF3B1C0020FC1B0020E5
:104C0000041C0020001C0020011C0020541F002058
:104C10009C650108F81B0020FD1B0020AF65010802
:104C2000201800202B1C0020181B0020A42000208E
:104C3000C4170020C26501084B1F002010B5064CA8
:104C40000649204607F08CFF20460549054ABDE885
:104C5000104008F007BB00BF2C1C00203055010895
:104C6000DDCA00080800002030B54A4885B0FEF7CC
:104C7000BCF8002846D1484B484918704548FDF714
:104C800078FF28B143484549FDF7B3FF002877D1A5
:104C90004048FEF705FA20B13E48FEF786F90028A5
:104CA00073D101238DF804303A48002301A98DF80F
:104CB00005308DF806308DF807308DF80830FEF796
:104CC000E3F818B13648374907F068FE314801214A
:104CD000FEF794F918B13248334907F05FFE3349C3
:104CE0002F4807F05BFE32492D4807F057FE09E0D8
:104CF000304CA368EBB92F482C4907F05CFF2E48D5
:104D0000FDF744F82348FEF770F8002833D106F089
:104D100031FF234807F0FEFC0028E9DD204807F0BA
:104D2000A5FCC1B2234807F0A8FF022008F034F91F
:104D3000EFE7204608F0C7F82146194807F024FE9F
:104D40001E4901A807F00CFF204601A908F028F829
:104D5000054601A807F0C2FE55B11449204607F0E8
:104D60002AFF0F48164907F019FE164805F098F873
:104D700006F000FFBFE7084B01221A7005B030BDF6
:104D80001149074807F00AFE82E71049044807F076
:104D900005FE86E7B61B00201D0000200D1C00202C
:104DA000541F0020136601085066010830550108A1
:104DB0008C6601082C1C0020C4170020B960010873
:104DC000CF6601084B1F00201267010846670108E3
:104DD00070B506F0CFFE194B1B7843BB70BD184C65
:104DE00018482678184D731C237007F03FFCA8550F
:104DF000022008F0D1F82378132B0CD906F0BAFE64
:104E0000002612491248267007F0C8FD2846314690
:104E1000142209F0A3FD23780D481D4415F8011C48
:104E2000102207F048FE0A480A4907F09CFD054891
:104E300007F070FC0028D2DC70BD00BF0C1C002005
:104E4000FF1B0020841F0020161C00208D67010816
:104E5000541F0020BF67010830B592488DB004F0A0
:104E6000D9FD914801F0B6FB904B06201A684FF42B
:104E7000FA6122F0E06242F080621A6006F06AFE97
:104E80008B484FF4E13107F0A3FC8A484FF41651E8
:104E9000FDF748F888484FF4165107F099FC874908
:104EA00006A807F05DFE06A909A807F07AFE844966
:104EB00009A807F02FFF01467D4807F065FD09A806
:104EC00007F00CFE06A807F009FE7E4906A807F0C9
:104ED00047FE06A909A807F064FE7B4909A807F068
:104EE00019FF0146724807F04FFD09A807F0F6FDCB
:104EF00006A807F0F3FD754906A807F031FE06A9DC
:104F000009A807F04EFE724909A807F003FF014601
:104F1000674807F039FD09A807F0E0FD06A807F08B
:104F2000DDFD6C4906A807F01BFE06A909A807F0DD
:104F300038FE8C2109A807F009FF01465C4807F0FC
:104F400023FD09A807F0CAFD06A807F0C7FD06F073
:104F500086FD6148FDF7FEFD524804F0FFFD06F0B6
:104F600009FE5448FCF7BAFF01215248FDF754F9F5
:104F70005A4D4FF4FA6008F00FF801240023584806
:104F80002B70FCF703FF2C7006F0F4FD5548F1215F
:104F9000FEF7D6F85348FEF7CCF918B95148214628
:104FA000FEF7DBF94F48FEF7EBF94F4C4F49207005
:104FB00003A807F0D5FD03A909A807F0F2FD102208
:104FC000217806A807F008FE06A909A807F095FEB3
:104FD0000146374807F0D8FC06A807F07FFD09A86E
:104FE00007F07CFD03A807F079FD3E48FEF7CBF9FA
:104FF00018B93C483421FEF7DAF93A48FEF7EAF9E5
:105000003B4C3C49207003A807F0AAFD03A909A85E
:1050100007F0C7FD0A22217806A807F0DDFD06A9E2
:1050200009A807F06AFE0146214807F0ADFC06A872
:1050300007F054FD09A807F051FD03A807F04EFD45
:1050400000211C48FDF7E8FB2648FEF743F82A49F3
:10505000174807F0A3FC29482221FEF7D3F90628B8
:10506000044651D125482321FEF7CCF911280546E5
:105070004AD12349684607F073FD694606A807F040
:1050800090FD2146102203A807F0B7FD03A906A84A
:1050900007F033FE1B4907F03DFE2946044609A8E8
:1050A0004EE000BF441F00203B1C002004000140D4
:1050B000541F0020B11B0020841F0020C16701087D
:1050C000C86701085C680108636801086F68010827
:1050D000766801087F680108BF1B00201C000020C3
:1050E000C4170020B31B0020B01B002086680108F5
:1050F000B21B00209568010830550108B51B00203F
:10510000EF6901085D56010811228A480621FEF761
:1051100064F98949684607F023FD694606A807F047
:1051200040FD1022062103A807F067FD03A906A889
:1051300007F0E3FD814907F0EDFD1121044609A8C0
:10514000102207F05AFD204609A907F0D6FD0146B6
:105150007B4807F019FC09A807F0C0FC03A807F07A
:10516000BDFC06A807F0BAFC684607F0B7FC71481A
:105170002421FEF745F90228044616D16D48252161
:10518000FEF73EF9054680B96E4906A807F0E8FC2F
:1051900006A909A807F005FD214609A807F0D6FDD4
:1051A000664907F0B7FD294614E000226148022154
:1051B000FEF72AF9644906A807F0D2FC06A909A857
:1051C00007F0EFFC022109A807F0C0FD5B4907F0DA
:1051D000A1FD002107F0BAFD0146594807F0D4FBB4
:1051E00009A807F07BFC06A807F078FCFFF7F0FDA4
:1051F0005648FEF769FCFFF737FD54485449FDF760
:10520000FDFDA0B953494E4807F0C8FB52494C4830
:1052100007F0C4FB514804F05BFF5148FCF7B6FDB2
:1052200040F6B83004F0EEFD06F0A4FCE5E74D4989
:10523000434807F0B3FB42484B4907F094FB002476
:10524000434B1022195D3E4807F035FC01343C48C1
:10525000464907F088FB092CF2D1394807F088FB52
:1052600006F088FCFFF7CCFBFFF712FC40493448FE
:1052700007F094FB3749324807F090FBFFF7D8FB63
:10528000FFF714FC3B492E4807F088FB31492C48B6
:1052900007F084FBFFF7E4FBFFF72EFC36492848B4
:1052A00007F07CFB2B49264807F078FB02222B48AD
:1052B000012105F025FA3149214807F06FFB254906
:1052C0001F4807F06BFB2E4802F088FB2D4B18702F
:1052D0002D4B18702A4802F0CBFB2C4B18602C4B3E
:1052E000186002F0BBFE02F00FFF1A49144807F0E5
:1052F00055FB2849124807F051FB1649104807F0A2
:105300004DFB002105222448FEF716FA2248002111
:105310000A22FEF7C7F92148FEF786FB38B90A21B1
:105320001E48FEF739FB1D480121FEF759FB0DB061
:1053300030BD00BFB51B0020056A01085D5601089D
:10534000541F0020506A0108666A0108B61B00203D
:105350000D1C002030550108A26801084B1F0020D9
:10536000C4170020D6680108EF68010868510108D9
:10537000F9680108366901085A690108926901084B
:105380003B1C0020001C0020FC1B0020F81B002000
:10539000041C0020A7690108C01B0020B41B0020CA
:1053A00070B58EB09E4807F0B5F900280ADD9C481C
:1053B00007F05CF9C1B29B4807F05FFC022007F0E0
:1053C000EBFDEFE7974CA368002B00F02681204609
:1053D00007F079FD2146924807F0D6FA92490BA8CA
:1053E00007F0BEFB20460BA907F007FD05460BA8FA
:1053F00007F074FB002D31D020460021042207F075
:1054000049FD204607F06BFD884C02462060C2F340
:1054100007218748D2B2FEF7D9F910B180488549F3
:1054200001E07F48844907F0B9FA8148FEF70AFA9B
:105430008249206008A807F093FB08A90BA807F091
:10544000B0FB21680BA807F08BFC0146744807F0FD
:105450009BFA0BA807F042FB08A87EE078490BA84E
:1054600007F07EFB20460BA907F09AFC05460BA827
:1054700007F034FB55B1734A6948137883F0010390
:1054800013700BB17049C2E07049C0E070490BA8BD
:1054900007F066FB20460BA907F082FC06460BA826
:1054A00007F01CFB5EB16B495D4807F077FA009589
:1054B00069490122694B6A48FCF7F8FFA9E069498C
:1054C0000BA807F04DFB20460BA907F096FC0546FC
:1054D0000BA807F003FB002D42D06349504807F0AA
:1054E0005DFA62490BA807F03BFB20460BA907F0C9
:1054F000A7FCA368421C214602A807F0A5FC0BA844
:1055000007F0ECFA02A807F0EAFCC1B25848FDF730
:1055100024FF5748FDF734FF564C5749207005A823
:1055200007F01EFB05A90BA807F03BFB1022217812
:1055300008A807F051FB08A90BA807F0DEFB0146FD
:10554000374807F021FA08A807F0C8FA0BA807F0B7
:10555000C5FA05A807F0C2FA02A807F0BFFA58E09A
:1055600046490BA807F0FCFA20460BA907F045FCBA
:1055700005460BA807F0B2FA1DB34149284807F0C9
:105580000DFA3A490BA807F0EBFA20460BA907F0F1
:1055900057FCA368421C214602A807F055FC0BA843
:1055A00007F09CFA02A807F09AFCC1B23048FDF758
:1055B000FEFE2F48FDF70EFF324C3349207005A840
:1055C000AEE732490BA807F0CBFA20460BA907F04B
:1055D000E7FB06460BA807F081FA26B120482946CA
:1055E000FDF71AF915E02A490BA807F0B9FA204689
:1055F0000BA907F0D5FB04460BA807F06FFA24B1FE
:1056000003F0E4F80648234901E00548224907F081
:10561000C5F90448214907F0CEFA0EB070BD00BFAD
:10562000541F00202C1C0020B16A01089C18002087
:10563000C01B0020B66A0108EE6A01083565010842
:10564000296B01080C1C0020326B01084E6B01080D
:105650006A6B0108726B0108461F00208E6B0108FF
:10566000B11B0020986B0108A96B0108CA6B0108E7
:10567000B31B0020B01B002086680108BD6B010829
:10568000CC6B0108B21B002095680108DE6B010895
:10569000E86B0108EA500108F96B01083055010870
:1056A0002DE9F04F87B0624807F034F800280ADD92
:1056B0005F4806F0DBFFC1B25E4807F0DEFA022069
:1056C00007F06AFCEFE75B4CA368002B00F0AC80AE
:1056D000204607F0F8FB2146554807F055F9564992
:1056E00003A807F03DFA204603A907F059FB054639
:1056F00003A807F0F3F9002D00F0948020464F4CEA
:105700004F4907F058FA23684E490133484823604F
:1057100007F044F94C49684607F022FA694603A8A5
:1057200007F03FFA216803A807F01AFB014640483A
:1057300007F02AF903A807F0D1F9684607F0CEF977
:105740003F493B4807F02AF9FFF7D6F9032005F057
:105750005FFE3E4A002313703D4A3E4F13703E4A9F
:105760003B6013703D4A1D4613703D4A1E46137040
:105770003C4AA34613703C4A13703C4A13703C4A9F
:1057800013703C4A13703C4A13703C4B0024EC509D
:105790003B4BDFF814A1EC503A4BDFF81091EC5082
:1057A000394BDFF80C81EC50384BF0B2EC50384BF1
:1057B0000121EC50374B45F80A40F454364B45F87C
:1057C0000940F454354B45F80840F454344B043543
:1057D000F454013602F0EAFA0C2ED6D1DBF8003090
:1057E00013F0010313D02F48FEF72CF83860142370
:1057F0004AF804303C2349F804304FF6FF7348F868
:1058000004300434302CF2D1FFF75EF90AE03B603B
:1058100000224AF8032049F8032048F80320043303
:10582000302BF5D106F0A6F907B0BDE8F08F00BF28
:10583000541F00202C1C0020226C0108081C002092
:1058400030550108246C0108676C01082A1C0020EF
:10585000E51B00209C1800203A1C0020031C00209F
:10586000CD190020021C0020FE1B0020FD1B002083
:105870002B1C0020291B002021180020541A002076
:10588000D41900206C1B00202C1B0020D81A0020EB
:1058900084170020191B0020C51700206D17002059
:1058A0000C000020C01B00205C180020D81700202E
:1058B000981A00202DE9F043804E87B016F800902A
:1058C0000446B9F1000F40F0F480DFF83C827C4FD1
:1058D00018F80030002B00F08C807A4D7A4A2B6843
:1058E00052F820209342C0F08480012102F05EFA39
:1058F0007649684608F8049007F032F9694603A82B
:1059000007F04FF9214603A807F016FA704907F08F
:1059100001FA01466F4807F037F803A807F0DEF8F0
:10592000684607F0DBF86B4806F0D8FE6A4B53F880
:10593000242052B301233B5568492B68684D41F838
:10594000243068461344674945F8243007F008F9C5
:10595000694603A807F025F9214603A807F0ECF9EA
:10596000614907F0D7F955F8241007F0F9F9014615
:10597000584807F009F803A807F0B0F8684607F0A0
:10598000ADF8544806F0AAFE33E0584B584D53F892
:1059900024205849013A43F824202B7868460133E3
:1059A0002B7007F0DDF8694603A807F0FAF82978AC
:1059B00003A807F0C1F90146464806F0E5FF03A831
:1059C00007F08CF8684607F089F8424806F086FE32
:1059D0002B780C2B08D13F48474906F0DFFF474A98
:1059E00001231370464A13700020012338553355A4
:1059F00060E0385D002855D0324B1A68384B53F8B8
:105A000024309A4256D3394B394D53F8242001277C
:105A1000013A43F824202B7836493B4468462B70E2
:105A2000375507F09DF8694603A807F0BAF82978BA
:105A300003A807F081F90146264806F0A5FF03A850
:105A400007F04CF8684607F049F8224806F046FE91
:105A50002B780C2B07D11F48274906F09FFF274BB7
:105A60001F70274B1F70012368461849335507F0F4
:105A700077F8694603A807F094F8214603A807F0D1
:105A80005BF9204907F046F90146124806F07CFF11
:105A900003A807F023F8684607F020F80D4806F041
:105AA0001DFE06E00C4B53F82400003018BF012007
:105AB00000E0002007B0BDE8F08300BF6D170020B4
:105AC000C5170020E81B00202C1B0020244E0108D5
:105AD000756C0108541F0020D8170020D81A002028
