:020000040800F2
:1000000000C000200D770008F1790008F57900089C
:10001000F9790008FD790008017A0008517A000892
:10002000517A0008517A0008517A0008517A000884
:10003000517A0008517A0008517A00081D7F0008A3
:10004000517A0008517A0008517A0008E9750008D1
:10005000517A0008517A0008517A0008517A000854
:10006000517A0008517A0008517A0008517A000844
:10007000517A0008517A0008517A0008517A000834
:10008000517A0008517A0008C97A0008517A0008AC
:10009000517A0008517A0008517A0008517A000814
:1000A000E5810008098200082D82000865820008A9
:1000B000B98200082983000899830008517A000852
:1000C000517A0008517A0008517A0008517A0008E4
:1000D000517A0008A9860008FD86000851870008AB
:1000E000517A000831760008517A0008C18400086E
:1000F000E58400080985000841850008197B00088F
:10010000517A0008517A000809840008517A0008E1
:10011000A5870008F9870008798400089D840008F5
:10012000517A0008517A0008517A0008517A000883
:1001300010B5054C237833B9044B13B10448AFF321
:1001400000800123237010BD18170020000000005C
:10015000D0B7000808B5064B1BB106480649AFF3F7
:1001600000800648036813B1054B03B1984708BDEA
:1001700000000000D0B700081C170020181700204E
:1001800000000000012902D11C30C0B270470629CE
:1001900084BF01F1FF31C9B211F0010F14BF1E205D
:1001A0001F207047444B2DE9F047B1FBF3F603FBEA
:1001B00016113C23B1FBF3F203FB12120546027049
:1001C0004FF46160B1FBF0F200FB1211B1FBF3F3ED
:1001D0006B704FF4FA63AA70B6B2EB80EC884FF400
:1001E000C873B4FBF3F803FB18481FFA88F8B8F19A
:1001F000000F16D06423B4FBF3F203FB12439BB24F
:10020000002B53D014F0030140F26D130CBF4FF4D8
:10021000B7721A4696420EDB002908BF4FF4B77337
:1002200004E0B6F5B77F06DB4FF4B773F61A013476
:10023000B6B2EC80D2E700236B716423B4FBF3F712
:1002400003FB1747BFB2B8F1000F06D03FB114F05F
:10025000030F14BF0020012002E0012000E0384617
:1002600095F80590C0B24946FFF78CFF864209F128
:10027000010A15D3B8F1000F06D03FB114F0030FF7
:1002800014BF0020012002E0012000E03846C0B287
:100290004946FFF777FF301A86B285F805A0D2E706
:1002A00001362E7185F805A0BDE8F087B6F5B67F5A
:1002B000C1DD40F26D13B9E780510100F8B5427815
:1002C00087783C2303FB072702780579467903FBEF
:1002D0000727013D013EEDB2F6B2044605714671B5
:1002E000013E731CE38834D04FF4C872B3FBF2F1C3
:1002F00002FB113292B262B16422B3FBF2F002FB54
:10030000103080B230B113F0030F14BF0020012071
:1003100000E00120C0B2F1B2FFF734FF284485B2FB
:10032000DEE74FF4C872B3FBF2F102FB113292B276
:10033000AAB16422B3FBF2F102FB113292B28AB18C
:1003400013F0030F40F26D1208BF4FF4B77215445B
:10035000ADB2013B9BB2B3F5FA6FE2D205E04FF4C8
:10036000B772F4E740F26D12F1E7024800FB057046
:10037000F8BD00BF8051010006F0E4B838B50D4665
:10038000044606F0FAF8290A49006039204601F0CF
:10039000FE0106F089F9204606F05FF9E9B2204631
:1003A00006F082F9204606F058F9204606F0E5F8F6
:1003B0002046A12106F078F9204606F04EF90021EA
:1003C000204606F098F90546204606F029F9204611
:1003D00006F0EEF8284638BD70B50D4616460446C0
:1003E00006F0CBF8290A49006039204601F0FE01E9
:1003F00006F05AF9204606F030F9E9B2204606F038
:1004000053F9204606F029F93146204606F04CF90A
:10041000204606F022F9204606F0CAF8BDE87040F2
:100420000A2008F0B1BF000008B5164A5178937849
:1004300043EA0123A3F52043142B1AD8DFE803F085
:100440000B200D0F19191919191919191919191939
:10045000191113151700002008BD022008BD072040
:1004600008BD032008BD042008BD052008BD0620E6
:1004700008BD00218022034809F00EFF082008BDB6
:10048000012008BD7C18002010B5074C60181146EB
:1004900005F060FF054B1B781C4414F8073C1B1A41
:1004A0005842584110BD00BF7C1800200C19002094
:1004B000084B18795B7943EA002045F2555398427E
:1004C00005D04CF20303C31A58425841704701202B
:1004D000704700BF7C180020044B9B79552B044BC0
:1004E0000CBF012200221A70704700BF7C18002048
:1004F0006019002010B5084CE379552B01D101207B
:1005000010BD064801F057FFE3798342F7D0D0F1E0
:10051000010038BF002010BD7C1800203C1A0020CC
:1005200013B50D4B1C7A552C01D1012012E00B485C
:10053000694601F09BFE00231A461DF803108C4209
:10054000F3D019B90132D2B2052AEED00133052B0E
:10055000F3D1002002B010BD7C1800203C1A00200E
:1005600070B505461E46FFF78FFF044640B91C4A8A
:10057000D3781A441379D62B02D01A481A492BE0A3
:100580002846FFF795FF044678B12846FFF7A4FFF9
:100590002846FFF7AFFF044670B96EB11349114802
:1005A00008F086FB0F48124916E012490D4808F082
:1005B0007FFB0C4810490FE02846FFF7B1FF0446C7
:1005C00060B99DF810300BB9012407E00B490548CC
:1005D00008F06EFB03480A4908F06AFB204670BD2C
:1005E0007C180020FC1A00208CCF0008B0CF000837
:1005F000E7CF000830CF00085ECF00081ED000080B
:1006000056D00008204B13B51B78002B39D000239F
:100610000093042117220123FFF7A2FF40B31B49D7
:100620001B4808F045FB1A4808F0D6F9194B1C7A0C
:10063000012C1AD1184A1948D97C147001F024FFF2
:1006400048B117480F21224606F066FA15482146A0
:1006500001F006FB0CE012481021022206F05CFAC1
:1006600011490B4808F024FB02E00D4806F0CEF8D3
:100670000E4B08481A78002102B0BDE8104009F07E
:100680000BBE02B010BD00BF0E0000208AD00008D3
:10069000FC1A00207C1800200C0000203A1A0020D0
:1006A000F51A0020391A0020AAD000080C190020E1
:1006B0001B4B13B51B78002B30D000230093042173
:1006C0000A220123FFF74CFFF8B11649164808F03B
:1006D000EFFA154808F080F9144B01241448154925
:1006E0001C7001F075FD38B113490F4808F0E0FAAD
:1006F00012480321022206E011490B4808F0D8FAFB
:100700000E480421224606F007FA0E4B0E481A78CE
:10071000002102B0BDE8104009F0BEBD02B010BD1E
:100720000E000020EED00008FC1A00200C00002073
:100730003C1A00208418002006D10008F51A002079
:1007400048D100080C1900207C18002037B5002380
:10075000009304210F22FFF703FF58B323492448D5
:1007600008F0A6FA234D224808F036F9224B01245E
:10077000224805F10A011C7001F09FFB68B31F4875
:1007800005F10A0101F0D9FB38B31D49184808F0FA
:100790008FFA1A48E97901F0D5FDA0B1194914483A
:1007A00008F086FA18480521224606F0B5F91348E4
:1007B00001F0A4FC154B0F481A78002103B0BDE8E6
:1007C000304009F069BD1249094808F071FA0E4835
:1007D0000621224606F0A0F9ECE70E49044808F08D
:1007E00067FA094806210122F4E700BF8AD1000810
:1007F000FC1A00207C1800200C0000203C1A00206D
:1008000030D20008A5D10008F51A00200C190020EC
:10081000EBD100085DD2000870B52E4B88B01B7874
:10082000002B54D02C4C0025E278009504210123A4
:10083000FFF796FE002841D02849294808F038FAE9
:10084000274808F0C9F8274B254827491D7008F0AC
:100850002FFAA67AE37A03EB0626042E06D8204860
:100860002249052608F024FAA572E672204902A85A
:1008700008F001FB02A905A808F041FB314605A8D4
:1008800008F024FC0146164808F008FA05A808F00C
:10089000B0FA02A808F0ADFA1648A17AE27A02F09E
:1008A000D7F818B90E48144908F002FA627B237B86
:1008B000009212480021012206F064FC104B064809
:1008C0001A78002108B0BDE8704009F0E5BC08B016
:1008D00070BD00BF0E0000207C18002098D20008D8
:1008E000FC1A00200C000020B4D20008EDD2000851
:1008F00013D30008461A002023D30008F51A00205D
:100900000C1900202DE9F041894B90B01B78002B89
:1009100000F00B81874C0025E2780095042101232B
:10092000FFF71EFE002800F0F7808349834808F097
:10093000BFF9824808F050F8814B627A1D70814BF4
:1009400081491A70A27A814B7C481A7008F0B0F97C
:10095000237BE67A0BAD7E4908A803EB062608F058
:100960008AFA08A9284608F0CAFA3146284608F04B
:10097000ADFB0146714808F091F9284608F039FAB4
:1009800008A808F036FA7348E17A227B01F0DAFF12
:10099000064600284CD17049684808F089F96F4B29
:1009A00001223046FF211A7008F0E3FCFF210746C0
:1009B000304608F0DEFC6A49064605A808F05BFAF6
:1009C00005A9284608F09BFA1022F9B208A808F0F9
:1009D000B9FA08A9284608F046FB0146574808F02E
:1009E0005DF908A808F005FA284608F002FA05A8FB
:1009F00008F0FFF95B4905A808F03DFA05A928466B
:100A000008F07DFA1022F1B208A808F09BFA08A9B4
:100A1000284608F028FB0146484808F03FF908A896
:100A200008F0E7F9284608F0E4F905A808F0E1F92C
:100A300028460021142209F02FFCE678093E142EE6
:100A400001D8002305E03D48474908F031F902226A
:100A500007E0B34204D2E218527BEA540133F8E7CC
:100A600003223E4BFF2100201A7008F082FCFF2178
:100A70008046002008F07DFC3949074602A808F0AE
:100A8000FAF902A908A808F03AFA10225FFA88F1E8
:100A900005A808F057FA05A908A808F0E4FA0146E5
:100AA000264808F0FBF805A808F0A3F908A808F004
:100AB000A0F902A808F09DF92A4902A808F0DBF97C
:100AC00002A908A808F01BFA1022F9B205A808F03C
:100AD00039FA05A908A808F0C6FA0146174808F02F
:100AE000DDF805A808F085F908A808F082F902A841
:100AF00008F07FF91D482946324604F069FA637A06
:100B0000227B0093A37AE17A01931948012306F02E
:100B1000A1F8184B01221A70174B06481A780021C9
:100B200010B0BDE8F04109F0B7BB10B0BDE8F081EE
:100B30000E0000207C18002064D30008FC1A00205E
:100B40000C0000201E1900208ED300081F19002061
:100B5000E4D30008461A0020F4D30008F61A002057
:100B600035D4000841D400084DD40008B31A002041
:100B7000F51A0020781A00200C190020F0B53C4B23
:100B800089B01B78002B70D03A4E00230093F27886
:100B900004210123FFF7E4FC374C002863D03749D8
:100BA000374808F085F8364807F016FF354B1A78B5
:100BB0000AB15B785BB93449314808F079F8002311
:100BC000009332482F490122314B00F0C7FE314BD0
:100BD000727A1B78274D9A4245D12F4BAA7A1B78FF
:100BE0009A4240D101232D492548237008F060F82E
:100BF0002B7BEF7A05AC2A4902A803EB072708F004
:100C00003AF902A9204608F07AF93946204608F058
:100C10005DFA01461A4808F041F8204608F0E9F864
:100C200002A808F0E6F8B32F07D815481D4908F0C8
:100C30003FF80023EB72B4232B731B48F17A327B0D
:100C400001F0BCFE18B90E48184908F031F800232D
:100C5000F218527BE2540133072BF9D11448214694
:100C600002F0AAFD01E00023237009B0F0BD00BF2F
:100C70000E0000207C1800200C0000209ED40008EC
:100C8000FC1A0020F21A0020CAD40008391A0020E9
:100C9000E3D400081E1900201F190020EDD400081D
:100CA0004BD500085ED50008461A0020B4D50008D0
:100CB000681A00202DE9F04F824B89B01B78002B79
:100CC00000F0FC80804D0024EA7800940421012388
:100CD000FFF746FC002800F0E8807C497C4807F0DC
:100CE000E7FF7C4F7A4807F077FE01233B7007F05F
:100CF00009F802F029FF032006F056FC764B774EE8
:100D00001C70774B77491C70774B34601C70774BA5
:100D10000C701C70764BA3461C70764BA2461C7060
:100D2000754B1C70754B1C70754B1C70754B1C7093
:100D3000754B1C60754B1C70754900244BF80140C5
:100D40007449754F4BF801407449DFF810824BF835
:100D500001407349DFF808924BF8014071494BF8A4
:100D600007404BF8014070495FFA8AF04BF80140A8
:100D70006E494BF808400AF801406D494BF80940AC
:100D80000AF801406B490BF1040B0AF801406A496B
:100D90000AF8014001210AF1010A05F067FABAF1E7
:100DA0000C0FC9D165494A4807F082FF4D4B4FF0FF
:100DB000010B1C70474BFF21204683F800B008F060
:100DC000D8FAFF218246204608F0D3FAC0B25A462C
:100DD000009021465A485FFA8AF306F0D3F9594940
:100DE0003B4807F065FF584895F8481095F84920AA
:100DF00001F06AFE10B13648544901E034485449C4
:100E000007F056FF504801F09BFE5249306002A89F
:100E100008F031F802A905A808F071F8316805A8B2
:100E200008F054F901462A4807F038FF05A807F0F2
:100E3000E0FF02A807F0DDFF06F064FF0022224B6E
:100E40001046114605EBD00494F84A400C41E407E3
:100E500014D59E7ADC7A04EB0624BC5093F82A6001
:100E600093F82B4004EB062448F8024093F84C60BA
:100E700093F84D4004EB062449F802400131C9B211
:100E8000082900F1010008BF00210C2803F102032A
:100E900002F10402D6D10E4807F09EFD2848012138
:100EA000094A05F0DFFF02F031FE2B4B06481A78A5
:100EB000002109B0BDE8F04F09F0EEB909B0BDE876
:100EC000F08F00BF0E0000207C180020F8D500082D
:100ED000FC1A00200C000020A21A0020A4190020F7
:100EE000691A0020781A0020B21A0020841A002003
:100EF000381A00207E1A00207A1A0020A31A002037
:100F0000B4170020F8170020801A00207F1A002054
:100F1000B81700203C18002064190020E8190020B0
:100F2000201900207417002034170020281A0020F0
:100F3000FC1800200D1900200F00002025D6000805
:100F4000F51A00207AD60008461A0020CAD60008F2
:100F50000ED7000807E800080C190020A819002087
:100F6000FC1700202DE9F041754B98B01B78002B41
:100F700000F0E380734D0024EA78009404210123FB
:100F8000FFF7EEFA002800F0C3806F496F4807F0C2
:100F90008FFE6E4807F020FD6D4B01266D4895F8D9
:100FA000221095F823201E7001F064FC20B96A49D4
:100FB000664807F07DFE00E0264600246749634846
:100FC0000FAF07F075FE2223384621461022049405
:100FD00005948DF8103009F05FF933238DF83C301B
:100FE0002346EA18927A04A95A540133082BF8D1FF
:100FF0000023EA18927CFA540133102BF9D155489A
:1010000001F096FB002800F08C805248394601F030
:10101000EDFB002800F0858051494C4807F048FE60
:101020004C4801F054FB4F4805F04EFAEC78474825
:10103000203CE4B24C4907F03BFE0A2C13D80023B5
:10104000A34206AF05D2EA1892F82420FA540133DD
:10105000F6E745493D4807F02BFE4448394603680A
:1010600022469B68984706F04DFE4FF47A7008F0D0
:101070008BF900243D4807F0CBFC00280DF14C080B
:101080000DDD3A4807F070FC08F8040001340B2C21
:10109000F0D12E48364907F00BFE012421E004B3BD
:1010A000344909A807F0E7FE09A90CA807F027FFB3
:1010B00021460CA808F00AF80146244807F0EEFD86
:1010C0000CA807F096FE09A807F093FE002718F871
:1010D00007101E481022013707F080FEA742F6D104
:1010E0000CE01A48244907F0E3FD34B117482349BE
:1010F00007F0DEFD0024042600E003266A7A2B7A3E
:101100008DE8040102941E483146012205F036FEA6
:101110001C4B0C481A78002118B0BDE8F04109F0CA
:10112000BBB81949094807F0C3FD0A4801F0ECFAB9
:101130000C4805F0C9F9022678E718B0BDE8F0813F
:101140000E0000207C18002055D70008FC1A002053
:101150000C000020461A00207FD70008BAD70008EC
:101160008DD80008F01A0020D5E400082C1B0020C0
:10117000F2D7000807D800081AD8000852D800088B
:10118000F51A00200C190020CAD8000810B5044632
:10119000FFF74AF9082834D8DFE800F01F242905B2
:1011A0000A0F142E19002046BDE81040FFF72ABA96
:1011B0002046BDE81040FFF77BBA2046BDE810404E
:1011C000FFF7C4BA2046BDE81040FFF725BB0D4825
:1011D0000D49BDE8104007F06BBD2046BDE810404A
:1011E000FFF790BB2046BDE81040FFF7C7BC204684
:1011F000BDE81040FFF7B6BE2046BDE81040FFF73F
:1012000059BD10BDFC1A002007D900082DE9F04790
:10121000564E00278146377006F074FD3C463D4629
:10122000534807F0F5FB002840F39C8006F06AFD68
:1012300096F800A04E480AF10103337007F094FBC2
:10124000DFF8488108F80A00032008F09DF8337899
:101250001022434413F8011C464807F0B6FD4548E8
:10126000454907F00AFD96F90030002B0FDA06F029
:1012700049FD3E4B4FF0000A40493E4883F800A02C
:1012800007F016FD40465146802209F005F83278F5
:1012900008EB020313F8013CFE2B04D1571EFFB2EA
:1012A000002C34D104E094BB0D2B01D12FE001249C
:1012B000062DB5D132492F4807F0FAFC2D4807F02A
:1012C0008BFB06F01FFD2B482E4907F0F1FC294847
:1012D00007F082FB37B92C4B1B7893B14846FFF7D8
:1012E00055FF0EE031780023C91BDAB2F8188A42A4
:1012F000C0B203F10103EEDA18F8000008F80200AA
:10130000F3E700233370BDE8F04706F0FBBC052D82
:10131000CDD8DFE805F003070A0D10130D2B12D00E
:1013200000247DE70A2B0BD110E00D2B08D110E033
:101330000A2B05D110E00D2B02D110E00A2BB9D0F9
:10134000002425466CE701252C4669E70124022587
:1013500066E70124032563E70124042560E70124EF
:1013600005255DE700233370BDE8F0870C190020E8
:10137000141B0020FC1A00200FFC000825D90008CF
:1013800047D900086BD900080D0000207C18002008
:1013900008B51D20002107F059FF1D20012107F08D
:1013A000C7FF1020002107F051FF1120002107F096
:1013B0004DFF1C20002107F049FF1120002107F0FC
:1013C000B7FF1C20012107F0B3FFBDE80840102043
:1013D000002107F0ADBF0000014807F077BB00BF58
:1013E000141B002008B561B100211C2007F0A0FFEC
:1013F000962007F0C9FFBDE808401C20012107F036
:1014000097BF08BD08B500211D2007F091FF0C48CB
:1014100007F05FFB0220002107F018FF03200021E6
:1014200007F014FF0220002107F082FF03200021B3
:1014300007F07EFFBDE808401C20002107F078BFC0
:10144000141B002010B50B78452B12D14B78522B72
:101450000FD18B78CC78303B03EB8303303C04EB2B
:101460004304E4B221460A22034807F0B7FC2046B1
:1014700010BD0A2010BD00BFFC1A00200B784F2BB6
:1014800007D148784B2804D113704B780120537052
:101490007047002070470000F0B593B00F466846D3
:1014A000684916461C4607F0E6FC664903A807F0A3
:1014B000E2FC06A8634907F0DEFC0025B5420DD228
:1014C000795D0A220FA807F03DFD0FA9684607F0D5
:1014D00085FD0FA807F08DFC0135EFE75A490CA8F0
:1014E00007F0C9FC0CA9684607F055FE0022034628
:1014F00069460FA807F052FE0FA903A807F009FDDF
:101500000FA807F076FC0CA807F073FC4E490CA856
:1015100007F0B1FC0CA9684607F03DFE029B021DD6
:1015200069460FA807F03AFE0FA906A807F0F1FCDC
:101530000FA807F05EFC0CA807F05BFC059B022BD4
:1015400005D103A807F075FE3038C5B210E0042BB2
:1015500030D103A807F06DFE642290FBF2F302FB8A
:101560001302303B303A03EB830302EB4305EDB249
:10157000364909A807F07FFC09A90FA807F0BFFCAE
:10158000102229460CA807F0DDFC0CA90FA807F0D3
:101590006AFD2F4907F074FD01462E4807F07EFBD7
:1015A0000CA807F026FC0FA807F023FC09A807F0F9
:1015B00020FC2570089B022B05D106A807F039FEF8
:1015C0003038C5B210E0042B30D106A807F031FE48
:1015D000642290FBF2F302FB1302303B303A03EB40
:1015E000830302EB4305EDB21B4909A807F043FC56
:1015F00009A90FA807F083FC102229460CA807F0C0
:10160000A1FC0CA90FA807F02EFD114907F038FD29
:101610000146104807F042FB0CA807F0EAFB0FA8B0
:1016200007F0E7FB09A807F0E4FB657006A807F0E0
:10163000E0FB03A807F0DDFB684607F0DAFB13B018
:10164000F0BD00BF35FC000896D900089BD9000802
:10165000A2D90008FC1A0020A8D90008F8B54C78D7
:10166000432C08D18C78532C05D1CC78B4F151059A
:101670006C426C4100E000240026F5B24F5D01365B
:101680003A2FFAD10135EDB200279542FEB207F1AB
:10169000010706D811F805C0013501F806C0EDB202
:1016A000F3E73CB92046C2B2B2420BD20A5C1A54EC
:1016B0000130F8E7069A022412681470721ED2B242
:1016C000FFF7EAFE0120F8BD37B5154809B91549FD
:1016D00000E0154907F0D1FA642007F055FE002418
:1016E0000F4807F095F90028E5B208DD062C14D064
:1016F0000B4807F039F90DF804000134F0E755B153
:101700009DF802304F2B08D19DF80300B0F14B0338
:101710005842584102E0284600E0002003B030BDA6
:10172000141B0020B0D90008B4D9000810B501215D
:1017300004461D2007F0FCFD07484FF4165107F042
:10174000C5F920460121FFF74DFE20460121BDE8E5
:101750001040FFF7B9BF00BF141B00202DE9F04176
:101760009EB005AD0C4607460021904628466422EF
:10177000039308F091FD21462C4807F07EFA64207F
:1017800007F002FE0024294807F042F90028E6B2DB
:1017900007DD642C45D0254807F0E6F828550134CC
:1017A000F1E726B92249234807F082FA39E09DF88B
:1017B00014300D2B35D19DF815300A2B31D11EABCD
:1017C000334413F8653C0A2B2BD1023E1EAB334445
:1017D00013F8643C0D2B24D10021CCB2A31CDBB246
:1017E000B34201F1010107DA1EAA134413F8643C65
:1017F000144404F8643CF0E738462946FFF722FE1B
:101800000A280CD103AB00933846294622464346AA
:10181000FFF724FF00280CBF0320022002E0012074
:1018200000E003201EB0BDE8F08100BF141B0020C3
:10183000BAD90008FC1A00202DE9F041B2B00646E2
:101840000D4690460021642268461F4608F024FD9C
:1018500019A80021642208F01FFD0024E3B2E85C0F
:10186000013420B132AA134403F8640CF6E70146B0
:10187000CAB25D1818F80240EDB232AA01312A440A
:1018800014B102F8644CF3E70D2302F8643C6B1CBE
:1018900032A8DBB203442F480A2203F8642C036801
:1018A00019A95B6898472C48AA1C036819A99B686A
:1018B000D2B29847642007F067FD274807F0A8F8E0
:1018C0000028E5B208DD642C3FD0234807F04CF82F
:1018D0000DF804000134F0E7002D36D09DF80030FB
:1018E0000D2B32D19DF801300A2B2ED132AB2B4477
:1018F00013F8C93C0A2B28D1023D32AB2B4413F814
:10190000C83C0D2B21D100218B1CDBB2AB4201F175
:10191000010209DA32A8034413F8C83CC9B20144F1
:1019200001F8C83C1146EFE730466946FFF78AFDEB
:101930000A2808D1304669463A46FFF79FFD80F0F5
:101940000100C0B202E0012000E0032032B0BDE897
:10195000F08100BFFC1A0020141B0020F7B51E46C2
:10196000044617460D4600218DF80710FFF7ACFE20
:1019700006F0C8F9204631462FB12A460DF107037B
:10198000FFF7ECFE03E0089A2B46FFF755FF03280C
:101990002AD8DFE800F011040207002311E01648FE
:1019A000164901E01448164907F082F92046012142
:1019B000FFF78AFE00201CE012490F4807F078F973
:1019C00012E09DF807205E1CDBB29A420A4809D952
:1019D000E95C102207F0F9F907480B4907F04DF9C7
:1019E0003346EEE707F04EF920460121FFF76CFE83
:1019F000012003B0F0BD00BFFC1A0020CED90008C2
:101A0000DFD90008E8D900080FFC00082DE9F043F1
:101A10008BB004AF804600210922384602AE002474
:101A200008F03AFC00944046314601222C4BFFF767
:101A300095FF054610B92B482B494BE02346F25C35
:101A400007AC092A01D8303204E0A2F10A010529C5
:101A500098BF3732E2540133082BF0D14FF0000920
:101A600022488DF8249000F0FFFD0246C0B12049C5
:101A70001C4807F01DF91D48394600F063FD50B1C0
:101A80004B46E15CFA5C914217D10133082BF8D147
:101A9000144818491EE01849124807F009F907E0F0
:101AA000009440463146154BFFF758FF054698B164
:101AB00021460E4800F096FD0AE01149094807F05A
:101AC000F7F800974046314600220C4BFFF746FFDF
:101AD000054601E007F0ECF828460BB0BDE8F083BE
:101AE000FED90008FC1A002009DA00083A1A002082
:101AF00029DA0008B1DA000847DA00086BDA0008D2
:101B000074DA00082DE9F04F89B002AF07F10C0636
:101B10008346894690461C46304600210A2208F03A
:101B2000BBFB002C50D1C7F804D05846CDF800803C
:101B3000314601224B46FFF711FF824608B121468C
:101B400006E04049404807F0B3F83F483F496FE09E
:101B5000CCB218F804300131002BF9D1E11D01F4A9
:101B6000FC71ADEB010D02A9D8B2A04203D2F05C2A
:101B7000C8540133F8E70B46581AC0B2A0420DD240
:101B800013F8010B092801D8303004E0A0F10A0550
:101B9000052DF1D8373003F8010CEDE70025EBB245
:101BA000A34243D24B5D013508EB050010F8010C50
:101BB0009842F4D02649244807F07AF8224825496B
:101BC00007F076F87B689D466C460023DAB219F878
:101BD000021001330A29F9D1931D03F4FC73ADEB14
:101BE000030DA2F1020E02AB0020C1B2551EA942A4
:101BF00000F1010003DA19F801505D54F5E7002205
:101C00003D215A55584603F80E10CDF80080314654
:101C1000FFF7A4FE054628B90B480F4907F048F81E
:101C2000AA4601E04FF0010AA54605E006480B4927
:101C300007F03EF87B689D4650461C37BD46BDE820
:101C4000F08F00BFDBDA0008FC1A002001DB00087F
:101C500025DB00087CDB0008BEDB0008F3DB0008A6
:101C60007FB50F2204460D466846002108F014FB9C
:101C70006848694907F01CF80A2606F043F8002D69
:101C800078D12046FFF7C2FE64498DF80000644A0F
:101C90002B462046FFF736FF62498DF80100624A65
:101CA0002B462046FFF72EFF60498DF80200604A60
:101CB0002B462046FFF726FF5E498DF803005E4A5B
:101CC0002B462046FFF71EFF5C498DF804005C4A56
:101CD0002B462046FFF716FF8DF80500594800F007
:101CE00013FCF1285849204608D1584A2B46FFF7E3
:101CF00009FF57498DF80600464807E04A4A2B4637
:101D0000FFF700FF53498DF80600424806F0D0FF68
:101D10005149524A00232046FFF7F4FE50498DF8FE
:101D200007004E4A00232046FFF7ECFE4D498DF890
:101D30000800464A00232046FFF7E4FE4A498DF892
:101D400009004A4A00232046FFF7DCFE48498DF887
:101D50000A00484A00232046FFF7D4FE324A8DF895
:101D60000B00454920460023FFF7CCFE0D228DF8DD
:101D70000C000EE0334800F0C7FBF1280CBF334ADB
:101D8000294A204630490023FFF7BCFE01228DF886
:101D9000000000231DF80310A9B938491D4806F0BA
:101DA00087FF2046FFF7C2FC2046FFF72BFB05F01C
:101DB000A9FF2046FFF7BAFC4FF4FA6007F0E4FAF7
:101DC00005F0A0FF05E00133D9B29142E2D304B09F
:101DD00070BD2B4806F01CFE002803DD284806F0E5
:101DE000C3FDF6E7013E16F0FF067FF446AF254936
:101DF000084806F05DFF2449064806F059FF40F602
:101E0000B83007F0C1FA05F07DFF04B0BDE87040BE
:101E100005F0ACBFFC1A00201BDC00084ADC0008FF
:101E200056DC00085FDC00085CDC000869DC0008A8
:101E300075DC00087EDC00088ADC000893DC000802
:101E40009EDC00083A1A0020A1DC0008ABDC000888
:101E5000AEDC0008BBDC0008C8DC0008D2DC0008EF
:101E6000D5DC0008DFDC0008E9DC0008F2DC000853
:101E7000F5DC0008FFDC000802DD00080CDD0008CE
:101E8000141B002029DD000855DD00081520012164
:101E900007F04EBA1520002107F04ABA10B500210C
:101EA0000446152007F0D2F91520012107F040FA69
:101EB0002046BDE81040FEF75FBA7FB505460E46E6
:101EC000FFF7E8FF0D2433192146284613F80D2C9F
:101ED0000134FEF781FA162CF5D13046092104F0C1
:101EE00039FA0646214628463246FEF775FA0D2491
:101EF00021462846FEF742FA01AB23440134162C52
:101F000003F80D0CF4D101A8092104F023FAB04222
:101F100003D0FFF7BBFF00200DE028460B21FEF7A2
:101F20002DFA552804D028460B215522FEF754FAE5
:101F3000FFF7ACFF012004B070BD7FB505460E462B
:101F4000FFF7A8FF172433192146284613F8172C4A
:101F50000134FEF741FA202CF5D13046092104F076
:101F6000F9F90646214628463246FEF735FA172487
:101F700021462846FEF702FA01AB23440134202C07
:101F800003F8170CF4D101A8092104F0E3F9B042D9
:101F900003D0FFF77BFF00200DE028460C21FEF761
:101FA000EDF9552804D028460C215522FEF714FAE5
:101FB000FFF76CFF012004B070BDF0B585B001AD36
:101FC00006460F4628460021092208F065F90D242F
:101FD00021463046FEF7D2F92B190134162C03F8AE
:101FE0000D0CF5D121463046FEF7C8F9092104460B
:101FF000284604F0AFF9844206D10023EA5CFA5483
:102000000133092BFAD101E0002000E0012005B0E6
:10201000F0BDF0B585B001AD06460F46284600215B
:10202000092208F039F9172421463046FEF7A6F9AF
:102030002B190134202C03F8170CF5D1214630461A
:10204000FEF79CF909210446284604F083F98442EE
:1020500006D10023EA5CFA540133092BFAD101E0DE
:10206000002000E0012005B0F0BD37B50C461E2170
:102070000546FEF783F91F218DF804002846FEF778
:102080007DF902218DF8050001A804F063F92070A4
:1020900003B030BD10B50B210446FEF76FF988B1CF
:1020A000FFF7F8FE204600220B21FEF795F9FFF717
:1020B000EDFE20460B21FEF761F9D0F1010038BF9B
:1020C000002010BD012010BD10B50C210446FEF704
:1020D00055F988B1FFF7DEFE204600220C21FEF7FD
:1020E0007BF9FFF7D3FE20460C21FEF747F9D0F12C
:1020F000010038BF002010BD012010BD10B5212106
:102100000446FEF73BF9552811D0FFF7C3FE2046E1
:1021100055222121FEF760F9FFF7B8FE2046212164
:10212000FEF72CF9B0F155035842584110BD01207B
:1021300010BD08B52121FEF721F9B0F15503584231
:10214000584108BD70B504460D46FFF736FF20B173
:1021500020462946FFF75DFF48BB20462946FFF78A
:102160002CFF48B11549164806F0A2FD2046294625
:10217000BDE87040FFF7E1BE20462946FFF749FF62
:1021800006460F4846B10F4906F092FD2046294603
:10219000BDE87040FFF791BE0B4906F089FD20466F
:1021A000FFF778FF2046FFF78FFF304670BD0749E5
:1021B000034806F07DFD012070BD00BF7EDD0008F4
:1021C000FC1A0020B5DD0008ECDD000800DE000888
:1021D000F8B504460E462F2573192046294613F8F4
:1021E0002F7CFEF7CBF8874203D10135342DF3D194
:1021F00036E0FFF74FFE2F2573192946204613F8C6
:102200002F2C0135FEF7E8F8342DF5D105213046A5
:1022100004F0A0F80746294620463A46FEF7DCF8C7
:102220002F2520462946FEF7A9F8731913F82F3CED
:10223000834217D10135342DF3D120462946FEF7CC
:102240009DF8B8420ED120463521FEF797F8552863
:1022500004D0204635215522FEF7BEF8FFF716FEC2
:102260000120F8BDFFF712FE0020F8BDF7B50546C6
:102270000E462F2421462846FEF780F800AB234463
:102280000134342C03F82F0CF4D10521684604F0F6
:1022900061F8214607462846FEF770F8874207D1C5
:1022A00000231DF80320F2540133052BF9D101E07E
:1022B000002000E0012003B0F0BD73B505462F24D7
:1022C00021462846FEF75AF800AB23440134342C4B
:1022D00003F82F0CF4D16846052104F03BF82146A1
:1022E00006462846FEF74AF8331A5842584102B0CB
:1022F00070BD38B50546FFF7CDFD2F242846214691
:10230000FEF73CF868B1284621460022FEF764F843
:1023100028462146FEF732F818B1FFF7B7FD002036
:1023200038BD0134342CE9D128463521FEF726F892
:1023300020B1284635210022FEF74EF8FFF7A6FD12
:10234000012038BD37B50D468DF8071036210446FB
:10235000FEF714F885422BD002ADFFF79BFD15F870
:10236000012D20463621FEF737F80121284603F0DB
:10237000F1FF372102462046FEF72EF8204636218F
:10238000FDF7FCFF9DF8073083420DD12046382130
:10239000FDF7F4FF552804D0204638215522FEF7DA
:1023A0001BF8FFF773FD03E0FFF770FD002000E06E
:1023B000012003B030BD3621FDF7E0BF37B536212F
:1023C0000546FDF7DBFF02AB03F8010D18460121BE
:1023D00003F0C0FF372104462846FDF7CFFF231A3C
:1023E0005842584103B030BD10B536210446FDF7C0
:1023F000C5FF88B1FFF74EFD204636210022FDF7CC
:10240000EBFF20463621FDF7B9FF18B1FFF73EFD7F
:10241000002010BDFFF73AFD012010BD10B5482186
:102420000446FDF7ABFF552811D0FFF733FD2046DA
:1024300055224821FDF7D0FFFFF728FD204648210F
:10244000FDF79CFFB0F155035842584110BD0120E3
:1024500010BD10B54D210446FDF790FF552810D052
:10246000FFF718FD204655224D21FDF7B5FFFFF778
:102470000DFD20460021FDF781FF003018BF01202F
:1024800010BD012010BD000037B58DF807101031C8
:10249000C9B20129044629D84C21FDF76FFF9DF8E8
:1024A0000730834228D002ADFFF7F4FC15F8012D68
:1024B00020464C21FDF790FF0121284603F04AFFFA
:1024C0004E2102462046FDF787FF20464C21FDF7AE
:1024D00055FF9DF80730834205D12046FFF7B9FF2D
:1024E000FFF7D4FC08E0FFF7D1FC03E004480549FE
:1024F00006F0DEFB002000E0012003B030BD00BF8D
:10250000FC1A002030DE000837B54C210446FDF7E8
:1025100035FF02AB03F8010D1846012103F01AFF45
:102520004E2105462046FDF729FF854202D19DF840
:10253000070004E02046F021FFF7A6FFF02003B0DB
:1025400030BD0000F7B505460E464F24214628460B
:10255000FDF714FF00AB23440134572C03F84F0C54
:10256000F4D10821684603F0F5FE214607462846C7
:10257000FDF704FF87420CD100231DF80320F2541D
:102580000133082BF9D10448044906F091FB0120DE
:1025900000E0002003B0F0BDFC1A002066DE000859
:1025A00010B558210446FDF7E9FE552808D0FFF77D
:1025B00071FC204658215522FDF70EFFFFF766FCFF
:1025C00010BD10B558210446FDF7D8FE40B1FFF705
:1025D00061FC204658210022FDF7FEFEFFF756FC65
:1025E00010BD0000F7B50F460546FFF753FC38460F
:1025F000082103F0AFFE4F2406463B19214628462A
:1026000013F84F2C0134FDF7E7FE572CF5D1214686
:1026100028463246FDF7E0FE4F2421462846FDF7C6
:10262000ADFE00AB23440134572C03F84F0CF4D11A
:102630006846082103F08EFE864206D02846FFF742
:10264000C0FFFFF723FC002007E00549054806F01E
:102650002FFB2846FFF7A4FF012003B0F0BD00BF09
:102660007BDE0008FC1A002008B55821FDF786FE25
:10267000B0F155035842584108BD70B504460E46A6
:102680001546FFF707FC204632462221FDF7A4FE3F
:10269000204623212A46FDF79FFEFFF7F7FB70BD7A
:1026A000FDF76CBEFDF76ABE70B504460E461546D2
:1026B000FFF7F0FB204632462421FDF78DFE204631
:1026C00025212A46FDF788FEFFF7E0FB70BD10B517
:1026D0000446FFF7DFFB204655225921FDF77CFE1B
:1026E000FFF7D4FB20465921FDF748FEB0F1550312
:1026F0005842584110BD08B55921FDF73FFEB0F1D1
:1027000055035842584108BD10B50446FFF7C2FBB7
:10271000204600225921FDF75FFEFFF7B7FB204658
:102720005921FDF72BFED0F1010038BF002010BD6C
:1027300073B5002305460E4600930193FFF7AAFBED
:102740005A2433192146284613F85A2C0134FDF730
:1027500043FE622CF5D13046082103F0FBFD06460E
:10276000214628463246FDF737FE5A2421462846A0
:10277000FDF704FE00AB23440134622C03F85A0C2D
:10278000F4D10821684603F0E5FD0446FFF77EFB1F
:10279000B442064804D1064906F08AFA012003E053
:1027A000044906F085FA002002B070BDFC1A002032
:1027B00090DE0008BEDE000838B509490546094824
:1027C00006F076FA5A2421462846FDF7D7FD064B37
:1027D0001A190134622C02F85A0CF4D1184638BD8B
:1027E000EFDE0008FC1A00203D1A002073B500231C
:1027F00005460E4600930193FFF74CFB6324331903
:102800002146284613F8632C0134FDF7E5FD6B2CB7
:10281000F5D13046082103F09DFD06467321284678
:102820003246FDF7D9FD632421462846FDF7A6FD73
:1028300000AB234401346B2C03F8630CF4D1082162
:10284000684603F087FD0446FFF720FBB4420648C4
:1028500004D1064906F02CFA012003E0044906F0F1
:1028600027FA002002B070BDFC1A002027DF000804
:1028700055DF000870B50E46742104461546FDF775
:102880007DFDB04205D120467521FDF777FDA842B8
:1028900019D0FFF7FFFA204674213246FDF79CFD60
:1028A000204675212A46FDF797FDFFF7EFFA2046EF
:1028B0007421FDF763FDB0420BD120467521FDF771
:1028C0005DFDA84205D10649064806F0F1F9012050
:1028D00070BD0549034806F0EBF9002070BD00BF4C
:1028E000CDDF0008FC1A0020EFDF000810B5044619
:1028F000FFF7D0FA204674210022FDF76DFD204637
:1029000075210022FDF768FDFFF7C0FA204674210B
:10291000FDF734FD20B920467521FDF72FFD28B1C4
:102920000549064806F0C4F9002010BD04490348D3
:1029300006F0BEF9012010BD11E00008FC1A0020CD
:1029400034E0000870B50E46762104461546FDF7C2
:1029500015FDB04205D120467721FDF70FFDA842B5
:1029600019D0FFF797FA204676213246FDF734FD5D
:10297000204677212A46FDF72FFDFFF787FA2046EC
:102980007621FDF7FBFCB0420BD120467721FDF705
:10299000F5FCA84205D10649064806F089F9012050
:1029A00070BD0549034806F083F9002070BD00BFE3
:1029B00057E00008FC1A00207FE0000870B50E46C2
:1029C0007A2104461546FDF7D9FCB04205D12046D0
:1029D0007B21FDF7D3FCA84219D0FFF75BFA204614
:1029E0007A213246FDF7F8FC20467B212A46FDF786
:1029F000F3FCFFF74BFA20467A21FDF7BFFCB0420B
:102A00000BD120467B21FDF7B9FCA84205D1064930
:102A1000064806F04DF9012070BD0549034806F04F
:102A200047F9002070BD00BF01E10008FC1A00203A
:102A300033E1000838B57A210546FDF79FFC7B217C
:102A400004462846FDF79AFC00EB042038BD000040
:102A500070B50E46782104461546FDF78FFCB0424E
:102A600005D120467921FDF789FCA84219D0FFF74E
:102A700011FA204678213246FDF7AEFC2046792136
:102A80002A46FDF7A9FCFFF701FA20467821FDF759
:102A900075FCB0420BD120467921FDF76FFCA842AE
:102AA00005D10649064806F003F9012070BD054925
:102AB000034806F0FDF8002070BD00BFC8E1000823
:102AC000FC1A0020F4E1000870B50E467C21044693
:102AD0001546FDF753FCB04205D120467D21FDF798
:102AE0004DFCA84219D0FFF7D5F920467C2132468B
:102AF000FDF772FC20467D212A46FDF76DFCFFF7AD
:102B0000C5F920467C21FDF739FCB0420BD12046A7
:102B10007D21FDF733FCA84205D10649064806F0A1
:102B2000C7F8012070BD0549034806F0C1F8002030
:102B300070BD00BF7AE20008FC1A0020AAE200087B
:102B400038B57C210546FDF719FC7D210446284651
:102B5000FDF714FC00EB042038BD00007FB53249BE
:102B60000546324806F0A4F8304805F035FF05F078
:102B7000C9F841F2883006F007FC05F0C3F82B488D
:102B800005F046FF00280ADD284805F0EDFEC1B239
:102B9000274806F028FA022006F0F6FBEFE7244C5F
:102BA000A668002E34D0204606F037FB21461F4889
:102BB00006F074F81F4901A806F05DF901A9204646
:102BC00006F0A4FA064601A806F013F91748EEB17C
:102BD000194906F06DF81949204606F0A2F9284671
:102BE0002121FDF7CBFB40B1FFF754F92846212105
:102BF0000022FDF7F1FBFFF749F928462121FDF7F7
:102C0000BDFBD0F1010038BF00200AE00C4901E013
:102C100006480C4906F04CF82046084906F081F9B0
:102C2000304604B070BD00BF3CE30008FC1A002031
:102C3000A41A00208DE3000891E3000835FC000889
:102C4000C7E30008F2E30008002202604260704718
:102C5000006820B103688B4201D08068F9E77047B3
:102C600070B504460C2016460D4607F003F8002206
:102C70008260226880E860000AB9206001E0626832
:102C80009060606070BD10B51446FFF7E1FF08B1B9
:102C90004460012010BD08B5FFF7DAFF00B14068BD
:102CA00008BD01F51C414131FFF7DABF01F51C41B8
:102CB0004131FFF7E8BF01F51C414131FFF7EBBFA0
:102CC000002A01F1010114BF4FF47F420022FFF7F7
:102CD000C7BF002A01F51C5101F1110114BF4FF4C7
:102CE0007F420022FFF7BCBF01F5EA413131FFF717
:102CF000B7BF002A01F1010114BF4FF47F42002247
:102D0000FFF7C1BF002A01F51C5101F1110114BFE9
:102D10004FF47F420022FFF7B6BF01F5EA4131319F
:102D2000FFF7B1BF08B50131FFF7B5FFB0F57F433D
:102D30005842584108BD01F51C5108B51131FFF743
:102D4000AAFFB0F57F435842584108BD01F5EA415A
:102D50003131FFF7A0BF000070B504460D460948A9
:102D60000949164605F0A4FFA06806F08BFF022073
:102D7000207306F07FFF803D0323A060057046703E
:102D8000637370BDFC1A002015E40008F8B5531EEB
:102D90007C2B04460F46164602D903210A4617E04B
:102DA00001F51C414131FFF753FF18B920460321BB
:102DB00002220DE0A06806F065FF701C4000C0B262
:102DC000207306F057FFA06030B92046032104228B
:102DD000BDE8F840FFF7C0BF03230370237B002545
:102DE000023B4370E9192046FFF765FFA3680135F0
:102DF000020A03F81520A368B54203EB4503587097
:102E0000F0D103236373F8BD70B504460E46154632
:102E1000FFF74CFF18B920460621022208E02046A1
:102E20003146FFF748FFA84206D02046062104227B
:102E3000BDE87040FFF790BF0223637370BD2DE9BA
:102E4000F8431F4616467A1E7A2A044688469DF89D
:102E5000203002D8B3EB470F03D0204610210322C5
:102E60001CE006F51C45413505EB070920462946BF
:102E7000FFF7EEFE18B92046102102220EE00135C0
:102E80004D45F3D1A06806F0FDFE0520207306F045
:102E9000F1FEA06030B9204610210422BDE8F843BD
:102EA000FFF75ABF10230370330A437000230771E2
:102EB0008670C37008F106053744BE4205F102056D
:102EC0000BD015F8022C15F8013C3146204643EA98
:102ED0000222FFF7EBFE0136EFE703236373BDE841
:102EE000F8832DE9F843531EB3F5FA6F04460F46F5
:102EF000154602D30121032219E00131FFF7A8FE94
:102F000018B920460121022211E0A06806F0BAFE9D
:102F1000C5F3C7036A070CBF023303332373207B57
:102F200006F0A8FEA06030B9204601210422BDE8C9
:102F3000F843FFF711BF01230370237B05EB07085C
:102F4000023B43703E46002546451CD03146204694
:102F5000FFF7E8FEC7F10109B1444FEAD9090121A1
:102F600009F10203A268A94010B1D05C014302E05C
:102F7000D05C20EA01010135EDB2082DD15408BF23
:102F800000250136E0E703236373BDE8F883000002
:102F90002DE9F843531EB3F5FA6F04460F46154664
:102FA00002D3022103221FE001F51C511131FFF76A
:102FB0004FFE18B920460121022215E0224923487C
:102FC00005F076FEA06806F05DFEC5F3C7036A074C
:102FD0000CBF023303332373207B06F04BFEA0604B
:102FE00030B9204602210422BDE8F843FFF7B4BE01
:102FF00002230370237B05EB0708023B43703E4628
:10300000002546451CD031462046FFF794FEC7F107
:103010000109B1444FEAD909012109F10203A2686B
:10302000A94010B1D05C014302E0D05C20EA01016C
:103030000135EDB2082DD15408BF00250136E0E777
:1030400003236373BDE8F8833AE40008FC1A002008
:10305000F8B5531E7C2B04460F46164602D90421B0
:10306000032217E001F5EA413131FFF7F1FD18B90C
:103070002046012102220DE0A06806F003FE701C2C
:103080004000C0B2207306F0F5FDA06030B9042105
:1030900020460A46BDE8F840FFF75EBE04230370F1
:1030A000237B0025023B4370E9192046FFF74EFEC3
:1030B000A3680135020A03F81520A368B54203EBA3
:1030C00045035870F0D103236373F8BD70B5B2F5B2
:1030D0007F4F86B004460E4603D012B1052103226D
:1030E00015E0151C18BF0125204631462A46FFF77A
:1030F00000FE18B920460521022208E0204631468C
:10310000FFF710FEA84205D0204605210422FFF754
:1031100023FE17E00C49684605F0ADFE694603A89A
:1031200005F0EDFE094903A805F0AAFF014608488D
:1031300005F0B4FD03A805F05CFE684605F059FEF5
:103140000223637306B070BD64E400087CE40008E9
:10315000FC1A00202DE9F0438BB00446894604A8F0
:103160006C49DF081D46164605F085FE04A907A830
:1031700005F0C5FE394607A805F0A8FF01466648D8
:1031800005F08CFD07A805F034FE04A805F031FE1B
:103190006B0705F1FF3318BF0137B3F5F66F03D2A4
:1031A0009DF84830BB4207D05C495B4805F080FD84
:1031B00020460F2103224DE0771C07EB050820462F
:1031C0003946FFF745FD18B920460F21022241E09C
:1031D00001374745F3D15048514905F069FD0627AD
:1031E000504901A805F047FE01A904A805F087FE93
:1031F000394604A805F06AFF4B4905F041FF10224B
:1032000019F80710804607A805F09CFE07A940465C
:1032100005F029FF0146404805F040FD07A805F0EC
:10322000E8FD04A805F0E5FD013701A805F0E1FD82
:10323000102FD5D13A49384805F03AFDA06806F07C
:1032400021FD0520207306F015FDA06028B9204659
:103250000F210422FFF780FD58E00F230370330A8B
:1032600043702B0A8670C37005712D492A4805F0FA
:103270001FFD06272B4901A805F0FDFD01A904A8A3
:1032800005F03DFE394604A805F020FF264905F06B
:10329000F7FE102219F80710804607A805F052FE25
:1032A00007A9404605F0DFFE01461B4805F0F6FC85
:1032B00007A805F09EFD04A805F09BFD013701A8B5
:1032C00005F097FD102FD5D11348154905F0F0FCF6
:1032D0003544B0460027C6EB080309EBD3039A79BF
:1032E00041463A410137FFB2204602F00102FFF7A2
:1032F00000FD08F10108082F08BF0027A845EAD102
:1033000005480A4905F0D4FC032363730BB0BDE8FC
:10331000F08300BF8EE40008FC1A0020A0E400083F
:1033200047F00008C1E40008C8E40008CCE4000845
:103330002DE9F0418B784F788CB0CE7843EA07279F
:103340000B7991F800800C460546544903A843EADE
:10335000062605F090FD03A909A805F0D0FD10226E
:10336000217806A805F0EEFD06A909A805F07BFE68
:1033700001464B4805F092FC06A805F03AFD09A865
:1033800005F037FD03A805F034FD464903A805F014
:1033900072FD03A909A805F0B2FD1022394606A85E
:1033A00005F0F3FD06A909A805F05DFE01463C48BD
:1033B00005F074FC06A805F01CFD09A805F019FD30
:1033C00003A805F016FD384903A805F054FD03A92C
:1033D00009A805F094FD1022314606A805F0D5FD98
:1033E00006A909A805F03FFE01462D4805F056FC48
:1033F00006A805F0FEFC09A805F0FBFC03A805F0F3
:10340000F8FC08F1FF330F2B3FD8DFE803F01D2352
:103410000E292F083E3E3E3E3E3E3E3E3514284697
:1034200039463246FFF7F0FC34E02846394632464A
:10343000FFF7ACFC2EE063792846009321463A461C
:103440003346FFF7FCFC25E0284639463246FFF7B5
:1034500048FD1FE0284639463246FFF799FD19E03E
:10346000284639463246FFF7F3FD13E02846394631
:103470003246FFF72BFE0DE0637928460093214684
:103480003A463346FFF766FE04E0284641460122ED
:10349000FFF762FC0CB0BDE8F08100BFDBE4000880
:1034A000FC1A0020E7E40008F1E4000810B5044627
:1034B000FFF7CAFB204610BD80F828100120704796
:1034C00070B5049E0161C661044615460846114662
:1034D000DAB205F0BFFA4FF4FA6005F055FF002E9E
:1034E00008DBF6B23046002105F0B0FE3046002180
:1034F00005F01EFFB5F5964F06DD40F2EE23236280
:1035000040F2D663636207E0044B93FBF5F323625A
:10351000034B93FBF5F56562012070BDC0E1E4004B
:10352000C00E160270B50446C06986B000280D466C
:1035300006DBC0B2012105F0FBFE012005F024FFEF
:103540000023227B5E1CDBB29A421FD9194A106805
:10355000411C1160E95C184A1154D15C6846102284
:1035600005F0F0FC694603A805F0C9FC134903A85F
:1035700005F086FD0146124805F072FB03A805F030
:1035800038FC684605F035FC3346DAE70D490C484F
:1035900005F08EFB206903689B699847606A05F017
:1035A00001FFE069002803DBC0B2002105F0C0FE86
:1035B00006B070BD5C1A0020471A00200FFC0008FE
:1035C000FC1A0020FBE50008F0B5C9430B4EC9B258
:1035D000705C0B4DC0436C5CC0B20021AC46CFB2F6
:1035E000BB4207D0555C01314540705D60401CF81E
:1035F0000540F4E744EA0020F0BD00BFFBE400080A
:10360000ABE600082DE9F0410D78037BFF2D01EBBF
:10361000030204460E4612F8028C12F8017C03D015
:1036200090F82820AA4219D1A268033B204612F83C
:10363000011BDBB2FFF7C8FF47EA0827874202D029
:103640000A480B490CE02046711CFFF771FEFF2D64
:103650004FF0010007D16073BDE8F08103480549D0
:1036600005F026FB0020BDE8F08100BFFC1A002019
:1036700023E600084FE60008F8B50446C0690F4687
:10368000002806DBC0B2012105F052FE012005F042
:103690007BFE194D19491A4805F00AFB194E2B6893
:1036A00094F828105A1CF154237B2A600022D0B2CF
:1036B00098420AD2286800F1010EC5F800E017F818
:1036C00002E0013206F800E0F1E7A2682046FFF7C9
:1036D0007BFF2B68020AF2541E449A1C7070606AC9
:1036E0002A6005F05FFEE069002803DBC0B200211C
:1036F00005F01EFEF8BD00BF5C1A00207FE6000842
:10370000FC1A0020471A0020D2B238B504460D46F4
:103710000273002A3ED02049204805F0C9FA207BD8
:1037200006F0A8FA0023A060227B591CDBB29A4263
:1037300004D9E85CA268D0540B46F5E7174818494D
:1037400005F0B6FA0025237B9D4207D2A3681348F3
:10375000595D102205F042FB0135F4E710490F488E
:1037600005F0A6FA2046A168FFF74CFF68B1637B1D
:10377000032B04D12046A168FFF77EFF05E0022B52
:1037800003D12046A168FFF7CDFEA06806F07AFAC3
:103790000023237338BD00BF9FE60008FC1A0020F9
:1037A000D2E4000808B5032003F0FEFE014B01221D
:1037B0001A7008BD691A002070B55E480D46097878
:1037C00002F0CCFF697806465A4802F0C7FF06EBC4
:1037D0008606594C06EB860600EB8600E080A97849
:1037E000544802F0BBFF6071E978524802F0B6FF1E
:1037F000207129794F4802F0B1FF6979A0704D48D6
:1038000002F0ACFFA97960704A4802F0A7FF4B496B
:1038100020704B4805F031FAE1880A22484805F04B
:10382000BCFA4849464805F028FA61790A2244481A
:1038300005F0D4FA4449424805F01FFA21790A22DA
:103840003F4805F0CBFA41493D4805F016FAA1780A
:103850000A223B4805F0C2FA3D49394805F00DFA05
:1038600061780A22364805F0B9FA3A49344805F039
:1038700004FA0A222178324805F0B0FA04F0C4F9BB
:10388000642005F081FD2046FCF718FD0146324812
:1038900003F0A8FD642005F077FD04F0BBF92E4885
:1038A00003F0A3FD01462046FCF77CFCE18864237D
:1038B000B1FBF3F1C9B21F4802F047FF2870E2885C
:1038C0004FF47A73B2FBF3F103FB11211948C9B22B
:1038D00002F03BFF68706179164802F036FFA8706D
:1038E0002179144802F031FFA178E870114802F004
:1038F0002CFF617828710F4802F027FF217868714A
:103900000C4802F022FF0024A871295D10220C4807
:1039100005F05BFA01340A48104905F0AEF9072CAE
:10392000F3D1074805F0AEF9BDE8704004480C49F2
:1039300005F0BEB9F11A0020601A0020ABE70008BC
:10394000FC1A0020B2E70008BAE70008C0E7000848
:10395000C7E70008D1E700086A1A00200FFC00083A
:10396000DBE7000870B51B4886B0FCF7A7FC1A4CD3
:10397000054604F049F90A2005F006FD29462046CF
:1039800003F030FD204603F030FD144D14492A6841
:103990008618684605F06FFA694603A805F0AFFA85
:1039A000296803A805F092FB01460E4805F076F958
:1039B00003A805F01EFA684605F01BFA0A493246CC
:1039C000204603F014FD0A2005F0DEFC04F022F985
:1039D00006B070BD601A00206A1A0020A4190020E9
:1039E000FEE70008FC1A0020A53700080148112155
:1039F00003F0EFBC6A1A0020224B10B51A6886B09B
:103A000001321A60204A11681446013111601968A8
:103A1000B1F5615F04D300221A601C4B01221A70B9
:103A20001B48FFF707F888B11948FFF703F8B0F50E
:103A3000E16F0BD816482468FEF7FCFF844205D3DB
:103A4000114B00221A60134B01221A70124C684667
:103A5000236812490133236005F00DFA694603A873
:103A600005F04DFA216803A805F030FB01460C482B
:103A700005F014F903A805F0BCF9684605F0B9F99A
:103A800006B010BD701A0020741A0020B11A002070
:103A9000461A0020F41A00206C1A002080E8000862
:103AA000FC1A002010B5084C0849204605F063F8C0
:103AB00020460121064A05F07DF820460021BDE898
:103AC000104005F04FB800BFFC1B002040420F0023
:103AD000F939000810B5054C204605F035F82046A8
:103AE0000021BDE8104005F03DB800BFF41B0020E8
:103AF00010B5054C204605F027F820460021BDE80A
:103B0000104005F02FB800BFF81B002010B5064C80
:103B1000204605F019F82046002105F023F8034B54
:103B200000221A6010BD00BFFC1B00206C1A002090
:103B3000014805F001B800BFF41B0020014804F063
:103B4000FBBF00BFF81B002008B5034804F0F4FFDA
:103B5000024B00221A6008BDFC1B00206C1A0020DA
:103B600070B5314D8CB02B78002B5AD000242F49E2
:103B70002F4805F09DF82C70FFF7DAFFFF21204653
:103B800005F0F7FBFF21C5B2204605F0F2FB2949FD
:103B9000C6B203A805F06FF903A909A805F0AFF9AB
:103BA0001022294606A805F0CDF906A909A805F0B6
:103BB0005AFA01461E4805F071F806A805F019F9F1
:103BC00009A805F016F903A805F013F91A4903A886
:103BD00005F051F903A909A805F091F91022314621
:103BE00006A805F0AFF906A909A805F03CFA0146B8
:103BF0000F4805F053F806A805F0FBF809A805F0F2
:103C0000F8F803A805F0F5F80C48214601222B46E8
:103C1000009603F0B7FAFFF75DFF0548084905F085
:103C200047F80CB070BD00BFF41A002092E80008FD
:103C3000FC1A002035D4000841D40008F51A0020F1
:103C4000C9E80008F7B52A4802F018FA294CFF2104
:103C50002070002005F08DFBFF21C5B2002005F08B
:103C600088FB254B22781978C6B29142234C06D0A6
:103C70001A70234801232349237005F019F823788B
:103C80009BB121491E4805F013F81C4B0021197007
:103C90001E4B01221A701E48009602222B4603F08A
:103CA00071FA17481B4905F003F81B4F3B78E3B145
:103CB0001A49134804F0FCFF144B00241C703C709C
:103CC00021462B4600961248012203F061F9214655
:103CD00000960F4802222B4603F054FA0848104978
:103CE00003B0BDE8F04004F0E3BF03B0F0BD00BF97
:103CF000B31A0020791A00207C1A0020781A0020BC
:103D0000FC1A002009E900081CE900080C0000204A
:103D1000F51A00206DE90008A31A0020ACE900089C
:103D2000FEE9000810B5064C0649204605F0A3F848
:103D300020460549054ABDE8104005F069BC00BFB2
:103D4000A41A002035FC0008F38D000808000020AC
:103D500030B54A4885B0FEF7ECF9002846D1484B0B
:103D6000484918704548FEF7A8F828B14348454926
:103D7000FEF7E3F8002877D14048FEF735FB20B185
:103D80003E48FEF7B6FA002873D101238DF80430BF
:103D90003A48002301A98DF805308DF806308DF8DA
:103DA00007308DF80830FEF713FA18B13648374956
:103DB00004F07EFF31480121FEF7C4FA18B1324801
:103DC000334904F075FF33492F4804F071FF32493D
:103DD0002D4804F06DFF09E0304CA368EBB92F4883
:103DE0002C4905F09EF82E48FDF710FA2348FEF7FF
:103DF000A0F9002833D103F085FF234804F008FE22
:103E00000028E9DD204804F0AFFDC1B2234805F0E9
:103E1000EAF8022005F0B8FAEFE7204605F0FDF9D0
:103E20002146194804F03AFF1E4901A805F023F87D
:103E3000204601A905F06AF9054601A804F0D9FF5A
:103E400055B11449204605F06CF80F48164904F0A6
:103E50002FFF164802F0DAFC03F054FFBFE7084BCF
:103E600001221A7005B030BD1149074804F020FF47
:103E700082E71049044804F01BFF86E73C1A002043
:103E80000E000020851A0020FC1A002038EA0008E5
:103E900075EA000835FC0008B1EA0008A41A002001
:103EA0001D1900208FE30008F4EA0008F51A00202D
:103EB00037EB00086BEB000870B503F023FF194BDC
:103EC0001B7843BB70BD184C18482678184D731CDE
:103ED000237004F049FDA855022005F055FA237817
:103EE000132B0CD903F00EFF00261249124826703E
:103EF00004F0DEFE28463146142206F0CDF9237880
:103F00000D481D4415F8011C102204F05EFF0A48FC
:103F10000A4904F0B2FE054804F07AFD0028D2DC1C
:103F200070BD00BF7D1A00207B1A00202C1B0020D2
:103F30008E1A0020B2EB0008FC1A0020E4EB000807
:103F400030B5AC488FB002F01CFAAB4800F092FEDE
:103F5000AA4B06201A684FF4FA6122F0E06242F0A0
:103F600080621A6003F0BEFEA5484FF4165104F0BB
:103F7000ADFDA4484FF41651FDF72EFA4FF416513B
:103F8000A14804F0A3FD03F032FEA048FDF786FF30
:103F9000984802F099FA03F0B5FE9A48FDF7F8F94F
:103FA00001219848FDF790FB994D4FF4FA6005F018
:103FB000EBF9002497482C70FDF728F901232B70AA
:103FC00003F0A0FEF1219448FEF75EFA21468D48E9
:103FD000FDF746FE9048FEF721FA9049884804F024
:103FE00067FE8F482221FEF75DFB0228044605D1BB
:103FF0008B482321FEF756FB0546E0B10022884896
:104000000221FEF73AFB874902A804F034FF02A917
:1040100008A804F074FF1022022105A804F0A3FFF1
:1040200005A908A805F01FF87F4905F029F8002127
:1040300004460BA816E07D4902A804F01CFF02A963
:1040400008A804F05CFF2146102205A804F08BFFAD
:1040500005A908A805F007F8734905F011F82946E5
:1040600004460BA8102204F07EFF20460BA904F0A2
:10407000FAFF0146624804F011FE0BA804F0B9FEF5
:1040800005A804F0B6FE08A804F0B3FE02A804F0E8
:10409000B0FE63482421FEF703FB0228044616D134
:1040A0005F482521FEF7FCFA054680B9604908A85B
:1040B00004F0E1FE08A90BA804F021FF21460BA89B
:1040C00004F0FAFF584904F0DBFF294614E000220F
:1040D00053480221FEF7E8FA564908A804F0CBFE3F
:1040E00008A90BA804F00BFF02210BA804F0E4FFC1
:1040F0004D4904F0C5FF002104F0DEFF01464048B1
:1041000004F0CCFD0BA804F074FE08A804F071FEC6
:10411000FFF7D2FE4848FEF721FDFFF719FE46489B
:104120004649FEF70FF8A0B93C49354804F0C0FDF8
:104130004349334804F0BCFD424802F07FFC354857
:10414000FDF764F840F6B83002F012FB03F0DAFD38
:10415000E5E73D492A4804F0ABFD03F0D3FDFFF746
:10416000E7FC3A49264804F0A3FD2C49244804F012
:104170009FFDFFF7E3FC3649214804F099FD2749EC
:104180001F4804F095FDFFF78DFCFFF7DDFC31497A
:104190001B4804F08DFD2149194804F089FDFF21D9
:1041A000002005F0E6F8FF210446002005F0E1F8C4
:1041B000C0B20222E3B200900121224802F064FF63
:1041C00025490F4804F074FD14490D4804F070FDB2
:1041D000094801F053FF214B21491870214B1870F9
:1041E000074804F065FD0D49054804F061FD0FB076
:1041F00030BD00BFF01A0020B31A002004000140B7
:10420000FC1A0020391A00202C1B0020451A00201F
:104210000D0000201D1900203A1A002035FC00086E
:104220003B1A00203AED000879DE000885ED000811
:104230009BED0008B1ED00083C1A0020851A002013
:10424000E6EB0008F51A00201AEC000833EC000831
:1042500070EC0008A7EC0008DFEC00087C1A0020D6
:10426000F4EC0008791A002030B587B0424804F019
:10427000CFFB00280ADD404804F076FBC1B23F487E
:1042800004F0B1FE022005F07FF8EFE73B4CA36895
:10429000002B6ED0204604F0C0FF2146364804F0C3
:1042A000FDFC374903A804F0E6FD204603A904F00D
:1042B0005AFF054603A804F09CFD002D33D020468C
:1042C0000021042204F090FF204604F0B2FF2D4CA0
:1042D00002462060C2F307212B48D2B2FEF7F4FB5E
:1042E00010B12548294901E02348294904F0E0FCA0
:1042F0002548FEF725FC27492060684604F0BBFDF1
:10430000694603A804F0FBFD216803A804F0DEFE63
:104310000146194804F0C2FC03A804F06AFD68468F
:1043200004F067FD18E01C4903A804F0A4FD204632
:1043300003A904F0EBFE054603A804F05AFD85B17D
:10434000164A0D48137883F0010313700BB114491A
:1043500000E0144904F0ACFC1349084804F0E1FD06
:1043600007E01149204604F0DCFD03480F4904F042
:104370009FFC07B030BD00BFFC1A0020A41A00202B
:10438000FCED0008A4190020461A002001EE0008E8
:1043900037EE000819E8000870EE00087D1A0020CA
:1043A00079EE000895EE000835FC0008B1EE000833
:1043B0002DE9F04F87B0634804F02AFB00280ADD9E
:1043C000604804F0D1FAC1B25F4804F00CFE02204C
:1043D00004F0DAFFEFE75C4CA368002B00F0AE803E
:1043E000204604F01AFF2146564804F057FC57496E
:1043F00003A804F040FD204603A904F087FE05460B
:1044000003A804F0F6FC002D00F096802046504CE6
:10441000504904F086FD23684F4901334948236021
:1044200004F046FC4D49684604F025FD694603A8A2
:1044300004F065FD216803A804F048FE01464148E8
:1044400004F02CFC03A804F0D4FC684604F0D1FC72
:1044500040493C4804F02CFCFFF776FB032003F0B6
:10446000A3F83F4A002313703E4A3F4F13703F4A60
:104470003B6013703E4A1D4613703E4A1E46137041
:104480003D4AA34613703D4A13703D4A13703D4A9E
:1044900013703D4A13703D4A13703D4A13703D4BF3
:1044A0000024EC503C4BDFF818A1EC503B4BDFF8FC
:1044B0001491EC503A4BDFF81081EC50394BF0B2CC
:1044C000EC50394B0121EC50384B45F80A40F4547C
:1044D000374B45F80940F454364B45F80840F4543E
:1044E000354B0435F454013601F0C0FE0C2ED6D104
:1044F000DBF8003013F0010313D03048FEF720FB47
:10450000386014234AF804303C2349F804304FF64D
:10451000FF7348F804300434302CF2D1FFF7F6FA78
:104520000AE03B6000224AF8032049F8032048F8DB
:1045300003200433302BF5D103F0E4FB07B0BDE8D2
:10454000F08F00BFFC1A0020A41A0020D8EE00084B
:10455000801A002035FC0008DAEE00081DEF000884
:10456000A21A0020691A0020A4190020B21A002003
:10457000841A0020381A00207E1A00207A1A00209F
:10458000781A0020A31A0020B4170020F817002082
:104590007F1A0020B81700203C180020E8190020DE
:1045A000201900207417002034170020281A00203A
:1045B000FC1800200D1900200F000020461A0020D2
:1045C00064190020A8190020FC1700202DE9F043F1
:1045D000814F87B017F800900446B9F1000F40F002
:1045E000F7807E4DDFF840822B5C002B00F08F803F
:1045F0007B4E7C4A336852F820209342C0F087807B
:10460000012101F033FE784B05F80490774901252C
:1046100068461D7004F02FFC694603A804F06FFC87
:10462000214603A804F03EFD714904F029FD01462E
:10463000704804F033FB03A804F0DBFB684604F089
:10464000D8FB6C4804F0C8F96B4B53F8242052B3E4
:1046500033686A4908F80450694D41F824306846C7
:104660001344684945F8243004F005FC694603A862
:1046700004F045FC214603A804F014FD624904F04F
:10468000FFFC55F8241004F021FD0146594804F0C0
:1046900005FB03A804F0ADFB684604F0AAFB5548EF
:1046A00004F09AF933E0594B594E53F824205949F4
:1046B000013A43F82420337868460133337004F01C
:1046C000DAFB694603A804F01AFC317803A804F069
:1046D000E9FC0146474804F0E1FA03A804F089FB2D
:1046E000684604F086FB434804F076F933780C2BD7
:1046F00007D14048484904F0DBFA484B1D70484B4D
:104700001D700020012308F804003B5561E018F8F3
:104710000400002855D0324B1A68394B53F8243026
:104720009A4256D3394B3A4D53F824200126013A88
:1047300043F824202B783749334468462B703E5584
:1047400004F099FB694603A804F0D9FB297803A873
:1047500004F0A8FC0146274804F0A0FA03A804F0DE
:1047600048FB684604F045FB224804F035F92B78F5
:104770000C2B07D11F48284904F09AFA274B1E70CA
:10478000274B1E700123684618493B5504F073FB04
:10479000694603A804F0B3FB214603A804F082FC99
:1047A000204904F06DFC0146124804F077FA03A892
:1047B00004F01FFB684604F01CFB0E4804F00CF9E3
:1047C00006E00D4B53F82400003018BF012000E034
:1047D000002007B0BDE8F0830D190020281A002042
:1047E0006C1A002020190020781A00202BEF0008F6
:1047F0002FEF0008FC1A0020A819002074170020D1
:10480000341700204BEF0008E2E40008FC170020FA
:10481000F81700205EEF00086EEF0008A21A0020D3
:10482000A31A002094EF0008FC1800202DE9F043A3
:10483000984E87B003F066FA33780C2B00F0DB80DB
:104840000024254603F05EFA934BEFB2E95C0029A1
:1048500040F0A4804FF0010805F803808F4B04EB73
:104860000309E358002B55D08D4BE358002B51D052
:10487000384601F0FBFC8B4B8B4A05F803808B4BD1
:104880008B4983F800808B4BDFF87C821B6868467D
:10489000A350D9F80020134444F8083004F0EBFA90
:1048A000694603A804F02BFB394603A804F0FAFB81
:1048B000814904F0E5FB0146804804F0EFF903A8C4
:1048C00004F097FA684604F094FA7D49684604F0CB
:1048D000D2FA694603A804F012FB394603A804F093
:1048E000E1FB784904F0CCFB54F8081004F0EEFB2F
:1048F0000146724804F0D2F903A804F07AFA684637
:1049000004F077FA6D4804F067F86F4BE358002B1A
:104910006AD0BBE06649684604F0ADFA694603A870
:1049200004F0EDFA394603A804F0BCFB674904F033
:10493000A7FB0146614804F0B1F903A804F059FA55
:10494000684604F056FA624B0127EF543378614908
:104950003B446846337004F08EFA694603A804F0BD
:10496000CEFA317803A804F09DFB0146534804F0C9
:1049700095F903A804F03DFA684604F03AFA4F4866
:1049800004F02AF833780C2B2ED1534B4B48534963
:104990001F7004F08DF9524B1F7025E0013F0A2F64
:1049A00007D8DFE807F0080A0C0E10121416181AC0
:1049B0001C00002014E0012012E0022010E003207F
:1049C0000EE004200CE005200AE0062008E00720A5
:1049D00006E0082004E0092002E00A2000E00B20A5
:1049E000FFF7F4FD002851D101350C2D04F104042A
:1049F0007FF428AF4AE0FFF7A7F8374B394C1A7815
:104A000062B100221A70384B38481A70FEF7AAFFBC
:104A10002A48374904F04CF9012323702378002BEE
:104A200034D0314C2378002B30D03249234804F065
:104A30003FF92248304904F03BF92A4A0023137019
:104A4000327823701448002119542148195415480C
:104A50001954134951F823100133002918BF0022BB
:104A60000C2BEFD1327015484AB9244904F020F9D3
:104A70002149124804F01CF9FFF748F806E02049E4
:104A800004F016F90D481F4904F012F907B0BDE80B
:104A9000F08300BFF81700200F00002064190020E9
:104AA000FC170020281A0020E8190020781A00209E
:104AB0002BEF00086C1A0020AAEF0008FC1A002057
:104AC000C0EF0008E2E40008A8190020D1EF0008B8
:104AD0000D1900205EEF0008A21A00206EEF0008FA
:104AE000A31A0020841A0020691A0020681A0020E6
:104AF000E1EF00080FF000083EF000084BF000085E
:104B000075F00008B0F000082019002008B503F087
:104B1000F9F80C48FCF77AFB00210B480A4600F034
:104B200057FA00F08BF8FFF71BF8FFF78BF8FFF749
:104B30007DFEFFF73DFCFFF797FBBDE80840FFF760
:104B4000BBB900BF1D190020B31A00200148002185
:104B5000FDF786B8391A00201FB5304801A9FDF7C6
:104B6000F1FA2F4CC0B92F492F4804F0A1F82F4873
:104B700001F064FF2E48FCF749FB40F6B83004F022
:104B800003FC03F0BFF823780133DBB2322B237030
:104B9000E3D903F0EBF8E0E7002323701F48FDF7AB
:104BA0008CFBC0B92349204804F082F81F4801F06B
:104BB000D7FE1F48FCF72AFB40F6B83004F0E4FBB0
:104BC00003F0A0F823780133DBB2322B2370E5D950
:104BD00003F0CCF8E2E7002323701048FDF7EEFB6A
:104BE000C0B91549104804F063F8104801F026FFD9
:104BF0000F48FCF70BFB40F6B83004F0C5FB03F0A0
:104C000081F823780133DBB2322B2370E5D903F02E
:104C1000ADF8E2E70023237004B010BD3C1A002079
:104C2000B01A0020C5F00008FC1A0020F51A002078
:104C30001D19002013F100086BF1000808B50A4B9C
:104C40001A787AB100221A70FEF778FFFFF77EFF1C
:104C5000FFF782FFFEF74CFFBDE808400348044918
:104C600004F026B808BD00BFB11A0020FC1A0020CD
:104C7000C1F1000813B5D14C4FF0FF3300934FF44E
:104C8000165200232046CE49FEF71AFC2046012189
:104C9000FEF712FC002120460A46FEF711F82046D6
:104CA00001210022FEF70CF8204602210022FEF727
:104CB00007F8204603210022FEF702F820460421CF
:104CC0000022FDF7FDFF204605210022FDF7F8FF39
:104CD000204606210022FDF7F3FF2046072100228F
:104CE000FDF7EEFF204608210022FDF7E9FF2046F0
:104CF00009210022FDF7E4FF20460A210022FDF7EA
:104D0000DFFF20460B210022FDF7DAFF20460C21B1
:104D10000022FDF7D5FF20460D210022FDF7D0FF30
:104D200020460E210022FDF7CBFF20460F21002256
:104D3000FDF7C6FF204610210022FDF7C1FF2046E7
:104D400011210022FDF7BCFF204612210022FDF7B1
:104D5000B7FF204613210022FDF7B2FF20461421A1
:104D60000022FDF7ADFF204615210022FDF7A8FF28
:104D7000204616210022FDF7A3FF2046172100221E
:104D8000FDF79EFF204618210022FDF799FF2046DF
:104D900019210022FDF794FF20461A210022FDF779
:104DA0008FFF20461B210022FDF78AFF20461C2191
:104DB0000022FDF785FF20461D210022FDF780FF20
:104DC00020461E210022FDF77BFF20461F210022E6
:104DD000FDF776FF204620210022FDF771FF2046D7
:104DE00021210022FDF76CFF204622210022FDF741
:104DF00067FF204623210022FDF762FF2046242181
:104E00000022FDF75DFF204625210022FDF758FF17
:104E1000204626210022FDF753FF204627210022AD
:104E2000FDF74EFF204628210022FDF749FF2046CE
:104E300029210022FDF744FF20462A210022FDF708
:104E40003FFF20462B210022FDF73AFF20462C2170
:104E50000022FDF735FF20462D210022FDF730FF0F
:104E600020462E210022FDF72BFF20462F21002275
:104E7000FDF726FF204630210022FDF721FF2046C6
:104E800031210022FDF71CFF204632210022FDF7D0
:104E900017FF204633210022FDF712FF2046342160
:104EA0000022FDF70DFF204635210022FDF708FF07
:104EB000204636210022FDF703FF2046372100223D
:104EC000FDF7FEFE204638210022FDF7F9FE2046C0
:104ED00039210022FDF7F4FE20463A210022FDF799
:104EE000EFFE20463B210022FDF7EAFE20463C2152
:104EF0000022FDF7E5FE20463D210022FDF7E0FE01
:104F000020463E210022FDF7DBFE20463F21002205
:104F1000FDF7D6FE002120460A46FDF7DAFE2046C0
:104F200001210022FDF7D5FE204602210022FDF7D7
:104F3000D0FE204603210022FDF7CBFE20460421AF
:104F40000022FDF7C6FE204605210022FDF7C1FE26
:104F5000204606210022FDF7BCFE20460721002244
:104F6000FDF7B7FE002120460A46FDF7BDFE2046AC
:104F700001210022FDF7B8FE204602210022FDF7A4
:104F8000B3FE204603210022FDF7AEFE2046042199
:104F90000022FDF7A9FE204605210022FDF7A4FE10
:104FA000204606210022FDF79FFE20460721002211
:104FB000FDF79AFE204600217F2203E0B41A00206C
:104FC000141B002002B0BDE81040FDF76ABE00BF10
:104FD00010B5874C2046FEF797FB20460021FDF7D1
:104FE000A1FE80F00101C9B21E2004F0A1F9204603
:104FF0000121FDF797FE80F00101C9B21F2004F0E6
:1050000097F920460221FDF78DFE80F00101C9B21B
:10501000262004F08DF920460321FDF783FE80F061
:105020000101C9B2272004F083F920460421FDF7CD
:1050300079FE80F00101C9B2282004F079F92046F8
:105040000521FDF76FFE80F00101C9B2292004F0AF
:105050006FF920460621FDF765FE80F00101C9B217
:10506000082004F065F920460721FDF75BFE80F07B
:105070000101C9B20B2004F05BF920460821FDF7BD
:1050800051FE80F00101C9B20C2004F051F9204614
:105090000921FDF747FE80F00101C9B20D2004F09F
:1050A00047F920460A21FDF73DFE80F00101C9B213
:1050B0000F2004F03DF920460B21FDF733FE80F070
:1050C0000101C9B22A2004F033F9202004F01AF9B2
:1050D000021C18BF012200212046FDF713FE2120EB
:1050E00004F010F9021C18BF012201212046FDF72F
:1050F00009FE222004F006F9021C18BF0122022139
:105100002046FDF7FFFD232004F0FCF8021C18BF29
:10511000012203212046FDF7F5FD2C2004F0F2F8D2
:10512000021C18BF012204212046FDF7EBFD2B20B5
:1051300004F0E8F8021C18BF012205212046FDF703
:10514000E1FD322004F0DEF8021C18BF0122062126
:105150002046FDF7D7FD132004F0D4F8021C18BF39
:10516000012207212046FDF7CDFD002004F0BCF808
:10517000002102462046FDF7D0FD012004F0B4F8DE
:10518000012102462046FDF7C8FD042004F0ACF8DA
:10519000022102462046FDF7C0FD052004F0A4F8D8
:1051A000032102462046FDF7B8FD062004F09CF8D6
:1051B000042102462046FDF7B0FD072004F094F8D4
:1051C000052102462046FDF7A8FD242004F08CF8B6
:1051D000062102462046FDF7A0FD252004F084F8B4
:1051E000072102462046BDE81040FDF796BD00BFEE
:1051F000B41A0020002110B50A463648FDF779FDA3
:105200000121044600223348FDF773FD08B1013443
:10521000E4B2304802210022FDF76BFD08B10134F1
:10522000E4B22C4803210022FDF763FD08B10134EC
:10523000E4B2284804210022FDF75BFD08B10134E7
:10524000E4B2244805210022FDF753FD08B10134E2
:10525000E4B2204806210022FDF74BFD08B10134DD
:10526000E4B21C4807210022FDF743FD08B10134D8
:10527000E4B2184808210022FDF73BFD08B10134D3
:10528000E4B2144809210022FDF733FD08B10134CE
:10529000E4B210480A210022FDF72BFD08B10134C9
:1052A000E4B20C480B210022FDF723FD60B10B2C6A
:1052B0000AD100210A460848FFF78AFE0749084834
:1052C00003F0F6FC012010BD0649054803F0F0FC90
:1052D000002010BDB41A0020B31A0020F9F1000814
:1052E000FC1A002030F2000830B583488BB00C4621
:1052F000824903F0DDFC0222214601A803F022FED0
:105300007F4904A803F0B7FD04A907A803F0F7FD3F
:1053100001A907A803F0A7FE0146774803F0BEFCE9
:1053200007A803F066FD04A803F063FD039D082DA4
:1053300040F0EA80012304A801A9002203F02EFF17
:105340000A22002107A803F00EFE07A904A803F013
:10535000EBFE021C18BF012200216A48FDF7C9FCC0
:10536000044607A803F045FD04A803F042FD02230C
:1053700004A801A9012203F011FF0A22002107A8B5
:1053800003F0F1FD07A904A803F0CEFE021C18BF2C
:10539000012201215B48FDF7ACFC054607A803F09C
:1053A00028FD04A803F025FD0DB10134E4B2032368
:1053B00004A801A9022203F0F1FE0A22002107A895
:1053C00003F0D1FD07A904A803F0AEFE021C18BF2C
:1053D000012202214B48FDF78CFC054607A803F08B
:1053E00008FD04A803F005FD0DB10134E4B2042367
:1053F00004A801A9032203F0D1FE0A22002107A874
:1054000003F0B1FD07A904A803F08EFE021C18BF2B
:10541000012203213B48FDF76CFC054607A803F079
:10542000E8FC04A803F0E5FC0DB10134E4B2052367
:1054300004A801A9042203F0B1FE0A22002107A852
:1054400003F091FD07A904A803F06EFE021C18BF2B
:10545000012204212B48FDF74CFC054607A803F068
:10546000C8FC04A803F0C5FC0DB10134E4B2062366
:1054700004A801A9052203F091FE0A22002107A831
:1054800003F071FD07A904A803F04EFE021C18BF2B
:10549000012205211B48FDF72CFC054607A803F057
:1054A000A8FC04A803F0A5FC0DB10134E4B2072365
:1054B00004A801A9062203F071FE0A22002107A810
:1054C00003F051FD07A904A803F02EFE021C18BF2B
:1054D000012206210B48FDF70CFC054607A803F046
:1054E00088FC04A803F085FC0DB10134E4B204A8E3
:1054F00001A907220823B3E3FC1A002067F2000881
:105500008BF20008B41A0020072D40F0CD80002156
:105510000A466448FDF7EDFB012301A90022044679
:1055200004A803F03BFE0A22002107A803F01BFD9C
:1055300007A904A803F0F8FD021C18BF01220121ED
:105540005848FDF7D6FB054607A803F052FC04A80F
:1055500003F04FFC0DB10134E4B2022304A801A909
:10556000012203F01BFE0A22002107A803F0FBFC26
:1055700007A904A803F0D8FD021C18BF01220221CC
:105580004848FDF7B6FB054607A803F032FC04A81F
:1055900003F02FFC0DB10134E4B2032304A801A9E8
:1055A000022203F0FBFD0A22002107A803F0DBFC26
:1055B00007A904A803F0B8FD021C18BF01220321AB
:1055C0003848FDF796FB054607A803F012FC04A82F
:1055D00003F00FFC0DB10134E4B2042304A801A9C7
:1055E000032203F0DBFD0A22002107A803F0BBFC25
:1055F00007A904A803F098FD021C18BF012204218A
:105600002848FDF776FB054607A803F0F2FB04A83F
:1056100003F0EFFB0DB10134E4B2052304A801A9A6
:10562000042203F0BBFD0A22002107A803F09BFC23
:1056300007A904A803F078FD021C18BF0122052168
:105640001848FDF756FB054607A803F0D2FB04A84F
:1056500003F0CFFB0DB10134E4B2062304A801A985
:10566000052203F09BFD0A22002107A803F07BFC22
:1056700007A904A803F058FD021C18BF0122062147
:105680000848FDF736FB054607A803F0B2FB04A85F
:1056900003F0AFFB0DB10134E4B204A801A9062266
:1056A0000723DDE2B41A0020062D40F0B38000216C
:1056B0000A46A748FDF71DFB012104460022A44825
:1056C000FDF717FB08B10134E4B2012304A801A9D6
:1056D000002203F063FD0A22002107A803F043FC27
:1056E00007A904A803F020FD021C18BF0122022113
:1056F0009748FDF7FEFA054607A803F07AFB04A8D1
:1057000003F077FB0DB10134E4B2022304A801A930
:10571000012203F043FD0A22002107A803F023FC25
:1057200007A904A803F000FD021C18BF01220321F1
:105730008748FDF7DEFA054607A803F05AFB04A8E0
:1057400003F057FB0DB10134E4B2032304A801A90F
:10575000022203F023FD0A22002107A803F003FC24
:1057600007A904A803F0E0FC021C18BF01220421D1
:105770007748FDF7BEFA054607A803F03AFB04A8F0
:1057800003F037FB0DB10134E4B2042304A801A9EE
:10579000032203F003FD0A22002107A803F0E3FB24
:1057A00007A904A803F0C0FC021C18BF01220521B0
:1057B0006748FDF79EFA054607A803F01AFB04A800
:1057C00003F017FB0DB10134E4B2052304A801A9CD
:1057D000042203F0E3FC0A22002107A803F0C3FB24
:1057E00007A904A803F0A0FC021C18BF012206218F
:1057F0005748FDF77EFA054607A803F0FAFA04A811
:1058000003F0F7FA0DB10134E4B204A801A90522AE
:10581000062325E2052D40F09D8000210A464C48D4
:10582000FDF767FA0121044600224948FDF761FAB5
:1058300008B10134E4B2464802210022FDF759FACA
:1058400008B10134E4B2012304A801A9002203F045
:10585000A5FC0A22002107A803F085FB07A904A8DC
:1058600003F062FC021C18BF012203213848FDF737
:1058700040FA054607A803F0BCFA04A803F0B9FAF9
:105880000DB10134E4B2022304A801A9012203F0FE
:1058900085FC0A22002107A803F065FB07A904A8DC
:1058A00003F042FC021C18BF012204212848FDF726
:1058B00020FA054607A803F09CFA04A803F099FA19
:1058C0000DB10134E4B2032304A801A9022203F0BC
:1058D00065FC0A22002107A803F045FB07A904A8DC
:1058E00003F022FC021C18BF012205211848FDF715
:1058F00000FA054607A803F07CFA04A803F079FA39
:105900000DB10134E4B2042304A801A9032203F079
:1059100045FC0A22002107A803F025FB07A904A8DB
:1059200003F002FC021C18BF012206210848FDF703
:10593000E0F9054607A803F05CFA04A803F059FA59
:105940000DB10134E4B204A801A90422052387E1C2
:10595000B41A0020042D40F0838000210A46A1489B
:10596000FDF7C7F90121044600229E48FDF7C1F961
:1059700008B10134E4B29B4802210022FDF7B9F9D5
:1059800008B10134E4B2974803210022FDF7B1F9D0
:1059900008B10134E4B2012304A801A9002203F0F4
:1059A000FDFB0A22002107A803F0DDFA07A904A8DD
:1059B00003F0BAFB021C18BF012204218948FDF73D
:1059C00098F9054607A803F014FA04A803F011FAA1
:1059D0000DB10134E4B2022304A801A9012203F0AD
:1059E000DDFB0A22002107A803F0BDFA07A904A8DD
:1059F00003F09AFB021C18BF012205217948FDF72C
:105A000078F9054607A803F0F4F904A803F0F1F9C2
:105A10000DB10134E4B2032304A801A9022203F06A
:105A2000BDFB0A22002107A803F09DFA07A904A8DC
:105A300003F07AFB021C18BF012206216948FDF71A
:105A400058F9054607A803F0D4F904A803F0D1F9E2
:105A50000DB10134E4B204A801A903220423FFE03C
:105A6000032D6AD100210A465E48FDF742F9012163
:105A7000044600225B48FDF73CF908B10134E4B26A
:105A8000584802210022FDF734F908B10134E4B28C
:105A9000544803210022FDF72CF908B10134E4B287
:105AA000504804210022FDF724F908B10134E4B282
:105AB000012304A801A9002203F070FB0A2200219F
:105AC00007A803F050FA07A904A803F02DFB021C55
:105AD00018BF012205214348FDF70BF9054607A829
