:020000040800F2
:1000000000C00020318500082188000825880008EC
:10001000298800082D880008318800088188000898
:10002000818800088188000881880008818800088C
:10003000818800088188000881880008118D0008E7
:100040008188000881880008818800080D840008E4
:10005000818800088188000881880008818800085C
:10006000818800088188000881880008818800084C
:10007000818800088188000881880008818800083C
:100080008188000881880008F988000881880008B4
:10009000818800088188000881880008818800081C
:1000A000598F00087D8F0008A18F0008D98F0008A4
:1000B0002D9000089D9000080D910008818800088F
:1000C00081880008818800088188000881880008EC
:1000D000818800080594000859940008AD94000830
:1000E000818800085584000881880008359200083E
:1000F000599200087D920008B592000849890008CD
:1001000081880008818800087D91000881880008A6
:100110000195000855950008ED910008119200081E
:10012000818800088188000881880008818800088B
:1001300010B5054C237833B9044B13B10448AFF321
:1001400000800123237010BD18170020000000005C
:1001500064BD000808B5064B1BB106480649AFF35D
:1001600000800648036813B1054B03B1984708BDEA
:100170000000000064BD00081C17002018170020B4
:1001800000000000012902D11C30C0B270470629CE
:1001900084BF01F1FF31C9B211F0010F14BF1E205D
:1001A0001F207047444B2DE9F047B1FBF3F603FBEA
:1001B00016113C23B1FBF3F203FB12120546027049
:1001C0004FF46160B1FBF0F200FB1211B1FBF3F3ED
:1001D0006B704FF4FA63AA70B6B2EB80EC884FF400
:1001E000C873B4FBF3F803FB18481FFA88F8B8F19A
:1001F000000F16D06423B4FBF3F203FB12439BB24F
:10020000002B53D014F0030140F26D130CBF4FF4D8
:10021000B7721A4696420EDB002908BF4FF4B77337
:1002200004E0B6F5B77F06DB4FF4B773F61A013476
:10023000B6B2EC80D2E700236B716423B4FBF3F712
:1002400003FB1747BFB2B8F1000F06D03FB114F05F
:10025000030F14BF0020012002E0012000E0384617
:1002600095F80590C0B24946FFF78CFF864209F128
:10027000010A15D3B8F1000F06D03FB114F0030FF7
:1002800014BF0020012002E0012000E03846C0B287
:100290004946FFF777FF301A86B285F805A0D2E706
:1002A00001362E7185F805A0BDE8F087B6F5B67F5A
:1002B000C1DD40F26D13B9E780510100F8B5427815
:1002C00087783C2303FB072702780579467903FBEF
:1002D0000727013D013EEDB2F6B2044605714671B5
:1002E000013E731CE38834D04FF4C872B3FBF2F1C3
:1002F00002FB113292B262B16422B3FBF2F002FB54
:10030000103080B230B113F0030F14BF0020012071
:1003100000E00120C0B2F1B2FFF734FF284485B2FB
:10032000DEE74FF4C872B3FBF2F102FB113292B276
:10033000AAB16422B3FBF2F102FB113292B28AB18C
:1003400013F0030F40F26D1208BF4FF4B77215445B
:10035000ADB2013B9BB2B3F5FA6FE2D205E04FF4C8
:10036000B772F4E740F26D12F1E7024800FB057046
:10037000F8BD00BF8051010006F0CCBF38B50D4676
:10038000044606F0E2FF290A49006039204601F0E0
:10039000FE0107F071F8204607F047F8E9B2204661
:1003A00007F06AF8204607F040F8204606F0CDFF37
:1003B0002046A12107F060F8204607F036F800211A
:1003C000204607F080F80546204607F011F8204641
:1003D00006F0D6FF284638BD70B50D4616460446D1
:1003E00006F0B3FF290A49006039204601F0FE01FA
:1003F00007F042F8204607F018F8E9B2204607F067
:100400003BF8204607F011F83146204607F034F853
:10041000204607F00AF8204606F0B2FFBDE870401B
:100420000A2009F0E9BD000008B51D4A517893780B
:1004300043EA0123A3F52043152B26D8DFE803F078
:100440000B2D0D0F111315171925252525252525EC
:10045000251B1D1F2123002008BD022008BD0820E8
:1004600008BD092008BD0A2008BD0B2008BD0C20CE
:1004700008BD0D2008BD032008BD042008BD0520CF
:1004800008BD062008BD072008BD00214FF40072FA
:1004900003480AF017FD0E2008BD012008BD00BF6B
:1004A000D017002010B5074C6018114606F03AFE30
:1004B000054B1B781C4414F8073C1B1A5842584142
:1004C00010BD00BFD0170020D1190020084B1879AB
:1004D0005B7943EA002045F25553984205D04CF22F
:1004E0000303C31A5842584170470120704700BFA8
:1004F000D0170020044B9B79552B044B0CBF0122D5
:1005000000221A70704700BFD0170020B81C0020CE
:1005100010B5084CE379552B01D1012010BD0648D8
:1005200002F06BFAE3798342F7D0D0F1010038BFD3
:10053000002010BDD01700203F1E002013B50D4B2A
:100540001C7A552C01D1012012E00B48694602F0BB
:10055000AFF900231A461DF803108C42F3D019B9E5
:100560000132D2B2052AEED00133052BF3D100209F
:1005700002B010BDD01700203F1E002070B5054608
:100580001E46FFF78FFF044640B91C4AD3781A4431
:100590001379D62B02D01A481A492BE02846FFF7C8
:1005A00095FF044678B12846FFF7A4FF2846FFF7D9
:1005B000AFFF044670B96EB11349114809F0CEF986
:1005C0000F48124916E012490D4809F0C7F90C48C6
:1005D00010490FE02846FFF7B1FF044660B99DF8C7
:1005E00010300BB9012407E00B49054809F0B6F9B2
:1005F00003480A4909F0B2F9204670BDD01700201F
:10060000101F00201CD5000840D5000877D5000831
:10061000C0D40008EED40008AED50008E6D5000826
:100620001F4B13B51B78002B37D0002300930421F8
:1006300017220123FFF7A2FF30B31A491A4809F025
:100640008DF9194809F02AF8184B1C7A012C18D199
:100650001748D97C02F03AFA48B116480F212246D1
:1006600007F042F91448214601F01CFE0CE0114845
:100670001021022207F038F910490B4809F06EF9F1
:1006800002E00C4806F0AAFF0D4B08481A7800213A
:1006900002B0BDE810400AF015BC02B010BD00BFAA
:1006A0000D0000201AD60008101F0020D0170020CF
:1006B0003D1E0020071F00203C1E00203AD60008E7
:1006C000D11900201A4B07B51B786BB30023009398
:1006D00004210A220123FFF751FFE0B11549164812
:1006E00009F03CF9144808F0D9FF1448144902F005
:1006F00091F838B11349104809F030F91248032134
:10070000022206E011490C4809F028F90E4804219C
:10071000012207F0E9F80E4B0E481A78002103B0C9
:100720005DF804EB0AF0CEBB03B05DF804FB00BF3C
:100730000D0000207ED60008101F00203F1E002064
:10074000D817002096D60008071F0020D8D600082A
:10075000D1190020D017002013B5002300930421E5
:100760000F22FFF70BFF40B31F492048204C09F030
:10077000F5F81E4808F092FF1E4804F10A0101F046
:10078000BEFE68B31B4804F10A0101F0F8FE38B35D
:100790001949164809F0E2F81648E17902F0F4F830
:1007A000A0B11649114809F0D9F8154805210122D0
:1007B00007F09AF80F4801F0C3FF124B0C481A7863
:1007C000002102B0BDE810400AF07CBB07480E498A
:1007D00009F0C4F80A480621012207F085F8ECE781
:1007E00002480A49F4E700BF1AD70008101F00208A
:1007F000D01700203F1E0020C0D7000835D70008C2
:10080000071F0020D11900207BD70008EDD7000872
:10081000134B13B51B780BB3124B0024DA78042169
:1008200000940123FFF7AAFE78B10F490F4809F0A1
:1008300095F80E4808F032FF0D490C4809F08EF883
:100840000C482146022207F06DFB0B4B05481A7835
:10085000002102B0BDE810400AF034BB02B010BD68
:100860000D000020D017002028D80008101F0020FD
:1008700044D80008071F0020D1190020444B73B54D
:100880001B78002B00F082800024009404210522B4
:100890000123FFF773FE00286FD03E493E4809F060
:1008A0005DF83E493C4809F059F83B4808F0F6FE2F
:1008B00008F040F903F058FC032007F087FD384B9F
:1008C00001221C70374B26461C70374B1C70374B6F
:1008D0001C70374B1C70374B1C60374B1C70374BF0
:1008E0001C70374B1C70374B1C70374B1C70374BD0
:1008F0001C70374B1C60374B1A70374B1C60374BE2
:100900001C70374B1C70374B1C70374B1C70374BAF
:100910001C60374B1C70374B1C60374B0025E55073
:10092000364BF0B2E550364B0121E550354BE550E2
:10093000354BE550354BE550354BE550354BE550E3
:10094000354BE550354BE550354B0434F554354BBC
:10095000F554354BF554354BF554013606F06EFB26
:100960000C2EDAD1324B0022EA500435202DF9D179
:1009700030480721022206F0B7FF2F4B2F481A7884
:10098000002102B0BDE870400AF09CBA02B070BD10
:100990000D0000207DD80008101F002096D8000808
:1009A000B21E00206D1E0020C21E00209C1E0020D2
:1009B000EC1D0020001D0020911E0020B31E002011
:1009C0008C1E0020901E0020341700204E1700209F
:1009D000981E00204D170020481700204C170020BB
:1009E000341E0020641C0020E3190020381E002063
:1009F000A81D0020F01D0020E4190020BC1C0020D0
:100A000050170020F41D002090170020781C0020B3
:100A1000681D0020241C0020AC1D0020281D002083
:100A200035170020651C0020D21900200E00002080
:100A3000041D0020071F0020D1190020D01700201E
:100A4000F0B5284B89B01B78002B49D0264D0024E7
:100A5000EA78042100940123FFF790FD2F46002837
:100A600035D02249224808F079FF214808F016FEC7
:100A700003AD08F05FF81F491D4808F06FFF2846D6
:100A8000214614220AF01EFAFE78053E142E01D8E3
:100A9000234605E01648184908F060FF022207E0E7
:100AA000B34204D2FA18527AEA540133F8E7032227
:100AB000124B13481A702946324605F00BF90122F1
:100AC0001048002106F092FF0F4B01221A700F4BC5
:100AD00005481A78002109B0BDE8F0400AF0F2B9E3
:100AE00009B0F0BD0D000020D0170020A6D80008E6
:100AF000101F0020D0D8000826D90008081F0020A9
:100B0000C31E0020071F00208C1E0020D1190020CA
:100B100030B5154B85B01B781BB3144D0024EA7813
:100B2000009404210123FFF729FDD0B11049114899
:100B300008F014FF0F4808F0B1FD0E480E4908F008
:100B40000DFF2346EA18527A02A95A540133072BA3
:100B5000F8D10A4803F024F909481721022206F0C7
:100B6000C3FE05B030BD00BF0D000020D01700202F
:100B700077D90008101F00208ED900086C1E0020B5
:100B8000071F0020F0B53A4B89B01B78002B6CD0C2
:100B9000384C0026E278009604210123FFF7EEFC92
:100BA00000284DD03449354808F0D8FE334808F0C5
:100BB00075FD334894F8221094F8232002F07CF954
:100BC00020B92E482F4908F0C9FE012600252E49DC
:100BD0002A4804AF08F0C2FE2223384629461022D4
:100BE000029503958DF808300AF06CF933238DF8DF
:100BF00010302B46E218127A02A95A540133082BFE
:100C0000F8D10023E218127CFA540133102BF9D1E9
:100C10001B4802F0AFF8E0B11948394602F008F974
:100C2000B8B11A49154808F099FE154802F071F854
:100C3000174806F031FB17483146012206F068FFDD
:100C4000154B0C481A78002109B0BDE8F0400AF0B5
:100C500039B91249094808F081FE094802F076F8CE
:100C60000B4806F019FB0226E5E709B0F0BD00BF0E
:100C70000D000020D0170020BFD90008101F002051
:100C8000491E0020E9D9000824DA00085CDA0008CF
:100C9000001F0020071F0020D119002099DA00084A
:100CA0002DE9F04F7C4B89B01B78002B00F0F080D1
:100CB0007A4F0024FA78042100940123FFF75EFCA8
:100CC000002800F0D8807649764808F047FE75483D
:100CD00008F0E4FC744B01251D7007F02BFF03F0B6
:100CE00043FA032007F072FB704A714B1470714A8B
:100CF0001C701470704A714B1470714A1C7014701F
:100D0000704A714B1470714A1C701470704A714BA8
:100D10001460714A1C701570704A714B1460714AEE
:100D20001C701470704A714B1470714A1C601470FE
:100D3000704A26461470704A9B4614606F4A1470BD
:100D40006F4A14606F4B0025E5506F4BDFF804824B
:100D5000E5506E4BDFF80092E5506D4BDFF8FCA1DB
:100D6000E5506C4BF0B2E5506B4B0121E5506B4BFD
:100D700044F80850E5506A4B44F80950F554694B63
:100D800044F80A50F554684B0434F554674BF55455
:100D9000013606F053F90C2ED4D1654A0023AB502E
:100DA0000435202DF9D1634A6348137097F8461033
:100DB00097F8472002F07CF910B13A485F4901E00A
:100DC00038485F4908F0CAFD5B4802F0ADF95D495B
:100DD000CBF8000002A808F0CEFE02A905A808F092
:100DE000EBFEDBF8001005A808F0C5FF01462D4812
:100DF00008F0AAFD05A808F07CFE02A808F079FE1C
:100E000007F098FE0022254B1046114607EBD00450
:100E100094F848400C41E40715D51D7A5C7A04EB40
:100E2000052448F8024093F8285093F8294004EB31
:100E3000052449F8024093F84A5093F84B4004EBDC
:100E400005244AF802400131C9B2082900F1010025
:100E500008BF00210C2803F1020302F10402D5D1DE
:100E6000104808F01BFC384803210C4A06F09EFE8F
:100E700003F05CF903E00B48344908F06FFD344B94
:100E800006481A78002109B0BDE8F04F0AF01AB8F8
:100E900009B0BDE8F08F00BF0D000020D017002082
:100EA000D6DA0008101F0020E2190020911E002051
:100EB000B21E0020B31E00208C1E00206D1E0020DC
:100EC000901E002034170020C21E00204E17002064
:100ED000981E00209C1E00204D170020481700205F
:100EE000EC1D00204C170020341E0020001D0020A7
:100EF000641C0020E3190020381E0020A81D0020DB
:100F0000F01D0020E4190020F41D0020901700209F
:100F1000681D0020241C0020AC1D0020281D00207E
:100F200035170020651C0020D21900200E0000207B
:100F3000041D0020ED1D0020491E002003DB0008D9
:100F400047DB000854ED0008071F00208EDB000877
:100F5000D1190020BC1C002050170020781C002054
:100F60002DE9F04F904B89B01B78002B00F01981D0
:100F70008E4F0024FA78042100940123FFF7FEFA33
:100F8000002800F001818A498A4808F0E7FC894876
:100F900008F084FB884B01251D7007F0CBFD03F0A2
:100FA000E3F8032007F012FA844B85481C70854B48
:100FB00004701C70844B85481C70854B04701C7039
:100FC000844B85481C70854B04601C60844B8548AD
:100FD0001C70854B85491C70854B864A1C70864B5E
:100FE00004701C70854B86481C70864B0C601C700E
:100FF000854B14701C60854B04601D70844B264625
:101000001C70884693469A46824B0025E550824BD9
:10101000DFF86092E550814BF0B2E550804B012142
:10102000E550804B44F80950E5507F4BE5507F4B2D
:10103000E5507F4BE5507F4BE5507F4B0434F55432
:101040007E4BF5547E4BF5547E4BF554013605F03E
:10105000F5FF0C2ED8D17C4B0024EC500435202D0C
:10106000F9D17A4B01221A703A7A7B7A784903EBEC
:10107000022302A8C8F8003008F07DFD02A905A8E7
:1010800008F09AFDD8F8001005A808F074FE714920
:1010900008F04BFE0146474808F056FC05A808F04A
:1010A00028FD02A808F025FDBB7A6B4902A88BF841
:1010B000003008F060FD02A905A808F07DFD9BF84E
:1010C000001005A808F043FE624908F02EFE014614
:1010D000384808F039FC05A808F00BFD02A808F014
:1010E00008FDFB7A5D4902A88AF8003008F043FD4C
:1010F00002A905A808F060FD9AF8001005A808F0FC
:1011000026FE01462B4808F01FFC05A808F0F1FC5C
:1011100002A808F0EEFC254607EBD4031B7B2B410D
:10112000DB0720D5D8F800304D4902A849F8243013
:1011300008F021FD02A905A808F03EFD214605A8FA
:1011400008F019FE474908F0F0FD59F8241008F09E
:1011500012FE0146174808F0F7FB05A808F0C9FC85
:1011600002A808F0C6FC0135EDB2082D04F1010417
:1011700008BF00250C2CCFD13B4803210B4A06F0B9
:1011800075FD02F0D3FF03E00A48384908F0E6FB9A
:10119000374B06481A78002109B0BDE8F04F09F036
:1011A00091BE09B0BDE8F08F0D000020D0170020DF
:1011B000ACDB0008101F0020E2190020B21E002046
:1011C000641C00206D1E0020C21E0020E3190020B8
:1011D0009C1E0020EC1D0020381E0020001D002059
:1011E000911E0020A81D0020B31E002048170020DB
:1011F0008C1E00204C170020901E00203417002069
:10120000F01D00204E170020981E00204D170020D2
:10121000341E0020BC1C002050170020F41D0020AC
:1012200090170020781C0020681D0020241C00203E
:10123000AC1D0020281D002035170020651C002053
:10124000D21900200E000020041D0020ED1D0020FA
:10125000D2DB00089FF60008E8DB0008FFDB00088F
:1012600013DC000828DC0008071F00202CDC000825
:10127000D1190020E4190020F0B5734B89B01B7818
:10128000002B00F0DF80714F0024FA7804210094D5
:101290000123FFF773F9002800F0C7806C496D48FF
:1012A00008F05CFB6B4808F0F9F96B4B01251D70E9
:1012B00007F040FC02F058FF032007F087F8674B67
:1012C00026461C70664B1C70664B1C70664B1C706F
:1012D000664B1C70664B1C60664B1C70664B1C702A
:1012E000664B1C70664B1C70664B1C70664B1C700A
:1012F000664B1C60664B1D70664B1C60664B1C7019
:10130000664B1C70664B1C70664B1C70664B1C60F9
:10131000664B1C70664B1C60664B0025E550664BA7
:10132000F0B2E550654B0121E550654BE550654B4A
:10133000E550654BE550654BE550654BE550654B19
:10134000E550654BE550654B0434F554644BF5545A
:10135000644BF554644BF554013605F06FFE0C2ECA
:10136000DAD1624E0024AC510435202DF9D1604B06
:1013700002221A7025467A7C344B2A41D20727D59F
:101380006208043213F8121003EB42035B7802A8E0
:1013900003EB012346F82430564908F0ECFB02A980
:1013A00005A808F009FC214605A808F0E4FC52490C
:1013B00008F0BBFC56F8241008F0DDFC0146254877
:1013C00008F0C2FA05A808F094FB02A808F091FB07
:1013D0000135EDB2082D04F1010408BF0025082CE9
:1013E000C9D13B7C454C02A84549237008F0C3FB9A
:1013F00002A905A808F0E0FB217805A808F0A7FCE1
:10140000404908F092FC0146124808F09DFA05A8F0
:1014100008F06FFB02A808F06CFB3B4803210B4A65
:1014200006F098FC02F082FE03E00A48374908F013
:1014300095FA374B05481A78002109B0BDE8F0400D
:1014400009F040BD09B0F0BD0D000020D01700200C
:101450004ADC0008101F0020E2190020B21E002004
:101460006D1E0020C21E00209C1E0020EC1D0020CE
:10147000001D0020911E0020B31E00208C1E0020A5
:10148000901E0020341700204E170020981E0020C8
:101490004D170020481700204C170020341E002054
:1014A000641C0020E3190020381E0020A81D002025
:1014B000F01D0020E4190020BC1C00205017002063
:1014C000F41D002090170020781C0020681D0020CB
:1014D000241C0020AC1D0020281D002035170020F2
:1014E000651C0020D21900200E000020041D0020E1
:1014F000ED1D002073DC000828DC0008FC1C002027
:1015000092DC00089FF60008071F0020B3DC0008EB
:10151000D1190020144B13B51B7813B3134B0024BF
:10152000DA78042100940123FFF728F860B110490C
:10153000104808F013FA0F4808F0B0F80E4821469A
:10154000032206F081FD03E00A480C4908F006FA80
:101550000B4B06481A78002102B0BDE8104009F094
:10156000B1BC02B010BD00BF0D000020D01700209C
:10157000D1DC0008101F0020071F0020EDDC000850
:10158000D119002070B53D4B88B01B78002B73D06B
:101590003B4C00230093E27804210123FEF7EEFF89
:1015A00000285CD03749384808F0D8F9364808F0A8
:1015B00075F8637A257A354902A803EB052508F00A
:1015C000DAFA02A905A808F0F7FA294605A808F0F2
:1015D000D2FB01462C4808F0B7F905A808F089FAB3
:1015E00002A808F086FA2A48217A627A01F016FDEC
:1015F000054620B92749244808F0B0F900E0012544
:10160000E37AA67A244902A803EB062608F0B3FA87
:1016100002A905A808F0D0FA314605A808F0ABFBEE
:101620000146194808F090F905A808F062FA02A8E6
:1016300008F05FFA1648A17AE27A01F0A5FC20B919
:101640001649114808F08AF903E015B1144815212C
:1016500001E013481621022206F046F903E00A4889
:10166000104908F07BF9104B05481A78002108B0A2
:10167000BDE8704009F026BC08B070BD0D00002028
:10168000D01700200BDD0008101F002031DD0008FE
:10169000491E002041DD00087EDD00088EDD0008C7
:1016A000071F0020CBDD0008D1190020124B07B521
:1016B0001B78EBB1114B0421DA780023009301234E
:1016C000FEF75CFF38B10E490E4808F047F90D48A7
:1016D00007F0E4FF03E00B480B4908F03FF90B4B20
:1016E00006481A78002103B05DF804EB09F0EABB64
:1016F00003B05DF804FB00BF0D000020D0170020F0
:10170000E9DD0008101F00200BDE0008D1190020C1
:1017100010B50446FEF788FE0E2855D8DFE800F025
:10172000272C31080D12171C363B40454A4F21002B
:101730002046BDE81040FEF773BF2046BDE81040CC
:10174000FEF7C0BF2046BDE81040FFF705B82046B1
:10175000BDE81040FFF75CB82046BDE81040FFF739
:101760008DB81A481A49BDE8104008F0F7B820466D
:10177000BDE81040FFF764B92046BDE81040FFF710
:10178000C7B92046BDE81040FFF7FCB92046BDE8C8
:101790001040FFF785BA2046BDE81040FFF7E0BBD8
:1017A0002046BDE81040FFF767BD2046BDE8104069
:1017B000FFF7B0BE2046BDE81040FFF7E3BE20466D
:1017C000BDE81040FFF772BF10BD00BF101F002022
:1017D00029DE00082DE9F043564B8BB01B6880468C
:1017E000554D07F0A7F900214FF40072534809F056
:1017F00069FB002452482C7007F06CFF0A284F4EFA
:101800002F467ED94E483146802208F061F9287073
:10181000C3B29C426BD2335D484DFE2B65D12B1970
:1018200093F80390474901A808F0A5F901A907A872
:1018300008F0C2F91022494604A808F0FBF904A9EF
:1018400007A808F065FA01463F4808F07DF804A8AB
:1018500008F04FF907A808F04CF901A808F049F979
:101860003B780B3B1B1B99453AD809EB04032B44EF
:101870005A790D2A31D19A790A2A2ED1DA790D2A8C
:101880002BD11A7A0A2A28D15A7A0D2A25D19B7A85
:101890000A2B22D12C482D4908F045F8E4B2002546
:1018A00009F10B0362199D42D2B210D2B15C284BF0
:1018B0001022E954244808F0DEF82348254908F0AE
:1018C00032F8254B01351A7801321A70E8E71E48C4
:1018D000224908F043F801240AE01B48204901E0AE
:1018E0001948204908F03AF801E0013490E7002453
:1018F000124800214FF4007209F0E4FA00233B7013
:1019000006E0304621464FF4007209F0DBFA2C70F5
:1019100007F010F91CB14046FFF7FAFE07E00C484B
:1019200021464FF4007209F0CDFA0B4B1C700BB03E
:10193000BDE8F08360200020241D0020241A002030
:10194000281F002047DE0008101F002057DE000877
:10195000D017002005ED0008D11900200DE2000885
:1019600065DE000890DE000808B51D20002108F0A3
:10197000B1FA1D20012108F013FB1020002108F00E
:10198000A9FA1120002108F0A5FA1C20002108F076
:10199000A1FA1120002108F003FB1C20012108F00E
:1019A000FFFABDE808401020002108F0F9BA000055
:1019B000014807F0EDBE00BF281F002008B561B147
:1019C00000211C2008F0ECFA962008F015FBBDE879
:1019D00008401C20012108F0E3BA08BD08B5002129
:1019E0001D2008F0DDFA0C4807F0D5FE022000218A
:1019F00008F070FA0320002108F06CFA02200021A0
:101A000008F0CEFA0320002108F0CAFABDE8084029
:101A10001C20002108F0C4BA281F002010B50B7844
:101A2000452B12D14B78522B0FD18B78CC78303B91
:101A300003EB8303303C04EB4304E4B221460A2267
:101A4000034808F021F8204610BD0A2010BD00BF51
:101A5000101F00200B784F2B07D148784B2804D15A
:101A600013704B78012053707047002070470000BE
:101A70002DE9F04190B00E4601A865491C469046FC
:101A800008F079F8624904A808F075F8604907A8D9
:101A900008F071F820460021042209F013FAE0232F
:101AA000A370E37035460027AB1B43453AD2297833
:101AB0000A220DA808F09BF80DA901A808F0E3F888
:101AC0000DA808F016F815F8013B2C2B28D0303B58
:101AD000DBB2092B98BF05F8013C15F8011C57B97A
:101AE0002D2902D14B484C4909E00DA80A2208F0E3
:101AF0007EF804A80DE02D2906D14648474907F095
:101B00002DFFF023E370CFE70DA80A2208F06FF84D
:101B100007A80DA908F0B7F80DA807F0EAFFC3E77A
:101B20000127C1E73E490AA808F025F80AA90DA82F
:101B300008F042F801A90DA808F0EAF80146354876
:101B400007F002FF0DA807F0D4FF0AA807F0D1FFA5
:101B500034490DA808F00FF80DA92E4807F0D6FE5D
:101B60000DA807F0C6FFA3782A48F02B01D12E4913
:101B700003E0E02B0CBF26492C4907F0D4FE04A952
:101B80000DA808F019F82A490DA808F0CEF801466A
:101B9000204807F0D9FE0DA807F0ABFF25490DA896
:101BA00007F0E9FF0DA91B4807F0B0FE0DA807F0EC
:101BB000A0FFE3781748F02B01D11B4903E0E02B8D
:101BC0000CBF1349194907F0AEFE07A90DA807F08D
:101BD000F3FF0DA8164908F0A8F801460D4807F0D4
:101BE000B3FE0DA807F085FF04A808F066F9207081
:101BF00007A808F062F9607007A807F07AFF04A848
:101C000007F077FF01A807F074FF10B0BDE8F0817E
:101C10000DE20008101F0020C1DE0008CEDE000823
:101C2000DCDE0008E7DE000826EA0008F2DE000835
:101C3000FFDE000806DF0008F8B54C78432C08D119
:101C40008C78532C05D1CC78B4F151056C426C41A1
:101C500000E000240026F5B24F5D01363A2FFAD19C
:101C60000135EDB200279542FEB207F1010706D813
:101C700011F805C0013501F806C0EDB2F3E73CB933
:101C80002046C2B2B2420BD20A5C1A540130F8E7C5
:101C9000069A022412681470721ED2B2FFF7E8FE90
:101CA0000120F8BD37B5154809B9154900E01549B7
:101CB00007F039FE642008F09FF900240F4807F070
:101CC00009FD0028E5B208DD062C14D00B4807F00A
:101CD000ADFC0DF804000134F0E755B19DF8023079
:101CE0004F2B08D19DF80300B0F14B0358425841E7
:101CF00002E0284600E0002003B030BD281F00208D
:101D000012DF000816DF000810B5012104461D206F
:101D100008F046F907484FF4165107F039FD204600
:101D20000121FFF74BFE20460121BDE81040FFF7DF
:101D3000B9BF00BF281F00202DE9F0419EB005ADBE
:101D40000C4607460021904628466422039309F07A
:101D5000B9F821462C4807F0E6FD642008F04CF95C
:101D60000024294807F0B6FC0028E6B207DD642C01
:101D700045D0254807F05AFC28550134F1E726B92B
:101D80002249234807F0EAFD39E09DF814300D2B75
:101D900035D19DF815300A2B31D11EAB334413F8E1
:101DA000653C0A2B2BD1023E1EAB334413F8643C36
:101DB0000D2B24D10021CCB2A31CDBB2B34201F124
:101DC000010107DA1EAA134413F8643C144404F812
:101DD000643CF0E738462946FFF720FE0A280CD17C
:101DE00003AB00933846294622464346FFF724FFBB
:101DF00000280CBF0320022002E0012000E00320A5
:101E00001EB0BDE8F08100BF281F00201CDF0008C5
:101E1000101F00202DE9F041B2B006460D46904655
:101E20000021642268461F4609F04CF819A80021D9
:101E3000642209F047F80024E3B2E85C013420B1E1
:101E400032AA134403F8640CF6E70146CAB25D18DF
:101E500018F80240EDB232AA01312A4414B102F856
:101E6000644CF3E70D2302F8643C6B1C32A8DBB230
:101E700003442F480A2203F8642C036819A95B68FD
:101E800098472C48AA1C036819A99B68D2B29847A6
:101E9000642008F0B1F8274807F01CFC0028E5B2E0
:101EA00008DD642C3FD0234807F0C0FB0DF8040088
:101EB0000134F0E7002D36D09DF800300D2B32D1E3
:101EC0009DF801300A2B2ED132AB2B4413F8C93CBC
:101ED0000A2B28D1023D32AB2B4413F8C83C0D2B02
:101EE00021D100218B1CDBB2AB4201F1010209DAE6
:101EF00032A8034413F8C83CC9B2014401F8C83CF5
:101F00001146EFE730466946FFF788FD0A2808D1F9
:101F1000304669463A46FFF79DFD80F00100C0B2A9
:101F200002E0012000E0032032B0BDE8F08100BFF4
:101F3000101F0020281F0020F7B51E460446174634
:101F40000D4600218DF80710FFF7ACFE06F0F2FDFC
:101F5000204631462FB12A460DF10703FFF7ECFE6C
:101F600003E0089A2B46FFF755FF03282AD8DFE83D
:101F700000F011040207002311E01648164901E0A1
:101F80001448164907F0EAFC20460121FFF78AFEB3
:101F900000201CE012490F4807F0E0FC12E09DF819
:101FA00007205E1CDBB29A420A4809D9E95C10227C
:101FB00007F061FD07480B4907F0B5FC3346EEE733
:101FC00007F0B6FC20460121FFF76CFE012003B0AC
:101FD000F0BD00BF101F002030DF000841DF000807
:101FE0004ADF000805ED00082DE9F0438BB004AF8F
:101FF000804600210922384602AE002408F062FF24
:102000000094404631460122454BFFF795FF0546B7
:1020100020B94449444807F0A1FC7DE02346F25C26
:1020200007AC092A01D8303204E0A2F10A010529DF
:1020300098BF3732E2540133082BF0D14FF000093A
:102040003A488DF8249000F031FE024600284AD02C
:102050003749354807F082FC3448394600F094FD92
:1020600000283BD04B46E15CFA5C914248D10133F9
:10207000082BF8D12F492C4807F070FC2E492A482C
:1020800007F051FC9DF81610274807F047FC9DF813
:102090001710254807F042FC9DF81410224807F05D
:1020A0003DFC9DF81510204807F038FC9DF81210F3
:1020B0001D4807F033FC9DF813101B4807F02EFC59
:1020C0009DF81010184807F029FC9DF811101648CB
:1020D00007F024FC144807F02BFC1DE017491248B8
:1020E00007F03CFC07E0009440463146144BFFF7F4
:1020F00023FF054680B121460C4800F095FD0AE01B
:102100001049094807F02AFC009740463146002252
:102110000B4BFFF711FF054628460BB0BDE8F083D7
:1021200060DF00086BDF0008101F00203D1E00204C
:102130008BDF000813E000083DE00008A9DF00087D
:10214000CDDF0008D6DF00082DE9F04F89B002AFDF
:1021500007F10C068346894690461C46304600210E
:102160000A2208F0AFFE002C50D1C7F804D0584620
:10217000CDF80080314601224B46FFF7DDFE824656
:1021800008B1214606E04049404807F0E7FB3F48D8
:102190003F496FE0CCB218F804300131002BF9D17F
:1021A000E11D01F4FC71ADEB010D02A9D8B2A04212
:1021B00003D2F05CC8540133F8E70B46581AC0B29A
:1021C000A0420DD213F8010B092801D8303004E0E9
:1021D000A0F10A05052DF1D8373003F8010CEDE721
:1021E0000025EBB2A34243D24B5D013508EB05005D
:1021F00010F8010C9842F4D02649244807F0AEFBB1
:102200002248254907F0AAFB7B689D466C460023BF
:10221000DAB219F8021001330A29F9D1931D03F437
:10222000FC73ADEB030DA2F1020E02AB0020C1B2B4
:10223000551EA94200F1010003DA19F801505D545E
:10224000F5E700223D215A55584603F80E10CDF807
:1022500000803146FFF770FE054628B90B480F494C
:1022600007F07CFBAA4601E04FF0010AA54605E015
:1022700006480B4907F072FB7B689D4650461C37A9
:10228000BD46BDE8F08F00BF4BE00008101F0020E6
:1022900071E0000895E00008ECE000082EE100087D
:1022A00063E100087FB50F2204460D466846002111
:1022B00008F008FE6848694907F050FB0A2606F056
:1022C00039FC002D78D12046FFF78EFE64498DF849
:1022D0000000644A2B462046FFF736FF62498DF81E
:1022E0000100624A2B462046FFF72EFF60498DF819
:1022F0000200604A2B462046FFF726FF5E498DF814
:1023000003005E4A2B462046FFF71EFF5C498DF80E
:1023100004005C4A2B462046FFF716FF8DF80500A7
:10232000594800F013FCF1285849204608D1584A72
:102330002B46FFF709FF57498DF80600464807E08E
:102340004A4A2B46FFF700FF53498DF806004248E2
:1023500007F004FB5149524A00232046FFF7F4FEE0
:1023600050498DF807004E4A00232046FFF7ECFE47
:102370004D498DF80800464A00232046FFF7E4FE49
:102380004A498DF809004A4A00232046FFF7DCFE3F
:1023900048498DF80A00484A00232046FFF7D4FE3A
:1023A000324A8DF80B00454920460023FFF7CCFE4A
:1023B0000D228DF80C000EE0334800F0C7FBF12829
:1023C0000CBF334A294A204630490023FFF7BCFEA0
:1023D00001228DF8000000231DF80310A9B9384927
:1023E0001D4807F0BBFA2046FFF78EFC2046FFF79A
:1023F000F5FA06F09FFB2046FFF786FC4FF4FA60E3
:1024000007F0FAFD06F096FB05E00133D9B29142E0
:10241000E2D304B070BD2B4807F05CF9002803DD5F
:10242000284807F003F9F6E7013E16F0FF067FF4AF
:1024300046AF2549084807F091FA2449064807F0B5
:102440008DFA40F6B83007F0D7FD06F073FB04B004
:10245000BDE8704006F0A2BB101F00208BE1000811
:10246000BAE10008C6E10008CFE10008CCE10008AD
:10247000D9E10008E5E10008EEE10008FAE1000812
:1024800003E200080EE200083D1E002011E20008F1
:102490001BE200081EE200082BE2000838E20008F8
:1024A00042E2000845E200084FE2000859E2000855
:1024B00062E2000865E200086FE2000872E20008CC
:1024C0007CE20008281F002099E20008C5E200080D
:1024D0001520012107F064BD1520002107F060BD23
:1024E00010B500210446152007F0F4FC1520012149
:1024F00007F056FD2046BDE81040FDF73DBF7FB513
:1025000005460E46FFF7E8FF0D24331921462846FD
:1025100013F80D2C0134FDF75FFF162CF5D1304672
:10252000092104F0FFFD0646214628463246FDF704
:1025300053FF0D2421462846FDF720FF01AB23441D
:102540000134162C03F80D0CF4D101A8092104F074
:10255000E9FDB04203D0FFF7BBFF00200DE02846A5
:102560000B21FDF70BFF552804D028460B215522DF
:10257000FDF732FFFFF7ACFF012004B070BD7FB55F
:1025800005460E46FFF7A8FF1724331921462846B3
:1025900013F8172C0134FDF71FFF202CF5D130461E
:1025A000092104F0BFFD0646214628463246FDF7C4
:1025B00013FF172421462846FDF7E0FE01AB234414
:1025C0000134202C03F8170CF4D101A8092104F0E0
:1025D000A9FDB04203D0FFF77BFF00200DE02846A5
:1025E0000C21FDF7CBFE552804D028460C2155229E
:1025F000FDF7F2FEFFF76CFF012004B070BDF0B5EF
:1026000085B001AD06460F4628460021092208F094
:1026100059FC0D2421463046FDF7B0FE2B1901343C
:10262000162C03F80D0CF5D121463046FDF7A6FE19
:1026300009210446284604F075FD844206D1002392
:10264000EA5CFA540133092BFAD101E0002000E0E2
:10265000012005B0F0BDF0B585B001AD06460F46CE
:1026600028460021092208F02DFC17242146304677
:10267000FDF784FE2B190134202C03F8170CF5D13B
:1026800021463046FDF77AFE09210446284604F02B
:1026900049FD844206D10023EA5CFA540133092B38
:1026A000FAD101E0002000E0012005B0F0BD37B50F
:1026B0000C461E210546FDF761FE1F218DF8040022
:1026C0002846FDF75BFE02218DF8050001A804F005
:1026D00029FD207003B030BD10B50B210446FDF775
:1026E0004DFE88B1FFF7F8FE204600220B21FDF7D2
:1026F00073FEFFF7EDFE20460B21FDF73FFED0F104
:10270000010038BF002010BD012010BD10B50C2104
:102710000446FDF733FE88B1FFF7DEFE20460022B7
:102720000C21FDF759FEFFF7D3FE20460C21FDF7E3
:1027300025FED0F1010038BF002010BD012010BDE2
:1027400010B521210446FDF719FE552811D0FFF7D9
:10275000C3FE204655222121FDF73EFEFFF7B8FEBD
:1027600020462121FDF70AFEB0F155035842584199
:1027700010BD012010BD08B52121FDF7FFFDB0F10E
:1027800055035842584108BD70B504460D46FFF741
:1027900036FF20B120462946FFF75DFF48BB2046A3
:1027A0002946FFF72CFF48B11549164807F0D6F81F
:1027B00020462946BDE87040FFF7E1BE2046294685
:1027C000FFF749FF06460F4846B10F4907F0C6F824
:1027D00020462946BDE87040FFF791BE0B4907F03F
:1027E000BDF82046FFF778FF2046FFF78FFF304601
:1027F00070BD0749034807F0B1F8012070BD00BF64
:10280000EEE20008101F002025E300085CE300084A
:1028100070E30008F8B504460E462F2573192046CC
:10282000294613F82F7CFDF7A9FD874203D1013516
:10283000342DF3D136E0FFF74FFE2F2573192946CB
:10284000204613F82F2C0135FDF7C6FD342DF5D1A8
:102850000521304604F066FC0746294620463A46E4
:10286000FDF7BAFD2F2520462946FDF787FD731990
:1028700013F82F3C834217D10135342DF3D1204674
:102880002946FDF77BFDB8420ED120463521FDF7E4
:1028900075FD552804D0204635215522FDF79CFDB5
:1028A000FFF716FE0120F8BDFFF712FE0020F8BD6D
:1028B000F7B505460E462F2421462846FDF75EFD56
:1028C00000AB23440134342C03F82F0CF4D1052140
:1028D000684604F027FC214607462846FDF74EFDD2
:1028E000874207D100231DF80320F2540133052B42
:1028F000F9D101E0002000E0012003B0F0BD73B584
:1029000005462F2421462846FDF738FD00AB234419
:102910000134342C03F82F0CF4D16846052104F05F
:1029200001FC214606462846FDF728FD331A584289
:10293000584102B070BD38B50546FFF7CDFD2F24D4
:1029400028462146FDF71AFD68B128462146002297
:10295000FDF742FD28462146FDF710FD18B1FFF7AF
:10296000B7FD002038BD0134342CE9D1284635218B
:10297000FDF704FD20B1284635210022FDF72CFD8E
:10298000FFF7A6FD012038BD37B50D468DF80710BD
:1029900036210446FDF7F2FC85422BD002ADFFF74D
:1029A0009BFD15F8012D20463621FDF715FD01216F
:1029B000284604F0B7FB372102462046FDF70CFD00
:1029C00020463621FDF7DAFC9DF8073083420DD111
:1029D00020463821FDF7D2FC552804D02046382166
:1029E0005522FDF7F9FCFFF773FD03E0FFF770FDDB
:1029F000002000E0012003B030BD3621FDF7BEBC51
:102A000037B536210546FDF7B9FC02AB03F8010DD9
:102A10001846012104F086FB372104462846FDF7BD
:102A2000ADFC231A5842584103B030BD10B53621D1
:102A30000446FDF7A3FC88B1FFF74EFD2046362182
:102A40000022FDF7C9FC20463621FDF797FC18B19E
:102A5000FFF73EFD002010BDFFF73AFD012010BD3D
:102A600010B548210446FDF789FC552811D0FFF721
:102A700033FD204655224821FDF7AEFCFFF728FD27
:102A800020464821FDF77AFCB0F1550358425841E1
:102A900010BD012010BD10B54D210446FDF76EFCA0
:102AA000552810D0FFF718FD204655224D21FDF77F
:102AB00093FCFFF70DFD20460021FDF75FFC003081
:102AC00018BF012010BD012010BD000037B58DF8E2
:102AD00007101031C9B20129044629D84C21FDF74D
:102AE0004DFC9DF80730834228D002ADFFF7F4FC7F
:102AF00015F8012D20464C21FDF76EFC01212846DA
:102B000004F010FB4E2102462046FDF765FC2046EE
:102B10004C21FDF733FC9DF80730834205D1204658
:102B2000FFF7B9FFFFF7D4FC08E0FFF7D1FC03E0A3
:102B30000448054906F012FF002000E0012003B020
:102B400030BD00BF101F0020A0E3000837B54C21A6
:102B50000446FDF713FC02AB03F8010D18460121F2
:102B600004F0E0FA4E2105462046FDF707FC8542B9
:102B700002D19DF8070004E02046F021FFF7A6FFF0
:102B8000F02003B030BD0000F7B505460E464F24D7
:102B900021462846FDF7F2FB00AB23440134572CB5
:102BA00003F84F0CF4D10821684604F0BBFA214623
:102BB00007462846FDF7E2FB87420CD100231DF8AB
:102BC0000320F2540133082BF9D10448044906F0DC
:102BD000C5FE012000E0002003B0F0BD101F002062
:102BE000D6E3000810B558210446FDF7C7FB552869
:102BF00008D0FFF771FC204658215522FDF7ECFB69
:102C0000FFF766FC10BD10B558210446FDF7B6FB72
:102C100040B1FFF761FC204658210022FDF7DCFBA4
:102C2000FFF756FC10BD0000F7B50F460546FFF74D
:102C300053FC3846082104F075FA4F2406463B1928
:102C40002146284613F84F2C0134FDF7C5FB572CBD
:102C5000F5D1214628463246FDF7BEFB4F242146DA
:102C60002846FDF78BFB00AB23440134572C03F8B7
:102C70004F0CF4D16846082104F054FA864206D07D
:102C80002846FFF7C0FFFFF723FC002007E00549B7
:102C9000054806F063FE2846FFF7A4FF012003B0B5
:102CA000F0BD00BFEBE30008101F002008B558215D
:102CB000FDF764FBB0F155035842584108BD70B5AB
:102CC00004460E461546FFF707FC204632462221F1
:102CD000FDF782FB204623212A46FDF77DFBFFF707
:102CE000F7FB70BDFDF74ABBFDF748BB70B5044666
:102CF0000E461546FFF7F0FB204632462421FDF72D
:102D00006BFB204625212A46FDF766FBFFF7E0FB1B
:102D100070BD10B50446FFF7DFFB20465522592150
:102D2000FDF75AFBFFF7D4FB20465921FDF726FBA0
:102D3000B0F155035842584110BD08B55921FDF76F
:102D40001DFBB0F155035842584108BD10B504466B
:102D5000FFF7C2FB204600225921FDF73DFBFFF79C
:102D6000B7FB20465921FDF709FBD0F1010038BF20
:102D7000002010BD73B5002305460E460093019355
:102D8000FFF7AAFB5A2433192146284613F85A2C78
:102D90000134FDF721FB622CF5D13046082104F007
:102DA000C1F90646214628463246FDF715FB5A244E
:102DB00021462846FDF7E2FA00AB23440134622C99
:102DC00003F85A0CF4D10821684604F0ABF9044624
:102DD000FFF77EFBB442064804D1064906F0BEFD6B
:102DE000012003E0044906F0B9FD002002B070BDE7
:102DF000101F002000E400082EE4000838B509493F
:102E00000546094806F0AAFD5A2421462846FDF742
:102E1000B5FA064B1A190134622C02F85A0CF4D197
:102E2000184638BD5FE40008101F0020401E002037
:102E300073B5002305460E4600930193FFF74CFB44
:102E4000632433192146284613F8632C0134FDF717
:102E5000C3FA6B2CF5D13046082104F063F906461D
:102E6000732128463246FDF7B7FA632421462846E7
:102E7000FDF784FA00AB234401346B2C03F8630C98
:102E8000F4D10821684604F04DF90446FFF720FB11
:102E9000B442064804D1064906F060FD012003E073
:102EA000044906F05BFD002002B070BD101F002039
:102EB00097E40008C5E4000870B50E467421044686
:102EC0001546FDF75BFAB04205D120467521FDF7A6
:102ED00055FAA84219D0FFF7FFFA2046742132466E
:102EE000FDF77AFA204675212A46FDF775FAFFF7B5
:102EF000EFFA20467421FDF741FAB0420BD120468B
:102F00007521FDF73BFAA84205D10649064806F0AF
:102F100025FD012070BD0549034806F01FFD002076
:102F200070BD00BF3DE50008101F00205FE50008F0
:102F300010B50446FFF7D0FA204674210022FDF7B1
:102F40004BFA204675210022FDF746FAFFF7C0FA3A
:102F500020467421FDF712FA20B920467521FDF7AD
:102F60000DFA28B10549064806F0F8FC002010BD0E
:102F70000449034806F0F2FC012010BD81E5000879
:102F8000101F0020A4E5000870B50E467A21044603
:102F90001546FDF7F3F9B04205D120467B21FDF738
:102FA000EDF9A84219D0FFF797FA20467A21324668
:102FB000FDF712FA20467B212A46FDF70DFAFFF7AE
:102FC00087FA20467A21FDF7D9F9B0420BD1204685
:102FD0007B21FDF7D3F9A84205D10649064806F042
:102FE000BDFC012070BD0549034806F0B7FC002078
:102FF00070BD00BF71E60008101F00209DE60008AC
:1030000038B57A210546FDF7B9F97B2104462846F3
:10301000FDF7B4F900EB042038BD000070B50E4692
:10302000782104461546FDF7A9F9B04205D120469E
:103030007921FDF7A3F9A84219D0FFF74DFA2046F0
:1030400078213246FDF7C8F9204679212A46FDF756
:10305000C3F9FFF73DFA20467821FDF78FF9B0421A
:103060000BD120467921FDF789F9A84205D10649FF
:10307000064806F073FC012070BD0549034806F0C0
:103080006DFC002070BD00BF23E70008101F00206A
:103090004FE7000838B578210546FDF76FF979212B
:1030A00004462846FDF76AF900EB042038BD00000D
:1030B00070B50E467C2104461546FDF75FF9B04217
:1030C00005D120467D21FDF759F9A84219D0FFF717
:1030D00003FA20467C213246FDF77EF920467D2109
:1030E0002A46FDF779F9FFF7F3F920467C21FDF731
:1030F00045F9B0420BD120467D21FDF73FF9A842AA
:1031000005D10649064806F029FC012070BD054995
:10311000034806F023FC002070BD00BFD5E700087F
:10312000101F002005E8000838B57C210546FDF792
:1031300025F97D2104462846FDF720F900EB0420FF
:1031400038BD00007FB532490546324806F006FC1E
:10315000304806F0A3FA05F0EDFC41F2883006F0A5
:103160004BFF05F0E7FC2B4806F0B4FA00280ADD17
:10317000284806F05BFAC1B2274806F089FD022014
:1031800006F03AFFEFE7244CA668002E34D0204624
:1031900006F087FE21461F4806F0D6FB1F4901A80E
:1031A00006F0E9FC01A9204606F005FE064601A846
:1031B00006F09FFC1748EEB1194906F0CFFB1949FC
:1031C000204606F003FD28462121FDF7D7F840B13F
:1031D000FFF782F9284621210022FDF7FDF8FFF7CD
:1031E00077F928462121FDF7C9F8D0F1010038BF51
:1031F00000200AE00C4901E006480C4906F0AEFB4D
:103200002046084906F0E2FC304604B070BD00BF1D
:1032100097E80008101F0020B41E0020E8E800080E
:10322000ECE800080DE2000822E900084DE900087A
:103230000022026042607047006820B103688B4240
:1032400001D08068F9E7704770B504460C20164637
:103250000D4607F025FB00228260226880E86000AE
:103260000AB9206001E062689060606070BD10B5CE
:103270001446FFF7E1FF08B14460012010BD08B516
:10328000FFF7DAFF00B1406808BD01F51C4141318C
:10329000FFF7DABF01F51C414131FFF7E8BF01F547
:1032A0001C414131FFF7EBBF002A01F1010114BFBE
:1032B0004FF47F420022FFF7C7BF002A01F51C51DF
:1032C00001F1110114BF4FF47F420022FFF7BCBF90
:1032D00001F5EA413131FFF7B7BF002A01F10101E1
:1032E00014BF4FF47F420022FFF7C1BF002A01F54F
:1032F0001C5101F1110114BF4FF47F420022FFF76E
:10330000B6BF01F5EA413131FFF7B1BF08B5013170
:10331000FFF7B5FFB0F57F435842584108BD01F5AE
:103320001C5108B51131FFF7AAFFB0F57F43584291
:10333000584108BD01F5EA413131FFF7A0BF000057
:1033400070B504460D4609480949164606F006FBC5
:10335000A06807F0ADFA0220207307F0A1FA803DC3
:103360000323A06005704670637370BD101F0020BA
:1033700070E90008F8B5531E7C2B04460F4616462C
:1033800002D903210A4617E001F51C414131FFF73C
:1033900053FF18B92046032102220DE0A06807F070
:1033A00087FA701C4000C0B2207307F079FAA06061
:1033B00030B9204603210422BDE8F840FFF7C0BF22
:1033C00003230370237B0025023B4370E919204649
:1033D000FFF765FFA3680135020A03F81520A3680B
:1033E000B54203EB45035870F0D103236373F8BD76
:1033F00070B504460E461546FFF74CFF18B9204637
:103400000621022208E020463146FFF748FFA84285
:1034100006D0204606210422BDE87040FFF790BF89
:103420000223637370BD2DE9F8431F4616467A1ECA
:103430007A2A044688469DF8203002D8B3EB470F1D
:1034400003D02046102103221CE006F51C4541351F
:1034500005EB070920462946FFF7EEFE18B920467E
:10346000102102220EE001354D45F3D1A06807F08E
:103470001FFA0520207307F013FAA06030B9204628
:1034800010210422BDE8F843FFF75ABF1023037050
:10349000330A4370002307718670C37008F1060574
:1034A0003744BE4205F102050BD015F8022C15F881
:1034B000013C3146204643EA0222FFF7EBFE01368B
:1034C000EFE703236373BDE8F8832DE9F843531E48
:1034D000B3F5FA6F04460F46154602D301210322C5
:1034E00019E00131FFF7A8FE18B920460121022298
:1034F00011E0A06807F0DCF9C5F3C7036A070CBF49
:10350000023303332373207B07F0CAF9A06030B97C
:10351000204601210422BDE8F843FFF711BF012333
:103520000370237B05EB0708023B43703E460025F2
:1035300046451CD031462046FFF7E8FEC7F1010999
:10354000B1444FEAD909012109F10203A268A94057
:1035500010B1D05C014302E0D05C20EA01010135EA
:10356000EDB2082DD15408BF00250136E0E7032352
:103570006373BDE8F88300002DE9F843531EB3F5EB
:10358000FA6F04460F46154602D3022103221FE0BC
:1035900001F51C511131FFF74FFE18B920460121EA
:1035A000022215E02249234806F0D8F9A06807F066
:1035B0007FF9C5F3C7036A070CBF023303332373D4
:1035C000207B07F06DF9A06030B92046022104226B
:1035D000BDE8F843FFF7B4BE02230370237B05EB7D
:1035E0000708023B43703E46002546451CD0314645
:1035F0002046FFF794FEC7F10109B1444FEAD9090B
:10360000012109F10203A268A94010B1D05C014375
:1036100002E0D05C20EA01010135EDB2082DD15461
:1036200008BF00250136E0E703236373BDE8F88394
:1036300093E90008101F0020F8B5531E7C2B0446A8
:103640000F46164602D90421032217E001F5EA418C
:103650003131FFF7F1FD18B92046012102220DE0BA
:10366000A06807F025F9701C4000C0B2207307F075
:1036700017F9A06030B9042120460A46BDE8F84099
:10368000FFF75EBE04230370237B0025023B4370DB
:10369000E9192046FFF74EFEA3680135020A03F838
:1036A0001520A368B54203EB45035870F0D10323FE
:1036B0006373F8BD70B5B2F57F4F86B004460E4611
:1036C00003D012B10521032215E0151C18BF0125F6
:1036D000204631462A46FFF700FE18B9204605214C
:1036E000022208E020463146FFF710FEA84205D02E
:1036F000204605210422FFF723FE17E00C49684607
:1037000006F039FA694603A806F056FA094903A8F3
:1037100006F00BFB0146084806F016F903A806F070
:10372000E8F9684606F0E5F90223637306B070BD58
:10373000BDE90008D5E90008101F00202DE9F0437D
:103740008BB00446894604A86C49DF081D4616461E
:1037500006F011FA04A907A806F02EFA394607A8C0
:1037600006F009FB0146664806F0EEF807A806F0E9
:10377000C0F904A806F0BDF96B0705F1FF3318BFC7
:103780000137B3F5F66F03D29DF84830BB4207D03E
:103790005C495B4806F0E2F820460F2103224DE029
:1037A000771C07EB050820463946FFF745FD18B999
:1037B00020460F21022241E001374745F3D150480E
:1037C000514906F0CBF80627504901A806F0D3F975
:1037D00001A904A806F0F0F9394604A806F0CBFACE
:1037E0004B4906F0A2FA102219F80710804607A8E4
:1037F00006F0FDF907A9404606F08AFA014640485E
:1038000006F0A2F807A806F074F904A806F071F90A
:10381000013701A806F06DF9102FD5D13A49384883
:1038200006F09CF8A06807F043F80520207307F025
:1038300037F8A06028B920460F210422FFF780FD49
:1038400058E00F230370330A43702B0A8670C3704D
:1038500005712D492A4806F081F806272B4901A851
:1038600006F089F901A904A806F0A6F9394604A8CA
:1038700006F081FA264906F058FA102219F80710C6
:10388000804607A806F0B3F907A9404606F040FABB
:1038900001461B4806F058F807A806F02AF904A8C4
:1038A00006F027F9013701A806F023F9102FD5D12A
:1038B0001348154906F052F83544B0460027C6EBC8
:1038C000080309EBD3039A7941463A410137FFB225
:1038D000204602F00102FFF700FD08F10108082F61
:1038E00008BF0027A845EAD105480A4906F036F87E
:1038F000032363730BB0BDE8F08300BFE7E9000862
:10390000101F0020F9E900088FF4000812EA0008EF
:1039100028DC000819EA00082DE9F0418B784F787F
:103920008CB0CE7843EA07270B7991F800800C46DB
:103930000546544903A843EA062606F01CF903A9E4
:1039400009A806F039F91022217806A806F04FF9E7
:1039500006A909A806F0DCF901464B4805F0F4FF7A
:1039600006A806F0C6F809A806F0C3F803A806F0F2
:10397000C0F8464903A806F0FEF803A909A806F016
:103980001BF91022394606A806F054F906A909A821
:1039900006F0BEF901463C4805F0D6FF06A806F041
:1039A000A8F809A806F0A5F803A806F0A2F8384977
:1039B00003A806F0E0F803A909A806F0FDF8102214
:1039C000314606A806F036F906A909A806F0A0F9BE
:1039D00001462D4805F0B8FF06A806F08AF809A8A8
:1039E00006F087F803A806F084F808F1FF330F2BE0
:1039F0003FD8DFE803F01D230E292F083E3E3E3E50
:103A00003E3E3E3E3514284639463246FFF7F0FC2E
:103A100034E0284639463246FFF7ACFC2EE06379A5
:103A20002846009321463A463346FFF7FCFC25E042
:103A3000284639463246FFF748FD1FE028463946FA
:103A40003246FFF799FD19E0284639463246FFF71E
:103A5000F3FD13E0284639463246FFF72BFE0DE012
:103A600063792846009321463A463346FFF766FEBF
:103A700004E0284641460122FFF762FC0CB0BDE895
:103A8000F08100BF28EA0008101F002034EA000877
:103A90003EEA000810B50446FFF7CAFB204610BDF9
:103AA00080F828100120704770B5049E0161C6613E
:103AB0000446154608461146DAB205F02DFE4FF4CD
:103AC000FA6006F099FA002E08DBF6B230460021C3
:103AD00006F000FA3046002106F062FAB5F5964F7E
:103AE00006DD40F2EE23236240F2D663636207E014
:103AF000044B93FBF5F32362034B93FBF5F56562EF
:103B0000012070BDC0E1E400C00E160270B504468D
:103B1000C06986B000280D4606DBC0B2012106F060
:103B20003FFA012006F068FA0023227B5E1CDBB21C
:103B30009A421FD9194A1068411C1160E95C184A61
:103B40001154D15C6846102206F051F8694603A86A
:103B500006F032F8134903A806F0E7F801461248C8
:103B600005F0D4FE03A805F0C4FF684605F0C1FFC8
:103B70003346DAE70D490C4805F0F0FE206903688A
:103B80009B699847606A06F045FAE069002803DB04
:103B9000C0B2002106F004FA06B070BD601E00201D
:103BA0004A1E002005ED0008101F002048EB000809
:103BB000F0B5C9430B4EC9B2705C0B4DC0436C5C91
:103BC000C0B20021AC46CFB2BB4207D0555C013138
:103BD0004540705D60401CF80540F4E744EA002071
:103BE000F0BD00BF48EA0008F8EB00082DE9F041FD
:103BF0000D78037BFF2D01EB030204460E4612F8FD
:103C0000028C12F8017C03D090F82820AA4219D126
:103C1000A268033B204612F8011BDBB2FFF7C8FF86
:103C200047EA0827874202D00A480B490CE02046A1
:103C3000711CFFF771FEFF2D4FF0010007D160737B
:103C4000BDE8F0810348054905F088FE0020BDE885
:103C5000F08100BF101F002070EB00089CEB0008F3
:103C6000F8B50446C0690F46002806DBC0B2012142
:103C700006F096F9012006F0BFF9194D19491A48C6
:103C800005F06CFE194E2B6894F828105A1CF1545C
:103C9000237B2A600022D0B298420AD2286800F121
:103CA000010EC5F800E017F802E0013206F800E066
:103CB000F1E7A2682046FFF77BFF2B68020AF25467
:103CC0001E449A1C7070606A2A6006F0A3F9E069CD
:103CD000002803DBC0B2002106F062F9F8BD00BF86
:103CE000601E0020CCEB0008101F00204A1E0020A0
:103CF000D2B238B504460D460273002A3ED02049A0
:103D0000204805F02BFE207B06F0CAFD0023A060B2
:103D1000227B591CDBB29A4204D9E85CA268D054D9
:103D20000B46F5E71748184905F018FE0025237BD8
:103D30009D4207D2A3681348595D102205F0A4FEE6
:103D40000135F4E710490F4805F008FE2046A16848
:103D5000FFF74CFF68B1637B032B04D12046A168B9
:103D6000FFF77EFF05E0022B03D12046A168FFF795
:103D7000CDFEA06806F09CFD0023237338BD00BF74
:103D8000ECEB0008101F00201FEA000808B5032014
:103D900004F01CFB014B01221A7008BD6D1E0020AF
:103DA00070B55E480D46097803F0C0FB6978064699
:103DB0005A4803F0BBFB06EB8606594C06EB860619
:103DC00000EB8600E080A978544803F0AFFB6071F7
:103DD000E978524803F0AAFB207129794F4803F093
:103DE000A5FB6979A0704D4803F0A0FBA97960702C
:103DF0004A4803F09BFB4B4920704B4805F093FD6C
:103E0000E1880A22484805F01EFE4849464805F068
:103E10008AFD61790A22444805F036FE4449424849
:103E200005F081FD21790A223F4805F02DFE414928
:103E30003D4805F078FDA1780A223B4805F024FEB4
:103E40003D49394805F06FFD61780A22364805F092
:103E50001BFE3A49344805F066FD0A2221783248B3
:103E600005F012FE04F0E8FD642006F0C5F82046D7
:103E7000FCF724FA0146324804F0C6F9642006F043
:103E8000BBF804F0DFFD2E4804F0C1F901462046DE
:103E9000FCF788F9E1886423B1FBF3F1C9B21F484C
:103EA00003F03BFB2870E2884FF47A73B2FBF3F126
:103EB00003FB11211948C9B203F02FFB6870617927
:103EC000164803F02AFBA8702179144803F025FB5B
:103ED000A178E870114803F020FB617828710F4841
:103EE00003F01BFB217868710C4803F016FB0024DB
:103EF000A871295D10220C4805F0BDFD01340A4867
:103F0000104905F010FD072CF3D1074805F010FD0E
:103F1000BDE8704004480C4905F020BD011F002099
:103F2000641E0020F8EC0008101F0020FFEC0008C1
:103F300007ED00080DED000814ED00081EED000867
:103F40006E1E002005ED000828ED000870B51B4826
:103F500086B0FCF7B3F91A4C054604F06DFD0A2053
:103F600006F04AF82946204604F04EF9204604F0AF
:103F70004EF9144D14492A688618684605F0FBFD71
:103F8000694603A805F018FE296803A805F0F3FEAA
:103F900001460E4805F0D8FC03A805F0AAFD6846C6
:103FA00005F0A7FD0A493246204604F032F90A20FE
:103FB00006F022F804F046FD06B070BD641E002035
:103FC0006E1E0020001D00204BED0008101F002079
:103FD0008D3D00080148112104F00DB96E1E00202E
:103FE000154B10B51A6886B001321A601A68B2F51E
:103FF000615F04D300221A60104B01221A70104C2A
:10400000684623680F490133236005F0B4FD694613
:1040100003A805F0D1FD216803A805F0ACFE014618
:10402000094805F091FC03A805F063FD684605F01A
:1040300060FD06B010BD00BF741E0020C11E002030
:10404000701E0020CDED0008101F002070B50D4C33
:104050002368013323600C4B1D7845B10B4825685C
:10406000FFF718F885420CD30023236006E00748C9
:104070002668FEF7C5FF864203D32560044B012264
:104080001A7070BD781E0020E2190020491E002021
:10409000061F002010B5084C0849204605F0C1FB5A
:1040A00020460121064A05F0DBFB20460021BDE841
:1040B000104005F0ADBB00BF0820002040420F00BB
:1040C0004D40000810B5084C0849204605F0A9FBF2
:1040D00020460121064A05F0C3FB20460021BDE829
:1040E000104005F095BB00BF1020002040420F009B
:1040F000E13F000810B5054C204605F07BFB20464B
:104100000021BDE8104005F083BB00BF082000205F
:1041100010B5054C204605F06DFB20460021BDE89A
:10412000104005F075BB00BF0C20002010B5064CF8
:10413000204605F05FFB2046002105F069FB034B9C
:1041400000221A6010BD00BF10200020701E002049
:10415000014805F047BB00BF08200020014805F0DA
:1041600041BB00BF0C20002008B5034805F03AFB16
:10417000024B00221A6008BD10200020701E002093
:1041800010B5064C0649204605F0F5FC20460549C9
:10419000054ABDE8104006F051B800BFB41E00202B
:1041A0000DE20008F39A00080800002030B54A48E4
:1041B00085B0FEF7E0FA002846D1484B4849187010
:1041C0004548FEF79CF928B143484549FEF7D7F921
:1041D000002877D14048FEF729FC20B13E48FEF781
:1041E000AAFB002873D101238DF804303A4800233C
:1041F00001A98DF805308DF806308DF807308DF85F
:104200000830FEF707FB18B13648374905F0A6FB22
:1042100031480121FEF7B8FB18B13248334905F0A7
:104220009DFB33492F4805F099FB32492D4805F095
:1042300095FB09E0304CA368EBB92F482C4905F0F9
:10424000C5FC2E48FDF7C6FA2348FEF794FA00286D
:1042500033D104F06FFC234805F03CFA0028E9DD77
:10426000204805F0E3F9C1B2234805F011FD022012
:1042700005F0C2FEEFE7204605F013FE214619487F
:1042800005F062FB1E4901A805F075FC204601A956
:1042900005F091FD054601A805F02BFC55B1144928
:1042A000204605F093FC0F48164905F057FB1648C9
:1042B00003F094F904F03EFCBFE7084B01221A70AA
:1042C00005B030BD1149074805F048FB82E71049A9
:1042D000044805F043FB86E73F1E00200D00002048
:1042E0007C1E0020101F0020DBED000818EE0008E7
:1042F0000DE2000854EE0008B41E0020D019002082
:10430000EAE8000897EE0008071F0020DAEE000830
:104310000EEF000870B504F00DFC194B1B7843BB81
:1043200070BD184C18482678184D731C237005F082
:104330007DF9A855022005F05FFE2378132B0CD9D8
:1043400004F0F8FB002612491248267005F006FB1F
:1043500028463146142206F0B5FD23780D481D4449
:1043600015F8011C102205F086FB0A480A4905F0E1
:10437000DAFA054805F0AEF90028D2DC70BD00BFBE
:104380009D1E00208D1E0020401F00209E1E00202C
:1043900055EF0008101F002087EF000830B5864851
:1043A0008DB002F0D6FE854801F0E6FA844B062077
:1043B0001A684FF4FA6122F0E06242F080621A60FB
:1043C00004F0A8FB7F484FF4E13105F0E1F97E48A5
:1043D0004FF41651FDF7ECFA7C48372105F076FBD7
:1043E0004FF416517A4805F0D3F904F018FB7948D8
:1043F000FEF776F8704802F04FFF04F09BFB72481E
:10440000FDF7B2FA01217048FDF74CFC724D4FF4F4
:10441000FA6005F0F1FD002470482C70FDF7DAF920
:1044200001232B7004F086FBF1216D48FEF74EFB53
:1044300021466548FDF736FF6948FEF711FB6949DB
:10444000604805F08BFA68482221FEF74DFC0328EE
:10445000044605D164482321FEF746FC0546E0B139
:10446000002261480321FEF72AFC6049684605F0F6
:1044700082FB694606A805F09FFB1022032103A8D2
:1044800005F0C6FB03A906A805F042FC584905F053
:104490004CFC0021044609A816E05649684605F080
:1044A0006AFB694606A805F087FB2146102203A88F
:1044B00005F0AEFB03A906A805F02AFC4C4905F05F
:1044C00034FC2946044609A8102205F0A1FB204629
:1044D00009A905F01DFC01463A4805F035FA09A87E
:1044E00005F007FB03A805F004FB06A805F001FB97
:1044F000684605F0FEFA3C482421FEF7F3FB02284B
:10450000044616D138482521FEF7ECFB054680B954
:10451000394906A805F02FFB06A909A805F04CFBB0
:10452000214609A805F01DFC314905F0FEFB29468E
:1045300014E000222C480221FEF7D8FB2F4906A8E0
:1045400005F019FB06A909A805F036FB022109A808
:1045500005F007FC264905F0E8FB002105F001FC09
:104560000146184805F0F0F909A805F0C2FA06A8B6
:1045700005F0BFFAFFF7CEFE2148FEF7E3FDFFF797
:1045800015FE1F481F49FEF7FFF8002840D11549C6
:104590000C4805F0E3F91C490A4805F0DFF91B480F
:1045A00003F034F90D48FDF715F940F6B83002F084
:1045B000C7FF04F0BFFAE4E7001F0020C31E00207D
:1045C00004000140101F00203C1E0020281F002076
:1045D000401F0020481E00200C000020D0190020A1
:1045E0003D1E00200DE200083E1E0020E9F00008FC
:1045F000E9E3000834F100084AF1000860F100081E
:104600003F1E00207C1E002089EF0008071F0020AD
:104610003049314805F0A2F92F48304905F083F9B7
:1046200000242F4B1022195D2B4805F024FA013489
:1046300029482C4905F077F9092CF2D1264805F0D4
:1046400077F904F077FAFFF725FDFFF753FD2649C8
:10465000214805F083F925491F4805F07FF9FFF748
:104660007DFD23491C4805F079F920491A4805F0D9
:1046700075F9FFF727FDFFF777FD1E49164805F08E
:104680006DF91A49144805F069F902221A48012106
:1046900003F0D2FB1949104805F060F913490E48A0
:1046A00005F05CF9164802F06BFB164B1870164BC0
:1046B0001870134802F0AEFB144B15491860154BE7
:1046C0001860054805F04AF90849034805F046F91D
:1046D0000DB030BDBDEF0008101F0020D6EF000860
:1046E0007C1E002005ED0008E0EF00080DE2000848
:1046F0001DF0000854F00008071F00208CF000088F
:10470000C31E00208E1E0020851E0020881E002053
:10471000A1F00008941E002070B588B04F4804F046
:10472000D9FF00280ADD4D4804F080FFC1B24C4893
:1047300005F0AEFA022005F05FFCEFE7484CA368F5
:10474000002B00F08980204605F0ABFB2146434852
:1047500005F0FAF8434905A805F00DFA204605A929
:1047600005F056FB054605A805F0C3F9002D33D02A
:1047700020460021042205F07BFB204605F09DFB2E
:10478000394C02462060C2F307213848D2B2FEF706
:104790008FFC10B13148364901E03048354905F009
:1047A000DDF83248FEF7C0FC3349206002A805F06E
:1047B000E2F902A905A805F0FFF9216805A805F0AE
:1047C000DAFA0146254805F0BFF805A805F091F989
:1047D00002A805F08EF918E0284905A805F0CBF9E4
:1047E000204605A905F0E7FA054605A805F081F978
:1047F0006DB1234A1948137883F0010313700BB18C
:10480000204900E0204905F0A9F8154818E01F49A3
:1048100005A805F0B0F9204605A905F0CCFA064632
:1048200005A805F066F97EB119490C4805F096F81F
:104830000095184818490122184BFDF77DFB2046CA
:10484000174905F0C3F907E01549204605F0BEF900
:104850000248144905F082F808B070BD101F00200E
:10486000B41E0020ABF10008001D0020491E0020EE
:10487000B0F10008E8F1000866ED000823F2000836
:104880009D1E00202CF2000848F2000864F2000887
:104890006CF200083C1E0020021F002088F2000875
:1048A0000DE2000892F200082DE9F04F87B062484F
:1048B00004F010FF00280ADD5F4804F0B7FEC1B223
:1048C0005E4805F0E5F9022005F096FBEFE75B4C4A
:1048D000A368002B00F0AC80204605F0E2FA2146E8
:1048E000554805F031F8564903A805F044F920462B
:1048F00003A905F060FA054603A805F0FAF8002DB3
:1049000000F0948020464F4C4F4905F05FF9236832
:104910004E4901334848236005F020F84C49684669
:1049200005F029F9694603A805F046F9216803A8AE
:1049300005F021FA0146404805F006F803A805F005
:10494000D8F8684605F0D5F83F493B4805F006F829
:10495000FFF70AFC032003F039FD3E4A00231370E1
:104960003D4A3E4F13703E4A3B6013703D4A1D4620
:1049700013703D4A1E4613703C4AA34613703C4ACE
:1049800013703C4A13703C4A13703C4A13703C4A03
:1049900013703C4B0024EC503B4BDFF814A1EC505F
:1049A0003A4BDFF81091EC50394BDFF80C81EC50AA
:1049B000384BF0B2EC50384B0121EC50374B45F8F6
:1049C0000A40F454364B45F80940F454354B45F849
:1049D0000840F454344B0435F454013602F02EFBF5
:1049E0000C2ED6D1DBF8003013F0010313D02F4882
:1049F000FEF79AFB386014234AF804303C2349F848
:104A000004304FF6FF7348F804300434302CF2D1F0
:104A1000FFF78CFB0AE03B6000224AF8032049F8CC
:104A2000032048F803200433302BF5D104F082F83A
:104A300007B0BDE8F08F00BF101F0020B41E00209B
:104A4000BBF20008981E00200DE20008BDF200082D
:104A500000F30008B21E00206D1E0020001D002083
:104A6000C21E00209C1E0020EC1D0020911E002074
:104A7000B31E00208C1E0020901E00203417002042
:104A80004E170020F41D002090170020681D002004
:104A9000241C0020AC1D0020281D002035170020FC
:104AA000651C0020D21900200E000020491E0020A5
:104AB000BC1C002050170020781C00202DE9F0437A
:104AC000804E87B016F800900446B9F1000F40F010
:104AD000F480DFF83C827C4F18F80030002B00F0A7
:104AE0008C807A4D7A4A2B6852F820209342C0F08D
:104AF0008480012102F0A2FA7649684608F8049001
:104B000005F039F8694603A805F056F8214603A8D0
:104B100005F01DF9704905F008F901466F4804F0E9
:104B200013FF03A804F0E5FF684604F0E2FF6B48BA
:104B300004F0B4FD6A4B53F8242052B301233B55D3
:104B400068492B68684D41F824306846134467492A
:104B500045F8243005F00FF8694603A805F02CF855
:104B6000214603A805F0F3F8614905F0DEF855F891
:104B7000241005F000F90146584804F0E5FE03A8AA
:104B800004F0B7FF684604F0B4FF544804F086FD13
:104B900033E0584B584D53F824205849013A43F814
:104BA00024202B78684601332B7004F0E4FF69461B
:104BB00003A805F001F8297803A805F0C8F8014614
:104BC000464804F0C1FE03A804F093FF684604F0D1
:104BD00090FF424804F062FD2B780C2B08D13F482F
:104BE000474904F0BBFE474A01231370464A13703D
:104BF000002001233855335560E0385D002855D03A
:104C0000324B1A68384B53F824309A4256D3394BFA
:104C1000394D53F824200127013A43F824202B78FA
:104C200036493B4468462B70375504F0A4FF69466B
:104C300003A804F0C1FF297803A805F088F801460D
:104C4000264804F081FE03A804F053FF684604F0F0
:104C500050FF224804F022FD2B780C2B07D11F486F
:104C6000274904F07BFE274B1F70274B1F70012341
:104C700068461849335504F07EFF694603A804F0DE
:104C80009BFF214603A805F062F8204905F04DF886
:104C90000146124804F058FE03A804F02AFF6846B3
:104CA00004F027FF0D4804F0F9FC06E00C4B53F824
:104CB0002400003018BF012000E0002007B0BDE84C
:104CC000F08300BFD2190020651C0020701E002058
:104CD000241C00200EF3000812F30008101F00200F
:104CE00050170020AC1D0020281D00202EF30008C6
:104CF0002FEA0008781C00204E17002041F300081E
:104D000051F30008B21E0020901E002077F3000827
:104D1000351700202DE9F0439A4E87B003F00AFFC3
:104D200033780C2B00F0D8800024254603F002FFD6
:104D3000954BEFB2E95C002940F0A1804FF00108EB
:104D400005F80380914B04EB0309E358002B52D084
:104D50008F4BE358002B4ED0384602F06FF98D4B45
:104D60008D4A05F803808D4BDFF88C821B688C49D7
:104D7000A350D9F800206846134444F8083004F0E2
:104D8000FAFE694603A804F017FF394603A804F0A9
:104D9000DEFF844904F0C9FF0146834804F0D4FDD6
:104DA00003A804F0A6FE684604F0A3FE7F49684607
:104DB00004F0E1FE694603A804F0FEFE394603A8AC
:104DC00004F0C5FF7A4904F0B0FF54F8081004F06D
:104DD000D2FF0146744804F0B7FD03A804F089FE31
:104DE000684604F086FE704804F058FC714BE358A6
:104DF000002B6AD0C2E06A49684604F0BCFE6946EE
:104E000003A804F0D9FE394603A804F0A0FF6A49BC
:104E100004F08BFF0146644804F096FD03A804F0FB
:104E200068FE684604F065FE644B0127EF54337852
:104E300063493B446846337004F09DFE694603A80D
:104E400004F0BAFE317803A804F081FF0146564809
:104E500004F07AFD03A804F04CFE684604F049FE15
:104E6000514804F01BFC33780C2B2ED1554B4E4887
:104E700055491F7004F072FD544B1F7025E0013F2F
:104E80000A2F07D8DFE807F0080A0C0E10121416D4
:104E9000181A1C00002014E0012012E0022010E08B
:104EA00003200EE004200CE005200AE0062008E0C4
:104EB000072006E0082004E0092002E00A2000E0C4
:104EC0000B20FFF7FBFD002858D101350C2D04F114
:104ED00004047FF42BAF51E0FFF746F9394B3C4D0A
:104EE0001A7872B100241C703A4B3B481C70FFF7D3
:104EF0002DF82D48394904F031FD394B1C70012340
:104F00002B702B78002B39D0324D2B78002B35D0DD
:104F1000334C012333492448237004F01FFD3249E8
:104F2000214804F01BFD2A4A0023317813702B70AE
:104F3000154800221A5421481A5416481A54144885
:104F400050F823000133904218BF11460C2BEFD1CB
:104F5000317051B92549144804F000FD2249124826
:104F600004F0FCFCFFF7E2F808E021490E4822704B
:104F700004F0F4FC0C481F4904F0F0FC07B0BDE855
:104F8000F08300BF4E1700200E000020BC1C002044
:104F9000781C002035170020681D0020701E00209E
:104FA0000EF300088DF30008101F0020B8F300086E
:104FB0002FEA000850170020C9F30008D21900207A
:104FC00041F30008B21E0020EEF30008901E0020FE
:104FD0009C1E00206D1E00206C1E002029F400087D
:104FE000E219002057F4000886F4000893F4000842
:104FF000BDF40008F8F40008241C002070B51B4B19
:1050000086B01E5C0446002E2DD1194D2B5C53B387
:10501000184B1A68184B53F820309A4223D30121B9
:1050200002F00CF8154B16491A78684601321A70CE
:105030002E5504F0A0FD694603A804F0BDFD2146ED
:1050400003A804F084FE0F4904F06FFE01460E48E9
:1050500004F07AFC03A804F04CFD684604F049FD16
:10506000094804F01BFB002006B070BDD2190020D7
:1050700035170020701E0020241C00204E17002031
:105080000EF3000812F30008101F00202DE9F04F66
:105090008E4C87B0237827460C2B00F0F480002537
:1050A0002C468B4B1A783AB18A4A11688A4A1268A0
:1050B000914224BF00221A70884AA118A25C002ADB
:1050C00040F0B58093F80080B8F1000F40F0AF8059
:1050D000DFF858B2012655F80B300E70002B65D062
:1050E000E0B2414601F0AAFFDFF8E8A17C4B7D4A1F
:1050F000E654DAF80030DFF83C92AB5055F80B205C
:105100007949134445F80930684604F034FD69468E
:1051100003A804F051FD214603A804F02CFE7349B6
:1051200004F003FE0146724804F00EFC03A804F0EC
:10513000E0FC684604F0DDFC6E49684604F01BFDA7
:10514000694603A804F038FD214603A804F013FEC5
:10515000694904F0EAFD55F8091004F00CFE014617
:10516000634804F0F1FB03A804F0C3FCDFF8C0912E
:10517000684604F0BEFC5E4804F090FA99F80030EE
:105180005E4A33441278DBB29A4289F8003073D118
:1051900057485B4904F0E2FB4D4B89F800801E70D4
:1051A000584B1A78DAF800301A448AE04E496846BB
:1051B00004F0E1FC694603A804F0FEFC214603A8C4
:1051C00004F0D9FD504904F0B0FD0146484804F010
:1051D000BBFB03A804F08DFC684604F08AFC4B4B33
:1051E0004B49E6543B78684601333B7004F0C3FCFE
:1051F000694603A804F0E0FC397803A804F0A7FD91
:1052000001463B4804F0A0FB03A804F072FC68468A
:1052100004F06FFC364804F041FA3B780C2B2BD19C
:1052200033483C4904F09AFB3B4B1E7024E0631E5C
:105230000A2B07D8DFE803F0080A0C0E1012141628
:10524000181A1C00002014E0012012E0022010E0D7
:1052500003200EE004200CE005200AE0062008E010
:10526000072006E0082004E0092002E00A2000E010
:105270000B20FFF7C3FE30BB01340C2C05F10405F5
:105280007FF40FAF1FE0FEF76FFF2449184804F0CA
:1052900065FB1748224904F061FB224A0023137082
:1052A000214A23701360174A1370144A13701F4960
:1052B00000225A500433402BF9D1054B1A701C4B75
:1052C0001A70054B1A6007B0BDE8F08F4E1700202A
:1052D000641C0020701E0020381E00200E000020DC
:1052E00035170020681D00200EF300080DF500089A
:1052F000101F0020B8F300082FEA0008341E002019
:1053000035F500084C17002057F50008D219002089
:1053100041F3000879F50008901E0020B1F500085F
:10532000F8F40008E219002048170020E4190020D2
:10533000E3190020241C002070B51B4B86B01E5CB6
:105340000446002E2DD1194D2B5C53B3184B1A680F
:10535000184B53F820309A4223D3012101F06EFEFE
:10536000154B16491A78684601321A702E5504F00A
:1053700002FC694603A804F01FFC214603A804F0C0
:10538000E6FC0F4904F0D1FC01460E4804F0DCFABB
:1053900003A804F0AEFB684604F0ABFB094804F038
:1053A0007DF9002006B070BDD2190020351700200D
:1053B000701E0020241C00204E1700200EF3000851
:1053C00012F30008101F00202DE9F047844C86B02E
:1053D00023782746082B00F0DF8000252C46814BE0
:1053E0001A783AB1804A1168804A1268914224BF03
:1053F00000221A707E4AA018A25C002A40F0AA80FF
:105400001978002940F0A680DFF828A2012655F877
:105410000A300670002B5CD0E0B201F00FFEDFF81E
:10542000C881744B744AE654D8F80030DFF8109203
:10543000AB5055F80A207149134445F809306846C5
:1054400004F099FB694603A804F0B6FB214603A8C3
:1054500004F091FC6A4904F068FC0146694804F0D4
:1054600073FA03A804F045FB684604F042FB664962
:10547000684604F080FB694603A804F09DFB2146C2
:1054800003A804F078FC614904F04FFC55F80910BA
:1054900004F071FC01465B4804F056FA03A804F0DE
:1054A00028FBDFF89491684604F023FB554804F08C
:1054B000F5F899F80030002B67D05248544904F0B1
:1054C0004DFA484B99F800201E70D8F800301A4465
:1054D00080E04A49684604F04EFB694603A804F0A0
:1054E0006BFB214603A804F046FC4A4904F01DFC6E
:1054F0000146444804F028FA03A804F0FAFA684682
:1055000004F0F7FA444B4549E6543B7868460133CA
:105510003B7004F030FB694603A804F04DFB39787A
:1055200003A804F014FC0146364804F00DFA03A861
:1055300004F0DFFA684604F0DCFA324804F0AEF812
:105540003B78082B21D12F48354904F007FA354B19
:105550001E701AE0631E062B05D8DFE803F006086C
:105560000A0C0E10120000200CE001200AE00220BC
:1055700008E0032006E0042004E0052002E0062005
:1055800000E00720FFF7D8FE30BB0134082C05F1FE
:1055900004057FF424AF1FE0FEF7E6FD2249194819
:1055A00004F0DCF91748214904F0D8F9204B002217
:1055B0001A7022701F49002353500432202AF9D157
:1055C0001D4A13701D4900225A500433402BF9D153
:1055D000044B1A70054B1A6006B0BDE8F08700BF97
:1055E0004E170020A81D0020701E0020F01D002076
:1055F0000E00002035170020681D00200EF3000863
:10560000DAF50008101F0020B8F300082FEA0008A0
:1056100035F5000807F60008D219002041F300080C
:105620002EF60008901E00206BF60008F8F4000823
:10563000E2190020041D0020FC1C0020E4190020B9
:10564000241C0020194B70B51A786AB300221A7016
:10565000FEF77EFD164B174A1978156816461C464C
:10566000C9B133685B1BB3F5FA6F12D21248FCF76D
:10567000B1F8124B1B7813B9FFF74CFBF1E7012B84
:1056800002D1FFF703FDECE7022BEAD1FFF79CFE06
:10569000E7E700232370012109480A4602F042FC93
:1056A000BDE87040FEF726BD70BD00BF061F00209C
:1056B0004D17002060200020D0190020ED1D002093
:1056C000071F0020F8B5394801F05AFB384C394D16
:1056D0002070364801F09EFB0646344801F0FAFB84
:1056E00030442860FF21002004F07BFCFF210020D3
:1056F00004F077FC304B22781978914207D01A7069
:105700002E4B01222E482F491A7004F027F92E4BF8
:105710002A6819682D4C914206D01A602848012346
:105720002B49237004F01AF92A682A4B02B101228E
:105730001A70237833B9214B1B781BB9264B1B7881
:10574000002B31D0254B264A1978166817461D467E
:10575000C9B13B689B1BB3F5FA6F12D22148FCF725
:1057600039F8214B1B7813B9FFF7D4FAF1E7012B75
:1057700002D1FFF78BFCECE7022BEAD1FFF724FE06
:10578000E7E700232B7019490D4804F0E7F80B4AAE
:1057900000231370104A01211370237014480A4625
:1057A000BDE8F84002F0BEBBF8BD00BFC31E00203C
:1057B000851E0020941E00208E1E00208F1E0020BB
:1057C000101F0020A1F60008881E00208C1E00205B
:1057D000B4F60008E2190020901E00204D170020AA
:1057E00060200020D0190020ED1D0020C7F6000821
:1057F000071F002008B503F09DF91248FBF7EAFFE8
:10580000002111480A4600F065FA104B1B7813B9C5
:10581000FFF780FA08E0012B02D1FFF737FC03E025
:10582000022B01D1FFF7D0FD00F08AF8FFF70AFF45
:10583000FFF748FFFFF738F8FEF76EFFBDE80840B6
:10584000FEF768BDD0190020C31E0020ED1D00200A
:1058500001480021FCF726BD3C1E00201FB5304842
:1058600001A9FCF791FF2F4CC0B92F492F4804F034
:1058700075F82F4801F0CAFF2E48FBF7ABFF40F642
:10588000B83004F0B9FB03F055F923780133DBB2EB
:10589000322B2370E3D903F081F9E0E70023237072
:1058A0001F48FDF72CF8C0B92349204804F056F8EA
:1058B0001F4801F03DFF1F48FBF78CFF40F6B83052
:1058C00004F09AFB03F036F923780133DBB2322B74
:1058D0002370E5D903F062F9E2E700232370104852
:1058E000FDF78EF8C0B91549104804F037F8104894
:1058F00001F08CFF0F48FBF76DFF40F6B83004F065
:105900007BFB03F017F923780133DBB2322B2370D2
:10591000E5D903F043F9E2E70023237004B010BD9A
:105920003F1E0020C01E002018F70008101F002096
:10593000071F0020D019002066F70008BEF70008F6
:1059400008B50A4B1A787AB100221A70FEF706FCE5
:10595000FFF77EFFFFF782FFFEF7DAFBBDE80840A6
:105960000348044903F0FABF08BD00BFC11E002070
:10597000101F002014F8000813B5D14C4FF0FF336E
:1059800000934FF4165200232046CE49FEF78CF8C0
:1059900020460121FEF784F8002120460A46FDF743
:1059A00083FC204601210022FDF77EFC20460221D7
:1059B0000022FDF779FC204603210022FDF774FC4C
:1059C000204604210022FDF76FFC2046052100221D
:1059D000FDF76AFC204606210022FDF765FC204603
:1059E00007210022FDF760FC204608210022FDF778
:1059F0005BFC204609210022FDF756FC20460A21C7
:105A00000022FDF751FC20460B210022FDF74CFC43
:105A100020460C210022FDF747FC20460D210022E4
:105A2000FDF742FC20460E210022FDF73DFC2046FA
:105A30000F210022FDF738FC204610210022FDF73F
:105A400033FC204611210022FDF72EFC20461221B6
:105A50000022FDF729FC204613210022FDF724FC3B
:105A6000204614210022FDF71FFC204615210022AC
:105A7000FDF71AFC204616210022FDF715FC2046F2
:105A800017210022FDF710FC204618210022FDF707
:105A90000BFC204619210022FDF706FC20461A21A6
:105AA0000022FDF701FC20461B210022FDF7FCFB34
:105AB00020461C210022FDF7F7FB20461D21002275
:105AC000FDF7F2FB20461E210022FDF7EDFB2046EC
:105AD0001F210022FDF7E8FB204620210022FDF7D0
