:020000040800F2
:1000000000C00020F5830008E1860008E5860008AE
:10001000E9860008ED860008F1860008418700089F
:100020004187000841870008418700084187000890
:10003000418700084187000841870008D18B0008EC
:10004000418700084187000841870008D1820008E5
:100050004187000841870008418700084187000860
:100060004187000841870008418700084187000850
:100070004187000841870008418700084187000840
:100080004187000841870008B987000841870008B8
:100090004187000841870008418700084187000820
:1000A000198E00083D8E0008618E0008998E0008A8
:1000B000ED8E00085D8F0008CD8F00084187000895
:1000C00041870008418700084187000841870008F0
:1000D00041870008C5920008199300086D93000835
:1000E000418700081983000841870008F59000083F
:1000F000199100083D9100087591000809880008D1
:1001000041870008418700083D90000841870008AA
:10011000C193000815940008AD900008D190000824
:10012000418700084187000841870008418700088F
:1001300010B5054C237833B9044B13B10448AFF321
:1001400000800123237010BD18170020000000005C
:1001500024BC000808B5064B1BB106480649AFF39E
:1001600000800648036813B1054B03B1984708BDEA
:100170000000000024BC00081C17002018170020F5
:1001800000000000012902D11C30C0B270470629CE
:1001900084BF01F1FF31C9B211F0010F14BF1E205D
:1001A0001F207047444B2DE9F047B1FBF3F603FBEA
:1001B00016113C23B1FBF3F203FB12120546027049
:1001C0004FF46160B1FBF0F200FB1211B1FBF3F3ED
:1001D0006B704FF4FA63AA70B6B2EB80EC884FF400
:1001E000C873B4FBF3F803FB18481FFA88F8B8F19A
:1001F000000F16D06423B4FBF3F203FB12439BB24F
:10020000002B53D014F0030140F26D130CBF4FF4D8
:10021000B7721A4696420EDB002908BF4FF4B77337
:1002200004E0B6F5B77F06DB4FF4B773F61A013476
:10023000B6B2EC80D2E700236B716423B4FBF3F712
:1002400003FB1747BFB2B8F1000F06D03FB114F05F
:10025000030F14BF0020012002E0012000E0384617
:1002600095F80590C0B24946FFF78CFF864209F128
:10027000010A15D3B8F1000F06D03FB114F0030FF7
:1002800014BF0020012002E0012000E03846C0B287
:100290004946FFF777FF301A86B285F805A0D2E706
:1002A00001362E7185F805A0BDE8F087B6F5B67F5A
:1002B000C1DD40F26D13B9E780510100F8B5427815
:1002C00087783C2303FB072702780579467903FBEF
:1002D0000727013D013EEDB2F6B2044605714671B5
:1002E000013E731CE38834D04FF4C872B3FBF2F1C3
:1002F00002FB113292B262B16422B3FBF2F002FB54
:10030000103080B230B113F0030F14BF0020012071
:1003100000E00120C0B2F1B2FFF734FF284485B2FB
:10032000DEE74FF4C872B3FBF2F102FB113292B276
:10033000AAB16422B3FBF2F102FB113292B28AB18C
:1003400013F0030F40F26D1208BF4FF4B77215445B
:10035000ADB2013B9BB2B3F5FA6FE2D205E04FF4C8
:10036000B772F4E740F26D12F1E7024800FB057046
:10037000F8BD00BF8051010006F02EBF38B50D4614
:10038000044606F044FF290A49006039204601F07E
:10039000FE0106F0D3FF204606F0A9FFE9B2204691
:1003A00006F0CCFF204606F0A2FF204606F02FFF05
:1003B0002046A12106F0C2FF204606F098FF00214A
:1003C000204606F0E2FF0546204606F073FF204671
:1003D00006F038FF284638BD70B50D46164604466F
:1003E00006F015FF290A49006039204601F0FE0198
:1003F00006F0A4FF204606F07AFFE9B2204606F098
:100400009DFF204606F073FF3146204606F096FF1A
:10041000204606F06CFF204606F014FFBDE8704051
:100420000A2009F049BD000008B51D4A51789378AB
:1004300043EA0123A3F52043152B26D8DFE803F078
:100440000B2D0D0F111315171925252525252525EC
:10045000251B1D1F2123002008BD022008BD0820E8
:1004600008BD092008BD0A2008BD0B2008BD0C20CE
:1004700008BD0D2008BD032008BD042008BD0520CF
:1004800008BD062008BD072008BD00214FF40072FA
:1004900003480AF077FC0E2008BD012008BD00BF0C
:1004A000D017002010B5074C6018114606F09CFDCF
:1004B000054B1B781C4414F8073C1B1A5842584142
:1004C00010BD00BFD0170020D1190020084B1879AB
:1004D0005B7943EA002045F25553984205D04CF22F
:1004E0000303C31A5842584170470120704700BFA8
:1004F000D0170020044B9B79552B044B0CBF0122D5
:1005000000221A70704700BFD0170020B81C0020CE
:1005100010B5084CE379552B01D1012010BD0648D8
:1005200002F06BFAE3798342F7D0D0F1010038BFD3
:10053000002010BDD01700203F1E002013B50D4B2A
:100540001C7A552C01D1012012E00B48694602F0BB
:10055000AFF900231A461DF803108C42F3D019B9E5
:100560000132D2B2052AEED00133052BF3D100209F
:1005700002B010BDD01700203F1E002070B5054608
:100580001E46FFF78FFF044640B91C4AD3781A4431
:100590001379D62B02D01A481A492BE02846FFF7C8
:1005A00095FF044678B12846FFF7A4FF2846FFF7D9
:1005B000AFFF044670B96EB11349114809F02EF926
:1005C0000F48124916E012490D4809F027F90C4866
:1005D00010490FE02846FFF7B1FF044660B99DF8C7
:1005E00010300BB9012407E00B49054809F016F952
:1005F00003480A4909F012F9204670BDD0170020BF
:100600000C1F0020DCD3000800D4000837D40008F9
:1006100080D30008AED300086ED40008A6D400082A
:100620001F4B13B51B78002B37D0002300930421F8
:1006300017220123FFF7A2FF30B31A491A4809F025
:10064000EDF8194808F08AFF184B1C7A012C18D1D4
:100650001748D97C02F03AFA48B116480F212246D1
:1006600007F0A4F81448214601F01CFE0CE01148E4
:100670001021022207F09AF810490B4809F0CEF831
:1006800002E00C4806F00CFF0D4B08481A780021D8
:1006900002B0BDE810400AF075BB02B010BD00BF4B
:1006A0000D000020DAD400080C1F0020D017002015
:1006B0003D1E0020031F00203C1E0020FAD400082D
:1006C000D11900201A4B07B51B786BB30023009398
:1006D00004210A220123FFF751FFE0B11549164812
:1006E00009F09CF8144808F039FF1448144902F046
:1006F00091F838B11349104809F090F812480321D5
:10070000022206E011490C4809F088F80E4804213D
:10071000012207F04BF80E4B0E481A78002103B067
:100720005DF804EB0AF02EBB03B05DF804FB00BFDC
:100730000D0000203ED500080C1F00203F1E0020A9
:10074000D817002056D50008031F002098D50008B0
:10075000D1190020D017002013B5002300930421E5
:100760000F22FFF70BFF40B31F492048204C09F030
:1007700055F81E4808F0F2FE1E4804F10A0101F087
:10078000BEFE68B31B4804F10A0101F0F8FE38B35D
:100790001949164809F042F81648E17902F0F4F8D0
:1007A000A0B11649114809F039F815480521012270
:1007B00006F0FCFF0F4801F0C3FF124B0C481A78FB
:1007C000002102B0BDE810400AF0DCBA07480E492B
:1007D00009F024F80A480621012206F0E7FFECE7B9
:1007E00002480A49F4E700BFDAD500080C1F0020D0
:1007F000D01700203F1E002080D60008F5D5000845
:10080000031F0020D11900203BD60008ADD60008F8
:10081000134B13B51B780BB3124B0024DA78042169
:1008200000940123FFF7AAFE78B10F490F4808F0A2
:10083000F5FF0E4808F092FE0D490C4808F0EEFF57
:100840000C482146022207F0CFFA0B4B05481A78D4
:10085000002102B0BDE810400AF094BA02B010BD09
:100860000D000020D0170020E8D600080C1F002043
:1008700004D70008031F0020D1190020444B73B592
:100880001B78002B00F082800024009404210522B4
:100890000123FFF773FE00286FD03E493E4808F061
:1008A000BDFF3E493C4808F0B9FF3B4808F056FE02
:1008B00008F0A0F803F0E0FB032007F0E9FC384B58
:1008C00001221C70374B26461C70374B1C70374B6F
:1008D0001C70374B1C70374B1C60374B1C70374BF0
:1008E0001C70374B1C70374B1C70374B1C70374BD0
:1008F0001C70374B1C60374B1A70374B1C60374BE2
:100900001C70374B1C70374B1C70374B1C70374BAF
:100910001C60374B1C70374B1C60374B0025E55073
:10092000364BF0B2E550364B0121E550354BE550E2
:10093000354BE550354BE550354BE550354BE550E3
:10094000354BE550354BE550354B0434F554354BBC
:10095000F554354BF554354BF554013606F0D0FAC5
:100960000C2EDAD1324B0022EA500435202DF9D179
:1009700030480721022206F019FF2F4B2F481A7822
:10098000002102B0BDE870400AF0FCB902B070BDB1
:100990000D0000203DD700080C1F002056D700088E
:1009A000AE1E00206D1E0020BE1E0020871E0020EF
:1009B000EC1D0020001D0020861E0020821E00204D
:1009C000811E0020AF1E0020341700204E1700208B
:1009D0008C1E00204D170020481700204C170020C7
:1009E000341E0020641C0020E3190020381E002063
:1009F000A81D0020F01D0020E4190020BC1C0020D0
:100A000050170020F41D002090170020781C0020B3
:100A1000681D0020241C0020AC1D0020281D002083
:100A200035170020651C0020D21900200E00002080
:100A3000041D0020031F0020D1190020D017002022
:100A4000F0B5284B89B01B78002B49D0264D0024E7
:100A5000EA78042100940123FFF790FD2F46002837
:100A600035D02249224808F0D9FE214808F076FD09
:100A700003AD07F0BFFF1F491D4808F0CFFE284611
:100A8000214614220AF07EF9FE78053E142E01D884
:100A9000234605E01648184908F0C0FE022207E088
:100AA000B34204D2FA18527AEA540133F8E7032227
:100AB000124B13481A702946324605F077F8012286
:100AC0001048002106F0F4FE0F4B01221A700F4B64
:100AD00005481A78002109B0BDE8F0400AF052B983
:100AE00009B0F0BD0D000020D017002066D7000827
:100AF0000C1F002090D70008E6D70008041F002034
:100B0000BF1E0020031F0020811E0020D1190020DD
:100B100030B5154B85B01B781BB3144D0024EA7813
:100B2000009404210123FFF729FDD0B11049114899
:100B300008F074FE0F4808F011FD0E480E4908F049
:100B40006DFE2346EA18527A02A95A540133072B44
:100B5000F8D10A4803F0ACF809481721022206F040
:100B600025FE05B030BD00BF0D000020D0170020CD
:100B700037D800080C1F00204ED800086C1E00203B
:100B8000031F0020F0B53A4B89B01B78002B6CD0C6
:100B9000384C0026E278009604210123FFF7EEFC92
:100BA00000284DD03449354808F038FE334808F065
:100BB000D5FC334894F8221094F8232002F07CF9F5
:100BC00020B92E482F4908F029FE012600252E497C
:100BD0002A4804AF08F022FE222338462946102274
:100BE000029503958DF808300AF0CCF833238DF880
:100BF00010302B46E218127A02A95A540133082BFE
:100C0000F8D10023E218127CFA540133102BF9D1E9
:100C10001B4802F0AFF8E0B11948394602F008F974
:100C2000B8B11A49154808F0F9FD154802F071F8F5
:100C3000174806F093FA17483146012206F0CAFE1B
:100C4000154B0C481A78002109B0BDE8F0400AF0B5
:100C500099B81249094808F0E1FD094802F076F810
:100C60000B4806F07BFA0226E5E709B0F0BD00BFAD
:100C70000D000020D01700207FD800080C1F002096
:100C8000491E0020A9D80008E4D800081CD9000893
:100C9000FC1E0020031F0020D119002059D9000894
:100CA0002DE9F04F7C4B89B01B78002B00F0F080D1
:100CB0007A4F0024FA78042100940123FFF75EFCA8
:100CC000002800F0D8807649764808F0A7FD7548DE
:100CD00008F044FC744B01251D7007F08BFE03F0F7
:100CE000CBF9032007F0D4FA704A714B1470714AA3
:100CF0001C701470704A714B1470714A1C7014701F
:100D0000704A714B1470714A1C701470704A714BA8
:100D10001460714A1C701570704A714B1460714AEE
:100D20001C701470704A714B1470714A1C601470FE
:100D3000704A26461470704A9B4614606F4A1470BD
:100D40006F4A14606F4B0025E5506F4BDFF804824B
:100D5000E5506E4BDFF80092E5506D4BDFF8FCA1DB
:100D6000E5506C4BF0B2E5506B4B0121E5506B4BFD
:100D700044F80850E5506A4B44F80950F554694B63
:100D800044F80A50F554684B0434F554674BF55455
:100D9000013606F0B5F80C2ED4D1654A0023AB50CD
:100DA0000435202DF9D1634A6348137097F8461033
:100DB00097F8472002F07CF910B13A485F4901E00A
:100DC00038485F4908F02AFD5B4802F0ADF95D49FB
:100DD000CBF8000002A808F02EFE02A905A808F032
:100DE0004BFEDBF8001005A808F025FF01462D4852
:100DF00008F00AFD05A808F0DCFD02A808F0D9FDFE
:100E000007F0F8FD0022254B1046114607EBD004F1
:100E100094F848400C41E40715D51D7A5C7A04EB40
:100E2000052448F8024093F8285093F8294004EB31
:100E3000052449F8024093F84A5093F84B4004EBDC
:100E400005244AF802400131C9B2082900F1010025
:100E500008BF00210C2803F1020302F10402D5D1DE
:100E6000104808F07BFB384803210C4A06F000FECE
:100E700003F0E4F803E00B48344908F0CFFC344BAE
:100E800006481A78002109B0BDE8F04F09F07ABF92
:100E900009B0BDE8F08F00BF0D000020D017002082
:100EA00096D900080C1F0020E2190020861E0020A1
:100EB000AE1E0020821E0020811E00206D1E00201C
:100EC000AF1E002034170020BE1E00204E17002049
:100ED0008C1E0020871E00204D1700204817002080
:100EE000EC1D00204C170020341E0020001D0020A7
:100EF000641C0020E3190020381E0020A81D0020DB
:100F0000F01D0020E4190020F41D0020901700209F
:100F1000681D0020241C0020AC1D0020281D00207E
:100F200035170020651C0020D21900200E0000207B
:100F3000041D0020ED1D0020491E0020C3D900081B
:100F400007DA000814EC0008031F00204EDA00083E
:100F5000D1190020BC1C002050170020781C002054
:100F60002DE9F04F904B89B01B78002B00F01981D0
:100F70008E4F0024FA78042100940123FFF7FEFA33
:100F8000002800F001818A498A4808F047FC894816
:100F900008F0E4FA884B01251D7007F02BFD03F0E3
:100FA0006BF8032007F074F9844B85481C70854B5F
:100FB00004701C70844B85481C70854B04701C7039
:100FC000844B85481C70854B04601C60844B8548AD
:100FD0001C70854B85491C70854B864A1C70864B5E
:100FE00004701C70854B86481C70864B0C601C700E
:100FF000854B14701C60854B04601D70844B264625
:101000001C70884693469A46824B0025E550824BD9
:10101000DFF86092E550814BF0B2E550804B012142
:10102000E550804B44F80950E5507F4BE5507F4B2D
:10103000E5507F4BE5507F4BE5507F4B0434F55432
:101040007E4BF5547E4BF5547E4BF554013605F03E
:1010500057FF0C2ED8D17C4B0024EC500435202DAA
:10106000F9D17A4B01221A703A7A7B7A784903EBEC
:10107000022302A8C8F8003008F0DDFC02A905A888
:1010800008F0FAFCD8F8001005A808F0D4FD714962
:1010900008F0ABFD0146474808F0B6FB05A808F08C
:1010A00088FC02A808F085FCBB7A6B4902A88BF883
:1010B000003008F0C0FC02A905A808F0DDFC9BF890
:1010C000001005A808F0A3FD624908F08EFD014656
:1010D000384808F099FB05A808F06BFC02A808F056
:1010E00068FCFB7A5D4902A88AF8003008F0A3FC8E
:1010F00002A905A808F0C0FC9AF8001005A808F09D
:1011000086FD01462B4808F07FFB05A808F051FC3E
:1011100002A808F04EFC254607EBD4031B7B2B41AD
:10112000DB0720D5D8F800304D4902A849F8243013
:1011300008F081FC02A905A808F09EFC214605A83C
:1011400008F079FD474908F050FD59F8241008F0DF
:1011500072FD0146174808F057FB05A808F029FC66
:1011600002A808F026FC0135EDB2082D04F10104B7
:1011700008BF00250C2CCFD13B4803210B4A06F0B9
:10118000D7FC02F05BFF03E00A48384908F046FB51
:10119000374B06481A78002109B0BDE8F04F09F036
:1011A000F1BD09B0BDE8F08F0D000020D017002080
:1011B0006CDA00080C1F0020E2190020AE1E00208F
:1011C000641C00206D1E0020BE1E0020E3190020BC
:1011D000871E0020EC1D0020381E0020001D00206E
:1011E000861E0020A81D0020821E00204817002017
:1011F000811E00204C170020AF1E00203417002055
:10120000F01D00204E1700208C1E00204D170020DE
:10121000341E0020BC1C002050170020F41D0020AC
:1012200090170020781C0020681D0020241C00203E
:10123000AC1D0020281D002035170020651C002053
:10124000D21900200E000020041D0020ED1D0020FA
:1012500092DA0008EFF50008A8DA0008BFDA000803
:10126000D3DA0008E8DA0008031F0020ECDA0008EF
:10127000D1190020E4190020F0B5734B89B01B7818
:10128000002B00F0DF80714F0024FA7804210094D5
:101290000123FFF773F9002800F0C7806C496D48FF
:1012A00008F0BCFA6B4808F059F96B4B01251D702A
:1012B00007F0A0FB02F0E0FE032006F0E9FF674B19
:1012C00026461C70664B1C70664B1C70664B1C706F
:1012D000664B1C70664B1C60664B1C70664B1C702A
:1012E000664B1C70664B1C70664B1C70664B1C700A
:1012F000664B1C60664B1D70664B1C60664B1C7019
:10130000664B1C70664B1C70664B1C70664B1C60F9
:10131000664B1C70664B1C60664B0025E550664BA7
:10132000F0B2E550654B0121E550654BE550654B4A
:10133000E550654BE550654BE550654BE550654B19
:10134000E550654BE550654B0434F554644BF5545A
:10135000644BF554644BF554013605F0D1FD0C2E69
:10136000DAD1624E0024AC510435202DF9D1604B06
:1013700002221A7025467A7C344B2A41D20727D59F
:101380006208043213F8121003EB42035B7802A8E0
:1013900003EB012346F82430564908F04CFB02A920
:1013A00005A808F069FB214605A808F044FC52494D
:1013B00008F01BFC56F8241008F03DFC01462548B7
:1013C00008F022FA05A808F0F4FA02A808F0F1FAE9
:1013D0000135EDB2082D04F1010408BF0025082CE9
:1013E000C9D13B7C454C02A84549237008F023FB3A
:1013F00002A905A808F040FB217805A808F007FC21
:10140000404908F0F2FB0146124808F0FDF905A832
:1014100008F0CFFA02A808F0CCFA3B4803210B4AA7
:1014200006F0FAFB02F00AFE03E00A48374908F02A
:10143000F5F9374B05481A78002109B0BDE8F040AE
:1014400009F0A0BC09B0F0BD0D000020D0170020AD
:101450000ADB00080C1F0020E2190020AE1E00204D
:101460006D1E0020BE1E0020871E0020EC1D0020E7
:10147000001D0020861E0020821E0020811E0020EC
:10148000AF1E0020341700204E1700208C1E0020B5
:101490004D170020481700204C170020341E002054
:1014A000641C0020E3190020381E0020A81D002025
:1014B000F01D0020E4190020BC1C00205017002063
:1014C000F41D002090170020781C0020681D0020CB
:1014D000241C0020AC1D0020281D002035170020F2
:1014E000651C0020D21900200E000020041D0020E1
:1014F000ED1D002033DB0008E8DA0008FC1C0020AA
:1015000052DB0008EFF50008031F002073DB000822
:10151000D1190020144B13B51B7813B3134B0024BF
:10152000DA78042100940123FFF728F860B110490C
:10153000104808F073F90F4808F010F80E482146DB
:10154000032206F0E3FC03E00A480C4908F066F9C0
:101550000B4B06481A78002102B0BDE8104009F094
:1015600011BC02B010BD00BF0D000020D01700203C
:1015700091DB00080C1F0020031F0020ADDB0008DA
:10158000D119002070B53D4B88B01B78002B73D06B
:101590003B4C00230093E27804210123FEF7EEFF89
:1015A00000285CD03749384808F038F9364807F049
:1015B000D5FF637A257A354902A803EB052508F0A3
:1015C0003AFA02A905A808F057FA294605A808F032
:1015D00032FB01462C4808F017F905A808F0E9F994
:1015E00002A808F0E6F92A48217A627A01F016FD8D
:1015F000054620B92749244808F010F900E00125E4
:10160000E37AA67A244902A803EB062608F013FA27
:1016100002A905A808F030FA314605A808F00BFB2E
:101620000146194808F0F0F805A808F0C2F902A828
:1016300008F0BFF91648A17AE27A01F0A5FC20B9BA
:101640001649114808F0EAF803E015B114481521CD
:1016500001E013481621022206F0A8F803E00A4828
:10166000104908F0DBF8104B05481A78002108B043
:10167000BDE8704009F086BB08B070BD0D000020C9
:10168000D0170020CBDB00080C1F0020F1DB000886
:10169000491E002001DC00083EDC00084EDC00088A
:1016A000031F00208BDC0008D1190020124B07B566
:1016B0001B78EBB1114B0421DA780023009301234E
:1016C000FEF75CFF38B10E490E4808F0A7F80D4848
:1016D00007F044FF03E00B480B4908F09FF80B4B61
:1016E00006481A78002103B05DF804EB09F04ABB04
:1016F00003B05DF804FB00BF0D000020D0170020F0
:10170000A9DC00080C1F0020CBDC0008D119002048
:1017100010B50446FEF788FE0E2855D8DFE800F025
:10172000272C31080D12171C363B40454A4F21002B
:101730002046BDE81040FEF773BF2046BDE81040CC
:10174000FEF7C0BF2046BDE81040FFF705B82046B1
:10175000BDE81040FFF75CB82046BDE81040FFF739
:101760008DB81A481A49BDE8104008F057B820460D
:10177000BDE81040FFF764B92046BDE81040FFF710
:10178000C7B92046BDE81040FFF7FCB92046BDE8C8
:101790001040FFF785BA2046BDE81040FFF7E0BBD8
:1017A0002046BDE81040FFF767BD2046BDE8104069
:1017B000FFF7B0BE2046BDE81040FFF7E3BE20466D
:1017C000BDE81040FFF772BF10BD00BF0C1F002026
:1017D000E9DC00082DE9F043564B8BB01B688046CE
:1017E000554D07F007F900214FF40072534809F0F6
:1017F000C9FA002452482C7007F0CCFE0A284F4E3C
:101800002F467ED94E483146802208F0C1F8287014
:10181000C3B29C426BD2335D484DFE2B65D12B1970
:1018200093F80390474901A808F005F901A907A812
:1018300008F022F91022494604A808F05BF904A92F
:1018400007A808F0C5F901463F4807F0DDFF04A8E6
:1018500008F0AFF807A808F0ACF801A808F0A9F85C
:101860003B780B3B1B1B99453AD809EB04032B44EF
:101870005A790D2A31D19A790A2A2ED1DA790D2A8C
:101880002BD11A7A0A2A28D15A7A0D2A25D19B7A85
:101890000A2B22D12C482D4907F0A5FFE4B20025E0
:1018A00009F10B0362199D42D2B210D2B15C284BF0
:1018B0001022E954244808F03EF82348254907F04F
:1018C00092FF254B01351A7801321A70E8E71E485D
:1018D000224907F0A3FF01240AE01B48204901E048
:1018E0001948204907F09AFF01E0013490E70024ED
:1018F000124800214FF4007209F044FA00233B70B3
:1019000006E0304621464FF4007209F03BFA2C7095
:1019100007F070F81CB14046FFF7FAFE07E00C48EC
:1019200021464FF4007209F02DFA0B4B1C700BB0DE
:10193000BDE8F0835C200020241D0020241A002034
:10194000241F002007DD00080C1F002017DD000801
:10195000D0170020C5EB0008D1190020CDE0000809
:1019600025DD000850DD000808B51D20002108F025
:1019700011FA1D20012108F073FA1020002108F04F
:1019800009FA1120002108F005FA1C20002108F0B6
:1019900001FA1120002108F063FA1C20012108F04F
:1019A0005FFABDE808401020002108F059BA000095
:1019B000014807F04DBE00BF241F002008B561B1EB
:1019C00000211C2008F04CFA962008F075FABDE8BA
:1019D00008401C20012108F043BA08BD08B50021C9
:1019E0001D2008F03DFA0C4807F035FE02200021CA
:1019F00008F0D0F90320002108F0CCF902200021E2
:101A000008F02EFA0320002108F02AFABDE8084069
:101A10001C20002108F024BA241F002010B50B78E8
:101A2000452B12D14B78522B0FD18B78CC78303B91
:101A300003EB8303303C04EB4304E4B221460A2267
:101A4000034807F081FF204610BD0A2010BD00BFEB
:101A50000C1F00200B784F2B07D148784B2804D15E
:101A600013704B78012053707047002070470000BE
:101A70002DE9F04190B00E4601A865491C469046FC
:101A800007F0D9FF624904A807F0D5FF604907A80D
:101A900007F0D1FF20460021042209F073F9E0236A
:101AA000A370E37035460027AB1B43453AD2297833
:101AB0000A220DA807F0FBFF0DA901A808F043F8C2
:101AC0000DA807F076FF15F8013B2C2B28D0303BF2
:101AD000DBB2092B98BF05F8013C15F8011C57B97A
:101AE0002D2902D14B484C4909E00DA80A2207F0E4
:101AF000DEFF04A80DE02D2906D14648474907F02E
:101B00008DFEF023E370CFE70DA80A2207F0CFFF88
:101B100007A80DA908F017F80DA807F04AFFC3E7BA
:101B20000127C1E73E490AA807F085FF0AA90DA8C9
:101B300007F0A2FF01A90DA808F04AF801463548B0
:101B400007F062FE0DA807F034FF0AA807F031FF86
:101B500034490DA807F06FFF0DA92E4807F036FE97
:101B60000DA807F026FFA3782A48F02B01D12E49B3
:101B700003E0E02B0CBF26492C4907F034FE04A9F2
:101B80000DA807F079FF2A490DA808F02EF80146A4
:101B9000204807F039FE0DA807F00BFF25490DA8D6
:101BA00007F049FF0DA91B4807F010FE0DA807F02C
:101BB00000FFE3781748F02B01D11B4903E0E02B2D
:101BC0000CBF1349194907F00EFE07A90DA807F02D
:101BD00053FF0DA8164908F008F801460D4807F014
:101BE00013FE0DA807F0E5FE04A808F0C6F8207063
:101BF00007A808F0C2F8607007A807F0DAFE04A88A
:101C000007F0D7FE01A807F0D4FE10B0BDE8F081C0
:101C1000CDE000080C1F002081DD00088EDD0008EB
:101C20009CDD0008A7DD0008E6E80008B2DD00083A
:101C3000BFDD0008C6DD0008F8B54C78432C08D19C
:101C40008C78532C05D1CC78B4F151056C426C41A1
:101C500000E000240026F5B24F5D01363A2FFAD19C
:101C60000135EDB200279542FEB207F1010706D813
:101C700011F805C0013501F806C0EDB2F3E73CB933
:101C80002046C2B2B2420BD20A5C1A540130F8E7C5
:101C9000069A022412681470721ED2B2FFF7E8FE90
:101CA0000120F8BD37B5154809B9154900E01549B7
:101CB00007F099FD642008F0FFF800240F4807F0B2
:101CC00069FC0028E5B208DD062C14D00B4807F0AB
:101CD0000DFC0DF804000134F0E755B19DF8023019
:101CE0004F2B08D19DF80300B0F14B0358425841E7
:101CF00002E0284600E0002003B030BD241F002091
:101D0000D2DD0008D6DD000810B5012104461D20F3
:101D100008F0A6F807484FF4165107F099FC204642
:101D20000121FFF74BFE20460121BDE81040FFF7DF
:101D3000B9BF00BF241F00202DE9F0419EB005ADC2
:101D40000C4607460021904628466422039309F07A
:101D500019F821462C4807F046FD642008F0ACF83D
:101D60000024294807F016FC0028E6B207DD642CA1
:101D700045D0254807F0BAFB28550134F1E726B9CC
:101D80002249234807F04AFD39E09DF814300D2B15
:101D900035D19DF815300A2B31D11EAB334413F8E1
:101DA000653C0A2B2BD1023E1EAB334413F8643C36
:101DB0000D2B24D10021CCB2A31CDBB2B34201F124
:101DC000010107DA1EAA134413F8643C144404F812
:101DD000643CF0E738462946FFF720FE0A280CD17C
:101DE00003AB00933846294622464346FFF724FFBB
:101DF00000280CBF0320022002E0012000E00320A5
:101E00001EB0BDE8F08100BF241F0020DCDD00080B
:101E10000C1F00202DE9F041B2B006460D46904659
:101E20000021642268461F4608F0ACFF19A8002173
:101E3000642208F0A7FF0024E3B2E85C013420B17B
:101E400032AA134403F8640CF6E70146CAB25D18DF
:101E500018F80240EDB232AA01312A4414B102F856
:101E6000644CF3E70D2302F8643C6B1C32A8DBB230
:101E700003442F480A2203F8642C036819A95B68FD
:101E800098472C48AA1C036819A99B68D2B29847A6
:101E9000642008F011F8274807F07CFB0028E5B221
:101EA00008DD642C3FD0234807F020FB0DF8040028
:101EB0000134F0E7002D36D09DF800300D2B32D1E3
:101EC0009DF801300A2B2ED132AB2B4413F8C93CBC
:101ED0000A2B28D1023D32AB2B4413F8C83C0D2B02
:101EE00021D100218B1CDBB2AB4201F1010209DAE6
:101EF00032A8034413F8C83CC9B2014401F8C83CF5
:101F00001146EFE730466946FFF788FD0A2808D1F9
:101F1000304669463A46FFF79DFD80F00100C0B2A9
:101F200002E0012000E0032032B0BDE8F08100BFF4
:101F30000C1F0020241F0020F7B51E46044617463C
:101F40000D4600218DF80710FFF7ACFE06F052FD9C
:101F5000204631462FB12A460DF10703FFF7ECFE6C
:101F600003E0089A2B46FFF755FF03282AD8DFE83D
:101F700000F011040207002311E01648164901E0A1
:101F80001448164907F04AFC20460121FFF78AFE53
:101F900000201CE012490F4807F040FC12E09DF8B9
:101FA00007205E1CDBB29A420A4809D9E95C10227C
:101FB00007F0C1FC07480B4907F015FC3346EEE774
:101FC00007F016FC20460121FFF76CFE012003B04C
:101FD000F0BD00BF0C1F0020F0DD000801DE00088E
:101FE0000ADE0008C5EB00082DE9F0438BB004AF12
:101FF000804600210922384602AE002408F0C2FEC5
:102000000094404631460122454BFFF795FF0546B7
:1020100020B94449444807F001FC7DE02346F25CC6
:1020200007AC092A01D8303204E0A2F10A010529DF
:1020300098BF3732E2540133082BF0D14FF000093A
:102040003A488DF8249000F031FE024600284AD02C
:102050003749354807F0E2FB3448394600F094FD33
:1020600000283BD04B46E15CFA5C914248D10133F9
:10207000082BF8D12F492C4807F0D0FB2E492A48CD
:1020800007F0B1FB9DF81610274807F0A7FB9DF855
:102090001710254807F0A2FB9DF81410224807F0FE
:1020A0009DFB9DF81510204807F098FB9DF8121035
:1020B0001D4807F093FB9DF813101B4807F08EFB9B
:1020C0009DF81010184807F089FB9DF8111016486C
:1020D00007F084FB144807F08BFB1DE017491248FA
:1020E00007F09CFB07E0009440463146144BFFF795
:1020F00023FF054680B121460C4800F095FD0AE01B
:102100001049094807F08AFB0097404631460022F3
:102110000B4BFFF711FF054628460BB0BDE8F083D7
:1021200020DE00082BDE00080C1F00203D1E0020D2
:102130004BDE0008D3DE0008FDDE000869DE000883
:102140008DDE000896DE00082DE9F04F89B002AF61
:1021500007F10C068346894690461C46304600210E
:102160000A2208F00FFE002C50D1C7F804D05846C0
:10217000CDF80080314601224B46FFF7DDFE824656
:1021800008B1214606E04049404807F047FB3F4878
:102190003F496FE0CCB218F804300131002BF9D17F
:1021A000E11D01F4FC71ADEB010D02A9D8B2A04212
:1021B00003D2F05CC8540133F8E70B46581AC0B29A
:1021C000A0420DD213F8010B092801D8303004E0E9
:1021D000A0F10A05052DF1D8373003F8010CEDE721
:1021E0000025EBB2A34243D24B5D013508EB05005D
:1021F00010F8010C9842F4D02649244807F00EFB51
:102200002248254907F00AFB7B689D466C4600235F
:10221000DAB219F8021001330A29F9D1931D03F437
:10222000FC73ADEB030DA2F1020E02AB0020C1B2B4
:10223000551EA94200F1010003DA19F801505D545E
:10224000F5E700223D215A55584603F80E10CDF807
:1022500000803146FFF770FE054628B90B480F494C
:1022600007F0DCFAAA4601E04FF0010AA54605E0B6
:1022700006480B4907F0D2FA7B689D4650461C374A
:10228000BD46BDE8F08F00BF0BDF00080C1F00202B
:1022900031DF000855DF0008ACDF0008EEDF000882
:1022A00023E000087FB50F2204460D466846002152
:1022B00008F068FD6848694907F0B0FA0A2606F098
:1022C00099FB002D78D12046FFF78EFE64498DF8EA
:1022D0000000644A2B462046FFF736FF62498DF81E
:1022E0000100624A2B462046FFF72EFF60498DF819
:1022F0000200604A2B462046FFF726FF5E498DF814
:1023000003005E4A2B462046FFF71EFF5C498DF80E
:1023100004005C4A2B462046FFF716FF8DF80500A7
:10232000594800F013FCF1285849204608D1584A72
:102330002B46FFF709FF57498DF80600464807E08E
:102340004A4A2B46FFF700FF53498DF806004248E2
:1023500007F064FA5149524A00232046FFF7F4FE81
:1023600050498DF807004E4A00232046FFF7ECFE47
:102370004D498DF80800464A00232046FFF7E4FE49
:102380004A498DF809004A4A00232046FFF7DCFE3F
:1023900048498DF80A00484A00232046FFF7D4FE3A
:1023A000324A8DF80B00454920460023FFF7CCFE4A
:1023B0000D228DF80C000EE0334800F0C7FBF12829
:1023C0000CBF334A294A204630490023FFF7BCFEA0
:1023D00001228DF8000000231DF80310A9B9384927
:1023E0001D4807F01BFA2046FFF78EFC2046FFF73A
:1023F000F5FA06F0FFFA2046FFF786FC4FF4FA6084
:1024000007F05AFD06F0F6FA05E00133D9B2914221
:10241000E2D304B070BD2B4807F0BCF8002803DD00
:10242000284807F063F8F6E7013E16F0FF067FF450
:1024300046AF2549084807F0F1F92449064807F056
:10244000EDF940F6B83007F037FD06F0D3FA04B0E6
:10245000BDE8704006F002BB0C1F00204BE00008F6
:102460007AE0000886E000088FE000088CE00008B1
:1024700099E00008A5E00008AEE00008BAE0000816
:10248000C3E00008CEE000083D1E0020D1E00008B7
:10249000DBE00008DEE00008EBE00008F8E0000800
:1024A00002E1000805E100080FE1000819E1000859
:1024B00022E1000825E100082FE1000832E10008D0
:1024C0003CE10008241F002059E1000885E10008D4
:1024D0001520012107F0C4BC1520002107F0C0BC65
:1024E00010B500210446152007F054FC15200121E9
:1024F00007F0B6FC2046BDE81040FDF73DBF7FB5B4
:1025000005460E46FFF7E8FF0D24331921462846FD
:1025100013F80D2C0134FDF75FFF162CF5D1304672
:10252000092104F061FD0646214628463246FDF7A2
:1025300053FF0D2421462846FDF720FF01AB23441D
:102540000134162C03F80D0CF4D101A8092104F074
:102550004BFDB04203D0FFF7BBFF00200DE0284643
:102560000B21FDF70BFF552804D028460B215522DF
:10257000FDF732FFFFF7ACFF012004B070BD7FB55F
:1025800005460E46FFF7A8FF1724331921462846B3
:1025900013F8172C0134FDF71FFF202CF5D130461E
:1025A000092104F021FD0646214628463246FDF762
:1025B00013FF172421462846FDF7E0FE01AB234414
:1025C0000134202C03F8170CF4D101A8092104F0E0
:1025D0000BFDB04203D0FFF77BFF00200DE0284643
:1025E0000C21FDF7CBFE552804D028460C2155229E
:1025F000FDF7F2FEFFF76CFF012004B070BDF0B5EF
:1026000085B001AD06460F4628460021092208F094
:10261000B9FB0D2421463046FDF7B0FE2B190134DD
:10262000162C03F80D0CF5D121463046FDF7A6FE19
:1026300009210446284604F0D7FC844206D1002331
:10264000EA5CFA540133092BFAD101E0002000E0E2
:10265000012005B0F0BDF0B585B001AD06460F46CE
:1026600028460021092208F08DFB17242146304618
:10267000FDF784FE2B190134202C03F8170CF5D13B
:1026800021463046FDF77AFE09210446284604F02B
:10269000ABFC844206D10023EA5CFA540133092BD7
:1026A000FAD101E0002000E0012005B0F0BD37B50F
:1026B0000C461E210546FDF761FE1F218DF8040022
:1026C0002846FDF75BFE02218DF8050001A804F005
:1026D0008BFC207003B030BD10B50B210446FDF714
:1026E0004DFE88B1FFF7F8FE204600220B21FDF7D2
:1026F00073FEFFF7EDFE20460B21FDF73FFED0F104
:10270000010038BF002010BD012010BD10B50C2104
:102710000446FDF733FE88B1FFF7DEFE20460022B7
:102720000C21FDF759FEFFF7D3FE20460C21FDF7E3
:1027300025FED0F1010038BF002010BD012010BDE2
:1027400010B521210446FDF719FE552811D0FFF7D9
:10275000C3FE204655222121FDF73EFEFFF7B8FEBD
:1027600020462121FDF70AFEB0F155035842584199
:1027700010BD012010BD08B52121FDF7FFFDB0F10E
:1027800055035842584108BD70B504460D46FFF741
:1027900036FF20B120462946FFF75DFF48BB2046A3
:1027A0002946FFF72CFF48B11549164807F036F8BF
:1027B00020462946BDE87040FFF7E1BE2046294685
:1027C000FFF749FF06460F4846B10F4907F026F8C4
:1027D00020462946BDE87040FFF791BE0B4907F03F
:1027E0001DF82046FFF778FF2046FFF78FFF3046A1
:1027F00070BD0749034807F011F8012070BD00BF04
:10280000AEE100080C1F0020E5E100081CE2000812
:1028100030E20008F8B504460E462F25731920460D
:10282000294613F82F7CFDF7A9FD874203D1013516
:10283000342DF3D136E0FFF74FFE2F2573192946CB
:10284000204613F82F2C0135FDF7C6FD342DF5D1A8
:102850000521304604F0C8FB0746294620463A4683
:10286000FDF7BAFD2F2520462946FDF787FD731990
:1028700013F82F3C834217D10135342DF3D1204674
:102880002946FDF77BFDB8420ED120463521FDF7E4
:1028900075FD552804D0204635215522FDF79CFDB5
:1028A000FFF716FE0120F8BDFFF712FE0020F8BD6D
:1028B000F7B505460E462F2421462846FDF75EFD56
:1028C00000AB23440134342C03F82F0CF4D1052140
:1028D000684604F089FB214607462846FDF74EFD71
:1028E000874207D100231DF80320F2540133052B42
:1028F000F9D101E0002000E0012003B0F0BD73B584
:1029000005462F2421462846FDF738FD00AB234419
:102910000134342C03F82F0CF4D16846052104F05F
:1029200063FB214606462846FDF728FD331A584228
:10293000584102B070BD38B50546FFF7CDFD2F24D4
:1029400028462146FDF71AFD68B128462146002297
:10295000FDF742FD28462146FDF710FD18B1FFF7AF
:10296000B7FD002038BD0134342CE9D1284635218B
:10297000FDF704FD20B1284635210022FDF72CFD8E
:10298000FFF7A6FD012038BD37B50D468DF80710BD
:1029900036210446FDF7F2FC85422BD002ADFFF74D
:1029A0009BFD15F8012D20463621FDF715FD01216F
:1029B000284604F019FB372102462046FDF70CFD9E
:1029C00020463621FDF7DAFC9DF8073083420DD111
:1029D00020463821FDF7D2FC552804D02046382166
:1029E0005522FDF7F9FCFFF773FD03E0FFF770FDDB
:1029F000002000E0012003B030BD3621FDF7BEBC51
:102A000037B536210546FDF7B9FC02AB03F8010DD9
:102A10001846012104F0E8FA372104462846FDF75C
:102A2000ADFC231A5842584103B030BD10B53621D1
:102A30000446FDF7A3FC88B1FFF74EFD2046362182
:102A40000022FDF7C9FC20463621FDF797FC18B19E
:102A5000FFF73EFD002010BDFFF73AFD012010BD3D
:102A600010B548210446FDF789FC552811D0FFF721
:102A700033FD204655224821FDF7AEFCFFF728FD27
:102A800020464821FDF77AFCB0F1550358425841E1
:102A900010BD012010BD10B54D210446FDF76EFCA0
:102AA000552810D0FFF718FD204655224D21FDF77F
:102AB00093FCFFF70DFD20460021FDF75FFC003081
:102AC00018BF012010BD012010BD000037B58DF8E2
:102AD00007101031C9B20129044629D84C21FDF74D
:102AE0004DFC9DF80730834228D002ADFFF7F4FC7F
:102AF00015F8012D20464C21FDF76EFC01212846DA
:102B000004F072FA4E2102462046FDF765FC20468D
:102B10004C21FDF733FC9DF80730834205D1204658
:102B2000FFF7B9FFFFF7D4FC08E0FFF7D1FC03E0A3
:102B30000448054906F072FE002000E0012003B0C1
:102B400030BD00BF0C1F002060E2000837B54C21EB
:102B50000446FDF713FC02AB03F8010D18460121F2
:102B600004F042FA4E2105462046FDF707FC854257
:102B700002D19DF8070004E02046F021FFF7A6FFF0
:102B8000F02003B030BD0000F7B505460E464F24D7
:102B900021462846FDF7F2FB00AB23440134572CB5
:102BA00003F84F0CF4D10821684604F01DFA2146C1
:102BB00007462846FDF7E2FB87420CD100231DF8AB
:102BC0000320F2540133082BF9D10448044906F0DC
:102BD00025FE012000E0002003B0F0BD0C1F002006
:102BE00096E2000810B558210446FDF7C7FB5528AA
:102BF00008D0FFF771FC204658215522FDF7ECFB69
:102C0000FFF766FC10BD10B558210446FDF7B6FB72
:102C100040B1FFF761FC204658210022FDF7DCFBA4
:102C2000FFF756FC10BD0000F7B50F460546FFF74D
:102C300053FC3846082104F0D7F94F2406463B19C7
:102C40002146284613F84F2C0134FDF7C5FB572CBD
:102C5000F5D1214628463246FDF7BEFB4F242146DA
:102C60002846FDF78BFB00AB23440134572C03F8B7
:102C70004F0CF4D16846082104F0B6F9864206D01C
:102C80002846FFF7C0FFFFF723FC002007E00549B7
:102C9000054806F0C3FD2846FFF7A4FF012003B056
:102CA000F0BD00BFABE200080C1F002008B55821A2
:102CB000FDF764FBB0F155035842584108BD70B5AB
:102CC00004460E461546FFF707FC204632462221F1
:102CD000FDF782FB204623212A46FDF77DFBFFF707
:102CE000F7FB70BDFDF74ABBFDF748BB70B5044666
:102CF0000E461546FFF7F0FB204632462421FDF72D
:102D00006BFB204625212A46FDF766FBFFF7E0FB1B
:102D100070BD10B50446FFF7DFFB20465522592150
:102D2000FDF75AFBFFF7D4FB20465921FDF726FBA0
:102D3000B0F155035842584110BD08B55921FDF76F
:102D40001DFBB0F155035842584108BD10B504466B
:102D5000FFF7C2FB204600225921FDF73DFBFFF79C
:102D6000B7FB20465921FDF709FBD0F1010038BF20
:102D7000002010BD73B5002305460E460093019355
:102D8000FFF7AAFB5A2433192146284613F85A2C78
:102D90000134FDF721FB622CF5D13046082104F007
:102DA00023F90646214628463246FDF715FB5A24EC
:102DB00021462846FDF7E2FA00AB23440134622C99
:102DC00003F85A0CF4D10821684604F00DF90446C2
:102DD000FFF77EFBB442064804D1064906F01EFD0B
:102DE000012003E0044906F019FD002002B070BD87
:102DF0000C1F0020C0E20008EEE2000838B50949C7
:102E00000546094806F00AFD5A2421462846FDF7E2
:102E1000B5FA064B1A190134622C02F85A0CF4D197
:102E2000184638BD1FE300080C1F0020401E00207C
:102E300073B5002305460E4600930193FFF74CFB44
:102E4000632433192146284613F8632C0134FDF717
:102E5000C3FA6B2CF5D13046082104F0C5F80646BC
:102E6000732128463246FDF7B7FA632421462846E7
:102E7000FDF784FA00AB234401346B2C03F8630C98
:102E8000F4D10821684604F0AFF80446FFF720FBB0
:102E9000B442064804D1064906F0C0FC012003E014
:102EA000044906F0BBFC002002B070BD0C1F0020DE
:102EB00057E3000885E3000870B50E467421044608
:102EC0001546FDF75BFAB04205D120467521FDF7A6
:102ED00055FAA84219D0FFF7FFFA2046742132466E
:102EE000FDF77AFA204675212A46FDF775FAFFF7B5
:102EF000EFFA20467421FDF741FAB0420BD120468B
:102F00007521FDF73BFAA84205D10649064806F0AF
:102F100085FC012070BD0549034806F07FFC0020B8
:102F200070BD00BFFDE300080C1F00201FE4000877
:102F300010B50446FFF7D0FA204674210022FDF7B1
:102F40004BFA204675210022FDF746FAFFF7C0FA3A
:102F500020467421FDF712FA20B920467521FDF7AD
:102F60000DFA28B10549064806F058FC002010BDAE
:102F70000449034806F052FC012010BD41E400085A
:102F80000C1F002064E4000870B50E467A21044648
:102F90001546FDF7F3F9B04205D120467B21FDF738
:102FA000EDF9A84219D0FFF797FA20467A21324668
:102FB000FDF712FA20467B212A46FDF70DFAFFF7AE
:102FC00087FA20467A21FDF7D9F9B0420BD1204685
:102FD0007B21FDF7D3F9A84205D10649064806F042
:102FE0001DFC012070BD0549034806F017FC0020B8
:102FF00070BD00BF31E500080C1F00205DE5000832
:1030000038B57A210546FDF7B9F97B2104462846F3
:10301000FDF7B4F900EB042038BD000070B50E4692
:10302000782104461546FDF7A9F9B04205D120469E
:103030007921FDF7A3F9A84219D0FFF74DFA2046F0
:1030400078213246FDF7C8F9204679212A46FDF756
:10305000C3F9FFF73DFA20467821FDF78FF9B0421A
:103060000BD120467921FDF789F9A84205D10649FF
:10307000064806F0D3FB012070BD0549034806F061
:10308000CDFB002070BD00BFE3E500080C1F002051
:103090000FE6000838B578210546FDF76FF979216C
:1030A00004462846FDF76AF900EB042038BD00000D
:1030B00070B50E467C2104461546FDF75FF9B04217
:1030C00005D120467D21FDF759F9A84219D0FFF717
:1030D00003FA20467C213246FDF77EF920467D2109
:1030E0002A46FDF779F9FFF7F3F920467C21FDF731
:1030F00045F9B0420BD120467D21FDF73FF9A842AA
:1031000005D10649064806F089FB012070BD054936
:10311000034806F083FB002070BD00BF95E6000861
:103120000C1F0020C5E6000838B57C210546FDF7D8
:1031300025F97D2104462846FDF720F900EB0420FF
:1031400038BD0022026042607047006820B1036809
:103150008B4201D08068F9E7704770B504460C20B7
:1031600016460D4607F0FCFA00228260226880E8CD
:1031700060000AB9206001E062689060606070BD24
:1031800010B51446FFF7E1FF08B14460012010BDFF
:1031900008B5FFF7DAFF00B1406808BD01F51C4132
:1031A0004131FFF7DABF01F51C414131FFF7E8BFBC
:1031B00001F51C414131FFF7EBBF002A01F101018C
:1031C00014BF4FF47F420022FFF7C7BF002A01F56A
:1031D0001C5101F1110114BF4FF47F420022FFF78F
:1031E000BCBF01F5EA413131FFF7B7BF002A01F159
:1031F000010114BF4FF47F420022FFF7C1BF002A34
:1032000001F51C5101F1110114BF4FF47F4200225E
:10321000FFF7B6BF01F5EA413131FFF7B1BF08B59D
:103220000131FFF7B5FFB0F57F435842584108BD63
:1032300001F51C5108B51131FFF7AAFFB0F57F4326
:103240005842584108BD01F5EA413131FFF7A0BFAE
:1032500070B504460D4609480949164606F0DEFADF
:10326000A06807F085FA0220207307F079FA803D04
:103270000323A06005704670637370BD0C1F0020AF
:1032800030E80008F8B5531E7C2B04460F4616465E
:1032900002D903210A4617E001F51C414131FFF72D
:1032A00054FF18B92046032102220DE0A06807F060
:1032B0005FFA701C4000C0B2207307F051FAA060A2
:1032C00030B9204603210422BDE8F840FFF7C0BF13
:1032D00003230370237B0025023B4370E91920463A
:1032E000FFF766FFA3680135020A03F81520A368FB
:1032F000B54203EB45035870F0D103236373F8BD67
:1033000070B504460E461546FFF74DFF18B9204626
:103310000621022208E020463146FFF749FFA84275
:1033200006D0204606210422BDE87040FFF790BF7A
:103330000223637370BD2DE9F8431F4616467A1EBB
:103340007A2A044688469DF8203002D8B3EB470F0E
:1033500003D02046102103221CE006F51C45413510
:1033600005EB070920462946FFF7EFFE18B920466E
:10337000102102220EE001354D45F3D1A06807F07F
:10338000F7F90520207307F0EBF9A06030B920466B
:1033900010210422BDE8F843FFF75ABF1023037041
:1033A000330A4370002307718670C37008F1060565
:1033B0003744BE4205F102050BD015F8022C15F872
:1033C000013C3146204643EA0222FFF7ECFE01367B
:1033D000EFE703236373BDE8F8832DE9F843531E39
:1033E000B3F5FA6F04460F46154602D301210322B6
:1033F00019E00131FFF7A9FE18B920460121022288
:1034000011E0A06807F0B4F9C5F3C7036A070CBF61
:10341000023303332373207B07F0A2F9A06030B995
:10342000204601210422BDE8F843FFF711BF012324
:103430000370237B05EB0708023B43703E460025E3
:1034400046451CD031462046FFF7E9FEC7F1010989
:10345000B1444FEAD909012109F10203A268A94048
:1034600010B1D05C014302E0D05C20EA01010135DB
:10347000EDB2082DD15408BF00250136E0E7032343
:103480006373BDE8F88300002DE9F843531EB3F5DC
:10349000FA6F04460F46154602D3022103221FE0AD
:1034A00001F51C511131FFF750FE18B920460121DA
:1034B000022215E02249234806F0B0F9A06807F07F
:1034C00057F9C5F3C7036A070CBF023303332373ED
:1034D000207B07F045F9A06030B920460221042284
:1034E000BDE8F843FFF7B4BE02230370237B05EB6E
:1034F0000708023B43703E46002546451CD0314636
:103500002046FFF795FEC7F10109B1444FEAD909FA
:10351000012109F10203A268A94010B1D05C014366
:1035200002E0D05C20EA01010135EDB2082DD15452
:1035300008BF00250136E0E703236373BDE8F88385
:1035400053E800080C1F0020F8B5531E7C2B0446DE
:103550000F46164602D90421032217E001F5EA417D
:103560003131FFF7F2FD18B92046012102220DE0AA
:10357000A06807F0FDF8701C4000C0B2207307F08F
:10358000EFF8A06030B9042120460A46BDE8F840B3
:10359000FFF75EBE04230370237B0025023B4370CC
:1035A000E9192046FFF74FFEA3680135020A03F828
:1035B0001520A368B54203EB45035870F0D10323EF
:1035C0006373F8BD70B5B2F57F4F86B004460E4602
:1035D00003D012B10521032215E0151C18BF0125E7
:1035E000204631462A46FFF701FE18B9204605213C
:1035F000022208E020463146FFF711FEA84205D01E
:10360000204605210422FFF723FE17E00C496846F7
:1036100006F011FA694603A806F02EFA094903A834
:1036200006F0E3FA0146084806F0EEF803A806F0B3
:10363000C0F9684606F0BDF90223637306B070BD99
:103640007DE8000895E800080C1F00202DE9F043F4
:103650008BB00446894604A86C49DF081D4616460F
:1036600006F0E9F904A907A806F006FA394607A802
:1036700006F0E1FA0146664806F0C6F807A806F02B
:1036800098F904A806F095F96B0705F1FF3318BF08
:103690000137B3F5F66F03D29DF84830BB4207D02F
:1036A0005C495B4806F0BAF820460F2103224DE042
:1036B000771C07EB050820463946FFF746FD18B989
:1036C00020460F21022241E001374745F3D15048FF
:1036D000514906F0A3F80627504901A806F0ABF9B6
:1036E00001A904A806F0C8F9394604A806F0A3FA0F
:1036F0004B4906F07AFA102219F80710804607A8FD
:1037000006F0D5F907A9404606F062FA014640489E
:1037100006F07AF807A806F04CF904A806F049F973
:10372000013701A806F045F9102FD5D13A4938489C
:1037300006F074F8A06807F01BF80520207307F066
:103740000FF8A06028B920460F210422FFF780FD62
:1037500058E00F230370330A43702B0A8670C3703E
:1037600005712D492A4806F059F806272B4901A86A
:1037700006F061F901A904A806F07EF9394604A80B
:1037800006F059FA264906F030FA102219F8071007
:10379000804607A806F08BF907A9404606F018FAFC
:1037A00001461B4806F030F807A806F002F904A805
:1037B00006F0FFF8013701A806F0FBF8102FD5D16D
:1037C0001348154906F02AF83544B0460027C6EBE1
:1037D000080309EBD3039A7941463A410137FFB216
:1037E000204602F00102FFF701FD08F10108082F51
:1037F00008BF0027A845EAD105480A4906F00EF897
:10380000032363730BB0BDE8F08300BFA7E8000893
:103810000C1F0020B9E80008DFF30008D2E8000818
:10382000E8DA0008D9E800082DE9F0418B784F78F4
:103830008CB0CE7843EA07270B7991F800800C46CC
:103840000546544903A843EA062606F0F4F803A9FE
:1038500009A806F011F91022217806A806F027F928
:1038600006A909A806F0B4F901464B4805F0CCFFBB
:1038700006A806F09EF809A806F09BF803A806F033
:1038800098F8464903A806F0D6F803A909A806F057
:10389000F3F81022394606A806F02CF906A909A863
:1038A00006F096F901463C4805F0AEFF06A806F082
:1038B00080F809A806F07DF803A806F07AF83849E0
:1038C00003A806F0B8F803A909A806F0D5F8102255
:1038D000314606A806F00EF906A909A806F078F9FF
:1038E00001462D4805F090FF06A806F062F809A8E9
:1038F00006F05FF803A806F05CF808F1FF330F2B21
:103900003FD8DFE803F01D230E292F083E3E3E3E40
:103910003E3E3E3E3514284639463246FFF7F0FC1F
:1039200034E0284639463246FFF7ACFC2EE0637996
:103930002846009321463A463346FFF7FCFC25E033
:10394000284639463246FFF748FD1FE028463946EB
:103950003246FFF799FD19E0284639463246FFF70F
:10396000F3FD13E0284639463246FFF72BFE0DE003
:1039700063792846009321463A463346FFF766FEB0
:1039800004E0284641460122FFF762FC0CB0BDE886
:10399000F08100BFE8E800080C1F0020F4E80008F0
:1039A000FEE8000810B50446FFF7CBFB204610BD2B
:1039B00080F828100120704770B5049E0161C6612F
:1039C0000446154608461146DAB205F005FE4FF4E6
:1039D000FA6006F071FA002E08DBF6B230460021DC
:1039E00006F0D8F93046002106F03AFAB5F5964FC0
:1039F00006DD40F2EE23236240F2D663636207E005
:103A0000044B93FBF5F32362034B93FBF5F56562DF
:103A1000012070BDC0E1E400C00E160270B504467E
:103A2000C06986B000280D4606DBC0B2012106F051
:103A300017FA012006F040FA0023227B5E1CDBB25D
:103A40009A421FD9194A1068411C1160E95C184A52
:103A50001154D15C6846102206F029F8694603A883
:103A600006F00AF8134903A806F0BFF80146124809
:103A700005F0ACFE03A805F09CFF684605F099FF31
:103A80003346DAE70D490C4805F0C8FE20690368A3
:103A90009B699847606A06F01DFAE069002803DB1D
:103AA000C0B2002106F0DCF906B070BD601E002037
:103AB0004A1E0020C5EB00080C1F002008EA000881
:103AC000F0B5C9430B4EC9B2705C0B4DC0436C5C82
:103AD000C0B20021AC46CFB2BB4207D0555C013129
:103AE0004540705D60401CF80540F4E744EA002062
:103AF000F0BD00BF08E90008B8EA00082DE9F04170
:103B00000D78037BFF2D01EB030204460E4612F8ED
:103B1000028C12F8017C03D090F82820AA4219D117
:103B2000A268033B204612F8011BDBB2FFF7C8FF77
:103B300047EA0827874202D00A480B490CE0204692
:103B4000711CFFF771FEFF2D4FF0010007D160736C
:103B5000BDE8F0810348054905F060FE0020BDE89E
:103B6000F08100BF0C1F002030EA00085CEA00086A
:103B7000F8B50446C0690F46002806DBC0B2012133
:103B800006F06EF9012006F097F9194D19491A4807
:103B900005F044FE194E2B6894F828105A1CF15475
:103BA000237B2A600022D0B298420AD2286800F112
:103BB000010EC5F800E017F802E0013206F800E057
:103BC000F1E7A2682046FFF77BFF2B68020AF25458
:103BD0001E449A1C7070606A2A6006F07BF9E069E6
:103BE000002803DBC0B2002106F03AF9F8BD00BF9F
:103BF000601E00208CEA00080C1F00204A1E0020D6
:103C0000D2B238B504460D460273002A3ED0204990
:103C1000204805F003FE207B06F0A2FD0023A060F3
:103C2000227B591CDBB29A4204D9E85CA268D054CA
:103C30000B46F5E71748184905F0F0FD0025237BF2
:103C40009D4207D2A3681348595D102205F07CFEFF
:103C50000135F4E710490F4805F0E0FD2046A16862
:103C6000FFF74CFF68B1637B032B04D12046A168AA
:103C7000FFF77EFF05E0022B03D12046A168FFF786
:103C8000CDFEA06806F074FD0023237338BD00BF8D
:103C9000ACEA00080C1F0020DFE8000808B503208C
:103CA00004F0F6FA014B01221A7008BD6D1E0020C7
:103CB00070B55E480D46097803F09AFB69780646B0
:103CC0005A4803F095FB06EB8606594C06EB860630
:103CD00000EB8600E080A978544803F089FB60710E
:103CE000E978524803F084FB207129794F4803F0AA
:103CF0007FFB6979A0704D4803F07AFBA979607069
:103D00004A4803F075FB4B4920704B4805F06BFDAA
:103D1000E1880A22484805F0F6FD4849464805F082
:103D200062FD61790A22444805F00EFE444942488A
:103D300005F059FD21790A223F4805F005FE414969
:103D40003D4805F050FDA1780A223B4805F0FCFDF6
:103D50003D49394805F047FD61780A22364805F0AB
:103D6000F3FD3A49344805F03EFD0A2221783248F5
:103D700005F0EAFD04F0C0FD642006F09DF8204641
:103D8000FCF79CFA0146324804F0A0F9642006F0E2
:103D900093F804F0B7FD2E4804F09BF90146204645
:103DA000FCF700FAE1886423B1FBF3F1C9B21F48C4
:103DB00003F015FB2870E2884FF47A73B2FBF3F13D
:103DC00003FB11211948C9B203F009FB687061793E
:103DD000164803F004FBA8702179144803F0FFFA99
:103DE000A178E870114803F0FAFA617828710F4859
:103DF00003F0F5FA217868710C4803F0F0FA00241A
:103E0000A871295D10220C4805F095FD01340A487F
:103E1000104905F0E8FC072CF3D1074805F0E8FC51
:103E2000BDE8704004480C4905F0F8BCFD1E0020B8
:103E3000641E0020B8EB00080C1F0020BFEB000838
:103E4000C7EB0008CDEB0008D4EB0008DEEB000860
:103E50006E1E0020C5EB0008E8EB000870B51B489B
:103E600086B0FCF72BFA1A4C054604F045FD0A20F3
:103E700006F022F82946204604F028F9204604F0EE
:103E800028F9144D14492A688618684605F0D3FDB0
:103E9000694603A805F0F0FD296803A805F0CBFEEC
:103EA00001460E4805F0B0FC03A805F082FD684607
:103EB00005F07FFD0A493246204604F00CF90A203D
:103EC00005F0FAFF04F01EFD06B070BD641E002070
:103ED0006E1E0020001D00200BEC00080C1F0020AF
:103EE0009D3C00080148112104F0E7B86E1E002037
:103EF000154B10B51A6886B001321A601A68B2F50F
:103F0000615F04D300221A60104B01221A70104C1A
:103F1000684623680F490133236005F08CFD69462C
:103F200003A805F0A9FD216803A805F084FE014659
:103F3000094805F069FC03A805F03BFD684605F05B
:103F400038FD06B010BD00BF741E0020BD1E00204D
:103F5000701E00208DEC00080C1F002070B50D4C69
:103F60002368013323600C4B1D7845B10B4825684D
:103F7000FFF790F885420CD30023236006E0074842
:103F80002668FFF73DF8864203D32560044B0122E3
:103F90001A7070BD781E0020E2190020491E002012
:103FA000021F002010B5084C0849204605F099FB77
:103FB00020460121064A05F0B3FB20460021BDE85A
:103FC000104005F085BB00BF0420002040420F00D8
:103FD0005D3F000810B5084C0849204605F081FBFC
:103FE00020460121064A05F09BFB20460021BDE842
:103FF000104005F06DBB00BF0C20002040420F00B8
:10400000F13E000810B5054C204605F053FB204654
:104010000021BDE8104005F05BBB00BF042000207C
:1040200010B5054C204605F045FB20460021BDE8B3
:10403000104005F04DBB00BF0820002010B5064C15
:10404000204605F037FB2046002105F041FB034BDD
:1040500000221A6010BD00BF0C200020701E00203E
:10406000014805F01FBB00BF04200020014805F0F7
:1040700019BB00BF0820002008B5034805F012FB5B
:10408000024B00221A6008BD0C200020701E002088
:10409000154B70B51A7832B300221A70FFF7E0FFA3
:1040A000124B134A1978156816461C4691B13368AD
:1040B0005B1BB3F5FA6F0BD20E48FDF78BFB0E4975
:1040C0000E4805F0ABFB4FF4FA7005F0F5FEEEE795
:1040D0000023237001210A480A4603F085FEBDE84B
:1040E0007040FFF78FBF70BD021F00204D170020EA
:1040F0005C200020D01900209BEC00080C1F002041
:10410000031F0020F8B5354802F0A6FD344C354DAC
:104110002070324802F0EAFD0646304802F046FEC2
:1041200030442860FF21002005F0BBFEFF21002065
:1041300005F0B7FE2C4B22781978914207D01A70FF
:104140002A4B01222A482B491A7005F067FB2A4B9B
:104150002A681968294C914206D01A602448012324
:104160002749237005F05AFB2A68264B02B1012229
:104170001A7023782BB91D4B1B7813B9224B1B786F
:1041800053B3224B224A1978166817461D4691B13F
:104190003B689B1BB3F5FA6F0BD21E48FDF71AFB69
:1041A0001D49134805F03AFB4FF4FA7005F084FE00
:1041B000EEE700232B7019490D4805F02FFB0B4A41
:1041C00000231370104A01211370237014480A460B
:1041D000BDE8F84003F008BEF8BD00BFBF1E0020D8
:1041E000801E0020881E0020841E0020851E0020C6
:1041F0000C1F0020B4EC00087C1E0020811E002053
:10420000C7EC0008E2190020AF1E00204D17002067
:104210005C200020D01900209BEC0008DAEC00089C
:10422000031F002010B5064C0649204605F003FC8C
:1042300020460549054ABDE8104005F05FBF00BFB4
:10424000B01E0020CDE00008B3990008080000204F
:1042500030B54A4885B0FEF78EFA002846D1484B63
:10426000484918704548FEF74AF928B1434845497E
:10427000FEF785F9002877D14048FEF7D7FB20B13B
:104280003E48FEF758FB002873D101238DF8043017
:104290003A48002301A98DF805308DF806308DF8D5
:1042A00007308DF80830FEF7B5FA18B136483749AF
:1042B00005F0B4FA31480121FEF766FB18B1324827
:1042C000334905F0ABFA33492F4805F0A7FA3249D4
:1042D0002D4805F0A3FA09E0304CA368EBB92F484C
:1042E0002C4905F0D3FB2E48FDF774FA2348FEF75E
:1042F00042FA002833D104F07DFB234805F04AF947
:104300000028E9DD204805F0F1F8C1B2234805F0A6
:104310001FFC022005F0D0FDEFE7204605F021FD4F
:104320002146194805F070FA1E4901A805F083FBE3
:10433000204601A905F09FFC054601A805F039FBC0
:1043400055B11449204605F0A1FB0F48164905F068
:1043500065FA164803F0A4F804F04CFBBFE7084BDD
:1043600001221A7005B030BD1149074805F056FA10
:1043700082E71049044805F051FA86E73F1E002005
:104380000D000020911E00200C1F00202BED0008C6
:1043900068ED0008CDE00008A4ED0008B01E002084
:1043A000D0190020AAE70008E7ED0008031F00204D
:1043B0002AEE00085EEE000870B504F01BFB194BF6
:1043C0001B7843BB70BD184C18482678184D731CD9
:1043D000237005F08BF8A855022005F06DFD2378B9
:1043E000132B0CD904F006FB002612491248267044
:1043F00005F014FA28463146142206F0C3FC23784F
:104400000D481D4415F8011C102205F094FA0A48C5
:104410000A4905F0E8F9054805F0BCF80028D2DCA7
:1044200070BD00BF901E0020831E00203C1F002096
:104430009A1E0020A5EE00080C1F0020D7EE0008F1
:1044400030B5B5488DB002F0E6FDB44801F000FA91
:10445000B34B06201A684FF4FA6122F0E06242F092
:1044600080621A6004F0B6FAAE484FF4E13105F00C
:10447000EFF8AD484FF41651FDF79AFAAB483721E3
:1044800005F084FA4FF41651A94805F0E1F804F05C
:1044900026FAA848FEF724F89F4802F05FFE04F0D1
:1044A000A9FAA148FDF760FA01219F48FDF7FAFB40
:1044B000A14D4FF4FA6005F0FFFC00249F482C70DA
:1044C000FDF788F901232B7004F094FAF1219C4840
:1044D000FEF7FCFA21469448FDF7E4FE9848FEF703
:1044E000BFFA98498F4805F099F997482221FEF7BD
:1044F000FBFB0328044605D193482321FEF7F4FB78
:104500000546E0B1002290480321FEF7D8FB8F4911
:10451000684605F090FA694606A805F0ADFA102243
:10452000032103A805F0D4FA03A906A805F050FB5F
:10453000874905F05AFB0021044609A816E0854981
:10454000684605F078FA694606A805F095FA21460E
:10455000102203A805F0BCFA03A906A805F038FB51
:104560007B4905F042FB2946044609A8102205F0C4
:10457000AFFA204609A905F02BFB0146694805F072
:1045800043F909A805F015FA03A805F012FA06A8E0
:1045900005F00FFA684605F00CFA6B482421FEF787
:1045A000A1FB0228044616D167482521FEF79AFB95
:1045B000054680B9684906A805F03DFA06A909A88C
:1045C00005F05AFA214609A805F02BFB604905F0D1
:1045D0000CFB294614E000225B480221FEF786FB13
:1045E0005E4906A805F027FA06A909A805F044FACD
:1045F000022109A805F015FB554905F0F6FA00213E
:1046000005F00FFB0146474805F0FEF809A805F044
:10461000D0F906A805F0CDF9FFF7CEFEFFF718FE9A
:104620004F485049FEF7B0F8A0B946493D4805F05B
:10463000F5F84D493B4805F0F1F84C4803F048F8CF
:104640003E48FDF7C7F840F6B83002F0DBFE04F054
:10465000D1F9E5E74649334805F0E0F831484549E6
:1046600005F0C1F800243F4B1022195D2D4805F0DC
:1046700062F901342B48404905F0B5F8092CF2D114
:10468000284805F0B5F804F0B5F9FFF78BFCFFF703
:10469000B9FC3A49234805F0C1F82A49214805F0F8
:1046A000BDF8FFF7E3FC36491E4805F0B7F8254989
:1046B0001C4805F0B3F8FFF78DFCFFF7DDFC31492E
:1046C000184805F0ABF81F49164805F0A7F8022274
:1046D0002648012103F012FB2B49124805F09EF8F1
:1046E0001849104805F09AF80C4802F0B5FA274B23
:1046F0001870274B1870094802F0F8FA254B264924
:104700001860264B1860074805F088F80D490548E1
:1047100005F084F80DB030BDFC1E0020BF1E002047
:10472000040001400C1F00203C1E0020241F00201C
:104730003C1F0020481E00200C000020D019002043
:104740003D1E0020CDE000083E1E002039F000088C
:10475000B2EC000884F000089AF00008B0F00008FD
:104760003F1E0020911E0020D9EE0008031F0020EC
:104770000DEF000826EF0008C5EB000830EF000839
:104780006DEF0008A4EF0008DCEF0008841E002095
:10479000801E00207C1E0020F1EF0008881E0020F3
:1047A00070B588B04F4804F0F5FE00280ADD4D488A
:1047B00004F09CFEC1B24C4805F0CAF9022005F095
:1047C0007BFBEFE7484CA368002B00F08980204674
:1047D00005F0C7FA2146434805F016F8434905A8F5
:1047E00005F029F9204605A905F072FA054605A845
:1047F00005F0DFF8002D33D020460021042205F01B
:1048000097FA204605F0B9FA394C02462060C2F307
:1048100007213848D2B2FEF74BFC10B13148364977
:1048200001E03048354904F0F9FF3248FEF77CFCDE
:104830003349206002A805F0FEF802A905A805F09A
:104840001BF9216805A805F0F6F90146254804F092
:10485000DBFF05A805F0ADF802A805F0AAF818E0FE
:10486000284905A805F0E7F8204605A905F003FA50
:10487000054605A805F09DF86DB1234A194813783F
:1048800083F0010313700BB1204900E0204904F0CC
:10489000C5FF154818E01F4905A805F0CCF82046CB
:1048A00005A905F0E8F9064605A805F082F87EB1ED
:1048B00019490C4804F0B2FF009518481849012224
:1048C000184BFDF739FB2046174905F0DFF807E0E4
:1048D0001549204605F0DAF80248144904F09EFF15
:1048E00008B070BD0C1F0020B01E0020FBF00008B7
:1048F000001D0020491E002000F1000838F10008CA
:1049000026EC000873F10008901E00207CF10008DE
:1049100098F10008B4F10008BCF100083C1E00202A
:10492000FE1E0020D8F10008CDE00008E2F10008EA
:104930002DE9F04F87B0624804F02CFE00280ADD14
:104940005F4804F0D3FDC1B25E4805F001F90220D2
:1049500005F0B2FAEFE75B4CA368002B00F0AC80E7
:10496000204605F0FEF92146554804F04DFF564912
:1049700003A805F060F8204603A905F07CF9054678
:1049800003A805F016F8002D00F0948020464F4C47
:104990004F4905F07BF823684E49013348482360AE
:1049A00004F03CFF4C49684605F045F8694603A809
:1049B00005F062F8216803A805F03DF9014640487A
:1049C00004F022FF03A804F0F4FF684604F0F1FFAE
:1049D0003F493B4804F022FFFFF74EFB032003F062
:1049E00057FC3E4A002313703D4A3E4F13703E4A27
:1049F0003B6013703D4A1D4613703D4A1E461370BE
:104A00003C4AA34613703C4A13703C4A13703C4A1C
:104A100013703C4A13703C4A13703C4B0024EC501A
:104A20003B4BDFF814A1EC503A4BDFF81091EC50FF
:104A3000394BDFF80C81EC50384BF0B2EC50384B6E
:104A40000121EC50374B45F80A40F454364B45F8F9
:104A50000940F454354B45F80840F454344B0435C0
:104A6000F454013602F04CFA0C2ED6D1DBF80030AB
:104A700013F0010313D02F48FEF756FB38601423C0
:104A80004AF804303C2349F804304FF6FF7348F8E5
:104A900004300434302CF2D1FFF7D0FA0AE03B6046
:104AA00000224AF8032049F8032048F80320043381
:104AB000302BF5D103F09EFF07B0BDE8F08F00BFAB
:104AC0000C1F0020B01E00200BF200088C1E0020DE
:104AD000CDE000080DF2000850F20008AE1E0020E4
:104AE0006D1E0020001D0020BE1E0020871E00201D
:104AF000EC1D0020861E0020821E0020811E00204A
:104B0000AF1E0020341700204E170020F41D002097
:104B100090170020681D0020241C0020AC1D0020E0
:104B2000281D002035170020651C0020D219002008
:104B30000E000020491E0020BC1C00205017002041
:104B4000781C00202DE9F043804E87B016F80090C5
:104B50000446B9F1000F40F0F480DFF83C827C4F4E
:104B600018F80030002B00F08C807A4D7A4A2B68C0
:104B700052F820209342C0F08480012102F0C0F955
:104B80007649684608F8049004F055FF694603A882
:104B900004F072FF214603A805F039F8704905F0CA
:104BA00024F801466F4804F02FFE03A804F001FF2B
:104BB000684604F0FEFE6B4804F0D0FC6A4B53F8E4
:104BC000242052B301233B5568492B68684D41F8B6
:104BD000243068461344674945F8243004F02BFF1D
:104BE000694603A804F048FF214603A805F00FF822
:104BF000614904F0FAFF55F8241005F01CF801464D
:104C0000584804F001FE03A804F0D3FE684604F0FF
:104C1000D0FE544804F0A2FC33E0584B584D53F8F2
:104C200024205849013A43F824202B786846013360
:104C30002B7004F000FF694603A804F01DFF2978DB
:104C400003A804F0E4FF0146464804F0DDFD03A894
:104C500004F0AFFE684604F0ACFE424804F07EFC6F
:104C60002B780C2B08D13F48474904F0D7FD474A21
:104C700001231370464A1370002001233855335521
:104C800060E0385D002855D0324B1A68384B53F835
:104C900024309A4256D3394B394D53F824200127FA
:104CA000013A43F824202B7836493B4468462B7060
:104CB000375504F0C0FE694603A804F0DDFE2978EC
:104CC00003A804F0A4FF0146264804F09DFD03A8B4
:104CD00004F06FFE684604F06CFE224804F03EFCCF
:104CE0002B780C2B07D11F48274904F097FD274B41
:104CF0001F70274B1F70012368461849335504F075
:104D00009AFE694603A804F0B7FE214603A804F002
:104D10007EFF204904F069FF0146124804F074FD4B
:104D200003A804F046FE684604F043FE0D4804F074
:104D300015FC06E00C4B53F82400003018BF01208E
:104D400000E0002007B0BDE8F08300BFD2190020CA
:104D5000651C0020701E0020241C00205EF200084C
:104D600062F200080C1F002050170020AC1D00202C
:104D7000281D00207EF20008EFE80008781C0020C3
:104D80004E17002091F20008A1F20008AE1E00208C
:104D9000AF1E0020C7F20008351700202DE9F043B0
:104DA0009A4E87B003F026FE33780C2B00F0D880A3
:104DB0000024254603F01EFE954BEFB2E95C002966
:104DC00040F0A1804FF0010805F80380914B04EBFF
:104DD0000309E358002B52D08F4BE358002B4ED0E1
:104DE000384602F08DF88D4B8D4A05F803808D4BC7
:104DF000DFF88C821B688C49A350D9F800206846E4
:104E0000134444F8083004F016FE694603A804F081
:104E100033FE394603A804F0FAFE844904F0E5FEA7
:104E20000146834804F0F0FC03A804F0C2FD684684
:104E300004F0BFFD7F49684604F0FDFD694603A804
:104E400004F01AFE394603A804F0E1FE7A4904F0A2
:104E5000CCFE54F8081004F0EEFE0146744804F04D
:104E6000D3FC03A804F0A5FD684604F0A2FD704839
:104E700004F074FB714BE358002B6AD0C2E06A491E
:104E8000684604F0D8FD694603A804F0F5FD3946EC
:104E900003A804F0BCFE6A4904F0A7FE014664487A
:104EA00004F0B2FC03A804F084FD684604F081FD20
:104EB000644B0127EF54337863493B4468463370B1
:104EC00004F0B9FD694603A804F0D6FD317803A8C3
:104ED00004F09DFE0146564804F096FC03A804F039
:104EE00068FD684604F065FD514804F037FB3378EF
:104EF0000C2B2ED1554B4E4855491F7004F08EFC9B
:104F0000544B1F7025E0013F0A2F07D8DFE807F058
:104F1000080A0C0E10121416181A1C00002014E0B7
:104F2000012012E0022010E003200EE004200CE03B
:104F300005200AE0062008E0072006E0082004E03B
:104F4000092002E00A2000E00B20FFF7FBFD00280B
:104F500058D101350C2D04F104047FF42BAF51E03E
:104F6000FFF78AF8394B3C4D1A7872B100241C7057
:104F70003A4B3B481C70FEF771FF2D48394904F04D
:104F80004DFC394B1C7001232B702B78002B39D032
:104F9000324D2B78002B35D0334C01233349244834
:104FA000237004F03BFC3249214804F037FC2A4AC4
:104FB0000023317813702B70154800221A542148B1
:104FC0001A5416481A54144850F8230001339042DA
:104FD00018BF11460C2BEFD1317051B92549144837
:104FE00004F01CFC2249124804F018FCFFF726F8D4
:104FF00008E021490E48227004F010FC0C481F49BB
:1050000004F00CFC07B0BDE8F08300BF4E17002091
:105010000E000020BC1C0020781C0020351700204A
:10502000681D0020701E00205EF20008DDF20008FE
:105030000C1F002008F30008EFE8000850170020BC
:1050400019F30008D219002091F20008AE1E0020CA
:105050003EF30008AF1E0020871E00206D1E0020BA
:105060006C1E002079F30008E2190020A7F3000865
:10507000D6F30008E3F300080DF4000848F4000834
:10508000241C002070B51B4B86B01E5C0446002E0D
:105090002DD1194D2B5C53B3184B1A68184B53F88C
:1050A00020309A4223D3012101F02AFF154B1649E3
:1050B0001A78684601321A702E5504F0BCFC694615
:1050C00003A804F0D9FC214603A804F0A0FD0F4971
:1050D00004F08BFD01460E4804F096FB03A804F093
:1050E00068FC684604F065FC094804F037FA0020C3
:1050F00006B070BDD219002035170020701E0020A8
:10510000241C00204E1700205EF2000862F2000806
:105110000C1F00202DE9F04F8E4C87B023782746D6
:105120000C2B00F0F48000252C468B4B1A783AB1FA
:105130008A4A11688A4A1268914224BF00221A7072
:10514000884AA118A25C002A40F0B58093F800803C
:10515000B8F1000F40F0AF80DFF858B2012655F8E3
:105160000B300E70002B65D0E0B2414601F0C8FE56
:10517000DFF8E8A17C4B7D4AE654DAF80030DFF82E
:105180003C92AB5055F80B207949134445F809304F
:10519000684604F050FC694603A804F06DFC214603
:1051A00003A804F048FD734904F01FFD014672484E
:1051B00004F02AFB03A804F0FCFB684604F0F9FBAA
:1051C0006E49684604F037FC694603A804F054FCB5
:1051D000214603A804F02FFD694904F006FD55F8A7
:1051E000091004F028FD0146634804F00DFB03A8F4
:1051F00004F0DFFBDFF8C091684604F0DAFB5E489C
:1052000004F0ACF999F800305E4A33441278DBB20E
:105210009A4289F8003073D157485B4904F0FEFA8E
:105220004D4B89F800801E70584B1A78DAF8003020
:105230001A448AE04E49684604F0FDFB694603A81B
:1052400004F01AFC214603A804F0F5FC504904F0D0
:10525000CCFC0146484804F0D7FA03A804F0A9FBA7
:10526000684604F0A6FB4B4B4B49E6543B78684636
:1052700001333B7004F0DFFB694603A804F0FCFB3C
:10528000397803A804F0C3FC01463B4804F0BCFA9B
:1052900003A804F08EFB684604F08BFB364804F04C
:1052A0005DF93B780C2B2BD133483C4904F0B6FA1E
:1052B0003B4B1E7024E0631E0A2B07D8DFE803F087
:1052C000080A0C0E10121416181A1C00002014E004
:1052D000012012E0022010E003200EE004200CE088
:1052E00005200AE0062008E0072006E0082004E088
:1052F000092002E00A2000E00B20FFF7C3FE30BBCC
:1053000001340C2C05F104057FF40FAF1FE0FEF70C
:10531000B3FE2449184804F081FA1748224904F0E2
:105320007DFA224A00231370214A23701360174A22
:105330001370144A13701F4900225A500433402B33
:10534000F9D1054B1A701C4B1A70054B1A6007B047
:10535000BDE8F08F4E170020641C0020701E002056
:10536000381E00200E00002035170020681D002088
:105370005EF200085DF400080C1F002008F300082E
:10538000EFE80008341E002085F400084C170020C8
:10539000A7F40008D219002091F20008C9F400080F
:1053A000AF1E002001F5000848F40008E2190020B3
:1053B00048170020E4190020E3190020241C0020D5
:1053C00070B51B4B86B01E5C0446002E2DD1194DC6
:1053D0002B5C53B3184B1A68184B53F820309A4281
:1053E00023D3012101F08CFD154B16491A7868462C
:1053F00001321A702E5504F01EFB694603A804F012
:105400003BFB214603A804F002FC0F4904F0EDFB2E
:1054100001460E4804F0F8F903A804F0CAFA6846F9
:1054200004F0C7FA094804F099F8002006B070BDEE
:10543000D219002035170020701E0020241C0020E7
:105440004E1700205EF2000862F200080C1F0020D8
:105450002DE9F047844C86B023782746082B00F0CE
:10546000DF8000252C46814B1A783AB1804A1168BA
:10547000804A1268914224BF00221A707E4AA01806
:10548000A25C002A40F0AA801978002940F0A6808A
:10549000DFF828A2012655F80A300670002B5CD0F0
:1054A000E0B201F02DFDDFF8C881744B744AE65478
:1054B000D8F80030DFF81092AB5055F80A20714947
:1054C000134445F80930684604F0B5FA694603A864
:1054D00004F0D2FA214603A804F0ADFB6A4904F0B7
:1054E00084FB0146694804F08FF903A804F061FACF
:1054F000684604F05EFA6649684604F09CFA69461C
:1055000003A804F0B9FA214603A804F094FB61490A
:1055100004F06BFB55F8091004F08DFB01465B4865
:1055200004F072F903A804F044FADFF89491684695
:1055300004F03FFA554804F011F899F80030002BB8
:1055400067D05248544904F069F9484B99F8002053
:105550001E70D8F800301A4480E04A49684604F0CA
:105560006AFA694603A804F087FA214603A804F002
:1055700062FB4A4904F039FB0146444804F044F90F
:1055800003A804F016FA684604F013FA444B4549A0
:10559000E6543B78684601333B7004F04CFA6946A8
:1055A00003A804F069FA397803A804F030FB014637
:1055B000364804F029F903A804F0FBF9684604F022
:1055C000F8F9324803F0CAFF3B78082B21D12F4865
:1055D000354904F023F9354B1E701AE0631E062B83
:1055E00005D8DFE803F006080A0C0E1012000020B0
:1055F0000CE001200AE0022008E0032006E004207D
:1056000004E0052002E0062000E00720FFF7D8FEB6
:1056100030BB0134082C05F104057FF424AF1FE0F2
:10562000FEF72AFD2249194804F0F8F817482149E5
:1056300004F0F4F8204B00221A7022701F49002356
:1056400053500432202AF9D11D4A13701D490022FB
:105650005A500433402BF9D1044B1A70054B1A6091
:1056600006B0BDE8F08700BF4E170020A81D00203F
:10567000701E0020F01D00200E00002035170020B5
:10568000681D00205EF200082AF500080C1F0020AB
:1056900008F30008EFE8000885F4000857F5000853
:1056A000D219002091F200087EF50008AF1E0020FC
:1056B000BBF5000848F40008E2190020041D002092
:1056C000FC1C0020E4190020241C002008B503F075
:1056D00091F91248FCF77EF8002111480A4600F0C3
:1056E00065FA104B1B7813B9FFF758FB08E0012B44
:1056F00002D1FFF70FFD03E0022B01D1FFF7A8FE57
:1057000000F08AF8FEF7C4FCFEF7FCFCFFF710F986
:10571000FFF746F8BDE80840FEF74EBED01900205E
:10572000BF1E0020ED1D002001480021FCF7BABD7E
:105730003C1E00201FB5304801A9FDF725F82F4C6D
:10574000C0B92F492F4804F069F82F4801F0C0FF75
:105750002E48FCF73FF840F6B83004F0ADFB03F0FC
:1057600049F923780133DBB2322B2370E3D903F0FC
:1057700075F9E0E7002323701F48FDF7C0F8C0B9B2
:105780002349204804F04AF81F4801F033FF1F481E
:10579000FCF720F840F6B83004F08EFB03F02AF94D
:1057A00023780133DBB2322B2370E5D903F056F9AD
:1057B000E2E7002323701048FDF722F9C0B915492C
:1057C000104804F02BF8104801F082FF0F48FCF756
:1057D00001F840F6B83004F06FFB03F00BF92378C2
:1057E0000133DBB2322B2370E5D903F037F9E2E75E
:1057F0000023237004B010BD3F1E0020BC1E0020FB
:10580000F1F500080C1F0020031F0020D019002014
:105810003FF6000897F6000808B50A4B1A787AB1E7
:1058200000221A70FEF722FCFFF77EFFFFF782FFCF
:10583000FEF7F6FBBDE808400348044903F0EEBF5D
:1058400008BD00BFBD1E00200C1F0020EDF60008A3
:1058500013B5D14C4FF0FF3300934FF41652002391
:105860002046CE49FEF7A8F820460121FEF7A0F811
:10587000002120460A46FDF7A0FC20460121002217
:10588000FDF79BFC204602210022FDF796FC2046F6
:1058900003210022FDF791FC204604210022FDF7A0
:1058A0008CFC204605210022FDF787FC20460621BE
:1058B0000022FDF782FC204607210022FDF77DFC37
:1058C000204608210022FDF778FC2046092100220D
:1058D000FDF773FC20460A210022FDF76EFC2046EE
:1058E0000B210022FDF769FC20460C210022FDF768
:1058F00064FC20460D210022FDF75FFC20460E21AE
:105900000022FDF75AFC20460F210022FDF755FC2E
:10591000204610210022FDF750FC204611210022D4
:10592000FDF74BFC204612210022FDF746FC2046E5
:1059300013210022FDF741FC204614210022FDF72F
:105940003CFC204615210022FDF737FC204616219D
:105950000022FDF732FC204617210022FDF72DFC26
:10596000204618210022FDF728FC2046192100229C
:10597000FDF723FC20461A210022FDF71EFC2046DD
:105980001B210022FDF719FC20461C210022FDF7F7
:1059900014FC20461D210022FDF70FFC20461E218D
:1059A0000022FDF70AFC20461F210022FDF705FC1E
:1059B000204620210022FDF700FC20462121002264
:1059C000FDF7FBFB204622210022FDF7F6FB2046D7
:1059D00023210022FDF7F1FB204624210022FDF7C0
:1059E000ECFB204625210022FDF7E7FB204626217F
:1059F0000022FDF7E2FB204627210022FDF7DDFB18
:105A0000204628210022FDF7D8FB2046292100222C
:105A1000FDF7D3FB20462A210022FDF7CEFB2046CE
:105A20002B210022FDF7C9FB20462C210022FDF787
:105A3000C4FB20462D210022FDF7BFFB20462E216E
:105A40000022FDF7BAFB20462F210022FDF7B5FB0F
:105A5000204630210022FDF7B0FB204631210022F4
:105A6000FDF7ABFB204632210022FDF7A6FB2046C6
:105A700033210022FDF7A1FB204634210022FDF74F
:105A80009CFB204635210022FDF797FB204636215E
:105A90000022FDF792FB204637210022FDF78DFB07
:105AA000204638210022FDF788FB204639210022BC
:105AB000FDF783FB20463A210022FDF77EFB2046BE
:105AC0003B210022FDF779FB20463C210022FDF717
:105AD00074FB20463D210022FDF76FFB20463E214E
