:020000040800F2
:1000000000C0002069880008518B0008558B00084B
:10001000598B00085D8B0008618B0008B18B0008CC
:10002000B18B0008B18B0008B18B0008B18B0008C0
:10003000B18B0008B18B0008B18B0008419000081B
:10004000B18B0008B18B0008B18B00084587000810
:10005000B18B0008B18B0008B18B0008B18B000890
:10006000B18B0008B18B0008B18B0008B18B000880
:10007000B18B0008B18B0008B18B0008B18B000870
:10008000B18B0008B18B0008298C0008B18B0008E7
:10009000B18B0008B18B0008B18B0008B18B000850
:1000A00089920008AD920008D192000809930008D7
:1000B0005D930008CD9300083D940008B18B0008C3
:1000C000B18B0008B18B0008B18B0008B18B000820
:1000D000B18B00083597000889970008DD97000864
:1000E000B18B00088D870008B18B0008659500086A
:1000F00089950008AD950008E5950008798C000801
:10010000B18B0008B18B0008AD940008B18B0008DA
:1001100031980008859800081D9500084195000851
:10012000B18B0008B18B0008B18B0008B18B0008BF
:1001300010B5054C237833B9044B13B10448AFF321
:1001400000800123237010BD18170020000000005C
:1001500094C0000808B5064B1BB106480649AFF32A
:1001600000800648036813B1054B03B1984708BDEA
:100170000000000094C000081C1700201817002081
:1001800000000000012902D11C30C0B270470629CE
:1001900084BF01F1FF31C9B211F0010F14BF1E205D
:1001A0001F207047444B2DE9F047B1FBF3F603FBEA
:1001B00016113C23B1FBF3F203FB12120546027049
:1001C0004FF46160B1FBF0F200FB1211B1FBF3F3ED
:1001D0006B704FF4FA63AA70B6B2EB80EC884FF400
:1001E000C873B4FBF3F803FB18481FFA88F8B8F19A
:1001F000000F16D06423B4FBF3F203FB12439BB24F
:10020000002B53D014F0030140F26D130CBF4FF4D8
:10021000B7721A4696420EDB002908BF4FF4B77337
:1002200004E0B6F5B77F06DB4FF4B773F61A013476
:10023000B6B2EC80D2E700236B716423B4FBF3F712
:1002400003FB1747BFB2B8F1000F06D03FB114F05F
:10025000030F14BF0020012002E0012000E0384617
:1002600095F80590C0B24946FFF78CFF864209F128
:10027000010A15D3B8F1000F06D03FB114F0030FF7
:1002800014BF0020012002E0012000E03846C0B287
:100290004946FFF777FF301A86B285F805A0D2E706
:1002A00001362E7185F805A0BDE8F087B6F5B67F5A
:1002B000C1DD40F26D13B9E780510100F8B5427815
:1002C00087783C2303FB072702780579467903FBEF
:1002D0000727013D013EEDB2F6B2044605714671B5
:1002E000013E731CE38834D04FF4C872B3FBF2F1C3
:1002F00002FB113292B262B16422B3FBF2F002FB54
:10030000103080B230B113F0030F14BF0020012071
:1003100000E00120C0B2F1B2FFF734FF284485B2FB
:10032000DEE74FF4C872B3FBF2F102FB113292B276
:10033000AAB16422B3FBF2F102FB113292B28AB18C
:1003400013F0030F40F26D1208BF4FF4B77215445B
:10035000ADB2013B9BB2B3F5FA6FE2D205E04FF4C8
:10036000B772F4E740F26D12F1E7024800FB057046
:10037000F8BD00BF8051010007F0B4B838B50D4694
:10038000044607F0CAF8290A49006039204601F0FE
:10039000FE0107F059F9204607F02FF9E9B220468F
:1003A00007F052F9204607F028F9204607F0B5F883
:1003B0002046A12107F048F9204607F01EF9002148
:1003C000204607F068F90546204607F0F9F8204670
:1003D00007F0BEF8284638BD70B50D4616460446EF
:1003E00007F09BF8290A49006039204601F0FE0118
:1003F00007F02AF9204607F000F9E9B2204607F095
:1004000023F9204607F0F9F83146204607F01CF999
:10041000204607F0F2F8204607F09AF8BDE8704051
:100420000A2009F081BF000008B51A4A5178937874
:1004300043EA0123A3F52043152B20D8DFE803F07E
:100440000B270D0F11131F1F1F1F1F1F1F1F1F1F04
:100450001F1517191B1D002008BD022008BD08200C
:1004600008BD092008BD0A2008BD032008BD0420DE
:1004700008BD052008BD062008BD072008BD0021D5
:100480004FF4007203480AF0B5FE0B2008BD0120AE
:1004900008BD00BFD017002010B5074C60181146EA
:1004A00006F028FF054B1B781C4414F8073C1B1A68
:1004B0005842584110BD00BFD0170020D11900206C
:1004C000084B18795B7943EA002045F2555398426E
:1004D00005D04CF20303C31A58425841704701201B
:1004E000704700BFD0170020044B9B79552B044B5D
:1004F0000CBF012200221A70704700BFD0170020E5
:10050000BC1C002010B5084CE379552B01D101200B
:1005100010BD064802F073FBE3798342F7D0D0F1B7
:10052000010038BF002010BDD0170020431E00205E
:1005300013B50D4B1C7A552C01D1012012E00B484C
:10054000694602F0B7FA00231A461DF803108C42E0
:10055000F3D019B90132D2B2052AEED00133052BFE
:10056000F3D1002002B010BDD0170020431E0020A0
:1005700070B505461E46FFF78FFF044640B91C4A7A
:10058000D3781A441379D62B02D01A481A492BE093
:100590002846FFF795FF044678B12846FFF7A4FFE9
:1005A0002846FFF7AFFF044670B96EB113491148F2
:1005B00009F06CFB0F48124916E012490D4809F08A
:1005C00065FB0C4810490FE02846FFF7B1FF0446D1
:1005D00060B99DF810300BB9012407E00B490548BC
:1005E00009F054FB03480A4909F050FB204670BD4E
:1005F000D0170020101F00204CD8000870D8000829
:10060000A7D80008F0D700081ED80008DED80008D8
:1006100016D900081F4B13B51B78002B37D00023C9
:100620000093042117220123FFF7A2FF30B31A49D8
:100630001A4809F02BFB194809F0C8F9184B1C7A25
:10064000012C18D11748D97C02F042FB48B116485A
:100650000F21224607F030FA1448214601F024FF0A
:100660000CE011481021022207F026FA10490B482D
:1006700009F00CFB02E00C4807F098F80D4B084815
:100680001A78002102B0BDE810400AF0B3BD02B0F4
:1006900010BD00BF0D0000204AD90008101F002027
:1006A000D0170020411E0020071F0020401E002000
:1006B0006AD90008D11900201A4B07B51B786BB313
:1006C0000023009304210A220123FFF751FFE0B128
:1006D0001549164809F0DAFA144809F077F9144870
:1006E000144902F099F938B11349104809F0CEFACB
:1006F00012480321022206E011490C4809F0C6FA0B
:100700000E480421012207F0D7F90E4B0E481A7843
:10071000002103B05DF804EB0AF06CBD03B05DF896
:1007200004FB00BF0D000020AED90008101F002000
:10073000431E0020D8170020C6D90008071F00203C
:1007400008DA0008D1190020D017002013B50023C3
:10075000009304210F22FFF70BFF40B31F492048ED
:10076000204C09F093FA1E4809F030F91E4804F1B4
:100770000A0101F0C6FF68B31B4804F10A0102F048
:1007800000F838B31949164809F080FA1648E1799B
:1007900002F0FCF9A0B11649114809F077FA1548A2
:1007A0000521012207F088F90F4802F0CBF8124B1F
:1007B0000C481A78002102B0BDE810400AF01ABDBA
:1007C00007480E4909F062FA0A480621012207F09B
:1007D00073F9ECE702480A49F4E700BF4ADA000877
:1007E000101F0020D0170020431E0020F0DA000860
:1007F00065DA0008071F0020D1190020ABDA0008D5
:100800001DDB000870B52D4B88B01B78002B52D033
:100810002B4C0026E278009604210123FFF7A8FE66
:1008200000283FD02749284809F030FA264809F027
:10083000CDF82548254909F029FAA57AE37A03EB92
:100840000525042D06D820482149052509F01EFA62
:10085000A672E5721F4902A809F025FB02A905A8A6
:1008600009F042FB294605A809F01DFC014616487F
:1008700009F002FA05A809F0D4FA02A809F0D1FAA1
:100880001548A17AE27A02F007FD18B90E4813491B
:1008900009F0FCF9627B237B0092114800210122C0
:1008A00007F070FC0F4B06481A78002108B0BDE82D
:1008B00070400AF09FBC08B070BD00BF0D00002062
:1008C000D017002058DB0008101F002074DB000840
:1008D000ADDB0008D3DB00084D1E0020E3DB000881
:1008E000071F0020D1190020444B73B51B78002B43
:1008F00000F0828000240094042105220123FFF7E8
:1009000037FE00286FD03E493E4809F0BFF93E4906
:100910003C4809F0BBF93B4809F058F808F0A2FA46
:1009200003F0DAFC032007F0EDFE384B01221C70C7
:10093000374B26461C70374B1C70374B1C70374B9F
:100940001C70374B1C60374B1C70374B1C70374B7F
:100950001C70374B1C70374B1C70374B1C70374B5F
:100960001C60374B1A70374B1C60374B1C70374B71
:100970001C70374B1C70374B1C70374B1C60374B4F
:100980001C70374B1C60374B0025E550364BF0B2DE
:10099000E550364B0121E550354BE550354BE550E0
:1009A000354BE550354BE550354BE550354BE55073
:1009B000354BE550354B0434F554354BF554354B38
:1009C000F554354BF554013606F020FC0C2EDAD1E7
:1009D000324B0022EA500435202DF9D1304807214E
:1009E000022207F069F82F4B2F481A78002102B035
:1009F000BDE870400AF0FEBB02B070BD0D000020E3
:100A000024DC0008101F00203DDC0008B21E00207E
:100A1000711E0020C21E00208B1E0020F01D002031
:100A2000041D00208A1E0020861E0020851E002036
:100A3000B31E0020351700204E170020901E002006
:100A40004D170020481700204C170020381E0020AA
:100A5000681C0020E21900203C1E0020AC1D002074
:100A6000F41D0020E4190020C01C002050170020B5
:100A7000F81D0020901700207C1C00206C1D002019
:100A8000281C0020B01D00202C1D0020361700203F
:100A9000691C0020D21900200E000020081D002033
:100AA000071F0020D1190020D01700202DE9F041A8
:100AB000894B90B01B78002B00F00B81874C0023F2
:100AC0000093E27804210123FFF752FD002800F093
:100AD000F7808349834809F0D9F8824808F076FF07
:100AE00008F0C0F9627A804B80491A70A27A804B74
:100AF0007C481A7009F0CAF8237BE67A0BAD7D4971
:100B000008A803EB062609F0CEF908A9284609F043
:100B1000EBF93146284609F0C6FA0146714809F05A
:100B2000ABF8284609F07DF908A809F07AF972486F
:100B3000E17A227B02F02AFB064600284CD16F495D
:100B4000684809F0A3F86E4B01223046FF211A7065
:100B500009F0DFFBFF210746304609F0DAFB69495F
:100B6000064605A809F09FF905A9284609F0BCF931
:100B70001022F9B208A809F0D2F908A9284609F00C
:100B80005FFA0146574809F077F808A809F049F9D3
:100B9000284609F046F905A809F043F95A4905A87D
:100BA00009F081F905A9284609F09EF91022F1B251
:100BB00008A809F0B4F908A9284609F041FA014645
:100BC000484809F059F808A809F02BF9284609F017
:100BD00028F905A809F025F92846002114220AF071
:100BE00009FBE678093E142E01D8002305E03D48B4
:100BF000464909F04BF8022207E0B34204D2E2185A
:100C0000527BEA540133F8E703223D4BFF210020D9
:100C10001A7009F07EFBFF218046002009F079FB65
:100C20003849074602A809F03EF902A908A809F0C8
:100C30005BF910225FFA88F105A809F070F905A99F
:100C400008A809F0FDF90146264809F015F805A89D
:100C500009F0E7F808A809F0E4F802A809F0E1F8BB
:100C6000294902A809F01FF902A908A809F03CF9CE
:100C70001022F9B205A809F052F905A908A809F04F
:100C8000DFF90146174808F0F7FF05A809F0C9F891
:100C900008A809F0C6F802A809F0C3F81C482946BC
:100CA000324605F00BF9637A227B0093A37AE17A4E
:100CB00001931848012306F095FF174B01221A7083
:100CC000164B06481A78002110B0BDE8F0410AF032
:100CD00091BA10B0BDE8F0810D000020D0170020BF
:100CE0004DDC0008101F0020241C002077DC0008C9
:100CF000251C0020CDDC00084D1E0020DDDC000896
:100D0000081F00201EDD00082ADD000836DD00086F
:100D1000C31E0020071F0020851E0020D1190020BF
:100D2000F0B54B4B89B01B78002B00F08E80494EFC
:100D300000230093F27804210123FFF719FC002817
:100D400000F083804449454808F0A0FF434808F07C
:100D50003DFE434B1A780AB15B785BB941493F4885
:100D600008F094FF002300933F483D4901223F4B88
:100D700001F0E4F93E4B727A1B78364D9A4264D109
:100D80003C4BAA7A1B789A425FD13B49334808F022
:100D90007DFF2B7BEF7A05AC384902A803EB0727D0
:100DA00009F081F802A9204609F09EF8394620464C
:100DB00009F079F90146294808F05EFF204609F05C
:100DC00030F802A809F02DF8042F07D823482C4941
:100DD00008F05CFF0023EB7205232B732948F17A9E
:100DE000327B02F00FFA20B927491C4808F04EFF69
:100DF00020E02649194808F049FF254902A809F0D2
:100E000052F802A9204609F06FF81E4802F036FA9F
:100E10000146204609F047F90146104808F02CFF2A
:100E2000204608F0FEFF02A808F0FBFF4FF47A709E
:100E300009F07AFA0023F218527BE2540133072BAF
:100E4000F9D11448214603F063F809B0F0BD00BFA2
:100E50000D000020D017002087DD0008101F0020A3
:100E6000021F00209EDD0008401E0020B7DD0008A4
:100E7000241C0020251C0020C1DD00080ADE00081B
:100E80001DDE00084D1E00205CDE00088DDE00081F
:100E9000AFDE0008701E00202DE9F04F804B89B0B6
:100EA0001B78002B00F0F8807E4F0024FA78042194
:100EB00000940123FFF75CFB002800F0E0807A49F2
:100EC0007A4808F0E3FE794808F080FD784B012568
:100ED0001D7007F0C7FF03F0FFF9032007F012FCB5
:100EE000744A754B1470754A1C701470744A754BB3
:100EF0001470754A1C701470744A754B1470754ADE
:100F00001C701470744A754B1460754A1C7015700F
:100F1000744A754B1460754A1C701470744A754B92
:100F20001470754A1C601470744A26461470744A12
:100F30009B461460734A1470734A1460734B002507
:100F4000E550734BDFF81482E550724BDFF81092D6
:100F5000E550714BDFF80CA2E550704BF0B2E55054
:100F60006F4B0121E5506F4B44F80850E5506E4B34
:100F700044F80950F5546D4B44F80A50F5546C4B45
:100F80000434F5546B4BF554013606F03FF90C2E42
:100F9000D4D1694A0023AB500435202DF9D1674ADA
:100FA0006748137097F8481097F8492002F0B0F995
:100FB00010B13E48634901E03C48634908F066FED1
:100FC0005F4802F0E1F96149CBF8000002A808F09F
:100FD0006AFF02A905A808F087FFDBF8001005A842
:100FE00009F061F80146314808F046FE05A808F00E
:100FF00018FF02A808F015FF07F034FF0022294B64
:101000001046114607EBD00494F84A400C41E4071F
:1010100015D59D7ADC7A04EB052448F8024093F854
:101020002A5093F82B4004EB052449F8024093F82A
:101030004C5093F84D4004EB05244AF8024001312E
:10104000C9B2082900F1010008BF00210C2803F1F2
:10105000020302F10402D5D1144808F0B7FCFF21C5
:10106000002009F056F9FF21002009F052F9384814
:1010700003210C4A06F0BEFE03F010F903E00B4812
:10108000344908F003FE344B06481A78002109B0B1
:10109000BDE8F04F0AF0AEB809B0BDE8F08F00BF70
:1010A0000D000020D0170020BCDE0008101F00201B
:1010B000341700208A1E0020B21E0020861E002049
:1010C000851E0020711E0020B31E00203517002051
:1010D000C21E00204E170020901E00208B1E0020F4
:1010E0004D17002048170020F01D00204C1700204D
:1010F000381E0020041D0020681C0020E21900207A
:101100003C1E0020AC1D0020F41D0020E41900202E
:10111000F81D0020901700206C1D0020281C0020C6
:10112000B01D00202C1D002036170020691C002057
:10113000D21900200E000020081D0020F11D002003
:101140004D1E0020E9DE00082DDF0008A9F100088F
:10115000071F002074DF0008D1190020C01C0020E8
:10116000501700207C1C00202DE9F04F904B89B0D7
:101170001B78002B00F019818E4F0024FA7804218F
:1011800000940123FFF7F4F9002800F001818A4957
:101190008A4808F07BFD894808F018FC884B012537
:1011A0001D7007F05FFE03F097F8032007F0AAFA1E
:1011B000844B85481C70854B04701C70844B85489B
:1011C0001C70854B04701C70844B85481C70854BCB
:1011D00004601C60844B85481C70854B85491C70DD
:1011E000854B864A1C70864B04701C70854B864864
:1011F0001C70864B0C601C70854B14701C60854BFA
:1012000004601D70844B26461C70884693469A469F
:10121000824B0025E550824BDFF86092E550814B10
:10122000F0B2E550804B0121E550804B44F8095065
:10123000E5507F4BE5507F4BE5507F4BE5507F4BB2
:10124000E5507F4B0434F5547E4BF5547E4BF554FA
:101250007E4BF554013605F0D9FF0C2ED8D17C4BCE
:101260000024EC500435202DF9D17A4B01221A705C
:101270003A7A7B7A784903EB022302A8C8F8003057
:1012800008F011FE02A905A808F02EFED8F80010FB
:1012900005A808F008FF714908F0DFFE014647483D
:1012A00008F0EAFC05A808F0BCFD02A808F0B9FDAA
:1012B000BB7A6B4902A88BF8003008F0F4FD02A954
:1012C00005A808F011FE9BF8001005A808F0D7FE4D
:1012D000624908F0C2FE0146384808F0CDFC05A876
:1012E00008F09FFD02A808F09CFDFB7A5D4902A86A
:1012F0008AF8003008F0D7FD02A905A808F0F4FD2F
:101300009AF8001005A808F0BAFE01462B4808F02C
:10131000B3FC05A808F085FD02A808F082FD25466B
:1013200007EBD4031B7B2B41DB0720D5D8F800301B
:101330004D4902A849F8243008F0B5FD02A905A8D6
:1013400008F0D2FD214605A808F0ADFE474908F097
:1013500084FE59F8241008F0A6FE0146174808F04C
:101360008BFC05A808F05DFD02A808F05AFD0135C8
:10137000EDB2082D04F1010408BF00250C2CCFD1DB
:101380003B4803210B4A06F09BFD02F087FF03E078
:101390000A48384908F07AFC374B06481A78002189
:1013A00009B0BDE8F04F09F025BF09B0BDE8F08FE6
:1013B0000D000020D017002092DF0008101F002031
:1013C00034170020B21E0020681C0020711E00206F
:1013D000C21E0020E21900208B1E0020F01D0020FC
:1013E0003C1E0020041D00208A1E0020AC1D002091
:1013F000861E002048170020851E00204C17002064
:10140000B31E002035170020F41D00204E170020C9
:10141000901E00204D170020381E0020C01C002008
:1014200050170020F81D0020901700207C1C002081
:101430006C1D0020281C0020B01D00202C1D002049
:1014400036170020691C0020D21900200E00002051
:10145000081D0020F11D0020B8DF0008E3FB000894
:10146000CEDF0008E5DF0008F9DF00080EE0000825
:10147000071F002012E00008D1190020E419002005
:10148000F0B5734B89B01B78002B00F0DF80714FF3
:101490000024FA78042100940123FFF769F800285A
:1014A00000F0C7806C496D4808F0F0FB6B4808F00D
:1014B0008DFA6B4B01251D7007F0D4FC02F00CFF78
:1014C000032007F01FF9674B26461C70664B1C7003
:1014D000664B1C70664B1C70664B1C70664B1C6028
:1014E000664B1C70664B1C70664B1C70664B1C7008
:1014F000664B1C70664B1C70664B1C60664B1D7007
:10150000664B1C60664B1C70664B1C70664B1C70F7
:10151000664B1C70664B1C60664B1C70664B1C60F7
:10152000664B0025E550664BF0B2E550654B012156
:10153000E550654BE550654BE550654BE550654B17
:10154000E550654BE550654BE550654BE550654B07
:101550000434F554644BF554644BF554644BF55422
:10156000013605F053FE0C2EDAD1624E0024AC5148
:101570000435202DF9D1604B02221A7025467A7C61
:10158000344B2A41D20727D56208043213F81210CF
:1015900003EB42035B7802A803EB012346F82430F7
:1015A000564908F080FC02A905A808F09DFC2146D8
:1015B00005A808F078FD524908F04FFD56F82410B0
:1015C00008F071FD0146254808F056FB05A808F013
:1015D00028FC02A808F025FC0135EDB2082D04F125
:1015E000010408BF0025082CC9D13B7C454C02A84A
:1015F0004549237008F057FC02A905A808F074FCBF
:10160000217805A808F03BFD404908F026FD014679
:10161000124808F031FB05A808F003FC02A808F006
:1016200000FC3B4803210B4A06F0BEFC02F036FEEC
:1016300003E00A48374908F029FB374B05481A7878
:10164000002109B0BDE8F04009F0D4BD09B0F0BDFB
:101650000D000020D017002030E00008101F0020EF
:1016600034170020B21E0020711E0020C21E002070
:101670008B1E0020F01D0020041D00208A1E00206B
:10168000861E0020851E0020B31E00203517002076
:101690004E170020901E00204D17002048170020F4
:1016A0004C170020381E0020681C0020E219002082
:1016B0003C1E0020AC1D0020F41D0020E419002079
:1016C000C01C002050170020F81D0020901700209B
:1016D0007C1C00206C1D0020281C0020B01D002058
:1016E0002C1D002036170020691C0020D219002074
:1016F0000E000020081D0020F11D002059E0000808
:101700000EE00008001D002078E00008E3FB000860
:10171000071F002099E00008D11900202DE9F041B1
:10172000734B98B01B78002B00F0DF80714D0026C2
:10173000EA78009604210123FEF71AFF002800F042
:10174000BF806D496D4808F0A1FA6C4808F03EF979
:101750006B4895F8221095F8232001F0AFFC20B9D2
:101760006648684908F092FA0126002466496348F1
:101770000FAF08F08BFA222338462146102204943A
:1017800005948DF8103009F035FD33238DF83C3089
:101790002346EA18927A04A95A540133082BF8D147
:1017A0000023EA18927CFA540133102BF9D15448E3
:1017B00001F0E2FB002800F08C805148394601F02E
:1017C00039FC002800F0858050494C4808F05EFA4A
:1017D0004B4801F0A0FB4E4805F046FEEC78474828
:1017E000203CE4B24B4908F051FA0A2C13D80023EC
:1017F000A34206AF05D2EA1892F82420FA54013326
:10180000F6E744493D4808F041FA43483946036841
:1018100022469B68984707F025FB4FF47A7008F042
:1018200083FD00243C4808F0EDF800280DF14C0839
:101830000DDD394808F092F808F8040001340B2C4B
:10184000F0D12E48354908F021FA012421E004B3F3
:10185000334909A808F027FB09A90CA808F044FBA4
:1018600021460CA808F01FFC0146244808F004FAA1
:101870000CA808F0D6FA09A808F0D3FA002718F83F
:1018800007101E481022013708F096FAA742F6D139
:101890000CE01A48234908F0F9F934B117482249F5
:1018A00008F0F4F90024042600E003266A7A2B7A73
:1018B0008DE8040102941D483146012206F026FA03
:1018C0001B4B0C481A78002118B0BDE8F04109F014
:1018D00091BC1849094808F0D9F9094801F038FBCA
:1018E0000B4805F0C1FD022678E718B0BDE8F0818D
:1018F0000D000020D0170020B7E00008101F0020C6
:101900004D1E0020E1E000081CE10008EFE10008A6
:10191000001F002077EE0008401F002054E100085F
:1019200069E100087CE10008B4E10008071F00201D
:10193000D11900202CE2000810B50446FEF774FD12
:101940000B2844D8DFE800F0252A2F060B10151AC3
:1019500034393E1F2046BDE81040FEF75BBE2046EE
:10196000BDE81040FEF7A8BE2046BDE81040FEF7D7
:10197000EDBE2046BDE81040FEF744BF2046BDE85E
:101980001040FEF7B1BF12481249BDE8104008F000
:101990007DB92046BDE81040FFF788B82046BDE875
:1019A0001040FFF7BDB92046BDE81040FFF7B6BEB6
:1019B0002046BDE81040FFF76FBA2046BDE8104052
:1019C000FFF7D2BB2046BDE81040FFF759BD10BD60
:1019D000101F002069E200082DE9F043564B8BB040
:1019E0001B688046554D07F03DFA00214FF4007208
:1019F000534809F0FFFB002452482C7008F002F80D
:101A00000A284F4E2F467ED94E483146802208F094
:101A1000F7F92870C3B29C426BD2335D484DFE2B60
:101A200065D12B1993F80390474901A808F03BFAB8
:101A300001A907A808F058FA1022494604A808F09E
:101A400091FA04A907A808F0FBFA01463F4808F0FC
:101A500013F904A808F0E5F907A808F0E2F901A8CD
:101A600008F0DFF93B780B3B1B1B99453AD809EB93
:101A700004032B445A790D2A31D19A790A2A2ED19E
:101A8000DA790D2A2BD11A7A0A2A28D15A7A0D2A04
:101A900025D19B7A0A2B22D12C482D4908F0DBF85E
:101AA000E4B2002509F10B0362199D42D2B210D2B3
:101AB000B15C284B1022E954244808F074F92348FB
:101AC000254908F0C8F8254B01351A7801321A70FB
:101AD000E8E71E48224908F0D9F801240AE01B482B
:101AE000204901E01948204908F0D0F801E001340C
:101AF00090E70024124800214FF4007209F07AFBAD
:101B000000233B7006E0304621464FF4007209F096
:101B100071FB2C7007F0A6F91CB14046FFF70CFFD3
:101B200007E00C4821464FF4007209F063FB0B4BB1
:101B30001C700BB0BDE8F08360200020281D002041
:101B4000241A0020281F002087E20008101F002010
:101B500097E20008D01700205AF10008D1190020A0
:101B60004DE60008A5E20008D0E2000808B51D20F7
:101B7000002108F047FB1D20012108F0A9FB1020DF
:101B8000002108F03FFB1120002108F03BFB1C2046
:101B9000002108F037FB1120002108F099FB1C20E0
:101BA000012108F095FBBDE808401020002108F055
:101BB0008FBB0000014807F083BF00BF281F002033
:101BC00008B561B100211C2008F082FB962008F0C6
:101BD000ABFBBDE808401C20012108F079BB08BD23
:101BE00008B500211D2008F073FB0C4807F06BFFBF
:101BF0000220002108F006FB0320002108F002FB70
:101C00000220002108F064FB0320002108F060FBA3
:101C1000BDE808401C20002108F05ABB281F002006
:101C200010B50B78452B12D14B78522B0FD18B78F6
:101C3000CC78303B03EB8303303C04EB4304E4B249
:101C400021460A22034808F0B7F8204610BD0A20B2
:101C500010BD00BF101F00200B784F2B07D1487814
:101C60004B2804D113704B7801205370704700202B
:101C7000704700002DE9F04190B00E4601A865497B
:101C80001C46904608F00FF9624904A808F00BF9C9
:101C9000604907A808F007F920460021042209F04E
:101CA000A9FAE023A370E37035460027AB1B434538
:101CB0003AD229780A220DA808F031F90DA901A815
:101CC00008F079F90DA808F0ACF815F8013B2C2BB9
:101CD00028D0303BDBB2092B98BF05F8013C15F842
:101CE000011C57B92D2902D14B484C4909E00DA8D8
:101CF0000A2208F014F904A80DE02D2906D146485F
:101D0000474907F0C3FFF023E370CFE70DA80A228D
:101D100008F005F907A80DA908F04DF90DA808F07D
:101D200080F8C3E70127C1E73E490AA808F0BBF8DD
:101D30000AA90DA808F0D8F801A90DA808F080F9A3
:101D40000146354807F098FF0DA808F06AF80AA880
:101D500008F067F834490DA808F0A5F80DA92E4839
:101D600007F06CFF0DA808F05CF8A3782A48F02B68
:101D700001D12E4903E0E02B0CBF26492C4907F086
:101D80006AFF04A90DA808F0AFF82A490DA808F0C9
:101D900064F90146204807F06FFF0DA808F041F8EC
:101DA00025490DA808F07FF80DA91B4807F046FF4C
:101DB0000DA808F036F8E3781748F02B01D11B493D
:101DC00003E0E02B0CBF1349194907F044FF07A9B2
:101DD0000DA808F089F80DA8164908F03EF901464B
:101DE0000D4807F049FF0DA808F01BF804A808F0FB
:101DF000FCF9207007A808F0F8F9607007A808F04F
:101E000010F804A808F00DF801A808F00AF810B0BE
:101E1000BDE8F0814DE60008101F002001E3000836
:101E20000EE300081CE3000827E300087BEE00082F
:101E300032E300083FE3000846E30008F8B54C78B9
:101E4000432C08D18C78532C05D1CC78B4F15105B2
:101E50006C426C4100E000240026F5B24F5D013673
:101E60003A2FFAD10135EDB200279542FEB207F1C3
:101E7000010706D811F805C0013501F806C0EDB21A
:101E8000F3E73CB92046C2B2B2420BD20A5C1A5404
:101E90000130F8E7069A022412681470721ED2B25A
:101EA000FFF7E8FE0120F8BD37B5154809B9154917
:101EB00000E0154907F0CFFE642008F035FA002451
:101EC0000F4807F09FFD0028E5B208DD062C14D06E
:101ED0000B4807F043FD0DF804000134F0E755B15D
:101EE0009DF802304F2B08D19DF80300B0F14B0351
:101EF0005842584102E0284600E0002003B030BDBF
:101F0000281F002052E3000856E3000810B5012105
:101F100004461D2008F0DCF907484FF4165107F07D
:101F2000CFFD20460121FFF74BFE20460121BDE8F1
:101F30001040FFF7B9BF00BF281F00202DE9F04176
:101F40009EB005AD0C460746002190462846642207
:101F5000039309F04FF921462C4807F07CFE6420DA
:101F600008F0E2F90024294807F04CFD0028E6B209
:101F700007DD642C45D0254807F0F0FC28550134D6
:101F8000F1E726B92249234807F080FE39E09DF8A1
:101F900014300D2B35D19DF815300A2B31D11EABE5
:101FA000334413F8653C0A2B2BD1023E1EAB33445D
:101FB00013F8643C0D2B24D10021CCB2A31CDBB25E
:101FC000B34201F1010107DA1EAA134413F8643C7D
:101FD000144404F8643CF0E738462946FFF720FE35
:101FE0000A280CD103AB00933846294622464346C3
:101FF000FFF724FF00280CBF0320022002E001208D
:1020000000E003201EB0BDE8F08100BF281F0020C3
:102010005CE30008101F00202DE9F041B2B0064635
:102020000D4690460021642268461F4609F0E2F8FA
:1020300019A80021642209F0DDF80024E3B2E85C6D
:10204000013420B132AA134403F8640CF6E70146C8
:10205000CAB25D1818F80240EDB232AA01312A4422
:1020600014B102F8644CF3E70D2302F8643C6B1CD6
:1020700032A8DBB203442F480A2203F8642C036819
:1020800019A95B6898472C48AA1C036819A99B6882
:10209000D2B29847642008F047F9274807F0B2FC0D
:1020A0000028E5B208DD642C3FD0234807F056FC39
:1020B0000DF804000134F0E7002D36D09DF8003013
:1020C0000D2B32D19DF801300A2B2ED132AB2B448F
:1020D00013F8C93C0A2B28D1023D32AB2B4413F82C
:1020E000C83C0D2B21D100218B1CDBB2AB4201F18E
:1020F000010209DA32A8034413F8C83CC9B201440A
:1021000001F8C83C1146EFE730466946FFF788FD05
:102110000A2808D1304669463A46FFF79DFD80F00F
:102120000100C0B202E0012000E0032032B0BDE8AF
:10213000F08100BF101F0020281F0020F7B51E46A9
:10214000044617460D4600218DF80710FFF7ACFE38
:1021500006F088FE204631462FB12A460DF10703CE
:10216000FFF7ECFE03E0089A2B46FFF755FF032824
:102170002AD8DFE800F011040207002311E0164816
:10218000164901E01448164907F080FD2046012158
:10219000FFF78AFE00201CE012490F4807F076FD89
:1021A00012E09DF807205E1CDBB29A420A4809D96A
:1021B000E95C102207F0F7FD07480B4907F04BFDDB
:1021C0003346EEE707F04CFD20460121FFF76CFE99
:1021D000012003B0F0BD00BF101F002070E3000815
:1021E00081E300088AE300085AF100082DE9F04372
:1021F0008BB004AF804600210922384602AE00248D
:1022000008F0F8FF0094404631460122454BFFF7A5
:1022100095FF054620B94449444807F037FD7DE065
:102220002346F25C07AC092A01D8303204E0A2F15F
:102230000A01052998BF3732E2540133082BF0D147
:102240004FF000093A488DF8249000F031FE024624
:1022500000284AD03749354807F018FD3448394638
:1022600000F094FD00283BD04B46E15CFA5C9142C3
:1022700048D10133082BF8D12F492C4807F006FD2F
:102280002E492A4807F0E7FC9DF81610274807F06A
:10229000DDFC9DF81710254807F0D8FC9DF81410B8
:1022A000224807F0D3FC9DF81510204807F0CEFC1B
:1022B0009DF812101D4807F0C9FC9DF813101B482B
:1022C00007F0C4FC9DF81010184807F0BFFC9DF8FB
:1022D0001110164807F0BAFC144807F0C1FC1DE0C5
:1022E0001749124807F0D2FC07E0009440463146F7
:1022F000144BFFF723FF054680B121460C4800F040
:1023000095FD0AE01049094807F0C0FC00974046D7
:10231000314600220B4BFFF711FF054628460BB054
:10232000BDE8F083A0E30008ABE30008101F002025
:10233000411E0020CBE3000853E400087DE40008C0
:10234000E9E300080DE4000816E400082DE9F04F69
:1023500089B002AF07F10C068346894690461C46B9
:10236000304600210A2208F045FF002C50D1C7F862
:1023700004D05846CDF80080314601224B46FFF785
:10238000DDFE824608B1214606E04049404807F09C
:102390007DFC3F483F496FE0CCB218F80430013172
:1023A000002BF9D1E11D01F4FC71ADEB010D02A987
:1023B000D8B2A04203D2F05CC8540133F8E70B4610
:1023C000581AC0B2A0420DD213F8010B092801D847
:1023D000303004E0A0F10A05052DF1D8373003F8BC
:1023E000010CEDE70025EBB2A34243D24B5D013572
:1023F00008EB050010F8010C9842F4D02649244857
:1024000007F044FC2248254907F040FC7B689D46C4
:102410006C460023DAB219F8021001330A29F9D107
:10242000931D03F4FC73ADEB030DA2F1020E02AB9E
:102430000020C1B2551EA94200F1010003DA19F8CB
:1024400001505D54F5E700223D215A55584603F8E6
:102450000E10CDF800803146FFF770FE054628B912
:102460000B480F4907F012FCAA4601E04FF0010AA1
:10247000A54605E006480B4907F008FC7B689D4629
:1024800050461C37BD46BDE8F08F00BF8BE4000806
:10249000101F0020B1E40008D5E400082CE5000876
:1024A0006EE50008A3E500087FB50F2204460D463F
:1024B0006846002108F09EFE6848694907F0E6FB7F
:1024C0000A2606F0CFFC002D78D12046FFF78EFEBD
:1024D00064498DF80000644A2B462046FFF736FF1A
:1024E00062498DF80100624A2B462046FFF72EFF15
:1024F00060498DF80200604A2B462046FFF726FF10
:102500005E498DF803005E4A2B462046FFF71EFF0A
:102510005C498DF804005C4A2B462046FFF716FF05
:102520008DF80500594800F013FCF1285849204661
:1025300008D1584A2B46FFF709FF57498DF8060086
:10254000464807E04A4A2B46FFF700FF53498DF8FB
:102550000600424807F09AFB5149524A00232046A0
:10256000FFF7F4FE50498DF807004E4A002320463D
:10257000FFF7ECFE4D498DF80800464A002320463F
:10258000FFF7E4FE4A498DF809004A4A0023204635
:10259000FFF7DCFE48498DF80A00484A0023204630
:1025A000FFF7D4FE324A8DF80B0045492046002340
:1025B000FFF7CCFE0D228DF80C000EE0334800F042
:1025C000C7FBF1280CBF334A294A20463049002373
:1025D000FFF7BCFE01228DF8000000231DF8031058
:1025E000A9B938491D4807F051FB2046FFF78EFC7A
:1025F0002046FFF7F5FA06F035FC2046FFF786FC8B
:102600004FF4FA6007F090FE06F02CFC05E0013371
:10261000D9B29142E2D304B070BD2B4807F0F2F971
:10262000002803DD284807F099F9F6E7013E16F087
:10263000FF067FF446AF2549084807F027FB2449E9
:10264000064807F023FB40F6B83007F06DFE06F0B1
:1026500009FC04B0BDE8704006F038BC101F002033
:10266000CBE50008FAE5000806E600080FE60008DA
:102670000CE6000819E6000825E600082EE600082A
:102680003AE6000843E600084EE60008411E002036
:1026900051E600085BE600085EE600086BE600080D
:1026A00078E6000882E6000885E600088FE6000864
:1026B00099E60008A2E60008A5E60008AFE60008D3
:1026C000B2E60008BCE60008281F0020D9E6000892
:1026D00005E700081520012107F0FABD15200021AB
:1026E00007F0F6BD10B500210446152007F08AFD5D
:1026F0001520012107F0ECFD2046BDE81040FDF754
:102700003BBE7FB505460E46FFF7E8FF0D243319A3
:102710002146284613F80D2C0134FDF75DFE162CDA
:10272000F5D13046092104F0E5FD0646214628464C
:102730003246FDF751FE0D2421462846FDF71EFEC8
:1027400001AB23440134162C03F80D0CF4D101A87D
:10275000092104F0CFFDB04203D0FFF7BBFF0020FA
:102760000DE028460B21FDF709FE552804D0284628
:102770000B215522FDF730FEFFF7ACFF012004B01E
:1027800070BD7FB505460E46FFF7A8FF1724331925
:102790002146284613F8172C0134FDF71DFE202C86
:1027A000F5D13046092104F0A5FD0646214628460C
:1027B0003246FDF711FE172421462846FDF7DEFDBF
:1027C00001AB23440134202C03F8170CF4D101A8E9
:1027D000092104F08FFDB04203D0FFF77BFF0020FA
:1027E0000DE028460C21FDF7C9FD552804D02846E8
:1027F0000C215522FDF7F0FDFFF76CFF012004B01E
:1028000070BDF0B585B001AD06460F4628460021E3
:10281000092208F0EFFC0D2421463046FDF7AEFDFD
:102820002B190134162C03F80D0CF5D12146304636
:10283000FDF7A4FD09210446284604F05BFD84420F
:1028400006D10023EA5CFA540133092BFAD101E0E6
:10285000002000E0012005B0F0BDF0B585B001AD6D
:1028600006460F4628460021092208F0C3FC17241B
:1028700021463046FDF782FD2B190134202C03F848
:10288000170CF5D121463046FDF778FD09210446A5
:10289000284604F02FFD844206D10023EA5CFA5456
:1028A0000133092BFAD101E0002000E0012005B03E
:1028B000F0BD37B50C461E210546FDF75FFD1F2113
:1028C0008DF804002846FDF759FD02218DF805001A
:1028D00001A804F00FFD207003B030BD10B50B212E
:1028E0000446FDF74BFD88B1FFF7F8FE20460022B5
:1028F0000B21FDF771FDFFF7EDFE20460B21FDF7E3
:102900003DFDD0F1010038BF002010BD012010BDF9
:1029100010B50C210446FDF731FD88B1FFF7DEFE4E
:10292000204600220C21FDF757FDFFF7D3FE20467D
:102930000C21FDF723FDD0F1010038BF002010BDB0
:10294000012010BD10B521210446FDF717FD5528C3
:1029500011D0FFF7C3FE204655222121FDF73CFD93
:10296000FFF7B8FE20462121FDF708FDB0F1550321
:102970005842584110BD012010BD08B52121FDF776
:10298000FDFCB0F155035842584108BD70B50446EE
:102990000D46FFF736FF20B120462946FFF75DFFC1
:1029A00048BB20462946FFF72CFF48B11549164879
:1029B00007F06CF920462946BDE87040FFF7E1BEFC
:1029C00020462946FFF749FF06460F4846B10F4902
:1029D00007F05CF920462946BDE87040FFF791BE3C
:1029E0000B4907F053F92046FFF778FF2046FFF721
:1029F0008FFF304670BD0749034807F047F90120B3
:102A000070BD00BF2EE70008101F002065E700081A
:102A10009CE70008B0E70008F8B504460E462F25ED
:102A200073192046294613F82F7CFDF7A7FC87422F
:102A300003D10135342DF3D136E0FFF74FFE2F25BA
:102A400073192946204613F82F2C0135FDF7C4FCD5
:102A5000342DF5D10521304604F04CFC07462946BB
:102A600020463A46FDF7B8FC2F2520462946FDF7BB
:102A700085FC731913F82F3C834217D10135342D8F
:102A8000F3D120462946FDF779FCB8420ED1204605
:102A90003521FDF773FC552804D0204635215522F9
:102AA000FDF79AFCFFF716FE0120F8BDFFF712FEB6
:102AB0000020F8BDF7B505460E462F2421462846CE
:102AC000FDF75CFC00AB23440134342C03F82F0CDD
:102AD000F4D10521684604F00DFC2146074628463E
:102AE000FDF74CFC874207D100231DF80320F25468
:102AF0000133052BF9D101E0002000E0012003B0F3
:102B0000F0BD73B505462F2421462846FDF736FC57
:102B100000AB23440134342C03F82F0CF4D1684665
:102B2000052104F0E7FB214606462846FDF726FC72
:102B3000331A5842584102B070BD38B50546FFF708
:102B4000CDFD2F2428462146FDF718FC68B1284604
:102B500021460022FDF740FC28462146FDF70EFCE9
:102B600018B1FFF7B7FD002038BD0134342CE9D18E
:102B700028463521FDF702FC20B1284635210022E8
:102B8000FDF72AFCFFF7A6FD012038BD37B50D463D
:102B90008DF8071036210446FDF7F0FB85422BD057
:102BA00002ADFFF79BFD15F8012D20463621FDF7FC
:102BB00013FC0121284604F09DFB372102462046E4
:102BC000FDF70AFC20463621FDF7D8FB9DF80730BB
:102BD00083420DD120463821FDF7D0FB552804D083
:102BE000204638215522FDF7F7FBFFF773FD03E080
:102BF000FFF770FD002000E0012003B030BD36215A
:102C0000FDF7BCBB37B536210546FDF7B7FB02AB78
:102C100003F8010D1846012104F06CFB372104462E
:102C20002846FDF7ABFB231A5842584103B030BD8C
:102C300010B536210446FDF7A1FB88B1FFF74EFD24
:102C4000204636210022FDF7C7FB20463621FDF73E
:102C500095FB18B1FFF73EFD002010BDFFF73AFDD0
:102C6000012010BD10B548210446FDF787FB55280B
:102C700011D0FFF733FD204655224821FDF7ACFB6C
:102C8000FFF728FD20464821FDF778FBB0F15503FA
:102C90005842584110BD012010BD10B54D210446C9
:102CA000FDF76CFB552810D0FFF718FD2046552284
:102CB0004D21FDF791FBFFF70DFD20460021FDF7AB
:102CC0005DFB003018BF012010BD012010BD0000C9
:102CD00037B58DF807101031C9B20129044629D83B
:102CE0004C21FDF74BFB9DF80730834228D002AD05
:102CF000FFF7F4FC15F8012D20464C21FDF76CFB85
:102D00000121284604F0F6FA4E2102462046FDF73E
:102D100063FB20464C21FDF731FB9DF807308342D1
:102D200005D12046FFF7B9FFFFF7D4FC08E0FFF715
:102D3000D1FC03E00448054906F0A8FF002000E0AC
:102D4000012003B030BD00BF101F0020E0E70008E5
:102D500037B54C210446FDF711FB02AB03F8010D1A
:102D60001846012104F0C6FA4E2105462046FDF71B
:102D700005FB854202D19DF8070004E02046F021C2
:102D8000FFF7A6FFF02003B030BD0000F7B5054601
:102D90000E464F2421462846FDF7F0FA00AB2344A7
:102DA0000134572C03F84F0CF4D10821684604F085
:102DB000A1FA214607462846FDF7E0FA87420CD1E2
:102DC00000231DF80320F2540133082BF9D10448E5
:102DD000044906F05BFF012000E0002003B0F0BDD5
:102DE000101F002016E8000810B558210446FDF712
:102DF000C5FA552808D0FFF771FC20465821552206
:102E0000FDF7EAFAFFF766FC10BD10B5582104463D
:102E1000FDF7B4FA40B1FFF761FC204658210022CB
:102E2000FDF7DAFAFFF756FC10BD0000F7B50F46C4
:102E30000546FFF753FC3846082104F05BFA4F249F
:102E400006463B192146284613F84F2C0134FDF75E
:102E5000C3FA572CF5D1214628463246FDF7BCFA75
:102E60004F2421462846FDF789FA00AB234401345C
:102E7000572C03F84F0CF4D16846082104F03AFAB5
:102E8000864206D02846FFF7C0FFFFF723FC00204C
:102E900007E00549054806F0F9FE2846FFF7A4FFBC
:102EA000012003B0F0BD00BF2BE80008101F002078
:102EB00008B55821FDF762FAB0F155035842584160
:102EC00008BD70B504460E461546FFF707FC2046C0
:102ED00032462221FDF780FA204623212A46FDF7BB
:102EE0007BFAFFF7F7FB70BDFDF748BAFDF746BA6E
:102EF00070B504460E461546FFF7F0FB20463246F5
:102F00002421FDF769FA204625212A46FDF764FAB7
:102F1000FFF7E0FB70BD10B50446FFF7DFFB20466E
:102F200055225921FDF758FAFFF7D4FB20465921C5
:102F3000FDF724FAB0F155035842584110BD08B5C9
:102F40005921FDF71BFAB0F155035842584108BD0D
:102F500010B50446FFF7C2FB204600225921FDF7B9
:102F60003BFAFFF7B7FB20465921FDF707FAD0F1EE
:102F7000010038BF002010BD73B5002305460E4682
:102F800000930193FFF7AAFB5A24331921462846E0
:102F900013F85A2C0134FDF71FFA622CF5D1304694
:102FA000082104F0A7F90646214628463246FDF7D7
:102FB00013FA5A2421462846FDF7E0F900AB2344D2
:102FC0000134622C03F85A0CF4D10821684604F04D
:102FD00091F90446FFF77EFBB442064804D1064946
:102FE00006F054FE012003E0044906F04FFE0020E5
:102FF00002B070BD101F002040E800086EE8000815
:1030000038B509490546094806F040FE5A242146CC
:103010002846FDF7B3F9064B1A190134622C02F861
:103020005A0CF4D1184638BD9FE80008101F002044
:10303000441E002073B5002305460E4600930193FD
:10304000FFF74CFB632433192146284613F8632C01
:103050000134FDF7C1F96B2CF5D13046082104F09D
:1030600049F90646732128463246FDF7B5F963242F
:1030700021462846FDF782F900AB234401346B2C2E
:1030800003F8630CF4D10821684604F033F90446D0
:10309000FFF720FBB442064804D1064906F0F6FDCE
:1030A000012003E0044906F0F1FD002002B070BDEC
:1030B000101F0020D7E8000805E9000870B50E468B
:1030C000742104461546FDF759F9B04205D1204652
:1030D0007521FDF753F9A84219D0FFF7FFFA2046F2
:1030E00074213246FDF778F9204675212A46FDF70E
:1030F00073F9FFF7EFFA20467421FDF73FF9B0426C
:103100000BD120467521FDF739F9A84205D10649B2
:10311000064806F0BBFD012070BD0549034806F0D6
:10312000B5FD002070BD00BF7DE90008101F002024
:103130009FE9000810B50446FFF7D0FA2046742135
:103140000022FDF749F9204675210022FDF744F9D8
:10315000FFF7C0FA20467421FDF710F920B9204688
:103160007521FDF70BF928B10549064806F08EFDDB
:10317000002010BD0449034806F088FD012010BD61
:10318000C1E90008101F0020E4E9000870B50E46F0
:10319000762104461546FDF7F1F8B04205D12046E8
:1031A0007721FDF7EBF8A84219D0FFF797FA2046F0
:1031B00076213246FDF710F9204677212A46FDF7A1
:1031C0000BF9FFF787FA20467621FDF7D7F8B042D2
:1031D0000BD120467721FDF7D1F8A84205D1064949
:1031E000064806F053FD012070BD0549034806F06E
:1031F0004DFD002070BD00BF07EA0008101F002031
:103200002FEA000870B50E467A2104461546FDF7F0
:10321000B5F8B04205D120467B21FDF7AFF8A842B2
:1032200019D0FFF75BFA20467A213246FDF7D4F831
:1032300020467B212A46FDF7CFF8FFF74BFA2046C0
:103240007A21FDF79BF8B0420BD120467B21FDF798
:1032500095F8A84205D10649064806F017FD012059
:1032600070BD0549034806F011FD002070BD00BF88
:10327000B1EA0008101F0020E3EA000838B57A21FF
:103280000546FDF77BF87B2104462846FDF776F8D6
:1032900000EB042038BD000070B50E4678210446CE
:1032A0001546FDF76BF8B04205D120467921FDF7B0
:1032B00065F8A84219D0FFF711FA20467821324666
:1032C000FDF78AF8204679212A46FDF785F8FFF7B1
:1032D00001FA20467821FDF751F8B0420BD1204683
:1032E0007921FDF74BF8A84205D10649064806F0BA
:1032F000CDFC012070BD0549034806F0C7FC002045
:1033000070BD00BF78EB0008101F0020A4EB000880
:1033100070B50E467C2104461546FDF72FF8B042E5
:1033200005D120467D21FDF729F8A84219D0FFF7E5
:10333000D5F920467C213246FDF74EF820467D2106
:103340002A46FDF749F8FFF7C5F920467C21FDF72D
:1033500015F8B0420BD120467D21FDF70FF8A842A9
:1033600005D10649064806F091FC012070BD0549CB
:10337000034806F08BFC002070BD00BF2AEC00085B
:10338000101F00205AEC000838B57C210546FCF7D8
:10339000F5FF7D2104462846FCF7F0FF00EB0420F2
:1033A00038BD0022026042607047006820B10368A7
:1033B0008B4201D08068F9E7704770B504460C2055
:1033C00016460D4607F004FC00228260226880E861
:1033D00060000AB9206001E062689060606070BDC2
:1033E00010B51446FFF7E1FF08B14460012010BD9D
:1033F00008B5FFF7DAFF00B1406808BD01F51C41D0
:103400004131FFF7DABF01F51C414131FFF7E8BF59
:1034100001F51C414131FFF7EBBF002A01F1010129
:1034200014BF4FF47F420022FFF7C7BF002A01F507
:103430001C5101F1110114BF4FF47F420022FFF72C
:10344000BCBF01F5EA413131FFF7B7BF002A01F1F6
:10345000010114BF4FF47F420022FFF7C1BF002AD1
:1034600001F51C5101F1110114BF4FF47F420022FC
:10347000FFF7B6BF01F5EA413131FFF7B1BF08B53B
:103480000131FFF7B5FFB0F57F435842584108BD01
:1034900001F51C5108B51131FFF7AAFFB0F57F43C4
:1034A0005842584108BD01F5EA413131FFF7A0BF4C
:1034B00070B504460D4609480949164606F0E6FB74
:1034C000A06807F08DFB0220207307F081FB803D90
:1034D0000323A06005704670637370BD101F002049
:1034E000C5ED0008F8B5531E7C2B04460F46164662
:1034F00002D903210A4617E001F51C414131FFF7CB
:1035000054FF18B92046032102220DE0A06807F0FD
:1035100067FB701C4000C0B2207307F059FBA0602D
:1035200030B9204603210422BDE8F840FFF7C0BFB0
:1035300003230370237B0025023B4370E9192046D7
:10354000FFF766FFA3680135020A03F81520A36898
:10355000B54203EB45035870F0D103236373F8BD04
:1035600070B504460E461546FFF74DFF18B92046C4
:103570000621022208E020463146FFF749FFA84213
:1035800006D0204606210422BDE87040FFF790BF18
:103590000223637370BD2DE9F8431F4616467A1E59
:1035A0007A2A044688469DF8203002D8B3EB470FAC
:1035B00003D02046102103221CE006F51C454135AE
:1035C00005EB070920462946FFF7EFFE18B920460C
:1035D000102102220EE001354D45F3D1A06807F01D
:1035E000FFFA0520207307F0F3FAA06030B92046F7
:1035F00010210422BDE8F843FFF75ABF10230370DF
:10360000330A4370002307718670C37008F1060502
:103610003744BE4205F102050BD015F8022C15F80F
:10362000013C3146204643EA0222FFF7ECFE013618
:10363000EFE703236373BDE8F8832DE9F843531ED6
:10364000B3F5FA6F04460F46154602D30121032253
:1036500019E00131FFF7A9FE18B920460121022225
:1036600011E0A06807F0BCFAC5F3C7036A070CBFF6
:10367000023303332373207B07F0AAFAA06030B92A
:10368000204601210422BDE8F843FFF711BF0123C2
:103690000370237B05EB0708023B43703E46002581
:1036A00046451CD031462046FFF7E9FEC7F1010927
:1036B000B1444FEAD909012109F10203A268A940E6
:1036C00010B1D05C014302E0D05C20EA0101013579
:1036D000EDB2082DD15408BF00250136E0E70323E1
:1036E0006373BDE8F88300002DE9F843531EB3F57A
:1036F000FA6F04460F46154602D3022103221FE04B
:1037000001F51C511131FFF750FE18B92046012177
:10371000022215E02249234806F0B8FAA06807F013
:103720005FFAC5F3C7036A070CBF02330333237381
:10373000207B07F04DFAA06030B920460221042218
:10374000BDE8F843FFF7B4BE02230370237B05EB0B
:103750000708023B43703E46002546451CD03146D3
:103760002046FFF795FEC7F10109B1444FEAD90998
:10377000012109F10203A268A94010B1D05C014304
:1037800002E0D05C20EA01010135EDB2082DD154F0
:1037900008BF00250136E0E703236373BDE8F88323
:1037A000E8ED0008101F0020F8B5531E7C2B0446DE
:1037B0000F46164602D90421032217E001F5EA411B
:1037C0003131FFF7F2FD18B92046012102220DE048
:1037D000A06807F005FA701C4000C0B2207307F023
:1037E000F7F9A06030B9042120460A46BDE8F84048
:1037F000FFF75EBE04230370237B0025023B43706A
:10380000E9192046FFF74FFEA3680135020A03F8C5
:103810001520A368B54203EB45035870F0D103238C
:103820006373F8BD70B5B2F57F4F86B004460E469F
:1038300003D012B10521032215E0151C18BF012584
:10384000204631462A46FFF701FE18B920460521D9
:10385000022208E020463146FFF711FEA84205D0BB
:10386000204605210422FFF723FE17E00C49684695
:1038700006F019FB694603A806F036FB094903A8C0
:1038800006F0EBFB0146084806F0F6F903A806F03F
:10389000C8FA684606F0C5FA0223637306B070BD25
:1038A00012EE00082AEE0008101F00202DE9F04358
:1038B0008BB00446894604A86C49DF081D461646AD
:1038C00006F0F1FA04A907A806F00EFB394607A88E
:1038D00006F0E9FB0146664806F0CEF907A806F0B7
:1038E000A0FA04A806F09DFA6B0705F1FF3318BF94
:1038F0000137B3F5F66F03D29DF84830BB4207D0CD
:103900005C495B4806F0C2F920460F2103224DE0D6
:10391000771C07EB050820463946FFF746FD18B926
:1039200020460F21022241E001374745F3D150489C
:10393000514906F0ABF90627504901A806F0B3FA41
:1039400001A904A806F0D0FA394604A806F0ABFB9A
:103950004B4906F082FB102219F80710804607A891
:1039600006F0DDFA07A9404606F06AFB014640482A
:1039700006F082F907A806F054FA04A806F051FAF6
:10398000013701A806F04DFA102FD5D13A49384831
:1039900006F07CF9A06807F023F90520207307F0F2
:1039A00017F9A06028B920460F210422FFF780FDF7
:1039B00058E00F230370330A43702B0A8670C370DC
:1039C00005712D492A4806F061F906272B4901A8FF
:1039D00006F069FA01A904A806F086FA394604A897
:1039E00006F061FB264906F038FB102219F8071093
:1039F000804607A806F093FA07A9404606F020FB88
:103A000001461B4806F038F907A806F00AFA04A890
:103A100006F007FA013701A806F003FA102FD5D1F6
:103A20001348154906F032F93544B0460027C6EB75
:103A3000080309EBD3039A7941463A410137FFB2B3
:103A4000204602F00102FFF701FD08F10108082FEE
:103A500008BF0027A845EAD105480A4906F016F92B
:103A6000032363730BB0BDE8F08300BF3CEE000896
:103A7000101F00204EEE0008D3F9000867EE000882
:103A80000EE000086EEE00082DE9F0418B784F78CB
:103A90008CB0CE7843EA07270B7991F800800C466A
:103AA0000546544903A843EA062606F0FCF903A993
:103AB00009A806F019FA1022217806A806F02FFAB4
:103AC00006A909A806F0BCFA01464B4806F0D4F84E
:103AD00006A806F0A6F909A806F0A3F903A806F0BF
:103AE000A0F9464903A806F0DEF903A909A806F0E3
:103AF000FBF91022394606A806F034FA06A909A8EF
:103B000006F09EFA01463C4806F0B6F806A806F014
:103B100088F909A806F085F903A806F082F9384962
:103B200003A806F0C0F903A909A806F0DDF91022E0
:103B3000314606A806F016FA06A909A806F080FA8A
:103B400001462D4806F098F806A806F06AF909A87B
:103B500006F067F903A806F064F908F1FF330F2BAC
:103B60003FD8DFE803F01D230E292F083E3E3E3EDE
:103B70003E3E3E3E3514284639463246FFF7F0FCBD
:103B800034E0284639463246FFF7ACFC2EE0637934
:103B90002846009321463A463346FFF7FCFC25E0D1
:103BA000284639463246FFF748FD1FE02846394689
:103BB0003246FFF799FD19E0284639463246FFF7AD
:103BC000F3FD13E0284639463246FFF72BFE0DE0A1
:103BD00063792846009321463A463346FFF766FE4E
:103BE00004E0284641460122FFF762FC0CB0BDE824
:103BF000F08100BF7DEE0008101F002089EE000854
:103C000093EE000810B50446FFF7CBFB204610BD2D
:103C100080F828100120704770B5049E0161C661CC
:103C20000446154608461146DAB205F00DFF4FF47A
:103C3000FA6006F079FB002E08DBF6B23046002170
:103C400006F0E0FA3046002106F042FBB5F5964F4B
:103C500006DD40F2EE23236240F2D663636207E0A2
:103C6000044B93FBF5F32362034B93FBF5F565627D
:103C7000012070BDC0E1E400C00E160270B504461C
:103C8000C06986B000280D4606DBC0B2012106F0EF
:103C90001FFB012006F048FB0023227B5E1CDBB2E9
:103CA0009A421FD9194A1068411C1160E95C184AF0
:103CB0001154D15C6846102206F031F9694603A818
:103CC00006F012F9134903A806F0C7F90146124895
:103CD00005F0B4FF03A806F0A4F8684606F0A1F8C2
:103CE0003346DAE70D490C4805F0D0FF2069036838
:103CF0009B699847606A06F025FBE069002803DBB2
:103D0000C0B2002106F0E4FA06B070BD641E0020C7
:103D10004E1E00205AF10008101F00209DEF0008E1
:103D2000F0B5C9430B4EC9B2705C0B4DC0436C5C1F
:103D3000C0B20021AC46CFB2BB4207D0555C0131C6
:103D40004540705D60401CF80540F4E744EA0020FF
:103D5000F0BD00BF9DEE00084DF000082DE9F041D8
:103D60000D78037BFF2D01EB030204460E4612F88B
:103D7000028C12F8017C03D090F82820AA4219D1B5
:103D8000A268033B204612F8011BDBB2FFF7C8FF15
:103D900047EA0827874202D00A480B490CE0204630
:103DA000711CFFF771FEFF2D4FF0010007D160730A
:103DB000BDE8F0810348054905F068FF0020BDE833
:103DC000F08100BF101F0020C5EF0008F1EF0008D0
:103DD000F8B50446C0690F46002806DBC0B20121D1
:103DE00006F076FA012006F09FFA194D19491A4893
:103DF00005F04CFF194E2B6894F828105A1CF1540A
:103E0000237B2A600022D0B298420AD2286800F1AF
:103E1000010EC5F800E017F802E0013206F800E0F4
:103E2000F1E7A2682046FFF77BFF2B68020AF254F5
:103E30001E449A1C7070606A2A6006F083FAE0697A
:103E4000002803DBC0B2002106F042FAF8BD00BF33
:103E5000641E002021F00008101F00204E1E0020CC
:103E6000D2B238B504460D460273002A3ED020492E
:103E7000204805F00BFF207B06F0AAFE0023A0607F
:103E8000227B591CDBB29A4204D9E85CA268D05468
:103E90000B46F5E71748184905F0F8FE0025237B87
:103EA0009D4207D2A3681348595D102205F084FF94
:103EB0000135F4E710490F4805F0E8FE2046A168F7
:103EC000FFF74CFF68B1637B032B04D12046A16848
:103ED000FFF77EFF05E0022B03D12046A168FFF724
:103EE000CDFEA06806F07CFE0023237338BD00BF22
:103EF00041F00008101F002074EE000808B50320F0
:103F000004F000FC014B01221A7008BD711E002054
:103F100070B55E480D46097803F0F0FB69780646F7
:103F20005A4803F0EBFB06EB8606594C06EB860677
:103F300000EB8600E080A978544803F0DFFB607155
:103F4000E978524803F0DAFB207129794F4803F0F1
:103F5000D5FB6979A0704D4803F0D0FBA97960705A
:103F60004A4803F0CBFB4B4920704B4805F073FEE9
:103F7000E1880A22484805F0FEFE4849464805F017
:103F80006AFE61790A22444805F016FF4449424816
:103F900005F061FE21790A223F4805F00DFF4149F5
:103FA0003D4805F058FEA1780A223B4805F004FF81
:103FB0003D49394805F04FFE61780A22364805F040
:103FC000FBFE3A49344805F046FE0A222178324881
:103FD00005F0F2FE04F0C8FE642006F0A5F92046C4
:103FE000FCF76CF90146324804F0AAFA642006F0A6
:103FF0009BF904F0BFFE2E4804F0A5FA01462046C6
:10400000FCF7D0F8E1886423B1FBF3F1C9B21F4893
:1040100003F06BFB2870E2884FF47A73B2FBF3F184
:1040200003FB11211948C9B203F05FFB6870617985
:10403000164803F05AFBA8702179144803F055FB89
:10404000A178E870114803F050FB617828710F489F
:1040500003F04BFB217868710C4803F046FB002409
:10406000A871295D10220C4805F09DFE01340A4814
:10407000104905F0F0FD072CF3D1074805F0F0FDDD
:10408000BDE8704004480C4905F000BE011F002047
:10409000681E00204DF10008101F002054F1000898
:1040A0005CF1000862F1000869F1000873F1000892
:1040B000721E00205AF100087DF1000870B51B48FF
:1040C00086B0FCF7FBF81A4C054604F04DFE0A20BA
:1040D00006F02AF92946204604F032FA204604F078
:1040E00032FA144D14492A688618684605F0DBFE3A
:1040F000694603A805F0F8FE296803A805F0D3FF78
:1041000001460E4805F0B8FD03A805F08AFE684692
:1041100005F087FE0A493246204604F016FA0A20C6
:1041200006F002F904F026FE06B070BD681E0020FD
:10413000721E0020041D0020A0F10008101F0020A6
:10414000FD3E00080148112104F0F1B9721E002063
:10415000154B10B51A6886B001321A601A68B2F5AC
:10416000615F04D300221A60104B01221A70104CB8
:10417000684623680F490133236005F094FE6946C1
:1041800003A805F0B1FE216803A805F08CFF0146E5
:10419000094805F071FD03A805F043FE684605F0E7
:1041A00040FE06B010BD00BF781E0020C11E0020DA
:1041B000741E002022F20008101F002038B50E4C9B
:1041C0000E48236801332360FFF758F8042812D9FA
:1041D0000A48FFF753F8B0F5E16F00D938BD07483A
:1041E0002568FFF74BF8854205D300232360044B75
:1041F00001221A7038BD38BD7C1E00204D1E0020E3
:10420000061F002010B5084C0849204605F0A1FC07
:1042100020460121064A05F0BBFC20460021BDE8EE
:10422000104005F08DBC00BF0820002040420F0068
:10423000BD41000810B5084C0849204605F089FC2E
:1042400020460121064A05F0A3FC20460021BDE8D6
:10425000104005F075BC00BF1020002040420F0048
:104260005141000810B5054C204605F05BFC204686
:104270000021BDE8104005F063BC00BF082000200D
:1042800010B5054C204605F04DFC20460021BDE848
:10429000104005F055BC00BF0C20002010B5064CA6
:1042A000204605F03FFC2046002105F049FC034B69
:1042B00000221A6010BD00BF10200020741E0020D4
:1042C000014805F027BC00BF08200020014805F088
:1042D00021BC00BF0C20002008B5034805F01AFCE3
:1042E000024B00221A6008BD10200020741E00201E
:1042F00070B5194C237873B3184B1D7835B3002370
:104300002370FFF7DDFF164B164A1978156816461D
:104310001C4691B133685B1BB3F5FA6F0BD21248A0
:10432000FDF75AFB1149124805F0B0FC4FF4FA7042
:1043300005F0FAFFEEE70023237001210D480A463D
:1043400004F040F8BDE87040FFF78CBF08480A4908
:1043500005F09CFC257070BD061F0020341700205E
:104360004D17002060200020D019002030F20008F6
:10437000101F0020071F002049F20008F8B535483B
:1043800002F0F2FD344C354D2070324802F036FE1A
:104390000646304802F092FE30442860FF2100209B
:1043A00005F0B7FFFF21002005F0B3FF2C4B22786A
:1043B0001978914207D01A702A4B01222A482B49BA
:1043C0001A7005F063FC2A4B2A681968294C91423F
:1043D00006D01A60244801232749237005F056FCB3
:1043E0002A68264B02B101221A7023782BB91D4B83
:1043F0001B7813B9224B1B7853B3224B224A1978EE
:10440000166817461D4691B13B689B1BB3F5FA6FC2
:104410000BD21E48FDF7E0FA1D49134805F036FCA3
:104420004FF4FA7005F080FFEEE700232B70194976
:104430000D4805F02BFC0B4A00231370104A012194
:104440001370237014480A46BDE8F84003F0BABF61
:10445000F8BD00BFC31E0020841E00208C1E00205B
:10446000881E0020891E0020101F00206EF2000808
:10447000801E0020851E002081F2000834170020D5
:10448000B31E00204D17002060200020D01900200E
:1044900030F2000894F20008071F002010B5064C07
:1044A0000649204605F0FFFC20460549054ABDE8BF
:1044B000104006F05BB800BFB41E00204DE60008B7
:1044C000239E00080800002030B54A4885B0FEF75A
:1044D00054FA002846D1484B484918704548FEF721
:1044E00010F928B143484549FEF74BF9002877D128
:1044F0004048FEF79DFB20B13E48FEF71EFB00281A
:1045000073D101238DF804303A48002301A98DF8B6
:1045100005308DF806308DF807308DF80830FEF73D
:104520007BFA18B13648374905F0B0FB3148012114
:10453000FEF72CFB18B13248334905F0A7FB33498D
:104540002F4805F0A3FB32492D4805F09FFB09E0F9
:10455000304CA368EBB92F482C4905F0CFFC2E480E
:10456000FDF73AFA2348FEF708FA002833D104F0A1
:1045700079FC234805F046FA0028E9DD204805F0DB
:10458000EDF9C1B2234805F01BFD022005F0CCFE79
:10459000EFE7204605F01DFE2146194805F06CFBAB
:1045A0001E4901A805F07FFC204601A905F09BFDEE
:1045B000054601A805F035FC55B11449204605F023
:1045C0009DFC0F48164905F061FB164803F0EEF814
:1045D00004F048FCBFE7084B01221A7005B030BD5B
:1045E0001149074805F052FB82E71049044805F0DD
:1045F0004DFB86E7431E00200D000020951E002085
:10460000101F0020E5F2000822F300084DE6000824
:104610005EF30008B41E0020D01900203FED000812
:10462000A1F30008071F0020E4F3000818F40008B5
:1046300070B504F017FC194B1B7843BB70BD184CC8
:1046400018482678184D731C237005F087F9A85573
:10465000022005F069FE2378132B0CD904F002FC2C
:10466000002612491248267005F010FB28463146F4
:10467000142206F0BFFD23780D481D4415F8011CD7
:10468000102205F090FB0A480A4905F0E4FA0548B3
:1046900005F0B8F90028D2DC70BD00BF941E0020E0
:1046A000871E0020401F00209E1E00205FF400088F
:1046B000101F002091F4000830B585488FB002F03B
:1046C00030FE844801F04CFA834B06201A684FF400
:1046D000FA6122F0E06242F080621A6004F0B2FBFC
:1046E0007E484FF4E13105F0EBF97D484FF4165167
:1046F000FDF760FA7B48372105F080FB4FF4165137
:10470000794805F0DDF904F022FB7848FDF7EAFF6F
:104710006F4802F0A9FE04F0A5FB7148FDF726FAE8
:1047200001216F48FDF7C0FB714D4FF4FA6005F0B1
:10473000FBFD00246F482C70FDF74EF901232B7010
:1047400004F090FBF1216C48FEF7C2FA2146644860
:10475000FDF7AAFE6848FEF785FA68495F4805F04C
:1047600095FA67482221FEF7C1FB0328044605D1CC
:1047700063482321FEF7BAFB0546E0B100226048FA
:104780000321FEF79EFB5F4902A805F08CFB02A9FE
:1047900008A805F0A9FB1022032105A805F0D0FB0D
:1047A00005A908A805F04CFC574905F056FC002166
:1047B00004460BA816E0554902A805F074FB02A9AF
:1047C00008A805F091FB2146102205A805F0B8FBCA
:1047D00005A908A805F034FC4B4905F03EFC294624
:1047E00004460BA8102205F0ABFB20460BA905F0F0
:1047F00027FC0146394805F03FFA0BA805F011FBEC
:1048000005A805F00EFB08A805F00BFB02A805F0B3
:1048100008FB3B482421FEF767FB0228044616D11B
:1048200037482521FEF760FB054680B9384908A8BE
:1048300005F039FB08A90BA805F056FB21460BA88B
:1048400005F027FC304905F008FC294614E0002259
:104850002B480221FEF74CFB2E4908A805F023FB4C
:1048600008A90BA805F040FB02210BA805F011FCDC
:10487000254905F0F2FB002105F00BFC0146174825
:1048800005F0FAF90BA805F0CCFA08A805F0C9FA6A
:10489000FFF7CEFEFFF718FE1F482049FEF776F817
:1048A000002841D115490D4805F0F0F91C490B4885
:1048B00005F0ECF91B4803F091F80E48FDF78CF871
:1048C00040F6B83002F024FF04F0CCFAE4E700BF71
:1048D000001F0020C31E002004000140101F002004
:1048E000401E0020281F0020401F00204C1E0020DA
:1048F0000C000020D0190020411E00204DE60008C9
:10490000421E002037F6000847F2000882F6000831
:1049100098F60008AEF60008431E0020951E002001
:1049200093F40008071F00204C494D4805F0AEF9EC
:104930004B484C4905F08FF900244B4B1022195D70
:10494000474805F030FA01344548484905F083F9F5
:10495000092CF2D1424805F083F904F083FAFFF7FD
:1049600051FCFFF77FFC42493D4805F08FF9414972
:104970003B4805F08BF9FFF7A9FC3F49384805F0A3
:1049800085F93C49364805F081F9FFF753FCFFF7FC
:10499000A3FC3A49324805F079F93649304805F028
:1049A00075F9FF21002005F0B4FCFF21044600202A
:1049B00005F0AFFCC0B20222E3B200900121304802
:1049C00003F062FB2F49264805F060F92949244885
:1049D00005F05CF92C4802F0C7FA2C4B18702C4BF0
:1049E0001870294802F00AFB2A4B2B4918602B4B00
:1049F00018601B4805F04AF91E49194805F046F9A8
:104A0000274800210522FEF7FDFB08B3254914487D
:104A100005F03CF908A8244905F045FA08A90BA8B7
:104A200005F062FA1E48FEF729FC01460BA805F0C6
:104A30003AFB01460A4805F01FF90BA805F0F1F909
:104A400008A805F0EEF94FF47A7005F06DFC03E06C
:104A50000348164905F01AF90FB030BDC7F4000835
:104A6000101F0020E0F40008951E00205AF10008F5
:104A7000EAF400084DE6000827F500085EF5000896
:104A8000071F002096F50008C31E0020881E002086
:104A9000841E0020801E0020ABF500088C1E002024
:104AA0004D1E00208DDE0008AFDE0008F3F5000883
:104AB00070B588B04F4804F0A5FF00280ADD4D48C6
:104AC00004F04CFFC1B24C4805F07AFA022005F020
:104AD0002BFCEFE7484CA368002B00F089802046B0
:104AE00005F077FB2146434805F0C6F8434905A881
:104AF00005F0D9F9204605A905F022FB054605A8D1
:104B000005F08FF9002D33D020460021042205F056
:104B100047FB204605F069FB394C02462060C2F392
:104B200007213848D2B2FEF7F3FB10B131483649BD
:104B300001E03048354905F0A9F83248FEF724FC79
:104B40003349206002A805F0AEF902A905A805F0D6
:104B5000CBF9216805A805F0A6FA0146254805F01D
:104B60008BF805A805F05DF902A805F05AF918E0E0
:104B7000284905A805F097F9204605A905F0B3FADC
:104B8000054605A805F04DF96DB1234A194813787B
:104B900083F0010313700BB1204900E0204905F0B8
:104BA00075F8154818E01F4905A805F07CF920465E
:104BB00005A905F098FA064605A805F032F97EB178
:104BC00019490C4805F062F8009518481849012267
:104BD000184BFDF7B3FA2046174905F08FF907E0A7
:104BE0001549204605F08AF90248144905F04EF8A7
:104BF00008B070BD101F0020B41E0020F9F6000898
:104C0000041D00204D1E0020FEF6000836F70008A7
:104C1000BBF1000871F70008941E00207AF7000825
:104C200096F70008B2F70008BAF70008401E002007
:104C3000021F0020B7DD00084DE60008D6F7000887
:104C40002DE9F04F87B0624804F0DCFE00280ADD51
:104C50005F4804F083FEC1B25E4805F0B1F902205E
:104C600005F062FBEFE75B4CA368002B00F0AC8023
:104C7000204605F0AEFA2146554804F0FDFF56499E
:104C800003A805F010F9204603A905F02CFA054603
:104C900003A805F0C6F8002D00F0948020464F4C84
:104CA0004F4905F02BF923684E49013348482360EA
:104CB00004F0ECFF4C49684605F0F5F8694603A896
:104CC00005F012F9216803A805F0EDF90146404806
:104CD00004F0D2FF03A805F0A4F8684605F0A1F897
:104CE0003F493B4804F0D2FFFFF7F6FA032003F0F8
:104CF00009FD3E4A002313703D4A3E4F13703E4A61
:104D00003B6013703D4A1D4613703D4A1E461370AA
:104D10003C4AA34613703C4A13703C4A13703C4A09
:104D200013703C4A13703C4A13703C4B0024EC5007
:104D30003B4BDFF814A1EC503A4BDFF81091EC50EC
:104D4000394BDFF80C81EC50384BF0B2EC50384B5B
:104D50000121EC50374B45F80A40F454364B45F8E6
:104D60000940F454354B45F80840F454344B0435AD
:104D7000F454013602F04AFA0C2ED6D1DBF800309A
:104D800013F0010313D02F48FEF7FEFA3860142306
:104D90004AF804303C2349F804304FF6FF7348F8D2
:104DA00004300434302CF2D1FFF778FA0AE03B608B
:104DB00000224AF8032049F8032048F8032004336E
:104DC000302BF5D104F04EF807B0BDE8F08F00BFEE
:104DD000101F0020B41E0020FFF70008901E0020C6
:104DE0004DE6000801F8000844F80008B21E002053
:104DF000711E0020041D0020C21E00208B1E0020FA
:104E0000F01D00208A1E0020861E0020851E002026
:104E1000B31E0020351700204E170020F81D00207B
:104E2000901700206C1D0020281C0020B01D0020C1
:104E30002C1D002036170020691C0020D2190020EC
:104E40000E0000204D1E0020C01C00205017002026
:104E50007C1C00202DE9F043804E87B016F80090AE
:104E60000446B9F1000F40F0F480DFF83C827C4F3B
:104E700018F80030002B00F08C807A4D7A4A2B68AD
:104E800052F820209342C0F08480012102F0BEF944
:104E90007649684608F8049005F005F8694603A8C5
:104EA00005F022F8214603A805F0E9F8704905F05D
:104EB000D4F801466F4804F0DFFE03A804F0B1FF08
:104EC000684604F0AEFF6B4804F080FD6A4B53F86F
:104ED000242052B301233B5568492B68684D41F8A3
:104EE000243068461344674945F8243004F0DBFF5A
:104EF000694603A804F0F8FF214603A805F0BFF8AF
:104F0000614905F0AAF855F8241005F0CCF80146DF
:104F1000584804F0B1FE03A804F083FF684604F08B
:104F200080FF544804F052FD33E0584B584D53F87D
:104F300024205849013A43F824202B78684601334D
:104F40002B7004F0B0FF694603A804F0CDFF297868
:104F500003A805F094F80146464804F08DFE03A826
:104F600004F05FFF684604F05CFF424804F02EFD49
:104F70002B780C2B08D13F48474904F087FE474A5D
:104F800001231370464A137000200123385533550E
:104F900060E0385D002855D0324B1A68384B53F822
:104FA00024309A4256D3394B394D53F824200127E7
:104FB000013A43F824202B7836493B4468462B704D
:104FC000375504F070FF694603A804F08DFF297877
:104FD00003A805F054F80146264804F04DFE03A846
:104FE00004F01FFF684604F01CFF224804F0EEFCAA
:104FF0002B780C2B07D11F48274904F047FE274B7D
:105000001F70274B1F70012368461849335504F061
:105010004AFF694603A804F067FF214603A805F08C
:105020002EF8204905F019F80146124804F024FE34
:1050300003A804F0F6FE684604F0F3FE0D4804F001
:10504000C5FC06E00C4B53F82400003018BF0120CB
:1050500000E0002007B0BDE8F08300BFD2190020B7
:10506000691C0020741E0020281C002052F8000833
:1050700056F80008101F002050170020B01D002017
:105080002C1D002072F8000884EE00087C1C002013
:105090004E17002085F8000895F80008B21E002081
:1050A000B31E0020BBF80008361700202DE9F0439E
:1050B0009A4E87B003F0D6FE33780C2B00F0D880E0
:1050C0000024254603F0CEFE954BEFB2E95C0029A3
:1050D00040F0A1804FF0010805F80380914B04EBEC
:1050E0000309E358002B52D08F4BE358002B4ED0CE
:1050F000384602F08BF88D4B8D4A05F803808D4BB6
:10510000DFF88C821B688C49A350D9F800206846D0
:10511000134444F8083004F0C6FE694603A804F0BE
:10512000E3FE394603A804F0AAFF844904F095FF82
:105130000146834804F0A0FD03A804F072FE68460F
:1051400004F06FFE7F49684604F0ADFE694603A88F
:1051500004F0CAFE394603A804F091FF7A4904F02E
:105160007CFF54F8081004F09EFF0146744804F0D8
:1051700083FD03A804F055FE684604F052FE704813
:1051800004F024FC714BE358002B6AD0C2E06A495A
:10519000684604F088FE694603A804F0A5FE394677
:1051A00003A804F06CFF6A4904F057FF0146644805
:1051B00004F062FD03A804F034FE684604F031FEFA
:1051C000644B0127EF54337863493B44684633709E
:1051D00004F069FE694603A804F086FE317803A84E
:1051E00004F04DFF0146564804F046FD03A804F0C4
:1051F00018FE684604F015FE514804F0E7FB3378CA
:105200000C2B2ED1554B4E4855491F7004F03EFDD6
:10521000544B1F7025E0013F0A2F07D8DFE807F045
:10522000080A0C0E10121416181A1C00002014E0A4
:10523000012012E0022010E003200EE004200CE028
:1052400005200AE0062008E0072006E0082004E028
:10525000092002E00A2000E00B20FFF7FBFD0028F8
:1052600058D101350C2D04F104047FF42BAF51E02B
:10527000FFF732F8394B3C4D1A7872B100241C709C
:105280003A4B3B481C70FEF719FF2D48394904F092
:10529000FDFC394B1C7001232B702B78002B39D06F
:1052A000324D2B78002B35D0334C01233349244821
:1052B000237004F0EBFC3249214804F0E7FC2A4A51
:1052C0000023317813702B70154800221A5421489E
:1052D0001A5416481A54144850F8230001339042C7
:1052E00018BF11460C2BEFD1317051B92549144824
:1052F00004F0CCFC2249124804F0C8FCFEF7CEFFB3
:1053000008E021490E48227004F0C0FC0C481F49F7
:1053100004F0BCFC07B0BDE8F08300BF4E170020CE
:105320000E000020C01C00207C1C0020361700202E
:105330006C1D0020741E002052F80008D1F80008EF
:10534000101F0020FCF8000884EE00085017002011
:105350000DF90008D219002085F80008B21E0020BF
:1053600032F90008B31E00208B1E0020711E0020A1
:10537000701E00206DF90008341700209BF900080A
:10538000CAF90008D7F9000801FA00083CFA000839
:10539000281C002070B51B4B86B01E5C0446002EF6
:1053A0002DD1194D2B5C53B3184B1A68184B53F879
:1053B00020309A4223D3012101F028FF154B1649D2
:1053C0001A78684601321A702E5504F06CFD694651
:1053D00003A804F089FD214603A804F050FE0F49FC
:1053E00004F03BFE01460E4804F046FC03A804F01E
:1053F00018FD684604F015FD094804F0E7FA00209E
:1054000006B070BDD219002036170020741E00208F
:10541000281C00204E17002052F8000856F80008FB
:10542000101F00202DE9F04F8E4C87B023782746BF
:105430000C2B00F0F48000252C468B4B1A783AB1E7
:105440008A4A11688A4A1268914224BF00221A705F
:10545000884AA118A25C002A40F0B58093F8008029
:10546000B8F1000F40F0AF80DFF858B2012655F8D0
:105470000B300E70002B65D0E0B2414601F0C6FE45
:10548000DFF8E8A17C4B7D4AE654DAF80030DFF81B
:105490003C92AB5055F80B207949134445F809303C
:1054A000684604F000FD694603A804F01DFD21468E
:1054B00003A804F0F8FD734904F0CFFD01467248DB
:1054C00004F0DAFB03A804F0ACFC684604F0A9FC85
:1054D0006E49684604F0E7FC694603A804F004FD41
:1054E000214603A804F0DFFD694904F0B6FD55F834
:1054F000091004F0D8FD0146634804F0BDFB03A881
:1055000004F08FFCDFF8C091684604F08AFC5E4826
:1055100004F05CFA99F800305E4A33441278DBB24A
:105520009A4289F8003073D157485B4904F0AEFBCA
:105530004D4B89F800801E70584B1A78DAF800300D
:105540001A448AE04E49684604F0ADFC694603A857
:1055500004F0CAFC214603A804F0A5FD504904F05C
:105560007CFD0146484804F087FB03A804F059FC81
:10557000684604F056FC4B4B4B49E6543B78684672
:1055800001333B7004F08FFC694603A804F0ACFCC7
:10559000397803A804F073FD01463B4804F06CFB26
:1055A00003A804F03EFC684604F03BFC364804F0D7
:1055B0000DFA3B780C2B2BD133483C4904F066FBA9
:1055C0003B4B1E7024E0631E0A2B07D8DFE803F074
:1055D000080A0C0E10121416181A1C00002014E0F1
:1055E000012012E0022010E003200EE004200CE075
:1055F00005200AE0062008E0072006E0082004E075
:10560000092002E00A2000E00B20FFF7C3FE30BBB8
:1056100001340C2C05F104057FF40FAF1FE0FEF7F9
:105620005BFE2449184804F031FB1748224904F076
:105630002DFB224A00231370214A23701360174A5E
:105640001370144A13701F4900225A500433402B20
:10565000F9D1054B1A701C4B1A70054B1A6007B034
:10566000BDE8F08F4E170020681C0020741E00203B
:105670003C1E00200E000020361700206C1D00206C
:1056800052F8000851FA0008101F0020FCF800082A
:1056900084EE0008381E002079FA00084C1700201C
:1056A0009BFA0008D219002085F80008BDFA00080E
:1056B000B31E0020F5FA00083CFA00083417002059
:1056C00048170020E4190020E2190020281C0020BF
:1056D00070B51B4B86B01E5C0446002E2DD1194DB3
:1056E0002B5C53B3184B1A68184B53F820309A426E
:1056F00023D3012101F08AFD154B16491A7868461B
:1057000001321A702E5504F0CEFB694603A804F04E
:10571000EBFB214603A804F0B2FC0F4904F09DFC0A
:1057200001460E4804F0A8FA03A804F07AFB684684
:1057300004F077FB094804F049F9002006B070BD79
:10574000D219002036170020741E0020281C0020CB
:105750004E17002052F8000856F80008101F0020CD
:105760002DE9F047844C86B023782746082B00F0BB
:10577000DF8000252C46814B1A783AB1804A1168A7
:10578000804A1268914224BF00221A707E4AA018F3
:10579000A25C002A40F0AA801978002940F0A68077
:1057A000DFF828A2012655F80A300670002B5CD0DD
:1057B000E0B201F02BFDDFF8C881744B744AE65467
:1057C000D8F80030DFF81092AB5055F80A20714934
:1057D000134445F80930684604F065FB694603A8A0
:1057E00004F082FB214603A804F05DFC6A4904F042
:1057F00034FC0146694804F03FFA03A804F011FBA9
:10580000684604F00EFB6649684604F04CFB6946A6
:1058100003A804F069FB214603A804F044FC614995
:1058200004F01BFC55F8091004F03DFC01465B48F0
:1058300004F022FA03A804F0F4FADFF89491684621
:1058400004F0EFFA554804F0C1F899F80030002B45
:1058500067D05248544904F019FA484B99F800208F
:105860001E70D8F800301A4480E04A49684604F0B7
:105870001AFB694603A804F037FB214603A804F08D
:1058800012FC4A4904F0E9FB0146444804F0F4F9EB
:1058900003A804F0C6FA684604F0C3FA444B45492D
:1058A000E6543B78684601333B7004F0FCFA6946E5
:1058B00003A804F019FB397803A804F0E0FB0146C3
:1058C000364804F0D9F903A804F0ABFA684604F0AE
:1058D000A8FA324804F07AF83B78082B21D12F48F7
:1058E000354904F0D3F9354B1E701AE0631E062BC0
:1058F00005D8DFE803F006080A0C0E10120000209D
:105900000CE001200AE0022008E0032006E0042069
:1059100004E0052002E0062000E00720FFF7D8FEA3
:1059200030BB0134082C05F104057FF424AF1FE0DF
:10593000FEF7D2FC2249194804F0A8F9174821497A
:1059400004F0A4F9204B00221A7022701F49002392
:1059500053500432202AF9D11D4A13701D490022E8
:105960005A500433402BF9D1044B1A70054B1A607E
:1059700006B0BDE8F08700BF4E170020AC1D002028
:10598000741E0020F41D00200E0000203617002099
:105990006C1D002052F800081EFB0008101F00209C
:1059A000FCF8000884EE000879FA00084BFB0008B8
:1059B000D219002085F8000872FB0008B31E0020F1
:1059C000AFFB00083CFA000834170020081D002037
:1059D000001D0020E4190020281C002008B503F059
:1059E00041FA1248FBF7F8FF002111480A4600F07F
:1059F00065FA104B1B7813B9FFF758FB08E0012B31
:105A000002D1FFF70FFD03E0022B01D1FFF7A8FE43
:105A100000F08AF8FEF76CFCFEF7B0FCFFF710F917
:105A2000FFF746F8BDE80840FEF702BED019002097
:105A3000C31E0020F11D002001480021FCF734BDE9
:105A4000401E00201FB5304801A9FCF79FFF2F4CD6
:105A5000C0B92F492F4804F019F92F4801F0BEFFB3
:105A60002E48FBF7B9FF40F6B83004F05DFC03F0B8
:105A7000F9F923780133DBB2322B2370E3D903F039
:105A800025FAE0E7002323701F48FDF73AF8C0B974
:105A90002349204804F0FAF81F4801F031FF1F485D
:105AA000FBF79AFF40F6B83004F03EFC03F0DAF959
:105AB00023780133DBB2322B2370E5D903F006FAE9
:105AC000E2E7002323701048FDF79CF8C0B91549A0
:105AD000104804F0DBF8104801F080FF0F48FBF796
