:020000040801F1
:1000000000C00020C1B60108B1B90108B5B90108A6
:10001000B9B90108BDB90108C1B9010811BA01088F
:1000200011BA010811BA010811BA010811BA010880
:1000300011BA010811BA010811BA0108A1BE0108DC
:1000400011BA010811BA010811BA01089DB50108D9
:1000500011BA010811BA010811BA010811BA010850
:1000600011BA010811BA010811BA010811BA010840
:1000700011BA010811BA010811BA010811BA010830
:1000800011BA010811BA010889BA010811BA0108A8
:1000900011BA010811BA010811BA010811BA010810
:1000A000E9C001080DC1010831C1010869C1010899
:1000B000BDC101082DC201089DC2010811BA010885
:1000C00011BA010811BA010811BA010811BA0108E0
:1000D00011BA010895C50108E9C501083DC6010826
:1000E00011BA0108E5B5010811BA0108C5C3010834
:1000F000E9C301080DC4010845C40108D9BA0108C3
:1001000011BA010811BA01080DC3010811BA01089A
:1001100091C60108E5C601087DC30108A1C3010815
:1001200011BA010811BA010811BA010811BA01087F
:1001300010B5054C237833B9044B13B10448AFF321
:1001400000800123237010BD501700200000000024
:10015000BC25020808B5064B1BB106480649AFF39B
:1001600000800648036813B1054B03B1984708BDEA
:1001700000000000BC250208541700205017002082
:1001800000000000012902D11C30C0B270470629CE
:1001900084BF01F1FF31C9B211F0010F14BF1E205D
:1001A0001F207047444B2DE9F047B1FBF3F603FBEA
:1001B00016113C23B1FBF3F203FB12120546027049
:1001C0004FF46160B1FBF0F200FB1211B1FBF3F3ED
:1001D0006B704FF4FA63AA70B6B2EB80EC884FF400
:1001E000C873B4FBF3F803FB18481FFA88F8B8F19A
:1001F000000F16D06423B4FBF3F203FB12439BB24F
:10020000002B53D014F0030140F26D130CBF4FF4D8
:10021000B7721A4696420EDB002908BF4FF4B77337
:1002200004E0B6F5B77F06DB4FF4B773F61A013476
:10023000B6B2EC80D2E700236B716423B4FBF3F712
:1002400003FB1747BFB2B8F1000F06D03FB114F05F
:10025000030F14BF0020012002E0012000E0384617
:1002600095F80590C0B24946FFF78CFF864209F128
:10027000010A15D3B8F1000F06D03FB114F0030FF7
:1002800014BF0020012002E0012000E03846C0B287
:100290004946FFF777FF301A86B285F805A0D2E706
:1002A00001362E7185F805A0BDE8F087B6F5B67F5A
:1002B000C1DD40F26D13B9E780510100F8B5427815
:1002C00087783C2303FB072702780579467903FBEF
:1002D0000727013D013EEDB2F6B2044605714671B5
:1002E000013E731CE38834D04FF4C872B3FBF2F1C3
:1002F00002FB113292B262B16422B3FBF2F002FB54
:10030000103080B230B113F0030F14BF0020012071
:1003100000E00120C0B2F1B2FFF734FF284485B2FB
:10032000DEE74FF4C872B3FBF2F102FB113292B276
:10033000AAB16422B3FBF2F102FB113292B28AB18C
:1003400013F0030F40F26D1208BF4FF4B77215445B
:10035000ADB2013B9BB2B3F5FA6FE2D205E04FF4C8
:10036000B772F4E740F26D12F1E7024800FB057046
:10037000F8BD00BF8051010009F0FABE38B50D4646
:10038000044609F010FF290A49006039204601F0AF
:10039000FE0109F09FFF204609F075FFE9B22046F3
:1003A00009F098FF204609F06EFF204609F0FBFE99
:1003B0002046A12109F08EFF204609F064FF0021AC
:1003C000204609F0AEFF0546204609F03FFF2046D3
:1003D00009F004FF284638BD70B50D4616460446A0
:1003E00009F0E1FE290A49006039204601F0FE01CA
:1003F00009F070FF204609F046FFE9B2204609F0F7
:1004000069FF204609F03FFF3146204609F062FFB0
:10041000204609F038FF204609F0E0FEBDE87040B4
:100420000A200CF09FBE000010B5224A5178937844
:1004300043EA0123A3F52043152B2AD8DFE803F074
:100440000B370D0F11131517191B1D2929292929E0
:10045000291F21232527002010BD022010BD0820C0
:1004600010BD092010BD0A2010BD0B2010BD0C20AE
:1004700010BD0D2010BD0F2010BD102010BD032099
:1004800010BD042010BD052010BD062010BD0720A2
:1004900010BD094C01230949094823700CF02AFBBF
:1004A00008492246034809F079FC0E2010BD0120BE
:1004B00010BD00BFE5180020E1170020503D0208E4
:1004C0005C2100205E18002010B5074C6018114612
:1004D00008F058FB054B1B881C4414F8073C1B1AFA
:1004E0005842584110BD00BFE51800205E1800209A
:1004F000084B18795B7943EA002045F2555398423E
:1005000005D04CF20303C31A5842584170470120EA
:10051000704700BFE5180020044B9B79552B044B16
:100520000CBF012200221A70704700BFE51800209E
:100530009218002010B5084CE379552B01D1012009
:1005400010BD064802F051FAE3798342F7D0D0F1AA
:10055000010038BF002010BDE5180020511C00200C
:1005600013B50D4B1C7A552C01D1012012E00B481C
:10057000694602F095F900231A461DF803108C42D3
:10058000F3D019B90132D2B2052AEED00133052BCE
:10059000F3D1002002B010BDE5180020511C00204E
:1005A00070B505461E46FFF78FFF044640B91C4A4A
:1005B000D3781A441379D62B02D01A481A492BE063
:1005C0002846FFF795FF044678B12846FFF7A4FFB9
:1005D0002846FFF7AFFF044670B96EB113491148C2
:1005E0000CF088FA0F48124916E012490D480CF039
:1005F00081FA0C4810490FE02846FFF7B1FF044686
:1006000060B99DF810300BB9012407E00B4905488B
:100610000CF070FA03480A490CF06CFA204670BDE1
:10062000E51800205C210020B73D0208DB3D0208F0
:10063000123E02085B3D0208893D0208493E02085D
:10064000813E0208F8B50F460BF03CFB04F0C6FFF4
:1006500003200AF083FF304A002313702F4A012140
:1006600013702F4A1D4613702E4A1E4613702E4AD1
:1006700013702E4A13602E4A13702E4A13702E4A9E
:1006800013702E4A13702E4A13702E4A13702E4A7E
:1006900013602E4A11702E4A13602E4A13702E4A90
:1006A00013702E4A13702E4A13702E4A13602E4A6E
:1006B00013702E4A13602E4B0024EC502D4BF0B2D9
:1006C000EC502D4B0121EC502C4BEC502C4BEC50B2
:1006D0002C4BEC502C4BEC502C4BEC502C4BEC504E
:1006E0002C4BEC502C4BF4542C4BF4542C4BF4541A
:1006F0002C4BF45408F0D2F901362B4B0C2EEC5055
:1007000005F10405D7D137B1284807210222BDE8F9
:10071000F8400AF019B8F8BDC21C0020811C002066
:10072000D21C00209A1C0020561A0020E01800203D
:10073000991C0020961C0020951C0020C31C002042
:100740008C1B00205C180020A01C0020751B0020C2
:10075000581A0020E0170020F01A0020551A002037
:100760009A180020B01700209B180020101C0020B1
:10077000A01A00209C180020E4170020141A002062
:10078000601A0020F41A0020D01B0020901B0020CB
:10079000341B002070170020761B0020D01700208B
:1007A000E01A00200C0000206018002053210020D7
:1007B0001F4B13B51B78002B37D000230093042167
:1007C00017220123FFF7ECFE30B31A491A480CF048
:1007D00091F919480CF02AF8184B1C7A012C18D101
:1007E0001748D97C02F06AF948B116480F21224611
:1007F00009F0AAFF1448214601F04CFD0CE0114815
:100800001021022209F0A0FF10490B480CF072F9E8
:1008100002E00C4809F012FE0D4B08481A8800212E
:1008200002B0BDE810400EF01BB902B010BD00BF11
:100830001D000020B53E02085C210020E5180020C4
:10084000431C002053210020331C0020D53E020809
:100850005E1800201A4B07B51B786BB3002300937A
:1008600004210A220123FFF79BFEE0B11549164837
:100870000CF040F914480BF0D9FF1448144901F06A
:10088000C1FF38B1134910480CF034F91248032164
:10089000022206E011490C480CF02CF90E48042104
:1008A000012209F051FF0E4B0E481A88002103B0B7
:1008B0005DF804EB0EF0D4B803B05DF804FB00BFA4
:1008C0001D000020193F02085C210020511C00205F
:1008D000ED180020313F020853210020733F020829
:1008E0005E180020E518002013B5002300930421B2
:1008F0000F22FFF755FE40B31F492048204C0CF053
:10090000F9F81E480BF092FF1E4804F10A0101F0AD
:10091000EEFD68B31B4804F10A0101F028FE38B36C
:10092000194916480CF0E6F81648E17902F024F867
:10093000A0B1164911480CF0DDF815480521012237
:1009400009F002FF0F4801F0F3FE124B0C481A8821
:10095000002102B0BDE810400EF082B807480E49F1
:100960000CF0C8F80A480621012209F0EDFEECE778
:1009700002480A49F4E700BFB53F02085C210020A5
:10098000E5180020511C00205B400208D03F0208FF
:10099000532100205E1800201640020888400208FB
:1009A000134B13B51B780BB3124B0024DA780421D8
:1009B00000940123FFF7F4FD78B10F490F480CF0C4
:1009C00099F80E480BF032FF0D490C480CF092F8E4
:1009D0000C48214602220AF0D7F90B4B05481A8829
:1009E000002102B0BDE810400EF03AB802B010BDD0
:1009F0001D000020E5180020C34002085C210020F3
:100A0000DF400208532100205E180020134B13B56D
:100A10001B780446FBB10023009304210522012327
:100A2000FFF7BEFD70B10E490E480CF063F80E4999
:100A30000C480CF05FF80B480BF0F8FE2046012143
:100A4000FFF700FE094B0A481A88002102B0BDE8F2
:100A500010400EF005B802B010BD00BF1D00002010
:100A6000184102085C210020314102085E18002074
:100A7000E5180020F0B5284B89B01B78002B49D031
:100A8000264D0024EA78042100940123FFF788FD15
:100A90002F46002835D0224922480CF02BF8214857
:100AA0000BF0C4FE03AD0BF00DF91F491D480CF00F
:100AB00021F82846214614220DF0D2FFFE78053E8B
:100AC000142E01D8234605E0164818490CF012F8F8
:100AD000022207E0B34204D2FA18527AEA540133F0
:100AE000F8E70322124B13481A702946324606F0E3
:100AF00021FE01221048002109F0A8FE0F4B01221F
:100B00001A700F4B05481A88002109B0BDE8F04063
:100B10000DF0A6BF09B0F0BD1D000020E5180020B3
:100B2000414102085C2100206B410208C1410208DA
:100B300054210020D31C002053210020951C0020AC
:100B40005E18002030B5154B85B01B781BB3144DD3
:100B50000024EA78009404210123FFF721FDD0B19D
:100B6000104911480BF0C6FF0F480BF05FFE0E480E
:100B70000E490BF0BFFF2346EA18527A02A95A54D5
:100B80000133072BF8D10A4804F03AFB0948172132
:100B9000022209F0D9FD05B030BD00BF1D000020C4
:100BA000E5180020124202085C21002029420208B8
:100BB000801C002053210020F0B53A4B89B01B78EF
:100BC000002B6CD0384C0026E278009604210123DB
:100BD000FFF7E6FC00284DD0344935480BF08AFF7A
:100BE00033480BF023FE334894F8221094F8232066
:100BF00002F05AF920B92E482F490BF07BFF01264D
:100C000000252E492A4804AF0BF074FF22233846F2
:100C100029461022029503958DF808300DF020FF2B
:100C200033238DF810302B46E218127A02A95A5459
:100C30000133082BF8D10023E218127CFA54013357
:100C4000102BF9D11B4802F08DF8E0B11948394654
:100C500002F0E6F8B8B11A4915480BF04BFF1548F9
:100C600002F04FF8174809F045FA174831460122BB
:100C700009F07EFE154B0C481A88002109B0BDE82A
:100C8000F0400DF0EDBE124909480BF033FF094862
:100C900002F054F80B4809F02DFA0226E5E709B0F6
:100CA000F0BD00BF1D000020E51800205A420208D8
:100CB0005C2100203F1C002084420208BF42020841
:100CC000F74202084C210020532100205E1800202A
:100CD0003443020870B54A4B88B01B780646002B97
:100CE00000F08C80474C0025E27800950421012318
:100CF000FFF756FC002874D0434944480BF0FAFE35
:100D000042480BF093FD424B0122304629461A70AF
:100D1000FFF798FC3F4B404894F8461094F8472062
:100D20001D7002F0BDF910B138483C4901E0374868
:100D30003B490BF0DFFE384802F0EEF9394D3A49F5
:100D4000286002A80BF0BAFF02A905A80BF0D7FF94
:100D5000296805A80CF0B2F801462C480BF0C0FE3B
:100D600005A80BF069FF02A80BF066FF0AF0AAFFC6
:100D70000022244B1046114604EBD00595F848504C
:100D80000D41ED0715D55D7A1E7A05EB0626274D38
:100D9000565193F8295093F8286005EB0626244D08
:100DA000565193F84B5093F84A6005EB0626214DB7
:100DB00056510131C9B2082900F1010008BF0021D4
:100DC0000C2803F1020302F10402D5D10F480BF005
:100DD0002DFD194803210B4A09F018FE04F0E6FB2B
:100DE00003E00A4815490BF085FE154B05481A88A3
:100DF000002108B0BDE870400DF032BE08B070BDF3
:100E00001D000020E5180020714302085C2100202D
:100E10008D1B0020931800203F1C00209E430208D9
:100E2000E2430208E0180020685B02089C180020DA
:100E3000E4170020F41A002053210020294402085E
:100E40005E1800202DE9F041604B88B01B78074602
:100E5000002B00F0B7805E4E0024F278009404214D
:100E60000123FFF79DFB002800F09F8059495A4855
:100E70000BF040FE58480BF0D9FC584B0125384682
:100E800021461D70FFF7DEFB554B327A1D70737AD9
:100E9000544F03EB0223544902A83B600BF00EFFB2
:100EA00002A905A80BF02BFF396805A80CF006F87D
:100EB0004E490BF0DDFF014647480BF011FE05A837
:100EC0000BF0BAFE02A80BF0B7FE494DB37A4949C0
:100ED00002A82B700BF0F2FE02A905A80BF00FFF81
:100EE000297805A80BF0D6FF40490BF0C1FF014659
:100EF00039480BF0F5FD05A80BF09EFE02A80BF09B
:100F00009BFE3D4DF37A3D4902A82B700BF0D6FEB7
:100F100002A905A80BF0F3FE297805A80BF0BAFF8B
:100F200001462D480BF0DCFD05A80BF085FE02A85C
:100F30000BF082FE2546B84606EBD4031B7B2B4103
:100F4000DB0721D5D8F800302D4F2E4947F8243043
:100F500002A80BF0B3FE02A905A80BF0D0FE2146B3
:100F600005A80BF0ABFF28490BF082FF57F82410BF
:100F70000BF0A4FF014618480BF0B2FD05A80BF0DA
:100F80005BFE02A80BF058FE0135EDB2082D04F10E
:100F9000010408BF00250C2CCED11C4803210C4AAB
:100FA00009F094FD04F002FB03E00B4818490BF034
:100FB000A1FD184B06481A88002108B0BDE8F04191
:100FC0000DF04EBD08B0BDE8F08100BF1D0000204F
:100FD000E5180020474402085C2100208D1B0020FA
:100FE00093180020581A00206D4402089A670208DE
:100FF000E017002083440208F01A00209A440208F7
:10100000A01A0020AE440208C34402085321002065
:10101000C74402085E180020F0B5484B89B01B7821
:101020000546002B00F08780454E0024F27800949E
:1010300004210123FFF7B4FA00286FD04149424848
:101040000BF058FD40480BF0F1FB404B01222846C5
:1010500021461A70FFF7F6FA3D4B02221A70254618
:10106000072C8CBFB37D737D2B4103F0010343B389
:101070006308043316F8132006EB43035B78354FFF
:1010800003EB022347F82430334902A80BF016FE85
:1010900002A905A80BF033FE214605A80BF00EFFB0
:1010A0002E490BF0E5FE57F824100BF007FF014620
:1010B00025480BF015FD05A80BF0BEFD02A80BF0AE
:1010C000BBFD0135EDB2082D04F1010408BF002578
:1010D0000C2CC5D1337D224C02A8224923700BF081
:1010E000EDFD02A905A80BF00AFE217805A80BF07A
:1010F000D1FE1D490BF0BCFE014613480BF0F0FC7D
:1011000005A80BF099FD02A80BF096FD17480321E6
:101110000B4A09F04FFD04F049FA03E00A4814496C
:101120000BF0E8FC134B06481A88002109B0BDE813
:10113000F0400DF095BC09B0F0BD00BF1D000020CF
:10114000E5180020E54402085C2100208D1B0020EA
:1011500093180020601800200E450208C3440208BE
:10116000E21700202D4502089A670208532100204B
:101170004E4502085E180020144B13B51B7813B3BC
:10118000134B0024DA78042100940123FFF708FAB6
:1011900060B1104910480BF0ADFC0F480BF046FB56
:1011A0000E482146032209F081FE03E00A480C495B
:1011B0000BF0A0FC0B4B06481A88002102B0BDE8DA
:1011C00010400DF04DBC02B010BD00BF1D0000204E
:1011D000E51800206C4502085C2100205321002006
:1011E000884502085E18002070B53D4B88B01B781A
:1011F000002B73D03B4C00230093E27804210123A1
:10120000FFF7CEF900285CD0374938480BF072FC64
:1012100036480BF00BFB637A257A354902A803EBBD
:1012200005250BF04BFD02A905A80BF068FD29462A
:1012300005A80BF043FE01462C480BF051FC05A815
:101240000BF0FAFC02A80BF0F7FC2A48217A627A2C
:1012500001F0DCFE054620B9274924480BF04AFC82
:1012600000E00125E37AA67A244902A803EB0626CA
:101270000BF024FD02A905A80BF041FD314605A89D
:101280000BF01CFE014619480BF02AFC05A80BF0D8
:10129000D3FC02A80BF0D0FC1648A17AE27A01F048
:1012A0006BFE20B9164911480BF024FC03E015B180
:1012B0001448152101E013481621022209F044FACE
:1012C00003E00A4810490BF015FC104B05481A883A
:1012D000002108B0BDE870400DF0C2BB08B070BD81
:1012E0001D000020E5180020A64502085C21002012
:1012F000CC4502083F1C0020DC45020819460208C4
:101300002946020853210020664602085E18002084
:10131000124B07B51B78EBB1114B0421DA7800238F
:1013200000930123FFF73CF938B10E490E480BF04A
:10133000E1FB0D480BF07AFA03E00B480B490BF088
:10134000D9FB0B4B06481A88002103B05DF804EB6B
:101350000DF086BB03B05DF804FB00BF1D0000204C
:10136000E5180020844602085C210020A6460208F9
:101370005E1800202DE9F041634B92B01B78002BE2
:1013800000F0BF80614F0026FA7804210096012307
:10139000FFF706F9002800F0A7805D495D480BF0D3
:1013A000A9FB5C480BF042FA0CAD1022397A06A872
:1013B0000BF0C0FC06A928460BF0A1FC1022797A9C
:1013C00009A80BF0B7FC09A928460BF044FD0FACA7
:1013D00010228046B97A20460BF0ACFC21464046EC
:1013E0000BF039FD014603A80BF089FC20460BF0F9
:1013F00023FC09A80BF020FC28460BF01DFC06A8D6
:101400000BF01AFC434844490C96ADF834600BF0DD
:1014100056FB059B9E4212D2314603A80BF0ADFD50
:101420003038C1B208290DD80A223A48A9550BF024
:10143000EEFB384839490BF042FB0136E9E74FF043
:10144000000801E04FF00108354932480BF052FB2B
:101450000026304830490BF032FB0F96ADF8406063
:10146000BB19D97A64290DD80A222A48A1550BF054
:10147000CEFB0136274829490BF021FB062EEFD180
:10148000002600E00126234825490BF033FB2148C4
:10149000B8F1000F07D023490BF02CFB22480321A1
:1014A0001A4A00231AE03EB120490BF023FB1E48E4
:1014B0000321164A012311E01D490BF01BFB2946AD
:1014C0001C4801F037FE21461A4802F0DFFF194898
:1014D00002F0F8FF14480D4A0321022309F0A2FD8F
:1014E00003A80BF0A9FB03E00A4813490BF002FB29
:1014F000124B06481A88002112B0BDE8F0410DF0E9
:10150000AFBA12B0BDE8F0811D000020E518002040
:10151000C44602085C2100208A65020810490208BE
:10152000EE460208F246020853210020294702082D
:1015300064470208441C0020B34702085E180020DC
:10154000504B2DE9F3411B788046002B00F097802B
:101550004D4E0025F278042100950123FFF720F875
:1015600000287FD049494A480BF0C4FA48480BF09C
:101570005DF9484B02221A70474C337A4748237072
:1015800002F0B6FF2746064650B9454940480BF0E1
:10159000B1FA444803212278334609F0C7FD65E0DB
:1015A0004148294606220DF05BFA2C463A78C4F1F0
:1015B000070342FA03F3DB072CD53B4A0123A3546C
:1015C0003A4AE6B2A3543A4A3146A354334802F0A9
:1015D00097FC3146314802F095FE31462F4801F024
:1015E00017FF31462D4802F0DBF831462B4802F058
:1015F0009FFA3146294802F085FF2E4A0023AB505E
:101600002D4A2348AB502D4A2D49AB502D4AAB50A3
:101610000BF070FA0134062C05F10405C6D14046E2
:101620000021FFF70FF8284A00231370274A0124EE
:101630001360274A27491370274A15481370274A11
:101640001370274A1370274A1370274B1C700BF036
:1016500051FA144803213A78234609F067FD03F054
:10166000A5FF03E00A4821490BF044FA204B064845
:101670001A88002102B0BDE8F0410DF0F1B902B0C6
:10168000BDE8F0811D000020E5180020D1470208C8
:101690005C2100209318002091180020441C002099
:1016A000FE4702085321002024180020941800202F
:1016B0002D1C0020141C0020B81700204418002006
:1016C0005E4C02082C1800202C1C0020881B0020D7
:1016D00090180020584802085C1A0020741B002053
:1016E000541A0020DC180020E41800209C4802084E
:1016F0005E18002010B50446FEF796FE102860D84C
:10170000DFE800F0282D32090E13181D373C414642
:101710004B5022555A002046BDE81040FFF748B80C
:101720002046BDE81040FFF795B82046BDE81040C0
:10173000FFF7DAB82046BDE81040FFF731B9204680
:10174000BDE81040FFF762B91E481F49BDE81040D0
:101750000BF0D0B92046BDE81040FFF78BB920460A
:10176000BDE81040FFF7EEB92046BDE81040FFF796
:1017700023BA2046BDE81040FFF7ACBA2046BDE8CA
:101780001040FFF75FBB2046BDE81040FFF744BCA8
:101790002046BDE81040FFF7EFBC2046BDE81040F2
:1017A000FFF722BD2046BDE81040FFF7B1BD20463F
:1017B000BDE81040FFF7DEBD2046BDE81040FFF752
:1017C000BFBE10BD5C210020BA4802082DE9F74FCA
:1017D000454D002782462F800AF074FA434B0126BC
:1017E00019683C4601919B4641480BF03BF80028A4
:1017F00006DD0199DBF8002001F6B8339A4222D3C6
:101800000AF060FA062C6CD13A483B490BF072F9A9
:1018100037B93A4B1B788BB15046FFF76BFF0DE0A1
:1018200028880023C01BDAB2FC188242E4B203F11C
:101830000103EEDA32490C5D8C54F4E703B0BDE8E5
:10184000F04F0AF03FBAB5F80090294809F10102BB
:101850002A800AF0B3FFDFF8A8802B8808F8090077
:10186000434413F8011C102222480BF0D0F92549FB
:1018700020480BF024F91E480AF0F4FF002802DC8F
:1018800004200BF06FFC2B88B3F5967F02D3164B28
:1018900000221A8046B12B8808EB030212F8012CB3
:1018A000FE2AA1D15F1EFFB22B88434413F8013CEE
:1018B0000D2B05D114F001060BD10134E4B293E7EE
:1018C0000A2B09D114F0010308D00134E4B2002638
:1018D0008AE70026012487E70024F8E71C461E4615
:1018E00082E703B0BDE8F08F5E180020AC22002034
:1018F000742100205C210020D84802081C00002030
:10190000E51800201049020808B51D2000210BF041
:1019100097FB1D2001210BF0F9FB102000210BF09B
:101920008FFB112000210BF08BFB1C2000210BF002
:1019300087FB112000210BF0E9FB1C2001210BF09B
:10194000E5FBBDE80840102000210BF0DFBB0000E4
:1019500001480AF0E5BF00BF7421002008B561B15D
:1019600000211C200BF0D2FB96200BF0FBFBBDE806
:1019700008401C2001210BF0C9BB08BD70B506460C
:101980000D460E480E490BF0B5F80024A3B2AB4249
:101990000A4809D2315D10220BF039F9074809498C
:1019A0000BF08DF80134F1E70BF08EF80648314664
:1019B00003682A469B68984770BD00BF5C210020E1
:1019C00003490208104902087421002008B50021CB
:1019D0001D200BF09BFB0C480AF0A5FF0220002104
:1019E0000BF02EFB032000210BF02AFB022000212C
:1019F0000BF08CFB032000210BF088FBBDE80840B6
:101A00001C2000210BF082BB7421002010B50B7844
:101A1000452B12D14B78522B0FD18B78CC78303BA1
:101A200003EB8303303C04EB4304E4B221460A2277
:101A300003480BF0F5F8204610BD0A2010BD00BF8A
:101A40005C2100200B784F2B07D148784B2804D11C
:101A500013704B78012053707047002070470000CE
:101A60002DE9F04190B00E4601A865491C4690460C
:101A70000BF024F9624904A80BF020F9604907A88B
:101A80000BF01CF92046002104220CF0E9FFE023B2
:101A9000A370E37035460027AB1B43453AD2297843
:101AA0000A220DA80BF046F90DA901A80BF08EF93A
:101AB0000DA80BF0C1F815F8013B2C2B28D0303BBA
:101AC000DBB2092B98BF05F8013C15F8011C57B98A
:101AD0002D2902D14B484C4909E00DA80A220BF0F0
:101AE00029F904A80DE02D2906D1464847490BF0F5
:101AF00001F8F023E370CFE70DA80A220BF01AF9E2
:101B000007A80DA90BF062F90DA80BF095F8C3E733
:101B10000127C1E73E490AA80BF0D0F80AA90DA891
:101B20000BF0EDF801A90DA80BF095F90146354829
:101B30000AF0D6FF0DA80BF07FF80AA80BF07CF88E
:101B400034490DA80BF0BAF80DA92E480AF0AAFFE7
:101B50000DA80BF071F8A3782A48F02B01D12E497B
:101B600003E0E02B0CBF26492C490AF0A8FF04A98A
:101B70000DA80BF0C4F82A490DA80BF079F901461D
:101B800020480AF0ADFF0DA80BF056F825490DA826
:101B90000BF094F80DA91B480AF084FF0DA80BF078
:101BA0004BF8E3781748F02B01D11B4903E0E02BF9
:101BB0000CBF134919490AF082FF07A90DA80BF0C1
:101BC0009EF80DA816490BF053F901460D480AF08E
:101BD00087FF0DA80BF030F804A80BF01CFA20705A
:101BE00007A80BF018FA607007A80BF025F804A8F6
:101BF0000BF022F801A80BF01FF810B0BDE8F0813F
:101C00005E4C02085C210020124902081F490208AC
:101C10002D490208384902083A5802084349020887
:101C20005049020857490208F8B54C78432C08D1AE
:101C30008C78532C05D1CC78B4F151056C426C41B1
:101C400000E000240026F5B24F5D01363A2FFAD1AC
:101C50000135EDB200279542FEB207F1010706D823
:101C600011F805C0013501F806C0EDB2F3E73CB943
:101C70002046C2B2B2420BD20A5C1A540130F8E7D5
:101C8000069A022412681470721ED2B2FFF7E8FEA0
:101C90000120F8BD37B5154809B9154900E01549C7
:101CA0000AF00DFF64200BF05DFA00240F480AF0E3
:101CB000D9FD0028E5B208DD062C14D00B480AF047
:101CC0007DFD0DF804000134F0E755B19DF80230B8
:101CD0004F2B08D19DF80300B0F14B0358425841F7
:101CE00002E0284600E0002003B030BD742100204F
:101CF000634902086749020810B5012104461D2006
:101D00000BF004FA07484FF416510AF009FE20467A
:101D10000121FFF723FE20460121BDE81040FFF717
:101D2000B9BF00BF742100202DE9F0419EB005AD80
:101D30000C460746002190462846642203930CF087
:101D40008FFE21462C480AF0BAFE64200BF00AFAF6
:101D5000002429480AF086FD0028E6B207DD642C3D
:101D600045D025480AF02AFD28550134F1E726B967
:101D7000224923480AF0BEFE39E09DF814300D2BAD
:101D800035D19DF815300A2B31D11EAB334413F8F1
:101D9000653C0A2B2BD1023E1EAB334413F8643C46
:101DA0000D2B24D10021CCB2A31CDBB2B34201F134
:101DB000010107DA1EAA134413F8643C144404F822
:101DC000643CF0E738462946FFF720FE0A280CD18C
:101DD00003AB00933846294622464346FFF724FFCB
:101DE00000280CBF0320022002E0012000E00320B5
:101DF0001EB0BDE8F08100BF742100206D490208CB
:101E00005C2100202DE9F041B2B006460D46904617
:101E10000021642268461F460CF022FE19A800210A
:101E200064220CF01DFE0024E3B2E85C013420B112
:101E300032AA134403F8640CF6E70146CAB25D18EF
:101E400018F80240EDB232AA01312A4414B102F866
:101E5000644CF3E70D2302F8643C6B1C32A8DBB240
:101E600003442F480A2203F8642C036819A95B680D
:101E700098472C48AA1C036819A99B68D2B29847B6
:101E800064200BF06FF927480AF0ECFC0028E5B25B
:101E900008DD642C3FD023480AF090FC0DF80400C4
:101EA0000134F0E7002D36D09DF800300D2B32D1F3
:101EB0009DF801300A2B2ED132AB2B4413F8C93CCC
:101EC0000A2B28D1023D32AB2B4413F8C83C0D2B12
:101ED00021D100218B1CDBB2AB4201F1010209DAF6
:101EE00032A8034413F8C83CC9B2014401F8C83C05
:101EF0001146EFE730466946FFF788FD0A2808D10A
:101F0000304669463A46FFF79DFD80F00100C0B2B9
:101F100002E0012000E0032032B0BDE8F08100BF04
:101F20005C21002074210020F7B51E4604461746A8
:101F30000D4600218DF80710FFF7ACFE09F0C2FE38
:101F4000204631462FB12A460DF10703FFF7ECFE7C
:101F500003E0089A2B46FFF755FF03282AD8DFE84D
:101F600000F011040207002311E01648164901E0B1
:101F7000144816490AF0BEFD20460121FFF78AFEEB
:101F800000201CE012490F480AF0B4FD12E09DF851
:101F900007205E1CDBB29A420A4809D9E95C10228C
:101FA0000AF035FE07480B490AF089FD3346EEE793
:101FB0000AF08AFD20460121FFF76CFE012003B0E4
:101FC000F0BD00BF5C21002081490208924902084F
:101FD0009B490208104902082DE9F0438BB004AF79
:101FE000804600210922384602AE00240CF038FD5C
:101FF0000094404631460122454BFFF795FF0546C8
:1020000020B9444944480AF075FD7DE02346F25C5E
:1020100007AC092A01D8303204E0A2F10A010529EF
:1020200098BF3732E2540133082BF0D14FF000094A
:102030003A488DF8249000F031FE024600284AD03C
:10204000374935480AF056FD3448394600F094FDCA
:1020500000283BD04B46E15CFA5C914248D1013309
:10206000082BF8D12F492C480AF044FD2E492A4864
:102070000AF025FD9DF8161027480AF01BFD9DF873
:10208000171025480AF016FD9DF8141022480AF092
:1020900011FD9DF8151020480AF00CFD9DF8121056
:1020A0001D480AF007FD9DF813101B480AF002FDB9
:1020B0009DF8101018480AF0FDFC9DF81110164804
:1020C0000AF0F8FC14480AF0FFFC1DE0174912481A
:1020D0000AF010FD07E0009440463146144BFFF72C
:1020E00023FF054680B121460C4800F095FD0AE02B
:1020F000104909480AF0FEFC00974046314600228C
:102100000B4BFFF711FF054628460BB0BDE8F083E7
:10211000B1490208BC4902085C210020431C002090
:10212000DC490208644A02088E4A0208FA49020899
:102130001E4A0208274A02082DE9F04F89B002AF73
:1021400007F10C068346894690461C46304600211E
:102150000A220CF085FC002C50D1C7F804D0584658
:10216000CDF80080314601224B46FFF7DDFE824666
:1021700008B1214606E0404940480AF0BBFC3F4810
:102180003F496FE0CCB218F804300131002BF9D18F
:10219000E11D01F4FC71ADEB010D02A9D8B2A04222
:1021A00003D2F05CC8540133F8E70B46581AC0B2AA
:1021B000A0420DD213F8010B092801D8303004E0F9
:1021C000A0F10A05052DF1D8373003F8010CEDE731
:1021D0000025EBB2A34243D24B5D013508EB05006D
:1021E00010F8010C9842F4D0264924480AF082FCE9
:1021F000224825490AF07EFC7B689D466C460023F8
:10220000DAB219F8021001330A29F9D1931D03F447
:10221000FC73ADEB030DA2F1020E02AB0020C1B2C4
:10222000551EA94200F1010003DA19F801505D546E
:10223000F5E700223D215A55584603F80E10CDF817
:1022400000803146FFF770FE054628B90B480F495C
:102250000AF050FCAA4601E04FF0010AA54605E04D
:1022600006480B490AF046FC7B689D4650461C37E1
:10227000BD46BDE8F08F00BF9C4A02085C210020EB
:10228000C24A0208E64A02083D4B02087F4B020898
:10229000B44B02087FB50F2204460D466846002164
:1022A0000CF0DEFB684869490AF024FC0A2609F0B4
:1022B00009FD002D78D12046FFF78EFE64498DF888
:1022C0000000644A2B462046FFF736FF62498DF82E
:1022D0000100624A2B462046FFF72EFF60498DF829
:1022E0000200604A2B462046FFF726FF5E498DF824
:1022F00003005E4A2B462046FFF71EFF5C498DF81F
:1023000004005C4A2B462046FFF716FF8DF80500B7
:10231000594800F013FCF1285849204608D1584A82
:102320002B46FFF709FF57498DF80600464807E09E
:102330004A4A2B46FFF700FF53498DF806004248F2
:102340000AF0D8FB5149524A00232046FFF7F4FE19
:1023500050498DF807004E4A00232046FFF7ECFE57
:102360004D498DF80800464A00232046FFF7E4FE59
:102370004A498DF809004A4A00232046FFF7DCFE4F
:1023800048498DF80A00484A00232046FFF7D4FE4A
:10239000324A8DF80B00454920460023FFF7CCFE5A
:1023A0000D228DF80C000EE0334800F0C7FBF12839
:1023B0000CBF334A294A204630490023FFF7BCFEB0
:1023C00001228DF8000000231DF80310A9B9384937
:1023D0001D480AF08FFB2046FFF78EFC2046FFF7D2
:1023E000F5FA09F06FFC2046FFF786FC4FF4FA601F
:1023F0000AF0B8FE09F066FC05E00133D9B291425B
:10240000E2D304B070BD2B480AF02CFA002803DD9B
:1024100028480AF0D3F9F6E7013E16F0FF067FF4EC
:1024200046AF254908480AF065FB244906480AF0EA
:1024300061FB40F6B8300AF095FE09F043FC04B0A9
:10244000BDE8704009F072BC5C210020DC4B020842
:102450000B4C0208174C0208204C02081D4C0208C5
:102460002A4C0208364C02083F4C02084B4C02082A
:10247000544C02085F4C0208431C0020624C0208C6
:102480006C4C02086F4C02087C4C0208894C020814
:10249000934C0208964C0208A04C0208AA4C020871
:1024A000B34C0208B64C0208C04C0208C34C0208E8
:1024B000CD4C020874210020EA4C0208164D020897
:1024C000152001210AF022BE152000210AF01EBEAF
:1024D00010B50021044615200AF0B2FD1520012197
:1024E0000AF014FE2046BDE81040FDF745BF7FB559
:1024F00005460E46FFF7E8FF0D243319214628460E
:1025000013F80D2C0134FDF767FF162CF5D130467A
:10251000092106F037FB0646214628463246FDF7DC
:102520005BFF0D2421462846FDF728FF01AB23441D
:102530000134162C03F80D0CF4D101A8092106F082
:1025400021FBB04203D0FFF7BBFF00200DE028467F
:102550000B21FDF713FF552804D028460B215522E7
:10256000FDF73AFFFFF7ACFF012004B070BD7FB567
:1025700005460E46FFF7A8FF1724331921462846C3
:1025800013F8172C0134FDF727FF202CF5D1304626
:10259000092106F0F7FA0646214628463246FDF79D
:1025A0001BFF172421462846FDF7E8FE01AB234414
:1025B0000134202C03F8170CF4D101A8092106F0EE
:1025C000E1FAB04203D0FFF77BFF00200DE0284680
:1025D0000C21FDF7D3FE552804D028460C215522A6
:1025E000FDF7FAFEFFF76CFF012004B070BDF0B5F7
:1025F00085B001AD06460F462846002109220CF0A1
:102600002FFA0D2421463046FDF7B8FE2B19013470
:10261000162C03F80D0CF5D121463046FDF7AEFE21
:1026200009210446284606F0ADFA844206D100236B
:10263000EA5CFA540133092BFAD101E0002000E0F2
:10264000012005B0F0BDF0B585B001AD06460F46DE
:102650002846002109220CF003FA172421463046AF
:10266000FDF78CFE2B190134202C03F8170CF5D143
:1026700021463046FDF782FE09210446284606F031
:1026800081FA844206D10023EA5CFA540133092B13
:10269000FAD101E0002000E0012005B0F0BD37B51F
:1026A0000C461E210546FDF769FE1F218DF804002A
:1026B0002846FDF763FE02218DF8050001A806F00B
:1026C00061FA207003B030BD10B50B210446FDF750
:1026D00055FE88B1FFF7F8FE204600220B21FDF7DA
:1026E0007BFEFFF7EDFE20460B21FDF747FED0F104
:1026F000010038BF002010BD012010BD10B50C2115
:102700000446FDF73BFE88B1FFF7DEFE20460022BF
:102710000C21FDF761FEFFF7D3FE20460C21FDF7EB
:102720002DFED0F1010038BF002010BD012010BDEA
:1027300010B521210446FDF721FE552811D0FFF7E1
:10274000C3FE204655222121FDF746FEFFF7B8FEC5
:1027500020462121FDF712FEB0F1550358425841A1
:1027600010BD012010BD08B52121FDF707FEB0F115
:1027700055035842584108BD70B504460D46FFF751
:1027800036FF20B120462946FFF75DFF48BB2046B3
:102790002946FFF72CFF48B1154916480AF0AAF957
:1027A00020462946BDE87040FFF7E1BE2046294695
:1027B000FFF749FF06460F4846B10F490AF09AF95C
:1027C00020462946BDE87040FFF791BE0B490AF04C
:1027D00091F92046FFF778FF2046FFF78FFF30463C
:1027E00070BD074903480AF085F9012070BD00BF9C
:1027F0003F4D02085C210020764D0208AD4D0208D5
:10280000C14D0208F8B504460E462F25731920461F
:10281000294613F82F7CFDF7B1FD874203D101351E
:10282000342DF3D136E0FFF74FFE2F2573192946DB
:10283000204613F82F2C0135FDF7CEFD342DF5D1B0
:102840000521304606F09EF90746294620463A46BD
:10285000FDF7C2FD2F2520462946FDF78FFD731990
:1028600013F82F3C834217D10135342DF3D1204684
:102870002946FDF783FDB8420ED120463521FDF7EC
:102880007DFD552804D0204635215522FDF7A4FDB5
:10289000FFF716FE0120F8BDFFF712FE0020F8BD7D
:1028A000F7B505460E462F2421462846FDF766FD5E
:1028B00000AB23440134342C03F82F0CF4D1052150
:1028C000684606F05FF9214607462846FDF756FDA3
:1028D000874207D100231DF80320F2540133052B52
:1028E000F9D101E0002000E0012003B0F0BD73B594
:1028F00005462F2421462846FDF740FD00AB234422
:102900000134342C03F82F0CF4D16846052106F06D
:1029100039F9214606462846FDF730FD331A58425C
:10292000584102B070BD38B50546FFF7CDFD2F24E4
:1029300028462146FDF722FD68B12846214600229F
:10294000FDF74AFD28462146FDF718FD18B1FFF7AF
:10295000B7FD002038BD0134342CE9D1284635219B
:10296000FDF70CFD20B1284635210022FDF734FD8E
:10297000FFF7A6FD012038BD37B50D468DF80710CD
:1029800036210446FDF7FAFC85422BD002ADFFF755
:102990009BFD15F8012D20463621FDF71DFD012177
:1029A000284606F0EFF8372102462046FDF714FDD1
:1029B00020463621FDF7E2FC9DF8073083420DD119
:1029C00020463821FDF7DAFC552804D0204638216E
:1029D0005522FDF701FDFFF773FD03E0FFF770FDE2
:1029E000002000E0012003B030BD3621FDF7C6BC59
:1029F00037B536210546FDF7C1FC02AB03F8010DE2
:102A00001846012106F0BEF8372104462846FDF796
:102A1000B5FC231A5842584103B030BD10B53621D9
:102A20000446FDF7ABFC88B1FFF74EFD204636218A
:102A30000022FDF7D1FC20463621FDF79FFC18B19E
:102A4000FFF73EFD002010BDFFF73AFD012010BD4D
:102A500010B548210446FDF791FC552811D0FFF729
:102A600033FD204655224821FDF7B6FCFFF728FD2F
:102A700020464821FDF782FCB0F1550358425841E9
:102A800010BD012010BD10B54D210446FDF776FCA8
:102A9000552810D0FFF718FD204655224D21FDF78F
:102AA0009BFCFFF70DFD20460021FDF767FC003081
:102AB00018BF012010BD012010BD000037B58DF8F2
:102AC00007101031C9B20129044629D84C21FDF75D
:102AD00055FC9DF80730834228D002ADFFF7F4FC87
:102AE00015F8012D20464C21FDF776FC01212846E2
:102AF00006F048F84E2102462046FDF76DFC2046C0
:102B00004C21FDF73BFC9DF80730834205D1204660
:102B1000FFF7B9FFFFF7D4FC08E0FFF7D1FC03E0B3
:102B20000448054909F0E6FF002000E0012003B059
:102B300030BD00BF5C210020F14D020837B54C21AB
:102B40000446FDF71BFC02AB03F8010D18460121FA
:102B500006F018F84E2105462046FDF70FFC854289
:102B600002D19DF8070004E02046F021FFF7A6FF00
:102B7000F02003B030BD0000F7B505460E464F24E7
:102B800021462846FDF7FAFB00AB23440134572CBD
:102B900003F84F0CF4D10821684605F0F3FF2146F5
:102BA00007462846FDF7EAFB87420CD100231DF8B3
:102BB0000320F2540133082BF9D10448044909F0E9
:102BC00099FF012000E0002003B0F0BD5C2100204F
:102BD000274E020810B558210446FDF7CFFB5528B3
:102BE00008D0FFF771FC204658215522FDF7F4FB71
:102BF000FFF766FC10BD10B558210446FDF7BEFB7B
:102C000040B1FFF761FC204658210022FDF7E4FBAC
:102C1000FFF756FC10BD0000F7B50F460546FFF75D
:102C200053FC3846082105F0ADFF4F2406463B19FA
:102C30002146284613F84F2C0134FDF7CDFB572CC5
:102C4000F5D1214628463246FDF7C6FB4F242146E2
:102C50002846FDF793FB00AB23440134572C03F8BF
:102C60004F0CF4D16846082105F08CFF864206D04F
:102C70002846FFF7C0FFFFF723FC002007E00549C7
:102C8000054809F037FF2846FFF7A4FF012003B0ED
:102C9000F0BD00BF3C4E02085C21002008B5582161
:102CA000FDF76CFBB0F155035842584108BD70B5B3
:102CB00004460E461546FFF707FC20463246222101
:102CC000FDF78AFB204623212A46FDF785FBFFF707
:102CD000F7FB70BDFDF752BBFDF750BB70B5044666
:102CE0000E461546FFF7F0FB204632462421FDF73D
:102CF00073FB204625212A46FDF76EFBFFF7E0FB1C
:102D000070BD10B50446FFF7DFFB20465522592160
:102D1000FDF762FBFFF7D4FB20465921FDF72EFBA0
:102D2000B0F155035842584110BD08B55921FDF77F
:102D300025FBB0F155035842584108BD10B5044673
:102D4000FFF7C2FB204600225921FDF745FBFFF7A4
:102D5000B7FB20465921FDF711FBD0F1010038BF28
:102D6000002010BD73B5002305460E460093019365
:102D7000FFF7AAFB5A2433192146284613F85A2C88
:102D80000134FDF729FB622CF5D13046082105F00E
:102D9000F9FE0646214628463246FDF71DFB5A2419
:102DA00021462846FDF7EAFA00AB23440134622CA1
:102DB00003F85A0CF4D10821684605F0E3FE0446F6
:102DC000FFF77EFBB442064804D1064909F092FEA3
:102DD000012003E0044909F08DFE002002B070BD1F
:102DE0005C210020514E02087F4E020838B5094987
:102DF0000546094809F07EFE5A2421462846FDF77B
:102E0000BDFA064B1A190134622C02F85A0CF4D19F
:102E1000184638BDB04E02085C210020481C002036
:102E200073B5002305460E4600930193FFF74CFB54
:102E3000632433192146284613F8632C0134FDF727
:102E4000CBFA6B2CF5D13046082105F09BFE0646E7
:102E5000732128463246FDF7BFFA632421462846EF
:102E6000FDF78CFA00AB234401346B2C03F8630CA0
:102E7000F4D10821684605F085FE0446FFF720FBE3
:102E8000B442064804D1064909F034FE012003E0AB
:102E9000044909F02FFE002002B070BD5C21002023
:102EA000E84E0208164F020870B50E46742104461B
:102EB0001546FDF763FAB04205D120467521FDF7AE
:102EC0005DFAA84219D0FFF7FFFA20467421324676
:102ED000FDF782FA204675212A46FDF77DFAFFF7B5
:102EE000EFFA20467421FDF749FAB0420BD1204693
:102EF0007521FDF743FAA84205D10649064809F0B5
:102F0000F9FD012070BD0549034809F0F3FD0020DB
:102F100070BD00BF8E4F02085C210020B04F020838
:102F200010B50446FFF7D0FA204674210022FDF7C1
:102F300053FA204675210022FDF74EFAFFF7C0FA3A
:102F400020467421FDF71AFA20B920467521FDF7B5
:102F500015FA28B10549064809F0CCFD002010BD3E
:102F60000449034809F0C6FD012010BDD24F0208F4
:102F70005C210020F54F020870B50E467A21044608
:102F80001546FDF7FBF9B04205D120467B21FDF740
:102F9000F5F9A84219D0FFF797FA20467A21324670
:102FA000FDF71AFA20467B212A46FDF715FAFFF7AE
:102FB00087FA20467A21FDF7E1F9B0420BD120468D
:102FC0007B21FDF7DBF9A84205D10649064809F047
:102FD00091FD012070BD0549034809F08BFD0020DB
:102FE00070BD00BFC25002085C210020EE500208F4
:102FF00038B57A210546FDF7C1F97B2104462846FC
:10300000FDF7BCF900EB042038BD000070B50E469A
:10301000782104461546FDF7B1F9B04205D12046A6
:103020007921FDF7ABF9A84219D0FFF74DFA2046F8
:1030300078213246FDF7D0F9204679212A46FDF75E
:10304000CBF9FFF73DFA20467821FDF797F9B0421A
:103050000BD120467921FDF791F9A84205D1064907
:10306000064809F047FD012070BD0549034809F0F5
:1030700041FD002070BD00BF745102085C2100209A
:10308000A051020838B578210546FDF777F9792176
:1030900004462846FDF772F900EB042038BD000015
:1030A00070B50E467C2104461546FDF767F9B0421F
:1030B00005D120467D21FDF761F9A84219D0FFF71F
:1030C00003FA20467C213246FDF786F920467D2111
:1030D0002A46FDF781F9FFF7F3F920467C21FDF739
:1030E0004DF9B0420BD120467D21FDF747F9A842AA
:1030F00005D10649064809F0FDFC012070BD0549CF
:10310000034809F0F7FC002070BD00BF26520208FA
:103110005C2100205652020838B57C210546FDF797
:103120002DF97D2104462846FDF728F900EB0420FF
:1031300038BD000070B505460E46FFF7C5F97E2480
:1031400033192146284613F87E2C0134FDF744F943
:10315000842CF5D1FFF7B4F90249034809F0CAFC01
:10316000012070BDE85202085C210020032938B517
:10317000054614D005D80129154C09D00DD87E215B
:1031800007E005290FD00CD355291ED17E2410E06D
:103190007F21FDF7F3F8207018E08021F9E7812105
:1031A00002E0822100E08321FDF7E8F8084B187067
:1031B0000CE021462846FDF7E1F8054B2344013495
:1031C000842C03F87E0CF4D100E038BD004838BDF3
:1031D000361C002070B516468AB005460C46FFF72F
:1031E00073F9052E00F2C480DFE806F0031C354EAB
:1031F000678028468421C4F307228DF80540FDF737
:10320000EBF89DF8052028468521FDF7E5F85B4998
:1032100004A809F053FD04A907A809F070FD07A848
:1032200000217BE028468621C4F307228DF8054063
:10323000FDF7D2F89DF8052028468721FDF7CCF848
:103240004E4904A809F03AFD04A907A809F057FD62
:1032500007A8012162E028468821C4F307228DF8DF
:103260000540FDF7B9F89DF8052028468921FDF7AE
:10327000B3F8424904A809F021FD04A907A809F000
:103280003EFD07A8022149E028468A21C4F307220F
:103290008DF80540FDF7A0F89DF8052028468B2104
:1032A000FDF79AF8354904A809F008FD04A907A814
:1032B00009F025FD07A8032130E028468C21C4F33E
:1032C00007228DF80540FDF787F89DF80520284670
:1032D0008D21FDF781F8294904A809F0EFFC04A924
:1032E00007A809F00CFD07A8042117E028468E2145
:1032F000C4F307228DF80540FDF76EF89DF8052010
:1033000028468F21FDF768F81C4904A809F0D6FC6F
:1033100004A907A809F0F3FC07A8052109F0BAFDE4
:10332000174909F0A5FD0146164809F0BBFB07A89F
:1033300009F082FC04A809F07FFC0A22214604A8B7
:1033400009F01BFD04A907A809F0D9FC0E4907A83C
:1033500009F08EFD01460B4809F0C2FB07A809F0F1
:103360006BFC04A809F068FCFFF7AAF8012002E052
:10337000FFF7A6F800200AB070BD00BF4D53020849
:10338000575302085C2100207053020838B50446E8
:1033900005293AD8DFE801F0030B131B232B842106
:1033A000FCF7ECFF194D85212870204626E0862188
:1033B000FCF7E4FF154D8721287020461EE0882188
:1033C000FCF7DCFF114D89212870204616E08A2188
:1033D000FCF7D4FF0D4D8B21287020460EE08C2188
:1033E000FCF7CCFF094D8D212870204606E08E2188
:1033F000FCF7C4FF054D8F2128702046FCF7BEFF67
:103400002B78687040EA032038BD38BD521C00207C
:1034100030B50D4687B00446FFF756F8052D00F28B
:103420009580DFE805F06C57422D180320468E2169
:103430000022FCF7D1FF002220468F21FCF7CCFFB1
:103440004549684609F03AFC694603A809F057FC6B
:1034500003A8052167E020468C210022FCF7BCFF71
:10346000002220468D21FCF7B7FF3B49684609F052
:1034700025FC694603A809F042FC03A8042152E098
:1034800020468A210022FCF7A7FF002220468B213C
:10349000FCF7A2FF3049684609F010FC694603A812
:1034A00009F02DFC03A803213DE0204688210022DD
:1034B000FCF792FF002220468921FCF78DFF264968
:1034C000684609F0FBFB694603A809F018FC03A84D
:1034D000022128E0204686210022FCF77DFF002201
:1034E00020468721FCF778FF1B49684609F0E6FB78
:1034F000694603A809F003FC03A8012113E0204654
:1035000084210022FCF768FF002220468521FCF779
:1035100063FF1149684609F0D1FB694603A809F029
:10352000EEFB03A8002109F0B5FC0C4909F0A0FC52
:1035300001460B4809F0D4FA03A809F07DFB684660
:1035400009F07AFBFEF7BCFF012002E0FEF7B8FFAE
:10355000002007B030BD00BF805302088A53020824
:103560005C21002070B5164688B005460C46FEF773
:10357000ABFF052E00F2C480DFE806F0031C354ED9
:10358000678028469021C4F307228DF80540FCF798
:1035900023FF9DF8052028469121FCF71DFF5B497C
:1035A00002A809F08BFB02A905A809F0A8FB05A851
:1035B00000217BE028469221C4F307228DF80540C4
:1035C000FCF70AFF9DF8052028469321FCF704FF2D
:1035D0004E4902A809F072FB02A905A809F08FFB69
:1035E00005A8012162E028469421C4F307228DF842
:1035F0000540FCF7F1FE9DF8052028469521FCF7D3
:10360000EBFE424902A809F059FB02A905A809F0FE
:1036100076FB05A8022149E028469621C4F307223B
:103620008DF80540FCF7D8FE9DF805202846972127
:10363000FCF7D2FE354902A809F040FB02A905A813
:1036400009F05DFB05A8032130E028469821C4F36A
:1036500007228DF80540FCF7BFFE9DF8052028469F
:103660009921FCF7B9FE294902A809F027FB02A914
:1036700005A809F044FB05A8042117E028469A2173
:10368000C4F307228DF80540FCF7A6FE9DF805203F
:1036900028469B21FCF7A0FE1C4902A809F00EFB5E
:1036A00002A905A809F02BFB05A8052109F0F2FBEA
:1036B000174909F0DDFB0146164809F0F3F905A8A2
:1036C00009F0BAFA02A809F0B7FA0A22214602A8BC
:1036D00009F053FB02A905A809F011FB0E4905A842
:1036E00009F0C6FB01460B4809F0FAF905A809F0F4
:1036F000A3FA02A809F0A0FAFEF7E2FE012002E018
:10370000FEF7DEFE002008B070BD00BF4D5302087A
:10371000B15302085C210020C453020838B50446A6
:1037200005293AD8DFE801F0030B131B232B902166
:10373000FCF724FE194D91212870204626E09221A5
:10374000FCF71CFE154D9321287020461EE09421A5
:10375000FCF714FE114D95212870204616E09621A5
:10376000FCF70CFE0D4D9721287020460EE09821A5
:10377000FCF704FE094D99212870204606E09A21A5
:10378000FCF7FCFD054D9B2128702046FCF7F6FD5B
:103790002B78687040EA032038BD38BD461C0020F5
:1037A00030B50D4687B00446FEF78EFE052D00F2BB
:1037B0009580DFE805F06C57422D180320469A21CA
:1037C0000022FCF709FE002220469B21FCF704FEA4
:1037D0004549684609F072FA694603A809F08FFA6C
:1037E00003A8052167E0204698210022FCF7F4FD9C
:1037F000002220469921FCF7EFFD3B49684609F07D
:103800005DFA694603A809F07AFA03A8042152E098
:10381000204696210022FCF7DFFD0022204697215A
:10382000FCF7DAFD3049684609F048FA694603A812
:1038300009F065FA03A803213DE020469421002207
:10384000FCF7CAFD002220469521FCF7C5FD26495C
:10385000684609F033FA694603A809F050FA03A84C
:10386000022128E0204692210022FCF7B5FD00222B
:1038700020469321FCF7B0FD1B49684609F01EFA6B
:10388000694603A809F03BFA03A8012113E020468A
:1038900090210022FCF7A0FD002220469121FCF798
:1038A0009BFD1149684609F009FA694603A809F029
:1038B00026FA03A8002109F0EDFA0C4909F0D8FA1C
:1038C00001460B4809F00CF903A809F0B5F9684660
:1038D00009F0B2F9FEF7F4FD012002E0FEF7F0FD79
:1038E000002007B030BD00BF80530208D753020844
:1038F0005C21002070B5164688B005460C46FEF7E0
:10390000E3FD052E00F2C480DFE806F0031C354E0F
:10391000678028469C21C4F307228DF80540FCF7F8
:103920005BFD9DF8052028469D21FCF755FD5B4970
:1039300002A809F0C3F902A905A809F0E0F905A851
:1039400000217BE028469E21C4F307228DF8054024
:10395000FCF742FD9DF8052028469F21FCF73CFD21
:103960004E4902A809F0AAF902A905A809F0C7F969
:1039700005A8012162E02846A021C4F307228DF8A2
:103980000540FCF729FD9DF805202846A121FCF7FC
:1039900023FD424902A809F091F902A905A809F0FE
:1039A000AEF905A8022149E02846A221C4F3072266
:1039B0008DF80540FCF710FD9DF805202846A32151
:1039C000FCF70AFD354902A809F078F902A905A813
:1039D00009F095F905A8032130E02846A421C4F395
:1039E00007228DF80540FCF7F7FC9DF805202846D6
:1039F000A521FCF7F1FC294902A809F05FF902A909
:103A000005A809F07CF905A8042117E02846A6219D
:103A1000C4F307228DF80540FCF7DEFC9DF8052075
:103A20002846A721FCF7D8FC1C4902A809F046F952
:103A300002A905A809F063F905A8052109F02AFAE9
:103A4000174909F015FA0146164809F02BF805A8A0
:103A500009F0F2F802A809F0EFF80A22214602A8BC
:103A600009F08BF902A905A809F049F90E4905A842
:103A700009F0FEF901460B4809F032F805A809F0F3
:103A8000DBF802A809F0D8F8FEF71AFD012002E0E1
:103A9000FEF716FD002008B070BD00BF4D530208B0
:103AA000FB5302085C2100200E54020838B504467E
:103AB00005293AD8DFE801F0030B131B232B9C21C7
:103AC000FCF75CFC194D9D212870204626E09E21C4
:103AD000FCF754FC154D9F21287020461EE0A021C4
:103AE000FCF74CFC114DA1212870204616E0A221C4
:103AF000FCF744FC0D4DA321287020460EE0A421C4
:103B0000FCF73CFC094DA5212870204606E0A621C3
:103B1000FCF734FC054DA72128702046FCF72EFC4D
:103B20002B78687040EA032038BD38BD341C002073
:103B300030B50D4687B00446FEF7C6FC052D00F2F1
:103B40009580DFE805F06C57422D18032046A6212A
:103B50000022FCF741FC00222046A721FCF73CFC98
:103B60004549684609F0AAF8694603A809F0C7F86C
:103B700003A8052167E02046A4210022FCF72CFCC5
:103B800000222046A521FCF727FC3B49684609F0A6
:103B900095F8694603A809F0B2F803A8042152E099
:103BA0002046A2210022FCF717FC00222046A32178
:103BB000FCF712FC3049684609F080F8694603A812
:103BC00009F09DF803A803213DE02046A021002232
:103BD000FCF702FC00222046A121FCF7FDFB264950
:103BE000684609F06BF8694603A809F088F803A84D
:103BF000022128E020469E210022FCF7EDFB002256
:103C000020469F21FCF7E8FB1B49684609F056F85F
:103C1000694603A809F073F803A8012113E02046C0
:103C20009C210022FCF7D8FB002220469D21FCF7B6
:103C3000D3FB1149684609F041F8694603A809F029
:103C40005EF803A8002109F025F90C4909F010F9E4
:103C500001460B4808F044FF03A808F0EDFF684652
:103C600008F0EAFFFEF72CFC012002E0FEF728FC3A
:103C7000002007B030BD00BF805302082254020864
:103C80005C21002070B5164688B005460C46FEF74C
:103C90001BFC052E00F2C980DFE806F003213F5D22
:103CA0007BA9230C8DF80430230A8DF806408DF88B
:103CB0000530002401AB04F1A8011A5D2846013447
:103CC000FCF78AFB032CF5D1594902A808F0F6FF4E
:103CD00002A905A809F013F805A8002176E0230C35
:103CE0008DF80430230A8DF806408DF80530002445
:103CF00001AB04F1AB011A5D28460134FCF76CFB03
:103D0000032CF5D14A4902A808F0D8FF02A905A85A
:103D100008F0F5FF05A8012158E0230C8DF80430C8
:103D2000230A8DF806408DF80530002401AB04F11C
:103D3000AE011A5D28460134FCF74EFB032CF5D189
:103D40003B4902A808F0BAFF02A905A808F0D7FF6E
:103D500005A802213AE0230C8DF80430230A8DF8DF
:103D600006408DF80530002401AB04F1B1011A5D65
:103D700028460134FCF730FB032CF5D12C4902A86E
:103D800008F09CFF02A905A808F0B9FF05A8214684
:103D90001CE0230C8DF80430230A8DF806408DF8C2
:103DA0000530002401AB04F1B4011A5D284601344A
:103DB000FCF712FB032CF5D11D4902A808F07EFF89
:103DC00002A905A808F09BFF05A8042109F062F8E4
:103DD000184909F04DF80146174808F081FE05A87A
:103DE00008F02AFF02A808F027FF01201EE0230C9C
:103DF0008DF80430230A8DF806408DF80530002434
:103E000001AB04F1B7011A5D28460134FCF7E4FA6E
:103E1000032CF5D1064902A808F050FF02A905A815
:103E200008F06DFF05A80521D0E7002008B070BD9F
:103E30004D530208475402085C21002038B504465F
:103E4000052959D8DFE801F003101D2A3744A825B9
:103E500029462046FCF792FA284B5A190135AB2D1A
:103E600002F8A80CF4D13FE0AB2529462046FCF728
:103E700085FA224B5A190135AE2D02F8AB0CF4D15C
:103E800032E0AE2529462046FCF778FA1B4B5A193A
:103E90000135B12D02F8AE0CF4D125E0B12529464B
:103EA0002046FCF76BFA154B5A190135B42D02F870
:103EB000B10CF4D118E0B42529462046FCF75EFA8F
:103EC0000E4B5A190135B72D02F8B40CF4D10BE0A2
:103ED000B72529462046FCF751FA084B5A190135F7
:103EE000BA2D02F8B70CF4D158781A7800029B78F2
:103EF00040EA0240184338BD38BD00BF401C0020D6
:103F000030B50D4687B00446FEF7DEFA032D4CD0DF
:103F10001CD8012D22D02ED82046A8210022FCF743
:103F20005BFA2046A9210022FCF756FA002220461F
:103F3000AA21FCF751FA5049684608F0BFFE6946CD
:103F400003A808F0DCFE03A800216EE0052D53D085
:103F500038D3552D40F08C80A82577E02046AB2142
:103F60000022FCF739FA2046AC210022FCF734FA93
:103F70002046AD214CE02046AE210022FCF72CFA71
:103F80002046AF210022FCF727FA00222046B0216C
:103F9000FCF722FA3849684608F090FE694603A803
:103FA00008F0ADFE03A802213FE02046B121002227
:103FB000FCF712FA2046B2210022FCF70DFA204647
:103FC000B32125E02046B4210022FCF705FA204663
:103FD000B5210022FCF700FA00222046B621FCF7AA
:103FE000FBF92549684608F069FE694603A808F010
:103FF00086FE03A8042118E02046B7210022FCF722
:10400000EBF92046B8210022FCF7E6F92046B92159
:104010000022FCF7E1F91849684608F04FFE6946AE
:1040200003A808F06CFE03A8294608F033FF1349E3
:1040300008F01EFF0146124808F052FD03A808F0E0
:10404000FBFD684608F0F8FD012012E029462046F5
:1040500000220135FCF7C0F9BA2DF7D109496846AD
:1040600008F02CFE03A8694608F049FE03A8DEE725
:10407000002007B030BD00BF805302087054020812
:104080005C2100209A54020870B5164688B0054697
:104090000C46FEF719FA052E00F2C980DFE806F09B
:1040A00003213F5D7BA9230C8DF80430230A8DF892
:1040B00006408DF80530002401AB04F1BA011A5D09
:1040C00028460134FCF788F9032CF5D1594902A898
:1040D00008F0F4FD02A905A808F011FE05A80021CA
:1040E00076E0230C8DF80430230A8DF806408DF815
:1040F0000530002401AB04F1BD011A5D28460134EE
:10410000FCF76AF9032CF5D14A4902A808F0D6FD5C
:1041100002A905A808F0F3FD05A8012158E0230C29
:104120008DF80430230A8DF806408DF80530002400
:1041300001AB04F1C0011A5D28460134FCF74CF9CB
:10414000032CF5D13B4902A808F0B8FD02A905A847
:1041500008F0D5FD05A802213AE0230C8DF80430C3
:10416000230A8DF806408DF80530002401AB04F1D8
:10417000C3011A5D28460134FCF72EF9032CF5D152
:104180002C4902A808F09AFD02A905A808F0B7FD7D
:1041900005A821461CE0230C8DF80430230A8DF875
:1041A00006408DF80530002401AB04F1C6011A5D0C
:1041B00028460134FCF710F9032CF5D11D4902A85B
:1041C00008F07CFD02A905A808F099FD05A80421C6
:1041D00008F060FE184908F04BFE0146174808F049
:1041E0007FFC05A808F028FD02A808F025FD0120A5
:1041F0001EE0230C8DF80430230A8DF806408DF85C
:104200000530002401AB04F1C9011A5D28460134D0
:10421000FCF7E2F8032CF5D1064902A808F04EFDA0
:1042200002A905A808F06BFD05A80521D0E700202C
:1042300008B070BD4D530208A75402085C2100204D
:1042400038B50446052959D8DFE801F003101D2AC6
:104250003744BA2529462046FCF790F8284B5A19CE
:104260000135BD2D02F8BA0CF4D13FE0BD25294639
:104270002046FCF783F8224B5A190135C02D02F86D
:10428000BD0CF4D132E0C02529462046FCF776F873
:104290001B4B5A190135C32D02F8C00CF4D125E08F
:1042A000C32529462046FCF769F8154B5A190135F4
:1042B000C62D02F8C30CF4D118E0C62529462046C5
:1042C000FCF75CF80E4B5A190135C92D02F8C60CE3
:1042D000F4D10BE0C92529462046FCF74FF8084BDE
:1042E0005A190135CC2D02F8C90CF4D158781A7836
:1042F00000029B7840EA0240184338BD38BD00BF39
:104300003C1C002030B50D4687B00446FEF7DCF8B3
:10431000032D4CD01CD8012D22D02ED82046BA21F6
:104320000022FCF759F82046BB210022FCF754F884
:1043300000222046BC21FCF74FF85049684608F09F
:10434000BDFC694603A808F0DAFC03A800216EE072
:10435000052D53D038D3552D40F08C80BA2577E009
:104360002046BD210022FCF737F82046BE2100225E
:10437000FCF732F82046BF214CE02046C021002245
:10438000FCF72AF82046C1210022FCF725F800227C
:104390002046C221FCF720F83849684608F08EFC18
:1043A000694603A808F0ABFC03A802213FE02046C1
:1043B000C3210022FCF710F82046C4210022FCF79C
:1043C0000BF82046C52125E02046C6210022FCF737
:1043D00003F82046C7210022FBF7FEFF00222046FB
:1043E000C821FBF7F9FF2549684608F067FC6946D4
:1043F00003A808F084FC03A8042118E02046C92182
:104400000022FBF7E9FF2046CA210022FBF7E4FF68
:104410002046CB210022FBF7DFFF1849684608F051
:104420004DFC694603A808F06AFC03A8294608F079
:1044300031FD134908F01CFD0146124808F050FBFD
:1044400003A808F0F9FB684608F0F6FB012012E02B
:104450002946204600220135FBF7BEFFCC2DF7D1BF
:104460000949684608F02AFC03A8694608F047FC99
:1044700003A8DEE7002007B030BD00BF805302086C
:10448000D15402085C2100209A54020870B50646F7
:104490000D46FEF719F8002404F1CC012A5D3046E0
:1044A0000134FBF799FF062CF6D1FEF709F8034912
:1044B000034808F01FFB012070BD00BFFC54020838
:1044C0005C21002010B50446FDF7FEFF2046552272
:1044D000D221FBF781FFFDF7F3FF0349034808F002
:1044E00009FB012010BD00BF5C5502085C210020C3
:1044F00008B5D221FBF742FFB0F1550358425841AD
:1045000008BD000030B50D4687B00446FDF7DCFF5E
:10451000032D2DD012D8012D17D019D800222046F6
:10452000D321FBF759FF3849684608F0C7FB6946B5
:1045300003A808F0E4FB03A800213BE0052D2AD0E6
:1045400019D3552D5BD1D32537E02046D42124E063
:1045500000222046D521FBF73FFF2B49684608F093
:10456000ADFB694603A808F0CAFB03A8022121E0BD
:104570002046D62111E000222046D721FBF72CFF50
:104580002149684608F09AFB694603A808F0B7FB82
:1045900003A804210EE02046D8210022FBF71CFFCF
:1045A0001949684608F08AFB694603A808F0A7FB8A
:1045B00003A8294608F06EFC10E029462046002298
:1045C0000135FBF709FFD92DF7D11049684608F0EE
:1045D00075FB03A8694608F092FB03A80C4908F094
:1045E00047FC01460B4808F07BFA03A808F024FBBF
:1045F000684608F021FBFDF763FF012002E0FDF7AC
:104600005FFF002007B030BD805302089A540208B3
:104610004B5602085C210020F8B506460F461546A9
:10462000FDF752FF0024E3B2AB4206D2A1193A5D76
:104630000448FBF7D1FE0134F5E7FDF741FF012007
:10464000F8BD00BF6C170020F8B505460E461746AA
:104650000024E3B2BB4206D261190448FBF78EFE88
:1046600030550134F5E70120F8BD00BF6C1700207C
:1046700038B5064D044621462846FDF7B8FF2846C2
:10468000FEF7B3F900236072A37238BD511C0020FD
:104690000022026042607047006820B103688B42CC
:1046A00001D08068F9E7704770B504460C201646C3
:1046B0000D4609F04DFE00228260226880E860000D
:1046C0000AB9206001E062689060606070BD10B55A
:1046D0001446FFF7E1FF08B14460012010BD08B5A2
:1046E000FFF7DAFF00B1406808BD01F51C41413118
:1046F000FFF7DABF01F51C414131FFF7E8BF01F5D3
:104700001C414131FFF7EBBF002A01F1010114BF49
:104710004FF47F420022FFF7C7BF002A01F51C516A
:1047200001F1110114BF4FF47F420022FFF7BCBF1B
:1047300001F5EA413131FFF7B7BF002A01F101016C
:1047400014BF4FF47F420022FFF7C1BF002A01F5DA
:104750001C5101F1110114BF4FF47F420022FFF7F9
:10476000B6BF01F5EA413131FFF7B1BF08B50131FC
:10477000FFF7B5FFB0F57F435842584108BD01F53A
:104780001C5108B51131FFF7AAFFB0F57F4358421D
:10479000584108BD01F5EA413131FFF7A0BF0000E3
:1047A00070B504460D4609480949164608F0A2F9B5
:1047B000A06809F0D5FD0220207309F0C9FD803DF5
:1047C0000323A06005704670637370BD5C210020F8
:1047D00084570208F8B5531E7C2B04460F46164634
:1047E00002D903210A4617E001F51C414131FFF7C8
:1047F00053FF18B92046032102220DE0A06809F0FA
:10480000AFFD701C4000C0B2207309F0A1FDA06094
:1048100030B9204603210422BDE8F840FFF7C0BFAD
:1048200003230370237B0025023B4370E9192046D4
:10483000FFF765FFA3680135020A03F81520A36896
:10484000B54203EB45035870F0D103236373F8BD01
:1048500070B504460E461546FFF74CFF18B92046C2
:104860000621022208E020463146FFF748FFA84211
:1048700006D0204606210422BDE87040FFF790BF15
:104880000223637370BD2DE9F8431F4616467A1E56
:104890007A2A044688469DF8203002D8B3EB470FA9
:1048A00003D02046102103221CE006F51C454135AB
:1048B00005EB070920462946FFF7EEFE18B920460A
:1048C000102102220EE001354D45F3D1A06809F018
:1048D00047FD0520207309F03BFDA06030B920465C
:1048E00010210422BDE8F843FFF75ABF10230370DC
:1048F000330A4370002307718670C37008F1060500
:104900003744BE4205F102050BD015F8022C15F80C
:10491000013C3146204643EA0222FFF7EBFE013616
:10492000EFE703236373BDE8F8832DE9F843531ED3
:10493000B3F5FA6F04460F46154602D30121032250
:1049400019E00131FFF7A8FE18B920460121022223
:1049500011E0A06809F004FDC5F3C7036A070CBFA6
:10496000023303332373207B09F0F2FCA06030B9DB
:10497000204601210422BDE8F843FFF711BF0123BF
:104980000370237B05EB0708023B43703E4600257E
:1049900046451CD031462046FFF7E8FEC7F1010925
:1049A000B1444FEAD909012109F10203A268A940E3
:1049B00010B1D05C014302E0D05C20EA0101013576
:1049C000EDB2082DD15408BF00250136E0E70323DE
:1049D0006373BDE8F88300002DE9F843531EB3F577
:1049E000FA6F04460F46154602D3022103221FE048
:1049F00001F51C511131FFF74FFE18B92046012176
:104A0000022215E02249234808F074F8A06809F052
:104A1000A7FCC5F3C7036A070CBF02330333237334
:104A2000207B09F095FCA06030B9204602210422C9
:104A3000BDE8F843FFF7B4BE02230370237B05EB08
:104A40000708023B43703E46002546451CD03146D0
:104A50002046FFF794FEC7F10109B1444FEAD90996
:104A6000012109F10203A268A94010B1D05C014301
:104A700002E0D05C20EA01010135EDB2082DD154ED
:104A800008BF00250136E0E703236373BDE8F88320
:104A9000A75702085C210020F8B5531E7C2B044662
:104AA0000F46164602D90421032217E001F5EA4118
:104AB0003131FFF7F1FD18B92046012102220DE046
:104AC000A06809F04DFC701C4000C0B2207309F0D2
:104AD0003FFCA06030B9042120460A46BDE8F840FA
:104AE000FFF75EBE04230370237B0025023B437067
:104AF000E9192046FFF74EFEA3680135020A03F8C4
:104B00001520A368B54203EB45035870F0D1032389
:104B10006373F8BD70B5B2F57F4F86B004460E469C
:104B200003D012B10521032215E0151C18BF012581
:104B3000204631462A46FFF700FE18B920460521D7
:104B4000022208E020463146FFF710FEA84205D0B9
:104B5000204605210422FFF723FE17E00C49684692
:104B600008F0ACF8694603A808F0C9F8094903A899
:104B700008F07EF90146084807F0B2FF03A808F0E4
:104B80005BF8684608F058F80223637306B070BDFE
:104B9000D1570208E95702085C2100202DE9F043B3
:104BA0008BB00446894604A86C49DF081D461646AA
:104BB00008F084F804A907A808F0A1F8394607A866
:104BC00008F07CF90146664807F08AFF07A808F05C
:104BD00033F804A808F030F86B0705F1FF3318BF6D
:104BE0000137B3F5F66F03D29DF84830BB4207D0CA
:104BF0005C495B4807F07EFF20460F2103224DE011
:104C0000771C07EB050820463946FFF745FD18B924
:104C100020460F21022241E001374745F3D1504899
:104C2000514907F067FF0627504901A808F046F8E8
:104C300001A904A808F063F8394604A808F03EF971
:104C40004B4908F015F9102219F80710804607A8FB
:104C500008F070F807A9404608F0FDF80146404802
:104C600007F03EFF07A807F0E7FF04A807F0E4FFFE
:104C7000013701A807F0E0FF102FD5D13A49384895
:104C800007F038FFA06809F06BFB0520207309F0DE
:104C90005FFBA06028B920460F210422FFF780FDAA
:104CA00058E00F230370330A43702B0A8670C370D9
:104CB00005712D492A4807F01DFF06272B4901A839
:104CC00007F0FCFF01A904A808F019F8394604A868
:104CD00008F0F4F8264908F0CBF8102219F807106C
:104CE000804607A808F026F807A9404608F0B3F860
:104CF00001461B4807F0F4FE07A807F09DFF04A833
:104D000007F09AFF013701A807F096FF102FD5D1C1
:104D10001348154907F0EEFE3544B0460027C6EBB0
:104D2000080309EBD3039A7941463A410137FFB2B0
:104D3000204602F00102FFF700FD08F10108082FEC
:104D400008BF0027A845EAD105480A4907F0D2FE66
:104D5000032363730BB0BDE8F08300BFFB57020869
:104D60005C2100200D5802088A65020826580208B6
:104D7000C34402082D5802082DE9F0418B784F7882
:104D80008CB0CE7843EA07270B7991F800800C4667
:104D90000546544903A843EA062607F08FFF03A9F6
:104DA00009A807F0ACFF1022217806A807F0C2FF7F
:104DB00006A909A808F04FF801464B4807F090FEF5
:104DC00006A807F039FF09A807F036FF03A807F087
:104DD00033FF464903A807F071FF03A909A807F0AC
:104DE0008EFF1022394606A807F0C7FF06A909A8BA
:104DF00008F031F801463C4807F072FE06A807F0BB
:104E00001BFF09A807F018FF03A807F015FF384992
:104E100003A807F053FF03A909A807F070FF1022A9
:104E2000314606A807F0A9FF06A909A808F013F85B
:104E300001462D4807F054FE06A807F0FDFE09A81C
:104E400007F0FAFE03A807F0F7FE08F1FF330F2B77
:104E50003FD8DFE803F01D230E292F083E3E3E3EDB
:104E60003E3E3E3E3514284639463246FFF7F0FCBA
:104E700034E0284639463246FFF7ACFC2EE0637931
:104E80002846009321463A463346FFF7FCFC25E0CE
:104E9000284639463246FFF748FD1FE02846394686
:104EA0003246FFF799FD19E0284639463246FFF7AA
:104EB000F3FD13E0284639463246FFF72BFE0DE09E
:104EC00063792846009321463A463346FFF766FE4B
:104ED00004E0284641460122FFF762FC0CB0BDE821
:104EE000F08100BF3C5802085C21002048580208AD
:104EF0005258020810B50446FFF7CAFB204610BD01
:104F000080F828100120704770B5049E0161C661C9
:104F10000446154608461146DAB207F0C5FC4FF4C0
:104F2000FA6008F01FF9002E08DBF6B230460021C7
:104F300008F086F83046002108F0E8F8B5F5964FFD
:104F400006DD40F2EE23236240F2D663636207E09F
:104F5000044B93FBF5F32362034B93FBF5F565627A
:104F6000012070BDC0E1E400C00E160270B5044619
:104F7000C06986B000280D4606DBC0B2012108F0EA
:104F8000C5F8012008F0EEF80023227B5E1CDBB29E
:104F90009A421FD9194A1068411C1160E95C184AED
:104FA0001154D15C6846102207F0C4FE694603A87C
:104FB00007F0A5FE134903A807F05AFF014612485F
:104FC00007F070FD03A807F037FE684607F034FECF
:104FD0003346DAE70D490C4807F08CFD2069036879
:104FE0009B699847606A08F0CBF8E069002803DB0A
:104FF000C0B2002108F08AF806B070BD741C002011
:105000005E1C0020104902085C2100205C59020847
:10501000F0B5C9430B4EC9B2705C0B4DC0436C5C1C
:10502000C0B20021AC46CFB2BB4207D0555C0131C3
:105030004540705D60401CF80540F4E744EA0020FC
:10504000F0BD00BF5C5802080C5A02082DE9F0417F
:105050000D78037BFF2D01EB030204460E4612F888
:10506000028C12F8017C03D090F82820AA4219D1B2
:10507000A268033B204612F8011BDBB2FFF7C8FF12
:1050800047EA0827874202D00A480B490CE020462D
:10509000711CFFF771FEFF2D4FF0010007D1607307
:1050A000BDE8F0810348054907F024FD0020BDE874
:1050B000F08100BF5C21002084590208B059020829
:1050C000F8B50446C0690F46002806DBC0B20121CE
:1050D00008F01CF8012008F045F8194D19491A4844
:1050E00007F008FD194E2B6894F828105A1CF1544B
:1050F000237B2A600022D0B298420AD2286800F1AD
:10510000010EC5F800E017F802E0013206F800E0F1
:10511000F1E7A2682046FFF77BFF2B68020AF254F2
:105120001E449A1C7070606A2A6008F029F8E069D1
:10513000002803DBC0B2002107F0E8FFF8BD00BF84
:10514000741C0020E05902085C2100205E1C002035
:10515000D2B238B504460D460273002A3ED020492B
:10516000204807F0C7FC207B09F0F2F80023A0607C
:10517000227B591CDBB29A4204D9E85CA268D05465
:105180000B46F5E71748184907F0B4FC0025237BC8
:105190009D4207D2A3681348595D102207F040FDD5
:1051A0000135F4E710490F4807F0A4FC2046A16838
:1051B000FFF74CFF68B1637B032B04D12046A16845
:1051C000FFF77EFF05E0022B03D12046A168FFF721
:1051D000CDFEA06809F0C4F80023237338BD00BFDA
:1051E000005A02085C2100203358020808B5032049
:1051F00006F0B4F9014B01221A7008BD811C002091
:1052000070B55E480D46097805F0C0F86978064625
:105210005A4805F0BBF806EB8606594C06EB8606A5
:1052200000EB8600E080A978544805F0AFF8607183
:10523000E978524805F0AAF8207129794F4805F01D
:10524000A5F86979A0704D4805F0A0F8A9796070BB
:105250004A4805F09BF84B4920704B4807F02FFC5B
:10526000E1880A22484807F0BAFC4849464807F056
:1052700026FC61790A22444807F0D2FC444942489E
:1052800007F01DFC21790A223F4807F0C9FC41497B
:105290003D4807F014FCA1780A223B4807F0C0FC07
:1052A0003D49394807F00BFC61780A22364807F07F
:1052B000B7FC3A49344807F002FC0A222178324808
:1052C00007F0AEFC06F080FC642007F04BFF2046A0
:1052D000FAF7F4FF0146324806F05EF8642007F062
:1052E00041FF06F077FC2E4806F059F801462046AB
:1052F000FAF758FFE1886423B1FBF3F1C9B21F4804
:1053000005F03BF82870E2884FF47A73B2FBF3F1B2
:1053100003FB11211948C9B205F02FF868706179B3
:10532000164805F02AF8A8702179144805F025F8E8
:10533000A178E870114805F020F8617828710F48CD
:1053400005F01BF8217868710C4805F016F8002468
:10535000A871295D10220C4807F059FC01340A4855
:10536000104907F0ACFB072CF3D1074807F0ACFB62
:10537000BDE8704004480C4907F0BCBB4D2100203B
:10538000781C00200C5B02085C210020135B0208E3
:105390001B5B0208215B0208285B0208325B0208E3
:1053A000821C0020104902083C5B020870B51B48B3
:1053B00086B0FAF783FF1A4C054606F005FC0A2072
:1053C00007F0D0FE2946204605F0E6FF204605F00E
:1053D000E6FF144D14492A688618684607F06EFCEB
:1053E000694603A807F08BFC296803A807F066FD4F
:1053F00001460E4807F074FB03A807F01DFC684641
:1054000007F01AFC0A493246204605F0CAFF0A2076
:1054100007F0A8FE06F0DEFB06B070BD781C002089
:10542000821C0020E01800205F5B02085C21002045
:10543000ED5101080148112105F0A5BF821C002093
:1054400070B5134C236801332360124B1D7855B19E
:1054500011482568FDF716FE0A23584385420ED3EE
:105460000023236008E00C482668FDF7C1FD0A23ED
:105470005843864203D32560084B01221A70084B1B
:105480001A6801321A60074B1A6801321A6070BD3F
:105490008C1C00208D1B00203F1C0020522100206E
:1054A0007820002074200020154B10B51A6886B0B3
:1054B00001321A601A68B2F5615F04D300221A60E3
:1054C000104B01221A70104C684623680F490133B3
:1054D000236007F0F3FB694603A807F010FC21687E
:1054E00003A807F0EBFC0146094807F0F9FA03A806
:1054F00007F0A2FB684607F09FFB06B010BD00BF97
:10550000881C0020D11C0020841C0020E15B0208C4
:105510005C21002010B5084C0849204607F049FAE4
:1055200020460121064A07F063FA20460021BDE823
:10553000104007F035BA00BF54220020A0860100B9
:105540004154010810B5084C0849204607F031FACB
:1055500020460121064A07F04BFA20460021BDE80B
:10556000104007F01DBA00BF5C22002040420F002F
:10557000A954010810B5054C204607F003FA20464F
:105580000021BDE8104007F00BBA00BF54220020F4
:1055900010B5054C204607F0F5F920460021BDE87E
:1055A000104007F0FDB900BF5822002010B5064C8E
:1055B000204607F0E7F92046002107F0F1F9034BF8
:1055C00000221A6010BD00BF5C220020841C002055
:1055D000014807F0CFB900BF5822002008B50348A2
:1055E00007F0C8F9024B00221A6008BD5C220020B7
:1055F000841C002038B5072868D8DFE800F00410C4
:105600001C2834404C580A250024002007F05AFD7D
:1056100004440A2007F0A6FD013DF6D152E00A2518
:105620000024012007F04EFD04440A2007F09AFDF3
:10563000013DF6D146E00A250024042007F042FD92
:1056400004440A2007F08EFD013DF6D13AE00A2518
:105650000024052007F036FD04440A2007F082FDEF
:10566000013DF6D12EE00A250024062007F02AFD90
:1056700004440A2007F076FD013DF6D122E00A2518
:105680000024072007F01EFD04440A2007F06AFDED
:10569000013DF6D116E00A250024242007F012FD72
:1056A00004440A2007F05EFD013DF6D10AE00A2518
:1056B0000024252007F006FD04440A2007F052FDCF
:1056C000013DF6D10A20B4FBF0F038BD002038BD12
:1056D0002DE9F04FA44B89B01C781E462CBBA34B80
:1056E000E35CDBB1E5B22946A148FDF73FFD007858
:1056F000FFF780FF2A466D000146EDB29C48FDF79A
:1057000069FD2846012103F0C9F9681CC0B20021D7
:1057100003F0C4F9974B1A68974B1A600134062CB2
:10572000DDD1964A012333701370924D924F2A684F
:105730003B68D31A072B45D9904B1A789846002A14
:1057400040D08F488F4907F0D5F90024874AA35CE1
:10575000914653B16600F6B23046012103F09EF93E
:10576000701CC0B2012103F099F90134062CEDD16F
:1057700006F0A8FA4FF4FA6007F0F4FC002419F8D8
:10578000043073B12B68804A6600F6B230460021BF
:1057900042F8243003F082F9701CC0B2012103F0FA
:1057A0007DF90134062CEAD10023784A88F80030CC
:1057B00001231370764A72487649137007F09AF9FC
:1057C0002B683B60714B1B78002B00F06D812A68C1
:1057D0003B68D31A042B40F267816D4B1A789846C8
:1057E000F2B167486C4907F085F900245F4BE35C30
:1057F00063B1E6B231465E48FDF7B8FC0078FFF7CA
:10580000F9FE324601465A48FDF7ACFE0134062C3B
:10581000ECD100235A48614988F8003007F06AF952
:1058200000263446B0465E4BE218E35C0192002B42
:1058300000F0CA80E1B24E48FDF798FC90F800B045
:105840005846FFF7D7FE594682464948FDF79EFD68
:10585000594681464648FDF761FFC9EB0002BAEBA5
:10586000520F834600F2AC804748296830584D4AB1
:10587000091AB15002A84C49009207F01FFA02A978
:1058800005A807F03CFA214605A807F017FB474991
:1058900007F0EEFA009AB15807F010FB444907F000
:1058A000E7FA0146364807F0FDF805A807F0C4F905
:1058B00002A807F0C1F93C4902A807F0FFF902A9C4
:1058C00005A807F01CFA214605A807F0F7FA3949A0
:1058D00007F0CEFA514607F0F1FA0146284807F0E2
:1058E000FFF805A807F0A8F902A807F0A5F92E49C6
:1058F00002A807F0E3F902A905A807F000FA21467B
:1059000005A807F0DBFA2C4907F0B2FA494607F080
:10591000D5FA01461A4807F0E3F805A807F08CF914
:1059200002A807F089F9204902A807F0C7F902A9DF
:1059300005A807F0E4F9214605A807F0BFFA1F49BA
:1059400007F096FA594607F0B9FA01460C4807F0F5
:10595000C7F805A807F070F902A807F06DF9019AD9
:105960000023137030E000BF2C1C002024180020FE
:10597000441C0020841C0020881B0020901800205C
:105980005C210020665C0208441800205C1A00209C
:10599000541A00208A5C0208DC5C0208F85C0208E9
:1059A00094180020141C002086530208145D02087D
:1059B000FE560208395D02084B5D0208635D02086D
:1059C00008F101085FFA88F80134062C06F1040694
:1059D0007FF429AFB8F1000F66D1A948A94907F0B3
:1059E00089F84446A84EA35D13B3A84B5FFA84F828
:1059F00053F824104246A648FEF744F9A54902A8E8
:105A000007F05CF902A905A807F079F94146A0481A
:105A1000FEF714FA014605A807F050FA0146984827
:105A200007F05EF805A807F007F902A807F004F9E7
:105A30000134062CD6D1984B00241C70335D6BB119
:105A40004FEA44085FFA88F84046012103F026F83F
:105A500008F10100C0B2012103F020F80134062C46
:105A6000ECD14FF4FA6007F07DFB85488B4907F0D5
:105A700041F80024335D6BB14FEA44085FFA88F8BF
:105A80004046012103F00AF808F10100C0B20021EC
:105A900003F004F80134062CECD12B68804A3B60FB
:105AA000012313707F4A13707D4B1A78002A00F08F
:105AB000E3802B683A689B1A042B40F2DD80794B17
:105AC0001A781F46EAB16E48774907F013F80024A8
:105AD0006D4BE35C63B1E6B231466D48FDF746FBC2
