:020000040800F2
:1000000000C0002075790008617C0008657C00084C
:10001000697C00086D7C0008717C0008C17C0008C8
:10002000C17C0008C17C0008C17C0008C17C0008BC
:10003000C17C0008C17C0008C17C00085181000817
:10004000C17C0008C17C0008C17C00085178000810
:10005000C17C0008C17C0008C17C0008C17C00088C
:10006000C17C0008C17C0008C17C0008C17C00087C
:10007000C17C0008C17C0008C17C0008C17C00086C
:10008000C17C0008C17C0008397D0008C17C0008E3
:10009000C17C0008C17C0008C17C0008C17C00084C
:1000A00099830008BD830008E183000819840008D3
:1000B0006D840008DD8400084D850008C17C0008BF
:1000C000C17C0008C17C0008C17C0008C17C00081C
:1000D000C17C00084588000899880008ED88000860
:1000E000C17C000899780008C17C0008758600086A
:1000F00099860008BD860008F5860008897D0008FD
:10010000C17C0008C17C0008BD850008C17C0008D6
:1001100041890008958900082D860008518600084D
:10012000C17C0008C17C0008C17C0008C17C0008BB
:1001300010B5054C237833B9044B13B10448AFF321
:1001400000800123237010BD18170020000000005C
:10015000B4B8000808B5064B1BB106480649AFF312
:1001600000800648036813B1054B03B1984708BDEA
:1001700000000000B4B800081C1700201817002069
:1001800000000000012902D11C30C0B270470629CE
:1001900084BF01F1FF31C9B211F0010F14BF1E205D
:1001A0001F207047444B2DE9F047B1FBF3F603FBEA
:1001B00016113C23B1FBF3F203FB12120546027049
:1001C0004FF46160B1FBF0F200FB1211B1FBF3F3ED
:1001D0006B704FF4FA63AA70B6B2EB80EC884FF400
:1001E000C873B4FBF3F803FB18481FFA88F8B8F19A
:1001F000000F16D06423B4FBF3F203FB12439BB24F
:10020000002B53D014F0030140F26D130CBF4FF4D8
:10021000B7721A4696420EDB002908BF4FF4B77337
:1002200004E0B6F5B77F06DB4FF4B773F61A013476
:10023000B6B2EC80D2E700236B716423B4FBF3F712
:1002400003FB1747BFB2B8F1000F06D03FB114F05F
:10025000030F14BF0020012002E0012000E0384617
:1002600095F80590C0B24946FFF78CFF864209F128
:10027000010A15D3B8F1000F06D03FB114F0030FF7
:1002800014BF0020012002E0012000E03846C0B287
:100290004946FFF777FF301A86B285F805A0D2E706
:1002A00001362E7185F805A0BDE8F087B6F5B67F5A
:1002B000C1DD40F26D13B9E780510100F8B5427815
:1002C00087783C2303FB072702780579467903FBEF
:1002D0000727013D013EEDB2F6B2044605714671B5
:1002E000013E731CE38834D04FF4C872B3FBF2F1C3
:1002F00002FB113292B262B16422B3FBF2F002FB54
:10030000103080B230B113F0030F14BF0020012071
:1003100000E00120C0B2F1B2FFF734FF284485B2FB
:10032000DEE74FF4C872B3FBF2F102FB113292B276
:10033000AAB16422B3FBF2F102FB113292B28AB18C
:1003400013F0030F40F26D1208BF4FF4B77215445B
:10035000ADB2013B9BB2B3F5FA6FE2D205E04FF4C8
:10036000B772F4E740F26D12F1E7024800FB057046
:10037000F8BD00BF8051010006F0C4BA38B50D4683
:10038000044606F0DAFA290A49006039204601F0ED
:10039000FE0106F069FB204606F03FFBE9B220466D
:1003A00006F062FB204606F038FB204606F0C5FA50
:1003B0002046A12106F058FB204606F02EFB002126
:1003C000204606F078FB0546204606F009FB20464D
:1003D00006F0CEFA284638BD70B50D4616460446DE
:1003E00006F0ABFA290A49006039204601F0FE0107
:1003F00006F03AFB204606F010FBE9B2204606F074
:1004000033FB204606F009FB3146204606F02CFB64
:10041000204606F002FB204606F0AAFABDE870402E
:100420000A2009F045B8000008B5184A51789378B9
:1004300043EA0123A3F52043152B1CD8DFE803F082
:100440000B230D0F1B1B1B1B1B1B1B1B1B1B1B1B1E
:100450001B1113151719002008BD022008BD082024
:1004600008BD032008BD042008BD052008BD0620E6
:1004700008BD072008BD00214FF40072034809F0B1
:100480007DFF092008BD012008BD00BF38180020ED
:1004900010B5074C6018114606F03CF9054B1B7867
:1004A0001C4414F8073C1B1A5842584110BD00BFA9
:1004B00038180020481A0020084B18795B7943EA65
:1004C000002045F25553984205D04CF20303C31A5D
:1004D0005842584170470120704700BF381800202B
:1004E000044B9B79552B044B0CBF012200221A7040
:1004F000704700BF381800209D1A002010B5084C26
:10050000E379552B01D1012010BD064802F031F8E6
:10051000E3798342F7D0D0F1010038BF002010BD4D
:1005200038180020BB1D002013B50D4B1C7A552C2C
:1005300001D1012012E00B48694601F075FF00234C
:100540001A461DF803108C42F3D019B90132D2B209
:10055000052AEED00133052BF3D1002002B010BDE7
:1005600038180020BB1D002070B505461E46FFF759
:100570008FFF044640B91C4AD3781A441379D62B0E
:1005800002D01A481A492BE02846FFF795FF044687
:1005900078B12846FFF7A4FF2846FFF7AFFF0446CF
:1005A00070B96EB11349114808F0F8FB0F481249B1
:1005B00016E012490D4808F0F1FB0C4810490FE015
:1005C0002846FFF7B1FF044660B99DF810300BB91B
:1005D000012407E00B49054808F0E0FB03480A49FD
:1005E00008F0DCFB204670BD381800207C1E00207F
:1005F0006CD0000890D00008C7D0000810D00008C8
:100600003ED00008FED0000836D10008204B13B5BC
:100610001B78002B39D000230093042117220123DB
:10062000FFF7A2FF40B31B491B4808F0B7FB1A486D
:1006300008F054FA194B1C7A012C1AD1184A19489F
:10064000D97C147001F0FEFF48B117480F212246F3
:1006500006F042FC1548214601F0E0FB0CE0124890
:100660001021022206F038FC11490B4808F096FBD5
:1006700002E00D4806F0AAFA0E4B08481A7800214D
:1006800002B0BDE8104009F079BE02B010BD00BF55
:100690000E0000206AD100087C1E002038180020BF
:1006A0000C000020B91D0020751E0020B81D002080
:1006B0008AD10008481A00201B4B13B51B78002B69
:1006C00030D00023009304210A220123FFF74CFFBE
:1006D000F8B11649164808F061FB154808F0FEF914
:1006E000144B0124144815491C7001F04FFE38B119
:1006F00013490F4808F052FB12480321022206E07A
:1007000011490B4808F04AFB0E480421224606F026
:10071000E3FB0E4B0E481A78002102B0BDE81040F2
:1007200009F02CBE02B010BD0E000020CED1000892
:100730007C1E00200C000020BB1D00204018002063
:10074000E6D10008751E002028D20008481A0020B3
:100750003818002037B50023009304210F22FFF73B
:1007600003FF58B32349244808F018FB234D2248BF
:1007700008F0B4F9224B0124224805F10A011C704B
:1007800001F079FC68B31F4805F10A0101F0B3FCE0
:1007900038B31D49184808F001FB1A48E97901F0FF
:1007A000AFFEA0B11949144808F0F8FA184805211D
:1007B000224606F091FB134801F07EFD154B0F48D1
:1007C0001A78002103B0BDE8304009F0D7BD1249C6
:1007D000094808F0E3FA0E480621224606F07CFBA1
:1007E000ECE70E49044808F0D9FA0948062101222D
:1007F000F4E700BF6AD200087C1E002038180020F1
:100800000C000020BB1D002010D3000885D200087A
:10081000751E0020481A0020CBD200083DD30008E6
:1008200070B52E4B88B01B78002B54D02C4C002573
:10083000E278009504210123FFF796FE002841D0BD
:100840002849294808F0AAFA274808F047F9274B11
:10085000254827491D7008F0A1FAA67AE37A03EB30
:100860000626042E06D820482249052608F096FAC6
:10087000A572E672204902A808F09EFB02A905A80D
:1008800008F0DDFB314605A808F0C0FC014616481B
:1008900008F07AFA05A808F04DFB02A808F04AFB18
:1008A0001648A17AE27A02F0B1F918B90E48144953
:1008B00008F074FA627B237B009212480021012227
:1008C00006F094FD104B06481A78002108B0BDE8E8
:1008D000704009F053BD08B070BD00BF0E0000208D
:1008E0003818002078D300087C1E00200C0000205F
:1008F00094D30008CDD30008F3D30008C51D002011
:1009000003D40008751E0020481A00203A4B73B526
:100910001B78002B6ED000240094042105220123B3
:10092000FFF722FE00285CD03449354808F036FA3B
:100930003449334808F032FA314808F0CFF8324EE3
:10094000324A01233370137007F014FB03F0FCF9F3
:10095000032006F05DFF2E4B25461C702D4B1C70AE
:100960002D4B1C702D4B1C702D4B1C702D4B1C6087
:100970002D4B1C702D4B1C702D4B1C702D4B1C7067
:100980002D4B1C702D4B1C702D4B1C602D4B1C7067
:100990002D4A0023A3502D4AE8B2A3502C4A01212E
:1009A000A3502C4AA3502C4AA3502C4AA3502C4AA3
:1009B000A3502C4AA3502C4AA3502C4A0434AB54C5
:1009C0002B4AAB542B4AAB542B4AAB54013505F0A0
:1009D0002DFE0C2DDCD1012228480721327006F0B3
:1009E0007BFA274B27481A78002102B0BDE87040F7
:1009F00009F0C4BC02B070BD0E00002044D4000851
:100A00007C1E00205DD400080C000020B5170020DB
:100A1000221E0020E91D0020321E0020041E00209E
:100A2000741D0020E01A0020FE1D0020FA1D002089
:100A3000F81D0020231E0020B4170020B617002048
:100A4000001E0020FF1D002074170020E41A002063
:100A5000781D0020F8170020B8170020241D002062
:100A60005C1A0020A01A002034170020641D00200A
:100A7000381A0020491A00200F000020751E00209F
:100A8000481A0020381800202DE9F0418A4B90B018
:100A90001B78002B00F00D81884C0025E278009532
:100AA00004210123FFF760FD002800F0F98084494C
:100AB000844808F073F9834808F010F807F05AFAF0
:100AC000814B627A1D70814B81491A70A27A814BE9
:100AD0007C481A7008F062F9237BE67A0BAD7E49F8
:100AE00008A803EB062608F067FA08A9284608F0CC
:100AF000A6FA3146284608F089FB0146714808F0FD
:100B000043F9284608F016FA08A808F013FA7348C3
:100B1000E17A227B01F0F4FF064600284CD17049AF
:100B2000684808F03BF96F4B01223046FF211A70EC
:100B300008F0B3FCFF210746304608F0AEFC6A49D6
:100B4000064605A808F038FA05A9284608F077FAFD
:100B50001022F9B208A808F095FA08A9284608F06A
:100B600022FB0146574808F00FF908A808F0E2F9FF
:100B7000284608F0DFF905A808F0DCF95B4905A86C
:100B800008F01AFA05A9284608F059FA1022F1B21D
:100B900008A808F077FA08A9284608F004FB0146DF
:100BA000484808F0F1F808A808F0C4F9284608F009
:100BB000C1F905A808F0BEF928460021142209F061
:100BC000DDFBE678093E142E01D8002305E03D4800
:100BD000474908F0E3F8022207E0B34204D2E218E2
:100BE000527BEA540133F8E703223E4BFF210020F9
:100BF0001A7008F052FCFF218046002008F04DFCDE
:100C00003949074602A808F0D7F902A908A808F050
:100C100016FA10225FFA88F105A808F033FA05A940
:100C200008A808F0C0FA0146264808F0ADF805A863
:100C300008F080F908A808F07DF902A808F07AF910
:100C40002A4902A808F0B8F902A908A808F0F7F99B
:100C50001022F9B205A808F015FA05A908A808F0AD
:100C6000A2FA0146174808F08FF805A808F062F9C3
:100C700008A808F05FF902A808F05CF91D482946A9
:100C8000324604F0F1FA637A227B0093A37AE17A88
:100C900001931948012306F0BDF9184B01221A707F
:100CA000174B06481A78002110B0BDE8F04109F052
:100CB00065BB10B0BDE8F0810E00002038180020A0
:100CC0006DD400087C1E00200C0000205A1A002061
:100CD00097D400085B1A0020EDD40008C51D002041
:100CE000FDD40008761E00203ED500084AD5000835
:100CF00056D50008331E0020751E0020F81D002068
:100D0000481A0020F0B54E4B89B01B78002B00F03C
:100D100094804C4E00230093F27804210123FFF7C6
:100D200023FC494C002800F086804849484808F0D8
:100D300035F8474807F0D2FE464B1A780AB15B787F
:100D40005BB94549424808F029F80023009343481D
:100D500040490122424B00F0DFFE424B727A1B7881
:100D6000384D9A4267D1404BAA7A1B789A4262D199
:100D700001233E493648237008F010F82B7BEF7AA8
:100D800005AC3B4902A803EB072708F015F902A9B7
:100D9000204608F054F93946204608F037FA014653
:100DA0002B4807F0F1FF204608F0C4F802A808F02D
:100DB000C1F8042F07D826482E4907F0EFFF00237B
:100DC000EB7205232B732C48F17A327B01F0D4FEB1
:100DD00020B92A491E4807F0E1FF20E028491C48B5
:100DE00007F0DCFF274902A808F0E6F802A9204630
:100DF00008F025F9204801F0FBFE0146204608F0E6
:100E000005FA0146124807F0BFFF204608F092F8A5
:100E100002A808F08FF84FF47A7008F049FB00231D
:100E2000F218527BE2540133072BF9D116482146C0
:100E300002F0A0FD01E00023237009B0F0BD00BF67
:100E40000E000020381800200C000020A7D5000854
:100E50007C1E0020721E0020D3D50008B81D002083
:100E6000ECD500085A1A00205B1A0020F6D50008BD
:100E700054D6000867D60008C51D0020BBD6000860
:100E8000FFD6000821D70008E81D00202DE9F04F0B
:100E9000744B89B01B78002B00F0E180724E002467
:100EA000F278009404210123FFF75EFB002800F094
:100EB000C9806E496E4807F071FF6D4807F00EFE5D
:100EC0006C4F6D4A012313703B7007F053F802F02A
:100ED0003BFF032006F09CFC684A694B1470694A8A
:100EE0001C701470684A694B1470694A1C70147045
:100EF000684B694A1C701470684B694A1C70147006
:100F0000684B694A1C701460684B694A1C60147015
:100F10002546BB469A46674A0023A350664A674F58
:100F2000A350674ADFF8D481A350664ADFF8D09116
:100F3000A350654AE351A350644AE8B2A350644AFF
:100F40000121AB54634A44F80830AB54624A44F878
:100F50000930AB54614A0434AB54013505F066FBEB
:100F60000C2DD8D101235E4896F8481096F84920F8
:100F70008BF8003001F086FE10B13D48594901E080
:100F80003B48594907F00AFF554801F0B7FE574959
:100F9000CAF8000002A808F00FF802A905A808F096
:100FA0004EF8DAF8001005A808F030F9014630488C
:100FB00007F0EAFE05A807F0BDFF02A807F0BAFF98
:100FC00006F0D8FF0022284B1046114606EBD0044D
:100FD00094F84A400C41E40714D59D7ADC7A04EB7E
:100FE0000524BC5093F82A5093F82B4004EB0524B9
:100FF00048F8024093F84C5093F84D4004EB052418
:1010000049F802400131C9B2082900F1010008BFC6
:1010100000210C2803F1020302F10402D6D1144886
:1010200007F05CFDFF21002008F037FAFF210020C7
:1010300008F033FA2E4801210B4A06F0F3F802F0CB
:1010400065FE03E00A482B4907F0A8FE2A4B064834
:101050001A78002109B0BDE8F04F09F08FB909B046
:10106000BDE8F08F0E000020381800202ED70008B1
:101070007C1E00200C000020B5170020FE1D002063
:10108000221E0020FA1D0020F81D0020E91D00206E
:10109000231E0020321E0020B4170020041E002052
:1010A000B6170020741D0020001E0020E01A00204A
:1010B000FF1D0020781D0020F81700207417002065
:1010C000241D00205C1A0020A01A002034170020E4
:1010D000641D0020381A0020491A00200F0000204B
:1010E000C51D00205BD700089FD70008BFE8000897
:1010F000751E0020E6D70008481A0020E41A0020D8
:10110000B81700202DE9F041754B98B01B78002BE3
:1011100000F0E380734D0024EA7800940421012359
:10112000FFF722FA002800F0C3806F496F4807F0EC
:1011300035FE6E4807F0D2FC6D4B01266D4895F8E0
:10114000221095F823201E7001F072FC20B96A4924
:10115000664807F023FE00E02646002467496348FE
:101160000FAF07F01BFE22233846214610220494BD
:1011700005948DF8103009F001F933238DF83C30D7
:101180002346EA18927A04A95A540133082BF8D15D
:101190000023EA18927CFA540133102BF9D15548F8
:1011A00001F0A4FB002800F08C805248394601F081
:1011B000FBFB002800F0858051494C4807F0EEFD0C
:1011C0004C4801F062FB4F4805F05EFBEC78474865
:1011D000203CE4B24C4907F0E1FD0A2C13D800236F
:1011E000A34206AF05D2EA1892F82420FA5401333C
:1011F000F6E745493D4807F0D1FD444839460368C4
:1012000022469B68984706F0B5FE4FF47A7008F0C6
:101210004FF900243D4807F07DFC00280DF14C08F3
:101220000DDD3A4807F022FC08F8040001340B2CCD
:10123000F0D12E48364907F0B1FD012421E004B376
:10124000344909A807F0B8FE09A90CA807F0F7FE71
:1012500021460CA807F0DAFF0146244807F094FD68
:101260000CA807F067FE09A807F064FE002718F82D
:1012700007101E481022013707F026FEA742F6D1BC
:101280000CE01A48244907F089FD34B11748234976
:1012900007F084FD0024042600E003266A7A2B7AF6
:1012A0008DE8040102941E483146012205F046FFF4
:1012B0001C4B0C481A78002118B0BDE8F04109F029
:1012C0005DB81949094807F069FD0A4801F0FAFAC2
:1012D0000C4805F0D9FA022678E718B0BDE8F0818D
:1012E0000E0000203818002004D800087C1E0020C2
:1012F0000C000020C51D00202ED8000869D8000869
:101300003CD90008701E00208DE50008AC1E0020AE
:10131000A1D80008B6D80008C9D8000801D900082B
:10132000751E0020481A002079D9000810B504461F
:10133000FFF77AF8092839D8DFE800F024292E05CC
:101340000A0F1419331E2046BDE81040FFF75EB99E
:101350002046BDE81040FFF7AFB92046BDE8104079
:10136000FFF7F8B92046BDE81040FFF759BA20460C
:10137000BDE81040FFF7CABA0D480E49BDE810405D
:1013800007F00CBD2046BDE81040FFF77DBB2046AE
:10139000BDE81040FFF7B6BC2046BDE81040FFF79F
:1013A000B1BE2046BDE81040FFF770BD10BD00BFC4
:1013B0007C1E0020B6D900082DE9F043564B8BB0B7
:1013C0001B688046554D06F0D5FD00214FF4007294
:1013D000534808F0D3FF002452482C7007F09AFBC2
:1013E0000A284F4E2F467ED94E483146802207F0BC
:1013F0008FFD2870C3B29C426BD2335D484DFE2BEB
:1014000065D12B1993F80390474901A807F0D4FD43
:1014100001A907A807F013FE1022494604A807F007
:1014200054FE04A907A807F0BEFE01463F4807F096
:10143000ABFC04A807F07EFD07A807F07BFD01A820
:1014400007F078FD3B780B3B1B1B99453AD809EB1D
:1014500004032B445A790D2A31D19A790A2A2ED1C4
:10146000DA790D2A2BD11A7A0A2A28D15A7A0D2A2A
:1014700025D19B7A0A2B22D12C482D4907F073FCE9
:10148000E4B2002509F10B0362199D42D2B210D2D9
:10149000B15C284B1022E954244807F00CFD234886
:1014A000254907F060FC254B01351A7801321A7086
:1014B000E8E71E48224907F071FC01240AE01B48B6
:1014C000204901E01948204907F068FC01E0013497
:1014D00090E70024124800214FF4007208F04EFFFC
:1014E00000233B7006E0304621464FF4007208F0BE
:1014F00045FF2C7006F03EFD1CB14046FFF716FF7D
:1015000007E00C4821464FF4007208F037FF0B4B00
:101510001C700BB0BDE8F083CC1F00209C1A00208B
:10152000241B0020941E0020D4D900087C1E00201B
:10153000E4D900083818002070E80008481A002094
:1015400055DD0008F2D900081DDA000808B51D2095
:10155000002107F01BFF1D20012107F07DFF102057
:10156000002107F013FF1120002107F00FFF1C20BE
:10157000002107F00BFF1120002107F06DFF1C2058
:10158000012107F069FFBDE808401020002107F0A5
:1015900063BF0000014807F01BBB00BF941E002082
:1015A00008B561B100211C2007F056FF962007F016
:1015B0007FFFBDE808401C20012107F04DBF08BD9A
:1015C00008B500211D2007F047FF0C4807F003FB7A
:1015D0000220002107F0DAFE0320002107F0D6FEEA
:1015E0000220002107F038FF0320002107F034FF1C
:1015F000BDE808401C20002107F02EBF941E0020EB
:1016000010B50B78452B12D14B78522B0FD18B781C
:10161000CC78303B03EB8303303C04EB4304E4B26F
:1016200021460A22034807F04FFC204610BD0A203D
:1016300010BD00BF7C1E00200B784F2B07D14878CF
:101640004B2804D113704B78012053707047002051
:1016500070470000F0B593B00F46684668491646DB
:101660001C4607F0A9FC664903A807F0A5FC06A8DC
:10167000634907F0A1FC0025B5420DD2795D0A222D
:101680000FA807F0FFFC0FA9684607F047FD0FA859
:1016900007F050FC0135EFE75A490CA807F08CFC25
:1016A0000CA9684607F017FE0022034669460FA8FA
:1016B00007F014FE0FA903A807F0CBFC0FA807F052
:1016C00039FC0CA807F036FC4E490CA807F074FC56
:1016D0000CA9684607F0FFFD029B021D69460FA892
:1016E00007F0FCFD0FA906A807F0B3FC0FA807F050
:1016F00021FC0CA807F01EFC059B022B05D103A8BA
:1017000007F037FE3038C5B210E0042B30D103A803
:1017100007F02FFE642290FBF2F302FB1302303B32
:10172000303A03EB830302EB4305EDB2364909A8D7
:1017300007F042FC09A90FA807F081FC10222946F6
:101740000CA807F09FFC0CA90FA807F02CFD2F494F
:1017500007F036FD01462E4807F016FB0CA807F0EF
:10176000E9FB0FA807F0E6FB09A807F0E3FB2570EB
:10177000089B022B05D106A807F0FBFD3038C5B247
:1017800010E0042B30D106A807F0F3FD642290FB93
:10179000F2F302FB1302303B303A03EB830302EB1C
:1017A0004305EDB21B4909A807F006FC09A90FA8DB
:1017B00007F045FC102229460CA807F063FC0CA991
:1017C0000FA807F0F0FC114907F0FAFC0146104899
:1017D00007F0DAFA0CA807F0ADFB0FA807F0AAFB98
:1017E00009A807F0A7FB657006A807F0A3FB03A8EC
:1017F00007F0A0FB684607F09DFB13B0F0BD00BFEB
:1018000055DD00084EDA000853DA00085ADA0008FD
:101810007C1E002060DA0008F8B54C78432C08D113
:101820008C78532C05D1CC78B4F151056C426C41C5
:1018300000E000240026F5B24F5D01363A2FFAD1C0
:101840000135EDB200279542FEB207F1010706D837
:1018500011F805C0013501F806C0EDB2F3E73CB957
:101860002046C2B2B2420BD20A5C1A540130F8E7E9
:10187000069A022412681470721ED2B2FFF7EAFEB2
:101880000120F8BD37B5154809B9154900E01549DB
:1018900007F069FA642007F00BFE00240F4807F0F8
:1018A00039F90028E5B208DD062C14D00B4807F002
:1018B000DDF80DF804000134F0E755B19DF8023071
:1018C0004F2B08D19DF80300B0F14B03584258410B
:1018D00002E0284600E0002003B030BD941E002046
:1018E00068DA00086CDA000810B5012104461D20F2
:1018F00007F0B2FD07484FF4165107F069F920468A
:101900000121FFF74DFE20460121BDE81040FFF701
:10191000B9BF00BF941E00202DE9F0419EB005AD77
:101920000C4607460021904628466422039308F09F
:1019300025FD21462C4807F016FA642007F0B8FD73
:101940000024294807F0E6F80028E6B207DD642CF9
:1019500045D0254807F08AF828550134F1E726B923
:101960002249234807F01AFA39E09DF814300D2B6C
:1019700035D19DF815300A2B31D11EAB334413F805
:10198000653C0A2B2BD1023E1EAB334413F8643C5A
:101990000D2B24D10021CCB2A31CDBB2B34201F148
:1019A000010107DA1EAA134413F8643C144404F836
:1019B000643CF0E738462946FFF722FE0A280CD19E
:1019C00003AB00933846294622464346FFF724FFDF
:1019D00000280CBF0320022002E0012000E00320C9
:1019E0001EB0BDE8F08100BF941E002072DA00082E
:1019F0007C1E00202DE9F041B2B006460D4690460F
:101A00000021642268461F4608F0B8FC19A800218E
:101A1000642208F0B3FC0024E3B2E85C013420B196
:101A200032AA134403F8640CF6E70146CAB25D1803
:101A300018F80240EDB232AA01312A4414B102F87A
:101A4000644CF3E70D2302F8643C6B1C32A8DBB254
:101A500003442F480A2203F8642C036819A95B6821
:101A600098472C48AA1C036819A99B68D2B29847CA
:101A7000642007F01DFD274807F04CF80028E5B268
:101A800008DD642C3FD0234806F0F0FF0DF8040079
:101A90000134F0E7002D36D09DF800300D2B32D107
:101AA0009DF801300A2B2ED132AB2B4413F8C93CE0
:101AB0000A2B28D1023D32AB2B4413F8C83C0D2B26
:101AC00021D100218B1CDBB2AB4201F1010209DA0A
:101AD00032A8034413F8C83CC9B2014401F8C83C19
:101AE0001146EFE730466946FFF78AFD0A2808D11C
:101AF000304669463A46FFF79FFD80F00100C0B2CC
:101B000002E0012000E0032032B0BDE8F08100BF18
:101B10007C1E0020941E0020F7B51E460446174682
:101B20000D4600218DF80710FFF7ACFE06F022FAF3
:101B3000204631462FB12A460DF10703FFF7ECFE90
:101B400003E0089A2B46FFF755FF03282AD8DFE861
:101B500000F011040207002311E01648164901E0C5
:101B60001448164907F01AF920460121FFF78AFEAA
:101B700000201CE012490F4807F010F912E09DF810
:101B800007205E1CDBB29A420A4809D9E95C1022A0
:101B900007F091F907480B4907F0E5F83346EEE7FF
:101BA00007F0E6F820460121FFF76CFE012003B0A4
:101BB000F0BD00BF7C1E002086DA000897DA00081E
:101BC000A0DA000870E800082DE9F0438BB004AFFC
:101BD000804600210922384602AE002408F0CEFBE0
:101BE00000944046314601222C4BFFF795FF0546F5
:101BF00010B92B482B494BE02346F25C07AC092A6D
:101C000001D8303204E0A2F10A01052998BF373229
:101C1000E2540133082BF0D14FF0000922488DF82F
:101C2000249000F0FFFD0246C0B120491C4807F097
:101C3000B5F81D48394600F063FD50B14B46E15CF4
:101C4000FA5C914217D10133082BF8D11448184996
:101C50001EE01849124807F0A1F807E0009440463A
:101C60003146154BFFF758FF054698B121460E48FF
:101C700000F096FD0AE01149094807F08FF8009737
:101C80004046314600220C4BFFF746FF054601E077
:101C900007F084F828460BB0BDE8F083B6DA0008F8
:101CA0007C1E0020C1DA0008B91D0020E1DA00081E
:101CB00069DB0008FFDA000823DB00082CDB0008E2
:101CC0002DE9F04F89B002AF07F10C068346894633
:101CD00090461C46304600210A2208F04FFB002C9B
:101CE00050D1C7F804D05846CDF8008031460122C3
:101CF0004B46FFF711FF824608B1214606E04049F6
:101D0000404807F04BF83F483F496FE0CCB218F825
:101D100004300131002BF9D1E11D01F4FC71ADEB70
:101D2000010D02A9D8B2A04203D2F05CC85401331D
:101D3000F8E70B46581AC0B2A0420DD213F8010BB7
:101D4000092801D8303004E0A0F10A05052DF1D8AA
:101D5000373003F8010CEDE70025EBB2A34243D284
:101D60004B5D013508EB050010F8010C9842F4D0EA
:101D70002649244807F012F82248254907F00EF8B2
:101D80007B689D466C460023DAB219F802100133D5
:101D90000A29F9D1931D03F4FC73ADEB030DA2F1F5
:101DA000020E02AB0020C1B2551EA94200F1010093
:101DB00003DA19F801505D54F5E700223D215A5528
:101DC000584603F80E10CDF800803146FFF7A4FE08
:101DD000054628B90B480F4906F0E0FFAA4601E086
:101DE0004FF0010AA54605E006480B4906F0D6FF6C
:101DF0007B689D4650461C37BD46BDE8F08F00BF4E
:101E000093DB00087C1E0020B9DB0008DDDB000846
:101E100034DC000876DC0008ABDC00087FB50F225C
:101E200004460D466846002108F0A8FA684869494A
:101E300006F0B4FF0A2606F09DF8002D78D1204662
:101E4000FFF7C2FE64498DF80000644A2B46204625
:101E5000FFF736FF62498DF80100624A2B462046A3
:101E6000FFF72EFF60498DF80200604A2B4620469E
:101E7000FFF726FF5E498DF803005E4A2B46204699
:101E8000FFF71EFF5C498DF804005C4A2B46204694
:101E9000FFF716FF8DF80500594800F013FCF128F4
:101EA0005849204608D1584A2B46FFF709FF5749A1
:101EB0008DF80600464807E04A4A2B46FFF700FF28
:101EC00053498DF80600424806F068FF5149524ACE
:101ED00000232046FFF7F4FE50498DF807004E4AD4
:101EE00000232046FFF7ECFE4D498DF80800464AD6
:101EF00000232046FFF7E4FE4A498DF809004A4ACC
:101F000000232046FFF7DCFE48498DF80A00484AC6
:101F100000232046FFF7D4FE324A8DF80B004549D6
:101F200020460023FFF7CCFE0D228DF80C000EE0BA
:101F3000334800F0C7FBF1280CBF334A294A20463A
:101F400030490023FFF7BCFE01228DF8000000237A
:101F50001DF80310A9B938491D4806F01FFF204697
:101F6000FFF7C2FC2046FFF72BFB06F003F82046E4
:101F7000FFF7BAFC4FF4FA6007F09AFA05F0FAFF9F
:101F800005E00133D9B29142E2D304B070BD2B48D1
:101F900006F0C0FD002803DD284806F067FDF6E7DF
:101FA000013E16F0FF067FF446AF2549084806F0CB
:101FB000F5FE2449064806F0F1FE40F6B83007F079
:101FC00077FA05F0D7FF04B0BDE8704006F006B818
:101FD0007C1E0020D3DC000802DD00080EDD0008B6
:101FE00017DD000814DD000821DD00082DDD0008E4
:101FF00036DD000842DD00084BDD000856DD000834
:10200000B91D002059DD000863DD000866DD000809
:1020100073DD000880DD00088ADD00088DDD000822
:1020200097DD0008A1DD0008AADD0008ADDD00088D
:10203000B7DD0008BADD0008C4DD0008941E0020EA
:10204000E1DD00080DDE00081520012107F004BACB
:102050001520002107F000BA10B500210446152014
:1020600007F094F91520012107F0F6F92046BDE8A4
:102070001040FEF781B97FB505460E46FFF7E8FF31
:102080000D2433192146284613F80D2C0134FEF790
:10209000A3F9162CF5D13046092104F03BFB064686
:1020A000214628463246FEF797F90D242146284658
:1020B000FEF764F901AB23440134162C03F80D0C30
:1020C000F4D101A8092104F025FBB04203D0FFF7A9
:1020D000BBFF00200DE028460B21FEF74FF95528E5
:1020E00004D028460B215522FEF776F9FFF7ACFF06
:1020F000012004B070BD7FB505460E46FFF7A8FF6E
:10210000172433192146284613F8172C0134FEF7FB
:1021100063F9202CF5D13046092104F0FBFA06467C
:10212000214628463246FEF757F91724214628460D
:10213000FEF724F901AB23440134202C03F8170CDB
:10214000F4D101A8092104F0E5FAB04203D0FFF769
:102150007BFF00200DE028460C21FEF70FF95528E3
:1021600004D028460C215522FEF736F9FFF76CFF04
:10217000012004B070BDF0B585B001AD06460F4634
:1021800028460021092208F0F9F80D24214630469E
:10219000FEF7F4F82B190134162C03F80D0CF5D1C9
:1021A00021463046FEF7EAF809210446284604F0A5
:1021B000B1FA844206D10023EA5CFA540133092BB8
:1021C000FAD101E0002000E0012005B0F0BDF0B53B
:1021D00085B001AD06460F4628460021092208F0C9
:1021E000CDF8172421463046FEF7C8F82B190134E4
:1021F000202C03F8170CF5D121463046FEF7BEF827
:1022000009210446284604F085FA844206D10023B9
:10221000EA5CFA540133092BFAD101E0002000E016
:10222000012005B0F0BD37B50C461E210546FEF76E
:10223000A5F81F218DF804002846FEF79FF802211B
:102240008DF8050001A804F065FA207003B030BDD8
:1022500010B50B210446FEF791F888B1FFF7F8FEA0
:10226000204600220B21FEF7B7F8FFF7EDFE2046CF
:102270000B21FEF783F8D0F1010038BF002010BD1C
:10228000012010BD10B50C210446FEF777F888B187
:10229000FFF7DEFE204600220C21FEF79DF8FFF737
:1022A000D3FE20460C21FEF769F8D0F1010038BFBB
:1022B000002010BD012010BD10B521210446FEF7FD
:1022C0005DF8552811D0FFF7C3FE20465522212185
:1022D000FEF782F8FFF7B8FE20462121FEF74EF800
:1022E000B0F155035842584110BD012010BD08B54A
:1022F0002121FEF743F8B0F155035842584108BD7B
:1023000070B504460D46FFF736FF20B1204629463A
:10231000FFF75DFF48BB20462946FFF72CFF48B179
:102320001549164806F03AFD20462946BDE870409A
:10233000FFF7E1BE20462946FFF749FF06460F4852
:1023400046B10F4906F02AFD20462946BDE87040F7
:10235000FFF791BE0B4906F021FD2046FFF778FFFD
:102360002046FFF78FFF304670BD0749034806F04F
:1023700015FD012070BD00BF36DE00087C1E002068
:102380006DDE0008A4DE0008B8DE0008F8B50446DB
:102390000E462F2573192046294613F82F7CFDF78A
:1023A000EDFF874203D10135342DF3D136E0FFF73D
:1023B0004FFE2F2573192946204613F82F2C01357F
:1023C000FEF70AF8342DF5D10521304604F0A2F9C4
:1023D0000746294620463A46FDF7FEFF2F252046B0
:1023E0002946FDF7CBFF731913F82F3C834217D111
:1023F0000135342DF3D120462946FDF7BFFFB84201
:102400000ED120463521FDF7B9FF552804D02046CE
:1024100035215522FDF7E0FFFFF716FE0120F8BD3C
:10242000FFF712FE0020F8BDF7B505460E462F2433
:1024300021462846FDF7A2FF00AB23440134342C8B
:1024400003F82F0CF4D10521684604F063F9214606
:1024500007462846FDF792FF874207D100231DF863
:102460000320F2540133052BF9D101E0002000E0F4
:10247000012003B0F0BD73B505462F242146284640
:10248000FDF77CFF00AB23440134342C03F82F0C00
:10249000F4D16846052104F03DF921460646284658
:1024A000FDF76CFF331A5842584102B070BD38B581
:1024B0000546FFF7CDFD2F2428462146FDF75EFF98
:1024C00068B1284621460022FDF786FF28462146AE
:1024D000FDF754FF18B1FFF7B7FD002038BD0134F8
:1024E000342CE9D128463521FDF748FF20B1284694
:1024F00035210022FDF770FFFFF7A6FD012038BD52
:1025000037B50D468DF8071036210446FDF736FF26
:1025100085422BD002ADFFF79BFD15F8012D20461B
:102520003621FDF759FF0121284604F0F3F8372141
:1025300002462046FDF750FF20463621FDF71EFFDC
:102540009DF8073083420DD120463821FDF716FF54
:10255000552804D0204638215522FDF73DFFFFF7CE
:1025600073FD03E0FFF770FD002000E0012003B0E1
:1025700030BD3621FDF702BF37B536210546FDF7E0
:10258000FDFE02AB03F8010D1846012104F0C2F86C
:10259000372104462846FDF7F1FE231A58425841D8
:1025A00003B030BD10B536210446FDF7E7FE88B113
:1025B000FFF74EFD204636210022FDF70DFF204695
:1025C0003621FDF7DBFE18B1FFF73EFD002010BD00
:1025D000FFF73AFD012010BD10B548210446FDF774
:1025E000CDFE552811D0FFF733FD20465522482156
:1025F000FDF7F2FEFFF728FD20464821FDF7BEFE5D
:10260000B0F155035842584110BD012010BD10B51E
:102610004D210446FDF7B2FE552810D0FFF718FDF6
:10262000204655224D21FDF7D7FEFFF70DFD204630
:102630000021FDF7A3FE003018BF012010BD0120CE
:1026400010BD000037B58DF807101031C9B201294F
:10265000044629D84C21FDF791FE9DF807308342AE
:1026600028D002ADFFF7F4FC15F8012D20464C21CF
:10267000FDF7B2FE0121284604F04CF84E21024637
:102680002046FDF7A9FE20464C21FDF777FE9DF878
:102690000730834205D12046FFF7B9FFFFF7D4FC8E
:1026A00008E0FFF7D1FC03E00448054906F076FB9B
:1026B000002000E0012003B030BD00BF7C1E0020E0
:1026C000E8DE000837B54C210446FDF757FE02ABA3
:1026D00003F8010D1846012104F01CF84E210546AF
:1026E0002046FDF74BFE854202D19DF8070004E02D
:1026F0002046F021FFF7A6FFF02003B030BD000018
:10270000F7B505460E464F2421462846FDF736FE0E
:1027100000AB23440134572C03F84F0CF4D10821AB
:10272000684603F0F7FF214607462846FDF726FED8
:1027300087420CD100231DF80320F2540133082BEB
:10274000F9D10448044906F029FB012000E00020EB
:1027500003B0F0BD7C1E00201EDF000810B558211C
:102760000446FDF70BFE552808D0FFF771FC204604
:1027700058215522FDF730FEFFF766FC10BD10B55D
:1027800058210446FDF7FAFD40B1FFF761FC2046F1
:1027900058210022FDF720FEFFF756FC10BD000077
:1027A000F7B50F460546FFF753FC3846082103F0FE
:1027B000B1FF4F2406463B192146284613F84F2CFB
:1027C0000134FDF709FE572CF5D121462846324643
:1027D000FDF702FE4F2421462846FDF7CFFD00AB52
:1027E00023440134572C03F84F0CF4D168460821D8
:1027F00003F090FF864206D02846FFF7C0FFFFF7A0
:1028000023FC002007E00549054806F0C7FA2846E2
:10281000FFF7A4FF012003B0F0BD00BF33DF0008C5
:102820007C1E002008B55821FDF7A8FDB0F1550326
:102830005842584108BD70B504460E461546FFF78C
:1028400007FC204632462221FDF7C6FD2046232103
:102850002A46FDF7C1FDFFF7F7FB70BDFDF78EBD02
:10286000FDF78CBD70B504460E461546FFF7F0FB2C
:10287000204632462421FDF7AFFD204625212A4679
:10288000FDF7AAFDFFF7E0FB70BD10B50446FFF7AA
:10289000DFFB204655225921FDF79EFDFFF7D4FBB3
:1028A00020465921FDF76AFDB0F1550358425841C1
:1028B00010BD08B55921FDF761FDB0F1550358422F
:1028C000584108BD10B50446FFF7C2FB2046002260
:1028D0005921FDF781FDFFF7B7FB20465921FDF790
:1028E0004DFDD0F1010038BF002010BD73B50023AD
:1028F00005460E4600930193FFF7AAFB5A243319AD
:102900002146284613F85A2C0134FDF765FD622C48
:10291000F5D13046082103F0FDFE06462146284643
:102920003246FDF759FD5A2421462846FDF726FD7B
:1029300000AB23440134622C03F85A0CF4D1082173
:10294000684603F0E7FE0446FFF77EFBB442064804
:1029500004D1064906F022FA012003E0044906F0FA
:102960001DFA002002B070BD7C1E002048DF000868
:1029700076DF000838B509490546094806F00EFA21
:102980005A2421462846FDF7F9FC064B1A19013452
:10299000622C02F85A0CF4D1184638BDA7DF0008A3
:1029A0007C1E0020BC1D002073B5002305460E468A
:1029B00000930193FFF74CFB63243319214628460B
:1029C00013F8632C0134FDF707FD6B2CF5D130466D
:1029D000082103F09FFE0646732128463246FDF784
:1029E000FBFC632421462846FDF7C8FC00AB2344CA
:1029F00001346B2C03F8630CF4D10821684603F012
:102A000089FE0446FFF720FBB442064804D106497C
:102A100006F0C4F9012003E0044906F0BFF90020E4
:102A200002B070BD7C1E0020DFDF00080DE0000852
:102A300070B50E46742104461546FDF79FFCB04262
:102A400005D120467521FDF799FCA84219D0FFF762
:102A5000FFFA204674213246FDF7BEFC2046752160
:102A60002A46FDF7B9FCFFF7EFFA20467421FDF77F
:102A700085FCB0420BD120467521FDF77FFCA842B2
:102A800005D10649064806F089F9012070BD0549BF
:102A9000034806F083F9002070BD00BF85E0000800
:102AA0007C1E0020A7E0000810B50446FFF7D0FA0E
:102AB000204674210022FDF78FFC2046752100225C
:102AC000FDF78AFCFFF7C0FA20467421FDF756FC9B
:102AD00020B920467521FDF751FC28B1054906486B
:102AE00006F05CF9002010BD0449034806F056F9D1
:102AF000012010BDC9E000087C1E0020ECE00008A9
:102B000070B50E46762104461546FDF737FCB042F7
:102B100005D120467721FDF731FCA84219D0FFF7F7
:102B200097FA204676213246FDF756FC204677215B
:102B30002A46FDF751FCFFF787FA20467621FDF77C
:102B40001DFCB0420BD120467721FDF717FCA842AF
:102B500005D10649064806F021F9012070BD054956
:102B6000034806F01BF9002070BD00BF0FE100080C
:102B70007C1E002037E1000870B50E467A2104461D
:102B80001546FDF7FBFBB04205D120467B21FDF742
:102B9000F5FBA84219D0FFF75BFA20467A213246AE
:102BA000FDF71AFC20467B212A46FDF715FCFFF7AE
:102BB0004BFA20467A21FDF7E1FBB0420BD12046CB
:102BC0007B21FDF7DBFBA84205D10649064806F04C
:102BD000E5F8012070BD0549034806F0DFF8002044
:102BE00070BD00BFB9E100087C1E0020EBE10008C9
:102BF00038B57A210546FDF7C1FB7B2104462846FE
:102C0000FDF7BCFB00EB042038BD000070B50E469C
:102C1000782104461546FDF7B1FBB04205D12046A8
:102C20007921FDF7ABFBA84219D0FFF711FA204636
:102C300078213246FDF7D0FB204679212A46FDF760
:102C4000CBFBFFF701FA20467821FDF797FBB04256
:102C50000BD120467921FDF791FBA84205D1064909
:102C6000064806F09BF8012070BD0549034806F0B0
:102C700095F8002070BD00BF80E200087C1E002097
:102C8000ACE2000870B50E467C2104461546FDF7FF
:102C900075FBB04205D120467D21FDF76FFBA842B0
:102CA00019D0FFF7D5F920467C213246FDF794FB79
:102CB00020467D212A46FDF78FFBFFF7C5F9204608
:102CC0007C21FDF75BFBB0420BD120467D21FDF757
:102CD00055FBA84205D10649064806F05FF80120D9
:102CE00070BD0549034806F059F8002070BD00BFCB
:102CF00032E300087C1E002062E3000838B57C2126
:102D00000546FDF73BFB7D2104462846FDF736FBD3
:102D100000EB042038BD00007FB53249054632483B
:102D200006F03CF8304805F0D9FE05F023F941F2F1
:102D3000883006F0BDFB05F01DF92B4805F0EAFED2
:102D400000280ADD284805F091FEC1B2274806F0A8
:102D5000EAF9022006F0ACFBEFE7244CA668002E4F
:102D600034D0204606F0F9FA21461F4806F00CF848
:102D70001F4901A806F020F901A9204606F066FACD
:102D8000064601A806F0D6F81748EEB1194906F034
:102D900005F81949204606F064F928462121FDF777
:102DA000EDFA40B1FFF754F9284621210022FDF742
:102DB00013FBFFF749F928462121FDF7DFFAD0F18F
:102DC000010038BF00200AE00C4901E006480C4928
:102DD00005F0E4FF2046084906F043F9304604B008
:102DE00070BD00BFF4E300087C1E0020241E0020FC
:102DF00045E4000849E4000855DD00087FE40008C8
:102E0000AAE400080022026042607047006820B116
:102E100003688B4201D08068F9E7704770B50446BB
:102E20000C2016460D4606F097FF002282602268AD
:102E300080E860000AB9206001E06268906060602C
:102E400070BD10B51446FFF7E1FF08B144600120E2
:102E500010BD08B5FFF7DAFF00B1406808BD01F505
:102E60001C414131FFF7DABF01F51C414131FFF749
:102E7000E8BF01F51C414131FFF7EBBF002A01F12A
:102E8000010114BF4FF47F420022FFF7C7BF002AA1
:102E900001F51C5101F1110114BF4FF47F420022D2
:102EA000FFF7BCBF01F5EA413131FFF7B7BF002A98
:102EB00001F1010114BF4FF47F420022FFF7C1BFAF
:102EC000002A01F51C5101F1110114BF4FF47F429A
:102ED0000022FFF7B6BF01F5EA413131FFF7B1BF7C
:102EE00008B50131FFF7B5FFB0F57F4358425841AF
:102EF00008BD01F51C5108B51131FFF7AAFFB0F567
:102F00007F435842584108BD01F5EA413131FFF78E
:102F1000A0BF000070B504460D4609480949164691
:102F200005F03CFFA06806F01FFF0220207306F0AA
:102F300013FF803D0323A06005704670637370BD6E
:102F40007C1E0020CDE40008F8B5531E7C2B0446FF
:102F50000F46164602D903210A4617E001F51C4127
:102F60004131FFF753FF18B92046032102220DE03B
:102F7000A06806F0F9FE701C4000C0B2207306F095
:102F8000EBFEA06030B9204603210422BDE8F840E2
:102F9000FFF7C0BF03230370237B0025023B437070
:102FA000E9192046FFF765FFA3680135020A03F817
:102FB0001520A368B54203EB45035870F0D10323F5
:102FC0006373F8BD70B504460E461546FFF74CFF17
:102FD00018B920460621022208E020463146FFF7B4
:102FE00048FFA84206D0204606210422BDE87040D2
:102FF000FFF790BF0223637370BD2DE9F8431F46AE
:1030000016467A1E7A2A044688469DF8203002D851
:10301000B3EB470F03D02046102103221CE006F536
:103020001C45413505EB070920462946FFF7EEFE12
:1030300018B92046102102220EE001354D45F3D18A
:10304000A06806F091FE0520207306F085FEA060C2
:1030500030B9204610210422BDE8F843FFF75ABFDB
:1030600010230370330A4370002307718670C37006
:1030700008F106053744BE4205F102050BD015F8EC
:10308000022C15F8013C3146204643EA0222FFF7A4
:10309000EBFE0136EFE703236373BDE8F8832DE908
:1030A000F843531EB3F5FA6F04460F46154602D394
:1030B0000121032219E00131FFF7A8FE18B92046CB
:1030C0000121022211E0A06806F04EFEC5F3C703FD
:1030D0006A070CBF023303332373207B06F03CFEE8
:1030E000A06030B9204601210422BDE8F843FFF773
:1030F00011BF01230370237B05EB0708023B4370DC
:103100003E46002546451CD031462046FFF7E8FEE6
:10311000C7F10109B1444FEAD909012109F10203BC
:10312000A268A94010B1D05C014302E0D05C20EA63
:1031300001010135EDB2082DD15408BF002501363B
:10314000E0E703236373BDE8F88300002DE9F8434B
:10315000531EB3F5FA6F04460F46154602D30221FB
:1031600003221FE001F51C511131FFF74FFE18B982
:1031700020460121022215E02249234805F00EFED7
:10318000A06806F0F1FDC5F3C7036A070CBF023360
:1031900003332373207B06F0DFFDA06030B92046A7
:1031A00002210422BDE8F843FFF7B4BE02230370F6
:1031B000237B05EB0708023B43703E46002546454E
:1031C0001CD031462046FFF794FEC7F10109B144F7
:1031D0004FEAD909012109F10203A268A94010B1FF
:1031E000D05C014302E0D05C20EA01010135EDB280
:1031F000082DD15408BF00250136E0E7032363738F
:10320000BDE8F883F2E400087C1E0020F8B5531EE8
:103210007C2B04460F46164602D90421032217E0F0
:1032200001F5EA413131FFF7F1FD18B920460121DE
:1032300002220DE0A06806F097FD701C4000C0B2AD
:10324000207306F089FDA06030B9042120460A46AB
:10325000BDE8F840FFF75EBE04230370237B002522
:10326000023B4370E9192046FFF74EFEA368013583
:10327000020A03F81520A368B54203EB4503587012
:10328000F0D103236373F8BD70B5B2F57F4F86B0FC
:1032900004460E4603D012B10521032215E0151C89
:1032A00018BF0125204631462A46FFF700FE18B90F
:1032B00020460521022208E020463146FFF710FE95
:1032C000A84205D0204605210422FFF723FE17E07F
:1032D0000C49684605F070FE694603A805F0AFFE8C
:1032E000094903A805F06CFF0146084805F04CFDAC
:1032F00003A805F01FFE684605F01CFE0223637359
:1033000006B070BD1CE5000834E500087C1E0020F6
:103310002DE9F0438BB00446894604A86C49DF08C8
:103320001D46164605F048FE04A907A805F087FECD
:10333000394607A805F06AFF0146664805F024FDF6
:1033400007A805F0F7FD04A805F0F4FD6B0705F1EB
:10335000FF3318BF0137B3F5F66F03D29DF848303D
:10336000BB4207D05C495B4805F018FD20460F21A1
:1033700003224DE0771C07EB050820463946FFF78E
:1033800045FD18B920460F21022241E0013747458B
:10339000F3D15048514905F001FD0627504901A8D5
:1033A00005F00AFE01A904A805F049FE394604A863
:1033B00005F02CFF4B4905F003FF102219F8071008
:1033C000804607A805F05EFE07A9404605F0EBFE23
:1033D0000146404805F0D8FC07A805F0ABFD04A85D
:1033E00005F0A8FD013701A805F0A4FD102FD5D1E7
:1033F0003A49384805F0D2FCA06806F0B5FC052033
:10340000207306F0A9FCA06028B920460F210422F1
:10341000FFF780FD58E00F230370330A43702B0A37
:103420008670C37005712D492A4805F0B7FC062740
:103430002B4901A805F0C0FD01A904A805F0FFFD76
:10344000394604A805F0E2FE264905F0B9FE10222F
:1034500019F80710804607A805F014FE07A9404692
:1034600005F0A1FE01461B4805F08EFC07A805F0FB
:1034700061FD04A805F05EFD013701A805F05AFDC5
:10348000102FD5D11348154905F088FC3544B046B6
:103490000027C6EB080309EBD3039A7941463A416A
:1034A0000137FFB2204602F00102FFF700FD08F1EC
:1034B0000108082F08BF0027A845EAD105480A4996
:1034C00005F06CFC032363730BB0BDE8F08300BF11
:1034D00046E500087C1E002058E5000826F100089B
:1034E00079E5000880E5000884E500082DE9F04151
:1034F0008B784F788CB0CE7843EA07270B7991F818
:1035000000800C460546544903A843EA062605F008
:1035100053FD03A909A805F092FD1022217806A801
:1035200005F0B0FD06A909A805F03DFE01464B488F
:1035300005F02AFC06A805F0FDFC09A805F0FAFC38
:1035400003A805F0F7FC464903A805F035FD03A9DB
:1035500009A805F074FD1022394606A805F0B5FD4E
:1035600006A909A805F01FFE01463C4805F00CFC21
:1035700006A805F0DFFC09A805F0DCFC03A805F0AF
:10358000D9FC384903A805F017FD03A909A805F0DF
:1035900056FD1022314606A805F097FD06A909A898
:1035A00005F001FE01462D4805F0EEFB06A805F0EA
:1035B000C1FC09A805F0BEFC03A805F0BBFC08F19E
:1035C000FF330F2B3FD8DFE803F01D230E292F0810
:1035D0003E3E3E3E3E3E3E3E35142846394632464D
:1035E000FFF7F0FC34E0284639463246FFF7ACFCE2
:1035F0002EE063792846009321463A463346FFF78A
:10360000FCFC25E0284639463246FFF748FD1FE01E
:10361000284639463246FFF799FD19E028463946D3
:103620003246FFF7F3FD13E0284639463246FFF7EE
:103630002BFE0DE063792846009321463A46334637
:10364000FFF766FE04E0284641460122FFF762FCD0
:103650000CB0BDE8F08100BF93E500087C1E00209F
:103660009FE50008A9E5000810B50446FFF7CAFB6E
:10367000204610BD80F828100120704770B5049EC8
:103680000161C6610446154608461146DAB205F0E6
:1036900063FA4FF4FA6005F00BFF002E08DBF6B278
:1036A0003046002105F072FE3046002105F0D4FEC0
:1036B000B5F5964F06DD40F2EE23236240F2D66365
:1036C000636207E0044B93FBF5F32362034B93FB28
:1036D000F5F56562012070BDC0E1E400C00E160280
:1036E00070B50446C06986B000280D4606DBC0B23E
:1036F000012105F0B1FE012005F0DAFE0023227B56
:103700005E1CDBB29A421FD9194A1068411C116035
:10371000E95C184A1154D15C6846102205F0B2FCED
:10372000694603A805F08BFC134903A805F048FD82
:103730000146124805F00AFB03A805F0FBFB6846AA
:1037400005F0F8FB3346DAE70D490C4805F026FB97
:10375000206903689B699847606A05F0B7FEE069D5
:10376000002803DBC0B2002105F076FE06B070BD74
:10377000DC1D0020C61D002070E800087C1E002013
:10378000B3E60008F0B5C9430B4EC9B2705C0B4DEF
:10379000C0436C5CC0B20021AC46CFB2BB4207D084
:1037A000555C01314540705D60401CF80540F4E710
:1037B00044EA0020F0BD00BFB3E5000863E700085D
:1037C0002DE9F0410D78037BFF2D01EB0302044648
:1037D0000E4612F8028C12F8017C03D090F82820D3
:1037E000AA4219D1A268033B204612F8011BDBB2A2
:1037F000FFF7C8FF47EA0827874202D00A480B496B
:103800000CE02046711CFFF771FEFF2D4FF0010008
:1038100007D16073BDE8F0810348054905F0BEFAA1
:103820000020BDE8F08100BF7C1E0020DBE6000820
:1038300007E70008F8B50446C0690F46002806DB14
:10384000C0B2012105F008FE012005F031FE194D3E
:1038500019491A4805F0A2FA194E2B6894F8281055
:103860005A1CF154237B2A600022D0B298420AD21B
:10387000286800F1010EC5F800E017F802E00132F7
:1038800006F800E0F1E7A2682046FFF77BFF2B680F
:10389000020AF2541E449A1C7070606A2A6005F095
:1038A00015FEE069002803DBC0B2002105F0D4FD5D
:1038B000F8BD00BFDC1D002037E700087C1E00209B
:1038C000C61D0020D2B238B504460D460273002A48
:1038D0003ED02049204805F061FA207B06F03CFAF2
:1038E0000023A060227B591CDBB29A4204D9E85C19
:1038F000A268D0540B46F5E71748184905F04EFA70
:103900000025237B9D4207D2A3681348595D1022EE
:1039100005F0DAFA0135F4E710490F4805F03EFAF0
:103920002046A168FFF74CFF68B1637B032B04D1ED
:103930002046A168FFF77EFF05E0022B03D1204659
:10394000A168FFF7CDFEA06806F00EFA00232373EE
:1039500038BD00BF57E700087C1E00208AE500083C
:1039600008B5032003F054FF014B01221A7008BD73
:10397000E91D002070B55E480D46097803F0CEF8C9
:10398000697806465A4803F0C9F806EB8606594C92
:1039900006EB860600EB8600E080A978544803F029
:1039A000BDF86071E978524803F0B8F820712979C0
:1039B0004F4803F0B3F86979A0704D4803F0AEF8B2
:1039C000A97960704A4803F0A9F84B4920704B4828
:1039D00005F0C9F9E1880A22484805F054FA484937
:1039E000464805F0C0F961790A22444805F06CFAAE
:1039F0004449424805F0B7F921790A223F4805F0C9
:103A000063FA41493D4805F0AEF9A1780A223B48E6
:103A100005F05AFA3D49394805F0A5F961780A22BE
:103A2000364805F051FA3A49344805F09CF90A2223
:103A30002178324805F048FA04F01EFA642005F0B7
:103A400037FD2046FCF73AFC0146324803F0FEFD04
:103A5000642005F02DFD04F015FA2E4803F0F9FD61
:103A600001462046FCF79EFBE1886423B1FBF3F19D
:103A7000C9B21F4803F049F82870E2884FF47A73FE
:103A8000B2FBF3F103FB11211948C9B203F03DF871
:103A900068706179164803F038F8A87021791448E5
:103AA00003F033F8A178E870114803F02EF861783C
:103AB00028710F4803F029F8217868710C4803F049
:103AC00024F80024A871295D10220C4805F0F3F9B0
:103AD00001340A48104905F046F9072CF3D107488C
:103AE00005F046F9BDE8704004480C4905F056B9A8
:103AF000711E0020E01D002063E800087C1E0020ED
:103B00006AE8000872E8000878E800087FE8000822
:103B100089E80008EA1D002070E8000893E8000822
:103B200070B51B4886B0FCF7C9FB1A4C054604F07B
:103B3000A3F90A2005F0BCFC2946204603F086FDC7
:103B4000204603F086FD144D14492A6886186846FD
:103B500005F032FA694603A805F071FA296803A84E
:103B600005F054FB01460E4805F00EF903A805F0D8
:103B7000E1F9684605F0DEF90A493246204603F0CD
:103B80006AFD0A2005F094FC04F07CF906B070BDD3
:103B9000E01D0020EA1D0020E01A0020B6E8000821
:103BA0007C1E0020613900080148112103F045BD49
:103BB000EA1D0020174B10B51A6886B001321A6052
:103BC000154A1168013111601A68B2F5615F04D3BA
:103BD00000221A60114B01221A70114C68462368AA
:103BE00010490133236005F0E7F9694603A805F0A1
:103BF00026FA216803A805F009FB01460A4805F0EA
:103C0000C3F803A805F096F9684605F093F906B0E5
:103C100010BD00BFF01D0020F41D0020311E00204B
:103C2000EC1D002038E900087C1E002038B50E4C41
:103C30000E48236801332360FEF7DAFF042812D907
:103C40000A48FEF7D5FFB0F5E16F00D938BD074847
:103C50002568FEF7CDFF854205D300232360044B82
:103C600001221A7038BD38BDF41D0020C51D00208A
:103C7000741E002010B5084C0849204604F0F1FFDE
:103C800020460121064A05F00BF820460021BDE838
:103C9000104004F0DDBF00BF741F002040420F0041
:103CA0002D3C000810B5084C0849204604F0D9FF07
:103CB00020460121064A04F0F3FF20460021BDE81A
:103CC000104004F0C5BF00BF7C1F002040420F0021
:103CD000B53B000810B5054C204604F0ABFF20466C
:103CE0000021BDE8104004F0B3BF00BF741F0020E6
:103CF00010B5054C204604F09DFF20460021BDE88C
:103D0000104004F0A5BF00BF781F002010B5064C7E
:103D1000204604F08FFF2046002104F099FF034B5A
:103D200000221A6010BD00BF7C1F0020EC1D002087
:103D3000014804F077BF00BF741F0020014804F061
:103D400071BF00BF781F002008B5034804F06AFF68
:103D5000024B00221A6008BD7C1F0020EC1D0020D1
:103D600030B5354C8DB02378002B63D0334B3448BD
:103D70001D78002D5AD00025324905F00FF8257026
:103D8000FFF7D6FF2846FF2105F087FBFF21C4B2CD
:103D9000284605F082FB2C49C5B203A805F00CF9B2
:103DA00003A909A805F04BF91022214606A805F041
:103DB00069F906A909A805F0F6F90146204804F0BA
:103DC000E3FF06A805F0B6F809A805F0B3F803A8C4
:103DD00005F0B0F803A81D4905F0EEF803A909A8FD
:103DE00005F02DF91022294606A805F04BF906A981
:103DF00009A805F0D8F90146114804F0C5FF06A846
:103E000005F098F809A805F095F803A805F092F8D0
:103E100001210A460E482346009503F0E7FAFFF712
:103E200059FF0C49064804F0B9FF03E00A4904F0C1
:103E3000B5FF25700DB030BD741E0020B5170020F1
:103E40007C1E00204AE900083ED500084AD500083B
:103E5000751E002081E90008C1E9000873B52548F6
:103E600002F058FA244EFF213070002005F015FBB7
:103E7000FF21C4B2002005F010FB204B32781978E6
:103E8000C5B291421E4E06D01A701E4801231E492B
:103E9000337004F083FF337893B11C49194804F060
:103EA0007DFF174B00211970194B01221A70194818
:103EB0000095234603F09AFA1248174904F06EFF62
:103EC000164E3378A3B116490E4804F067FF104B25
:103ED0000021317019700F4800950122234603F02C
:103EE00085FA08480F4902B0BDE8704004F056BF9B
:103EF00002B070BD331E0020F91D0020FC1D002003
:103F0000F81D00207C1E0020E6E90008F9E9000801
:103F10000C000020751E00204AEA0008231E002025
:103F200089EA0008DBEA000810B5064C064920467D
:103F300005F042F820460549054ABDE8104005F065
:103F4000D9BB00BF241E002055DD0008358F0008B6
:103F50000800002030B54A4885B0FEF7C8F90028AF
:103F600046D1484B484918704548FEF784F828B1B7
:103F700043484549FEF7BFF8002877D14048FEF78F
:103F800011FB20B13E48FEF792FA002873D10123BD
:103F90008DF804303A48002301A98DF805308DF8DA
:103FA00006308DF807308DF80830FEF7EFF918B1BC
:103FB0003648374904F0F2FE31480121FEF7A0FAF5
:103FC00018B13248334904F0E9FE33492F4804F070
:103FD000E5FE32492D4804F0E1FE09E0304CA368CB
:103FE000EBB92F482C4905F03CF82E48FDF7E4F9D1
:103FF0002348FEF77CF9002833D103F0BBFF2348A8
:1040000004F088FD0028E9DD204804F02FFDC1B24E
:10401000234805F088F8022005F04AFAEFE7204629
:1040200005F09BF92146194804F0AEFE1E4901A88F
:1040300004F0C2FF204601A905F008F9054601A8D1
:1040400004F078FF55B11449204605F00AF80F48EE
:10405000164904F0A3FE164802F0B8FD03F08AFFEB
:10406000BFE7084B01221A7005B030BD114907485F
:1040700004F094FE82E71049044804F08FFE86E7BE
:10408000BB1D00200E000020051E00207C1E00200D
:1040900015EB000852EB000855DD00088EEB000818
:1040A000241E0020591A002047E40008D1EB000824
:1040B000751E002014EC000848EC000870B503F0F1
:1040C00059FF194B1B7843BB70BD184C1848267814
:1040D000184D731C237004F0C9FCA855022005F08C
:1040E000E7F92378132B0CD903F044FF002612497B
:1040F0001248267004F052FE28463146142206F07B
:104100003DF923780D481D4415F8011C102204F0D8
:10411000D2FE0A480A4904F026FE054804F0FAFCDB
:104120000028D2DC70BD00BFFD1D0020FB1D00205B
:10413000AC1E00200E1E00208FEC00087C1E00200C
:10414000C1EC000830B5B4488FB002F0FAFAB348B9
:1041500000F0DCFEB24B06201A684FF4FA6122F040
:10416000E06242F080621A6003F0F4FEAD484FF462
:10417000165104F02DFDAC484FF41651FDF70AFA24
:10418000AA48372104F0C2FE4FF41651A84804F0A3
:104190001FFD03F064FEA748FDF75EFF9E4802F096
:1041A00073FB03F0E7FEA048FDF7D0F901219E481C
:1041B000FDF768FBA04D4FF4FA6005F079F9002493
:1041C0009E482C70FDF7F8F801232B7003F0D2FE07
:1041D000F1219B48FEF736FA21469348FDF71EFE73
:1041E0009748FEF7F9F997498E4804F0D7FD9648AD
:1041F0002221FEF735FB0228044606D192482321EE
:10420000FEF72EFB202805461CD020228E480221D6
:10421000FEF711FB8D4902A804F0CEFE02A908A802
:1042200004F00DFF1022022105A804F03CFF05A9AF
:1042300008A804F0B8FF864904F0C2FF2021044614
:104240000BA816E0834902A804F0B6FE02A908A84C
:1042500004F0F5FE2146102205A804F024FF05A96C
:1042600008A804F0A0FF7A4904F0AAFF29460446F2
:104270000BA8102204F017FF20460BA904F093FFAF
:104280000146684804F080FD0BA804F053FE05A821
:1042900004F050FE08A804F04DFE02A804F04AFE07
:1042A00069482421FEF7DAFA0228044616D1664846
:1042B0002521FEF7D3FA054680B9674908A804F01E
:1042C0007BFE08A90BA804F0BAFE21460BA804F057
:1042D00093FF5F4904F074FF294614E000225A4816
:1042E0000221FEF7BFFA5D4908A804F065FE08A99F
:1042F0000BA804F0A4FE02210BA804F07DFF544992
:1043000004F05EFF002104F077FF0146454804F009
:104310003BFD0BA804F00EFE08A804F00BFEFFF70F
:10432000CDFE4F48FEF7F8FCFFF714FE4C484D4910
:10433000FDF7E6FFA0B943493A4804F02FFD4A498A
:10434000384804F02BFD494802F058FD3B48FDF782
:1043500033F840F6B83002F0EBFB03F00BFEE5E774
:104360004349304804F01AFD03F004FEFFF782FCD5
:10437000FFF7B0FC3F492B4804F010FD31492948B4
:1043800004F00CFDFFF7DAFC3B49264804F006FD7B
:104390002C49244804F002FDFFF784FCFFF7D4FC0D
:1043A0003649204804F0FAFC26491E4804F0F6FC81
:1043B000FF21002005F071F8FF210446002005F0E0
:1043C0006CF8C0B20222E3B200900121274802F04B
:1043D0008FFF2B49134804F0E1FC1A49114804F0FF
:1043E000DDFC0E4801F096FF264B27491870274B3D
:1043F00018700C4804F0D2FC12490A4804F0CEFCB4
:10440000234800210522FEF7B7FB002844D12149AB
:10441000044804F0C3FC60E0701E0020331E00203E
:10442000040001407C1E0020B81D0020941E0020C6
:10443000AC1E0020C41D00200D000020591A0020D1
:10444000B91D002055DD0008BA1D002019EE000836
:1044500031DF000864EE00087AEE000890EE0008F4
:10446000BB1D0020051E0020C3EC0008751E0020A7
:10447000F7EC000810ED00084DED000884ED000891
:10448000BCED0008FC1D0020D1ED0008F91D002046
:10449000C51D0020BBD600081149124804F07EFC5F
:1044A000114908A804F088FD08A90BA804F0C7FD6D
:1044B0000E48FEF79DFB01460BA804F0A7FE01463F
:1044C000084804F061FC0BA804F034FD08A804F0CF
:1044D00031FD4FF47A7004F0EBFF0FB030BD00BF38
:1044E000FFD600087C1E002021D70008C51D002033
:1044F00030B587B0424804F00DFB00280ADD404883
:1045000004F0B4FAC1B23F4804F00DFE022004F0FA
:10451000CFFFEFE73B4CA368002B6ED0204604F0A2
:104520001CFF2146364804F02FFC374903A804F04D
:1045300043FD204603A904F0B6FE054603A804F097
:10454000F9FC002D33D020460021042204F0ECFEBB
:10455000204604F00EFF2D4C02462060C2F30721D6
:104560002B48D2B2FEF78EFB10B12548294901E055
:104570002348294904F012FC2548FEF7BFFB2749D0
:104580002060684604F018FD694603A804F057FD52
:10459000216803A804F03AFE0146194804F0F4FB30
:1045A00003A804F0C7FC684604F0C4FC18E01C49EA
:1045B00003A804F001FD204603A904F047FE0546C8
:1045C00003A804F0B7FC85B1164A0D48137883F0B0
:1045D000010313700BB1144900E0144904F0DEFB31
:1045E0001349084804F03DFD07E01149204604F056
:1045F00038FD03480F4904F0D1FB07B030BD00BFC0
:104600007C1E0020241E0020DBEE0008E01A0020A3
:10461000C51D0020E0EE000816EF0008D1E80008F4
:104620004FEF0008FD1D002058EF000874EF000850
:1046300055DD000890EF00082DE9F04F87B0634882
:1046400004F068FA00280ADD604804F00FFAC1B2ED
:104650005F4804F068FD022004F02AFFEFE75C4C9D
:10466000A368002B00F0AE80204604F076FE2146C1
:10467000564804F089FB574903A804F09DFC2046E6
:1046800003A904F0E3FD054603A804F053FC002D44
:1046900000F096802046504C504904F0E2FC23681C
:1046A0004F4901334948236004F078FB4D4968467F
:1046B00004F082FC694603A804F0C1FC216803A849
:1046C00004F0A4FD0146414804F05EFB03A804F099
:1046D00031FC684604F02EFC40493C4804F05EFB87
:1046E000FFF732FB032003F093F83F4A00231370D7
:1046F0003E4A3F4F13703F4A3B6013703E4A1D468F
:1047000013703E4A1E4613703D4AA34613703D4A3D
:1047100013703D4A13703D4A13703D4A13703D4A71
:1047200013703D4A13703D4B0024EC503C4BDFF8B6
:1047300018A1EC503B4BDFF81491EC503A4BDFF8EA
:104740001081EC50394BF0B2EC50394B0121EC5058
:10475000384B45F80A40F454374B45F80940F454B7
:10476000364B45F80840F454354B0435F4540136C3
:1047700001F05CFF0C2ED6D1DBF8003013F0010302
:1047800013D03048FEF7BAFA386014234AF80430E0
:104790003C2349F804304FF6FF7348F804300434E2
:1047A000302CF2D1FFF7B2FA0AE03B6000224AF85F
:1047B000032049F8032048F803200433302BF5D1B7
:1047C00003F0D8FB07B0BDE8F08F00BF7C1E0020CF
:1047D000241E0020B7EF0008001E002055DD000851
:1047E000B9EF0008FCEF0008221E0020E91D0020A0
:1047F000E01A0020321E0020041E0020741D00203C
:10480000FE1D0020FA1D0020F81D0020231E0020A0
:10481000B4170020B6170020FF1D0020781D0020CF
:10482000F8170020241D00205C1A0020A01A002088
:1048300034170020641D0020381A0020491A002077
:104840000F000020C51D002074170020E41A00206E
:10485000B81700202DE9F043814F87B017F800907A
:104860000446B9F1000F40F0F7807E4DDFF840823A
:104870002B5C002B00F08F807B4E7C4A336852F813
:1048800020209342C0F08780012101F0CFFE784BB9
:1048900005F804907749012568461D7004F08CFBEB
:1048A000694603A804F0CBFB214603A804F09AFC58
:1048B000714904F085FC0146704804F065FA03A8CC
:1048C00004F038FB684604F035FB6C4804F006F948
:1048D0006B4B53F8242052B333686A4908F80450EC
:1048E000694D41F8243068461344684945F824303E
:1048F00004F062FB694603A804F0A1FB214603A86B
:1049000004F070FC624904F05BFC55F8241004F0DC
:104910007DFC0146594804F037FA03A804F00AFB6D
:10492000684604F007FB554804F0D8F833E0594BCB
:10493000594E53F824205949013A43F8242033783A
:1049400068460133337004F037FB694603A804F06E
:1049500076FB317803A804F045FC0146474804F093
:1049600013FA03A804F0E6FA684604F0E3FA4348B1
:1049700004F0B4F833780C2B07D14048484904F0D0
:104980000DFA484B1D70484B1D700020012308F89C
:1049900004003B5561E018F80400002855D0324B64
:1049A0001A68394B53F824309A4256D3394B3A4D52
:1049B00053F824200126013A43F824202B78374964
:1049C000334468462B703E5504F0F6FA694603A856
:1049D00004F035FB297803A804F004FC01462748BD
:1049E00004F0D2F903A804F0A5FA684604F0A2FA8C
:1049F000224804F073F82B780C2B07D11F48284964
:104A000004F0CCF9274B1E70274B1E70012368461B
:104A100018493B5504F0D0FA694603A804F00FFB8F
:104A2000214603A804F0DEFB204904F0C9FB01463F
:104A3000124804F0A9F903A804F07CFA684604F0CF
:104A400079FA0E4804F04AF806E00D4B53F82400BA
:104A5000003018BF012000E0002007B0BDE8F0835F
:104A6000491A0020641D0020EC1D00205C1A002063
:104A7000F81D00200AF000080EF000087C1E00203F
:104A8000E41A0020A01A0020341700202AF00008A1
:104A90009AE50008B8170020B61700203DF000087E
:104AA0004DF00008221E0020231E002073F0000895
:104AB000381A00202DE9F0439B4E87B003F05AFAD4
:104AC00033780C2B00F0DB800024254603F052FAEB
:104AD000964BEFB2E95C002940F0A4804FF001084A
:104AE00005F80380924B04EB0309E358002B55D0E3
:104AF000904BE358002B51D0384601F097FD8E4B78
:104B00008E4A05F803808E4B8E4983F800808E4BC9
:104B1000DFF88C821B686846A350D9F80020134444
:104B200044F8083004F048FA694603A804F087FA0C
:104B3000394603A804F056FB844904F041FB0146C2
:104B4000834804F021F903A804F0F4F9684604F05E
:104B5000F1F98049684604F02FFA694603A804F089
:104B60006EFA394603A804F03DFB7B4904F028FBAC
:104B700054F8081004F04AFB0146754804F004F9A3
:104B800003A804F0D7F9684604F0D4F9704803F09C
:104B9000A5FF724BE358002B6AD0C2E06949684612
:104BA00004F00AFA694603A804F049FA394603A852
:104BB00004F018FB6A4904F003FB0146644804F062
:104BC000E3F803A804F0B6F9684604F0B3F9654BBE
:104BD0000127EF54337864493B446846337004F04E
:104BE000EBF9694603A804F02AFA317803A804F027
:104BF000F9FA0146564804F0C7F803A804F09AF9F8
:104C0000684604F097F9524803F068FF33780C2B9C
:104C10002ED1564B4E4856491F7004F0BFF8554BE5
:104C20001F7025E0013F0A2F07D8DFE807F0080AC8
:104C30000C0E10121416181A1C00002014E001208B
:104C400012E0022010E003200EE004200CE005201A
:104C50000AE0062008E0072006E0082004E009201A
:104C600002E00A2000E00B20FFF7F4FD002858D1F5
:104C700001350C2D04F104047FF428AF51E0FFF757
:104C800063F83A4B3C4D1A7872B100241C703B4BD0
:104C90003B481C70FEF744FF2D483A4904F07EF86B
:104CA000394B1C7001232B702B78002B39D0334DDE
:104CB0002B78002B35D0344C012334492448237001
:104CC00004F06CF83249224804F068F82A4A0023BC
:104CD000317813702B70154800221A5421481A5449
:104CE00015481A54134850F823000133904218BF56
:104CF00011460C2BEFD1317051B92649144804F0FC
:104D00004DF82349124804F049F8FEF7FFFF08E088
:104D100021490F48227004F041F80D481F4904F062
:104D20003DF807B0BDE8F083B61700200F00002063
:104D300074170020B8170020641D0020241D0020D7
:104D4000F81D00200AF00008EC1D002089F0000882
:104D50007C1E00209FF000089AE50008E41A00205D
:104D6000B0F00008491A00203DF00008221E002083
:104D70004DF00008231E0020041E0020E91D002025
:104D8000E81D0020C0F00008B5170020EEF0000874
:104D90001DF100082AF1000854F100088FF1000805
:104DA0005C1A002008B503F0E5F80C48FCF704FB9A
:104DB00000210B480A4600F057FAFFF77BFE00F08F
:104DC00089F8FEF7CDFFFFF749F8FFF735FCFFF74D
:104DD0008FFBBDE80840FFF771B900BF591A0020EA
:104DE000331E002001480021FDF718B8B81D00202F
:104DF0001FB5304801A9FDF783FA2F4CC0B92F49E0
:104E00002F4803F0CBFF2F4801F0F8FF2E48FCF7A6
:104E1000D3FA40F6B83004F04BFB03F0ABF823783C
:104E20000133DBB2322B2370E3D903F0D7F8E0E78C
:104E3000002323701F48FDF71EFBC0B923492048FB
:104E400003F0ACFF1F4801F06BFF1F48FCF7B4FAFA
:104E500040F6B83004F02CFB03F08CF823780133D3
:104E6000DBB2322B2370E5D903F0B8F8E2E7002378
:104E700023701048FDF780FBC0B91549104803F0B6
:104E80008DFF104801F0BAFF0F48FCF795FA40F685
:104E9000B83004F00DFB03F06DF823780133DBB27A
:104EA000322B2370E5D903F099F8E2E70023237051
:104EB00004B010BDBB1D0020301E0020A4F100086E
:104EC0007C1E0020751E0020591A0020F2F10008F7
:104ED0004AF2000808B50A4B1A787AB100221A7013
:104EE000FEF72CFFFFF77EFFFFF782FFFEF700FFC4
:104EF000BDE808400348044903F050BF08BD00BFA7
:104F0000311E00207C1E0020A0F2000813B5D14CF9
:104F10004FF0FF3300934FF4165200232046CE4942
:104F2000FEF7ACFB20460121FEF7A4FB0021204642
:104F30000A46FDF7A3FF204601210022FDF79EFF50
:104F4000204602210022FDF799FF2046032100227E
:104F5000FDF794FF204604210022FDF78FFF204635
:104F600005210022FDF78AFF204606210022FDF7D9
:104F700085FF204607210022FDF780FF20460821FB
:104F80000022FDF77BFF204609210022FDF776FF76
:104F900020460A210022FDF771FF20460B21002246
:104FA000FDF76CFF20460C210022FDF767FF20462D
:104FB0000D210022FDF762FF20460E210022FDF7A1
:104FC0005DFF20460F210022FDF758FF20461021EB
:104FD0000022FDF753FF204611210022FDF74EFF6E
:104FE000204612210022FDF749FF2046132100220E
:104FF000FDF744FF204614210022FDF73FFF204625
:1050000015210022FDF73AFF204616210022FDF768
:1050100035FF204617210022FDF730FF20461821DA
:105020000022FDF72BFF204619210022FDF726FF65
:1050300020461A210022FDF721FF20461B210022D5
:10504000FDF71CFF20461C210022FDF717FF20461C
:105050001D210022FDF712FF20461E210022FDF730
:105060000DFF20461F210022FDF708FF20462021CA
:105070000022FDF703FF204621210022FDF7FEFE5E
:10508000204622210022FDF7F9FE2046232100229E
:10509000FDF7F4FE204624210022FDF7EFFE204616
:1050A00025210022FDF7EAFE204626210022FDF7F9
:1050B000E5FE204627210022FDF7E0FE20462821BC
:1050C0000022FDF7DBFE204629210022FDF7D6FE57
:1050D00020462A210022FDF7D1FE20462B21002266
:1050E000FDF7CCFE20462C210022FDF7C7FE20460E
:1050F0002D210022FDF7C2FE20462E210022FDF7C1
:10510000BDFE20462F210022FDF7B8FE20463021AB
:105110000022FDF7B3FE204631210022FDF7AEFE4E
:10512000204632210022FDF7A9FE2046332100222D
:10513000FDF7A4FE204634210022FDF79FFE204605
:1051400035210022FDF79AFE204636210022FDF788
:1051500095FE204637210022FDF790FE204638219B
:105160000022FDF78BFE204639210022FDF786FE46
:1051700020463A210022FDF781FE20463B210022F5
:10518000FDF77CFE20463C210022FDF777FE2046FD
:105190003D210022FDF772FE20463E210022FDF750
:1051A0006DFE20463F210022FDF768FE00212046CB
:1051B0000A46FDF76CFE204601210022FDF767FE3E
:1051C000204602210022FDF762FE20460321002234
:1051D000FDF75DFE204604210022FDF758FE204623
:1051E00005210022FDF753FE204606210022FDF78F
:1051F0004EFE204607210022FDF749FE00212046F1
:105200000A46FDF74FFE204601210022FDF74AFE27
:10521000204602210022FDF745FE20460321002200
:10522000FDF740FE204604210022FDF73BFE20460C
:1052300005210022FDF736FE204606210022FDF75B
:1052400031FE204607210022FDF72CFE20460021DA
:105250007F2203E0341E0020941E002002B0BDE82F
:105260001040FDF7FCBD00BF10B5874C2046FEF78F
:1052700029FB20460021FDF733FE80F00101C9B271
:105280001E2004F0E9F820460121FDF729FE80F0F8
:105290000101C9B21F2004F0DFF820460221FDF70A
:1052A0001FFE80F00101C9B2262004F0D5F8204687
:1052B0000321FDF715FE80F00101C9B2272004F09B
:1052C000CBF820460421FDF70BFE80F00101C9B2A6
:1052D000282004F0C1F820460521FDF701FE80F0EA
:1052E0000101C9B2292004F0B7F820460621FDF7D4
:1052F000F7FD80F00101C9B2082004F0ADF82046A6
:105300000721FDF7EDFD80F00101C9B20B2004F08B
:10531000A3F820460821FDF7E3FD80F00101C9B2A2
:105320000C2004F099F820460921FDF7D9FD80F002
:105330000101C9B20D2004F08FF820460A21FDF7C3
:10534000CFFD80F00101C9B20F2004F085F820469E
:105350000B21FDF7C5FD80F00101C9B22A2004F040
:105360007BF8202004F062F8021C18BF0122002103
:105370002046FDF7A5FD212004F058F8021C18BFB7
:10538000012201212046FDF79BFD222004F04EF86A
:10539000021C18BF012202212046FDF791FD2320A7
:1053A00004F044F8021C18BF012203212046FDF737
:1053B00087FD2C2004F03AF8021C18BF01220421BA
:1053C0002046FDF77DFD2B2004F030F8021C18BFAD
:1053D000012205212046FDF773FD322004F026F856
:1053E000021C18BF012206212046FDF769FD13208B
:1053F00004F01CF8021C18BF012207212046FDF70B
:105400005FFD002004F004F8002102462046FDF76D
:1054100062FD012003F0FCFF012102462046FDF75A
:105420005AFD042003F0F4FF022102462046FDF756
:1054300052FD052003F0ECFF032102462046FDF754
:105440004AFD062003F0E4FF042102462046FDF752
:1054500042FD072003F0DCFF052102462046FDF750
:105460003AFD242003F0D4FF062102462046FDF732
:1054700032FD252003F0CCFF072102462046BDE87F
:105480001040FDF728BD00BF341E0020002110B5DC
:105490000A463648FDF70BFD012104460022334839
:1054A000FDF705FD08B10134E4B2304802210022C5
:1054B000FDF7FDFC08B10134E4B22C4803210022C1
:1054C000FDF7F5FC08B10134E4B2284804210022BC
:1054D000FDF7EDFC08B10134E4B2244805210022B7
:1054E000FDF7E5FC08B10134E4B2204806210022B2
:1054F000FDF7DDFC08B10134E4B21C4807210022AD
:10550000FDF7D5FC08B10134E4B2184808210022A7
:10551000FDF7CDFC08B10134E4B2144809210022A2
:10552000FDF7C5FC08B10134E4B210480A2100229D
:10553000FDF7BDFC08B10134E4B20C480B21002298
:10554000FDF7B5FC60B10B2C0AD100210A460848D2
:10555000FFF78AFE0749084803F020FC012010BD30
:105560000649054803F01AFC002010BD341E002037
:10557000331E0020D8F200087C1E00200FF3000824
:1055800030B583488BB00C46824903F007FC0222F9
:10559000214601A803F076FD7F4904A803F00CFD25
:1055A00004A907A803F04BFD01A907A803F0FBFD20
:1055B0000146774803F0E8FB07A803F0BBFC04A80A
:1055C00003F0B8FC039D082D40F0EA80012304A8F5
:1055D00001A9002203F082FE0A22002107A803F09D
:1055E00062FD07A904A803F03FFE021C18BF0122B8
:1055F00000216A48FDF75BFC044607A803F09AFC0B
:1056000004A803F097FC022304A801A9012203F0D7
:1056100065FE0A22002107A803F045FD07A904A89A
:1056200003F022FE021C18BF012201215B48FDF796
:105630003EFC054607A803F07DFC04A803F07AFCB5
:105640000DB10134E4B2032304A801A9022203F03E
:1056500045FE0A22002107A803F025FD07A904A89A
:1056600003F002FE021C18BF012202214B48FDF785
:105670001EFC054607A803F05DFC04A803F05AFCD5
:105680000DB10134E4B2042304A801A9032203F0FC
:1056900025FE0A22002107A803F005FD07A904A89A
:1056A00003F0E2FD021C18BF012203213B48FDF775
:1056B000FEFB054607A803F03DFC04A803F03AFCF6
:1056C0000DB10134E4B2052304A801A9042203F0BA
:1056D00005FE0A22002107A803F0E5FC07A904A89B
:1056E00003F0C2FD021C18BF012204212B48FDF764
:1056F000DEFB054607A803F01DFC04A803F01AFC16
:105700000DB10134E4B2062304A801A9052203F077
:10571000E5FD0A22002107A803F0C5FC07A904A89B
:1057200003F0A2FD021C18BF012205211B48FDF752
:10573000BEFB054607A803F0FDFB04A803F0FAFB37
:105740000DB10134E4B2072304A801A9062203F035
:10575000C5FD0A22002107A803F0A5FC07A904A89B
:1057600003F082FD021C18BF012206210B48FDF741
:105770009EFB054607A803F0DDFB04A803F0DAFB57
:105780000DB10134E4B204A801A907220823B3E350
:105790007C1E002046F300086AF30008341E002037
:1057A000072D40F0CD8000210A466448FDF77FFBBD
:1057B000012301A90022044604A803F08FFD0A2258
:1057C000002107A803F06FFC07A904A803F04CFD13
:1057D000021C18BF012201215848FDF768FB05464D
:1057E00007A803F0A7FB04A803F0A4FB0DB1013444
:1057F000E4B2022304A801A9012203F06FFD0A22EA
:10580000002107A803F04FFC07A904A803F02CFD12
:10581000021C18BF012202214848FDF748FB05463B
:1058200007A803F087FB04A803F084FB0DB1013443
:10583000E4B2032304A801A9022203F04FFD0A22C7
:10584000002107A803F02FFC07A904A803F00CFD12
:10585000021C18BF012203213848FDF728FB05462A
:1058600007A803F067FB04A803F064FB0DB1013443
:10587000E4B2042304A801A9032203F02FFD0A22A5
:10588000002107A803F00FFC07A904A803F0ECFC13
:10589000021C18BF012204212848FDF708FB054619
:1058A00007A803F047FB04A803F044FB0DB1013443
:1058B000E4B2052304A801A9042203F00FFD0A2283
:1058C000002107A803F0EFFB07A904A803F0CCFC14
:1058D000021C18BF012205211848FDF7E8FA054609
:1058E00007A803F027FB04A803F024FB0DB1013443
:1058F000E4B2062304A801A9052203F0EFFC0A2262
:10590000002107A803F0CFFB07A904A803F0ACFC13
:10591000021C18BF012206210848FDF7C8FA0546F7
:1059200007A803F007FB04A803F004FB0DB1013442
:10593000E4B204A801A906220723DDE2341E0020F8
:10594000062D40F0B38000210A46A748FDF7AFFAC4
:10595000012104460022A448FDF7A9FA08B1013448
:10596000E4B2012304A801A9002203F0B7FC0A2233
:10597000002107A803F097FB07A904A803F074FC13
:10598000021C18BF012202219748FDF790FA054634
:1059900007A803F0CFFA04A803F0CCFA0DB1013444
:1059A000E4B2022304A801A9012203F097FC0A2211
:1059B000002107A803F077FB07A904A803F054FC13
:1059C000021C18BF012203218748FDF770FA054623
:1059D00007A803F0AFFA04A803F0ACFA0DB1013444
:1059E000E4B2032304A801A9022203F077FC0A22EF
:1059F000002107A803F057FB07A904A803F034FC13
:105A0000021C18BF012204217748FDF750FA054611
:105A100007A803F08FFA04A803F08CFA0DB1013443
:105A2000E4B2042304A801A9032203F057FC0A22CC
:105A3000002107A803F037FB07A904A803F014FC12
:105A4000021C18BF012205216748FDF730FA054600
:105A500007A803F06FFA04A803F06CFA0DB1013443
:105A6000E4B2052304A801A9042203F037FC0A22AA
:105A7000002107A803F017FB07A904A803F0F4FB13
:105A8000021C18BF012206215748FDF710FA0546EF
:105A900007A803F04FFA04A803F04CFA0DB1013443
:105AA000E4B204A801A90522062325E2052D40F051
:105AB0009D8000210A464C48FDF7F9F90121044672
:105AC00000224948FDF7F3F908B10134E4B2464831
:105AD00002210022FDF7EBF908B10134E4B2012301
